{
  "contractName": "MockPocket",
  "abi": [
    {
      "anonymous": false,
      "inputs": [
        {
          "indexed": true,
          "internalType": "address",
          "name": "owner",
          "type": "address"
        },
        {
          "indexed": true,
          "internalType": "address",
          "name": "spender",
          "type": "address"
        },
        {
          "indexed": false,
          "internalType": "uint256",
          "name": "value",
          "type": "uint256"
        }
      ],
      "name": "Approval",
      "type": "event"
    },
    {
      "anonymous": false,
      "inputs": [
        {
          "indexed": true,
          "internalType": "address",
          "name": "previousOwner",
          "type": "address"
        },
        {
          "indexed": true,
          "internalType": "address",
          "name": "newOwner",
          "type": "address"
        }
      ],
      "name": "OwnershipTransferred",
      "type": "event"
    },
    {
      "anonymous": false,
      "inputs": [
        {
          "indexed": true,
          "internalType": "address",
          "name": "from",
          "type": "address"
        },
        {
          "indexed": true,
          "internalType": "address",
          "name": "to",
          "type": "address"
        },
        {
          "indexed": false,
          "internalType": "uint256",
          "name": "value",
          "type": "uint256"
        }
      ],
      "name": "Transfer",
      "type": "event"
    },
    {
      "inputs": [
        {
          "internalType": "uint256",
          "name": "amount",
          "type": "uint256"
        }
      ],
      "name": "addRewards",
      "outputs": [
        {
          "internalType": "bool",
          "name": "",
          "type": "bool"
        }
      ],
      "stateMutability": "nonpayable",
      "type": "function"
    },
    {
      "inputs": [
        {
          "internalType": "address",
          "name": "owner",
          "type": "address"
        },
        {
          "internalType": "address",
          "name": "spender",
          "type": "address"
        }
      ],
      "name": "allowance",
      "outputs": [
        {
          "internalType": "uint256",
          "name": "",
          "type": "uint256"
        }
      ],
      "stateMutability": "view",
      "type": "function"
    },
    {
      "inputs": [
        {
          "internalType": "address",
          "name": "spender",
          "type": "address"
        },
        {
          "internalType": "uint256",
          "name": "amount",
          "type": "uint256"
        }
      ],
      "name": "approve",
      "outputs": [
        {
          "internalType": "bool",
          "name": "",
          "type": "bool"
        }
      ],
      "stateMutability": "nonpayable",
      "type": "function"
    },
    {
      "inputs": [
        {
          "internalType": "address",
          "name": "account",
          "type": "address"
        }
      ],
      "name": "balanceOf",
      "outputs": [
        {
          "internalType": "uint256",
          "name": "",
          "type": "uint256"
        }
      ],
      "stateMutability": "view",
      "type": "function"
    },
    {
      "inputs": [],
      "name": "decimals",
      "outputs": [
        {
          "internalType": "uint8",
          "name": "",
          "type": "uint8"
        }
      ],
      "stateMutability": "view",
      "type": "function"
    },
    {
      "inputs": [
        {
          "internalType": "address",
          "name": "spender",
          "type": "address"
        },
        {
          "internalType": "uint256",
          "name": "subtractedValue",
          "type": "uint256"
        }
      ],
      "name": "decreaseAllowance",
      "outputs": [
        {
          "internalType": "bool",
          "name": "",
          "type": "bool"
        }
      ],
      "stateMutability": "nonpayable",
      "type": "function"
    },
    {
      "inputs": [
        {
          "internalType": "address",
          "name": "account",
          "type": "address"
        }
      ],
      "name": "excludeFromRewards",
      "outputs": [],
      "stateMutability": "nonpayable",
      "type": "function"
    },
    {
      "inputs": [
        {
          "internalType": "address",
          "name": "account",
          "type": "address"
        }
      ],
      "name": "includeInRewards",
      "outputs": [],
      "stateMutability": "nonpayable",
      "type": "function"
    },
    {
      "inputs": [
        {
          "internalType": "address",
          "name": "spender",
          "type": "address"
        },
        {
          "internalType": "uint256",
          "name": "addedValue",
          "type": "uint256"
        }
      ],
      "name": "increaseAllowance",
      "outputs": [
        {
          "internalType": "bool",
          "name": "",
          "type": "bool"
        }
      ],
      "stateMutability": "nonpayable",
      "type": "function"
    },
    {
      "inputs": [
        {
          "internalType": "address",
          "name": "",
          "type": "address"
        }
      ],
      "name": "lastTotalDividends",
      "outputs": [
        {
          "internalType": "uint256",
          "name": "",
          "type": "uint256"
        }
      ],
      "stateMutability": "view",
      "type": "function"
    },
    {
      "inputs": [],
      "name": "name",
      "outputs": [
        {
          "internalType": "string",
          "name": "",
          "type": "string"
        }
      ],
      "stateMutability": "view",
      "type": "function"
    },
    {
      "inputs": [],
      "name": "owner",
      "outputs": [
        {
          "internalType": "address",
          "name": "",
          "type": "address"
        }
      ],
      "stateMutability": "view",
      "type": "function"
    },
    {
      "inputs": [],
      "name": "renounceOwnership",
      "outputs": [],
      "stateMutability": "nonpayable",
      "type": "function"
    },
    {
      "inputs": [
        {
          "internalType": "address",
          "name": "",
          "type": "address"
        }
      ],
      "name": "rewardsExcluded",
      "outputs": [
        {
          "internalType": "bool",
          "name": "",
          "type": "bool"
        }
      ],
      "stateMutability": "view",
      "type": "function"
    },
    {
      "inputs": [],
      "name": "rewardsIncludedSupply",
      "outputs": [
        {
          "internalType": "uint256",
          "name": "",
          "type": "uint256"
        }
      ],
      "stateMutability": "view",
      "type": "function"
    },
    {
      "inputs": [],
      "name": "symbol",
      "outputs": [
        {
          "internalType": "string",
          "name": "",
          "type": "string"
        }
      ],
      "stateMutability": "view",
      "type": "function"
    },
    {
      "inputs": [],
      "name": "totalSupply",
      "outputs": [
        {
          "internalType": "uint256",
          "name": "",
          "type": "uint256"
        }
      ],
      "stateMutability": "view",
      "type": "function"
    },
    {
      "inputs": [
        {
          "internalType": "address",
          "name": "recipient",
          "type": "address"
        },
        {
          "internalType": "uint256",
          "name": "amount",
          "type": "uint256"
        }
      ],
      "name": "transfer",
      "outputs": [
        {
          "internalType": "bool",
          "name": "",
          "type": "bool"
        }
      ],
      "stateMutability": "nonpayable",
      "type": "function"
    },
    {
      "inputs": [
        {
          "internalType": "address",
          "name": "sender",
          "type": "address"
        },
        {
          "internalType": "address",
          "name": "recipient",
          "type": "address"
        },
        {
          "internalType": "uint256",
          "name": "amount",
          "type": "uint256"
        }
      ],
      "name": "transferFrom",
      "outputs": [
        {
          "internalType": "bool",
          "name": "",
          "type": "bool"
        }
      ],
      "stateMutability": "nonpayable",
      "type": "function"
    },
    {
      "inputs": [
        {
          "internalType": "address",
          "name": "newOwner",
          "type": "address"
        }
      ],
      "name": "transferOwnership",
      "outputs": [],
      "stateMutability": "nonpayable",
      "type": "function"
    },
    {
      "inputs": [
        {
          "internalType": "address",
          "name": "to",
          "type": "address"
        },
        {
          "internalType": "uint256",
          "name": "value",
          "type": "uint256"
        }
      ],
      "name": "mint",
      "outputs": [],
      "stateMutability": "nonpayable",
      "type": "function"
    },
    {
      "inputs": [
        {
          "internalType": "address",
          "name": "from",
          "type": "address"
        },
        {
          "internalType": "uint256",
          "name": "value",
          "type": "uint256"
        }
      ],
      "name": "burn",
      "outputs": [],
      "stateMutability": "nonpayable",
      "type": "function"
    }
  ],
  "bytecode": "0x60806040523480156200001157600080fd5b50604080518082018252600781526616141bd8dad95d60ca1b6020808301918252835180850190945260068452651413d0d2d15560d21b9084015281519192916200005f9160039162000201565b5080516200007590600490602084019062000201565b50505060006200008a6200011560201b60201c565b600580546001600160a01b0319166001600160a01b038316908117909155604051919250906000907f8be0079c531659141344cd1fd0a4f28419497f9722a3daafe3b4186f6b6457e0908290a350620000ef336a295be96e6406697200000062000119565b600254600855306000908152600660205260409020805460ff1916600117905562000309565b3390565b6001600160a01b038216620001745760405162461bcd60e51b815260206004820152601f60248201527f45524332303a206d696e7420746f20746865207a65726f206164647265737300604482015260640160405180910390fd5b8060026000828254620001889190620002a7565b90915550506001600160a01b03821660009081526020819052604081208054839290620001b7908490620002a7565b90915550506040518181526001600160a01b038316906000907fddf252ad1be2c89b69c2b068fc378daa952ba7f163c4a11628f55a4df523b3ef9060200160405180910390a35050565b8280546200020f90620002cc565b90600052602060002090601f0160209004810192826200023357600085556200027e565b82601f106200024e57805160ff19168380011785556200027e565b828001600101855582156200027e579182015b828111156200027e57825182559160200191906001019062000261565b506200028c92915062000290565b5090565b5b808211156200028c576000815560010162000291565b60008219821115620002c757634e487b7160e01b81526011600452602481fd5b500190565b600181811c90821680620002e157607f821691505b602082108114156200030357634e487b7160e01b600052602260045260246000fd5b50919050565b6119f380620003196000396000f3fe608060405234801561001057600080fd5b50600436106101825760003560e01c80638bf2581c116100d8578063a9059cbb1161008c578063dd62ed3e11610066578063dd62ed3e14610324578063e0b9103d1461036a578063f2fde38b1461037357600080fd5b8063a9059cbb146102eb578063b609995e146102fe578063beceed391461031157600080fd5b806395d89b41116100bd57806395d89b41146102bd5780639dc29fac146102c5578063a457c2d7146102d857600080fd5b80638bf2581c146102725780638da5cb5b1461029557600080fd5b806323b872dd1161013a57806340c10f191161011457806340c10f191461024457806370a0823114610257578063715018a61461026a57600080fd5b806323b872dd1461020f578063313ce56714610222578063395093511461023157600080fd5b8063111e03761161016b578063111e0376146101c857806318160ddd146101dd57806318a01684146101ef57600080fd5b806306fdde0314610187578063095ea7b3146101a5575b600080fd5b61018f610386565b60405161019c9190611824565b60405180910390f35b6101b86101b33660046117e3565b610418565b604051901515815260200161019c565b6101db6101d636600461175c565b61042e565b005b6002545b60405190815260200161019c565b6101e16101fd36600461175c565b60076020526000908152604090205481565b6101b861021d3660046117a8565b610628565b6040516012815260200161019c565b6101b861023f3660046117e3565b610715565b6101db6102523660046117e3565b610759565b6101e161026536600461175c565b610767565b6101db6107a8565b6101b861028036600461175c565b60066020526000908152604090205460ff1681565b60055460405173ffffffffffffffffffffffffffffffffffffffff909116815260200161019c565b61018f610898565b6101db6102d33660046117e3565b6108a7565b6101b86102e63660046117e3565b6108b1565b6101b86102f93660046117e3565b61098b565b6101db61030c36600461175c565b610998565b6101b861031f36600461180c565b610b4a565b6101e1610332366004611776565b73ffffffffffffffffffffffffffffffffffffffff918216600090815260016020908152604080832093909416825291909152205490565b6101e160085481565b6101db61038136600461175c565b610b56565b6060600380546103959061193a565b80601f01602080910402602001604051908101604052809291908181526020018280546103c19061193a565b801561040e5780601f106103e35761010080835404028352916020019161040e565b820191906000526020600020905b8154815290600101906020018083116103f157829003601f168201915b5050505050905090565b6000610425338484610d08565b50600192915050565b73ffffffffffffffffffffffffffffffffffffffff8116600090815260066020526040902054819060ff16156104eb576040517f08c379a000000000000000000000000000000000000000000000000000000000815260206004820152602560248201527f506f636b65743a20416c7265616479206578636c756465642066726f6d20726560448201527f776172647300000000000000000000000000000000000000000000000000000060648201526084015b60405180910390fd5b8160006104f782610ebc565b60095473ffffffffffffffffffffffffffffffffffffffff84166000908152600760205260409020559050801561053357610533308383610f99565b60055473ffffffffffffffffffffffffffffffffffffffff1633146105b4576040517f08c379a000000000000000000000000000000000000000000000000000000000815260206004820181905260248201527f4f776e61626c653a2063616c6c6572206973206e6f7420746865206f776e657260448201526064016104e2565b73ffffffffffffffffffffffffffffffffffffffff8416600090815260066020908152604080832080547fffffffffffffffffffffffffffffffffffffffffffffffffffffffffffffff00166001179055908290529020546008600082825461061d9190611923565b909155505050505050565b6000610635848484611256565b73ffffffffffffffffffffffffffffffffffffffff84166000908152600160209081526040808320338452909152902054828110156106f6576040517f08c379a000000000000000000000000000000000000000000000000000000000815260206004820152602860248201527f45524332303a207472616e7366657220616d6f756e742065786365656473206160448201527f6c6c6f77616e636500000000000000000000000000000000000000000000000060648201526084016104e2565b61070a85336107058685611923565b610d08565b506001949350505050565b33600081815260016020908152604080832073ffffffffffffffffffffffffffffffffffffffff871684529091528120549091610425918590610705908690611895565b6107638282611425565b5050565b600061077282610ebc565b73ffffffffffffffffffffffffffffffffffffffff83166000908152602081905260409020546107a29190611895565b92915050565b60055473ffffffffffffffffffffffffffffffffffffffff163314610829576040517f08c379a000000000000000000000000000000000000000000000000000000000815260206004820181905260248201527f4f776e61626c653a2063616c6c6572206973206e6f7420746865206f776e657260448201526064016104e2565b60055460405160009173ffffffffffffffffffffffffffffffffffffffff16907f8be0079c531659141344cd1fd0a4f28419497f9722a3daafe3b4186f6b6457e0908390a3600580547fffffffffffffffffffffffff0000000000000000000000000000000000000000169055565b6060600480546103959061193a565b6107638282611545565b33600090815260016020908152604080832073ffffffffffffffffffffffffffffffffffffffff8616845290915281205482811015610972576040517f08c379a000000000000000000000000000000000000000000000000000000000815260206004820152602560248201527f45524332303a2064656372656173656420616c6c6f77616e63652062656c6f7760448201527f207a65726f00000000000000000000000000000000000000000000000000000060648201526084016104e2565b61098133856107058685611923565b5060019392505050565b6000610425338484611256565b73ffffffffffffffffffffffffffffffffffffffff8116600090815260066020526040902054819060ff16610a4f576040517f08c379a000000000000000000000000000000000000000000000000000000000815260206004820152602160248201527f506f636b65743a204e6f74206578636c756465642066726f6d2072657761726460448201527f730000000000000000000000000000000000000000000000000000000000000060648201526084016104e2565b60055473ffffffffffffffffffffffffffffffffffffffff163314610ad0576040517f08c379a000000000000000000000000000000000000000000000000000000000815260206004820181905260248201527f4f776e61626c653a2063616c6c6572206973206e6f7420746865206f776e657260448201526064016104e2565b73ffffffffffffffffffffffffffffffffffffffff8216600090815260066020908152604080832080547fffffffffffffffffffffffffffffffffffffffffffffffffffffffffffffff0016905560095460078352818420559082905290205460086000828254610b419190611895565b90915550505050565b60006107a2308361098b565b60055473ffffffffffffffffffffffffffffffffffffffff163314610bd7576040517f08c379a000000000000000000000000000000000000000000000000000000000815260206004820181905260248201527f4f776e61626c653a2063616c6c6572206973206e6f7420746865206f776e657260448201526064016104e2565b73ffffffffffffffffffffffffffffffffffffffff8116610c7a576040517f08c379a000000000000000000000000000000000000000000000000000000000815260206004820152602660248201527f4f776e61626c653a206e6577206f776e657220697320746865207a65726f206160448201527f646472657373000000000000000000000000000000000000000000000000000060648201526084016104e2565b60055460405173ffffffffffffffffffffffffffffffffffffffff8084169216907f8be0079c531659141344cd1fd0a4f28419497f9722a3daafe3b4186f6b6457e090600090a3600580547fffffffffffffffffffffffff00000000000000000000000000000000000000001673ffffffffffffffffffffffffffffffffffffffff92909216919091179055565b73ffffffffffffffffffffffffffffffffffffffff8316610daa576040517f08c379a0000000000000000000000000000000000000000000000000000000008152602060048201526024808201527f45524332303a20617070726f76652066726f6d20746865207a65726f2061646460448201527f726573730000000000000000000000000000000000000000000000000000000060648201526084016104e2565b73ffffffffffffffffffffffffffffffffffffffff8216610e4d576040517f08c379a000000000000000000000000000000000000000000000000000000000815260206004820152602260248201527f45524332303a20617070726f766520746f20746865207a65726f20616464726560448201527f737300000000000000000000000000000000000000000000000000000000000060648201526084016104e2565b73ffffffffffffffffffffffffffffffffffffffff83811660008181526001602090815260408083209487168084529482529182902085905590518481527f8c5be1e5ebec7d5bd14f71427d1e84f3dd0314c0f7b2291e5b200ac8c7c3b92591015b60405180910390a3505050565b600073ffffffffffffffffffffffffffffffffffffffff8216301480610f07575073ffffffffffffffffffffffffffffffffffffffff821660009081526006602052604090205460ff165b15610f1457506000919050565b73ffffffffffffffffffffffffffffffffffffffff821660009081526020819052604090205480610f485750600092915050565b60085473ffffffffffffffffffffffffffffffffffffffff8416600090815260076020526040902054600954610f7e9190611923565b610f8890836118e6565b610f9291906118ad565b9392505050565b73ffffffffffffffffffffffffffffffffffffffff831661103c576040517f08c379a000000000000000000000000000000000000000000000000000000000815260206004820152602560248201527f45524332303a207472616e736665722066726f6d20746865207a65726f20616460448201527f647265737300000000000000000000000000000000000000000000000000000060648201526084016104e2565b73ffffffffffffffffffffffffffffffffffffffff82166110df576040517f08c379a000000000000000000000000000000000000000000000000000000000815260206004820152602360248201527f45524332303a207472616e7366657220746f20746865207a65726f206164647260448201527f657373000000000000000000000000000000000000000000000000000000000060648201526084016104e2565b73ffffffffffffffffffffffffffffffffffffffff831660009081526020819052604090205481811015611195576040517f08c379a000000000000000000000000000000000000000000000000000000000815260206004820152602660248201527f45524332303a207472616e7366657220616d6f756e742065786365656473206260448201527f616c616e6365000000000000000000000000000000000000000000000000000060648201526084016104e2565b61119f8282611923565b73ffffffffffffffffffffffffffffffffffffffff80861660009081526020819052604080822093909355908516815290812080548492906111e2908490611895565b925050819055508273ffffffffffffffffffffffffffffffffffffffff168473ffffffffffffffffffffffffffffffffffffffff167fddf252ad1be2c89b69c2b068fc378daa952ba7f163c4a11628f55a4df523b3ef8460405161124891815260200190565b60405180910390a350505050565b82600061126282610ebc565b60095473ffffffffffffffffffffffffffffffffffffffff84166000908152600760205260409020559050801561129e5761129e308383610f99565b8360006112aa82610ebc565b60095473ffffffffffffffffffffffffffffffffffffffff8416600090815260076020526040902055905080156112e6576112e6308383610f99565b73ffffffffffffffffffffffffffffffffffffffff861630141561131c5784600960008282546113169190611895565b90915550505b611327878787610f99565b73ffffffffffffffffffffffffffffffffffffffff871660009081526006602052604090205460ff168015611382575073ffffffffffffffffffffffffffffffffffffffff861660009081526006602052604090205460ff16155b156113a45784600860008282546113999190611895565b9091555061141c9050565b73ffffffffffffffffffffffffffffffffffffffff871660009081526006602052604090205460ff161580156113ff575073ffffffffffffffffffffffffffffffffffffffff861660009081526006602052604090205460ff165b1561141c5784600860008282546114169190611923565b90915550505b50505050505050565b73ffffffffffffffffffffffffffffffffffffffff82166114a2576040517f08c379a000000000000000000000000000000000000000000000000000000000815260206004820152601f60248201527f45524332303a206d696e7420746f20746865207a65726f20616464726573730060448201526064016104e2565b80600260008282546114b49190611895565b909155505073ffffffffffffffffffffffffffffffffffffffff8216600090815260208190526040812080548392906114ee908490611895565b909155505060405181815273ffffffffffffffffffffffffffffffffffffffff8316906000907fddf252ad1be2c89b69c2b068fc378daa952ba7f163c4a11628f55a4df523b3ef9060200160405180910390a35050565b73ffffffffffffffffffffffffffffffffffffffff82166115e8576040517f08c379a000000000000000000000000000000000000000000000000000000000815260206004820152602160248201527f45524332303a206275726e2066726f6d20746865207a65726f2061646472657360448201527f730000000000000000000000000000000000000000000000000000000000000060648201526084016104e2565b73ffffffffffffffffffffffffffffffffffffffff82166000908152602081905260409020548181101561169e576040517f08c379a000000000000000000000000000000000000000000000000000000000815260206004820152602260248201527f45524332303a206275726e20616d6f756e7420657863656564732062616c616e60448201527f636500000000000000000000000000000000000000000000000000000000000060648201526084016104e2565b6116a88282611923565b73ffffffffffffffffffffffffffffffffffffffff8416600090815260208190526040812091909155600280548492906116e3908490611923565b909155505060405182815260009073ffffffffffffffffffffffffffffffffffffffff8516907fddf252ad1be2c89b69c2b068fc378daa952ba7f163c4a11628f55a4df523b3ef90602001610eaf565b803573ffffffffffffffffffffffffffffffffffffffff8116811461175757600080fd5b919050565b60006020828403121561176d578081fd5b610f9282611733565b60008060408385031215611788578081fd5b61179183611733565b915061179f60208401611733565b90509250929050565b6000806000606084860312156117bc578081fd5b6117c584611733565b92506117d360208501611733565b9150604084013590509250925092565b600080604083850312156117f5578182fd5b6117fe83611733565b946020939093013593505050565b60006020828403121561181d578081fd5b5035919050565b6000602080835283518082850152825b8181101561185057858101830151858201604001528201611834565b818111156118615783604083870101525b50601f017fffffffffffffffffffffffffffffffffffffffffffffffffffffffffffffffe016929092016040019392505050565b600082198211156118a8576118a861198e565b500190565b6000826118e1577f4e487b710000000000000000000000000000000000000000000000000000000081526012600452602481fd5b500490565b6000817fffffffffffffffffffffffffffffffffffffffffffffffffffffffffffffffff048311821515161561191e5761191e61198e565b500290565b6000828210156119355761193561198e565b500390565b600181811c9082168061194e57607f821691505b60208210811415611988577f4e487b7100000000000000000000000000000000000000000000000000000000600052602260045260246000fd5b50919050565b7f4e487b7100000000000000000000000000000000000000000000000000000000600052601160045260246000fdfea2646970667358221220c3d0df00566ad911901ce17fa053150a5dac931a1b1a28b6416c4e5ffe30a05264736f6c63430008040033",
  "immutableReferences": {},
  "source": "// SPDX-License-Identifier: Unlicensed\npragma solidity =0.8.4;\n\nimport '../Pocket.sol';\n\ncontract MockPocket is Pocket {\n    function mint(address to, uint value) external {\n        _mint(to, value);\n    }\n\n    function burn(address from, uint value) external {\n        _burn(from, value);\n    }\n}",
  "sourcePath": "/Users/ilyk/projects/midgardtech/xpocket-PocketSwap/PocketSwap/contracts/mocks/MockPocket.sol",
  "compiler": {
    "name": "solc",
    "version": "0.8.4+commit.c7e474f2.Emscripten.clang"
  },
  "schemaVersion": "3.4.3",
  "updatedAt": "2022-05-10T11:02:33.610Z",
  "devdoc": {
    "kind": "dev",
    "methods": {
      "allowance(address,address)": {
        "details": "See {IERC20-allowance}."
      },
      "approve(address,uint256)": {
        "details": "See {IERC20-approve}. Requirements: - `spender` cannot be the zero address."
      },
      "balanceOf(address)": {
        "details": "See {IERC20-balanceOf}."
      },
      "decimals()": {
        "details": "Returns the number of decimals used to get its user representation. For example, if `decimals` equals `2`, a balance of `505` tokens should be displayed to a user as `5,05` (`505 / 10 ** 2`). Tokens usually opt for a value of 18, imitating the relationship between Ether and Wei. This is the value {ERC20} uses, unless this function is overridden; NOTE: This information is only used for _display_ purposes: it in no way affects any of the arithmetic of the contract, including {IERC20-balanceOf} and {IERC20-transfer}."
      },
      "decreaseAllowance(address,uint256)": {
        "details": "Atomically decreases the allowance granted to `spender` by the caller. This is an alternative to {approve} that can be used as a mitigation for problems described in {IERC20-approve}. Emits an {Approval} event indicating the updated allowance. Requirements: - `spender` cannot be the zero address. - `spender` must have allowance for the caller of at least `subtractedValue`."
      },
      "increaseAllowance(address,uint256)": {
        "details": "Atomically increases the allowance granted to `spender` by the caller. This is an alternative to {approve} that can be used as a mitigation for problems described in {IERC20-approve}. Emits an {Approval} event indicating the updated allowance. Requirements: - `spender` cannot be the zero address."
      },
      "name()": {
        "details": "Returns the name of the token."
      },
      "owner()": {
        "details": "Returns the address of the current owner."
      },
      "renounceOwnership()": {
        "details": "Leaves the contract without owner. It will not be possible to call `onlyOwner` functions anymore. Can only be called by the current owner. NOTE: Renouncing ownership will leave the contract without an owner, thereby removing any functionality that is only available to the owner."
      },
      "symbol()": {
        "details": "Returns the symbol of the token, usually a shorter version of the name."
      },
      "totalSupply()": {
        "details": "See {IERC20-totalSupply}."
      },
      "transfer(address,uint256)": {
        "details": "See {IERC20-transfer}. Requirements: - `recipient` cannot be the zero address. - the caller must have a balance of at least `amount`."
      },
      "transferFrom(address,address,uint256)": {
        "details": "See {IERC20-transferFrom}. Emits an {Approval} event indicating the updated allowance. This is not required by the EIP. See the note at the beginning of {ERC20}. Requirements: - `sender` and `recipient` cannot be the zero address. - `sender` must have a balance of at least `amount`. - the caller must have allowance for ``sender``'s tokens of at least `amount`."
      },
      "transferOwnership(address)": {
        "details": "Transfers ownership of the contract to a new account (`newOwner`). Can only be called by the current owner."
      }
    },
    "version": 1
  },
  "userdoc": {
    "kind": "user",
    "methods": {},
    "version": 1
  }
}