{
  "contractName": "PocketSwapFactory",
  "abi": [
    {
      "inputs": [
        {
          "internalType": "address",
          "name": "_feeToSetter",
          "type": "address"
        }
      ],
      "stateMutability": "nonpayable",
      "type": "constructor"
    },
    {
      "anonymous": false,
      "inputs": [
        {
          "indexed": true,
          "internalType": "address",
          "name": "token0",
          "type": "address"
        },
        {
          "indexed": true,
          "internalType": "address",
          "name": "token1",
          "type": "address"
        },
        {
          "indexed": false,
          "internalType": "address",
          "name": "pair",
          "type": "address"
        },
        {
          "indexed": false,
          "internalType": "uint256",
          "name": "",
          "type": "uint256"
        }
      ],
      "name": "PairCreated",
      "type": "event"
    },
    {
      "inputs": [
        {
          "internalType": "uint256",
          "name": "",
          "type": "uint256"
        }
      ],
      "name": "allPairs",
      "outputs": [
        {
          "internalType": "address",
          "name": "",
          "type": "address"
        }
      ],
      "stateMutability": "view",
      "type": "function"
    },
    {
      "inputs": [],
      "name": "fee",
      "outputs": [
        {
          "internalType": "uint256",
          "name": "",
          "type": "uint256"
        }
      ],
      "stateMutability": "view",
      "type": "function"
    },
    {
      "inputs": [],
      "name": "feeTo",
      "outputs": [
        {
          "internalType": "address",
          "name": "",
          "type": "address"
        }
      ],
      "stateMutability": "view",
      "type": "function"
    },
    {
      "inputs": [],
      "name": "feeToSetter",
      "outputs": [
        {
          "internalType": "address",
          "name": "",
          "type": "address"
        }
      ],
      "stateMutability": "view",
      "type": "function"
    },
    {
      "inputs": [
        {
          "internalType": "address",
          "name": "",
          "type": "address"
        },
        {
          "internalType": "address",
          "name": "",
          "type": "address"
        }
      ],
      "name": "getPair",
      "outputs": [
        {
          "internalType": "address",
          "name": "",
          "type": "address"
        }
      ],
      "stateMutability": "view",
      "type": "function"
    },
    {
      "inputs": [],
      "name": "allPairsLength",
      "outputs": [
        {
          "internalType": "uint256",
          "name": "",
          "type": "uint256"
        }
      ],
      "stateMutability": "view",
      "type": "function"
    },
    {
      "inputs": [
        {
          "internalType": "address",
          "name": "tokenA",
          "type": "address"
        },
        {
          "internalType": "address",
          "name": "tokenB",
          "type": "address"
        }
      ],
      "name": "createPair",
      "outputs": [
        {
          "internalType": "address",
          "name": "pair",
          "type": "address"
        }
      ],
      "stateMutability": "nonpayable",
      "type": "function"
    },
    {
      "inputs": [
        {
          "internalType": "uint256",
          "name": "_fee",
          "type": "uint256"
        }
      ],
      "name": "setFee",
      "outputs": [],
      "stateMutability": "nonpayable",
      "type": "function"
    },
    {
      "inputs": [
        {
          "internalType": "address",
          "name": "_feeTo",
          "type": "address"
        }
      ],
      "name": "setFeeTo",
      "outputs": [],
      "stateMutability": "nonpayable",
      "type": "function"
    },
    {
      "inputs": [
        {
          "internalType": "address",
          "name": "_feeToSetter",
          "type": "address"
        }
      ],
      "name": "setFeeToSetter",
      "outputs": [],
      "stateMutability": "nonpayable",
      "type": "function"
    }
  ],
  "bytecode": "0x6080604052622dc6c060025534801561001757600080fd5b50604051612d2f380380612d2f8339818101604052602081101561003a57600080fd5b5051600180546001600160a01b0319166001600160a01b03909216919091179055612cc58061006a6000396000f3fe608060405234801561001057600080fd5b506004361061009e5760003560e01c8063a2e74af611610066578063a2e74af614610125578063c9c653961461014b578063ddca3f4314610179578063e6a4390514610181578063f46901ed146101af5761009e565b8063017e7e58146100a3578063094b7415146100c75780631e3dd18b146100cf578063574f2ba3146100ec57806369fe0e2d14610106575b600080fd5b6100ab6101d5565b604080516001600160a01b039092168252519081900360200190f35b6100ab6101e4565b6100ab600480360360208110156100e557600080fd5b50356101f3565b6100f461021a565b60408051918252519081900360200190f35b6101236004803603602081101561011c57600080fd5b5035610220565b005b6101236004803603602081101561013b57600080fd5b50356001600160a01b03166102cc565b6100ab6004803603604081101561016157600080fd5b506001600160a01b0381358116916020013516610344565b6100f461066f565b6100ab6004803603604081101561019757600080fd5b506001600160a01b0381358116916020013516610675565b610123600480360360208110156101c557600080fd5b50356001600160a01b031661069b565b6000546001600160a01b031681565b6001546001600160a01b031681565b6004818154811061020057fe5b6000918252602090912001546001600160a01b0316905081565b60045490565b6001546001600160a01b03163314610276576040805162461bcd60e51b81526020600482015260146024820152732837b1b5b2ba29bbb0b81d2327a92124a22222a760611b604482015290519081900360640190fd5b670de0b6b3a764000081106102c7576040805162461bcd60e51b8152602060048201526012602482015271506f636b6574537761703a4249475f46454560701b604482015290519081900360640190fd5b600255565b6001546001600160a01b03163314610322576040805162461bcd60e51b81526020600482015260146024820152732837b1b5b2ba29bbb0b81d2327a92124a22222a760611b604482015290519081900360640190fd5b600180546001600160a01b0319166001600160a01b0392909216919091179055565b6000816001600160a01b0316836001600160a01b031614156103ad576040805162461bcd60e51b815260206004820152601e60248201527f506f636b6574537761703a4944454e544943414c5f4144445245535345530000604482015290519081900360640190fd5b600080836001600160a01b0316856001600160a01b0316106103d05783856103d3565b84845b90925090506001600160a01b038216610433576040805162461bcd60e51b815260206004820152601760248201527f506f636b6574537761703a5a45524f5f41444452455353000000000000000000604482015290519081900360640190fd5b6001600160a01b038281166000908152600360209081526040808320858516845290915290205416156104a6576040805162461bcd60e51b8152602060048201526016602482015275506f636b6574537761703a504149525f45584953545360501b604482015290519081900360640190fd5b6060604051806020016104b890610713565b6020820181038252601f19601f8201166040525090506000838360405160200180836001600160a01b031660601b8152601401826001600160a01b031660601b815260140192505050604051602081830303815290604052805190602001209050808251602084016000f59450846001600160a01b031663485cc95585856040518363ffffffff1660e01b815260040180836001600160a01b03168152602001826001600160a01b0316815260200192505050600060405180830381600087803b15801561058557600080fd5b505af1158015610599573d6000803e3d6000fd5b505050506001600160a01b0384811660008181526003602081815260408084208987168086529083528185208054978d166001600160a01b031998891681179091559383528185208686528352818520805488168517905560048054600181018255958190527f8a35acfbc15ff81a39ae7d344fd709f28e8600b4aa8c65c6b64bfe7fe36bd19b90950180549097168417909655925483519283529082015281517f0d3648bd0f6ba80134a33ba9275ac585d9d315f0ad8355cddefde31afa28d0e9929181900390910190a35050505092915050565b60025481565b60036020908152600092835260408084209091529082529020546001600160a01b031681565b6001546001600160a01b031633146106f1576040805162461bcd60e51b81526020600482015260146024820152732837b1b5b2ba29bbb0b81d2327a92124a22222a760611b604482015290519081900360640190fd5b600080546001600160a01b0319166001600160a01b0392909216919091179055565b61256f806107218339019056fe60806040526001600c5534801561001557600080fd5b50604080518082018252600a8152690506f636b6574537761760b41b6020918201528151808301835260018152603160f81b9082015281517f8b73c3c69bb8fe3d512ecc4cf759cc79239f7b179b0ffacaa9a75d522b39400f818301527f139f1c71b7c3168b7aeac519a0d6ee819b7e7428c66952642d99299cb2a31352818401527fc89efdaa54c0f20c7adf612882df0950f5a951637e0307cdcb4c672f298b8bc660608201524660808201523060a0808301919091528351808303909101815260c09091019092528151910120600355600580546001600160a01b03191633179055612467806101086000396000f3fe608060405234801561001057600080fd5b50600436106101a95760003560e01c80636a627842116100f9578063ba9a7a5611610097578063d21220a711610071578063d21220a714610534578063d505accf1461053c578063dd62ed3e1461058d578063fff6cae9146105bb576101a9565b8063ba9a7a56146104fe578063bc25cf7714610506578063c45a01551461052c576101a9565b80637ecebe00116100d35780637ecebe001461046557806389afcb441461048b57806395d89b41146104ca578063a9059cbb146104d2576101a9565b80636a6278421461041157806370a08231146104375780637464fc3d1461045d576101a9565b806323b872dd116101665780633644e515116101405780633644e515146103cb578063485cc955146103d35780635909c0d5146104015780635a3d549314610409576101a9565b806323b872dd1461036f57806330adf81f146103a5578063313ce567146103ad576101a9565b8063022c0d9f146101ae57806306fdde031461023c5780630902f1ac146102b9578063095ea7b3146102f15780630dfe16811461033157806318160ddd14610355575b600080fd5b61023a600480360360808110156101c457600080fd5b8135916020810135916001600160a01b0360408301351691908101906080810160608201356401000000008111156101fb57600080fd5b82018360208201111561020d57600080fd5b8035906020019184600183028401116401000000008311171561022f57600080fd5b5090925090506105c3565b005b610244610c7a565b6040805160208082528351818301528351919283929083019185019080838360005b8381101561027e578181015183820152602001610266565b50505050905090810190601f1680156102ab5780820380516001836020036101000a031916815260200191505b509250505060405180910390f35b6102c1610ca0565b604080516001600160701b03948516815292909316602083015263ffffffff168183015290519081900360600190f35b61031d6004803603604081101561030757600080fd5b506001600160a01b038135169060200135610cca565b604080519115158252519081900360200190f35b610339610ce1565b604080516001600160a01b039092168252519081900360200190f35b61035d610cf0565b60408051918252519081900360200190f35b61031d6004803603606081101561038557600080fd5b506001600160a01b03813581169160208101359091169060400135610cf6565b61035d610d8a565b6103b5610dae565b6040805160ff9092168252519081900360200190f35b61035d610db3565b61023a600480360360408110156103e957600080fd5b506001600160a01b0381358116916020013516610db9565b61035d610e3e565b61035d610e44565b61035d6004803603602081101561042757600080fd5b50356001600160a01b0316610e4a565b61035d6004803603602081101561044d57600080fd5b50356001600160a01b0316611127565b61035d611139565b61035d6004803603602081101561047b57600080fd5b50356001600160a01b031661113f565b6104b1600480360360208110156104a157600080fd5b50356001600160a01b0316611151565b6040805192835260208301919091528051918290030190f35b6102446114e6565b61031d600480360360408110156104e857600080fd5b506001600160a01b038135169060200135611509565b61035d611516565b61023a6004803603602081101561051c57600080fd5b50356001600160a01b031661151c565b61033961168f565b61033961169e565b61023a600480360360e081101561055257600080fd5b506001600160a01b03813581169160208101359091169060408101359060608101359060ff6080820135169060a08101359060c001356116ad565b61035d600480360360408110156105a357600080fd5b506001600160a01b03813581169160200135166118b0565b61023a6118cd565b600c5460011461060f576040805162461bcd60e51b8152602060048201526012602482015271141bd8dad95d14ddd85c0e881313d0d2d15160721b604482015290519081900360640190fd5b6000600c55841515806106225750600084115b61065d5760405162461bcd60e51b81526004018080602001828103825260268152602001806123e36026913960400191505060405180910390fd5b600080610668610ca0565b5091509150816001600160701b03168710801561068d5750806001600160701b031686105b6106c85760405162461bcd60e51b81526004018080602001828103825260228152602001806123c16022913960400191505060405180910390fd5b60065460075460009182916001600160a01b039182169190811690891682148015906107065750806001600160a01b0316896001600160a01b031614155b610750576040805162461bcd60e51b8152602060048201526016602482015275506f636b6574537761703a20494e56414c49445f544f60501b604482015290519081900360640190fd5b8a1561076157610761828a8d611a30565b891561077257610772818a8c611a30565b861561082457886001600160a01b03166310d1e85c338d8d8c8c6040518663ffffffff1660e01b815260040180866001600160a01b03168152602001858152602001848152602001806020018281038252848482818152602001925080828437600081840152601f19601f8201169050808301925050509650505050505050600060405180830381600087803b15801561080b57600080fd5b505af115801561081f573d6000803e3d6000fd5b505050505b604080516370a0823160e01b815230600482015290516001600160a01b038416916370a08231916024808301926020929190829003018186803b15801561086a57600080fd5b505afa15801561087e573d6000803e3d6000fd5b505050506040513d602081101561089457600080fd5b5051604080516370a0823160e01b815230600482015290519195506001600160a01b038316916370a0823191602480820192602092909190829003018186803b1580156108e057600080fd5b505afa1580156108f4573d6000803e3d6000fd5b505050506040513d602081101561090a57600080fd5b5051925060009150506001600160701b0385168a9003831161092d57600061093c565b89856001600160701b03160383035b9050600089856001600160701b0316038311610959576000610968565b89856001600160701b03160383035b905060008211806109795750600081115b6109b45760405162461bcd60e51b81526004018080602001828103825260258152602001806123736025913960400191505060405180910390fd5b6005546040805163ddca3f4360e01b815290516000926001600160a01b03169163ddca3f43916004808301926020929190829003018186803b1580156109f957600080fd5b505afa158015610a0d573d6000803e3d6000fd5b505050506040513d6020811015610a2357600080fd5b505190506000610a4a610a368584611bca565b610a4488633b9aca00611bca565b90611c2d565b90506000610a5b610a368585611bca565b9050610a85670de0b6b3a7640000610a7f6001600160701b038c8116908c16611bca565b90611bca565b610a8f8383611bca565b1015610a9a88611c7d565b610aa387611c7d565b60405160200180806e02837b1b5b2ba29bbb0b81d10259d1608d1b815250600f0183805190602001908083835b60208310610aef5780518252601f199092019160209182019101610ad0565b51815160209384036101000a6000190180199092169116179052620101d160ed1b919093019081528451600390910192850191508083835b60208310610b465780518252601f199092019160209182019101610b27565b6001836020036101000a0380198251168184511680821785525050505050509050019250505060405160208183030381529060405290610c045760405162461bcd60e51b81526004018080602001828103825283818151815260200191508051906020019080838360005b83811015610bc9578181015183820152602001610bb1565b50505050905090810190601f168015610bf65780820380516001836020036101000a031916815260200191505b509250505060405180910390fd5b50505050610c1484848888611d57565b60408051838152602081018390528082018d9052606081018c905290516001600160a01b038b169133917fd78ad95fa46c994b6551d0da85fc275fe613ce37657fb8d5e3d130840159d8229181900360800190a350506001600c55505050505050505050565b6040518060400160405280600a8152602001690506f636b6574537761760b41b81525081565b6008546001600160701b0380821692600160701b830490911691600160e01b900463ffffffff1690565b6000610cd7338484611f17565b5060015b92915050565b6006546001600160a01b031681565b60005481565b6001600160a01b038316600090815260026020908152604080832033845290915281205460001914610d75576001600160a01b0384166000908152600260209081526040808320338452909152902054610d509083611c2d565b6001600160a01b03851660009081526002602090815260408083203384529091529020555b610d80848484611f79565b5060019392505050565b7f6e71edae12b1b97f4d1f60370fef10105fa2faae0126114a169c64845d6126c981565b601281565b60035481565b6005546001600160a01b03163314610e10576040805162461bcd60e51b81526020600482015260156024820152742837b1b5b2ba29bbb0b81d102327a92124a22222a760591b604482015290519081900360640190fd5b600680546001600160a01b039384166001600160a01b03199182161790915560078054929093169116179055565b60095481565b600a5481565b6000600c54600114610e98576040805162461bcd60e51b8152602060048201526012602482015271141bd8dad95d14ddd85c0e881313d0d2d15160721b604482015290519081900360640190fd5b6000600c81905580610ea8610ca0565b50600654604080516370a0823160e01b815230600482015290519395509193506000926001600160a01b03909116916370a08231916024808301926020929190829003018186803b158015610efc57600080fd5b505afa158015610f10573d6000803e3d6000fd5b505050506040513d6020811015610f2657600080fd5b5051600754604080516370a0823160e01b815230600482015290519293506000926001600160a01b03909216916370a0823191602480820192602092909190829003018186803b158015610f7957600080fd5b505afa158015610f8d573d6000803e3d6000fd5b505050506040513d6020811015610fa357600080fd5b505190506000610fbc836001600160701b038716611c2d565b90506000610fd3836001600160701b038716611c2d565b90506000610fe18787612027565b60005490915080611018576110046103e8610a44610fff8787611bca565b612167565b985061101360006103e86121b8565b61105b565b6110586001600160701b03891661102f8684611bca565b8161103657fe5b046001600160701b03891661104b8685611bca565b8161105257fe5b04612242565b98505b6000891161109a5760405162461bcd60e51b81526004018080602001828103825260298152602001806123986029913960400191505060405180910390fd5b6110a48a8a6121b8565b6110b086868a8a611d57565b81156110da576008546110d6906001600160701b0380821691600160701b900416611bca565b600b555b6040805185815260208101859052815133927f4c209b5fc8ad50758f13e2e1088ba56a560dff690a1c6fef26394f4c03821c4f928290030190a250506001600c5550949695505050505050565b60016020526000908152604090205481565b600b5481565b60046020526000908152604090205481565b600080600c546001146111a0576040805162461bcd60e51b8152602060048201526012602482015271141bd8dad95d14ddd85c0e881313d0d2d15160721b604482015290519081900360640190fd5b6000600c819055806111b0610ca0565b50600654600754604080516370a0823160e01b815230600482015290519496509294506001600160a01b039182169391169160009184916370a08231916024808301926020929190829003018186803b15801561120c57600080fd5b505afa158015611220573d6000803e3d6000fd5b505050506040513d602081101561123657600080fd5b5051604080516370a0823160e01b815230600482015290519192506000916001600160a01b038516916370a08231916024808301926020929190829003018186803b15801561128457600080fd5b505afa158015611298573d6000803e3d6000fd5b505050506040513d60208110156112ae57600080fd5b5051306000908152600160205260408120549192506112cd8888612027565b600054909150806112de8487611bca565b816112e557fe5b049a50806112f38486611bca565b816112fa57fe5b04995060008b11801561130d575060008a115b6113485760405162461bcd60e51b81526004018080602001828103825260298152602001806124096029913960400191505060405180910390fd5b611352308461225a565b61135d878d8d611a30565b611368868d8c611a30565b604080516370a0823160e01b815230600482015290516001600160a01b038916916370a08231916024808301926020929190829003018186803b1580156113ae57600080fd5b505afa1580156113c2573d6000803e3d6000fd5b505050506040513d60208110156113d857600080fd5b5051604080516370a0823160e01b815230600482015290519196506001600160a01b038816916370a0823191602480820192602092909190829003018186803b15801561142457600080fd5b505afa158015611438573d6000803e3d6000fd5b505050506040513d602081101561144e57600080fd5b5051935061145e85858b8b611d57565b811561148857600854611484906001600160701b0380821691600160701b900416611bca565b600b555b604080518c8152602081018c905281516001600160a01b038f169233927fdccd412f0b1252819cb1fd330b93224ca42612892bb3f4f789976e6d81936496929081900390910190a35050505050505050506001600c81905550915091565b60405180604001604052806007815260200166282996a820a4a960c91b81525081565b6000610cd7338484611f79565b6103e881565b600c54600114611568576040805162461bcd60e51b8152602060048201526012602482015271141bd8dad95d14ddd85c0e881313d0d2d15160721b604482015290519081900360640190fd5b6000600c55600654600754600854604080516370a0823160e01b815230600482015290516001600160a01b039485169490931692611611928592879261160c926001600160701b03169185916370a0823191602480820192602092909190829003018186803b1580156115da57600080fd5b505afa1580156115ee573d6000803e3d6000fd5b505050506040513d602081101561160457600080fd5b505190611c2d565b611a30565b611685818461160c6008600e9054906101000a90046001600160701b03166001600160701b0316856001600160a01b03166370a08231306040518263ffffffff1660e01b815260040180826001600160a01b0316815260200191505060206040518083038186803b1580156115da57600080fd5b50506001600c5550565b6005546001600160a01b031681565b6007546001600160a01b031681565b428410156116f8576040805162461bcd60e51b8152602060048201526013602482015272141bd8dad95d14ddd85c0e8811561412549151606a1b604482015290519081900360640190fd5b6003546001600160a01b0380891660008181526004602090815260408083208054600180820190925582517f6e71edae12b1b97f4d1f60370fef10105fa2faae0126114a169c64845d6126c98186015280840196909652958d166060860152608085018c905260a085019590955260c08085018b90528151808603909101815260e08501825280519083012061190160f01b6101008601526101028501969096526101228085019690965280518085039096018652610142840180825286519683019690962095839052610162840180825286905260ff89166101828501526101a284018890526101c28401879052519193926101e280820193601f1981019281900390910190855afa158015611813573d6000803e3d6000fd5b5050604051601f1901519150506001600160a01b038116158015906118495750886001600160a01b0316816001600160a01b0316145b61189a576040805162461bcd60e51b815260206004820152601d60248201527f506f636b6574537761703a20494e56414c49445f5349474e4154555245000000604482015290519081900360640190fd5b6118a5898989611f17565b505050505050505050565b600260209081526000928352604080842090915290825290205481565b600c54600114611919576040805162461bcd60e51b8152602060048201526012602482015271141bd8dad95d14ddd85c0e881313d0d2d15160721b604482015290519081900360640190fd5b6000600c55600654604080516370a0823160e01b81523060048201529051611a29926001600160a01b0316916370a08231916024808301926020929190829003018186803b15801561196a57600080fd5b505afa15801561197e573d6000803e3d6000fd5b505050506040513d602081101561199457600080fd5b5051600754604080516370a0823160e01b815230600482015290516001600160a01b03909216916370a0823191602480820192602092909190829003018186803b1580156119e157600080fd5b505afa1580156119f5573d6000803e3d6000fd5b505050506040513d6020811015611a0b57600080fd5b50516008546001600160701b0380821691600160701b900416611d57565b6001600c55565b604080518082018252601981527f7472616e7366657228616464726573732c75696e74323536290000000000000060209182015281516001600160a01b0385811660248301526044808301869052845180840390910181526064909201845291810180516001600160e01b031663a9059cbb60e01b1781529251815160009460609489169392918291908083835b60208310611add5780518252601f199092019160209182019101611abe565b6001836020036101000a0380198251168184511680821785525050505050509050019150506000604051808303816000865af19150503d8060008114611b3f576040519150601f19603f3d011682016040523d82523d6000602084013e611b44565b606091505b5091509150818015611b72575080511580611b725750808060200190516020811015611b6f57600080fd5b50515b611bc3576040805162461bcd60e51b815260206004820152601b60248201527f506f636b6574537761703a205452414e534645525f4641494c45440000000000604482015290519081900360640190fd5b5050505050565b6000811580611be557505080820282828281611be257fe5b04145b610cdb576040805162461bcd60e51b815260206004820152601460248201527364732d6d6174682d6d756c2d6f766572666c6f7760601b604482015290519081900360640190fd5b80820382811115610cdb576040805162461bcd60e51b815260206004820152601560248201527464732d6d6174682d7375622d756e646572666c6f7760581b604482015290519081900360640190fd5b606081611ca257506040805180820190915260018152600360fc1b6020820152611d52565b8160005b8115611cba57600101600a82049150611ca6565b60608167ffffffffffffffff81118015611cd357600080fd5b506040519080825280601f01601f191660200182016040528015611cfe576020820181803683370190505b50905060001982015b8515611d4c57600a860660300160f81b82828060019003935081518110611d2a57fe5b60200101906001600160f81b031916908160001a905350600a86049550611d07565b50925050505b919050565b6001600160701b038411801590611d7557506001600160701b038311155b611dbd576040805162461bcd60e51b8152602060048201526014602482015273506f636b6574537761703a204f564552464c4f5760601b604482015290519081900360640190fd5b60085463ffffffff42811691600160e01b90048116820390811615801590611ded57506001600160701b03841615155b8015611e0157506001600160701b03831615155b15611e6c578063ffffffff16611e2985611e1a866122ec565b6001600160e01b0316906122fe565b600980546001600160e01b03929092169290920201905563ffffffff8116611e5484611e1a876122ec565b600a80546001600160e01b0392909216929092020190555b600880546dffffffffffffffffffffffffffff19166001600160701b03888116919091176dffffffffffffffffffffffffffff60701b1916600160701b8883168102919091176001600160e01b0316600160e01b63ffffffff871602179283905560408051848416815291909304909116602082015281517f1c411e9a96e071241c2f21f7726b17ae89e3cab4c78be50e062b03a9fffbbad1929181900390910190a1505050505050565b6001600160a01b03808416600081815260026020908152604080832094871680845294825291829020859055815185815291517f8c5be1e5ebec7d5bd14f71427d1e84f3dd0314c0f7b2291e5b200ac8c7c3b9259281900390910190a3505050565b6001600160a01b038316600090815260016020526040902054611f9c9082611c2d565b6001600160a01b038085166000908152600160205260408082209390935590841681522054611fcb9082612323565b6001600160a01b0380841660008181526001602090815260409182902094909455805185815290519193928716927fddf252ad1be2c89b69c2b068fc378daa952ba7f163c4a11628f55a4df523b3ef92918290030190a3505050565b600080600560009054906101000a90046001600160a01b03166001600160a01b031663017e7e586040518163ffffffff1660e01b815260040160206040518083038186803b15801561207857600080fd5b505afa15801561208c573d6000803e3d6000fd5b505050506040513d60208110156120a257600080fd5b5051600b546001600160a01b03821615801594509192509061215357801561214e5760006120df610fff6001600160701b03888116908816611bca565b905060006120ec83612167565b90508082111561214b57600061210e6121058484611c2d565b60005490611bca565b9050600061212783612121866005611bca565b90612323565b9050600081838161213457fe5b04905080156121475761214787826121b8565b5050505b50505b61215f565b801561215f576000600b555b505092915050565b600060038211156121aa575080600160028204015b818110156121a45780915060028182858161219357fe5b04018161219c57fe5b04905061217c565b50611d52565b8115611d5257506001919050565b6000546121c59082612323565b60009081556001600160a01b0383168152600160205260409020546121ea9082612323565b6001600160a01b03831660008181526001602090815260408083209490945583518581529351929391927fddf252ad1be2c89b69c2b068fc378daa952ba7f163c4a11628f55a4df523b3ef9281900390910190a35050565b60008183106122515781612253565b825b9392505050565b6001600160a01b03821660009081526001602052604090205461227d9082611c2d565b6001600160a01b038316600090815260016020526040812091909155546122a49082611c2d565b60009081556040805183815290516001600160a01b038516917fddf252ad1be2c89b69c2b068fc378daa952ba7f163c4a11628f55a4df523b3ef919081900360200190a35050565b6001600160701b0316600160701b0290565b60006001600160701b0382166001600160e01b0384168161231b57fe5b049392505050565b80820182811015610cdb576040805162461bcd60e51b815260206004820152601460248201527364732d6d6174682d6164642d6f766572666c6f7760601b604482015290519081900360640190fdfe506f636b6574537761703a20494e53554646494349454e545f494e5055545f414d4f554e54506f636b6574537761703a20494e53554646494349454e545f4c49515549444954595f4d494e544544506f636b6574537761703a20494e53554646494349454e545f4c4951554944495459506f636b6574537761703a20494e53554646494349454e545f4f55545055545f414d4f554e54506f636b6574537761703a20494e53554646494349454e545f4c49515549444954595f4255524e4544a2646970667358221220e3460fe7d4bc17ea2a88f8762f3d48609037baadca7ffe13ed080ddd9bfab0d964736f6c634300060c0033a2646970667358221220022576fe722f4b5953933539f824087779421af0a34618252e6ee71967f7a02a64736f6c634300060c0033",
  "immutableReferences": {},
  "source": "// SPDX-License-Identifier: Unlicensed\npragma solidity >=0.6.12;\n\n\nimport './PocketSwapPair.sol';\nimport './interfaces/IPocketSwapFactory.sol';\n\ncontract PocketSwapFactory is IUniswapV2Factory, IPocketSwapFactory {\n    address public override feeTo;\n    address public override feeToSetter;\n    uint256 public override fee = 3e6; // 1e9 = 100%; 1e8 = 10%; 1e7 = 1%; 1e6 = 0.1% ....\n\n    mapping(address => mapping(address => address)) public override getPair;\n    address[] public override allPairs;\n\n    event PairCreated(address indexed token0, address indexed token1, address pair, uint);\n\n    constructor(address _feeToSetter) public {\n        feeToSetter = _feeToSetter;\n    }\n\n    function allPairsLength() external override view returns (uint) {\n        return allPairs.length;\n    }\n\n    function createPair(address tokenA, address tokenB) external override returns (address pair) {\n        require(tokenA != tokenB, 'PocketSwap:IDENTICAL_ADDRESSES');\n        (address token0, address token1) = tokenA < tokenB ? (tokenA, tokenB) : (tokenB, tokenA);\n        require(token0 != address(0), 'PocketSwap:ZERO_ADDRESS');\n        require(getPair[token0][token1] == address(0), 'PocketSwap:PAIR_EXISTS'); // single check is sufficient\n        bytes memory bytecode = type(PocketSwapPair).creationCode;\n        bytes32 salt = keccak256(abi.encodePacked(token0, token1));\n        assembly {\n            pair := create2(0, add(bytecode, 32), mload(bytecode), salt)\n        }\n        IUniswapV2Pair(pair).initialize(token0, token1);\n        getPair[token0][token1] = pair;\n        getPair[token1][token0] = pair; // populate mapping in the reverse direction\n        allPairs.push(pair);\n        emit PairCreated(token0, token1, pair, allPairs.length);\n    }\n\n    function setFee(uint256 _fee) external override {\n        require(msg.sender == feeToSetter, 'PocketSwap:FORBIDDEN');\n        require(_fee < 1e18, 'PocketSwap:BIG_FEE');\n        fee = _fee;\n    }\n\n    function setFeeTo(address _feeTo) external override {\n        require(msg.sender == feeToSetter, 'PocketSwap:FORBIDDEN');\n        feeTo = _feeTo;\n    }\n\n    function setFeeToSetter(address _feeToSetter) external override {\n        require(msg.sender == feeToSetter, 'PocketSwap:FORBIDDEN');\n        feeToSetter = _feeToSetter;\n    }\n}\n",
  "sourcePath": "/Users/ilyk/projects/midgardtech/xpocket-PocketSwap/contracts/pocketswap/PocketSwapFactory.sol",
  "compiler": {
    "name": "solc",
    "version": "0.6.12+commit.27d51765.Emscripten.clang"
  },
  "schemaVersion": "3.3.4",
  "updatedAt": "2021-04-12T12:51:07.455Z",
  "devdoc": {
    "kind": "dev",
    "methods": {},
    "version": 1
  },
  "userdoc": {
    "kind": "user",
    "methods": {},
    "version": 1
  }
}