{
  "contractName": "PocketSwapRouter",
  "abi": [
    {
      "inputs": [
        {
          "internalType": "address",
          "name": "_factory",
          "type": "address"
        },
        {
          "internalType": "address",
          "name": "_WETH9",
          "type": "address"
        },
        {
          "internalType": "address",
          "name": "_pocketToken",
          "type": "address"
        }
      ],
      "stateMutability": "nonpayable",
      "type": "constructor"
    },
    {
      "inputs": [],
      "name": "WETH9",
      "outputs": [
        {
          "internalType": "address",
          "name": "",
          "type": "address"
        }
      ],
      "stateMutability": "view",
      "type": "function"
    },
    {
      "inputs": [
        {
          "components": [
            {
              "internalType": "address",
              "name": "token0",
              "type": "address"
            },
            {
              "internalType": "address",
              "name": "token1",
              "type": "address"
            },
            {
              "internalType": "address",
              "name": "recipient",
              "type": "address"
            },
            {
              "internalType": "uint256",
              "name": "amount0Desired",
              "type": "uint256"
            },
            {
              "internalType": "uint256",
              "name": "amount1Desired",
              "type": "uint256"
            },
            {
              "internalType": "uint256",
              "name": "amount0Min",
              "type": "uint256"
            },
            {
              "internalType": "uint256",
              "name": "amount1Min",
              "type": "uint256"
            },
            {
              "internalType": "uint256",
              "name": "deadline",
              "type": "uint256"
            }
          ],
          "internalType": "struct IPocketSwapLiquidityRouter.AddLiquidityParams",
          "name": "params",
          "type": "tuple"
        }
      ],
      "name": "addLiquidity",
      "outputs": [
        {
          "internalType": "uint256",
          "name": "amountA",
          "type": "uint256"
        },
        {
          "internalType": "uint256",
          "name": "amountB",
          "type": "uint256"
        },
        {
          "internalType": "uint256",
          "name": "amountPocket",
          "type": "uint256"
        },
        {
          "internalType": "uint256",
          "name": "liquidity",
          "type": "uint256"
        }
      ],
      "stateMutability": "payable",
      "type": "function"
    },
    {
      "inputs": [
        {
          "components": [
            {
              "internalType": "address",
              "name": "token0",
              "type": "address"
            },
            {
              "internalType": "address",
              "name": "token1",
              "type": "address"
            },
            {
              "internalType": "address",
              "name": "recipient",
              "type": "address"
            },
            {
              "internalType": "uint256",
              "name": "amount0Desired",
              "type": "uint256"
            },
            {
              "internalType": "uint256",
              "name": "amount1Desired",
              "type": "uint256"
            },
            {
              "internalType": "uint256",
              "name": "amount0Min",
              "type": "uint256"
            },
            {
              "internalType": "uint256",
              "name": "amount1Min",
              "type": "uint256"
            },
            {
              "internalType": "uint256",
              "name": "deadline",
              "type": "uint256"
            }
          ],
          "internalType": "struct IPocketSwapLiquidityRouter.AddLiquidityParams",
          "name": "params",
          "type": "tuple"
        }
      ],
      "name": "calcLiquidity",
      "outputs": [
        {
          "internalType": "uint256",
          "name": "amountA",
          "type": "uint256"
        },
        {
          "internalType": "uint256",
          "name": "amountB",
          "type": "uint256"
        },
        {
          "internalType": "uint256",
          "name": "amountAPocket",
          "type": "uint256"
        },
        {
          "internalType": "uint256",
          "name": "amountBPocket",
          "type": "uint256"
        }
      ],
      "stateMutability": "view",
      "type": "function"
    },
    {
      "inputs": [
        {
          "components": [
            {
              "internalType": "bytes",
              "name": "path",
              "type": "bytes"
            },
            {
              "internalType": "address",
              "name": "recipient",
              "type": "address"
            },
            {
              "internalType": "uint256",
              "name": "deadline",
              "type": "uint256"
            },
            {
              "internalType": "uint256",
              "name": "amountOut",
              "type": "uint256"
            },
            {
              "internalType": "uint256",
              "name": "amountInMaximum",
              "type": "uint256"
            }
          ],
          "internalType": "struct IPocketSwapRouter.OutputParams",
          "name": "params",
          "type": "tuple"
        }
      ],
      "name": "exactOutput",
      "outputs": [
        {
          "internalType": "uint256",
          "name": "amountIn",
          "type": "uint256"
        }
      ],
      "stateMutability": "payable",
      "type": "function"
    },
    {
      "inputs": [
        {
          "components": [
            {
              "internalType": "address",
              "name": "tokenIn",
              "type": "address"
            },
            {
              "internalType": "address",
              "name": "tokenOut",
              "type": "address"
            },
            {
              "internalType": "uint24",
              "name": "fee",
              "type": "uint24"
            },
            {
              "internalType": "address",
              "name": "recipient",
              "type": "address"
            },
            {
              "internalType": "uint256",
              "name": "deadline",
              "type": "uint256"
            },
            {
              "internalType": "uint256",
              "name": "amountOut",
              "type": "uint256"
            },
            {
              "internalType": "uint256",
              "name": "amountInMaximum",
              "type": "uint256"
            },
            {
              "internalType": "uint160",
              "name": "sqrtPriceLimitX96",
              "type": "uint160"
            }
          ],
          "internalType": "struct IPocketSwapRouter.OutputSingleParams",
          "name": "params",
          "type": "tuple"
        }
      ],
      "name": "exactOutputSingle",
      "outputs": [
        {
          "internalType": "uint256",
          "name": "amountIn",
          "type": "uint256"
        }
      ],
      "stateMutability": "payable",
      "type": "function"
    },
    {
      "inputs": [],
      "name": "factory",
      "outputs": [
        {
          "internalType": "address",
          "name": "",
          "type": "address"
        }
      ],
      "stateMutability": "view",
      "type": "function"
    },
    {
      "inputs": [
        {
          "internalType": "uint256",
          "name": "amountOut",
          "type": "uint256"
        },
        {
          "internalType": "uint256",
          "name": "reserveIn",
          "type": "uint256"
        },
        {
          "internalType": "uint256",
          "name": "reserveOut",
          "type": "uint256"
        }
      ],
      "name": "getAmountIn",
      "outputs": [
        {
          "internalType": "uint256",
          "name": "amountIn",
          "type": "uint256"
        }
      ],
      "stateMutability": "view",
      "type": "function"
    },
    {
      "inputs": [
        {
          "internalType": "uint256",
          "name": "amountIn",
          "type": "uint256"
        },
        {
          "internalType": "uint256",
          "name": "reserveIn",
          "type": "uint256"
        },
        {
          "internalType": "uint256",
          "name": "reserveOut",
          "type": "uint256"
        }
      ],
      "name": "getAmountOut",
      "outputs": [
        {
          "internalType": "uint256",
          "name": "amountOut",
          "type": "uint256"
        }
      ],
      "stateMutability": "view",
      "type": "function"
    },
    {
      "inputs": [
        {
          "internalType": "uint256",
          "name": "amountOut",
          "type": "uint256"
        },
        {
          "internalType": "address[]",
          "name": "path",
          "type": "address[]"
        }
      ],
      "name": "getAmountsIn",
      "outputs": [
        {
          "internalType": "uint256[]",
          "name": "amounts",
          "type": "uint256[]"
        }
      ],
      "stateMutability": "view",
      "type": "function"
    },
    {
      "inputs": [
        {
          "internalType": "uint256",
          "name": "amountIn",
          "type": "uint256"
        },
        {
          "internalType": "address[]",
          "name": "path",
          "type": "address[]"
        }
      ],
      "name": "getAmountsOut",
      "outputs": [
        {
          "internalType": "uint256[]",
          "name": "amounts",
          "type": "uint256[]"
        }
      ],
      "stateMutability": "view",
      "type": "function"
    },
    {
      "inputs": [
        {
          "internalType": "bytes[]",
          "name": "data",
          "type": "bytes[]"
        }
      ],
      "name": "multicall",
      "outputs": [
        {
          "internalType": "bytes[]",
          "name": "results",
          "type": "bytes[]"
        }
      ],
      "stateMutability": "payable",
      "type": "function"
    },
    {
      "inputs": [
        {
          "internalType": "address",
          "name": "tokenA",
          "type": "address"
        },
        {
          "internalType": "address",
          "name": "tokenB",
          "type": "address"
        }
      ],
      "name": "pairFor",
      "outputs": [
        {
          "internalType": "contract IPocketSwapPair",
          "name": "",
          "type": "address"
        }
      ],
      "stateMutability": "view",
      "type": "function"
    },
    {
      "inputs": [],
      "name": "pocket",
      "outputs": [
        {
          "internalType": "address",
          "name": "",
          "type": "address"
        }
      ],
      "stateMutability": "view",
      "type": "function"
    },
    {
      "inputs": [
        {
          "internalType": "uint256",
          "name": "amount0Delta",
          "type": "uint256"
        },
        {
          "internalType": "uint256",
          "name": "amount1Delta",
          "type": "uint256"
        },
        {
          "internalType": "bytes",
          "name": "_data",
          "type": "bytes"
        }
      ],
      "name": "pocketSwapCallback",
      "outputs": [],
      "stateMutability": "nonpayable",
      "type": "function"
    },
    {
      "inputs": [
        {
          "internalType": "uint256",
          "name": "amountA",
          "type": "uint256"
        },
        {
          "internalType": "uint256",
          "name": "reserveA",
          "type": "uint256"
        },
        {
          "internalType": "uint256",
          "name": "reserveB",
          "type": "uint256"
        }
      ],
      "name": "quote",
      "outputs": [
        {
          "internalType": "uint256",
          "name": "amountB",
          "type": "uint256"
        }
      ],
      "stateMutability": "pure",
      "type": "function"
    },
    {
      "inputs": [
        {
          "components": [
            {
              "internalType": "address",
              "name": "tokenA",
              "type": "address"
            },
            {
              "internalType": "address",
              "name": "tokenB",
              "type": "address"
            },
            {
              "internalType": "uint256",
              "name": "liquidity",
              "type": "uint256"
            },
            {
              "internalType": "uint256",
              "name": "amountAMin",
              "type": "uint256"
            },
            {
              "internalType": "uint256",
              "name": "amountBMin",
              "type": "uint256"
            },
            {
              "internalType": "address",
              "name": "rewards",
              "type": "address"
            },
            {
              "internalType": "address",
              "name": "recipient",
              "type": "address"
            },
            {
              "internalType": "uint256",
              "name": "deadline",
              "type": "uint256"
            }
          ],
          "internalType": "struct IPocketSwapLiquidityRouter.RemoveLiquidityParams",
          "name": "params",
          "type": "tuple"
        }
      ],
      "name": "removeLiquidity",
      "outputs": [
        {
          "internalType": "uint256",
          "name": "amountA",
          "type": "uint256"
        },
        {
          "internalType": "uint256",
          "name": "amountB",
          "type": "uint256"
        }
      ],
      "stateMutability": "payable",
      "type": "function"
    },
    {
      "inputs": [
        {
          "components": [
            {
              "internalType": "address",
              "name": "tokenIn",
              "type": "address"
            },
            {
              "internalType": "address",
              "name": "tokenOut",
              "type": "address"
            },
            {
              "internalType": "address",
              "name": "recipient",
              "type": "address"
            },
            {
              "internalType": "uint256",
              "name": "deadline",
              "type": "uint256"
            },
            {
              "internalType": "uint256",
              "name": "amountIn",
              "type": "uint256"
            },
            {
              "internalType": "uint256",
              "name": "amountOutMinimum",
              "type": "uint256"
            }
          ],
          "internalType": "struct IPocketSwapRouter.SwapParams",
          "name": "params",
          "type": "tuple"
        }
      ],
      "name": "swap",
      "outputs": [
        {
          "internalType": "uint256",
          "name": "amountOut",
          "type": "uint256"
        }
      ],
      "stateMutability": "payable",
      "type": "function"
    },
    {
      "inputs": [
        {
          "components": [
            {
              "internalType": "bytes",
              "name": "path",
              "type": "bytes"
            },
            {
              "internalType": "address",
              "name": "recipient",
              "type": "address"
            },
            {
              "internalType": "uint256",
              "name": "deadline",
              "type": "uint256"
            },
            {
              "internalType": "uint256",
              "name": "amountIn",
              "type": "uint256"
            },
            {
              "internalType": "uint256",
              "name": "amountOutMinimum",
              "type": "uint256"
            }
          ],
          "internalType": "struct IPocketSwapRouter.SwapMultiParams",
          "name": "params",
          "type": "tuple"
        }
      ],
      "name": "swapMulti",
      "outputs": [
        {
          "internalType": "uint256",
          "name": "amountOut",
          "type": "uint256"
        }
      ],
      "stateMutability": "payable",
      "type": "function"
    },
    {
      "inputs": [
        {
          "internalType": "address",
          "name": "token",
          "type": "address"
        },
        {
          "internalType": "uint256",
          "name": "amountMinimum",
          "type": "uint256"
        },
        {
          "internalType": "address",
          "name": "recipient",
          "type": "address"
        }
      ],
      "name": "sweepToken",
      "outputs": [],
      "stateMutability": "payable",
      "type": "function"
    },
    {
      "inputs": [
        {
          "internalType": "uint256",
          "name": "amountMinimum",
          "type": "uint256"
        },
        {
          "internalType": "address",
          "name": "recipient",
          "type": "address"
        }
      ],
      "name": "unwrapWETH9",
      "outputs": [],
      "stateMutability": "payable",
      "type": "function"
    }
  ],
  "bytecode": "0x60e06040526000196000553480156200001757600080fd5b5060405162004a6038038062004a608339810160408190526200003a916200007f565b6001600160601b0319606093841b811660805291831b821660a05290911b1660c052620000c8565b80516001600160a01b03811681146200007a57600080fd5b919050565b60008060006060848603121562000094578283fd5b6200009f8462000062565b9250620000af6020850162000062565b9150620000bf6040850162000062565b90509250925092565b60805160601c60a05160601c60c05160601c6148016200025f600039600081816103ac01528181610e1f01528181610e5c01528181610ece01528181610fbd0152818161117f015281816111cc015281816112d4015281816113cc01528181611517015281816115ac015281816115ce01528181611809015281816118520152818161196a01528181611a6501528181611b4201528181611b6d01528181611bae01528181611be401528181611d1e01528181611d6f01528181612b5c01528181612b9901528181612bf601528181612c740152612db90152600081816102110152818161075e0152818161086d01528181612f2501528181612f6e015261301c0152600081816103780152818161042a015281816105b10152818161093f01528181610d2001528181610d8c01528181610efb01528181610fe5015281816112750152818161163b015281816116c5015281816118fa015281816119f201528181611b0e01528181611ce501528181611e5a015281816120160152818161240f015281816129ab01526134b601526148016000f3fe60806040526004361061015f5760003560e01c80638d4d72e5116100c0578063cccef9e211610074578063db3e219811610059578063db3e2198146103ee578063df2ab5bb14610402578063f28c04981461041557600080fd5b8063cccef9e21461039a578063d06ca61f146103ce57600080fd5b8063ac9650d8116100a5578063ac9650d814610326578063ad615dec14610346578063c45a01551461036657600080fd5b80638d4d72e5146102f357806396ed28f91461030657600080fd5b80634aa4a4fc1161011757806368bc7e08116100fc57806368bc7e08146102735780637936cd90146102b357806385f8c259146102d357600080fd5b80634aa4a4fc146101ff5780636385a2711461024b57600080fd5b80631f00ca74116101485780631f00ca74146101aa578063441a12de146101d757806349404b7c146101ea57600080fd5b8063054d50d41461016457806313b5192414610197575b600080fd5b34801561017057600080fd5b5061018461017f366004614356565b610423565b6040519081526020015b60405180910390f35b6101846101a53660046140c8565b61045b565b3480156101b657600080fd5b506101ca6101c53660046141f8565b6105aa565b60405161018e9190614476565b6101846101e5366004614168565b6105d7565b6101fd6101f83660046141d4565b61072d565b005b34801561020b57600080fd5b506102337f000000000000000000000000000000000000000000000000000000000000000081565b6040516001600160a01b03909116815260200161018e565b61025e610259366004613fde565b6108e0565b6040805192835260208301919091520161018e565b34801561027f57600080fd5b5061029361028e366004613fde565b610c3a565b60408051948552602085019390935291830152606082015260800161018e565b3480156102bf57600080fd5b506101fd6102ce3660046142db565b610cf7565b3480156102df57600080fd5b506101846102ee366004614356565b611634565b610293610301366004613fde565b611662565b34801561031257600080fd5b50610233610321366004613e62565b611e53565b610339610334366004613edb565b611e80565b60405161018e91906143f7565b34801561035257600080fd5b50610184610361366004614356565b612002565b34801561037257600080fd5b506102337f000000000000000000000000000000000000000000000000000000000000000081565b3480156103a657600080fd5b506102337f000000000000000000000000000000000000000000000000000000000000000081565b3480156103da57600080fd5b506101ca6103e93660046141f8565b61200f565b6101846103fc366004613fde565b50600090565b6101fd610410366004613e9a565b61203c565b6101846103fc366004613ffa565b60006104517f000000000000000000000000000000000000000000000000000000000000000085858561213e565b90505b9392505050565b600081604001518061046a4290565b11156104bd5760405162461bcd60e51b815260206004820152601360248201527f5472616e73616374696f6e20746f6f206f6c640000000000000000000000000060448201526064015b60405180910390fd5b60009150335b60006104d28560000151612309565b905061051c8560600151826104eb5786602001516104ed565b305b60405180604001604052806105058a6000015161232c565b8152602001866001600160a01b031681525061234c565b6060860152801561053c57845130925061053590612475565b8552610549565b846060015193505061054f565b506104c3565b83608001518310156105a35760405162461bcd60e51b815260206004820152601360248201527f546f6f206c6974746c652072656365697665640000000000000000000000000060448201526064016104b4565b5050919050565b60606104547f00000000000000000000000000000000000000000000000000000000000000008484612489565b600060608201358042111561062e5760405162461bcd60e51b815260206004820152601360248201527f5472616e73616374696f6e20746f6f206f6c640000000000000000000000000060448201526064016104b4565b6106d160808401356106466060860160408701613e2a565b604080518082019091528061065e6020890189613e2a565b61066e60408a0160208b01613e2a565b6040517fffffffffffffffffffffffffffffffffffffffff000000000000000000000000606093841b811660208301529190921b1660348201526048016040516020818303038152906040528152602001336001600160a01b031681525061234c565b91508260a001358210156107275760405162461bcd60e51b815260206004820152601360248201527f546f6f206c6974746c652072656365697665640000000000000000000000000060448201526064016104b4565b50919050565b6040517f70a082310000000000000000000000000000000000000000000000000000000081523060048201526000907f00000000000000000000000000000000000000000000000000000000000000006001600160a01b0316906370a082319060240160206040518083038186803b1580156107a857600080fd5b505afa1580156107bc573d6000803e3d6000fd5b505050506040513d601f19601f820116820180604052508101906107e091906141bc565b9050821561083857828110156108385760405162461bcd60e51b815260206004820152601260248201527f496e73756666696369656e74205745544839000000000000000000000000000060448201526064016104b4565b80156108db576040517f2e1a7d4d000000000000000000000000000000000000000000000000000000008152600481018290527f00000000000000000000000000000000000000000000000000000000000000006001600160a01b031690632e1a7d4d90602401600060405180830381600087803b1580156108b957600080fd5b505af11580156108cd573d6000803e3d6000fd5b505050506108db8282612674565b505050565b60008060e0830135804211156109385760405162461bcd60e51b815260206004820152601360248201527f5472616e73616374696f6e20746f6f206f6c640000000000000000000000000060448201526064016104b4565b60006109807f000000000000000000000000000000000000000000000000000000000000000061096b6020880188613e2a565b61097b6040890160208a01613e2a565b612731565b604080517f23b872dd0000000000000000000000000000000000000000000000000000000081523360048201526001600160a01b03831660248201819052918801356044820152919250906323b872dd90606401602060405180830381600087803b1580156109ee57600080fd5b505af1158015610a02573d6000803e3d6000fd5b505050506040513d601f19601f82011682018060405250810190610a269190613f4b565b506000806001600160a01b0383166389afcb44610a4960e08a0160c08b01613e2a565b6040517fffffffff0000000000000000000000000000000000000000000000000000000060e084901b1681526001600160a01b0390911660048201526024016040805180830381600087803b158015610aa157600080fd5b505af1158015610ab5573d6000803e3d6000fd5b505050506040513d601f19601f82011682018060405250810190610ad991906142b8565b90925090506000610b05610af060208a018a613e2a565b610b0060408b0160208c01613e2a565b612891565b5090506001600160a01b038116610b1f60208a018a613e2a565b6001600160a01b031614610b34578183610b37565b82825b90975095506060880135871015610bb65760405162461bcd60e51b815260206004820152602760248201527f506f636b657453776170526f757465723a20494e53554646494349454e545f4160448201527f5f414d4f554e540000000000000000000000000000000000000000000000000060648201526084016104b4565b8760800135861015610c305760405162461bcd60e51b815260206004820152602760248201527f506f636b657453776170526f757465723a20494e53554646494349454e545f4260448201527f5f414d4f554e540000000000000000000000000000000000000000000000000060648201526084016104b4565b5050505050915091565b600080600080610ce8856060013586608001358760a001358860c0013560405180604001604052808b6000016020810190610c759190613e2a565b610c8560408e0160208f01613e2a565b6040517fffffffffffffffffffffffffffffffffffffffff000000000000000000000000606093841b811660208301529190921b1660348201526048016040516020818303038152906040528152602001336001600160a01b03168152506129a1565b92989197509550909350915050565b6000610d0582840184614032565b9050600080610d178360000151612edc565b91509150610d467f00000000000000000000000000000000000000000000000000000000000000008383612efd565b5060008060008911610d6d57836001600160a01b0316836001600160a01b03161088610d84565b826001600160a01b0316846001600160a01b031610895b9150915060007f00000000000000000000000000000000000000000000000000000000000000006001600160a01b03166346870d2b6040518163ffffffff1660e01b815260040160206040518083038186803b158015610de357600080fd5b505afa158015610df7573d6000803e3d6000fd5b505050506040513d601f19601f82011682018060405250810190610e1b91906141bc565b90507f00000000000000000000000000000000000000000000000000000000000000006001600160a01b0316856001600160a01b031614158015610e9157507f00000000000000000000000000000000000000000000000000000000000000006001600160a01b0316846001600160a01b031614155b156114d6576040517fe6a439050000000000000000000000000000000000000000000000000000000081526001600160a01b0380871660048301527f00000000000000000000000000000000000000000000000000000000000000008116602483015286916000917f0000000000000000000000000000000000000000000000000000000000000000169063e6a439059060440160206040518083038186803b158015610f3d57600080fd5b505afa158015610f51573d6000803e3d6000fd5b505050506040513d601f19601f82011682018060405250810190610f759190613e46565b90506001600160a01b0381166110ba576040517fe6a439050000000000000000000000000000000000000000000000000000000081526001600160a01b0387811660048301527f0000000000000000000000000000000000000000000000000000000000000000811660248301527f0000000000000000000000000000000000000000000000000000000000000000169063e6a439059060440160206040518083038186803b15801561102757600080fd5b505afa15801561103b573d6000803e3d6000fd5b505050506040513d601f19601f8201168201806040525081019061105f9190613e46565b86925090506001600160a01b0381166110ba5760405162461bcd60e51b815260206004820152600e60248201527f4e6f20504f434b4554207061697200000000000000000000000000000000000060448201526064016104b4565b6040517f70a08231000000000000000000000000000000000000000000000000000000008152336004820152600090633b9aca009085906001600160a01b038616906370a082319060240160206040518083038186803b15801561111d57600080fd5b505afa158015611131573d6000803e3d6000fd5b505050506040513d601f19601f8201168201806040525081019061115591906141bc565b61115f9190614699565b6111699190614679565b905061117783338484612f21565b60006111a3847f0000000000000000000000000000000000000000000000000000000000000000612891565b5060408051600280825260608201835292935060009290916020830190803683370190505090507f00000000000000000000000000000000000000000000000000000000000000008160008151811061120c57634e487b7160e01b600052603260045260246000fd5b60200260200101906001600160a01b031690816001600160a01b031681525050848160018151811061124e57634e487b7160e01b600052603260045260246000fd5b60200260200101906001600160a01b031690816001600160a01b031681525050600061129b7f000000000000000000000000000000000000000000000000000000000000000085846130d6565b6001815181106112bb57634e487b7160e01b600052603260045260246000fd5b60200260200101519050600080846001600160a01b03167f00000000000000000000000000000000000000000000000000000000000000006001600160a01b0316146113095782600061130d565b6000835b6040517f022c0d9f0000000000000000000000000000000000000000000000000000000081526004810183905260248101829052306044820152608060648201526000608482015291935091506001600160a01b0388169063022c0d9f9060a401600060405180830381600087803b15801561138857600080fd5b505af115801561139c573d6000803e3d6000fd5b50506040517f70a082310000000000000000000000000000000000000000000000000000000081523060048201527f00000000000000000000000000000000000000000000000000000000000000006001600160a01b0316925063beceed39915082906370a082319060240160206040518083038186803b15801561142057600080fd5b505afa158015611434573d6000803e3d6000fd5b505050506040513d601f19601f8201168201806040525081019061145891906141bc565b6040518263ffffffff1660e01b815260040161147691815260200190565b602060405180830381600087803b15801561149057600080fd5b505af11580156114a4573d6000803e3d6000fd5b505050506040513d601f19601f820116820180604052508101906114c89190613f4b565b5050505050505050506115f5565b6040517f70a08231000000000000000000000000000000000000000000000000000000008152336004820152600090633b9aca009083906001600160a01b037f000000000000000000000000000000000000000000000000000000000000000016906370a082319060240160206040518083038186803b15801561155957600080fd5b505afa15801561156d573d6000803e3d6000fd5b505050506040513d601f19601f8201168201806040525081019061159191906141bc565b61159b9190614699565b6115a59190614679565b90506115f37f0000000000000000000000000000000000000000000000000000000000000000337f0000000000000000000000000000000000000000000000000000000000000000846132a1565b505b821580156116095750855161160990612309565b1561162857855161161990612475565b86526116268233886133f3565b505b50505050505050505050565b60006104517f0000000000000000000000000000000000000000000000000000000000000000858585613512565b600080808060e0850135804211156116bc5760405162461bcd60e51b815260206004820152601360248201527f5472616e73616374696f6e20746f6f206f6c640000000000000000000000000060448201526064016104b4565b600080806117017f00000000000000000000000000000000000000000000000000000000000000006116f160208c018c613e2a565b61097b60408d0160208e01613e2a565b905061170c89610c3a565b929a509098509350915061172e61172660208b018b613e2a565b33838b612f21565b61174961174160408b0160208c01613e2a565b33838a612f21565b6001600160a01b038116636a62784261176860608c0160408d01613e2a565b6040517fffffffff0000000000000000000000000000000000000000000000000000000060e084901b1681526001600160a01b039091166004820152602401602060405180830381600087803b1580156117c157600080fd5b505af11580156117d5573d6000803e3d6000fd5b505050506040513d601f19601f820116820180604052508101906117f991906141bc565b6000965094506001600160a01b037f00000000000000000000000000000000000000000000000000000000000000001661183660208b018b613e2a565b6001600160a01b03161415801561188e57506001600160a01b037f00000000000000000000000000000000000000000000000000000000000000001661188260408b0160208c01613e2a565b6001600160a01b031614155b15611e485760008311806118a25750600082115b6118ee5760405162461bcd60e51b815260206004820152601d60248201527f43616e6e6f742063616c63756c61746520504f434b45542076616c756500000060448201526064016104b4565b60006001600160a01b037f00000000000000000000000000000000000000000000000000000000000000001663e6a4390561192c60208d018d613e2a565b60405160e083901b7fffffffff000000000000000000000000000000000000000000000000000000001681526001600160a01b0391821660048201527f0000000000000000000000000000000000000000000000000000000000000000909116602482015260440160206040518083038186803b1580156119ac57600080fd5b505afa1580156119c0573d6000803e3d6000fd5b505050506040513d601f19601f820116820180604052508101906119e49190613e46565b905060006001600160a01b037f00000000000000000000000000000000000000000000000000000000000000001663e6a43905611a2760408e0160208f01613e2a565b60405160e083901b7fffffffff000000000000000000000000000000000000000000000000000000001681526001600160a01b0391821660048201527f0000000000000000000000000000000000000000000000000000000000000000909116602482015260440160206040518083038186803b158015611aa757600080fd5b505afa158015611abb573d6000803e3d6000fd5b505050506040513d601f19601f82011682018060405250810190611adf9190613e46565b90508415611cbe57849750600060028b611af99190614679565b9050611b05818c6146d6565b9a506000611b667f00000000000000000000000000000000000000000000000000000000000000008e6000016020810190611b409190613e2a565b7f0000000000000000000000000000000000000000000000000000000000000000612731565b9050611b947f000000000000000000000000000000000000000000000000000000000000000033838d612f21565b6000611bd28e6000016020810190611bac9190613e2a565b7f0000000000000000000000000000000000000000000000000000000000000000612891565b509050600080826001600160a01b03167f00000000000000000000000000000000000000000000000000000000000000006001600160a01b031614611c1957846000611c1d565b6000855b6040517f022c0d9f00000000000000000000000000000000000000000000000000000000815260048101839052602481018290526001600160a01b038b8116604483015260806064830152600060848301529294509092509085169063022c0d9f9060a401600060405180830381600087803b158015611c9c57600080fd5b505af1158015611cb0573d6000803e3d6000fd5b505050505050505050611e45565b839750600060028a611cd09190614679565b9050611cdc818b6146d6565b99506000611d177f00000000000000000000000000000000000000000000000000000000000000008e6020016020810190611b409190613e2a565b9050611d457f000000000000000000000000000000000000000000000000000000000000000033838d612f21565b6000611d5d8e6020016020810190611bac9190613e2a565b509050600080826001600160a01b03167f00000000000000000000000000000000000000000000000000000000000000006001600160a01b031614611da457846000611da8565b6000855b6040517f022c0d9f00000000000000000000000000000000000000000000000000000000815260048101839052602481018290526001600160a01b038b8116604483015260806064830152600060848301529294509092509085169063022c0d9f9060a401600060405180830381600087803b158015611e2757600080fd5b505af1158015611e3b573d6000803e3d6000fd5b5050505050505050505b50505b505050509193509193565b60006104547f00000000000000000000000000000000000000000000000000000000000000008484612731565b60608167ffffffffffffffff811115611ea957634e487b7160e01b600052604160045260246000fd5b604051908082528060200260200182016040528015611edc57816020015b6060815260200190600190039081611ec75790505b50905060005b82811015611ffb5760008030868685818110611f0e57634e487b7160e01b600052603260045260246000fd5b9050602002810190611f209190614540565b604051611f2e9291906143cb565b600060405180830381855af49150503d8060008114611f69576040519150601f19603f3d011682016040523d82523d6000602084013e611f6e565b606091505b509150915081611fba57604481511015611f8757600080fd5b60048101905080806020019051810190611fa19190613f6b565b60405162461bcd60e51b81526004016104b491906144ba565b80848481518110611fdb57634e487b7160e01b600052603260045260246000fd5b602002602001018190525050508080611ff39061474e565b915050611ee2565b5092915050565b60006104518484846136d6565b60606104547f000000000000000000000000000000000000000000000000000000000000000084846130d6565b6040517f70a082310000000000000000000000000000000000000000000000000000000081523060048201526000906001600160a01b038516906370a082319060240160206040518083038186803b15801561209757600080fd5b505afa1580156120ab573d6000803e3d6000fd5b505050506040513d601f19601f820116820180604052508101906120cf91906141bc565b9050821561212757828110156121275760405162461bcd60e51b815260206004820152601260248201527f496e73756666696369656e7420746f6b656e000000000000000000000000000060448201526064016104b4565b8015612138576121388483836137e4565b50505050565b60008084116121b55760405162461bcd60e51b815260206004820152602c60248201527f506f636b6574537761704c6962726172793a20494e53554646494349454e545f60448201527f494e5055545f414d4f554e54000000000000000000000000000000000000000060648201526084016104b4565b6000831180156121c55750600082115b6122375760405162461bcd60e51b815260206004820152602960248201527f506f636b6574537761704c6962726172793a20494e53554646494349454e545f60448201527f4c4951554944495459000000000000000000000000000000000000000000000060648201526084016104b4565b6000856001600160a01b031663ddca3f436040518163ffffffff1660e01b815260040160206040518083038186803b15801561227257600080fd5b505afa158015612286573d6000803e3d6000fd5b505050506040513d601f19601f820116820180604052508101906122aa91906141bc565b905060006122c66122bf83633b9aca006146d6565b8790613926565b905060006122d48286613926565b905060006122f0836122ea89633b9aca00613926565b90613932565b90506122fc8183614679565b9998505050505050505050565b600060146123178180614661565b6123219190614661565b825110159050919050565b6060612346600061233e601480614661565b84919061393e565b92915050565b600080600061235e8460000151612edc565b6040805160028082526060820183529395509193506000929060208301908036833701905050905082816000815181106123a857634e487b7160e01b600052603260045260246000fd5b60200260200101906001600160a01b031690816001600160a01b03168152505081816001815181106123ea57634e487b7160e01b600052603260045260246000fd5b60200260200101906001600160a01b031690816001600160a01b0316815250506124357f000000000000000000000000000000000000000000000000000000000000000088836130d6565b60018151811061245557634e487b7160e01b600052603260045260246000fd5b6020026020010151935061246b86888688613add565b5050509392505050565b6060612346601480845161233e91906146d6565b60606002825110156124dd5760405162461bcd60e51b815260206004820152601f60248201527f506f636b6574537761704c6962726172793a20494e56414c49445f504154480060448201526064016104b4565b815167ffffffffffffffff81111561250557634e487b7160e01b600052604160045260246000fd5b60405190808252806020026020018201604052801561252e578160200160208202803683370190505b50905082816001835161254191906146d6565b8151811061255f57634e487b7160e01b600052603260045260246000fd5b60200260200101818152505060006001835161257b91906146d6565b90505b801561266c576000806125ea87866125976001876146d6565b815181106125b557634e487b7160e01b600052603260045260246000fd5b60200260200101518786815181106125dd57634e487b7160e01b600052603260045260246000fd5b6020026020010151613bd5565b915091506126218785858151811061261257634e487b7160e01b600052603260045260246000fd5b60200260200101518484613512565b8461262d6001866146d6565b8151811061264b57634e487b7160e01b600052603260045260246000fd5b6020026020010181815250505050808061266490614719565b91505061257e565b509392505050565b604080516000808252602082019092526001600160a01b03841690839060405161269e91906143db565b60006040518083038185875af1925050503d80600081146126db576040519150601f19603f3d011682016040523d82523d6000602084013e6126e0565b606091505b50509050806108db5760405162461bcd60e51b815260206004820152600360248201527f535445000000000000000000000000000000000000000000000000000000000060448201526064016104b4565b6000816001600160a01b0316836001600160a01b03161115612751579091905b6040517fffffffffffffffffffffffffffffffffffffffff000000000000000000000000606085811b8216602084015284901b1660348201528490604801604080517fffffffffffffffffffffffffffffffffffffffffffffffffffffffffffffffe0818403018152908290528051602091820120612853939290917fdf7d27aafa64d711b5be2386628edb30802b46757f0d3d6025d859a6350e72b491017fff00000000000000000000000000000000000000000000000000000000000000815260609390931b7fffffffffffffffffffffffffffffffffffffffff0000000000000000000000001660018401526015830191909152603582015260550190565b604080517fffffffffffffffffffffffffffffffffffffffffffffffffffffffffffffffe08184030181529190528051602090910120949350505050565b600080826001600160a01b0316846001600160a01b0316141561291c5760405162461bcd60e51b815260206004820152602660248201527f506f636b6574537761704c6962726172793a204944454e544943414c5f41444460448201527f524553534553000000000000000000000000000000000000000000000000000060648201526084016104b4565b826001600160a01b0316846001600160a01b03161061293c57828461293f565b83835b90925090506001600160a01b03821661299a5760405162461bcd60e51b815260206004820152601f60248201527f506f636b6574537761704c6962726172793a205a45524f5f414444524553530060448201526064016104b4565b9250929050565b60008060008060007f000000000000000000000000000000000000000000000000000000000000000090506000806129dc8860000151612edc565b915091506000806129ee858585613bd5565b91509150816000148015612a00575080155b15612a10578d98508c9750612b52565b6000612a1d8f84846136d6565b90508d8111612aa7578b811015612a9c5760405162461bcd60e51b815260206004820152602760248201527f506f636b657453776170526f757465723a20494e53554646494349454e545f4260448201527f5f414d4f554e540000000000000000000000000000000000000000000000000060648201526084016104b4565b8e9950975087612b50565b6000612ab48f84866136d6565b90508f811115612ad457634e487b7160e01b600052600160045260246000fd5b8d811015612b4a5760405162461bcd60e51b815260206004820152602760248201527f506f636b657453776170526f757465723a20494e53554646494349454e545f4160448201527f5f414d4f554e540000000000000000000000000000000000000000000000000060648201526084016104b4565b99508d98505b505b60009650600095507f00000000000000000000000000000000000000000000000000000000000000006001600160a01b0316846001600160a01b031614158015612bce57507f00000000000000000000000000000000000000000000000000000000000000006001600160a01b0316836001600160a01b031614155b15612ecb576040805160028082526060820183526000926020830190803683370190505090507f000000000000000000000000000000000000000000000000000000000000000081600081518110612c3657634e487b7160e01b600052603260045260246000fd5b6001600160a01b0392831660209182029290920101526040517fe6a439050000000000000000000000000000000000000000000000000000000081527f000000000000000000000000000000000000000000000000000000000000000082166004820152868216602482015260009188169063e6a439059060440160206040518083038186803b158015612cc957600080fd5b505afa158015612cdd573d6000803e3d6000fd5b505050506040513d601f19601f82011682018060405250810190612d019190613e46565b6001600160a01b031614612d89578481600181518110612d3157634e487b7160e01b600052603260045260246000fd5b6001600160a01b0390921660209283029190910190910152612d5e86612d5860028d614679565b83612489565b600081518110612d7e57634e487b7160e01b600052603260045260246000fd5b602002602001015197505b6040517fe6a439050000000000000000000000000000000000000000000000000000000081526001600160a01b037f00000000000000000000000000000000000000000000000000000000000000008116600483015285811660248301526000919088169063e6a439059060440160206040518083038186803b158015612e0f57600080fd5b505afa158015612e23573d6000803e3d6000fd5b505050506040513d601f19601f82011682018060405250810190612e479190613e46565b6001600160a01b031614612ec9578381600181518110612e7757634e487b7160e01b600052603260045260246000fd5b6001600160a01b0390921660209283029190910190910152612e9e86612d5860028c614679565b600081518110612ebe57634e487b7160e01b600052603260045260246000fd5b602002602001015196505b505b505050505095509550955095915050565b600080612ee98382613cc8565b9150612ef6836014613cc8565b9050915091565b6000612f0a848484612731565b9050336001600160a01b0382161461045457600080fd5b60007f00000000000000000000000000000000000000000000000000000000000000006001600160a01b0316856001600160a01b0316148015612f675750814791508110155b156130a2577f00000000000000000000000000000000000000000000000000000000000000006001600160a01b031663d0e30db0826040518263ffffffff1660e01b81526004016000604051808303818588803b158015612fc757600080fd5b505af1158015612fdb573d6000803e3d6000fd5b50506040517fa9059cbb0000000000000000000000000000000000000000000000000000000081526001600160a01b038781166004830152602482018790527f000000000000000000000000000000000000000000000000000000000000000016935063a9059cbb92506044019050602060405180830381600087803b15801561306457600080fd5b505af1158015613078573d6000803e3d6000fd5b505050506040513d601f19601f8201168201806040525081019061309c9190613f4b565b506130cf565b6001600160a01b0384163014156130c3576130be8584846137e4565b6130cf565b6130cf858585856132a1565b5050505050565b606060028251101561312a5760405162461bcd60e51b815260206004820152601f60248201527f506f636b6574537761704c6962726172793a20494e56414c49445f504154480060448201526064016104b4565b815167ffffffffffffffff81111561315257634e487b7160e01b600052604160045260246000fd5b60405190808252806020026020018201604052801561317b578160200160208202803683370190505b50905082816000815181106131a057634e487b7160e01b600052603260045260246000fd5b60200260200101818152505060005b600183516131bd91906146d6565b81101561266c5760008061321f878685815181106131eb57634e487b7160e01b600052603260045260246000fd5b6020026020010151878660016132019190614661565b815181106125dd57634e487b7160e01b600052603260045260246000fd5b915091506132568785858151811061324757634e487b7160e01b600052603260045260246000fd5b6020026020010151848461213e565b84613262856001614661565b8151811061328057634e487b7160e01b600052603260045260246000fd5b602002602001018181525050505080806132999061474e565b9150506131af565b604080516001600160a01b0385811660248301528481166044830152606480830185905283518084039091018152608490920183526020820180517bffffffffffffffffffffffffffffffffffffffffffffffffffffffff167f23b872dd00000000000000000000000000000000000000000000000000000000179052915160009283929088169161333391906143db565b6000604051808303816000865af19150503d8060008114613370576040519150601f19603f3d011682016040523d82523d6000602084013e613375565b606091505b509150915081801561339f57508051158061339f57508080602001905181019061339f9190613f4b565b6133eb5760405162461bcd60e51b815260206004820152600360248201527f535446000000000000000000000000000000000000000000000000000000000060448201526064016104b4565b505050505050565b60008060006134058460000151612edc565b60408051600280825260608201835293955091935060009290602083019080368337019050509050818160008151811061344f57634e487b7160e01b600052603260045260246000fd5b60200260200101906001600160a01b031690816001600160a01b031681525050828160018151811061349157634e487b7160e01b600052603260045260246000fd5b60200260200101906001600160a01b031690816001600160a01b0316815250506134dc7f00000000000000000000000000000000000000000000000000000000000000008883612489565b6000815181106134fc57634e487b7160e01b600052603260045260246000fd5b6020026020010151935061246b86858988613add565b60008084116135895760405162461bcd60e51b815260206004820152602d60248201527f506f636b6574537761704c6962726172793a20494e53554646494349454e545f60448201527f4f55545055545f414d4f554e540000000000000000000000000000000000000060648201526084016104b4565b6000831180156135995750600082115b61360b5760405162461bcd60e51b815260206004820152602960248201527f506f636b6574537761704c6962726172793a20494e53554646494349454e545f60448201527f4c4951554944495459000000000000000000000000000000000000000000000060648201526084016104b4565b6000856001600160a01b031663ddca3f436040518163ffffffff1660e01b815260040160206040518083038186803b15801561364657600080fd5b505afa15801561365a573d6000803e3d6000fd5b505050506040513d601f19601f8201168201806040525081019061367e91906141bc565b9050600061369a633b9aca006136948789613926565b90613926565b905060006136b96136af84633b9aca006146d6565b613694878a613d98565b90506136ca60016122ea8385614679565b98975050505050505050565b600080841161374d5760405162461bcd60e51b815260206004820152602660248201527f506f636b6574537761704c6962726172793a20494e53554646494349454e545f60448201527f414d4f554e54000000000000000000000000000000000000000000000000000060648201526084016104b4565b60008311801561375d5750600082115b6137cf5760405162461bcd60e51b815260206004820152602960248201527f506f636b6574537761704c6962726172793a20494e53554646494349454e545f60448201527f4c4951554944495459000000000000000000000000000000000000000000000060648201526084016104b4565b826137da8584613926565b6104519190614679565b604080516001600160a01b038481166024830152604480830185905283518084039091018152606490920183526020820180517bffffffffffffffffffffffffffffffffffffffffffffffffffffffff167fa9059cbb00000000000000000000000000000000000000000000000000000000179052915160009283929087169161386e91906143db565b6000604051808303816000865af19150503d80600081146138ab576040519150601f19603f3d011682016040523d82523d6000602084013e6138b0565b606091505b50915091508180156138da5750805115806138da5750808060200190518101906138da9190613f4b565b6130cf5760405162461bcd60e51b815260206004820152600260248201527f535400000000000000000000000000000000000000000000000000000000000060448201526064016104b4565b60006104548284614699565b60006104548284614661565b60608161394c81601f614661565b101561399a5760405162461bcd60e51b815260206004820152600e60248201527f736c6963655f6f766572666c6f7700000000000000000000000000000000000060448201526064016104b4565b826139a58382614661565b10156139f35760405162461bcd60e51b815260206004820152600e60248201527f736c6963655f6f766572666c6f7700000000000000000000000000000000000060448201526064016104b4565b6139fd8284614661565b84511015613a4d5760405162461bcd60e51b815260206004820152601160248201527f736c6963655f6f75744f66426f756e647300000000000000000000000000000060448201526064016104b4565b606082158015613a6c5760405191506000825260208201604052613ad4565b6040519150601f8416801560200281840101858101878315602002848b0101015b81831015613aa5578051835260209283019201613a8d565b5050858452601f017fffffffffffffffffffffffffffffffffffffffffffffffffffffffffffffffe016604052505b50949350505050565b600080613aed8360000151612edc565b915091506000613afd8383611e53565b9050613b0b83338389612f21565b6000613b178484612891565b509050600080826001600160a01b0316866001600160a01b031614613b3e57876000613b42565b6000885b91509150836001600160a01b031663022c0d9f83838d8b604051602001613b6991906144cd565b6040516020818303038152906040526040518563ffffffff1660e01b8152600401613b979493929190614508565b600060405180830381600087803b158015613bb157600080fd5b505af1158015613bc5573d6000803e3d6000fd5b5050505050505050505050505050565b6000806000613be48585612891565b5090506000613bf4878787612731565b90506000819050600080826001600160a01b0316630902f1ac6040518163ffffffff1660e01b815260040160606040518083038186803b158015613c3757600080fd5b505afa158015613c4b573d6000803e3d6000fd5b505050506040513d601f19601f82011682018060405250810190613c6f9190614179565b506dffffffffffffffffffffffffffff1691506dffffffffffffffffffffffffffff169150846001600160a01b0316896001600160a01b031614613cb4578082613cb7565b81815b909b909a5098505050505050505050565b600081613cd6816014614661565b1015613d245760405162461bcd60e51b815260206004820152601260248201527f746f416464726573735f6f766572666c6f77000000000000000000000000000060448201526064016104b4565b613d2f826014614661565b83511015613d7f5760405162461bcd60e51b815260206004820152601560248201527f746f416464726573735f6f75744f66426f756e6473000000000000000000000060448201526064016104b4565b5001602001516c01000000000000000000000000900490565b600061045482846146d6565b600082601f830112613db4578081fd5b8135613dc7613dc28261461b565b6145cc565b818152846020838601011115613ddb578283fd5b816020850160208301379081016020019190915292915050565b60006101008284031215610727578081fd5b80516dffffffffffffffffffffffffffff81168114613e2557600080fd5b919050565b600060208284031215613e3b578081fd5b8135610454816147b3565b600060208284031215613e57578081fd5b8151610454816147b3565b60008060408385031215613e74578081fd5b8235613e7f816147b3565b91506020830135613e8f816147b3565b809150509250929050565b600080600060608486031215613eae578081fd5b8335613eb9816147b3565b9250602084013591506040840135613ed0816147b3565b809150509250925092565b60008060208385031215613eed578182fd5b823567ffffffffffffffff80821115613f04578384fd5b818501915085601f830112613f17578384fd5b813581811115613f25578485fd5b8660208260051b8501011115613f39578485fd5b60209290920196919550909350505050565b600060208284031215613f5c578081fd5b81518015158114610454578182fd5b600060208284031215613f7c578081fd5b815167ffffffffffffffff811115613f92578182fd5b8201601f81018413613fa2578182fd5b8051613fb0613dc28261461b565b818152856020838501011115613fc4578384fd5b613fd58260208301602086016146ed565b95945050505050565b60006101008284031215613ff0578081fd5b6104548383613df5565b60006020828403121561400b578081fd5b813567ffffffffffffffff811115614021578182fd5b820160a08185031215610454578182fd5b600060208284031215614043578081fd5b813567ffffffffffffffff8082111561405a578283fd5b908301906040828603121561406d578283fd5b6040516040810181811083821117156140885761408861479d565b604052823582811115614099578485fd5b6140a587828601613da4565b825250602083013592506140b8836147b3565b6020810192909252509392505050565b6000602082840312156140d9578081fd5b813567ffffffffffffffff808211156140f0578283fd5b9083019060a08286031215614103578283fd5b61410b6145a3565b823582811115614119578485fd5b61412587828601613da4565b82525060208301359150614138826147b3565b81602082015260408301356040820152606083013560608201526080830135608082015280935050505092915050565b600060c08284031215610727578081fd5b60008060006060848603121561418d578081fd5b61419684613e07565b92506141a460208501613e07565b9150604084015163ffffffff81168114613ed0578182fd5b6000602082840312156141cd578081fd5b5051919050565b600080604083850312156141e6578182fd5b823591506020830135613e8f816147b3565b6000806040838503121561420a578182fd5b8235915060208084013567ffffffffffffffff80821115614229578384fd5b818601915086601f83011261423c578384fd5b81358181111561424e5761424e61479d565b8060051b915061425f8483016145cc565b8181528481019084860184860187018b1015614279578788fd5b8795505b838610156142a75780359450614292856147b3565b8483526001959095019491860191860161427d565b508096505050505050509250929050565b600080604083850312156142ca578182fd5b505080516020909101519092909150565b600080600080606085870312156142f0578182fd5b8435935060208501359250604085013567ffffffffffffffff80821115614315578384fd5b818701915087601f830112614328578384fd5b813581811115614336578485fd5b886020828501011115614347578485fd5b95989497505060200194505050565b60008060006060848603121561436a578081fd5b505081359360208301359350604090920135919050565b600081518084526143998160208601602086016146ed565b601f017fffffffffffffffffffffffffffffffffffffffffffffffffffffffffffffffe0169290920160200192915050565b8183823760009101908152919050565b600082516143ed8184602087016146ed565b9190910192915050565b6000602080830181845280855180835260408601915060408160051b8701019250838701855b82811015614469577fffffffffffffffffffffffffffffffffffffffffffffffffffffffffffffffc0888603018452614457858351614381565b9450928501929085019060010161441d565b5092979650505050505050565b6020808252825182820181905260009190848201906040850190845b818110156144ae57835183529284019291840191600101614492565b50909695505050505050565b6020815260006104546020830184614381565b6020815260008251604060208401526144e96060840182614381565b90506001600160a01b0360208501511660408401528091505092915050565b8481528360208201526001600160a01b03831660408201526080606082015260006145366080830184614381565b9695505050505050565b60008083357fffffffffffffffffffffffffffffffffffffffffffffffffffffffffffffffe1843603018112614574578283fd5b83018035915067ffffffffffffffff82111561458e578283fd5b60200191503681900382131561299a57600080fd5b60405160a0810167ffffffffffffffff811182821017156145c6576145c661479d565b60405290565b604051601f82017fffffffffffffffffffffffffffffffffffffffffffffffffffffffffffffffe016810167ffffffffffffffff811182821017156146135761461361479d565b604052919050565b600067ffffffffffffffff8211156146355761463561479d565b50601f017fffffffffffffffffffffffffffffffffffffffffffffffffffffffffffffffe01660200190565b6000821982111561467457614674614787565b500190565b60008261469457634e487b7160e01b81526012600452602481fd5b500490565b6000817fffffffffffffffffffffffffffffffffffffffffffffffffffffffffffffffff04831182151516156146d1576146d1614787565b500290565b6000828210156146e8576146e8614787565b500390565b60005b838110156147085781810151838201526020016146f0565b838111156121385750506000910152565b60008161472857614728614787565b507fffffffffffffffffffffffffffffffffffffffffffffffffffffffffffffffff0190565b60007fffffffffffffffffffffffffffffffffffffffffffffffffffffffffffffffff82141561478057614780614787565b5060010190565b634e487b7160e01b600052601160045260246000fd5b634e487b7160e01b600052604160045260246000fd5b6001600160a01b03811681146147c857600080fd5b5056fea264697066735822122057a91eb7147a6b28652212f09b616461ddf8af5082784316755129b4555333b564736f6c63430008040033",
  "immutableReferences": {
    "2460": [
      {
        "length": 32,
        "start": 888
      },
      {
        "length": 32,
        "start": 1066
      },
      {
        "length": 32,
        "start": 1457
      },
      {
        "length": 32,
        "start": 2367
      },
      {
        "length": 32,
        "start": 3360
      },
      {
        "length": 32,
        "start": 3468
      },
      {
        "length": 32,
        "start": 3835
      },
      {
        "length": 32,
        "start": 4069
      },
      {
        "length": 32,
        "start": 4725
      },
      {
        "length": 32,
        "start": 5691
      },
      {
        "length": 32,
        "start": 5829
      },
      {
        "length": 32,
        "start": 6394
      },
      {
        "length": 32,
        "start": 6642
      },
      {
        "length": 32,
        "start": 6926
      },
      {
        "length": 32,
        "start": 7397
      },
      {
        "length": 32,
        "start": 7770
      },
      {
        "length": 32,
        "start": 8214
      },
      {
        "length": 32,
        "start": 9231
      },
      {
        "length": 32,
        "start": 10667
      },
      {
        "length": 32,
        "start": 13494
      }
    ],
    "2464": [
      {
        "length": 32,
        "start": 529
      },
      {
        "length": 32,
        "start": 1886
      },
      {
        "length": 32,
        "start": 2157
      },
      {
        "length": 32,
        "start": 12069
      },
      {
        "length": 32,
        "start": 12142
      },
      {
        "length": 32,
        "start": 12316
      }
    ],
    "2468": [
      {
        "length": 32,
        "start": 940
      },
      {
        "length": 32,
        "start": 3615
      },
      {
        "length": 32,
        "start": 3676
      },
      {
        "length": 32,
        "start": 3790
      },
      {
        "length": 32,
        "start": 4029
      },
      {
        "length": 32,
        "start": 4479
      },
      {
        "length": 32,
        "start": 4556
      },
      {
        "length": 32,
        "start": 4820
      },
      {
        "length": 32,
        "start": 5068
      },
      {
        "length": 32,
        "start": 5399
      },
      {
        "length": 32,
        "start": 5548
      },
      {
        "length": 32,
        "start": 5582
      },
      {
        "length": 32,
        "start": 6153
      },
      {
        "length": 32,
        "start": 6226
      },
      {
        "length": 32,
        "start": 6506
      },
      {
        "length": 32,
        "start": 6757
      },
      {
        "length": 32,
        "start": 6978
      },
      {
        "length": 32,
        "start": 7021
      },
      {
        "length": 32,
        "start": 7086
      },
      {
        "length": 32,
        "start": 7140
      },
      {
        "length": 32,
        "start": 7454
      },
      {
        "length": 32,
        "start": 7535
      },
      {
        "length": 32,
        "start": 11100
      },
      {
        "length": 32,
        "start": 11161
      },
      {
        "length": 32,
        "start": 11254
      },
      {
        "length": 32,
        "start": 11380
      },
      {
        "length": 32,
        "start": 11705
      }
    ]
  },
  "source": "// SPDX-License-Identifier: Unlicensed\npragma solidity =0.8.4;\npragma abicoder v2;\n\nimport \"./router/SwapRouter.sol\";\nimport \"./router/LiquidityRouter.sol\";\nimport \"./abstract/PeripheryImmutableState.sol\";\n\ncontract PocketSwapRouter is\nPeripheryImmutableState,\nPeripheryValidation,\nSwapRouter,\nLiquidityRouter\n{\n    constructor(address _factory, address _WETH9, address _pocketToken)\n    PeripheryImmutableState(_factory, _WETH9, _pocketToken) {}\n}",
  "sourcePath": "/Users/ilyk/projects/midgardtech/xpocket-PocketSwap/contracts/pocketswap/PocketSwapRouter.sol",
  "compiler": {
    "name": "solc",
    "version": "0.8.4+commit.c7e474f2.Emscripten.clang"
  },
  "schemaVersion": "3.4.0",
  "updatedAt": "2021-05-17T05:28:40.711Z",
  "devdoc": {
    "kind": "dev",
    "methods": {
      "exactOutput((bytes,address,uint256,uint256,uint256))": {
        "params": {
          "params": "The parameters necessary for the multi-hop swap, encoded as `OutputParams` in calldata"
        },
        "returns": {
          "amountIn": "The amount of the input token"
        }
      },
      "exactOutputSingle((address,address,uint24,address,uint256,uint256,uint256,uint160))": {
        "params": {
          "params": "The parameters necessary for the swap, encoded as `OutputSingleParams` in calldata"
        },
        "returns": {
          "amountIn": "The amount of the input token"
        }
      },
      "multicall(bytes[])": {
        "details": "The `msg.value` should not be trusted for any method callable from multicall.",
        "params": {
          "data": "The encoded function data for each of the calls to make to this contract"
        },
        "returns": {
          "results": "The results from each of the calls passed in via data"
        }
      },
      "swap((address,address,address,uint256,uint256,uint256))": {
        "params": {
          "params": "The parameters necessary for the swap, encoded as `SwapParams` in calldata"
        },
        "returns": {
          "amountOut": "The amount of the received token"
        }
      },
      "swapMulti((bytes,address,uint256,uint256,uint256))": {
        "params": {
          "params": "The parameters necessary for the multi-hop swap, encoded as `SwapMultiParams` in calldata"
        },
        "returns": {
          "amountOut": "The amount of the received token"
        }
      },
      "sweepToken(address,uint256,address)": {
        "details": "The amountMinimum parameter prevents malicious contracts from stealing the token from users",
        "params": {
          "amountMinimum": "The minimum amount of token required for a transfer",
          "recipient": "The destination address of the token",
          "token": "The contract address of the token which will be transferred to `recipient`"
        }
      },
      "unwrapWETH9(uint256,address)": {
        "details": "The amountMinimum parameter prevents malicious contracts from stealing WETH9 from users.",
        "params": {
          "amountMinimum": "The minimum amount of WETH9 to unwrap",
          "recipient": "The address receiving ETH"
        }
      }
    },
    "version": 1
  },
  "userdoc": {
    "kind": "user",
    "methods": {
      "exactOutput((bytes,address,uint256,uint256,uint256))": {
        "notice": "Swaps as little as possible of one token for `amountOut` of another along the specified path (reversed)"
      },
      "exactOutputSingle((address,address,uint24,address,uint256,uint256,uint256,uint160))": {
        "notice": "Swaps as little as possible of one token for `amountOut` of another token"
      },
      "multicall(bytes[])": {
        "notice": "Call multiple functions in the current contract and return the data from all of them if they all succeed"
      },
      "swap((address,address,address,uint256,uint256,uint256))": {
        "notice": "Swaps `amountIn` of one token for as much as possible of another token"
      },
      "swapMulti((bytes,address,uint256,uint256,uint256))": {
        "notice": "Swaps `amountIn` of one token for as much as possible of another along the specified path"
      },
      "sweepToken(address,uint256,address)": {
        "notice": "Sends the full amount of a token held by this contract to the given recipient"
      },
      "unwrapWETH9(uint256,address)": {
        "notice": "Unwraps the contract's WETH9 balance and sends it to recipient as ETH."
      }
    },
    "version": 1
  }
}