{
  "contractName": "PocketSwap",
  "abi": [
    {
      "inputs": [
        {
          "internalType": "address",
          "name": "router_",
          "type": "address"
        },
        {
          "internalType": "address",
          "name": "factory_",
          "type": "address"
        },
        {
          "internalType": "address",
          "name": "pocket_",
          "type": "address"
        },
        {
          "internalType": "address",
          "name": "WETH9_",
          "type": "address"
        }
      ],
      "stateMutability": "nonpayable",
      "type": "constructor"
    },
    {
      "inputs": [],
      "name": "WETH9",
      "outputs": [
        {
          "internalType": "address",
          "name": "",
          "type": "address"
        }
      ],
      "stateMutability": "view",
      "type": "function"
    },
    {
      "inputs": [],
      "name": "_owner",
      "outputs": [
        {
          "internalType": "address",
          "name": "",
          "type": "address"
        }
      ],
      "stateMutability": "view",
      "type": "function"
    },
    {
      "inputs": [],
      "name": "factory",
      "outputs": [
        {
          "internalType": "address",
          "name": "",
          "type": "address"
        }
      ],
      "stateMutability": "view",
      "type": "function"
    },
    {
      "inputs": [],
      "name": "pocket",
      "outputs": [
        {
          "internalType": "address",
          "name": "",
          "type": "address"
        }
      ],
      "stateMutability": "view",
      "type": "function"
    },
    {
      "inputs": [],
      "name": "router",
      "outputs": [
        {
          "internalType": "address",
          "name": "",
          "type": "address"
        }
      ],
      "stateMutability": "view",
      "type": "function"
    },
    {
      "inputs": [
        {
          "internalType": "address",
          "name": "token",
          "type": "address"
        },
        {
          "internalType": "uint256",
          "name": "amountMinimum",
          "type": "uint256"
        },
        {
          "internalType": "address",
          "name": "recipient",
          "type": "address"
        }
      ],
      "name": "sweepToken",
      "outputs": [],
      "stateMutability": "payable",
      "type": "function"
    },
    {
      "inputs": [
        {
          "internalType": "uint256",
          "name": "amountMinimum",
          "type": "uint256"
        },
        {
          "internalType": "address",
          "name": "recipient",
          "type": "address"
        }
      ],
      "name": "unwrapWETH9",
      "outputs": [],
      "stateMutability": "payable",
      "type": "function"
    },
    {
      "inputs": [],
      "name": "owner",
      "outputs": [
        {
          "internalType": "address",
          "name": "",
          "type": "address"
        }
      ],
      "stateMutability": "view",
      "type": "function"
    },
    {
      "inputs": [
        {
          "components": [
            {
              "internalType": "address",
              "name": "tokenIn",
              "type": "address"
            },
            {
              "internalType": "address",
              "name": "tokenOut",
              "type": "address"
            },
            {
              "internalType": "address",
              "name": "recipient",
              "type": "address"
            },
            {
              "internalType": "uint256",
              "name": "deadline",
              "type": "uint256"
            },
            {
              "internalType": "uint256",
              "name": "amountIn",
              "type": "uint256"
            },
            {
              "internalType": "uint256",
              "name": "amountOutMinimum",
              "type": "uint256"
            }
          ],
          "internalType": "struct IPocketSwapRouter.SwapParams",
          "name": "params",
          "type": "tuple"
        }
      ],
      "name": "swap",
      "outputs": [],
      "stateMutability": "payable",
      "type": "function"
    },
    {
      "inputs": [
        {
          "components": [
            {
              "internalType": "address",
              "name": "token0",
              "type": "address"
            },
            {
              "internalType": "address",
              "name": "token1",
              "type": "address"
            },
            {
              "internalType": "address",
              "name": "recipient",
              "type": "address"
            },
            {
              "internalType": "uint256",
              "name": "amount0Desired",
              "type": "uint256"
            },
            {
              "internalType": "uint256",
              "name": "amount1Desired",
              "type": "uint256"
            },
            {
              "internalType": "uint256",
              "name": "amount0Min",
              "type": "uint256"
            },
            {
              "internalType": "uint256",
              "name": "amount1Min",
              "type": "uint256"
            },
            {
              "internalType": "uint256",
              "name": "deadline",
              "type": "uint256"
            }
          ],
          "internalType": "struct IPocketSwapLiquidityRouter.AddLiquidityParams",
          "name": "params",
          "type": "tuple"
        }
      ],
      "name": "addLiquidity",
      "outputs": [],
      "stateMutability": "payable",
      "type": "function"
    },
    {
      "inputs": [
        {
          "components": [
            {
              "internalType": "address",
              "name": "tokenA",
              "type": "address"
            },
            {
              "internalType": "address",
              "name": "tokenB",
              "type": "address"
            },
            {
              "internalType": "uint256",
              "name": "liquidity",
              "type": "uint256"
            },
            {
              "internalType": "uint256",
              "name": "amountAMin",
              "type": "uint256"
            },
            {
              "internalType": "uint256",
              "name": "amountBMin",
              "type": "uint256"
            },
            {
              "internalType": "address",
              "name": "rewards",
              "type": "address"
            },
            {
              "internalType": "address",
              "name": "recipient",
              "type": "address"
            },
            {
              "internalType": "uint256",
              "name": "deadline",
              "type": "uint256"
            }
          ],
          "internalType": "struct IPocketSwapLiquidityRouter.RemoveLiquidityParams",
          "name": "params",
          "type": "tuple"
        }
      ],
      "name": "removeLiquidity",
      "outputs": [],
      "stateMutability": "nonpayable",
      "type": "function"
    },
    {
      "inputs": [
        {
          "internalType": "uint256",
          "name": "amountOut",
          "type": "uint256"
        },
        {
          "internalType": "address[]",
          "name": "path",
          "type": "address[]"
        }
      ],
      "name": "getAmountsIn",
      "outputs": [
        {
          "internalType": "uint256[]",
          "name": "",
          "type": "uint256[]"
        }
      ],
      "stateMutability": "view",
      "type": "function"
    },
    {
      "inputs": [
        {
          "internalType": "uint256",
          "name": "amountIn",
          "type": "uint256"
        },
        {
          "internalType": "address[]",
          "name": "path",
          "type": "address[]"
        }
      ],
      "name": "getAmountsOut",
      "outputs": [
        {
          "internalType": "uint256[]",
          "name": "",
          "type": "uint256[]"
        }
      ],
      "stateMutability": "view",
      "type": "function"
    }
  ],
  "bytecode": "0x60e06040523480156200001157600080fd5b50604051620051ec380380620051ec8339810160408190526200003491620000a7565b6001600160601b0319606093841b811660805290831b811660a052911b1660c052600080546001600160a01b03199081163317909155600180546001600160a01b03939093169290911691909117905562000103565b80516001600160a01b0381168114620000a257600080fd5b919050565b60008060008060808587031215620000bd578384fd5b620000c8856200008a565b9350620000d8602086016200008a565b9250620000e8604086016200008a565b9150620000f8606086016200008a565b905092959194509250565b60805160601c60a05160601c60c05160601c61507862000174600039600061025f015260008181610147015281816105a6015281816106dc01528181610e5e01528181610ec10152610f8901526000818161022b01528181610763015281816108b201526109df01526150786000f3fe6080604052600436106100d25760003560e01c80638da5cb5b1161007f578063cccef9e211610059578063cccef9e21461024d578063d06ca61f14610281578063df2ab5bb146102a1578063f887ea40146102b457600080fd5b80638da5cb5b146101c1578063b2bdfa7b146101ec578063c45a01551461021957600080fd5b80634aa4a4fc116100b05780634aa4a4fc146101355780636385a2711461018e5780638d4d72e5146101ae57600080fd5b80631f00ca74146100d7578063441a12de1461010d57806349404b7c14610122575b600080fd5b3480156100e357600080fd5b506100f76100f236600461190b565b6102e1565b6040516101049190611a76565b60405180910390f35b61012061011b3660046118b3565b6103b3565b005b6101206101303660046118dc565b610575565b34801561014157600080fd5b506101697f000000000000000000000000000000000000000000000000000000000000000081565b60405173ffffffffffffffffffffffffffffffffffffffff9091168152602001610104565b34801561019a57600080fd5b506101206101a9366004611897565b61075c565b6101206101bc366004611897565b6108ae565b3480156101cd57600080fd5b5060005473ffffffffffffffffffffffffffffffffffffffff16610169565b3480156101f857600080fd5b506000546101699073ffffffffffffffffffffffffffffffffffffffff1681565b34801561022557600080fd5b506101697f000000000000000000000000000000000000000000000000000000000000000081565b34801561025957600080fd5b506101697f000000000000000000000000000000000000000000000000000000000000000081565b34801561028d57600080fd5b506100f761029c36600461190b565b610cde565b6101206102af366004611799565b610d37565b3480156102c057600080fd5b506001546101699073ffffffffffffffffffffffffffffffffffffffff1681565b6001546040517f1f00ca7400000000000000000000000000000000000000000000000000000000815260609173ffffffffffffffffffffffffffffffffffffffff1690631f00ca749061033a9086908690600401611cc6565b60006040518083038186803b15801561035257600080fd5b505afa158015610366573d6000803e3d6000fd5b505050506040513d6000823e601f3d9081017fffffffffffffffffffffffffffffffffffffffffffffffffffffffffffffffe01682016040526103ac91908101906117da565b9392505050565b6103cf6103c36020830183611761565b33308460800135610e5a565b6104026103df6020830183611761565b60015473ffffffffffffffffffffffffffffffffffffffff166080840135611050565b6001546040517f441a12de00000000000000000000000000000000000000000000000000000000815273ffffffffffffffffffffffffffffffffffffffff9091169063441a12de90610458908490600401611c49565b602060405180830381600087803b15801561047257600080fd5b505af19250505080156104c0575060408051601f3d9081017fffffffffffffffffffffffffffffffffffffffffffffffffffffffffffffffe01682019092526104bd918101906118c4565b60015b610570576104cc611df3565b806308c379a0141561056457506104e1611e0b565b806104ec5750610566565b806040516020016104fd9190611a31565b604080517fffffffffffffffffffffffffffffffffffffffffffffffffffffffffffffffe0818403018152908290527f08c379a000000000000000000000000000000000000000000000000000000000825261055b91600401611aba565b60405180910390fd5b505b3d6000803e3d6000fd5b505b50565b6040517f70a082310000000000000000000000000000000000000000000000000000000081523060048201526000907f000000000000000000000000000000000000000000000000000000000000000073ffffffffffffffffffffffffffffffffffffffff16906370a082319060240160206040518083038186803b1580156105fd57600080fd5b505afa158015610611573d6000803e3d6000fd5b505050506040513d601f19601f8201168201806040525081019061063591906118c4565b905082156106a757828110156106a7576040517f08c379a000000000000000000000000000000000000000000000000000000000815260206004820152601260248201527f496e73756666696369656e742057455448390000000000000000000000000000604482015260640161055b565b8015610757576040517f2e1a7d4d000000000000000000000000000000000000000000000000000000008152600481018290527f000000000000000000000000000000000000000000000000000000000000000073ffffffffffffffffffffffffffffffffffffffff1690632e1a7d4d90602401600060405180830381600087803b15801561073557600080fd5b505af1158015610749573d6000803e3d6000fd5b50505050610757828261105b565b505050565b60006107a47f000000000000000000000000000000000000000000000000000000000000000061078f6020850185611761565b61079f6040860160208701611761565b61113f565b90506107b68133308560400135610e5a565b6001546107df90829073ffffffffffffffffffffffffffffffffffffffff166040850135611050565b6001546040517f6385a27100000000000000000000000000000000000000000000000000000000815273ffffffffffffffffffffffffffffffffffffffff90911690636385a27190610835908590600401611b9d565b6040805180830381600087803b15801561084e57600080fd5b505af192505050801561089c575060408051601f3d9081017fffffffffffffffffffffffffffffffffffffffffffffffffffffffffffffffe0168201909252610899918101906119bd565b60015b6108a8576104cc611df3565b50505050565b60007f000000000000000000000000000000000000000000000000000000000000000073ffffffffffffffffffffffffffffffffffffffff1663e6a439056108f96020850185611761565b6109096040860160208701611761565b6040517fffffffff0000000000000000000000000000000000000000000000000000000060e085901b16815273ffffffffffffffffffffffffffffffffffffffff92831660048201529116602482015260440160206040518083038186803b15801561097457600080fd5b505afa158015610988573d6000803e3d6000fd5b505050506040513d601f19601f820116820180604052508101906109ac919061177d565b73ffffffffffffffffffffffffffffffffffffffff161415610ac85773ffffffffffffffffffffffffffffffffffffffff7f00000000000000000000000000000000000000000000000000000000000000001663c9c65396610a116020840184611761565b610a216040850160208601611761565b6040517fffffffff0000000000000000000000000000000000000000000000000000000060e085901b16815273ffffffffffffffffffffffffffffffffffffffff928316600482015291166024820152604401602060405180830381600087803b158015610a8e57600080fd5b505af1158015610aa2573d6000803e3d6000fd5b505050506040513d601f19601f82011682018060405250810190610ac6919061177d565b505b6001546040517f68bc7e08000000000000000000000000000000000000000000000000000000008152600091829173ffffffffffffffffffffffffffffffffffffffff909116906368bc7e0890610b23908690600401611b0b565b604080518083038186803b158015610b3a57600080fd5b505afa158015610b4e573d6000803e3d6000fd5b505050506040513d601f19601f82011682018060405250810190610b7291906119bd565b9092509050610b8f610b876020850185611761565b333085610e5a565b610bbe610b9f6020850185611761565b60015473ffffffffffffffffffffffffffffffffffffffff1684611050565b610bd9610bd16040850160208601611761565b333084610e5a565b610c0b610bec6040850160208601611761565b60015473ffffffffffffffffffffffffffffffffffffffff1683611050565b6001546040517f8d4d72e500000000000000000000000000000000000000000000000000000000815273ffffffffffffffffffffffffffffffffffffffff90911690638d4d72e590610c61908690600401611b0b565b608060405180830381600087803b158015610c7b57600080fd5b505af1925050508015610cc9575060408051601f3d9081017fffffffffffffffffffffffffffffffffffffffffffffffffffffffffffffffe0168201909252610cc6918101906119e0565b60015b610cd5576104cc611df3565b50505050505050565b6001546040517fd06ca61f00000000000000000000000000000000000000000000000000000000815260609173ffffffffffffffffffffffffffffffffffffffff169063d06ca61f9061033a9086908690600401611cc6565b6040517f70a0823100000000000000000000000000000000000000000000000000000000815230600482015260009073ffffffffffffffffffffffffffffffffffffffff8516906370a082319060240160206040518083038186803b158015610d9f57600080fd5b505afa158015610db3573d6000803e3d6000fd5b505050506040513d601f19601f82011682018060405250810190610dd791906118c4565b90508215610e495782811015610e49576040517f08c379a000000000000000000000000000000000000000000000000000000000815260206004820152601260248201527f496e73756666696369656e7420746f6b656e0000000000000000000000000000604482015260640161055b565b80156108a8576108a88483836112e1565b60007f000000000000000000000000000000000000000000000000000000000000000073ffffffffffffffffffffffffffffffffffffffff168573ffffffffffffffffffffffffffffffffffffffff16148015610eba5750814791508110155b1561100f577f000000000000000000000000000000000000000000000000000000000000000073ffffffffffffffffffffffffffffffffffffffff1663d0e30db0826040518263ffffffff1660e01b81526004016000604051808303818588803b158015610f2757600080fd5b505af1158015610f3b573d6000803e3d6000fd5b50506040517fa9059cbb00000000000000000000000000000000000000000000000000000000815273ffffffffffffffffffffffffffffffffffffffff8781166004830152602482018790527f000000000000000000000000000000000000000000000000000000000000000016935063a9059cbb92506044019050602060405180830381600087803b158015610fd157600080fd5b505af1158015610fe5573d6000803e3d6000fd5b505050506040513d601f19601f820116820180604052508101906110099190611877565b50611049565b73ffffffffffffffffffffffffffffffffffffffff841630141561103d576110388584846112e1565b611049565b6110498585858561144a565b5050505050565b6107578383836115c3565b6040805160008082526020820190925273ffffffffffffffffffffffffffffffffffffffff84169083906040516110929190611a15565b60006040518083038185875af1925050503d80600081146110cf576040519150601f19603f3d011682016040523d82523d6000602084013e6110d4565b606091505b5050905080610757576040517f08c379a000000000000000000000000000000000000000000000000000000000815260206004820152600360248201527f5354450000000000000000000000000000000000000000000000000000000000604482015260640161055b565b60008173ffffffffffffffffffffffffffffffffffffffff168373ffffffffffffffffffffffffffffffffffffffff161115611179579091905b6040517fffffffffffffffffffffffffffffffffffffffff000000000000000000000000606085811b8216602084015284901b166034820152849060480160405160208183030381529060405280519060200120604051806020016111dd9061172c565b7fffffffffffffffffffffffffffffffffffffffffffffffffffffffffffffffe082820381018352601f90910116604081905261121d9190602001611a15565b604051602081830303815290604052805190602001206040516020016112a3939291907fff00000000000000000000000000000000000000000000000000000000000000815260609390931b7fffffffffffffffffffffffffffffffffffffffff0000000000000000000000001660018401526015830191909152603582015260550190565b604080517fffffffffffffffffffffffffffffffffffffffffffffffffffffffffffffffe08184030181529190528051602090910120949350505050565b6040805173ffffffffffffffffffffffffffffffffffffffff8481166024830152604480830185905283518084039091018152606490920183526020820180517bffffffffffffffffffffffffffffffffffffffffffffffffffffffff167fa9059cbb0000000000000000000000000000000000000000000000000000000017905291516000928392908716916113789190611a15565b6000604051808303816000865af19150503d80600081146113b5576040519150601f19603f3d011682016040523d82523d6000602084013e6113ba565b606091505b50915091508180156113e45750805115806113e45750808060200190518101906113e49190611877565b611049576040517f08c379a000000000000000000000000000000000000000000000000000000000815260206004820152600260248201527f5354000000000000000000000000000000000000000000000000000000000000604482015260640161055b565b6040805173ffffffffffffffffffffffffffffffffffffffff85811660248301528481166044830152606480830185905283518084039091018152608490920183526020820180517bffffffffffffffffffffffffffffffffffffffffffffffffffffffff167f23b872dd0000000000000000000000000000000000000000000000000000000017905291516000928392908816916114e99190611a15565b6000604051808303816000865af19150503d8060008114611526576040519150601f19603f3d011682016040523d82523d6000602084013e61152b565b606091505b50915091508180156115555750805115806115555750808060200190518101906115559190611877565b6115bb576040517f08c379a000000000000000000000000000000000000000000000000000000000815260206004820152600360248201527f5354460000000000000000000000000000000000000000000000000000000000604482015260640161055b565b505050505050565b6040805173ffffffffffffffffffffffffffffffffffffffff8481166024830152604480830185905283518084039091018152606490920183526020820180517bffffffffffffffffffffffffffffffffffffffffffffffffffffffff167f095ea7b300000000000000000000000000000000000000000000000000000000179052915160009283929087169161165a9190611a15565b6000604051808303816000865af19150503d8060008114611697576040519150601f19603f3d011682016040523d82523d6000602084013e61169c565b606091505b50915091508180156116c65750805115806116c65750808060200190518101906116c69190611877565b611049576040517f08c379a000000000000000000000000000000000000000000000000000000000815260206004820152600260248201527f5341000000000000000000000000000000000000000000000000000000000000604482015260640161055b565b61316d80611ed683390190565b803561174481611eb3565b919050565b6000610100828403121561175b578081fd5b50919050565b600060208284031215611772578081fd5b81356103ac81611eb3565b60006020828403121561178e578081fd5b81516103ac81611eb3565b6000806000606084860312156117ad578182fd5b83356117b881611eb3565b92506020840135915060408401356117cf81611eb3565b809150509250925092565b600060208083850312156117ec578182fd5b825167ffffffffffffffff811115611802578283fd5b8301601f81018513611812578283fd5b805161181d81611d29565b60405161182a8282611d79565b8281528481019150838501600584901b85018601891015611849578687fd5b8694505b8385101561186b57805183526001949094019391850191850161184d565b50979650505050505050565b600060208284031215611888578081fd5b815180151581146103ac578182fd5b600061010082840312156118a9578081fd5b6103ac8383611749565b600060c0828403121561175b578081fd5b6000602082840312156118d5578081fd5b5051919050565b600080604083850312156118ee578182fd5b82359150602083013561190081611eb3565b809150509250929050565b6000806040838503121561191d578182fd5b8235915060208084013567ffffffffffffffff81111561193b578283fd5b8401601f8101861361194b578283fd5b803561195681611d29565b6040516119638282611d79565b8281528481019150838501600584901b850186018a1015611982578687fd5b8694505b838510156119ad57803561199981611eb3565b835260019490940193918501918501611986565b5080955050505050509250929050565b600080604083850312156119cf578182fd5b505080516020909101519092909150565b600080600080608085870312156119f5578081fd5b505082516020840151604085015160609095015191969095509092509050565b60008251611a27818460208701611d4d565b9190910192915050565b7f4e4f4b3a20000000000000000000000000000000000000000000000000000000815260008251611a69816005850160208701611d4d565b9190910160050192915050565b6020808252825182820181905260009190848201906040850190845b81811015611aae57835183529284019291840191600101611a92565b50909695505050505050565b6020815260008251806020840152611ad9816040850160208701611d4d565b601f017fffffffffffffffffffffffffffffffffffffffffffffffffffffffffffffffe0169190910160400192915050565b61010081018235611b1b81611eb3565b73ffffffffffffffffffffffffffffffffffffffff9081168352602084013590611b4482611eb3565b9081166020840152604084013590611b5b82611eb3565b80821660408501525050606083013560608301526080830135608083015260a083013560a083015260c083013560c083015260e083013560e083015292915050565b61010081018235611bad81611eb3565b73ffffffffffffffffffffffffffffffffffffffff9081168352602084013590611bd682611eb3565b808216602085015260408501356040850152606085013560608501526080850135608085015260a08501359150611c0c82611eb3565b1660a0830152611c1e60c08401611739565b73ffffffffffffffffffffffffffffffffffffffff811660c08401525060e092830135919092015290565b60c081018235611c5881611eb3565b73ffffffffffffffffffffffffffffffffffffffff9081168352602084013590611c8182611eb3565b9081166020840152604084013590611c9882611eb3565b80821660408501525050606083013560608301526080830135608083015260a083013560a083015292915050565b60006040820184835260206040818501528185518084526060860191508287019350845b81811015611d1c57845173ffffffffffffffffffffffffffffffffffffffff1683529383019391830191600101611cea565b5090979650505050505050565b600067ffffffffffffffff821115611d4357611d43611dc4565b5060051b60200190565b60005b83811015611d68578181015183820152602001611d50565b838111156108a85750506000910152565b7fffffffffffffffffffffffffffffffffffffffffffffffffffffffffffffffe0601f830116810181811067ffffffffffffffff82111715611dbd57611dbd611dc4565b6040525050565b7f4e487b7100000000000000000000000000000000000000000000000000000000600052604160045260246000fd5b600060033d1115611e0857600481823e5160e01c5b90565b600060443d1015611e195790565b6040517ffffffffffffffffffffffffffffffffffffffffffffffffffffffffffffffffc803d016004833e81513d67ffffffffffffffff8160248401118184111715611e6757505050505090565b8285019150815181811115611e7f5750505050505090565b843d8701016020828501011115611e995750505050505090565b611ea860208286010187611d79565b509095945050505050565b73ffffffffffffffffffffffffffffffffffffffff8116811461057257600080fdfe60806040526001600b5534801561001557600080fd5b50604080518082018252600a8152690506f636b6574537761760b41b6020918201528151808301835260018152603160f81b9082015281517f8b73c3c69bb8fe3d512ecc4cf759cc79239f7b179b0ffacaa9a75d522b39400f818301527f139f1c71b7c3168b7aeac519a0d6ee819b7e7428c66952642d99299cb2a31352818401527fc89efdaa54c0f20c7adf612882df0950f5a951637e0307cdcb4c672f298b8bc660608201524660808201523060a0808301919091528351808303909101815260c09091019092528151910120600355600580546001600160a01b03191633179055613065806101086000396000f3fe608060405234801561001057600080fd5b50600436106101ae5760003560e01c80636a627842116100ee578063ba9a7a5611610097578063d21220a711610071578063d21220a714610487578063d505accf146104a7578063dd62ed3e146104ba578063fff6cae9146104e557600080fd5b8063ba9a7a561461044b578063bc25cf7714610454578063c45a01551461046757600080fd5b806389afcb44116100c857806389afcb44146103d457806395d89b41146103fc578063a9059cbb1461043857600080fd5b80636a6278421461038157806370a08231146103945780637ecebe00146103b457600080fd5b806323b872dd1161015b5780633644e515116101355780633644e51514610353578063485cc9551461035c5780635909c0d51461036f5780635a3d54931461037857600080fd5b806323b872dd146102ff57806330adf81f14610312578063313ce5671461033957600080fd5b8063095ea7b31161018c578063095ea7b3146102805780630dfe1681146102a357806318160ddd146102e857600080fd5b8063022c0d9f146101b357806306fdde03146101c85780630902f1ac1461021a575b600080fd5b6101c66101c1366004612b1d565b6104ed565b005b6102046040518060400160405280600a81526020017f506f636b6574537761700000000000000000000000000000000000000000000081525081565b6040516102119190612c52565b60405180910390f35b600a54604080516dffffffffffffffffffffffffffff80841682526e01000000000000000000000000000084041660208201527c010000000000000000000000000000000000000000000000000000000090920463ffffffff1690820152606001610211565b61029361028e366004612abc565b610f2d565b6040519015158152602001610211565b6006546102c39073ffffffffffffffffffffffffffffffffffffffff1681565b60405173ffffffffffffffffffffffffffffffffffffffff9091168152602001610211565b6102f160005481565b604051908152602001610211565b61029361030d366004612a10565b610f43565b6102f17f6e71edae12b1b97f4d1f60370fef10105fa2faae0126114a169c64845d6126c981565b610341601281565b60405160ff9091168152602001610211565b6102f160035481565b6101c661036a3660046129de565b61101c565b6102f160085481565b6102f160095481565b6102f161038f3660046129c4565b6110f0565b6102f16103a23660046129c4565b60016020526000908152604090205481565b6102f16103c23660046129c4565b60046020526000908152604090205481565b6103e76103e23660046129c4565b611499565b60408051928352602083019190915201610211565b6102046040518060400160405280600781526020017f50532d504149520000000000000000000000000000000000000000000000000081525081565b610293610446366004612abc565b611943565b6102f16103e881565b6101c66104623660046129c4565b611950565b6005546102c39073ffffffffffffffffffffffffffffffffffffffff1681565b6007546102c39073ffffffffffffffffffffffffffffffffffffffff1681565b6101c66104b5366004612a4b565b611b22565b6102f16104c83660046129de565b600260209081526000928352604080842090915290825290205481565b6101c6611e0d565b600b5460011461055e576040517f08c379a000000000000000000000000000000000000000000000000000000000815260206004820152601260248201527f506f636b6574537761703a204c4f434b4544000000000000000000000000000060448201526064015b60405180910390fd5b6000600b55841515806105715750600084115b6105fd576040517f08c379a000000000000000000000000000000000000000000000000000000000815260206004820152602660248201527f506f636b6574537761703a20494e53554646494349454e545f4f55545055545f60448201527f414d4f554e5400000000000000000000000000000000000000000000000000006064820152608401610555565b600080610659600a546dffffffffffffffffffffffffffff808216926e01000000000000000000000000000083049091169163ffffffff7c01000000000000000000000000000000000000000000000000000000009091041690565b5091509150816dffffffffffffffffffffffffffff168710801561068c5750806dffffffffffffffffffffffffffff1686105b610718576040517f08c379a000000000000000000000000000000000000000000000000000000000815260206004820152602260248201527f506f636b6574537761703a20494e53554646494349454e545f4c49515549444960448201527f54590000000000000000000000000000000000000000000000000000000000006064820152608401610555565b600654600754600091829173ffffffffffffffffffffffffffffffffffffffff91821691908116908916821480159061077d57508073ffffffffffffffffffffffffffffffffffffffff168973ffffffffffffffffffffffffffffffffffffffff1614155b6107e3576040517f08c379a000000000000000000000000000000000000000000000000000000000815260206004820152601660248201527f506f636b6574537761703a20494e56414c49445f544f000000000000000000006044820152606401610555565b8a156107f4576107f4828a8d611ff7565b891561080557610805818a8c611ff7565b6040517f70a0823100000000000000000000000000000000000000000000000000000000815230600482015273ffffffffffffffffffffffffffffffffffffffff8316906370a082319060240160206040518083038186803b15801561086a57600080fd5b505afa15801561087e573d6000803e3d6000fd5b505050506040513d601f19601f820116820180604052508101906108a29190612b05565b6040517f70a0823100000000000000000000000000000000000000000000000000000000815230600482015290945073ffffffffffffffffffffffffffffffffffffffff8216906370a082319060240160206040518083038186803b15801561090a57600080fd5b505afa15801561091e573d6000803e3d6000fd5b505050506040513d601f19601f820116820180604052508101906109429190612b05565b92505050600089856dffffffffffffffffffffffffffff166109649190612de6565b8311610971576000610995565b61098b8a6dffffffffffffffffffffffffffff8716612de6565b6109959084612de6565b905060006109b38a6dffffffffffffffffffffffffffff8716612de6565b83116109c05760006109e4565b6109da8a6dffffffffffffffffffffffffffff8716612de6565b6109e49084612de6565b905060008211806109f55750600081115b610a81576040517f08c379a000000000000000000000000000000000000000000000000000000000815260206004820152602560248201527f506f636b6574537761703a20494e53554646494349454e545f494e5055545f4160448201527f4d4f554e540000000000000000000000000000000000000000000000000000006064820152608401610555565b600554604080517fddca3f43000000000000000000000000000000000000000000000000000000008152905160009273ffffffffffffffffffffffffffffffffffffffff169163ddca3f43916004808301926020929190829003018186803b158015610aec57600080fd5b505afa158015610b00573d6000803e3d6000fd5b505050506040513d601f19601f82011682018060405250810190610b249190612b05565b90506000610b49610b358584612197565b610b4388633b9aca00612197565b906121aa565b90506000610b5a610b358585612197565b9050610b8b670de0b6b3a7640000610b856dffffffffffffffffffffffffffff8c8116908c16612197565b90612197565b610b958383612197565b1015610bfd576040517f08c379a000000000000000000000000000000000000000000000000000000000815260206004820152600d60248201527f506f636b6574537761703a204b000000000000000000000000000000000000006044820152606401610555565b505087159050610ead57600554604080517f46870d2b000000000000000000000000000000000000000000000000000000008152905160009273ffffffffffffffffffffffffffffffffffffffff16916346870d2b916004808301926020929190829003018186803b158015610c7257600080fd5b505afa158015610c86573d6000803e3d6000fd5b505050506040513d601f19601f82011682018060405250810190610caa9190612b05565b600654909150610ce99073ffffffffffffffffffffffffffffffffffffffff1633633b9aca00610cda858a612da9565b610ce49190612d51565b6121b6565b600754610d169073ffffffffffffffffffffffffffffffffffffffff1633633b9aca00610cda8589612da9565b6040517f7936cd900000000000000000000000000000000000000000000000000000000081523390637936cd9090610d58908f908f908e908e90600401612ca3565b600060405180830381600087803b158015610d7257600080fd5b505af1925050508015610d83575060015b610e6157610d8f612f6f565b806308c379a01415610e1e5750610da4612f87565b80610daf5750610e20565b80604051602001610dc09190612c0d565b604080517fffffffffffffffffffffffffffffffffffffffffffffffffffffffffffffffe0818403018152908290527f08c379a000000000000000000000000000000000000000000000000000000000825261055591600401612c52565b505b3d808015610e4a576040519150601f19603f3d011682016040523d82523d6000602084013e610e4f565b606091505b5080604051602001610dc09190612bc8565b600654610e869073ffffffffffffffffffffffffffffffffffffffff163360006121b6565b600754610eab9073ffffffffffffffffffffffffffffffffffffffff163360006121b6565b505b610eb98484888861234f565b60408051838152602081018390529081018c9052606081018b905273ffffffffffffffffffffffffffffffffffffffff8a169033907fd78ad95fa46c994b6551d0da85fc275fe613ce37657fb8d5e3d130840159d8229060800160405180910390a350506001600b55505050505050505050565b6000610f3a33848461262b565b50600192915050565b73ffffffffffffffffffffffffffffffffffffffff831660009081526002602090815260408083203384529091528120547fffffffffffffffffffffffffffffffffffffffffffffffffffffffffffffffff146110075773ffffffffffffffffffffffffffffffffffffffff84166000908152600260209081526040808320338452909152902054610fd590836121aa565b73ffffffffffffffffffffffffffffffffffffffff851660009081526002602090815260408083203384529091529020555b61101284848461269a565b5060019392505050565b60055473ffffffffffffffffffffffffffffffffffffffff16331461109d576040517f08c379a000000000000000000000000000000000000000000000000000000000815260206004820152601560248201527f506f636b6574537761703a20464f5242494444454e00000000000000000000006044820152606401610555565b6006805473ffffffffffffffffffffffffffffffffffffffff9384167fffffffffffffffffffffffff00000000000000000000000000000000000000009182161790915560078054929093169116179055565b6000600b5460011461115e576040517f08c379a000000000000000000000000000000000000000000000000000000000815260206004820152601260248201527f506f636b6574537761703a204c4f434b454400000000000000000000000000006044820152606401610555565b6000600b819055600a54600654604080517f70a0823100000000000000000000000000000000000000000000000000000000815230600482015290516dffffffffffffffffffffffffffff808516956e01000000000000000000000000000090950416939273ffffffffffffffffffffffffffffffffffffffff16916370a08231916024808301926020929190829003018186803b1580156111ff57600080fd5b505afa158015611213573d6000803e3d6000fd5b505050506040513d601f19601f820116820180604052508101906112379190612b05565b6007546040517f70a0823100000000000000000000000000000000000000000000000000000000815230600482015291925060009173ffffffffffffffffffffffffffffffffffffffff909116906370a082319060240160206040518083038186803b1580156112a657600080fd5b505afa1580156112ba573d6000803e3d6000fd5b505050506040513d601f19601f820116820180604052508101906112de9190612b05565b905060006112fc836dffffffffffffffffffffffffffff87166121aa565b9050600061131a836dffffffffffffffffffffffffffff87166121aa565b600054909150806113515761133d6103e8610b436113388686612197565b612767565b975061134c60006103e86127d7565b6113a6565b6113a36dffffffffffffffffffffffffffff881661136f8584612197565b6113799190612d51565b6dffffffffffffffffffffffffffff88166113948585612197565b61139e9190612d51565b612880565b97505b60008811611436576040517f08c379a000000000000000000000000000000000000000000000000000000000815260206004820152602960248201527f506f636b6574537761703a20494e53554646494349454e545f4c49515549444960448201527f54595f4d494e54454400000000000000000000000000000000000000000000006064820152608401610555565b61144089896127d7565b61144c8585898961234f565b604080518481526020810184905233917f4c209b5fc8ad50758f13e2e1088ba56a560dff690a1c6fef26394f4c03821c4f910160405180910390a250506001600b55509395945050505050565b600080600b54600114611508576040517f08c379a000000000000000000000000000000000000000000000000000000000815260206004820152601260248201527f506f636b6574537761703a204c4f434b454400000000000000000000000000006044820152606401610555565b6000600b819055600a54600654600754604080517f70a0823100000000000000000000000000000000000000000000000000000000815230600482015290516dffffffffffffffffffffffffffff808616966e010000000000000000000000000000909604169473ffffffffffffffffffffffffffffffffffffffff94851694909316929184916370a0823191602480820192602092909190829003018186803b1580156115b557600080fd5b505afa1580156115c9573d6000803e3d6000fd5b505050506040513d601f19601f820116820180604052508101906115ed9190612b05565b6040517f70a0823100000000000000000000000000000000000000000000000000000000815230600482015290915060009073ffffffffffffffffffffffffffffffffffffffff8416906370a082319060240160206040518083038186803b15801561165857600080fd5b505afa15801561166c573d6000803e3d6000fd5b505050506040513d601f19601f820116820180604052508101906116909190612b05565b30600090815260016020526040812054905491925090806116b18386612197565b6116bb9190612d51565b9950806116c88385612197565b6116d29190612d51565b985060008a1180156116e45750600089115b611770576040517f08c379a000000000000000000000000000000000000000000000000000000000815260206004820152602960248201527f506f636b6574537761703a20494e53554646494349454e545f4c49515549444960448201527f54595f4255524e454400000000000000000000000000000000000000000000006064820152608401610555565b61177a3083612896565b611785868c8c611ff7565b611790858c8b611ff7565b6040517f70a0823100000000000000000000000000000000000000000000000000000000815230600482015273ffffffffffffffffffffffffffffffffffffffff8716906370a082319060240160206040518083038186803b1580156117f557600080fd5b505afa158015611809573d6000803e3d6000fd5b505050506040513d601f19601f8201168201806040525081019061182d9190612b05565b6040517f70a0823100000000000000000000000000000000000000000000000000000000815230600482015290945073ffffffffffffffffffffffffffffffffffffffff8616906370a082319060240160206040518083038186803b15801561189557600080fd5b505afa1580156118a9573d6000803e3d6000fd5b505050506040513d601f19601f820116820180604052508101906118cd9190612b05565b92506118db84848a8a61234f565b604080518b8152602081018b905273ffffffffffffffffffffffffffffffffffffffff8d169133917fdccd412f0b1252819cb1fd330b93224ca42612892bb3f4f789976e6d81936496910160405180910390a350505050505050506001600b81905550915091565b6000610f3a33848461269a565b600b546001146119bc576040517f08c379a000000000000000000000000000000000000000000000000000000000815260206004820152601260248201527f506f636b6574537761703a204c4f434b454400000000000000000000000000006044820152606401610555565b6000600b55600654600754600a546040517f70a0823100000000000000000000000000000000000000000000000000000000815230600482015273ffffffffffffffffffffffffffffffffffffffff9384169390921691611a939184918691611a8e916dffffffffffffffffffffffffffff9091169084906370a08231906024015b60206040518083038186803b158015611a5657600080fd5b505afa158015611a6a573d6000803e3d6000fd5b505050506040513d601f19601f82011682018060405250810190610b439190612b05565b611ff7565b600a546040517f70a08231000000000000000000000000000000000000000000000000000000008152306004820152611b189183918691611a8e916e0100000000000000000000000000009091046dffffffffffffffffffffffffffff169073ffffffffffffffffffffffffffffffffffffffff8516906370a0823190602401611a3e565b50506001600b5550565b42841015611b8c576040517f08c379a000000000000000000000000000000000000000000000000000000000815260206004820152601360248201527f506f636b6574537761703a2045585049524544000000000000000000000000006044820152606401610555565b60035473ffffffffffffffffffffffffffffffffffffffff8816600090815260046020526040812080549192917f6e71edae12b1b97f4d1f60370fef10105fa2faae0126114a169c64845d6126c9918b918b918b919087611bec83612ec4565b9091555060408051602081019690965273ffffffffffffffffffffffffffffffffffffffff94851690860152929091166060840152608083015260a082015260c0810187905260e00160405160208183030381529060405280519060200120604051602001611c8d9291907f190100000000000000000000000000000000000000000000000000000000000081526002810192909252602282015260420190565b604080517fffffffffffffffffffffffffffffffffffffffffffffffffffffffffffffffe08184030181528282528051602091820120600080855291840180845281905260ff88169284019290925260608301869052608083018590529092509060019060a0016020604051602081039080840390855afa158015611d16573d6000803e3d6000fd5b50506040517fffffffffffffffffffffffffffffffffffffffffffffffffffffffffffffffe0015191505073ffffffffffffffffffffffffffffffffffffffff811615801590611d9157508873ffffffffffffffffffffffffffffffffffffffff168173ffffffffffffffffffffffffffffffffffffffff16145b611df7576040517f08c379a000000000000000000000000000000000000000000000000000000000815260206004820152601d60248201527f506f636b6574537761703a20494e56414c49445f5349474e41545552450000006044820152606401610555565b611e0289898961262b565b505050505050505050565b600b54600114611e79576040517f08c379a000000000000000000000000000000000000000000000000000000000815260206004820152601260248201527f506f636b6574537761703a204c4f434b454400000000000000000000000000006044820152606401610555565b6000600b556006546040517f70a08231000000000000000000000000000000000000000000000000000000008152306004820152611ff09173ffffffffffffffffffffffffffffffffffffffff16906370a082319060240160206040518083038186803b158015611ee957600080fd5b505afa158015611efd573d6000803e3d6000fd5b505050506040513d601f19601f82011682018060405250810190611f219190612b05565b6007546040517f70a0823100000000000000000000000000000000000000000000000000000000815230600482015273ffffffffffffffffffffffffffffffffffffffff909116906370a082319060240160206040518083038186803b158015611f8a57600080fd5b505afa158015611f9e573d6000803e3d6000fd5b505050506040513d601f19601f82011682018060405250810190611fc29190612b05565b600a546dffffffffffffffffffffffffffff808216916e01000000000000000000000000000090041661234f565b6001600b55565b604080518082018252601981527f7472616e7366657228616464726573732c75696e743235362900000000000000602091820152815173ffffffffffffffffffffffffffffffffffffffff85811660248301526044808301869052845180840390910181526064909201845291810180517bffffffffffffffffffffffffffffffffffffffffffffffffffffffff167fa9059cbb00000000000000000000000000000000000000000000000000000000179052915160009283928716916120be9190612bac565b6000604051808303816000865af19150503d80600081146120fb576040519150601f19603f3d011682016040523d82523d6000602084013e612100565b606091505b509150915081801561212a57508051158061212a57508080602001905181019061212a9190612ae5565b612190576040517f08c379a000000000000000000000000000000000000000000000000000000000815260206004820152601b60248201527f506f636b6574537761703a205452414e534645525f4641494c454400000000006044820152606401610555565b5050505050565b60006121a38284612da9565b9392505050565b60006121a38284612de6565b604080518082018252601881527f617070726f766528616464726573732c75696e74323536290000000000000000602091820152815173ffffffffffffffffffffffffffffffffffffffff85811660248301526044808301869052845180840390910181526064909201845291810180517bffffffffffffffffffffffffffffffffffffffffffffffffffffffff167f095ea7b3000000000000000000000000000000000000000000000000000000001790529151600092839287169161227d9190612bac565b6000604051808303816000865af19150503d80600081146122ba576040519150601f19603f3d011682016040523d82523d6000602084013e6122bf565b606091505b50915091508180156122e95750805115806122e95750808060200190518101906122e99190612ae5565b612190576040517f08c379a000000000000000000000000000000000000000000000000000000000815260206004820152601a60248201527f506f636b6574537761703a20415050524f56455f4641494c45440000000000006044820152606401610555565b6dffffffffffffffffffffffffffff841180159061237b57506dffffffffffffffffffffffffffff8311155b6123e1576040517f08c379a000000000000000000000000000000000000000000000000000000000815260206004820152601460248201527f506f636b6574537761703a204f564552464c4f570000000000000000000000006044820152606401610555565b60006123f264010000000042612efd565b600a5490915060009061242b907c0100000000000000000000000000000000000000000000000000000000900463ffffffff1683612dfd565b905060008163ffffffff1611801561245257506dffffffffffffffffffffffffffff841615155b801561246d57506dffffffffffffffffffffffffffff831615155b1561253b578063ffffffff166124aa8561248686612947565b7bffffffffffffffffffffffffffffffffffffffffffffffffffffffff1690612978565b7bffffffffffffffffffffffffffffffffffffffffffffffffffffffff166124d29190612da9565b600860008282546124e39190612cfe565b909155505063ffffffff81166124fc8461248687612947565b7bffffffffffffffffffffffffffffffffffffffffffffffffffffffff166125249190612da9565b600960008282546125359190612cfe565b90915550505b600a805463ffffffff84167c0100000000000000000000000000000000000000000000000000000000027bffffffffffffffffffffffffffffffffffffffffffffffffffffffff6dffffffffffffffffffffffffffff8981166e0100000000000000000000000000009081027fffffffff000000000000000000000000000000000000000000000000000000009095168c83161794909417918216831794859055604080519382169282169290921783529290930490911660208201527f1c411e9a96e071241c2f21f7726b17ae89e3cab4c78be50e062b03a9fffbbad1910160405180910390a1505050505050565b73ffffffffffffffffffffffffffffffffffffffff83811660008181526002602090815260408083209487168084529482529182902085905590518481527f8c5be1e5ebec7d5bd14f71427d1e84f3dd0314c0f7b2291e5b200ac8c7c3b92591015b60405180910390a3505050565b73ffffffffffffffffffffffffffffffffffffffff83166000908152600160205260409020546126ca90826121aa565b73ffffffffffffffffffffffffffffffffffffffff80851660009081526001602052604080822093909355908416815220546127069082612994565b73ffffffffffffffffffffffffffffffffffffffff80841660008181526001602052604090819020939093559151908516907fddf252ad1be2c89b69c2b068fc378daa952ba7f163c4a11628f55a4df523b3ef9061268d9085815260200190565b600060038211156127c85750806000612781600283612d51565b61278c906001612cfe565b90505b818110156127c2579050806002816127a78186612d51565b6127b19190612cfe565b6127bb9190612d51565b905061278f565b50919050565b81156127d2575060015b919050565b6000546127e49082612994565b600090815573ffffffffffffffffffffffffffffffffffffffff83168152600160205260409020546128169082612994565b73ffffffffffffffffffffffffffffffffffffffff83166000818152600160205260408082209390935591519091907fddf252ad1be2c89b69c2b068fc378daa952ba7f163c4a11628f55a4df523b3ef906128749085815260200190565b60405180910390a35050565b600081831061288f57816121a3565b5090919050565b73ffffffffffffffffffffffffffffffffffffffff82166000908152600160205260409020546128c690826121aa565b73ffffffffffffffffffffffffffffffffffffffff8316600090815260016020526040812091909155546128fa90826121aa565b600090815560405182815273ffffffffffffffffffffffffffffffffffffffff8416907fddf252ad1be2c89b69c2b068fc378daa952ba7f163c4a11628f55a4df523b3ef90602001612874565b60006129726e0100000000000000000000000000006dffffffffffffffffffffffffffff8416612d65565b92915050565b60006121a36dffffffffffffffffffffffffffff831684612d16565b60006121a38284612cfe565b803573ffffffffffffffffffffffffffffffffffffffff811681146127d257600080fd5b6000602082840312156129d5578081fd5b6121a3826129a0565b600080604083850312156129f0578081fd5b6129f9836129a0565b9150612a07602084016129a0565b90509250929050565b600080600060608486031215612a24578081fd5b612a2d846129a0565b9250612a3b602085016129a0565b9150604084013590509250925092565b600080600080600080600060e0888a031215612a65578283fd5b612a6e886129a0565b9650612a7c602089016129a0565b95506040880135945060608801359350608088013560ff81168114612a9f578384fd5b9699959850939692959460a0840135945060c09093013592915050565b60008060408385031215612ace578182fd5b612ad7836129a0565b946020939093013593505050565b600060208284031215612af6578081fd5b815180151581146121a3578182fd5b600060208284031215612b16578081fd5b5051919050565b600080600080600060808688031215612b34578081fd5b8535945060208601359350612b4b604087016129a0565b9250606086013567ffffffffffffffff80821115612b67578283fd5b818801915088601f830112612b7a578283fd5b813581811115612b88578384fd5b896020828501011115612b99578384fd5b9699959850939650602001949392505050565b60008251612bbe818460208701612e22565b9190910192915050565b7f4e4f4b2062213a20000000000000000000000000000000000000000000000000815260008251612c00816008850160208701612e22565b9190910160080192915050565b7f4e4f4b3a20000000000000000000000000000000000000000000000000000000815260008251612c45816005850160208701612e22565b9190910160050192915050565b6020815260008251806020840152612c71816040850160208701612e22565b601f017fffffffffffffffffffffffffffffffffffffffffffffffffffffffffffffffe0169190910160400192915050565b84815283602082015260606040820152816060820152818360808301376000818301608090810191909152601f9092017fffffffffffffffffffffffffffffffffffffffffffffffffffffffffffffffe01601019392505050565b60008219821115612d1157612d11612f11565b500190565b60007bffffffffffffffffffffffffffffffffffffffffffffffffffffffff80841680612d4557612d45612f40565b92169190910492915050565b600082612d6057612d60612f40565b500490565b60007bffffffffffffffffffffffffffffffffffffffffffffffffffffffff80831681851681830481118215151615612da057612da0612f11565b02949350505050565b6000817fffffffffffffffffffffffffffffffffffffffffffffffffffffffffffffffff0483118215151615612de157612de1612f11565b500290565b600082821015612df857612df8612f11565b500390565b600063ffffffff83811690831681811015612e1a57612e1a612f11565b039392505050565b60005b83811015612e3d578181015183820152602001612e25565b83811115612e4c576000848401525b50505050565b7fffffffffffffffffffffffffffffffffffffffffffffffffffffffffffffffe0601f830116810181811067ffffffffffffffff82111715612ebd577f4e487b7100000000000000000000000000000000000000000000000000000000600052604160045260246000fd5b6040525050565b60007fffffffffffffffffffffffffffffffffffffffffffffffffffffffffffffffff821415612ef657612ef6612f11565b5060010190565b600082612f0c57612f0c612f40565b500690565b7f4e487b7100000000000000000000000000000000000000000000000000000000600052601160045260246000fd5b7f4e487b7100000000000000000000000000000000000000000000000000000000600052601260045260246000fd5b600060033d1115612f8457600481823e5160e01c5b90565b600060443d1015612f955790565b6040517ffffffffffffffffffffffffffffffffffffffffffffffffffffffffffffffffc803d016004833e81513d67ffffffffffffffff8160248401118184111715612fe357505050505090565b8285019150815181811115612ffb5750505050505090565b843d87010160208285010111156130155750505050505090565b61302460208286010187612e52565b50909594505050505056fea264697066735822122016ee65ddf58bc1be2b5f22a260fb5a422e83c4ee5009a65a281246402025613464736f6c63430008040033a2646970667358221220d010045d2907563d7bfbb8457fc83c54443f71a888e39da026adfff5ba4ebe5864736f6c63430008040033",
  "immutableReferences": {
    "3551": [
      {
        "length": 32,
        "start": 555
      },
      {
        "length": 32,
        "start": 1891
      },
      {
        "length": 32,
        "start": 2226
      },
      {
        "length": 32,
        "start": 2527
      }
    ],
    "3555": [
      {
        "length": 32,
        "start": 327
      },
      {
        "length": 32,
        "start": 1446
      },
      {
        "length": 32,
        "start": 1756
      },
      {
        "length": 32,
        "start": 3678
      },
      {
        "length": 32,
        "start": 3777
      },
      {
        "length": 32,
        "start": 3977
      }
    ],
    "3559": [
      {
        "length": 32,
        "start": 607
      }
    ]
  },
  "source": "// SPDX-License-Identifier: Unlicensed\npragma solidity =0.8.4;\npragma abicoder v2;\n\nimport {PeripheryPayments} from \"./pocketswap/abstract/PeripheryPayments.sol\";\nimport {PeripheryImmutableState} from \"./pocketswap/abstract/PeripheryImmutableState.sol\";\n\nimport {IPocketSwapFactory} from \"./pocketswap/interfaces/IPocketSwapFactory.sol\";\nimport {IPocketSwapLiquidityRouter} from \"./pocketswap/interfaces/IPocketSwapLiquidityRouter.sol\";\nimport {IPocketSwapRouter} from \"./pocketswap/interfaces/IPocketSwapRouter.sol\";\n\nimport {PairAddress} from \"./pocketswap/libraries/PairAddress.sol\";\n\nimport {Pocket} from \"./Pocket.sol\";\n\n\ncontract PocketSwap is PeripheryImmutableState, PeripheryPayments {\n    struct PocketSwapInitializeParams {\n        address router;\n        address factory;\n        address pocket;\n        address WETH9;\n    }\n\n    address public _owner;\n    address public router;\n\n    modifier onlyOwner() {\n        if (msg.sender == _owner) _;\n    }\n\n    constructor(address router_, address factory_, address pocket_, address WETH9_)\n    PeripheryImmutableState(factory_, WETH9_, pocket_) {\n        _owner = msg.sender;\n        router = router_;\n    }\n\n    function owner() external view returns (address) {\n        return _owner;\n    }\n\n    function swap(IPocketSwapRouter.SwapParams calldata params)\n    payable external {\n        pay(params.tokenIn, msg.sender, address(this), params.amountIn);\n        approve(params.tokenIn, router, params.amountIn);\n        try IPocketSwapRouter(router).swap(params) {}\n        catch Error(string memory reason) {\n            revert(string(abi.encodePacked(\"NOK: \", reason)));\n        }\n    }\n\n    function addLiquidity(IPocketSwapLiquidityRouter.AddLiquidityParams calldata params)\n    payable external {\n        // create the pair if it doesn't exist yet\n        if (IPocketSwapFactory(factory).getPair(params.token0, params.token1) == address(0)) {\n            IPocketSwapFactory(factory).createPair(params.token0, params.token1);\n        }\n\n        (uint amountA, uint amountB) = IPocketSwapLiquidityRouter(router).calcLiquidity(params);\n\n        // sending tokens to router\n        pay(params.token0, msg.sender, address(this), amountA);\n        approve(params.token0, router, amountA);\n        pay(params.token1, msg.sender, address(this), amountB);\n        approve(params.token1, router, amountB);\n\n        try IPocketSwapLiquidityRouter(router).addLiquidity(params) {}\n        catch Error(string memory reason) {\n            revert(string(abi.encodePacked(\"NOK: \", reason)));\n        }\n    }\n\n    function removeLiquidity(IPocketSwapLiquidityRouter.RemoveLiquidityParams calldata params) external {\n        // sending LP to router\n        address pair = PairAddress.computeAddress(factory, params.tokenA, params.tokenB);\n        pay(pair, msg.sender, address(this), params.liquidity);\n        approve(pair, router, params.liquidity);\n\n        try IPocketSwapLiquidityRouter(router).removeLiquidity(params) {}\n        catch Error(string memory reason) {\n            revert(string(abi.encodePacked(\"NOK: \", reason)));\n        }\n    }\n\n    function getAmountsIn(uint amountOut, address[] memory path) external view returns (uint[] memory) {\n        return IPocketSwapRouter(router).getAmountsIn(amountOut, path);\n    }\n\n    function getAmountsOut(uint amountIn, address[] memory path) external view returns (uint[] memory) {\n        return IPocketSwapRouter(router).getAmountsOut(amountIn, path);\n    }\n}\n",
  "sourcePath": "/Users/ilyk/projects/midgardtech/xpocket-PocketSwap/PocketSwap/contracts/PocketSwap.sol",
  "compiler": {
    "name": "solc",
    "version": "0.8.4+commit.c7e474f2.Emscripten.clang"
  },
  "schemaVersion": "3.4.3",
  "updatedAt": "2021-12-17T08:43:46.519Z",
  "devdoc": {
    "kind": "dev",
    "methods": {
      "sweepToken(address,uint256,address)": {
        "details": "The amountMinimum parameter prevents malicious contracts from stealing the token from users",
        "params": {
          "amountMinimum": "The minimum amount of token required for a transfer",
          "recipient": "The destination address of the token",
          "token": "The contract address of the token which will be transferred to `recipient`"
        }
      },
      "unwrapWETH9(uint256,address)": {
        "details": "The amountMinimum parameter prevents malicious contracts from stealing WETH9 from users.",
        "params": {
          "amountMinimum": "The minimum amount of WETH9 to unwrap",
          "recipient": "The address receiving ETH"
        }
      }
    },
    "version": 1
  },
  "userdoc": {
    "kind": "user",
    "methods": {
      "sweepToken(address,uint256,address)": {
        "notice": "Sends the full amount of a token held by this contract to the given recipient"
      },
      "unwrapWETH9(uint256,address)": {
        "notice": "Unwraps the contract's WETH9 balance and sends it to recipient as ETH."
      }
    },
    "version": 1
  }
}