{
  "contractName": "PocketSwap",
  "abi": [
    {
      "inputs": [
        {
          "internalType": "address",
          "name": "router_",
          "type": "address"
        },
        {
          "internalType": "address",
          "name": "factory_",
          "type": "address"
        },
        {
          "internalType": "address",
          "name": "pocket_",
          "type": "address"
        },
        {
          "internalType": "address",
          "name": "WETH9_",
          "type": "address"
        }
      ],
      "stateMutability": "nonpayable",
      "type": "constructor"
    },
    {
      "inputs": [],
      "name": "WETH9",
      "outputs": [
        {
          "internalType": "address",
          "name": "",
          "type": "address"
        }
      ],
      "stateMutability": "view",
      "type": "function"
    },
    {
      "inputs": [],
      "name": "_owner",
      "outputs": [
        {
          "internalType": "address",
          "name": "",
          "type": "address"
        }
      ],
      "stateMutability": "view",
      "type": "function"
    },
    {
      "inputs": [],
      "name": "factory",
      "outputs": [
        {
          "internalType": "address",
          "name": "",
          "type": "address"
        }
      ],
      "stateMutability": "view",
      "type": "function"
    },
    {
      "inputs": [],
      "name": "pocket",
      "outputs": [
        {
          "internalType": "address",
          "name": "",
          "type": "address"
        }
      ],
      "stateMutability": "view",
      "type": "function"
    },
    {
      "inputs": [],
      "name": "router",
      "outputs": [
        {
          "internalType": "address",
          "name": "",
          "type": "address"
        }
      ],
      "stateMutability": "view",
      "type": "function"
    },
    {
      "inputs": [
        {
          "internalType": "address",
          "name": "token",
          "type": "address"
        },
        {
          "internalType": "uint256",
          "name": "amountMinimum",
          "type": "uint256"
        },
        {
          "internalType": "address",
          "name": "recipient",
          "type": "address"
        }
      ],
      "name": "sweepToken",
      "outputs": [],
      "stateMutability": "payable",
      "type": "function"
    },
    {
      "inputs": [
        {
          "internalType": "uint256",
          "name": "amountMinimum",
          "type": "uint256"
        },
        {
          "internalType": "address",
          "name": "recipient",
          "type": "address"
        }
      ],
      "name": "unwrapWETH9",
      "outputs": [],
      "stateMutability": "payable",
      "type": "function"
    },
    {
      "inputs": [],
      "name": "owner",
      "outputs": [
        {
          "internalType": "address",
          "name": "",
          "type": "address"
        }
      ],
      "stateMutability": "nonpayable",
      "type": "function"
    },
    {
      "inputs": [
        {
          "components": [
            {
              "internalType": "address",
              "name": "tokenIn",
              "type": "address"
            },
            {
              "internalType": "address",
              "name": "tokenOut",
              "type": "address"
            },
            {
              "internalType": "address",
              "name": "recipient",
              "type": "address"
            },
            {
              "internalType": "uint256",
              "name": "deadline",
              "type": "uint256"
            },
            {
              "internalType": "uint256",
              "name": "amountIn",
              "type": "uint256"
            },
            {
              "internalType": "uint256",
              "name": "amountOutMinimum",
              "type": "uint256"
            }
          ],
          "internalType": "struct IPocketSwapRouter.SwapParams",
          "name": "params",
          "type": "tuple"
        }
      ],
      "name": "swap",
      "outputs": [],
      "stateMutability": "payable",
      "type": "function"
    },
    {
      "inputs": [
        {
          "components": [
            {
              "internalType": "address",
              "name": "token0",
              "type": "address"
            },
            {
              "internalType": "address",
              "name": "token1",
              "type": "address"
            },
            {
              "internalType": "address",
              "name": "recipient",
              "type": "address"
            },
            {
              "internalType": "uint256",
              "name": "amount0Desired",
              "type": "uint256"
            },
            {
              "internalType": "uint256",
              "name": "amount1Desired",
              "type": "uint256"
            },
            {
              "internalType": "uint256",
              "name": "amount0Min",
              "type": "uint256"
            },
            {
              "internalType": "uint256",
              "name": "amount1Min",
              "type": "uint256"
            },
            {
              "internalType": "uint256",
              "name": "deadline",
              "type": "uint256"
            }
          ],
          "internalType": "struct IPocketSwapLiquidityRouter.AddLiquidityParams",
          "name": "params",
          "type": "tuple"
        }
      ],
      "name": "addLiquidity",
      "outputs": [],
      "stateMutability": "payable",
      "type": "function"
    },
    {
      "inputs": [
        {
          "components": [
            {
              "internalType": "address",
              "name": "tokenA",
              "type": "address"
            },
            {
              "internalType": "address",
              "name": "tokenB",
              "type": "address"
            },
            {
              "internalType": "uint256",
              "name": "liquidity",
              "type": "uint256"
            },
            {
              "internalType": "uint256",
              "name": "amountAMin",
              "type": "uint256"
            },
            {
              "internalType": "uint256",
              "name": "amountBMin",
              "type": "uint256"
            },
            {
              "internalType": "address",
              "name": "rewards",
              "type": "address"
            },
            {
              "internalType": "address",
              "name": "recipient",
              "type": "address"
            },
            {
              "internalType": "uint256",
              "name": "deadline",
              "type": "uint256"
            }
          ],
          "internalType": "struct IPocketSwapLiquidityRouter.RemoveLiquidityParams",
          "name": "params",
          "type": "tuple"
        }
      ],
      "name": "removeLiquidity",
      "outputs": [],
      "stateMutability": "nonpayable",
      "type": "function"
    },
    {
      "inputs": [
        {
          "internalType": "uint256",
          "name": "amountOut",
          "type": "uint256"
        },
        {
          "internalType": "address[]",
          "name": "path",
          "type": "address[]"
        }
      ],
      "name": "getAmountsIn",
      "outputs": [
        {
          "internalType": "uint256[]",
          "name": "",
          "type": "uint256[]"
        }
      ],
      "stateMutability": "view",
      "type": "function"
    },
    {
      "inputs": [
        {
          "internalType": "uint256",
          "name": "amountIn",
          "type": "uint256"
        },
        {
          "internalType": "address[]",
          "name": "path",
          "type": "address[]"
        }
      ],
      "name": "getAmountsOut",
      "outputs": [
        {
          "internalType": "uint256[]",
          "name": "",
          "type": "uint256[]"
        }
      ],
      "stateMutability": "view",
      "type": "function"
    }
  ],
  "bytecode": "0x60e06040523480156200001157600080fd5b50604051620022a6380380620022a68339810160408190526200003491620000a7565b6001600160601b0319606093841b811660805290831b811660a052911b1660c052600080546001600160a01b03199081163317909155600180546001600160a01b03939093169290911691909117905562000103565b80516001600160a01b0381168114620000a257600080fd5b919050565b60008060008060808587031215620000bd578384fd5b620000c8856200008a565b9350620000d8602086016200008a565b9250620000e8604086016200008a565b9150620000f8606086016200008a565b905092959194509250565b60805160601c60a05160601c60c05160601c6121086200019e6000396000818161025f01528181610c2c01528181610c8f01528181610d5d01528181610d8d01528181610dd30152610e03015260008181610147015281816105a6015281816106dc01528181611095015281816110f801526111c001526000818161022b01528181610763015281816108b201526109df01526121086000f3fe6080604052600436106100d25760003560e01c80638da5cb5b1161007f578063cccef9e211610059578063cccef9e21461024d578063d06ca61f14610281578063df2ab5bb146102a1578063f887ea40146102b457600080fd5b80638da5cb5b146101c1578063b2bdfa7b146101ec578063c45a01551461021957600080fd5b80634aa4a4fc116100b05780634aa4a4fc146101355780636385a2711461018e5780638d4d72e5146101ae57600080fd5b80631f00ca74146100d7578063441a12de1461010d57806349404b7c14610122575b600080fd5b3480156100e357600080fd5b506100f76100f2366004611b08565b6102e1565b6040516101049190611c73565b60405180910390f35b61012061011b366004611ab0565b6103b3565b005b610120610130366004611ad9565b610575565b34801561014157600080fd5b506101697f000000000000000000000000000000000000000000000000000000000000000081565b60405173ffffffffffffffffffffffffffffffffffffffff9091168152602001610104565b34801561019a57600080fd5b506101206101a9366004611a94565b61075c565b6101206101bc366004611a94565b6108ae565b3480156101cd57600080fd5b5060005473ffffffffffffffffffffffffffffffffffffffff16610169565b3480156101f857600080fd5b506000546101699073ffffffffffffffffffffffffffffffffffffffff1681565b34801561022557600080fd5b506101697f000000000000000000000000000000000000000000000000000000000000000081565b34801561025957600080fd5b506101697f000000000000000000000000000000000000000000000000000000000000000081565b34801561028d57600080fd5b506100f761029c366004611b08565b610f15565b6101206102af366004611996565b610f6e565b3480156102c057600080fd5b506001546101699073ffffffffffffffffffffffffffffffffffffffff1681565b6001546040517f1f00ca7400000000000000000000000000000000000000000000000000000000815260609173ffffffffffffffffffffffffffffffffffffffff1690631f00ca749061033a9086908690600401611ec3565b60006040518083038186803b15801561035257600080fd5b505afa158015610366573d6000803e3d6000fd5b505050506040513d6000823e601f3d9081017fffffffffffffffffffffffffffffffffffffffffffffffffffffffffffffffe01682016040526103ac91908101906119d7565b9392505050565b6103cf6103c3602083018361195e565b33308460800135611091565b6104026103df602083018361195e565b60015473ffffffffffffffffffffffffffffffffffffffff166080840135611280565b6001546040517f441a12de00000000000000000000000000000000000000000000000000000000815273ffffffffffffffffffffffffffffffffffffffff9091169063441a12de90610458908490600401611e46565b602060405180830381600087803b15801561047257600080fd5b505af19250505080156104c0575060408051601f3d9081017fffffffffffffffffffffffffffffffffffffffffffffffffffffffffffffffe01682019092526104bd91810190611ac1565b60015b610570576104cc611ff0565b806308c379a0141561056457506104e1612008565b806104ec5750610566565b806040516020016104fd9190611c2e565b604080517fffffffffffffffffffffffffffffffffffffffffffffffffffffffffffffffe0818403018152908290527f08c379a000000000000000000000000000000000000000000000000000000000825261055b91600401611cb7565b60405180910390fd5b505b3d6000803e3d6000fd5b505b50565b6040517f70a082310000000000000000000000000000000000000000000000000000000081523060048201526000907f000000000000000000000000000000000000000000000000000000000000000073ffffffffffffffffffffffffffffffffffffffff16906370a082319060240160206040518083038186803b1580156105fd57600080fd5b505afa158015610611573d6000803e3d6000fd5b505050506040513d601f19601f820116820180604052508101906106359190611ac1565b905082156106a757828110156106a7576040517f08c379a000000000000000000000000000000000000000000000000000000000815260206004820152601260248201527f496e73756666696369656e742057455448390000000000000000000000000000604482015260640161055b565b8015610757576040517f2e1a7d4d000000000000000000000000000000000000000000000000000000008152600481018290527f000000000000000000000000000000000000000000000000000000000000000073ffffffffffffffffffffffffffffffffffffffff1690632e1a7d4d90602401600060405180830381600087803b15801561073557600080fd5b505af1158015610749573d6000803e3d6000fd5b50505050610757828261128d565b505050565b60006107a47f000000000000000000000000000000000000000000000000000000000000000061078f602085018561195e565b61079f604086016020870161195e565b611371565b90506107b68133308560400135611091565b6001546107df90829073ffffffffffffffffffffffffffffffffffffffff166040850135611280565b6001546040517f6385a27100000000000000000000000000000000000000000000000000000000815273ffffffffffffffffffffffffffffffffffffffff90911690636385a27190610835908590600401611d9a565b6040805180830381600087803b15801561084e57600080fd5b505af192505050801561089c575060408051601f3d9081017fffffffffffffffffffffffffffffffffffffffffffffffffffffffffffffffe016820190925261089991810190611bba565b60015b6108a8576104cc611ff0565b50505050565b60007f000000000000000000000000000000000000000000000000000000000000000073ffffffffffffffffffffffffffffffffffffffff1663e6a439056108f9602085018561195e565b610909604086016020870161195e565b6040517fffffffff0000000000000000000000000000000000000000000000000000000060e085901b16815273ffffffffffffffffffffffffffffffffffffffff92831660048201529116602482015260440160206040518083038186803b15801561097457600080fd5b505afa158015610988573d6000803e3d6000fd5b505050506040513d601f19601f820116820180604052508101906109ac919061197a565b73ffffffffffffffffffffffffffffffffffffffff161415610ac85773ffffffffffffffffffffffffffffffffffffffff7f00000000000000000000000000000000000000000000000000000000000000001663c9c65396610a11602084018461195e565b610a21604085016020860161195e565b6040517fffffffff0000000000000000000000000000000000000000000000000000000060e085901b16815273ffffffffffffffffffffffffffffffffffffffff928316600482015291166024820152604401602060405180830381600087803b158015610a8e57600080fd5b505af1158015610aa2573d6000803e3d6000fd5b505050506040513d601f19601f82011682018060405250810190610ac6919061197a565b505b6001546040517f68bc7e0800000000000000000000000000000000000000000000000000000000815260009182918291829173ffffffffffffffffffffffffffffffffffffffff909116906368bc7e0890610b27908890600401611d08565b60806040518083038186803b158015610b3f57600080fd5b505afa158015610b53573d6000803e3d6000fd5b505050506040513d601f19601f82011682018060405250810190610b779190611bdd565b92965090945092509050610b99610b91602087018761195e565b333087611091565b610bc8610ba9602087018761195e565b60015473ffffffffffffffffffffffffffffffffffffffff1686611280565b610be3610bdb604087016020880161195e565b333086611091565b610c15610bf6604087016020880161195e565b60015473ffffffffffffffffffffffffffffffffffffffff1685611280565b73ffffffffffffffffffffffffffffffffffffffff7f000000000000000000000000000000000000000000000000000000000000000016610c59602087018761195e565b73ffffffffffffffffffffffffffffffffffffffff1614158015610cd8575073ffffffffffffffffffffffffffffffffffffffff7f000000000000000000000000000000000000000000000000000000000000000016610cbf604087016020880161195e565b73ffffffffffffffffffffffffffffffffffffffff1614155b15610e3f576000821180610cec5750600081115b610d52576040517f08c379a000000000000000000000000000000000000000000000000000000000815260206004820152601d60248201527f43616e6e6f742063616c63756c61746520504f434b45542076616c7565000000604482015260640161055b565b8115610dce57610d847f0000000000000000000000000000000000000000000000000000000000000000333085611091565b600154610dc9907f00000000000000000000000000000000000000000000000000000000000000009073ffffffffffffffffffffffffffffffffffffffff1684611280565b610e3f565b610dfa7f0000000000000000000000000000000000000000000000000000000000000000333084611091565b600154610e3f907f00000000000000000000000000000000000000000000000000000000000000009073ffffffffffffffffffffffffffffffffffffffff1683611280565b6001546040517f8d4d72e500000000000000000000000000000000000000000000000000000000815273ffffffffffffffffffffffffffffffffffffffff90911690638d4d72e590610e95908890600401611d08565b608060405180830381600087803b158015610eaf57600080fd5b505af1925050508015610efd575060408051601f3d9081017fffffffffffffffffffffffffffffffffffffffffffffffffffffffffffffffe0168201909252610efa91810190611bdd565b60015b610f09576104cc611ff0565b505050505b5050505050565b6001546040517fd06ca61f00000000000000000000000000000000000000000000000000000000815260609173ffffffffffffffffffffffffffffffffffffffff169063d06ca61f9061033a9086908690600401611ec3565b6040517f70a0823100000000000000000000000000000000000000000000000000000000815230600482015260009073ffffffffffffffffffffffffffffffffffffffff8516906370a082319060240160206040518083038186803b158015610fd657600080fd5b505afa158015610fea573d6000803e3d6000fd5b505050506040513d601f19601f8201168201806040525081019061100e9190611ac1565b905082156110805782811015611080576040517f08c379a000000000000000000000000000000000000000000000000000000000815260206004820152601260248201527f496e73756666696369656e7420746f6b656e0000000000000000000000000000604482015260640161055b565b80156108a8576108a88483836114eb565b60007f000000000000000000000000000000000000000000000000000000000000000073ffffffffffffffffffffffffffffffffffffffff168573ffffffffffffffffffffffffffffffffffffffff161480156110f15750814791508110155b15611246577f000000000000000000000000000000000000000000000000000000000000000073ffffffffffffffffffffffffffffffffffffffff1663d0e30db0826040518263ffffffff1660e01b81526004016000604051808303818588803b15801561115e57600080fd5b505af1158015611172573d6000803e3d6000fd5b50506040517fa9059cbb00000000000000000000000000000000000000000000000000000000815273ffffffffffffffffffffffffffffffffffffffff8781166004830152602482018790527f000000000000000000000000000000000000000000000000000000000000000016935063a9059cbb92506044019050602060405180830381600087803b15801561120857600080fd5b505af115801561121c573d6000803e3d6000fd5b505050506040513d601f19601f820116820180604052508101906112409190611a74565b50610f0e565b73ffffffffffffffffffffffffffffffffffffffff84163014156112745761126f8584846114eb565b610f0e565b610f0e85858585611654565b60006108a88484846117cd565b6040805160008082526020820190925273ffffffffffffffffffffffffffffffffffffffff84169083906040516112c49190611c12565b60006040518083038185875af1925050503d8060008114611301576040519150601f19603f3d011682016040523d82523d6000602084013e611306565b606091505b5050905080610757576040517f08c379a000000000000000000000000000000000000000000000000000000000815260206004820152600360248201527f5354450000000000000000000000000000000000000000000000000000000000604482015260640161055b565b60008173ffffffffffffffffffffffffffffffffffffffff168373ffffffffffffffffffffffffffffffffffffffff1611156113ab579091905b6040517fffffffffffffffffffffffffffffffffffffffff000000000000000000000000606085811b8216602084015284901b1660348201528490604801604080517fffffffffffffffffffffffffffffffffffffffffffffffffffffffffffffffe08184030181529082905280516020918201206114ad939290917fdf7d27aafa64d711b5be2386628edb30802b46757f0d3d6025d859a6350e72b491017fff00000000000000000000000000000000000000000000000000000000000000815260609390931b7fffffffffffffffffffffffffffffffffffffffff0000000000000000000000001660018401526015830191909152603582015260550190565b604080517fffffffffffffffffffffffffffffffffffffffffffffffffffffffffffffffe08184030181529190528051602090910120949350505050565b6040805173ffffffffffffffffffffffffffffffffffffffff8481166024830152604480830185905283518084039091018152606490920183526020820180517bffffffffffffffffffffffffffffffffffffffffffffffffffffffff167fa9059cbb0000000000000000000000000000000000000000000000000000000017905291516000928392908716916115829190611c12565b6000604051808303816000865af19150503d80600081146115bf576040519150601f19603f3d011682016040523d82523d6000602084013e6115c4565b606091505b50915091508180156115ee5750805115806115ee5750808060200190518101906115ee9190611a74565b610f0e576040517f08c379a000000000000000000000000000000000000000000000000000000000815260206004820152600260248201527f5354000000000000000000000000000000000000000000000000000000000000604482015260640161055b565b6040805173ffffffffffffffffffffffffffffffffffffffff85811660248301528481166044830152606480830185905283518084039091018152608490920183526020820180517bffffffffffffffffffffffffffffffffffffffffffffffffffffffff167f23b872dd0000000000000000000000000000000000000000000000000000000017905291516000928392908816916116f39190611c12565b6000604051808303816000865af19150503d8060008114611730576040519150601f19603f3d011682016040523d82523d6000602084013e611735565b606091505b509150915081801561175f57508051158061175f57508080602001905181019061175f9190611a74565b6117c5576040517f08c379a000000000000000000000000000000000000000000000000000000000815260206004820152600360248201527f5354460000000000000000000000000000000000000000000000000000000000604482015260640161055b565b505050505050565b6040805173ffffffffffffffffffffffffffffffffffffffff8481166024830152604480830185905283518084039091018152606490920183526020820180517bffffffffffffffffffffffffffffffffffffffffffffffffffffffff167f095ea7b30000000000000000000000000000000000000000000000000000000017905291516000928392908716916118649190611c12565b6000604051808303816000865af19150503d80600081146118a1576040519150601f19603f3d011682016040523d82523d6000602084013e6118a6565b606091505b50915091508180156118d05750805115806118d05750808060200190518101906118d09190611a74565b610f0e576040517f08c379a000000000000000000000000000000000000000000000000000000000815260206004820152600260248201527f5341000000000000000000000000000000000000000000000000000000000000604482015260640161055b565b8035611941816120b0565b919050565b60006101008284031215611958578081fd5b50919050565b60006020828403121561196f578081fd5b81356103ac816120b0565b60006020828403121561198b578081fd5b81516103ac816120b0565b6000806000606084860312156119aa578182fd5b83356119b5816120b0565b92506020840135915060408401356119cc816120b0565b809150509250925092565b600060208083850312156119e9578182fd5b825167ffffffffffffffff8111156119ff578283fd5b8301601f81018513611a0f578283fd5b8051611a1a81611f26565b604051611a278282611f76565b8281528481019150838501600584901b85018601891015611a46578687fd5b8694505b83851015611a68578051835260019490940193918501918501611a4a565b50979650505050505050565b600060208284031215611a85578081fd5b815180151581146103ac578182fd5b60006101008284031215611aa6578081fd5b6103ac8383611946565b600060c08284031215611958578081fd5b600060208284031215611ad2578081fd5b5051919050565b60008060408385031215611aeb578182fd5b823591506020830135611afd816120b0565b809150509250929050565b60008060408385031215611b1a578182fd5b8235915060208084013567ffffffffffffffff811115611b38578283fd5b8401601f81018613611b48578283fd5b8035611b5381611f26565b604051611b608282611f76565b8281528481019150838501600584901b850186018a1015611b7f578687fd5b8694505b83851015611baa578035611b96816120b0565b835260019490940193918501918501611b83565b5080955050505050509250929050565b60008060408385031215611bcc578182fd5b505080516020909101519092909150565b60008060008060808587031215611bf2578081fd5b505082516020840151604085015160609095015191969095509092509050565b60008251611c24818460208701611f4a565b9190910192915050565b7f4e4f4b3a20000000000000000000000000000000000000000000000000000000815260008251611c66816005850160208701611f4a565b9190910160050192915050565b6020808252825182820181905260009190848201906040850190845b81811015611cab57835183529284019291840191600101611c8f565b50909695505050505050565b6020815260008251806020840152611cd6816040850160208701611f4a565b601f017fffffffffffffffffffffffffffffffffffffffffffffffffffffffffffffffe0169190910160400192915050565b61010081018235611d18816120b0565b73ffffffffffffffffffffffffffffffffffffffff9081168352602084013590611d41826120b0565b9081166020840152604084013590611d58826120b0565b80821660408501525050606083013560608301526080830135608083015260a083013560a083015260c083013560c083015260e083013560e083015292915050565b61010081018235611daa816120b0565b73ffffffffffffffffffffffffffffffffffffffff9081168352602084013590611dd3826120b0565b808216602085015260408501356040850152606085013560608501526080850135608085015260a08501359150611e09826120b0565b1660a0830152611e1b60c08401611936565b73ffffffffffffffffffffffffffffffffffffffff811660c08401525060e092830135919092015290565b60c081018235611e55816120b0565b73ffffffffffffffffffffffffffffffffffffffff9081168352602084013590611e7e826120b0565b9081166020840152604084013590611e95826120b0565b80821660408501525050606083013560608301526080830135608083015260a083013560a083015292915050565b60006040820184835260206040818501528185518084526060860191508287019350845b81811015611f1957845173ffffffffffffffffffffffffffffffffffffffff1683529383019391830191600101611ee7565b5090979650505050505050565b600067ffffffffffffffff821115611f4057611f40611fc1565b5060051b60200190565b60005b83811015611f65578181015183820152602001611f4d565b838111156108a85750506000910152565b7fffffffffffffffffffffffffffffffffffffffffffffffffffffffffffffffe0601f830116810181811067ffffffffffffffff82111715611fba57611fba611fc1565b6040525050565b7f4e487b7100000000000000000000000000000000000000000000000000000000600052604160045260246000fd5b600060033d111561200557600481823e5160e01c5b90565b600060443d10156120165790565b6040517ffffffffffffffffffffffffffffffffffffffffffffffffffffffffffffffffc803d016004833e81513d67ffffffffffffffff816024840111818411171561206457505050505090565b828501915081518181111561207c5750505050505090565b843d87010160208285010111156120965750505050505090565b6120a560208286010187611f76565b509095945050505050565b73ffffffffffffffffffffffffffffffffffffffff8116811461057257600080fdfea2646970667358221220d7e3ab101fcb2a9a5ce3549894bffac4100dcf668ac34feea477decd4bde83c164736f6c63430008040033",
  "immutableReferences": {
    "2460": [
      {
        "length": 32,
        "start": 555
      },
      {
        "length": 32,
        "start": 1891
      },
      {
        "length": 32,
        "start": 2226
      },
      {
        "length": 32,
        "start": 2527
      }
    ],
    "2464": [
      {
        "length": 32,
        "start": 327
      },
      {
        "length": 32,
        "start": 1446
      },
      {
        "length": 32,
        "start": 1756
      },
      {
        "length": 32,
        "start": 4245
      },
      {
        "length": 32,
        "start": 4344
      },
      {
        "length": 32,
        "start": 4544
      }
    ],
    "2468": [
      {
        "length": 32,
        "start": 607
      },
      {
        "length": 32,
        "start": 3116
      },
      {
        "length": 32,
        "start": 3215
      },
      {
        "length": 32,
        "start": 3421
      },
      {
        "length": 32,
        "start": 3469
      },
      {
        "length": 32,
        "start": 3539
      },
      {
        "length": 32,
        "start": 3587
      }
    ]
  },
  "source": "// SPDX-License-Identifier: Unlicensed\npragma solidity =0.8.4;\npragma abicoder v2;\n\nimport {PeripheryPayments} from \"./pocketswap/abstract/PeripheryPayments.sol\";\nimport {PeripheryImmutableState} from \"./pocketswap/abstract/PeripheryImmutableState.sol\";\n\nimport {IPocketSwapFactory} from \"./pocketswap/interfaces/IPocketSwapFactory.sol\";\nimport {IPocketSwapLiquidityRouter} from \"./pocketswap/interfaces/IPocketSwapLiquidityRouter.sol\";\nimport {IPocketSwapRouter} from \"./pocketswap/interfaces/IPocketSwapRouter.sol\";\n\nimport {PairAddress} from \"./pocketswap/libraries/PairAddress.sol\";\n\nimport {Pocket} from \"./Pocket.sol\";\n\n\ncontract PocketSwap is PeripheryImmutableState, PeripheryPayments {\n    struct PocketSwapInitializeParams {\n        address router;\n        address factory;\n        address pocket;\n        address WETH9;\n    }\n\n    address public _owner;\n    address public router;\n\n    modifier onlyOwner() {\n        if (msg.sender == _owner) _;\n    }\n\n    constructor(address router_, address factory_, address pocket_, address WETH9_)\n    PeripheryImmutableState(factory_, WETH9_, pocket_) {\n        _owner = msg.sender;\n        router = router_;\n    }\n\n    function owner() external returns (address) {\n        return _owner;\n    }\n\n    function swap(IPocketSwapRouter.SwapParams calldata params)\n    payable external {\n        pay(params.tokenIn, msg.sender, address(this), params.amountIn);\n        approve(params.tokenIn, router, params.amountIn);\n        try IPocketSwapRouter(router).swap(params) {}\n        catch Error(string memory reason) {\n            revert(string(abi.encodePacked(\"NOK: \", reason)));\n        }\n    }\n\n    function addLiquidity(IPocketSwapLiquidityRouter.AddLiquidityParams calldata params)\n    payable external {\n        // create the pair if it doesn't exist yet\n        if (IPocketSwapFactory(factory).getPair(params.token0, params.token1) == address(0)) {\n            IPocketSwapFactory(factory).createPair(params.token0, params.token1);\n        }\n\n        (uint amountA, uint amountB, uint amountAPocket, uint amountBPocket) =\n        IPocketSwapLiquidityRouter(router).calcLiquidity(params);\n\n        // sending tokens to router\n        pay(params.token0, msg.sender, address(this), amountA);\n        approve(params.token0, router, amountA);\n        pay(params.token1, msg.sender, address(this), amountB);\n        approve(params.token1, router, amountB);\n\n        // if needed, send pocket token to router\n        if (params.token0 != pocket && params.token1 != pocket) {\n            require(amountAPocket > 0 || amountBPocket > 0, \"Cannot calculate POCKET value\");\n            if (amountAPocket > 0) {\n                pay(pocket, msg.sender, address(this), amountAPocket);\n                approve(pocket, router, amountAPocket);\n            } else {\n                pay(pocket, msg.sender, address(this), amountBPocket);\n                approve(pocket, router, amountBPocket);\n            }\n        }\n\n        try IPocketSwapLiquidityRouter(router).addLiquidity(params) {}\n        catch Error(string memory reason) {\n            revert(string(abi.encodePacked(\"NOK: \", reason)));\n        }\n    }\n\n    function removeLiquidity(IPocketSwapLiquidityRouter.RemoveLiquidityParams calldata params) external {\n        // sending LP to router\n        address pair = PairAddress.computeAddress(factory, params.tokenA, params.tokenB);\n        pay(pair, msg.sender, address(this), params.liquidity);\n        approve(pair, router, params.liquidity);\n\n        try IPocketSwapLiquidityRouter(router).removeLiquidity(params) {}\n        catch Error(string memory reason) {\n            revert(string(abi.encodePacked(\"NOK: \", reason)));\n        }\n    }\n\n    function getAmountsIn(uint amountOut, address[] memory path) external view returns (uint[] memory) {\n        return IPocketSwapRouter(router).getAmountsIn(amountOut, path);\n    }\n\n    function getAmountsOut(uint amountIn, address[] memory path) external view returns (uint[] memory) {\n        return IPocketSwapRouter(router).getAmountsOut(amountIn, path);\n    }\n}\n",
  "sourcePath": "/Users/ilyk/projects/midgardtech/xpocket-PocketSwap/contracts/PocketSwap.sol",
  "compiler": {
    "name": "solc",
    "version": "0.8.4+commit.c7e474f2.Emscripten.clang"
  },
  "schemaVersion": "3.4.0",
  "updatedAt": "2021-05-17T05:28:40.637Z",
  "devdoc": {
    "kind": "dev",
    "methods": {
      "sweepToken(address,uint256,address)": {
        "details": "The amountMinimum parameter prevents malicious contracts from stealing the token from users",
        "params": {
          "amountMinimum": "The minimum amount of token required for a transfer",
          "recipient": "The destination address of the token",
          "token": "The contract address of the token which will be transferred to `recipient`"
        }
      },
      "unwrapWETH9(uint256,address)": {
        "details": "The amountMinimum parameter prevents malicious contracts from stealing WETH9 from users.",
        "params": {
          "amountMinimum": "The minimum amount of WETH9 to unwrap",
          "recipient": "The address receiving ETH"
        }
      }
    },
    "version": 1
  },
  "userdoc": {
    "kind": "user",
    "methods": {
      "sweepToken(address,uint256,address)": {
        "notice": "Sends the full amount of a token held by this contract to the given recipient"
      },
      "unwrapWETH9(uint256,address)": {
        "notice": "Unwraps the contract's WETH9 balance and sends it to recipient as ETH."
      }
    },
    "version": 1
  }
}