{
  "contractName": "PocketSwapFactory",
  "abi": [
    {
      "inputs": [],
      "stateMutability": "nonpayable",
      "type": "constructor"
    },
    {
      "anonymous": false,
      "inputs": [
        {
          "indexed": true,
          "internalType": "address",
          "name": "token0",
          "type": "address"
        },
        {
          "indexed": true,
          "internalType": "address",
          "name": "token1",
          "type": "address"
        },
        {
          "indexed": false,
          "internalType": "address",
          "name": "pair",
          "type": "address"
        },
        {
          "indexed": false,
          "internalType": "uint256",
          "name": "",
          "type": "uint256"
        }
      ],
      "name": "PairCreated",
      "type": "event"
    },
    {
      "inputs": [
        {
          "internalType": "uint256",
          "name": "",
          "type": "uint256"
        }
      ],
      "name": "allPairs",
      "outputs": [
        {
          "internalType": "address",
          "name": "",
          "type": "address"
        }
      ],
      "stateMutability": "view",
      "type": "function"
    },
    {
      "inputs": [],
      "name": "fee",
      "outputs": [
        {
          "internalType": "uint256",
          "name": "",
          "type": "uint256"
        }
      ],
      "stateMutability": "view",
      "type": "function"
    },
    {
      "inputs": [],
      "name": "feeSetter",
      "outputs": [
        {
          "internalType": "address",
          "name": "",
          "type": "address"
        }
      ],
      "stateMutability": "view",
      "type": "function"
    },
    {
      "inputs": [
        {
          "internalType": "address",
          "name": "",
          "type": "address"
        },
        {
          "internalType": "address",
          "name": "",
          "type": "address"
        }
      ],
      "name": "getPair",
      "outputs": [
        {
          "internalType": "address",
          "name": "",
          "type": "address"
        }
      ],
      "stateMutability": "view",
      "type": "function"
    },
    {
      "inputs": [],
      "name": "allPairsLength",
      "outputs": [
        {
          "internalType": "uint256",
          "name": "",
          "type": "uint256"
        }
      ],
      "stateMutability": "view",
      "type": "function"
    },
    {
      "inputs": [
        {
          "internalType": "address",
          "name": "tokenA",
          "type": "address"
        },
        {
          "internalType": "address",
          "name": "tokenB",
          "type": "address"
        }
      ],
      "name": "createPair",
      "outputs": [
        {
          "internalType": "address",
          "name": "pair",
          "type": "address"
        }
      ],
      "stateMutability": "nonpayable",
      "type": "function"
    },
    {
      "inputs": [
        {
          "internalType": "uint256",
          "name": "_fee",
          "type": "uint256"
        }
      ],
      "name": "setFee",
      "outputs": [],
      "stateMutability": "nonpayable",
      "type": "function"
    },
    {
      "inputs": [
        {
          "internalType": "address",
          "name": "_feeSetter",
          "type": "address"
        }
      ],
      "name": "setFeeSetter",
      "outputs": [],
      "stateMutability": "nonpayable",
      "type": "function"
    },
    {
      "inputs": [],
      "name": "holdersFee",
      "outputs": [
        {
          "internalType": "uint256",
          "name": "",
          "type": "uint256"
        }
      ],
      "stateMutability": "view",
      "type": "function"
    }
  ],
  "bytecode": "0x6080604052622dc6c060015534801561001757600080fd5b50600080546001600160a01b03191633179055613b06806100396000396000f3fe608060405234801561001057600080fd5b50600436106100a35760003560e01c806387cf3ef411610076578063c9c653961161005b578063c9c653961461014b578063ddca3f431461015e578063e6a439051461016757600080fd5b806387cf3ef414610118578063b19805af1461013857600080fd5b80631e3dd18b146100a857806346870d2b146100e5578063574f2ba3146100fb57806369fe0e2d14610103575b600080fd5b6100bb6100b6366004610b42565b6101a8565b60405173ffffffffffffffffffffffffffffffffffffffff90911681526020015b60405180910390f35b6100ed6101df565b6040519081526020016100dc565b6003546100ed565b610116610111366004610b42565b610201565b005b6000546100bb9073ffffffffffffffffffffffffffffffffffffffff1681565b610116610146366004610aef565b6102fd565b6100bb610159366004610b10565b6103c5565b6100ed60015481565b6100bb610175366004610b10565b600260209081526000928352604080842090915290825290205473ffffffffffffffffffffffffffffffffffffffff1681565b600381815481106101b857600080fd5b60009182526020909120015473ffffffffffffffffffffffffffffffffffffffff16905081565b6000601e60015460056101f29190610b93565b6101fc9190610b5a565b905090565b60005473ffffffffffffffffffffffffffffffffffffffff163314610287576040517f08c379a000000000000000000000000000000000000000000000000000000000815260206004820152601460248201527f506f636b6574537761703a464f5242494444454e00000000000000000000000060448201526064015b60405180910390fd5b670de0b6b3a764000081106102f8576040517f08c379a000000000000000000000000000000000000000000000000000000000815260206004820152601260248201527f506f636b6574537761703a4249475f4645450000000000000000000000000000604482015260640161027e565b600155565b60005473ffffffffffffffffffffffffffffffffffffffff16331461037e576040517f08c379a000000000000000000000000000000000000000000000000000000000815260206004820152601460248201527f506f636b6574537761703a464f5242494444454e000000000000000000000000604482015260640161027e565b600080547fffffffffffffffffffffffff00000000000000000000000000000000000000001673ffffffffffffffffffffffffffffffffffffffff92909216919091179055565b60008173ffffffffffffffffffffffffffffffffffffffff168373ffffffffffffffffffffffffffffffffffffffff16141561045d576040517f08c379a000000000000000000000000000000000000000000000000000000000815260206004820152601e60248201527f506f636b6574537761703a4944454e544943414c5f4144445245535345530000604482015260640161027e565b6000808373ffffffffffffffffffffffffffffffffffffffff168573ffffffffffffffffffffffffffffffffffffffff161061049a57838561049d565b84845b909250905073ffffffffffffffffffffffffffffffffffffffff821661051f576040517f08c379a000000000000000000000000000000000000000000000000000000000815260206004820152601760248201527f506f636b6574537761703a5a45524f5f41444452455353000000000000000000604482015260640161027e565b73ffffffffffffffffffffffffffffffffffffffff8281166000908152600260209081526040808320858516845290915290205416156105bb576040517f08c379a000000000000000000000000000000000000000000000000000000000815260206004820152601660248201527f506f636b6574537761703a504149525f45584953545300000000000000000000604482015260640161027e565b6000604051806020016105cd90610ab9565b7fffffffffffffffffffffffffffffffffffffffffffffffffffffffffffffffe082820381018352601f9091011660408190527fffffffffffffffffffffffffffffffffffffffff000000000000000000000000606086811b8216602084015285901b166034820152909150600090604801604051602081830303815290604052805190602001209050808251602084016000f56040517f485cc95500000000000000000000000000000000000000000000000000000000815273ffffffffffffffffffffffffffffffffffffffff868116600483015285811660248301529196509086169063485cc95590604401600060405180830381600087803b1580156106d657600080fd5b505af11580156106ea573d6000803e3d6000fd5b50505073ffffffffffffffffffffffffffffffffffffffff80861660008181526002602081815260408084208a8716855282528084208054968d167fffffffffffffffffffffffff0000000000000000000000000000000000000000978816811790915592825280842094845293905291812080548416831790556003805460018101825591527fc2575a0e9e593c00f959f8c92f12db2869c3395a3b0502d05e2516446f71f85b018054909216179055506107a730858561093f565b73ffffffffffffffffffffffffffffffffffffffff168573ffffffffffffffffffffffffffffffffffffffff161461083b576040517f08c379a000000000000000000000000000000000000000000000000000000000815260206004820152600360248201527f57575a0000000000000000000000000000000000000000000000000000000000604482015260640161027e565b61084630848661093f565b73ffffffffffffffffffffffffffffffffffffffff168573ffffffffffffffffffffffffffffffffffffffff16146108da576040517f08c379a000000000000000000000000000000000000000000000000000000000815260206004820152600360248201527f57575a0000000000000000000000000000000000000000000000000000000000604482015260640161027e565b6003546040805173ffffffffffffffffffffffffffffffffffffffff88811682526020820193909352828616928716917f0d3648bd0f6ba80134a33ba9275ac585d9d315f0ad8355cddefde31afa28d0e9910160405180910390a35050505092915050565b60008173ffffffffffffffffffffffffffffffffffffffff168373ffffffffffffffffffffffffffffffffffffffff161115610979579091905b6040517fffffffffffffffffffffffffffffffffffffffff000000000000000000000000606085811b8216602084015284901b1660348201528490604801604080517fffffffffffffffffffffffffffffffffffffffffffffffffffffffffffffffe0818403018152908290528051602091820120610a7b939290917fe28fa7bf5fb2d35a8f7e8c92c9a7ce8c68d700393825d6eb56728888754f488b91017fff00000000000000000000000000000000000000000000000000000000000000815260609390931b7fffffffffffffffffffffffffffffffffffffffff0000000000000000000000001660018401526015830191909152603582015260550190565b604080517fffffffffffffffffffffffffffffffffffffffffffffffffffffffffffffffe08184030181529190528051602090910120949350505050565b612edb80610bf683390190565b803573ffffffffffffffffffffffffffffffffffffffff81168114610aea57600080fd5b919050565b600060208284031215610b00578081fd5b610b0982610ac6565b9392505050565b60008060408385031215610b22578081fd5b610b2b83610ac6565b9150610b3960208401610ac6565b90509250929050565b600060208284031215610b53578081fd5b5035919050565b600082610b8e577f4e487b710000000000000000000000000000000000000000000000000000000081526012600452602481fd5b500490565b6000817fffffffffffffffffffffffffffffffffffffffffffffffffffffffffffffffff0483118215151615610bf0577f4e487b710000000000000000000000000000000000000000000000000000000081526011600452602481fd5b50029056fe60806040526001600b5534801561001557600080fd5b50604080518082018252600a8152690506f636b6574537761760b41b6020918201528151808301835260018152603160f81b9082015281517f8b73c3c69bb8fe3d512ecc4cf759cc79239f7b179b0ffacaa9a75d522b39400f818301527f139f1c71b7c3168b7aeac519a0d6ee819b7e7428c66952642d99299cb2a31352818401527fc89efdaa54c0f20c7adf612882df0950f5a951637e0307cdcb4c672f298b8bc660608201524660808201523060a0808301919091528351808303909101815260c09091019092528151910120600355600580546001600160a01b03191633179055612dd3806101086000396000f3fe608060405234801561001057600080fd5b50600436106101ae5760003560e01c80636a627842116100ee578063ba9a7a5611610097578063d21220a711610071578063d21220a714610487578063d505accf146104a7578063dd62ed3e146104ba578063fff6cae9146104e557600080fd5b8063ba9a7a561461044b578063bc25cf7714610454578063c45a01551461046757600080fd5b806389afcb44116100c857806389afcb44146103d457806395d89b41146103fc578063a9059cbb1461043857600080fd5b80636a6278421461038157806370a08231146103945780637ecebe00146103b457600080fd5b806323b872dd1161015b5780633644e515116101355780633644e51514610353578063485cc9551461035c5780635909c0d51461036f5780635a3d54931461037857600080fd5b806323b872dd146102ff57806330adf81f14610312578063313ce5671461033957600080fd5b8063095ea7b31161018c578063095ea7b3146102805780630dfe1681146102a357806318160ddd146102e857600080fd5b8063022c0d9f146101b357806306fdde03146101c85780630902f1ac1461021a575b600080fd5b6101c66101c1366004612a47565b6104ed565b005b6102046040518060400160405280600a81526020017f506f636b6574537761700000000000000000000000000000000000000000000081525081565b6040516102119190612af2565b60405180910390f35b600a54604080516dffffffffffffffffffffffffffff80841682526e01000000000000000000000000000084041660208201527c010000000000000000000000000000000000000000000000000000000090920463ffffffff1690820152606001610211565b61029361028e3660046129e6565b610e57565b6040519015158152602001610211565b6006546102c39073ffffffffffffffffffffffffffffffffffffffff1681565b60405173ffffffffffffffffffffffffffffffffffffffff9091168152602001610211565b6102f160005481565b604051908152602001610211565b61029361030d36600461293a565b610e6d565b6102f17f6e71edae12b1b97f4d1f60370fef10105fa2faae0126114a169c64845d6126c981565b610341601281565b60405160ff9091168152602001610211565b6102f160035481565b6101c661036a366004612908565b610f46565b6102f160085481565b6102f160095481565b6102f161038f3660046128ee565b61101a565b6102f16103a23660046128ee565b60016020526000908152604090205481565b6102f16103c23660046128ee565b60046020526000908152604090205481565b6103e76103e23660046128ee565b6113c3565b60408051928352602083019190915201610211565b6102046040518060400160405280600781526020017f50532d504149520000000000000000000000000000000000000000000000000081525081565b6102936104463660046129e6565b61186d565b6102f16103e881565b6101c66104623660046128ee565b61187a565b6005546102c39073ffffffffffffffffffffffffffffffffffffffff1681565b6007546102c39073ffffffffffffffffffffffffffffffffffffffff1681565b6101c66104b5366004612975565b611a4c565b6102f16104c8366004612908565b600260209081526000928352604080842090915290825290205481565b6101c6611d37565b600b5460011461055e576040517f08c379a000000000000000000000000000000000000000000000000000000000815260206004820152601260248201527f506f636b6574537761703a204c4f434b4544000000000000000000000000000060448201526064015b60405180910390fd5b6000600b55841515806105715750600084115b6105fd576040517f08c379a000000000000000000000000000000000000000000000000000000000815260206004820152602660248201527f506f636b6574537761703a20494e53554646494349454e545f4f55545055545f60448201527f414d4f554e5400000000000000000000000000000000000000000000000000006064820152608401610555565b600080610659600a546dffffffffffffffffffffffffffff808216926e01000000000000000000000000000083049091169163ffffffff7c01000000000000000000000000000000000000000000000000000000009091041690565b5091509150816dffffffffffffffffffffffffffff168710801561068c5750806dffffffffffffffffffffffffffff1686105b610718576040517f08c379a000000000000000000000000000000000000000000000000000000000815260206004820152602260248201527f506f636b6574537761703a20494e53554646494349454e545f4c49515549444960448201527f54590000000000000000000000000000000000000000000000000000000000006064820152608401610555565b600654600754600091829173ffffffffffffffffffffffffffffffffffffffff91821691908116908916821480159061077d57508073ffffffffffffffffffffffffffffffffffffffff168973ffffffffffffffffffffffffffffffffffffffff1614155b6107e3576040517f08c379a000000000000000000000000000000000000000000000000000000000815260206004820152601660248201527f506f636b6574537761703a20494e56414c49445f544f000000000000000000006044820152606401610555565b8a156107f4576107f4828a8d611f21565b891561080557610805818a8c611f21565b6040517f70a0823100000000000000000000000000000000000000000000000000000000815230600482015273ffffffffffffffffffffffffffffffffffffffff8316906370a082319060240160206040518083038186803b15801561086a57600080fd5b505afa15801561087e573d6000803e3d6000fd5b505050506040513d601f19601f820116820180604052508101906108a29190612a2f565b6040517f70a0823100000000000000000000000000000000000000000000000000000000815230600482015290945073ffffffffffffffffffffffffffffffffffffffff8216906370a082319060240160206040518083038186803b15801561090a57600080fd5b505afa15801561091e573d6000803e3d6000fd5b505050506040513d601f19601f820116820180604052508101906109429190612a2f565b92505050600089856dffffffffffffffffffffffffffff166109649190612c86565b8311610971576000610995565b61098b8a6dffffffffffffffffffffffffffff8716612c86565b6109959084612c86565b905060006109b38a6dffffffffffffffffffffffffffff8716612c86565b83116109c05760006109e4565b6109da8a6dffffffffffffffffffffffffffff8716612c86565b6109e49084612c86565b905060008211806109f55750600081115b610a81576040517f08c379a000000000000000000000000000000000000000000000000000000000815260206004820152602560248201527f506f636b6574537761703a20494e53554646494349454e545f494e5055545f4160448201527f4d4f554e540000000000000000000000000000000000000000000000000000006064820152608401610555565b600554604080517fddca3f43000000000000000000000000000000000000000000000000000000008152905160009273ffffffffffffffffffffffffffffffffffffffff169163ddca3f43916004808301926020929190829003018186803b158015610aec57600080fd5b505afa158015610b00573d6000803e3d6000fd5b505050506040513d601f19601f82011682018060405250810190610b249190612a2f565b90506000610b49610b3585846120c1565b610b4388633b9aca006120c1565b906120d4565b90506000610b5a610b3585856120c1565b9050610b8b670de0b6b3a7640000610b856dffffffffffffffffffffffffffff8c8116908c166120c1565b906120c1565b610b9583836120c1565b1015610bfd576040517f08c379a000000000000000000000000000000000000000000000000000000000815260206004820152600d60248201527f506f636b6574537761703a204b000000000000000000000000000000000000006044820152606401610555565b505087159050610dd757600554604080517f46870d2b000000000000000000000000000000000000000000000000000000008152905160009273ffffffffffffffffffffffffffffffffffffffff16916346870d2b916004808301926020929190829003018186803b158015610c7257600080fd5b505afa158015610c86573d6000803e3d6000fd5b505050506040513d601f19601f82011682018060405250810190610caa9190612a2f565b600654909150610ce99073ffffffffffffffffffffffffffffffffffffffff1633633b9aca00610cda858a612c49565b610ce49190612bf1565b6120e0565b600754610d169073ffffffffffffffffffffffffffffffffffffffff1633633b9aca00610cda8589612c49565b6040517f7936cd900000000000000000000000000000000000000000000000000000000081523390637936cd9090610d58908f908f908e908e90600401612b43565b600060405180830381600087803b158015610d7257600080fd5b505af1158015610d86573d6000803e3d6000fd5b5050600654610db0925073ffffffffffffffffffffffffffffffffffffffff1690503360006120e0565b600754610dd59073ffffffffffffffffffffffffffffffffffffffff163360006120e0565b505b610de384848888612279565b60408051838152602081018390529081018c9052606081018b905273ffffffffffffffffffffffffffffffffffffffff8a169033907fd78ad95fa46c994b6551d0da85fc275fe613ce37657fb8d5e3d130840159d8229060800160405180910390a350506001600b55505050505050505050565b6000610e64338484612555565b50600192915050565b73ffffffffffffffffffffffffffffffffffffffff831660009081526002602090815260408083203384529091528120547fffffffffffffffffffffffffffffffffffffffffffffffffffffffffffffffff14610f315773ffffffffffffffffffffffffffffffffffffffff84166000908152600260209081526040808320338452909152902054610eff90836120d4565b73ffffffffffffffffffffffffffffffffffffffff851660009081526002602090815260408083203384529091529020555b610f3c8484846125c4565b5060019392505050565b60055473ffffffffffffffffffffffffffffffffffffffff163314610fc7576040517f08c379a000000000000000000000000000000000000000000000000000000000815260206004820152601560248201527f506f636b6574537761703a20464f5242494444454e00000000000000000000006044820152606401610555565b6006805473ffffffffffffffffffffffffffffffffffffffff9384167fffffffffffffffffffffffff00000000000000000000000000000000000000009182161790915560078054929093169116179055565b6000600b54600114611088576040517f08c379a000000000000000000000000000000000000000000000000000000000815260206004820152601260248201527f506f636b6574537761703a204c4f434b454400000000000000000000000000006044820152606401610555565b6000600b819055600a54600654604080517f70a0823100000000000000000000000000000000000000000000000000000000815230600482015290516dffffffffffffffffffffffffffff808516956e01000000000000000000000000000090950416939273ffffffffffffffffffffffffffffffffffffffff16916370a08231916024808301926020929190829003018186803b15801561112957600080fd5b505afa15801561113d573d6000803e3d6000fd5b505050506040513d601f19601f820116820180604052508101906111619190612a2f565b6007546040517f70a0823100000000000000000000000000000000000000000000000000000000815230600482015291925060009173ffffffffffffffffffffffffffffffffffffffff909116906370a082319060240160206040518083038186803b1580156111d057600080fd5b505afa1580156111e4573d6000803e3d6000fd5b505050506040513d601f19601f820116820180604052508101906112089190612a2f565b90506000611226836dffffffffffffffffffffffffffff87166120d4565b90506000611244836dffffffffffffffffffffffffffff87166120d4565b6000549091508061127b576112676103e8610b4361126286866120c1565b612691565b975061127660006103e8612701565b6112d0565b6112cd6dffffffffffffffffffffffffffff881661129985846120c1565b6112a39190612bf1565b6dffffffffffffffffffffffffffff88166112be85856120c1565b6112c89190612bf1565b6127aa565b97505b60008811611360576040517f08c379a000000000000000000000000000000000000000000000000000000000815260206004820152602960248201527f506f636b6574537761703a20494e53554646494349454e545f4c49515549444960448201527f54595f4d494e54454400000000000000000000000000000000000000000000006064820152608401610555565b61136a8989612701565b61137685858989612279565b604080518481526020810184905233917f4c209b5fc8ad50758f13e2e1088ba56a560dff690a1c6fef26394f4c03821c4f910160405180910390a250506001600b55509395945050505050565b600080600b54600114611432576040517f08c379a000000000000000000000000000000000000000000000000000000000815260206004820152601260248201527f506f636b6574537761703a204c4f434b454400000000000000000000000000006044820152606401610555565b6000600b819055600a54600654600754604080517f70a0823100000000000000000000000000000000000000000000000000000000815230600482015290516dffffffffffffffffffffffffffff808616966e010000000000000000000000000000909604169473ffffffffffffffffffffffffffffffffffffffff94851694909316929184916370a0823191602480820192602092909190829003018186803b1580156114df57600080fd5b505afa1580156114f3573d6000803e3d6000fd5b505050506040513d601f19601f820116820180604052508101906115179190612a2f565b6040517f70a0823100000000000000000000000000000000000000000000000000000000815230600482015290915060009073ffffffffffffffffffffffffffffffffffffffff8416906370a082319060240160206040518083038186803b15801561158257600080fd5b505afa158015611596573d6000803e3d6000fd5b505050506040513d601f19601f820116820180604052508101906115ba9190612a2f565b30600090815260016020526040812054905491925090806115db83866120c1565b6115e59190612bf1565b9950806115f283856120c1565b6115fc9190612bf1565b985060008a11801561160e5750600089115b61169a576040517f08c379a000000000000000000000000000000000000000000000000000000000815260206004820152602960248201527f506f636b6574537761703a20494e53554646494349454e545f4c49515549444960448201527f54595f4255524e454400000000000000000000000000000000000000000000006064820152608401610555565b6116a430836127c0565b6116af868c8c611f21565b6116ba858c8b611f21565b6040517f70a0823100000000000000000000000000000000000000000000000000000000815230600482015273ffffffffffffffffffffffffffffffffffffffff8716906370a082319060240160206040518083038186803b15801561171f57600080fd5b505afa158015611733573d6000803e3d6000fd5b505050506040513d601f19601f820116820180604052508101906117579190612a2f565b6040517f70a0823100000000000000000000000000000000000000000000000000000000815230600482015290945073ffffffffffffffffffffffffffffffffffffffff8616906370a082319060240160206040518083038186803b1580156117bf57600080fd5b505afa1580156117d3573d6000803e3d6000fd5b505050506040513d601f19601f820116820180604052508101906117f79190612a2f565b925061180584848a8a612279565b604080518b8152602081018b905273ffffffffffffffffffffffffffffffffffffffff8d169133917fdccd412f0b1252819cb1fd330b93224ca42612892bb3f4f789976e6d81936496910160405180910390a350505050505050506001600b81905550915091565b6000610e643384846125c4565b600b546001146118e6576040517f08c379a000000000000000000000000000000000000000000000000000000000815260206004820152601260248201527f506f636b6574537761703a204c4f434b454400000000000000000000000000006044820152606401610555565b6000600b55600654600754600a546040517f70a0823100000000000000000000000000000000000000000000000000000000815230600482015273ffffffffffffffffffffffffffffffffffffffff93841693909216916119bd91849186916119b8916dffffffffffffffffffffffffffff9091169084906370a08231906024015b60206040518083038186803b15801561198057600080fd5b505afa158015611994573d6000803e3d6000fd5b505050506040513d601f19601f82011682018060405250810190610b439190612a2f565b611f21565b600a546040517f70a08231000000000000000000000000000000000000000000000000000000008152306004820152611a4291839186916119b8916e0100000000000000000000000000009091046dffffffffffffffffffffffffffff169073ffffffffffffffffffffffffffffffffffffffff8516906370a0823190602401611968565b50506001600b5550565b42841015611ab6576040517f08c379a000000000000000000000000000000000000000000000000000000000815260206004820152601360248201527f506f636b6574537761703a2045585049524544000000000000000000000000006044820152606401610555565b60035473ffffffffffffffffffffffffffffffffffffffff8816600090815260046020526040812080549192917f6e71edae12b1b97f4d1f60370fef10105fa2faae0126114a169c64845d6126c9918b918b918b919087611b1683612cf2565b9091555060408051602081019690965273ffffffffffffffffffffffffffffffffffffffff94851690860152929091166060840152608083015260a082015260c0810187905260e00160405160208183030381529060405280519060200120604051602001611bb79291907f190100000000000000000000000000000000000000000000000000000000000081526002810192909252602282015260420190565b604080517fffffffffffffffffffffffffffffffffffffffffffffffffffffffffffffffe08184030181528282528051602091820120600080855291840180845281905260ff88169284019290925260608301869052608083018590529092509060019060a0016020604051602081039080840390855afa158015611c40573d6000803e3d6000fd5b50506040517fffffffffffffffffffffffffffffffffffffffffffffffffffffffffffffffe0015191505073ffffffffffffffffffffffffffffffffffffffff811615801590611cbb57508873ffffffffffffffffffffffffffffffffffffffff168173ffffffffffffffffffffffffffffffffffffffff16145b611d21576040517f08c379a000000000000000000000000000000000000000000000000000000000815260206004820152601d60248201527f506f636b6574537761703a20494e56414c49445f5349474e41545552450000006044820152606401610555565b611d2c898989612555565b505050505050505050565b600b54600114611da3576040517f08c379a000000000000000000000000000000000000000000000000000000000815260206004820152601260248201527f506f636b6574537761703a204c4f434b454400000000000000000000000000006044820152606401610555565b6000600b556006546040517f70a08231000000000000000000000000000000000000000000000000000000008152306004820152611f1a9173ffffffffffffffffffffffffffffffffffffffff16906370a082319060240160206040518083038186803b158015611e1357600080fd5b505afa158015611e27573d6000803e3d6000fd5b505050506040513d601f19601f82011682018060405250810190611e4b9190612a2f565b6007546040517f70a0823100000000000000000000000000000000000000000000000000000000815230600482015273ffffffffffffffffffffffffffffffffffffffff909116906370a082319060240160206040518083038186803b158015611eb457600080fd5b505afa158015611ec8573d6000803e3d6000fd5b505050506040513d601f19601f82011682018060405250810190611eec9190612a2f565b600a546dffffffffffffffffffffffffffff808216916e010000000000000000000000000000900416612279565b6001600b55565b604080518082018252601981527f7472616e7366657228616464726573732c75696e743235362900000000000000602091820152815173ffffffffffffffffffffffffffffffffffffffff85811660248301526044808301869052845180840390910181526064909201845291810180517bffffffffffffffffffffffffffffffffffffffffffffffffffffffff167fa9059cbb0000000000000000000000000000000000000000000000000000000017905291516000928392871691611fe89190612ad6565b6000604051808303816000865af19150503d8060008114612025576040519150601f19603f3d011682016040523d82523d6000602084013e61202a565b606091505b50915091508180156120545750805115806120545750808060200190518101906120549190612a0f565b6120ba576040517f08c379a000000000000000000000000000000000000000000000000000000000815260206004820152601b60248201527f506f636b6574537761703a205452414e534645525f4641494c454400000000006044820152606401610555565b5050505050565b60006120cd8284612c49565b9392505050565b60006120cd8284612c86565b604080518082018252601881527f617070726f766528616464726573732c75696e74323536290000000000000000602091820152815173ffffffffffffffffffffffffffffffffffffffff85811660248301526044808301869052845180840390910181526064909201845291810180517bffffffffffffffffffffffffffffffffffffffffffffffffffffffff167f095ea7b300000000000000000000000000000000000000000000000000000000179052915160009283928716916121a79190612ad6565b6000604051808303816000865af19150503d80600081146121e4576040519150601f19603f3d011682016040523d82523d6000602084013e6121e9565b606091505b50915091508180156122135750805115806122135750808060200190518101906122139190612a0f565b6120ba576040517f08c379a000000000000000000000000000000000000000000000000000000000815260206004820152601a60248201527f506f636b6574537761703a20415050524f56455f4641494c45440000000000006044820152606401610555565b6dffffffffffffffffffffffffffff84118015906122a557506dffffffffffffffffffffffffffff8311155b61230b576040517f08c379a000000000000000000000000000000000000000000000000000000000815260206004820152601460248201527f506f636b6574537761703a204f564552464c4f570000000000000000000000006044820152606401610555565b600061231c64010000000042612d2b565b600a54909150600090612355907c0100000000000000000000000000000000000000000000000000000000900463ffffffff1683612c9d565b905060008163ffffffff1611801561237c57506dffffffffffffffffffffffffffff841615155b801561239757506dffffffffffffffffffffffffffff831615155b15612465578063ffffffff166123d4856123b086612871565b7bffffffffffffffffffffffffffffffffffffffffffffffffffffffff16906128a2565b7bffffffffffffffffffffffffffffffffffffffffffffffffffffffff166123fc9190612c49565b6008600082825461240d9190612b9e565b909155505063ffffffff8116612426846123b087612871565b7bffffffffffffffffffffffffffffffffffffffffffffffffffffffff1661244e9190612c49565b6009600082825461245f9190612b9e565b90915550505b600a805463ffffffff84167c0100000000000000000000000000000000000000000000000000000000027bffffffffffffffffffffffffffffffffffffffffffffffffffffffff6dffffffffffffffffffffffffffff8981166e0100000000000000000000000000009081027fffffffff000000000000000000000000000000000000000000000000000000009095168c83161794909417918216831794859055604080519382169282169290921783529290930490911660208201527f1c411e9a96e071241c2f21f7726b17ae89e3cab4c78be50e062b03a9fffbbad1910160405180910390a1505050505050565b73ffffffffffffffffffffffffffffffffffffffff83811660008181526002602090815260408083209487168084529482529182902085905590518481527f8c5be1e5ebec7d5bd14f71427d1e84f3dd0314c0f7b2291e5b200ac8c7c3b92591015b60405180910390a3505050565b73ffffffffffffffffffffffffffffffffffffffff83166000908152600160205260409020546125f490826120d4565b73ffffffffffffffffffffffffffffffffffffffff808516600090815260016020526040808220939093559084168152205461263090826128be565b73ffffffffffffffffffffffffffffffffffffffff80841660008181526001602052604090819020939093559151908516907fddf252ad1be2c89b69c2b068fc378daa952ba7f163c4a11628f55a4df523b3ef906125b79085815260200190565b600060038211156126f257508060006126ab600283612bf1565b6126b6906001612b9e565b90505b818110156126ec579050806002816126d18186612bf1565b6126db9190612b9e565b6126e59190612bf1565b90506126b9565b50919050565b81156126fc575060015b919050565b60005461270e90826128be565b600090815573ffffffffffffffffffffffffffffffffffffffff831681526001602052604090205461274090826128be565b73ffffffffffffffffffffffffffffffffffffffff83166000818152600160205260408082209390935591519091907fddf252ad1be2c89b69c2b068fc378daa952ba7f163c4a11628f55a4df523b3ef9061279e9085815260200190565b60405180910390a35050565b60008183106127b957816120cd565b5090919050565b73ffffffffffffffffffffffffffffffffffffffff82166000908152600160205260409020546127f090826120d4565b73ffffffffffffffffffffffffffffffffffffffff83166000908152600160205260408120919091555461282490826120d4565b600090815560405182815273ffffffffffffffffffffffffffffffffffffffff8416907fddf252ad1be2c89b69c2b068fc378daa952ba7f163c4a11628f55a4df523b3ef9060200161279e565b600061289c6e0100000000000000000000000000006dffffffffffffffffffffffffffff8416612c05565b92915050565b60006120cd6dffffffffffffffffffffffffffff831684612bb6565b60006120cd8284612b9e565b803573ffffffffffffffffffffffffffffffffffffffff811681146126fc57600080fd5b6000602082840312156128ff578081fd5b6120cd826128ca565b6000806040838503121561291a578081fd5b612923836128ca565b9150612931602084016128ca565b90509250929050565b60008060006060848603121561294e578081fd5b612957846128ca565b9250612965602085016128ca565b9150604084013590509250925092565b600080600080600080600060e0888a03121561298f578283fd5b612998886128ca565b96506129a6602089016128ca565b95506040880135945060608801359350608088013560ff811681146129c9578384fd5b9699959850939692959460a0840135945060c09093013592915050565b600080604083850312156129f8578182fd5b612a01836128ca565b946020939093013593505050565b600060208284031215612a20578081fd5b815180151581146120cd578182fd5b600060208284031215612a40578081fd5b5051919050565b600080600080600060808688031215612a5e578081fd5b8535945060208601359350612a75604087016128ca565b9250606086013567ffffffffffffffff80821115612a91578283fd5b818801915088601f830112612aa4578283fd5b813581811115612ab2578384fd5b896020828501011115612ac3578384fd5b9699959850939650602001949392505050565b60008251612ae8818460208701612cc2565b9190910192915050565b6020815260008251806020840152612b11816040850160208701612cc2565b601f017fffffffffffffffffffffffffffffffffffffffffffffffffffffffffffffffe0169190910160400192915050565b84815283602082015260606040820152816060820152818360808301376000818301608090810191909152601f9092017fffffffffffffffffffffffffffffffffffffffffffffffffffffffffffffffe01601019392505050565b60008219821115612bb157612bb1612d3f565b500190565b60007bffffffffffffffffffffffffffffffffffffffffffffffffffffffff80841680612be557612be5612d6e565b92169190910492915050565b600082612c0057612c00612d6e565b500490565b60007bffffffffffffffffffffffffffffffffffffffffffffffffffffffff80831681851681830481118215151615612c4057612c40612d3f565b02949350505050565b6000817fffffffffffffffffffffffffffffffffffffffffffffffffffffffffffffffff0483118215151615612c8157612c81612d3f565b500290565b600082821015612c9857612c98612d3f565b500390565b600063ffffffff83811690831681811015612cba57612cba612d3f565b039392505050565b60005b83811015612cdd578181015183820152602001612cc5565b83811115612cec576000848401525b50505050565b60007fffffffffffffffffffffffffffffffffffffffffffffffffffffffffffffffff821415612d2457612d24612d3f565b5060010190565b600082612d3a57612d3a612d6e565b500690565b7f4e487b7100000000000000000000000000000000000000000000000000000000600052601160045260246000fd5b7f4e487b7100000000000000000000000000000000000000000000000000000000600052601260045260246000fdfea264697066735822122042554d00d28ac6952d601ce533a1b62838593a7eea633e56c40e63a4a68f3f4e64736f6c63430008040033a264697066735822122068ff7f09f91aceb484a19dbab11aea6efe0f7d5a8a1f1a6c1294211d3e9f01ff64736f6c63430008040033",
  "immutableReferences": {},
  "source": "// SPDX-License-Identifier: Unlicensed\npragma solidity =0.8.4;\n\n\nimport './PocketSwapPair.sol';\nimport './interfaces/IPocketSwapFactory.sol';\nimport './libraries/PairAddress.sol';\n\ncontract PocketSwapFactory is IPocketSwapFactory {\n    address public override feeSetter;\n    uint256 public override fee = 3e6; // 1e9 = 100%; 1e8 = 10%; 1e7 = 1%; 1e6 = 0.1% ....\n\n    mapping(address => mapping(address => address)) public override getPair;\n    address[] public override allPairs;\n\n    constructor() {\n        feeSetter = msg.sender;\n    }\n\n    function allPairsLength() external override view returns (uint) {\n        return allPairs.length;\n    }\n\n    function createPair(address tokenA, address tokenB) external override returns (address pair) {\n        require(tokenA != tokenB, 'PocketSwap:IDENTICAL_ADDRESSES');\n        (address token0, address token1) = tokenA < tokenB ? (tokenA, tokenB) : (tokenB, tokenA);\n        require(token0 != address(0), 'PocketSwap:ZERO_ADDRESS');\n        require(getPair[token0][token1] == address(0), 'PocketSwap:PAIR_EXISTS'); // single check is sufficient\n        bytes memory bytecode = type(PocketSwapPair).creationCode;\n        bytes32 salt = keccak256(abi.encodePacked(token0, token1));\n        assembly {\n            pair := create2(0, add(bytecode, 32), mload(bytecode), salt)\n        }\n\n        PocketSwapPair(pair).initialize(token0, token1);\n        getPair[token0][token1] = pair;\n        getPair[token1][token0] = pair; // populate mapping in the reverse direction\n        allPairs.push(pair);\n\n        require(pair == PairAddress.computeAddress(address(this), token0, token1), \"WWZ\");\n        require(pair == PairAddress.computeAddress(address(this), token1, token0), \"WWZ\");\n\n        emit PairCreated(token0, token1, pair, allPairs.length);\n    }\n\n    function setFee(uint256 _fee) external override {\n        require(msg.sender == feeSetter, 'PocketSwap:FORBIDDEN');\n        require(_fee < 1e18, 'PocketSwap:BIG_FEE');\n        fee = _fee;\n    }\n\n    function setFeeSetter(address _feeSetter) external override {\n        require(msg.sender == feeSetter, 'PocketSwap:FORBIDDEN');\n        feeSetter = _feeSetter;\n    }\n\n    function holdersFee() external view override returns(uint256) {\n        return fee * 5 / 30; // POCKET holders are getting 5/30 of the fees\n    }\n}\n",
  "sourcePath": "/Users/ilyk/projects/midgardtech/xpocket-PocketSwap/contracts/pocketswap/PocketSwapFactory.sol",
  "compiler": {
    "name": "solc",
    "version": "0.8.4+commit.c7e474f2.Emscripten.clang"
  },
  "schemaVersion": "3.4.0",
  "updatedAt": "2021-05-12T06:40:42.199Z",
  "devdoc": {
    "kind": "dev",
    "methods": {},
    "version": 1
  },
  "userdoc": {
    "kind": "user",
    "methods": {},
    "version": 1
  }
}