{
  "contractName": "PocketSwapFactory",
  "abi": [
    {
      "inputs": [
        {
          "internalType": "address",
          "name": "_feeSetter",
          "type": "address"
        }
      ],
      "stateMutability": "nonpayable",
      "type": "constructor"
    },
    {
      "anonymous": false,
      "inputs": [
        {
          "indexed": true,
          "internalType": "address",
          "name": "token0",
          "type": "address"
        },
        {
          "indexed": true,
          "internalType": "address",
          "name": "token1",
          "type": "address"
        },
        {
          "indexed": false,
          "internalType": "address",
          "name": "pair",
          "type": "address"
        },
        {
          "indexed": false,
          "internalType": "uint256",
          "name": "",
          "type": "uint256"
        }
      ],
      "name": "PairCreated",
      "type": "event"
    },
    {
      "inputs": [
        {
          "internalType": "uint256",
          "name": "",
          "type": "uint256"
        }
      ],
      "name": "allPairs",
      "outputs": [
        {
          "internalType": "address",
          "name": "",
          "type": "address"
        }
      ],
      "stateMutability": "view",
      "type": "function"
    },
    {
      "inputs": [],
      "name": "fee",
      "outputs": [
        {
          "internalType": "uint256",
          "name": "",
          "type": "uint256"
        }
      ],
      "stateMutability": "view",
      "type": "function"
    },
    {
      "inputs": [],
      "name": "feeSetter",
      "outputs": [
        {
          "internalType": "address",
          "name": "",
          "type": "address"
        }
      ],
      "stateMutability": "view",
      "type": "function"
    },
    {
      "inputs": [
        {
          "internalType": "address",
          "name": "",
          "type": "address"
        },
        {
          "internalType": "address",
          "name": "",
          "type": "address"
        }
      ],
      "name": "getPair",
      "outputs": [
        {
          "internalType": "address",
          "name": "",
          "type": "address"
        }
      ],
      "stateMutability": "view",
      "type": "function"
    },
    {
      "inputs": [],
      "name": "allPairsLength",
      "outputs": [
        {
          "internalType": "uint256",
          "name": "",
          "type": "uint256"
        }
      ],
      "stateMutability": "view",
      "type": "function"
    },
    {
      "inputs": [
        {
          "internalType": "address",
          "name": "tokenA",
          "type": "address"
        },
        {
          "internalType": "address",
          "name": "tokenB",
          "type": "address"
        }
      ],
      "name": "createPair",
      "outputs": [
        {
          "internalType": "address",
          "name": "pair",
          "type": "address"
        }
      ],
      "stateMutability": "nonpayable",
      "type": "function"
    },
    {
      "inputs": [
        {
          "internalType": "uint256",
          "name": "_fee",
          "type": "uint256"
        }
      ],
      "name": "setFee",
      "outputs": [],
      "stateMutability": "nonpayable",
      "type": "function"
    },
    {
      "inputs": [
        {
          "internalType": "address",
          "name": "_feeSetter",
          "type": "address"
        }
      ],
      "name": "setFeeSetter",
      "outputs": [],
      "stateMutability": "nonpayable",
      "type": "function"
    }
  ],
  "bytecode": "0x6080604052622dc6c060015534801561001757600080fd5b50604051612a56380380612a568339818101604052602081101561003a57600080fd5b5051600080546001600160a01b039092166001600160a01b03199092169190911790556129ea8061006c6000396000f3fe608060405234801561001057600080fd5b50600436106100885760003560e01c8063b19805af1161005b578063b19805af14610107578063c9c653961461012d578063ddca3f431461015b578063e6a439051461016357610088565b80631e3dd18b1461008d578063574f2ba3146100c657806369fe0e2d146100e057806387cf3ef4146100ff575b600080fd5b6100aa600480360360208110156100a357600080fd5b5035610191565b604080516001600160a01b039092168252519081900360200190f35b6100ce6101bb565b60408051918252519081900360200190f35b6100fd600480360360208110156100f657600080fd5b50356101c1565b005b6100aa61026d565b6100fd6004803603602081101561011d57600080fd5b50356001600160a01b031661027c565b6100aa6004803603604081101561014357600080fd5b506001600160a01b03813581169160200135166102f4565b6100ce61061f565b6100aa6004803603604081101561017957600080fd5b506001600160a01b0381358116916020013516610625565b600381815481106101a157600080fd5b6000918252602090912001546001600160a01b0316905081565b60035490565b6000546001600160a01b03163314610217576040805162461bcd60e51b81526020600482015260146024820152732837b1b5b2ba29bbb0b81d2327a92124a22222a760611b604482015290519081900360640190fd5b670de0b6b3a76400008110610268576040805162461bcd60e51b8152602060048201526012602482015271506f636b6574537761703a4249475f46454560701b604482015290519081900360640190fd5b600155565b6000546001600160a01b031681565b6000546001600160a01b031633146102d2576040805162461bcd60e51b81526020600482015260146024820152732837b1b5b2ba29bbb0b81d2327a92124a22222a760611b604482015290519081900360640190fd5b600080546001600160a01b0319166001600160a01b0392909216919091179055565b6000816001600160a01b0316836001600160a01b0316141561035d576040805162461bcd60e51b815260206004820152601e60248201527f506f636b6574537761703a4944454e544943414c5f4144445245535345530000604482015290519081900360640190fd5b600080836001600160a01b0316856001600160a01b031610610380578385610383565b84845b90925090506001600160a01b0382166103e3576040805162461bcd60e51b815260206004820152601760248201527f506f636b6574537761703a5a45524f5f41444452455353000000000000000000604482015290519081900360640190fd5b6001600160a01b03828116600090815260026020908152604080832085851684529091529020541615610456576040805162461bcd60e51b8152602060048201526016602482015275506f636b6574537761703a504149525f45584953545360501b604482015290519081900360640190fd5b6000604051806020016104689061064b565b6020820181038252601f19601f8201166040525090506000838360405160200180836001600160a01b031660601b8152601401826001600160a01b031660601b815260140192505050604051602081830303815290604052805190602001209050808251602084016000f59450846001600160a01b031663485cc95585856040518363ffffffff1660e01b815260040180836001600160a01b03168152602001826001600160a01b0316815260200192505050600060405180830381600087803b15801561053557600080fd5b505af1158015610549573d6000803e3d6000fd5b505050506001600160a01b0384811660008181526002602081815260408084208987168086529083528185208054978d166001600160a01b031998891681179091559383528185208686528352818520805488168517905560038054600181018255958190527fc2575a0e9e593c00f959f8c92f12db2869c3395a3b0502d05e2516446f71f85b90950180549097168417909655925483519283529082015281517f0d3648bd0f6ba80134a33ba9275ac585d9d315f0ad8355cddefde31afa28d0e9929181900390910190a35050505092915050565b60015481565b60026020908152600092835260408084209091529082529020546001600160a01b031681565b61235c806106598339019056fe60806040526001600b5534801561001557600080fd5b50604080518082018252600a8152690506f636b6574537761760b41b6020918201528151808301835260018152603160f81b9082015281517f8b73c3c69bb8fe3d512ecc4cf759cc79239f7b179b0ffacaa9a75d522b39400f818301527f139f1c71b7c3168b7aeac519a0d6ee819b7e7428c66952642d99299cb2a31352818401527fc89efdaa54c0f20c7adf612882df0950f5a951637e0307cdcb4c672f298b8bc660608201524660808201523060a0808301919091528351808303909101815260c09091019092528151910120600355600580546001600160a01b03191633179055612254806101086000396000f3fe608060405234801561001057600080fd5b506004361061018e5760003560e01c80636a627842116100de578063ba9a7a5611610097578063d21220a711610071578063d21220a714610511578063d505accf14610519578063dd62ed3e1461056a578063fff6cae9146105985761018e565b8063ba9a7a56146104db578063bc25cf77146104e3578063c45a0155146105095761018e565b80636a627842146103f657806370a082311461041c5780637ecebe001461044257806389afcb441461046857806395d89b41146104a7578063a9059cbb146104af5761018e565b806323b872dd1161014b5780633644e515116101255780633644e515146103b0578063485cc955146103b85780635909c0d5146103e65780635a3d5493146103ee5761018e565b806323b872dd1461035457806330adf81f1461038a578063313ce567146103925761018e565b8063022c0d9f1461019357806306fdde03146102215780630902f1ac1461029e578063095ea7b3146102d65780630dfe16811461031657806318160ddd1461033a575b600080fd5b61021f600480360360808110156101a957600080fd5b8135916020810135916001600160a01b0360408301351691908101906080810160608201356401000000008111156101e057600080fd5b8201836020820111156101f257600080fd5b8035906020019184600183028401116401000000008311171561021457600080fd5b5090925090506105a0565b005b610229610c4c565b6040805160208082528351818301528351919283929083019185019080838360005b8381101561026357818101518382015260200161024b565b50505050905090810190601f1680156102905780820380516001836020036101000a031916815260200191505b509250505060405180910390f35b6102a6610c72565b604080516001600160701b03948516815292909316602083015263ffffffff168183015290519081900360600190f35b610302600480360360408110156102ec57600080fd5b506001600160a01b038135169060200135610c9c565b604080519115158252519081900360200190f35b61031e610cb3565b604080516001600160a01b039092168252519081900360200190f35b610342610cc2565b60408051918252519081900360200190f35b6103026004803603606081101561036a57600080fd5b506001600160a01b03813581169160208101359091169060400135610cc8565b610342610d5c565b61039a610d80565b6040805160ff9092168252519081900360200190f35b610342610d85565b61021f600480360360408110156103ce57600080fd5b506001600160a01b0381358116916020013516610d8b565b610342610e10565b610342610e16565b6103426004803603602081101561040c57600080fd5b50356001600160a01b0316610e1c565b6103426004803603602081101561043257600080fd5b50356001600160a01b03166110c0565b6103426004803603602081101561045857600080fd5b50356001600160a01b03166110d2565b61048e6004803603602081101561047e57600080fd5b50356001600160a01b03166110e4565b6040805192835260208301919091528051918290030190f35b610229611441565b610302600480360360408110156104c557600080fd5b506001600160a01b038135169060200135611464565b610342611471565b61021f600480360360208110156104f957600080fd5b50356001600160a01b0316611477565b61031e6115ea565b61031e6115f9565b61021f600480360360e081101561052f57600080fd5b506001600160a01b03813581169160208101359091169060408101359060608101359060ff6080820135169060a08101359060c00135611608565b6103426004803603604081101561058057600080fd5b506001600160a01b038135811691602001351661180b565b61021f611828565b600b546001146105ec576040805162461bcd60e51b8152602060048201526012602482015271141bd8dad95d14ddd85c0e881313d0d2d15160721b604482015290519081900360640190fd5b6000600b55841515806105ff5750600084115b61063a5760405162461bcd60e51b81526004018080602001828103825260268152602001806121d06026913960400191505060405180910390fd5b600080610645610c72565b5091509150816001600160701b03168710801561066a5750806001600160701b031686105b6106a55760405162461bcd60e51b81526004018080602001828103825260228152602001806121ae6022913960400191505060405180910390fd5b60065460075460009182916001600160a01b039182169190811690891682148015906106e35750806001600160a01b0316896001600160a01b031614155b61072d576040805162461bcd60e51b8152602060048201526016602482015275506f636b6574537761703a20494e56414c49445f544f60501b604482015290519081900360640190fd5b8a1561073e5761073e828a8d61198b565b891561074f5761074f818a8c61198b565b861561092957336001600160a01b0316637936cd908c8c8b8b6040518563ffffffff1660e01b815260040180858152602001848152602001806020018281038252848482818152602001925080828437600081840152601f19601f82011690508083019250505095505050505050600060405180830381600087803b1580156107d757600080fd5b505af19250505080156107e8575060015b610929576107f46120b9565b806107ff57506108f2565b8060405160200180806402727a59d160dd1b81525060050182805190602001908083835b602083106108425780518252601f199092019160209182019101610823565b51815160209384036101000a60001901801990921691161790526040805192909401828103601f190183529384905262461bcd60e51b84526004840181815282516024860152825192965094508493604401925085019080838360005b838110156108b757818101518382015260200161089f565b50505050905090810190601f1680156108e45780820380516001836020036101000a031916815260200191505b509250505060405180910390fd5b6040805162461bcd60e51b8152602060048201526007602482015266554e4b4e574e2160c81b604482015290519081900360640190fd5b604080516370a0823160e01b815230600482015290516001600160a01b038416916370a08231916024808301926020929190829003018186803b15801561096f57600080fd5b505afa158015610983573d6000803e3d6000fd5b505050506040513d602081101561099957600080fd5b5051604080516370a0823160e01b815230600482015290519195506001600160a01b038316916370a0823191602480820192602092909190829003018186803b1580156109e557600080fd5b505afa1580156109f9573d6000803e3d6000fd5b505050506040513d6020811015610a0f57600080fd5b5051925060009150506001600160701b0385168a90038311610a32576000610a41565b89856001600160701b03160383035b9050600089856001600160701b0316038311610a5e576000610a6d565b89856001600160701b03160383035b90506000821180610a7e5750600081115b610ab95760405162461bcd60e51b81526004018080602001828103825260258152602001806121606025913960400191505060405180910390fd5b6005546040805163ddca3f4360e01b815290516000926001600160a01b03169163ddca3f43916004808301926020929190829003018186803b158015610afe57600080fd5b505afa158015610b12573d6000803e3d6000fd5b505050506040513d6020811015610b2857600080fd5b505190506000610b4f610b3b8584611b24565b610b4988633b9aca00611b24565b90611b87565b90506000610b60610b3b8585611b24565b9050610b8a670de0b6b3a7640000610b846001600160701b038c8116908c16611b24565b90611b24565b610b948383611b24565b1015610bd7576040805162461bcd60e51b815260206004820152600d60248201526c506f636b6574537761703a204b60981b604482015290519081900360640190fd5b505050610be684848888611bd7565b60408051838152602081018390528082018d9052606081018c905290516001600160a01b038b169133917fd78ad95fa46c994b6551d0da85fc275fe613ce37657fb8d5e3d130840159d8229181900360800190a350506001600b55505050505050505050565b6040518060400160405280600a8152602001690506f636b6574537761760b41b81525081565b600a546001600160701b0380821692600160701b830490911691600160e01b900463ffffffff1690565b6000610ca9338484611d97565b5060015b92915050565b6006546001600160a01b031681565b60005481565b6001600160a01b038316600090815260026020908152604080832033845290915281205460001914610d47576001600160a01b0384166000908152600260209081526040808320338452909152902054610d229083611b87565b6001600160a01b03851660009081526002602090815260408083203384529091529020555b610d52848484611df9565b5060019392505050565b7f6e71edae12b1b97f4d1f60370fef10105fa2faae0126114a169c64845d6126c981565b601281565b60035481565b6005546001600160a01b03163314610de2576040805162461bcd60e51b81526020600482015260156024820152742837b1b5b2ba29bbb0b81d102327a92124a22222a760591b604482015290519081900360640190fd5b600680546001600160a01b039384166001600160a01b03199182161790915560078054929093169116179055565b60085481565b60095481565b6000600b54600114610e6a576040805162461bcd60e51b8152602060048201526012602482015271141bd8dad95d14ddd85c0e881313d0d2d15160721b604482015290519081900360640190fd5b6000600b81905580610e7a610c72565b50600654604080516370a0823160e01b815230600482015290519395509193506000926001600160a01b03909116916370a08231916024808301926020929190829003018186803b158015610ece57600080fd5b505afa158015610ee2573d6000803e3d6000fd5b505050506040513d6020811015610ef857600080fd5b5051600754604080516370a0823160e01b815230600482015290519293506000926001600160a01b03909216916370a0823191602480820192602092909190829003018186803b158015610f4b57600080fd5b505afa158015610f5f573d6000803e3d6000fd5b505050506040513d6020811015610f7557600080fd5b505190506000610f8e836001600160701b038716611b87565b90506000610fa5836001600160701b038716611b87565b60005490915080610fdc57610fc86103e8610b49610fc38686611b24565b611ea7565b9750610fd760006103e8611ef9565b61101f565b61101c6001600160701b038816610ff38584611b24565b81610ffa57fe5b046001600160701b03881661100f8585611b24565b8161101657fe5b04611f83565b97505b6000881161105e5760405162461bcd60e51b81526004018080602001828103825260298152602001806121856029913960400191505060405180910390fd5b6110688989611ef9565b61107485858989611bd7565b6040805184815260208101849052815133927f4c209b5fc8ad50758f13e2e1088ba56a560dff690a1c6fef26394f4c03821c4f928290030190a250506001600b55509395945050505050565b60016020526000908152604090205481565b60046020526000908152604090205481565b600080600b54600114611133576040805162461bcd60e51b8152602060048201526012602482015271141bd8dad95d14ddd85c0e881313d0d2d15160721b604482015290519081900360640190fd5b6000600b81905580611143610c72565b50600654600754604080516370a0823160e01b815230600482015290519496509294506001600160a01b039182169391169160009184916370a08231916024808301926020929190829003018186803b15801561119f57600080fd5b505afa1580156111b3573d6000803e3d6000fd5b505050506040513d60208110156111c957600080fd5b5051604080516370a0823160e01b815230600482015290519192506000916001600160a01b038516916370a08231916024808301926020929190829003018186803b15801561121757600080fd5b505afa15801561122b573d6000803e3d6000fd5b505050506040513d602081101561124157600080fd5b505130600090815260016020526040812054905491925090806112648386611b24565b8161126b57fe5b049950806112798385611b24565b8161128057fe5b04985060008a1180156112935750600089115b6112ce5760405162461bcd60e51b81526004018080602001828103825260298152602001806121f66029913960400191505060405180910390fd5b6112d83083611f9b565b6112e3868c8c61198b565b6112ee858c8b61198b565b604080516370a0823160e01b815230600482015290516001600160a01b038816916370a08231916024808301926020929190829003018186803b15801561133457600080fd5b505afa158015611348573d6000803e3d6000fd5b505050506040513d602081101561135e57600080fd5b5051604080516370a0823160e01b815230600482015290519195506001600160a01b038716916370a0823191602480820192602092909190829003018186803b1580156113aa57600080fd5b505afa1580156113be573d6000803e3d6000fd5b505050506040513d60208110156113d457600080fd5b505192506113e484848a8a611bd7565b604080518b8152602081018b905281516001600160a01b038e169233927fdccd412f0b1252819cb1fd330b93224ca42612892bb3f4f789976e6d81936496929081900390910190a350505050505050506001600b81905550915091565b60405180604001604052806007815260200166282996a820a4a960c91b81525081565b6000610ca9338484611df9565b6103e881565b600b546001146114c3576040805162461bcd60e51b8152602060048201526012602482015271141bd8dad95d14ddd85c0e881313d0d2d15160721b604482015290519081900360640190fd5b6000600b55600654600754600a54604080516370a0823160e01b815230600482015290516001600160a01b03948516949093169261156c9285928792611567926001600160701b03169185916370a0823191602480820192602092909190829003018186803b15801561153557600080fd5b505afa158015611549573d6000803e3d6000fd5b505050506040513d602081101561155f57600080fd5b505190611b87565b61198b565b6115e08184611567600a600e9054906101000a90046001600160701b03166001600160701b0316856001600160a01b03166370a08231306040518263ffffffff1660e01b815260040180826001600160a01b0316815260200191505060206040518083038186803b15801561153557600080fd5b50506001600b5550565b6005546001600160a01b031681565b6007546001600160a01b031681565b42841015611653576040805162461bcd60e51b8152602060048201526013602482015272141bd8dad95d14ddd85c0e8811561412549151606a1b604482015290519081900360640190fd5b6003546001600160a01b0380891660008181526004602090815260408083208054600180820190925582517f6e71edae12b1b97f4d1f60370fef10105fa2faae0126114a169c64845d6126c98186015280840196909652958d166060860152608085018c905260a085019590955260c08085018b90528151808603909101815260e08501825280519083012061190160f01b6101008601526101028501969096526101228085019690965280518085039096018652610142840180825286519683019690962095839052610162840180825286905260ff89166101828501526101a284018890526101c28401879052519193926101e280820193601f1981019281900390910190855afa15801561176e573d6000803e3d6000fd5b5050604051601f1901519150506001600160a01b038116158015906117a45750886001600160a01b0316816001600160a01b0316145b6117f5576040805162461bcd60e51b815260206004820152601d60248201527f506f636b6574537761703a20494e56414c49445f5349474e4154555245000000604482015290519081900360640190fd5b611800898989611d97565b505050505050505050565b600260209081526000928352604080842090915290825290205481565b600b54600114611874576040805162461bcd60e51b8152602060048201526012602482015271141bd8dad95d14ddd85c0e881313d0d2d15160721b604482015290519081900360640190fd5b6000600b55600654604080516370a0823160e01b81523060048201529051611984926001600160a01b0316916370a08231916024808301926020929190829003018186803b1580156118c557600080fd5b505afa1580156118d9573d6000803e3d6000fd5b505050506040513d60208110156118ef57600080fd5b5051600754604080516370a0823160e01b815230600482015290516001600160a01b03909216916370a0823191602480820192602092909190829003018186803b15801561193c57600080fd5b505afa158015611950573d6000803e3d6000fd5b505050506040513d602081101561196657600080fd5b5051600a546001600160701b0380821691600160701b900416611bd7565b6001600b55565b604080518082018252601981527f7472616e7366657228616464726573732c75696e74323536290000000000000060209182015281516001600160a01b0385811660248301526044808301869052845180840390910181526064909201845291810180516001600160e01b031663a9059cbb60e01b17815292518151600094859489169392918291908083835b60208310611a375780518252601f199092019160209182019101611a18565b6001836020036101000a0380198251168184511680821785525050505050509050019150506000604051808303816000865af19150503d8060008114611a99576040519150601f19603f3d011682016040523d82523d6000602084013e611a9e565b606091505b5091509150818015611acc575080511580611acc5750808060200190516020811015611ac957600080fd5b50515b611b1d576040805162461bcd60e51b815260206004820152601b60248201527f506f636b6574537761703a205452414e534645525f4641494c45440000000000604482015290519081900360640190fd5b5050505050565b6000811580611b3f57505080820282828281611b3c57fe5b04145b610cad576040805162461bcd60e51b815260206004820152601460248201527364732d6d6174682d6d756c2d6f766572666c6f7760601b604482015290519081900360640190fd5b80820382811115610cad576040805162461bcd60e51b815260206004820152601560248201527464732d6d6174682d7375622d756e646572666c6f7760581b604482015290519081900360640190fd5b6001600160701b038411801590611bf557506001600160701b038311155b611c3d576040805162461bcd60e51b8152602060048201526014602482015273506f636b6574537761703a204f564552464c4f5760601b604482015290519081900360640190fd5b600a5463ffffffff42811691600160e01b90048116820390811615801590611c6d57506001600160701b03841615155b8015611c8157506001600160701b03831615155b15611cec578063ffffffff16611ca985611c9a8661202d565b6001600160e01b03169061203f565b600880546001600160e01b03929092169290920201905563ffffffff8116611cd484611c9a8761202d565b600980546001600160e01b0392909216929092020190555b600a80546dffffffffffffffffffffffffffff19166001600160701b03888116919091176dffffffffffffffffffffffffffff60701b1916600160701b8883168102919091176001600160e01b0316600160e01b63ffffffff871602179283905560408051848416815291909304909116602082015281517f1c411e9a96e071241c2f21f7726b17ae89e3cab4c78be50e062b03a9fffbbad1929181900390910190a1505050505050565b6001600160a01b03808416600081815260026020908152604080832094871680845294825291829020859055815185815291517f8c5be1e5ebec7d5bd14f71427d1e84f3dd0314c0f7b2291e5b200ac8c7c3b9259281900390910190a3505050565b6001600160a01b038316600090815260016020526040902054611e1c9082611b87565b6001600160a01b038085166000908152600160205260408082209390935590841681522054611e4b9082612064565b6001600160a01b0380841660008181526001602090815260409182902094909455805185815290519193928716927fddf252ad1be2c89b69c2b068fc378daa952ba7f163c4a11628f55a4df523b3ef92918290030190a3505050565b60006003821115611eea575080600160028204015b81811015611ee457809150600281828581611ed357fe5b040181611edc57fe5b049050611ebc565b50611ef4565b8115611ef4575060015b919050565b600054611f069082612064565b60009081556001600160a01b038316815260016020526040902054611f2b9082612064565b6001600160a01b03831660008181526001602090815260408083209490945583518581529351929391927fddf252ad1be2c89b69c2b068fc378daa952ba7f163c4a11628f55a4df523b3ef9281900390910190a35050565b6000818310611f925781611f94565b825b9392505050565b6001600160a01b038216600090815260016020526040902054611fbe9082611b87565b6001600160a01b03831660009081526001602052604081209190915554611fe59082611b87565b60009081556040805183815290516001600160a01b038516917fddf252ad1be2c89b69c2b068fc378daa952ba7f163c4a11628f55a4df523b3ef919081900360200190a35050565b6001600160701b0316600160701b0290565b60006001600160701b0382166001600160e01b0384168161205c57fe5b049392505050565b80820182811015610cad576040805162461bcd60e51b815260206004820152601460248201527364732d6d6174682d6164642d6f766572666c6f7760601b604482015290519081900360640190fd5b60e01c90565b600060443d10156120c95761215c565b600481823e6308c379a06120dd82516120b3565b146120e75761215c565b6040513d600319016004823e80513d67ffffffffffffffff8160248401118184111715612117575050505061215c565b82840192508251915080821115612131575050505061215c565b503d830160208284010111156121495750505061215c565b601f01601f191681016020016040529150505b9056fe506f636b6574537761703a20494e53554646494349454e545f494e5055545f414d4f554e54506f636b6574537761703a20494e53554646494349454e545f4c49515549444954595f4d494e544544506f636b6574537761703a20494e53554646494349454e545f4c4951554944495459506f636b6574537761703a20494e53554646494349454e545f4f55545055545f414d4f554e54506f636b6574537761703a20494e53554646494349454e545f4c49515549444954595f4255524e4544a2646970667358221220c0d6f5e1cf82da094e39d23786b3a590eb912b1f903d0de70812b3881024640164736f6c63430007060033a264697066735822122050970468b7a3378ceefa33a8399f112f03b163e2cf2bdad2a9218ee8f42804ee64736f6c63430007060033",
  "immutableReferences": {},
  "source": "// SPDX-License-Identifier: Unlicensed\npragma solidity >=0.6.12;\n\n\nimport './PocketSwapPair.sol';\nimport './interfaces/IPocketSwapFactory.sol';\n\ncontract PocketSwapFactory is IPocketSwapFactory {\n    address public override feeSetter;\n    uint256 public override fee = 3e6; // 1e9 = 100%; 1e8 = 10%; 1e7 = 1%; 1e6 = 0.1% ....\n\n    mapping(address => mapping(address => address)) public override getPair;\n    address[] public override allPairs;\n\n    constructor(address _feeSetter) {\n        feeSetter = _feeSetter;\n    }\n\n    function allPairsLength() external override view returns (uint) {\n        return allPairs.length;\n    }\n\n    function createPair(address tokenA, address tokenB) external override returns (address pair) {\n        require(tokenA != tokenB, 'PocketSwap:IDENTICAL_ADDRESSES');\n        (address token0, address token1) = tokenA < tokenB ? (tokenA, tokenB) : (tokenB, tokenA);\n        require(token0 != address(0), 'PocketSwap:ZERO_ADDRESS');\n        require(getPair[token0][token1] == address(0), 'PocketSwap:PAIR_EXISTS'); // single check is sufficient\n        bytes memory bytecode = type(PocketSwapPair).creationCode;\n        bytes32 salt = keccak256(abi.encodePacked(token0, token1));\n        assembly {\n            pair := create2(0, add(bytecode, 32), mload(bytecode), salt)\n        }\n\n        PocketSwapPair(pair).initialize(token0, token1);\n        getPair[token0][token1] = pair;\n        getPair[token1][token0] = pair; // populate mapping in the reverse direction\n        allPairs.push(pair);\n        emit PairCreated(token0, token1, pair, allPairs.length);\n    }\n\n    function setFee(uint256 _fee) external override {\n        require(msg.sender == feeSetter, 'PocketSwap:FORBIDDEN');\n        require(_fee < 1e18, 'PocketSwap:BIG_FEE');\n        fee = _fee;\n    }\n\n    function setFeeSetter(address _feeSetter) external override {\n        require(msg.sender == feeSetter, 'PocketSwap:FORBIDDEN');\n        feeSetter = _feeSetter;\n    }\n}\n",
  "sourcePath": "/Users/ilyk/projects/midgardtech/xpocket-PocketSwap/contracts/pocketswap/PocketSwapFactory.sol",
  "compiler": {
    "name": "solc",
    "version": "0.7.6+commit.7338295f.Emscripten.clang"
  },
  "schemaVersion": "3.3.4",
  "updatedAt": "2021-04-29T12:13:15.468Z",
  "devdoc": {
    "kind": "dev",
    "methods": {},
    "version": 1
  },
  "userdoc": {
    "kind": "user",
    "methods": {},
    "version": 1
  }
}