{
  "contractName": "PocketSwapFactory",
  "abi": [
    {
      "inputs": [
        {
          "internalType": "address",
          "name": "_pocketAddress",
          "type": "address"
        }
      ],
      "stateMutability": "nonpayable",
      "type": "constructor"
    },
    {
      "anonymous": false,
      "inputs": [
        {
          "indexed": false,
          "internalType": "address",
          "name": "oldFeeSetter",
          "type": "address"
        },
        {
          "indexed": false,
          "internalType": "address",
          "name": "newFeeSetter",
          "type": "address"
        }
      ],
      "name": "FeeSetterUpdated",
      "type": "event"
    },
    {
      "anonymous": false,
      "inputs": [
        {
          "indexed": false,
          "internalType": "uint256",
          "name": "oldFee",
          "type": "uint256"
        },
        {
          "indexed": false,
          "internalType": "uint256",
          "name": "newFee",
          "type": "uint256"
        }
      ],
      "name": "FeeUpdated",
      "type": "event"
    },
    {
      "anonymous": false,
      "inputs": [
        {
          "indexed": true,
          "internalType": "address",
          "name": "token0",
          "type": "address"
        },
        {
          "indexed": true,
          "internalType": "address",
          "name": "token1",
          "type": "address"
        },
        {
          "indexed": false,
          "internalType": "address",
          "name": "pair",
          "type": "address"
        },
        {
          "indexed": false,
          "internalType": "uint256",
          "name": "",
          "type": "uint256"
        }
      ],
      "name": "PairCreated",
      "type": "event"
    },
    {
      "inputs": [
        {
          "internalType": "uint256",
          "name": "",
          "type": "uint256"
        }
      ],
      "name": "allPairs",
      "outputs": [
        {
          "internalType": "address",
          "name": "",
          "type": "address"
        }
      ],
      "stateMutability": "view",
      "type": "function",
      "constant": true
    },
    {
      "inputs": [],
      "name": "fee",
      "outputs": [
        {
          "internalType": "uint256",
          "name": "",
          "type": "uint256"
        }
      ],
      "stateMutability": "view",
      "type": "function",
      "constant": true
    },
    {
      "inputs": [],
      "name": "feeSetter",
      "outputs": [
        {
          "internalType": "address",
          "name": "",
          "type": "address"
        }
      ],
      "stateMutability": "view",
      "type": "function",
      "constant": true
    },
    {
      "inputs": [
        {
          "internalType": "address",
          "name": "",
          "type": "address"
        },
        {
          "internalType": "address",
          "name": "",
          "type": "address"
        }
      ],
      "name": "getPair",
      "outputs": [
        {
          "internalType": "address",
          "name": "",
          "type": "address"
        }
      ],
      "stateMutability": "view",
      "type": "function",
      "constant": true
    },
    {
      "inputs": [],
      "name": "pocketAddress",
      "outputs": [
        {
          "internalType": "address",
          "name": "",
          "type": "address"
        }
      ],
      "stateMutability": "view",
      "type": "function",
      "constant": true
    },
    {
      "inputs": [],
      "name": "PAIR_INIT_CODE_HASH",
      "outputs": [
        {
          "internalType": "bytes32",
          "name": "",
          "type": "bytes32"
        }
      ],
      "stateMutability": "pure",
      "type": "function",
      "constant": true
    },
    {
      "inputs": [],
      "name": "allPairsLength",
      "outputs": [
        {
          "internalType": "uint256",
          "name": "",
          "type": "uint256"
        }
      ],
      "stateMutability": "view",
      "type": "function",
      "constant": true
    },
    {
      "inputs": [
        {
          "internalType": "address",
          "name": "tokenA",
          "type": "address"
        },
        {
          "internalType": "address",
          "name": "tokenB",
          "type": "address"
        }
      ],
      "name": "createPair",
      "outputs": [
        {
          "internalType": "address",
          "name": "pair",
          "type": "address"
        }
      ],
      "stateMutability": "nonpayable",
      "type": "function"
    },
    {
      "inputs": [
        {
          "internalType": "uint256",
          "name": "_fee",
          "type": "uint256"
        }
      ],
      "name": "setFee",
      "outputs": [],
      "stateMutability": "nonpayable",
      "type": "function"
    },
    {
      "inputs": [
        {
          "internalType": "address",
          "name": "_feeSetter",
          "type": "address"
        }
      ],
      "name": "setFeeSetter",
      "outputs": [],
      "stateMutability": "nonpayable",
      "type": "function"
    },
    {
      "inputs": [],
      "name": "holdersFee",
      "outputs": [
        {
          "internalType": "uint256",
          "name": "",
          "type": "uint256"
        }
      ],
      "stateMutability": "view",
      "type": "function",
      "constant": true
    }
  ],
  "bytecode": "0x60a0604052622dc6c060015534801561001757600080fd5b506040516145833803806145838339810160408190526100369161005f565b60008054336001600160a01b031990911617905560601b6001600160601b03191660805261008d565b600060208284031215610070578081fd5b81516001600160a01b0381168114610086578182fd5b9392505050565b60805160601c6144d86100ab600039600061017e01526144d86000f3fe608060405234801561001057600080fd5b50600436106100c95760003560e01c806387cf3ef411610081578063c9c653961161005b578063c9c65396146101a0578063ddca3f43146101b3578063e6a43905146101bc57600080fd5b806387cf3ef414610146578063b19805af14610166578063b8cb1c351461017957600080fd5b8063574f2ba3116100b2578063574f2ba31461012157806357b84f8c1461012957806369fe0e2d1461013157600080fd5b80631e3dd18b146100ce57806346870d2b1461010b575b600080fd5b6100e16100dc366004610cf1565b6101fd565b60405173ffffffffffffffffffffffffffffffffffffffff90911681526020015b60405180910390f35b610113610234565b604051908152602001610102565b600354610113565b610113610256565b61014461013f366004610cf1565b6102c3565b005b6000546100e19073ffffffffffffffffffffffffffffffffffffffff1681565b610144610174366004610c86565b6103fb565b6100e17f000000000000000000000000000000000000000000000000000000000000000081565b6100e16101ae366004610ca7565b610517565b61011360015481565b6100e16101ca366004610ca7565b600260209081526000928352604080842090915290825290205473ffffffffffffffffffffffffffffffffffffffff1681565b6003818154811061020d57600080fd5b60009182526020909120015473ffffffffffffffffffffffffffffffffffffffff16905081565b6000601e60015460056102479190610d7b565b6102519190610d42565b905090565b60006040518060200161026890610c50565b7fffffffffffffffffffffffffffffffffffffffffffffffffffffffffffffffe082820381018352601f9091011660408190526102a89190602001610d09565b60405160208183030381529060405280519060200120905090565b60005473ffffffffffffffffffffffffffffffffffffffff163314610349576040517f08c379a000000000000000000000000000000000000000000000000000000000815260206004820152601460248201527f506f636b6574537761703a464f5242494444454e00000000000000000000000060448201526064015b60405180910390fd5b670de0b6b3a764000081106103ba576040517f08c379a000000000000000000000000000000000000000000000000000000000815260206004820152601260248201527f506f636b6574537761703a4249475f46454500000000000000000000000000006044820152606401610340565b60015460408051918252602082018390527f528d9479e9f9889a87a3c30c7f7ba537e5e59c4c85a37733b16e57c62df61302910160405180910390a1600155565b60005473ffffffffffffffffffffffffffffffffffffffff16331461047c576040517f08c379a000000000000000000000000000000000000000000000000000000000815260206004820152601460248201527f506f636b6574537761703a464f5242494444454e0000000000000000000000006044820152606401610340565b6000546040805173ffffffffffffffffffffffffffffffffffffffff928316815291831660208301527f83b887657b0e2cbbed6d7b9468d78fe27ce257d950e1c7e36572b3a24f82e41c910160405180910390a1600080547fffffffffffffffffffffffff00000000000000000000000000000000000000001673ffffffffffffffffffffffffffffffffffffffff92909216919091179055565b60008173ffffffffffffffffffffffffffffffffffffffff168373ffffffffffffffffffffffffffffffffffffffff1614156105af576040517f08c379a000000000000000000000000000000000000000000000000000000000815260206004820152601e60248201527f506f636b6574537761703a4944454e544943414c5f41444452455353455300006044820152606401610340565b6000808373ffffffffffffffffffffffffffffffffffffffff168573ffffffffffffffffffffffffffffffffffffffff16106105ec5783856105ef565b84845b909250905073ffffffffffffffffffffffffffffffffffffffff8216610671576040517f08c379a000000000000000000000000000000000000000000000000000000000815260206004820152601760248201527f506f636b6574537761703a5a45524f5f414444524553530000000000000000006044820152606401610340565b73ffffffffffffffffffffffffffffffffffffffff82811660009081526002602090815260408083208585168452909152902054161561070d576040517f08c379a000000000000000000000000000000000000000000000000000000000815260206004820152601660248201527f506f636b6574537761703a504149525f455849535453000000000000000000006044820152606401610340565b60006040518060200161071f90610c50565b7fffffffffffffffffffffffffffffffffffffffffffffffffffffffffffffffe082820381018352601f9091011660408190527fffffffffffffffffffffffffffffffffffffffff000000000000000000000000606086811b8216602084015285901b166034820152909150600090604801604051602081830303815290604052805190602001209050808251602084016000f56040517f485cc95500000000000000000000000000000000000000000000000000000000815273ffffffffffffffffffffffffffffffffffffffff868116600483015285811660248301529196509086169063485cc95590604401600060405180830381600087803b15801561082857600080fd5b505af115801561083c573d6000803e3d6000fd5b50505073ffffffffffffffffffffffffffffffffffffffff80861660008181526002602081815260408084208a8716855282528084208054968d167fffffffffffffffffffffffff0000000000000000000000000000000000000000978816811790915592825280842094845293905291812080548416831790556003805460018101825591527fc2575a0e9e593c00f959f8c92f12db2869c3395a3b0502d05e2516446f71f85b018054909216179055506108f9308585610a91565b73ffffffffffffffffffffffffffffffffffffffff168573ffffffffffffffffffffffffffffffffffffffff161461098d576040517f08c379a000000000000000000000000000000000000000000000000000000000815260206004820152600360248201527f57575a00000000000000000000000000000000000000000000000000000000006044820152606401610340565b610998308486610a91565b73ffffffffffffffffffffffffffffffffffffffff168573ffffffffffffffffffffffffffffffffffffffff1614610a2c576040517f08c379a000000000000000000000000000000000000000000000000000000000815260206004820152600360248201527f57575a00000000000000000000000000000000000000000000000000000000006044820152606401610340565b6003546040805173ffffffffffffffffffffffffffffffffffffffff88811682526020820193909352828616928716917f0d3648bd0f6ba80134a33ba9275ac585d9d315f0ad8355cddefde31afa28d0e9910160405180910390a35050505092915050565b60008060008373ffffffffffffffffffffffffffffffffffffffff168573ffffffffffffffffffffffffffffffffffffffff1610610ad0578385610ad3565b84845b6040517fffffffffffffffffffffffffffffffffffffffff000000000000000000000000606084811b8216602084015283901b16603482015291935091508690604801604051602081830303815290604052805190602001208773ffffffffffffffffffffffffffffffffffffffff166357b84f8c6040518163ffffffff1660e01b815260040160206040518083038186803b158015610b7257600080fd5b505afa158015610b86573d6000803e3d6000fd5b505050506040513d601f19601f82011682018060405250810190610baa9190610cd9565b6040517fff00000000000000000000000000000000000000000000000000000000000000602082015260609390931b7fffffffffffffffffffffffffffffffffffffffff00000000000000000000000016602184015260358301919091526055820152607501604080517fffffffffffffffffffffffffffffffffffffffffffffffffffffffffffffffe081840301815291905280516020909101209695505050505050565b6136c580610dde83390190565b803573ffffffffffffffffffffffffffffffffffffffff81168114610c8157600080fd5b919050565b600060208284031215610c97578081fd5b610ca082610c5d565b9392505050565b60008060408385031215610cb9578081fd5b610cc283610c5d565b9150610cd060208401610c5d565b90509250929050565b600060208284031215610cea578081fd5b5051919050565b600060208284031215610d02578081fd5b5035919050565b60008251815b81811015610d295760208186018101518583015201610d0f565b81811115610d375782828501525b509190910192915050565b600082610d76577f4e487b710000000000000000000000000000000000000000000000000000000081526012600452602481fd5b500490565b6000817fffffffffffffffffffffffffffffffffffffffffffffffffffffffffffffffff0483118215151615610dd8577f4e487b710000000000000000000000000000000000000000000000000000000081526011600452602481fd5b50029056fe60806040526001600b5534801561001557600080fd5b50604080518082018252600a8152690506f636b6574537761760b41b6020918201528151808301835260018152603160f81b9082015281517f8b73c3c69bb8fe3d512ecc4cf759cc79239f7b179b0ffacaa9a75d522b39400f818301527f139f1c71b7c3168b7aeac519a0d6ee819b7e7428c66952642d99299cb2a31352818401527fc89efdaa54c0f20c7adf612882df0950f5a951637e0307cdcb4c672f298b8bc660608201524660808201523060a0808301919091528351808303909101815260c09091019092528151910120600355600580546001600160a01b031916331790556135bd806101086000396000f3fe608060405234801561001057600080fd5b50600436106101ae5760003560e01c80636a627842116100ee578063ba9a7a5611610097578063d21220a711610071578063d21220a714610487578063d505accf146104a7578063dd62ed3e146104ba578063fff6cae9146104e557600080fd5b8063ba9a7a561461044b578063bc25cf7714610454578063c45a01551461046757600080fd5b806389afcb44116100c857806389afcb44146103d457806395d89b41146103fc578063a9059cbb1461043857600080fd5b80636a6278421461038157806370a08231146103945780637ecebe00146103b457600080fd5b806323b872dd1161015b5780633644e515116101355780633644e51514610353578063485cc9551461035c5780635909c0d51461036f5780635a3d54931461037857600080fd5b806323b872dd146102ff57806330adf81f14610312578063313ce5671461033957600080fd5b8063095ea7b31161018c578063095ea7b3146102805780630dfe1681146102a357806318160ddd146102e857600080fd5b8063022c0d9f146101b357806306fdde03146101c85780630902f1ac1461021a575b600080fd5b6101c66101c1366004613269565b6104ed565b005b6102046040518060400160405280600a81526020017f506f636b6574537761700000000000000000000000000000000000000000000081525081565b6040516102119190613316565b60405180910390f35b600a54604080516dffffffffffffffffffffffffffff80841682526e01000000000000000000000000000084041660208201527c010000000000000000000000000000000000000000000000000000000090920463ffffffff1690820152606001610211565b61029361028e3660046131b8565b610dd9565b6040519015158152602001610211565b6006546102c39073ffffffffffffffffffffffffffffffffffffffff1681565b60405173ffffffffffffffffffffffffffffffffffffffff9091168152602001610211565b6102f160005481565b604051908152602001610211565b61029361030d366004613103565b610def565b6102f17f6e71edae12b1b97f4d1f60370fef10105fa2faae0126114a169c64845d6126c981565b610341601281565b60405160ff9091168152602001610211565b6102f160035481565b6101c661036a3660046130cb565b610ec8565b6102f160085481565b6102f160095481565b6102f161038f366004613093565b610f9c565b6102f16103a2366004613093565b60016020526000908152604090205481565b6102f16103c2366004613093565b60046020526000908152604090205481565b6103e76103e2366004613093565b611345565b60408051928352602083019190915201610211565b6102046040518060400160405280600781526020017f50532d504149520000000000000000000000000000000000000000000000000081525081565b6102936104463660046131b8565b6117ef565b6102f16103e881565b6101c6610462366004613093565b6117fc565b6005546102c39073ffffffffffffffffffffffffffffffffffffffff1681565b6007546102c39073ffffffffffffffffffffffffffffffffffffffff1681565b6101c66104b5366004613143565b6119ce565b6102f16104c83660046130cb565b600260209081526000928352604080842090915290825290205481565b6101c6611cb9565b600b5460011461055e576040517f08c379a000000000000000000000000000000000000000000000000000000000815260206004820152601260248201527f506f636b6574537761703a204c4f434b4544000000000000000000000000000060448201526064015b60405180910390fd5b6000600b55841515806105715750600084115b6105fd576040517f08c379a000000000000000000000000000000000000000000000000000000000815260206004820152602660248201527f506f636b6574537761703a20494e53554646494349454e545f4f55545055545f60448201527f414d4f554e5400000000000000000000000000000000000000000000000000006064820152608401610555565b600080610659600a546dffffffffffffffffffffffffffff808216926e01000000000000000000000000000083049091169163ffffffff7c01000000000000000000000000000000000000000000000000000000009091041690565b5091509150816dffffffffffffffffffffffffffff168710801561068c5750806dffffffffffffffffffffffffffff1686105b610718576040517f08c379a000000000000000000000000000000000000000000000000000000000815260206004820152602260248201527f506f636b6574537761703a20494e53554646494349454e545f4c49515549444960448201527f54590000000000000000000000000000000000000000000000000000000000006064820152608401610555565b600654600754600091829173ffffffffffffffffffffffffffffffffffffffff91821691908116908916821480159061077d57508073ffffffffffffffffffffffffffffffffffffffff168973ffffffffffffffffffffffffffffffffffffffff1614155b6107e3576040517f08c379a000000000000000000000000000000000000000000000000000000000815260206004820152601660248201527f506f636b6574537761703a20494e56414c49445f544f000000000000000000006044820152606401610555565b8a156107f4576107f4828a8d611ea3565b891561080557610805818a8c611ea3565b6040517f70a0823100000000000000000000000000000000000000000000000000000000815230600482015273ffffffffffffffffffffffffffffffffffffffff8316906370a082319060240160206040518083038186803b15801561086a57600080fd5b505afa15801561087e573d6000803e3d6000fd5b505050506040513d601f19601f820116820180604052508101906108a29190613251565b6040517f70a0823100000000000000000000000000000000000000000000000000000000815230600482015290945073ffffffffffffffffffffffffffffffffffffffff8216906370a082319060240160206040518083038186803b15801561090a57600080fd5b505afa15801561091e573d6000803e3d6000fd5b505050506040513d601f19601f820116820180604052508101906109429190613251565b92505050600089856dffffffffffffffffffffffffffff16610964919061344f565b8311610971576000610995565b61098b8a6dffffffffffffffffffffffffffff871661344f565b610995908461344f565b905060006109b38a6dffffffffffffffffffffffffffff871661344f565b83116109c05760006109e4565b6109da8a6dffffffffffffffffffffffffffff871661344f565b6109e4908461344f565b905060008211806109f55750600081115b610a81576040517f08c379a000000000000000000000000000000000000000000000000000000000815260206004820152602560248201527f506f636b6574537761703a20494e53554646494349454e545f494e5055545f4160448201527f4d4f554e540000000000000000000000000000000000000000000000000000006064820152608401610555565b600554604080517fddca3f43000000000000000000000000000000000000000000000000000000008152905160009273ffffffffffffffffffffffffffffffffffffffff169163ddca3f43916004808301926020929190829003018186803b158015610aec57600080fd5b505afa158015610b00573d6000803e3d6000fd5b505050506040513d601f19601f82011682018060405250810190610b249190613251565b90506000610b49610b358584612043565b610b4388633b9aca00612043565b90612056565b90506000610b5a610b358585612043565b9050610b8b670de0b6b3a7640000610b856dffffffffffffffffffffffffffff8c8116908c16612043565b90612043565b610b958383612043565b1015610bfd576040517f08c379a000000000000000000000000000000000000000000000000000000000815260206004820152600d60248201527f506f636b6574537761703a204b000000000000000000000000000000000000006044820152606401610555565b505087159050610d5957610c1382828d8d612062565b6006546040517f70a0823100000000000000000000000000000000000000000000000000000000815230600482015273ffffffffffffffffffffffffffffffffffffffff909116906370a082319060240160206040518083038186803b158015610c7c57600080fd5b505afa158015610c90573d6000803e3d6000fd5b505050506040513d601f19601f82011682018060405250810190610cb49190613251565b6007546040517f70a0823100000000000000000000000000000000000000000000000000000000815230600482015291955073ffffffffffffffffffffffffffffffffffffffff16906370a082319060240160206040518083038186803b158015610d1e57600080fd5b505afa158015610d32573d6000803e3d6000fd5b505050506040513d601f19601f82011682018060405250810190610d569190613251565b92505b610d6584848888612479565b60408051838152602081018390529081018c9052606081018b905273ffffffffffffffffffffffffffffffffffffffff8a169033907fd78ad95fa46c994b6551d0da85fc275fe613ce37657fb8d5e3d130840159d8229060800160405180910390a350506001600b55505050505050505050565b6000610de6338484612755565b50600192915050565b73ffffffffffffffffffffffffffffffffffffffff831660009081526002602090815260408083203384529091528120547fffffffffffffffffffffffffffffffffffffffffffffffffffffffffffffffff14610eb35773ffffffffffffffffffffffffffffffffffffffff84166000908152600260209081526040808320338452909152902054610e819083612056565b73ffffffffffffffffffffffffffffffffffffffff851660009081526002602090815260408083203384529091529020555b610ebe8484846127c4565b5060019392505050565b60055473ffffffffffffffffffffffffffffffffffffffff163314610f49576040517f08c379a000000000000000000000000000000000000000000000000000000000815260206004820152601560248201527f506f636b6574537761703a20464f5242494444454e00000000000000000000006044820152606401610555565b6006805473ffffffffffffffffffffffffffffffffffffffff9384167fffffffffffffffffffffffff00000000000000000000000000000000000000009182161790915560078054929093169116179055565b6000600b5460011461100a576040517f08c379a000000000000000000000000000000000000000000000000000000000815260206004820152601260248201527f506f636b6574537761703a204c4f434b454400000000000000000000000000006044820152606401610555565b6000600b819055600a54600654604080517f70a0823100000000000000000000000000000000000000000000000000000000815230600482015290516dffffffffffffffffffffffffffff808516956e01000000000000000000000000000090950416939273ffffffffffffffffffffffffffffffffffffffff16916370a08231916024808301926020929190829003018186803b1580156110ab57600080fd5b505afa1580156110bf573d6000803e3d6000fd5b505050506040513d601f19601f820116820180604052508101906110e39190613251565b6007546040517f70a0823100000000000000000000000000000000000000000000000000000000815230600482015291925060009173ffffffffffffffffffffffffffffffffffffffff909116906370a082319060240160206040518083038186803b15801561115257600080fd5b505afa158015611166573d6000803e3d6000fd5b505050506040513d601f19601f8201168201806040525081019061118a9190613251565b905060006111a8836dffffffffffffffffffffffffffff8716612056565b905060006111c6836dffffffffffffffffffffffffffff8716612056565b600054909150806111fd576111e96103e8610b436111e48686612043565b612891565b97506111f860006103e8612901565b611252565b61124f6dffffffffffffffffffffffffffff881661121b8584612043565b61122591906133ba565b6dffffffffffffffffffffffffffff88166112408585612043565b61124a91906133ba565b6129aa565b97505b600088116112e2576040517f08c379a000000000000000000000000000000000000000000000000000000000815260206004820152602960248201527f506f636b6574537761703a20494e53554646494349454e545f4c49515549444960448201527f54595f4d494e54454400000000000000000000000000000000000000000000006064820152608401610555565b6112ec8989612901565b6112f885858989612479565b604080518481526020810184905233917f4c209b5fc8ad50758f13e2e1088ba56a560dff690a1c6fef26394f4c03821c4f910160405180910390a250506001600b55509395945050505050565b600080600b546001146113b4576040517f08c379a000000000000000000000000000000000000000000000000000000000815260206004820152601260248201527f506f636b6574537761703a204c4f434b454400000000000000000000000000006044820152606401610555565b6000600b819055600a54600654600754604080517f70a0823100000000000000000000000000000000000000000000000000000000815230600482015290516dffffffffffffffffffffffffffff808616966e010000000000000000000000000000909604169473ffffffffffffffffffffffffffffffffffffffff94851694909316929184916370a0823191602480820192602092909190829003018186803b15801561146157600080fd5b505afa158015611475573d6000803e3d6000fd5b505050506040513d601f19601f820116820180604052508101906114999190613251565b6040517f70a0823100000000000000000000000000000000000000000000000000000000815230600482015290915060009073ffffffffffffffffffffffffffffffffffffffff8416906370a082319060240160206040518083038186803b15801561150457600080fd5b505afa158015611518573d6000803e3d6000fd5b505050506040513d601f19601f8201168201806040525081019061153c9190613251565b306000908152600160205260408120549054919250908061155d8386612043565b61156791906133ba565b9950806115748385612043565b61157e91906133ba565b985060008a1180156115905750600089115b61161c576040517f08c379a000000000000000000000000000000000000000000000000000000000815260206004820152602960248201527f506f636b6574537761703a20494e53554646494349454e545f4c49515549444960448201527f54595f4255524e454400000000000000000000000000000000000000000000006064820152608401610555565b61162630836129c0565b611631868c8c611ea3565b61163c858c8b611ea3565b6040517f70a0823100000000000000000000000000000000000000000000000000000000815230600482015273ffffffffffffffffffffffffffffffffffffffff8716906370a082319060240160206040518083038186803b1580156116a157600080fd5b505afa1580156116b5573d6000803e3d6000fd5b505050506040513d601f19601f820116820180604052508101906116d99190613251565b6040517f70a0823100000000000000000000000000000000000000000000000000000000815230600482015290945073ffffffffffffffffffffffffffffffffffffffff8616906370a082319060240160206040518083038186803b15801561174157600080fd5b505afa158015611755573d6000803e3d6000fd5b505050506040513d601f19601f820116820180604052508101906117799190613251565b925061178784848a8a612479565b604080518b8152602081018b905273ffffffffffffffffffffffffffffffffffffffff8d169133917fdccd412f0b1252819cb1fd330b93224ca42612892bb3f4f789976e6d81936496910160405180910390a350505050505050506001600b81905550915091565b6000610de63384846127c4565b600b54600114611868576040517f08c379a000000000000000000000000000000000000000000000000000000000815260206004820152601260248201527f506f636b6574537761703a204c4f434b454400000000000000000000000000006044820152606401610555565b6000600b55600654600754600a546040517f70a0823100000000000000000000000000000000000000000000000000000000815230600482015273ffffffffffffffffffffffffffffffffffffffff938416939092169161193f918491869161193a916dffffffffffffffffffffffffffff9091169084906370a08231906024015b60206040518083038186803b15801561190257600080fd5b505afa158015611916573d6000803e3d6000fd5b505050506040513d601f19601f82011682018060405250810190610b439190613251565b611ea3565b600a546040517f70a082310000000000000000000000000000000000000000000000000000000081523060048201526119c4918391869161193a916e0100000000000000000000000000009091046dffffffffffffffffffffffffffff169073ffffffffffffffffffffffffffffffffffffffff8516906370a08231906024016118ea565b50506001600b5550565b42841015611a38576040517f08c379a000000000000000000000000000000000000000000000000000000000815260206004820152601360248201527f506f636b6574537761703a2045585049524544000000000000000000000000006044820152606401610555565b60035473ffffffffffffffffffffffffffffffffffffffff8816600090815260046020526040812080549192917f6e71edae12b1b97f4d1f60370fef10105fa2faae0126114a169c64845d6126c9918b918b918b919087611a98836134b7565b9091555060408051602081019690965273ffffffffffffffffffffffffffffffffffffffff94851690860152929091166060840152608083015260a082015260c0810187905260e00160405160208183030381529060405280519060200120604051602001611b399291907f190100000000000000000000000000000000000000000000000000000000000081526002810192909252602282015260420190565b604080517fffffffffffffffffffffffffffffffffffffffffffffffffffffffffffffffe08184030181528282528051602091820120600080855291840180845281905260ff88169284019290925260608301869052608083018590529092509060019060a0016020604051602081039080840390855afa158015611bc2573d6000803e3d6000fd5b50506040517fffffffffffffffffffffffffffffffffffffffffffffffffffffffffffffffe0015191505073ffffffffffffffffffffffffffffffffffffffff811615801590611c3d57508873ffffffffffffffffffffffffffffffffffffffff168173ffffffffffffffffffffffffffffffffffffffff16145b611ca3576040517f08c379a000000000000000000000000000000000000000000000000000000000815260206004820152601d60248201527f506f636b6574537761703a20494e56414c49445f5349474e41545552450000006044820152606401610555565b611cae898989612755565b505050505050505050565b600b54600114611d25576040517f08c379a000000000000000000000000000000000000000000000000000000000815260206004820152601260248201527f506f636b6574537761703a204c4f434b454400000000000000000000000000006044820152606401610555565b6000600b556006546040517f70a08231000000000000000000000000000000000000000000000000000000008152306004820152611e9c9173ffffffffffffffffffffffffffffffffffffffff16906370a082319060240160206040518083038186803b158015611d9557600080fd5b505afa158015611da9573d6000803e3d6000fd5b505050506040513d601f19601f82011682018060405250810190611dcd9190613251565b6007546040517f70a0823100000000000000000000000000000000000000000000000000000000815230600482015273ffffffffffffffffffffffffffffffffffffffff909116906370a082319060240160206040518083038186803b158015611e3657600080fd5b505afa158015611e4a573d6000803e3d6000fd5b505050506040513d601f19601f82011682018060405250810190611e6e9190613251565b600a546dffffffffffffffffffffffffffff808216916e010000000000000000000000000000900416612479565b6001600b55565b604080518082018252601981527f7472616e7366657228616464726573732c75696e743235362900000000000000602091820152815173ffffffffffffffffffffffffffffffffffffffff85811660248301526044808301869052845180840390910181526064909201845291810180517bffffffffffffffffffffffffffffffffffffffffffffffffffffffff167fa9059cbb0000000000000000000000000000000000000000000000000000000017905291516000928392871691611f6a91906132fa565b6000604051808303816000865af19150503d8060008114611fa7576040519150601f19603f3d011682016040523d82523d6000602084013e611fac565b606091505b5091509150818015611fd6575080511580611fd6575080806020019051810190611fd691906131e3565b61203c576040517f08c379a000000000000000000000000000000000000000000000000000000000815260206004820152601b60248201527f506f636b6574537761703a205452414e534645525f4641494c454400000000006044820152606401610555565b5050505050565b600061204f8284613412565b9392505050565b600061204f828461344f565b600554604080517fb8cb1c35000000000000000000000000000000000000000000000000000000008152905160009273ffffffffffffffffffffffffffffffffffffffff169163b8cb1c35916004808301926020929190829003018186803b1580156120cd57600080fd5b505afa1580156120e1573d6000803e3d6000fd5b505050506040513d601f19601f8201168201806040525081019061210591906130af565b905061210f612a71565b1561228b57600554604080517f46870d2b000000000000000000000000000000000000000000000000000000008152905160009273ffffffffffffffffffffffffffffffffffffffff16916346870d2b916004808301926020929190829003018186803b15801561217f57600080fd5b505afa158015612193573d6000803e3d6000fd5b505050506040513d601f19601f820116820180604052508101906121b79190613251565b6040517f70a08231000000000000000000000000000000000000000000000000000000008152306004820152909150600090633b9aca0090839073ffffffffffffffffffffffffffffffffffffffff8616906370a082319060240160206040518083038186803b15801561222a57600080fd5b505afa15801561223e573d6000803e3d6000fd5b505050506040513d601f19601f820116820180604052508101906122629190613251565b61226c9190613412565b61227691906133ba565b9050612283838483611ea3565b505050612473565b600080600061229d8888888888612b60565b9250925092506122ae828483611ea3565b73ffffffffffffffffffffffffffffffffffffffff8083169085161060006122d7838684612e5a565b9050600080836122e9576000836122ed565b8260005b6040517f022c0d9f00000000000000000000000000000000000000000000000000000000815260048101839052602481018290523060448201526080606482015260006084820152919350915073ffffffffffffffffffffffffffffffffffffffff88169063022c0d9f9060a401600060405180830381600087803b15801561237557600080fd5b505af1158015612389573d6000803e3d6000fd5b50506040517f70a0823100000000000000000000000000000000000000000000000000000000815230600482015273ffffffffffffffffffffffffffffffffffffffff8b1692506370a08231915060240160206040518083038186803b1580156123f257600080fd5b505afa158015612406573d6000803e3d6000fd5b505050506040513d601f19601f8201168201806040525081019061242a9190613251565b9250612437888985611ea3565b6040518381527f79708e1c4696e28e3d9319fe13be27a879668880b98fee5d9d458624cfd843b59060200160405180910390a150505050505050505b50505050565b6dffffffffffffffffffffffffffff84118015906124a557506dffffffffffffffffffffffffffff8311155b61250b576040517f08c379a000000000000000000000000000000000000000000000000000000000815260206004820152601460248201527f506f636b6574537761703a204f564552464c4f570000000000000000000000006044820152606401610555565b600061251c640100000000426134f0565b600a54909150600090612555907c0100000000000000000000000000000000000000000000000000000000900463ffffffff1683613466565b905060008163ffffffff1611801561257c57506dffffffffffffffffffffffffffff841615155b801561259757506dffffffffffffffffffffffffffff831615155b15612665578063ffffffff166125d4856125b08661301c565b7bffffffffffffffffffffffffffffffffffffffffffffffffffffffff169061304d565b7bffffffffffffffffffffffffffffffffffffffffffffffffffffffff166125fc9190613412565b6008600082825461260d9190613367565b909155505063ffffffff8116612626846125b08761301c565b7bffffffffffffffffffffffffffffffffffffffffffffffffffffffff1661264e9190613412565b6009600082825461265f9190613367565b90915550505b600a805463ffffffff84167c0100000000000000000000000000000000000000000000000000000000027bffffffffffffffffffffffffffffffffffffffffffffffffffffffff6dffffffffffffffffffffffffffff8981166e0100000000000000000000000000009081027fffffffff000000000000000000000000000000000000000000000000000000009095168c83161794909417918216831794859055604080519382169282169290921783529290930490911660208201527f1c411e9a96e071241c2f21f7726b17ae89e3cab4c78be50e062b03a9fffbbad1910160405180910390a1505050505050565b73ffffffffffffffffffffffffffffffffffffffff83811660008181526002602090815260408083209487168084529482529182902085905590518481527f8c5be1e5ebec7d5bd14f71427d1e84f3dd0314c0f7b2291e5b200ac8c7c3b92591015b60405180910390a3505050565b73ffffffffffffffffffffffffffffffffffffffff83166000908152600160205260409020546127f49082612056565b73ffffffffffffffffffffffffffffffffffffffff80851660009081526001602052604080822093909355908416815220546128309082613069565b73ffffffffffffffffffffffffffffffffffffffff80841660008181526001602052604090819020939093559151908516907fddf252ad1be2c89b69c2b068fc378daa952ba7f163c4a11628f55a4df523b3ef906127b79085815260200190565b600060038211156128f257508060006128ab6002836133ba565b6128b6906001613367565b90505b818110156128ec579050806002816128d181866133ba565b6128db9190613367565b6128e591906133ba565b90506128b9565b50919050565b81156128fc575060015b919050565b60005461290e9082613069565b600090815573ffffffffffffffffffffffffffffffffffffffff83168152600160205260409020546129409082613069565b73ffffffffffffffffffffffffffffffffffffffff83166000818152600160205260408082209390935591519091907fddf252ad1be2c89b69c2b068fc378daa952ba7f163c4a11628f55a4df523b3ef9061299e9085815260200190565b60405180910390a35050565b60008183106129b9578161204f565b5090919050565b73ffffffffffffffffffffffffffffffffffffffff82166000908152600160205260409020546129f09082612056565b73ffffffffffffffffffffffffffffffffffffffff831660009081526001602052604081209190915554612a249082612056565b600090815560405182815273ffffffffffffffffffffffffffffffffffffffff8416907fddf252ad1be2c89b69c2b068fc378daa952ba7f163c4a11628f55a4df523b3ef9060200161299e565b600080600560009054906101000a900473ffffffffffffffffffffffffffffffffffffffff1673ffffffffffffffffffffffffffffffffffffffff1663b8cb1c356040518163ffffffff1660e01b815260040160206040518083038186803b158015612adc57600080fd5b505afa158015612af0573d6000803e3d6000fd5b505050506040513d601f19601f82011682018060405250810190612b1491906130af565b60065490915073ffffffffffffffffffffffffffffffffffffffff80831691161480612b5a575060075473ffffffffffffffffffffffffffffffffffffffff8281169116145b91505090565b6006546005546040517fe6a4390500000000000000000000000000000000000000000000000000000000815273ffffffffffffffffffffffffffffffffffffffff9283166004820181905284841660248301526000939092849291169063e6a439059060440160206040518083038186803b158015612bde57600080fd5b505afa158015612bf2573d6000803e3d6000fd5b505050506040513d601f19601f82011682018060405250810190612c1691906130af565b9250600073ffffffffffffffffffffffffffffffffffffffff841615612c4c57868911612c435786612c45565b885b9050612d8d565b6007546005546040517fe6a4390500000000000000000000000000000000000000000000000000000000815273ffffffffffffffffffffffffffffffffffffffff928316600482018190528884166024830152955091169063e6a439059060440160206040518083038186803b158015612cc557600080fd5b505afa158015612cd9573d6000803e3d6000fd5b505050506040513d601f19601f82011682018060405250810190612cfd91906130af565b9350858811612d0c5785612d0e565b875b905073ffffffffffffffffffffffffffffffffffffffff8416612d8d576040517f08c379a000000000000000000000000000000000000000000000000000000000815260206004820152600e60248201527f4e6f20504f434b455420706169720000000000000000000000000000000000006044820152606401610555565b600554604080517f46870d2b000000000000000000000000000000000000000000000000000000008152905160009273ffffffffffffffffffffffffffffffffffffffff16916346870d2b916004808301926020929190829003018186803b158015612df857600080fd5b505afa158015612e0c573d6000803e3d6000fd5b505050506040513d601f19601f82011682018060405250810190612e309190613251565b9050633b9aca00612e418284613412565b612e4b91906133ba565b92505050955095509592505050565b600080600560009054906101000a900473ffffffffffffffffffffffffffffffffffffffff1673ffffffffffffffffffffffffffffffffffffffff1663ddca3f436040518163ffffffff1660e01b815260040160206040518083038186803b158015612ec557600080fd5b505afa158015612ed9573d6000803e3d6000fd5b505050506040513d601f19601f82011682018060405250810190612efd9190613251565b90506000808573ffffffffffffffffffffffffffffffffffffffff16630902f1ac6040518163ffffffff1660e01b815260040160606040518083038186803b158015612f4857600080fd5b505afa158015612f5c573d6000803e3d6000fd5b505050506040513d601f19601f82011682018060405250810190612f809190613203565b506dffffffffffffffffffffffffffff1691506dffffffffffffffffffffffffffff16915060008086612fb4578383612fb7565b82845b90925090506000612fd6612fcf87633b9aca0061344f565b8b90612043565b90506000612fe48284612043565b9050600061300083612ffa87633b9aca00612043565b90613069565b905061300c81836133ba565b9c9b505050505050505050505050565b60006130476e0100000000000000000000000000006dffffffffffffffffffffffffffff84166133ce565b92915050565b600061204f6dffffffffffffffffffffffffffff83168461337f565b600061204f8284613367565b80516dffffffffffffffffffffffffffff811681146128fc57600080fd5b6000602082840312156130a4578081fd5b813561204f81613562565b6000602082840312156130c0578081fd5b815161204f81613562565b600080604083850312156130dd578081fd5b82356130e881613562565b915060208301356130f881613562565b809150509250929050565b600080600060608486031215613117578081fd5b833561312281613562565b9250602084013561313281613562565b929592945050506040919091013590565b600080600080600080600060e0888a03121561315d578283fd5b873561316881613562565b9650602088013561317881613562565b95506040880135945060608801359350608088013560ff8116811461319b578384fd5b9699959850939692959460a0840135945060c09093013592915050565b600080604083850312156131ca578182fd5b82356131d581613562565b946020939093013593505050565b6000602082840312156131f4578081fd5b8151801515811461204f578182fd5b600080600060608486031215613217578283fd5b61322084613075565b925061322e60208501613075565b9150604084015163ffffffff81168114613246578182fd5b809150509250925092565b600060208284031215613262578081fd5b5051919050565b600080600080600060808688031215613280578081fd5b8535945060208601359350604086013561329981613562565b9250606086013567ffffffffffffffff808211156132b5578283fd5b818801915088601f8301126132c8578283fd5b8135818111156132d6578384fd5b8960208285010111156132e7578384fd5b9699959850939650602001949392505050565b6000825161330c81846020870161348b565b9190910192915050565b602081526000825180602084015261333581604085016020870161348b565b601f017fffffffffffffffffffffffffffffffffffffffffffffffffffffffffffffffe0169190910160400192915050565b6000821982111561337a5761337a613504565b500190565b60007bffffffffffffffffffffffffffffffffffffffffffffffffffffffff808416806133ae576133ae613533565b92169190910492915050565b6000826133c9576133c9613533565b500490565b60007bffffffffffffffffffffffffffffffffffffffffffffffffffffffff8083168185168183048111821515161561340957613409613504565b02949350505050565b6000817fffffffffffffffffffffffffffffffffffffffffffffffffffffffffffffffff048311821515161561344a5761344a613504565b500290565b60008282101561346157613461613504565b500390565b600063ffffffff8381169083168181101561348357613483613504565b039392505050565b60005b838110156134a657818101518382015260200161348e565b838111156124735750506000910152565b60007fffffffffffffffffffffffffffffffffffffffffffffffffffffffffffffffff8214156134e9576134e9613504565b5060010190565b6000826134ff576134ff613533565b500690565b7f4e487b7100000000000000000000000000000000000000000000000000000000600052601160045260246000fd5b7f4e487b7100000000000000000000000000000000000000000000000000000000600052601260045260246000fd5b73ffffffffffffffffffffffffffffffffffffffff8116811461358457600080fd5b5056fea264697066735822122066b01b7023e83b5dad73118d64a49cedbd8266677ff0b3e6650af78d10f2fde564736f6c63430008040033a26469706673582212201ebcbf78622f04f4d23edd7255252420ba4dbfc3c321f9df2c7de1e9e1c01ab164736f6c63430008040033",
  "immutableReferences": {
    "1839": [
      {
        "length": 32,
        "start": 382
      }
    ]
  },
  "source": "// SPDX-License-Identifier: Unlicensed\npragma solidity =0.8.4;\n\n\nimport './PocketSwapPair.sol';\nimport './interfaces/IPocketSwapFactory.sol';\nimport './libraries/PairAddress.sol';\n\ncontract PocketSwapFactory is IPocketSwapFactory {\n    address public override feeSetter;\n    uint256 public override fee = 3e6; // 1e9 = 100%; 1e8 = 10%; 1e7 = 1%; 1e6 = 0.1% ....\n    address public immutable override pocketAddress;\n\n    mapping(address => mapping(address => address)) public override getPair;\n    address[] public override allPairs;\n\n    constructor(address _pocketAddress) {\n        feeSetter = msg.sender;\n        pocketAddress = _pocketAddress;\n    }\n\n    function PAIR_INIT_CODE_HASH() external override pure returns (bytes32) {\n        return keccak256(abi.encodePacked(type(PocketSwapPair).creationCode));\n    }\n\n    function allPairsLength() external override view returns (uint) {\n        return allPairs.length;\n    }\n\n    function createPair(address tokenA, address tokenB) external override returns (address pair) {\n        require(tokenA != tokenB, 'PocketSwap:IDENTICAL_ADDRESSES');\n        (address token0, address token1) = tokenA < tokenB ? (tokenA, tokenB) : (tokenB, tokenA);\n        require(token0 != address(0), 'PocketSwap:ZERO_ADDRESS');\n        require(getPair[token0][token1] == address(0), 'PocketSwap:PAIR_EXISTS'); // single check is sufficient\n        bytes memory bytecode = type(PocketSwapPair).creationCode;\n        bytes32 salt = keccak256(abi.encodePacked(token0, token1));\n        assembly {\n            pair := create2(0, add(bytecode, 32), mload(bytecode), salt)\n        }\n\n        PocketSwapPair(pair).initialize(token0, token1);\n        getPair[token0][token1] = pair;\n        getPair[token1][token0] = pair; // populate mapping in the reverse direction\n        allPairs.push(pair);\n\n        require(pair == PairAddress.computeAddress(address(this), token0, token1), \"WWZ\");\n        require(pair == PairAddress.computeAddress(address(this), token1, token0), \"WWZ\");\n\n        emit PairCreated(token0, token1, pair, allPairs.length);\n    }\n\n    function setFee(uint256 _fee) external override {\n        require(msg.sender == feeSetter, 'PocketSwap:FORBIDDEN');\n        require(_fee < 1e18, 'PocketSwap:BIG_FEE');\n\n        emit FeeUpdated(fee, _fee);\n        fee = _fee;\n    }\n\n    function setFeeSetter(address _feeSetter) external override {\n        require(msg.sender == feeSetter, 'PocketSwap:FORBIDDEN');\n\n        emit FeeSetterUpdated(feeSetter, _feeSetter);\n        feeSetter = _feeSetter;\n    }\n\n    function holdersFee() external view override returns(uint256) {\n        return fee * 5 / 30; // POCKET holders are getting 5/30 of the fees\n    }\n}\n",
  "sourcePath": "/Users/ilyk/projects/midgardtech/xpocket-PocketSwap/PocketSwap/contracts/pocketswap/PocketSwapFactory.sol",
  "compiler": {
    "name": "solc",
    "version": "0.8.4+commit.c7e474f2.Emscripten.clang"
  },
  "schemaVersion": "3.4.3",
  "updatedAt": "2022-05-31T08:09:13.763Z",
  "networkType": "ethereum",
  "devdoc": {
    "kind": "dev",
    "methods": {},
    "version": 1
  },
  "userdoc": {
    "kind": "user",
    "methods": {},
    "version": 1
  }
}