{
  "contractName": "Pocket",
  "abi": [
    {
      "inputs": [],
      "stateMutability": "nonpayable",
      "type": "constructor"
    },
    {
      "anonymous": false,
      "inputs": [
        {
          "indexed": true,
          "internalType": "address",
          "name": "owner",
          "type": "address"
        },
        {
          "indexed": true,
          "internalType": "address",
          "name": "spender",
          "type": "address"
        },
        {
          "indexed": false,
          "internalType": "uint256",
          "name": "value",
          "type": "uint256"
        }
      ],
      "name": "Approval",
      "type": "event"
    },
    {
      "anonymous": false,
      "inputs": [
        {
          "indexed": true,
          "internalType": "address",
          "name": "previousOwner",
          "type": "address"
        },
        {
          "indexed": true,
          "internalType": "address",
          "name": "newOwner",
          "type": "address"
        }
      ],
      "name": "OwnershipTransferred",
      "type": "event"
    },
    {
      "anonymous": false,
      "inputs": [
        {
          "indexed": true,
          "internalType": "address",
          "name": "from",
          "type": "address"
        },
        {
          "indexed": true,
          "internalType": "address",
          "name": "to",
          "type": "address"
        },
        {
          "indexed": false,
          "internalType": "uint256",
          "name": "value",
          "type": "uint256"
        }
      ],
      "name": "Transfer",
      "type": "event"
    },
    {
      "inputs": [
        {
          "internalType": "address",
          "name": "owner",
          "type": "address"
        },
        {
          "internalType": "address",
          "name": "spender",
          "type": "address"
        }
      ],
      "name": "allowance",
      "outputs": [
        {
          "internalType": "uint256",
          "name": "",
          "type": "uint256"
        }
      ],
      "stateMutability": "view",
      "type": "function"
    },
    {
      "inputs": [
        {
          "internalType": "address",
          "name": "spender",
          "type": "address"
        },
        {
          "internalType": "uint256",
          "name": "amount",
          "type": "uint256"
        }
      ],
      "name": "approve",
      "outputs": [
        {
          "internalType": "bool",
          "name": "",
          "type": "bool"
        }
      ],
      "stateMutability": "nonpayable",
      "type": "function"
    },
    {
      "inputs": [],
      "name": "decimals",
      "outputs": [
        {
          "internalType": "uint8",
          "name": "",
          "type": "uint8"
        }
      ],
      "stateMutability": "view",
      "type": "function"
    },
    {
      "inputs": [
        {
          "internalType": "address",
          "name": "spender",
          "type": "address"
        },
        {
          "internalType": "uint256",
          "name": "subtractedValue",
          "type": "uint256"
        }
      ],
      "name": "decreaseAllowance",
      "outputs": [
        {
          "internalType": "bool",
          "name": "",
          "type": "bool"
        }
      ],
      "stateMutability": "nonpayable",
      "type": "function"
    },
    {
      "inputs": [
        {
          "internalType": "address",
          "name": "spender",
          "type": "address"
        },
        {
          "internalType": "uint256",
          "name": "addedValue",
          "type": "uint256"
        }
      ],
      "name": "increaseAllowance",
      "outputs": [
        {
          "internalType": "bool",
          "name": "",
          "type": "bool"
        }
      ],
      "stateMutability": "nonpayable",
      "type": "function"
    },
    {
      "inputs": [
        {
          "internalType": "address",
          "name": "",
          "type": "address"
        }
      ],
      "name": "lastTotalDividends",
      "outputs": [
        {
          "internalType": "uint256",
          "name": "",
          "type": "uint256"
        }
      ],
      "stateMutability": "view",
      "type": "function"
    },
    {
      "inputs": [],
      "name": "name",
      "outputs": [
        {
          "internalType": "string",
          "name": "",
          "type": "string"
        }
      ],
      "stateMutability": "view",
      "type": "function"
    },
    {
      "inputs": [],
      "name": "owner",
      "outputs": [
        {
          "internalType": "address",
          "name": "",
          "type": "address"
        }
      ],
      "stateMutability": "view",
      "type": "function"
    },
    {
      "inputs": [],
      "name": "renounceOwnership",
      "outputs": [],
      "stateMutability": "nonpayable",
      "type": "function"
    },
    {
      "inputs": [
        {
          "internalType": "address",
          "name": "",
          "type": "address"
        }
      ],
      "name": "rewardsExcluded",
      "outputs": [
        {
          "internalType": "bool",
          "name": "",
          "type": "bool"
        }
      ],
      "stateMutability": "view",
      "type": "function"
    },
    {
      "inputs": [],
      "name": "rewardsIncludedSupply",
      "outputs": [
        {
          "internalType": "uint256",
          "name": "",
          "type": "uint256"
        }
      ],
      "stateMutability": "view",
      "type": "function"
    },
    {
      "inputs": [],
      "name": "symbol",
      "outputs": [
        {
          "internalType": "string",
          "name": "",
          "type": "string"
        }
      ],
      "stateMutability": "view",
      "type": "function"
    },
    {
      "inputs": [],
      "name": "totalSupply",
      "outputs": [
        {
          "internalType": "uint256",
          "name": "",
          "type": "uint256"
        }
      ],
      "stateMutability": "view",
      "type": "function"
    },
    {
      "inputs": [
        {
          "internalType": "address",
          "name": "recipient",
          "type": "address"
        },
        {
          "internalType": "uint256",
          "name": "amount",
          "type": "uint256"
        }
      ],
      "name": "transfer",
      "outputs": [
        {
          "internalType": "bool",
          "name": "",
          "type": "bool"
        }
      ],
      "stateMutability": "nonpayable",
      "type": "function"
    },
    {
      "inputs": [
        {
          "internalType": "address",
          "name": "sender",
          "type": "address"
        },
        {
          "internalType": "address",
          "name": "recipient",
          "type": "address"
        },
        {
          "internalType": "uint256",
          "name": "amount",
          "type": "uint256"
        }
      ],
      "name": "transferFrom",
      "outputs": [
        {
          "internalType": "bool",
          "name": "",
          "type": "bool"
        }
      ],
      "stateMutability": "nonpayable",
      "type": "function"
    },
    {
      "inputs": [
        {
          "internalType": "address",
          "name": "newOwner",
          "type": "address"
        }
      ],
      "name": "transferOwnership",
      "outputs": [],
      "stateMutability": "nonpayable",
      "type": "function"
    },
    {
      "inputs": [
        {
          "internalType": "address",
          "name": "account",
          "type": "address"
        }
      ],
      "name": "excludeFromRewards",
      "outputs": [],
      "stateMutability": "nonpayable",
      "type": "function"
    },
    {
      "inputs": [
        {
          "internalType": "address",
          "name": "account",
          "type": "address"
        }
      ],
      "name": "includeInRewards",
      "outputs": [],
      "stateMutability": "nonpayable",
      "type": "function"
    },
    {
      "inputs": [
        {
          "internalType": "uint256",
          "name": "amount",
          "type": "uint256"
        }
      ],
      "name": "addRewards",
      "outputs": [
        {
          "internalType": "bool",
          "name": "",
          "type": "bool"
        }
      ],
      "stateMutability": "nonpayable",
      "type": "function"
    },
    {
      "inputs": [
        {
          "internalType": "address",
          "name": "account",
          "type": "address"
        }
      ],
      "name": "balanceOf",
      "outputs": [
        {
          "internalType": "uint256",
          "name": "",
          "type": "uint256"
        }
      ],
      "stateMutability": "view",
      "type": "function"
    }
  ],
  "bytecode": "0x60806040523480156200001157600080fd5b50604080518082018252600781526616141bd8dad95d60ca1b6020808301918252835180850190945260068452651413d0d2d15560d21b9084015281519192916200005f9160039162000201565b5080516200007590600490602084019062000201565b50505060006200008a6200011560201b60201c565b600580546001600160a01b0319166001600160a01b038316908117909155604051919250906000907f8be0079c531659141344cd1fd0a4f28419497f9722a3daafe3b4186f6b6457e0908290a350620000ef336a295be96e6406697200000062000119565b600254600855306000908152600660205260409020805460ff1916600117905562000309565b3390565b6001600160a01b038216620001745760405162461bcd60e51b815260206004820152601f60248201527f45524332303a206d696e7420746f20746865207a65726f206164647265737300604482015260640160405180910390fd5b8060026000828254620001889190620002a7565b90915550506001600160a01b03821660009081526020819052604081208054839290620001b7908490620002a7565b90915550506040518181526001600160a01b038316906000907fddf252ad1be2c89b69c2b068fc378daa952ba7f163c4a11628f55a4df523b3ef9060200160405180910390a35050565b8280546200020f90620002cc565b90600052602060002090601f0160209004810192826200023357600085556200027e565b82601f106200024e57805160ff19168380011785556200027e565b828001600101855582156200027e579182015b828111156200027e57825182559160200191906001019062000261565b506200028c92915062000290565b5090565b5b808211156200028c576000815560010162000291565b60008219821115620002c757634e487b7160e01b81526011600452602481fd5b500190565b600181811c90821680620002e157607f821691505b602082108114156200030357634e487b7160e01b600052602260045260246000fd5b50919050565b61169080620003196000396000f3fe608060405234801561001057600080fd5b506004361061016c5760003560e01c80638bf2581c116100cd578063b609995e11610081578063dd62ed3e11610066578063dd62ed3e146102e8578063e0b9103d1461032e578063f2fde38b1461033757600080fd5b8063b609995e146102c2578063beceed39146102d557600080fd5b806395d89b41116100b257806395d89b4114610294578063a457c2d71461029c578063a9059cbb146102af57600080fd5b80638bf2581c146102495780638da5cb5b1461026c57600080fd5b806323b872dd116101245780633950935111610109578063395093511461021b57806370a082311461022e578063715018a61461024157600080fd5b806323b872dd146101f9578063313ce5671461020c57600080fd5b8063111e037611610155578063111e0376146101b257806318160ddd146101c757806318a01684146101d957600080fd5b806306fdde0314610171578063095ea7b31461018f575b600080fd5b61017961034a565b60405161018691906114c1565b60405180910390f35b6101a261019d366004611480565b6103dc565b6040519015158152602001610186565b6101c56101c03660046113f9565b6103f2565b005b6002545b604051908152602001610186565b6101cb6101e73660046113f9565b60076020526000908152604090205481565b6101a2610207366004611445565b6105ec565b60405160128152602001610186565b6101a2610229366004611480565b6106d9565b6101cb61023c3660046113f9565b61071d565b6101c561075e565b6101a26102573660046113f9565b60066020526000908152604090205460ff1681565b60055460405173ffffffffffffffffffffffffffffffffffffffff9091168152602001610186565b61017961084e565b6101a26102aa366004611480565b61085d565b6101a26102bd366004611480565b610937565b6101c56102d03660046113f9565b610944565b6101a26102e33660046114a9565b610af6565b6101cb6102f6366004611413565b73ffffffffffffffffffffffffffffffffffffffff918216600090815260016020908152604080832093909416825291909152205490565b6101cb60085481565b6101c56103453660046113f9565b610b02565b606060038054610359906115d7565b80601f0160208091040260200160405190810160405280929190818152602001828054610385906115d7565b80156103d25780601f106103a7576101008083540402835291602001916103d2565b820191906000526020600020905b8154815290600101906020018083116103b557829003601f168201915b5050505050905090565b60006103e9338484610cb4565b50600192915050565b73ffffffffffffffffffffffffffffffffffffffff8116600090815260066020526040902054819060ff16156104af576040517f08c379a000000000000000000000000000000000000000000000000000000000815260206004820152602560248201527f506f636b65743a20416c7265616479206578636c756465642066726f6d20726560448201527f776172647300000000000000000000000000000000000000000000000000000060648201526084015b60405180910390fd5b8160006104bb82610e67565b60095473ffffffffffffffffffffffffffffffffffffffff8416600090815260076020526040902055905080156104f7576104f7308383610f44565b60055473ffffffffffffffffffffffffffffffffffffffff163314610578576040517f08c379a000000000000000000000000000000000000000000000000000000000815260206004820181905260248201527f4f776e61626c653a2063616c6c6572206973206e6f7420746865206f776e657260448201526064016104a6565b73ffffffffffffffffffffffffffffffffffffffff8416600090815260066020908152604080832080547fffffffffffffffffffffffffffffffffffffffffffffffffffffffffffffff0016600117905590829052902054600860008282546105e191906115c0565b909155505050505050565b60006105f9848484611201565b73ffffffffffffffffffffffffffffffffffffffff84166000908152600160209081526040808320338452909152902054828110156106ba576040517f08c379a000000000000000000000000000000000000000000000000000000000815260206004820152602860248201527f45524332303a207472616e7366657220616d6f756e742065786365656473206160448201527f6c6c6f77616e636500000000000000000000000000000000000000000000000060648201526084016104a6565b6106ce85336106c986856115c0565b610cb4565b506001949350505050565b33600081815260016020908152604080832073ffffffffffffffffffffffffffffffffffffffff8716845290915281205490916103e99185906106c9908690611532565b600061072882610e67565b73ffffffffffffffffffffffffffffffffffffffff83166000908152602081905260409020546107589190611532565b92915050565b60055473ffffffffffffffffffffffffffffffffffffffff1633146107df576040517f08c379a000000000000000000000000000000000000000000000000000000000815260206004820181905260248201527f4f776e61626c653a2063616c6c6572206973206e6f7420746865206f776e657260448201526064016104a6565b60055460405160009173ffffffffffffffffffffffffffffffffffffffff16907f8be0079c531659141344cd1fd0a4f28419497f9722a3daafe3b4186f6b6457e0908390a3600580547fffffffffffffffffffffffff0000000000000000000000000000000000000000169055565b606060048054610359906115d7565b33600090815260016020908152604080832073ffffffffffffffffffffffffffffffffffffffff861684529091528120548281101561091e576040517f08c379a000000000000000000000000000000000000000000000000000000000815260206004820152602560248201527f45524332303a2064656372656173656420616c6c6f77616e63652062656c6f7760448201527f207a65726f00000000000000000000000000000000000000000000000000000060648201526084016104a6565b61092d33856106c986856115c0565b5060019392505050565b60006103e9338484611201565b73ffffffffffffffffffffffffffffffffffffffff8116600090815260066020526040902054819060ff166109fb576040517f08c379a000000000000000000000000000000000000000000000000000000000815260206004820152602160248201527f506f636b65743a204e6f74206578636c756465642066726f6d2072657761726460448201527f730000000000000000000000000000000000000000000000000000000000000060648201526084016104a6565b60055473ffffffffffffffffffffffffffffffffffffffff163314610a7c576040517f08c379a000000000000000000000000000000000000000000000000000000000815260206004820181905260248201527f4f776e61626c653a2063616c6c6572206973206e6f7420746865206f776e657260448201526064016104a6565b73ffffffffffffffffffffffffffffffffffffffff8216600090815260066020908152604080832080547fffffffffffffffffffffffffffffffffffffffffffffffffffffffffffffff0016905560095460078352818420559082905290205460086000828254610aed9190611532565b90915550505050565b60006107583083610937565b60055473ffffffffffffffffffffffffffffffffffffffff163314610b83576040517f08c379a000000000000000000000000000000000000000000000000000000000815260206004820181905260248201527f4f776e61626c653a2063616c6c6572206973206e6f7420746865206f776e657260448201526064016104a6565b73ffffffffffffffffffffffffffffffffffffffff8116610c26576040517f08c379a000000000000000000000000000000000000000000000000000000000815260206004820152602660248201527f4f776e61626c653a206e6577206f776e657220697320746865207a65726f206160448201527f646472657373000000000000000000000000000000000000000000000000000060648201526084016104a6565b60055460405173ffffffffffffffffffffffffffffffffffffffff8084169216907f8be0079c531659141344cd1fd0a4f28419497f9722a3daafe3b4186f6b6457e090600090a3600580547fffffffffffffffffffffffff00000000000000000000000000000000000000001673ffffffffffffffffffffffffffffffffffffffff92909216919091179055565b73ffffffffffffffffffffffffffffffffffffffff8316610d56576040517f08c379a0000000000000000000000000000000000000000000000000000000008152602060048201526024808201527f45524332303a20617070726f76652066726f6d20746865207a65726f2061646460448201527f726573730000000000000000000000000000000000000000000000000000000060648201526084016104a6565b73ffffffffffffffffffffffffffffffffffffffff8216610df9576040517f08c379a000000000000000000000000000000000000000000000000000000000815260206004820152602260248201527f45524332303a20617070726f766520746f20746865207a65726f20616464726560448201527f737300000000000000000000000000000000000000000000000000000000000060648201526084016104a6565b73ffffffffffffffffffffffffffffffffffffffff83811660008181526001602090815260408083209487168084529482529182902085905590518481527f8c5be1e5ebec7d5bd14f71427d1e84f3dd0314c0f7b2291e5b200ac8c7c3b925910160405180910390a3505050565b600073ffffffffffffffffffffffffffffffffffffffff8216301480610eb2575073ffffffffffffffffffffffffffffffffffffffff821660009081526006602052604090205460ff165b15610ebf57506000919050565b73ffffffffffffffffffffffffffffffffffffffff821660009081526020819052604090205480610ef35750600092915050565b60085473ffffffffffffffffffffffffffffffffffffffff8416600090815260076020526040902054600954610f2991906115c0565b610f339083611583565b610f3d919061154a565b9392505050565b73ffffffffffffffffffffffffffffffffffffffff8316610fe7576040517f08c379a000000000000000000000000000000000000000000000000000000000815260206004820152602560248201527f45524332303a207472616e736665722066726f6d20746865207a65726f20616460448201527f647265737300000000000000000000000000000000000000000000000000000060648201526084016104a6565b73ffffffffffffffffffffffffffffffffffffffff821661108a576040517f08c379a000000000000000000000000000000000000000000000000000000000815260206004820152602360248201527f45524332303a207472616e7366657220746f20746865207a65726f206164647260448201527f657373000000000000000000000000000000000000000000000000000000000060648201526084016104a6565b73ffffffffffffffffffffffffffffffffffffffff831660009081526020819052604090205481811015611140576040517f08c379a000000000000000000000000000000000000000000000000000000000815260206004820152602660248201527f45524332303a207472616e7366657220616d6f756e742065786365656473206260448201527f616c616e6365000000000000000000000000000000000000000000000000000060648201526084016104a6565b61114a82826115c0565b73ffffffffffffffffffffffffffffffffffffffff808616600090815260208190526040808220939093559085168152908120805484929061118d908490611532565b925050819055508273ffffffffffffffffffffffffffffffffffffffff168473ffffffffffffffffffffffffffffffffffffffff167fddf252ad1be2c89b69c2b068fc378daa952ba7f163c4a11628f55a4df523b3ef846040516111f391815260200190565b60405180910390a350505050565b82600061120d82610e67565b60095473ffffffffffffffffffffffffffffffffffffffff84166000908152600760205260409020559050801561124957611249308383610f44565b83600061125582610e67565b60095473ffffffffffffffffffffffffffffffffffffffff84166000908152600760205260409020559050801561129157611291308383610f44565b73ffffffffffffffffffffffffffffffffffffffff86163014156112c75784600960008282546112c19190611532565b90915550505b6112d2878787610f44565b73ffffffffffffffffffffffffffffffffffffffff871660009081526006602052604090205460ff16801561132d575073ffffffffffffffffffffffffffffffffffffffff861660009081526006602052604090205460ff16155b1561134f5784600860008282546113449190611532565b909155506113c79050565b73ffffffffffffffffffffffffffffffffffffffff871660009081526006602052604090205460ff161580156113aa575073ffffffffffffffffffffffffffffffffffffffff861660009081526006602052604090205460ff165b156113c75784600860008282546113c191906115c0565b90915550505b50505050505050565b803573ffffffffffffffffffffffffffffffffffffffff811681146113f457600080fd5b919050565b60006020828403121561140a578081fd5b610f3d826113d0565b60008060408385031215611425578081fd5b61142e836113d0565b915061143c602084016113d0565b90509250929050565b600080600060608486031215611459578081fd5b611462846113d0565b9250611470602085016113d0565b9150604084013590509250925092565b60008060408385031215611492578182fd5b61149b836113d0565b946020939093013593505050565b6000602082840312156114ba578081fd5b5035919050565b6000602080835283518082850152825b818110156114ed578581018301518582016040015282016114d1565b818111156114fe5783604083870101525b50601f017fffffffffffffffffffffffffffffffffffffffffffffffffffffffffffffffe016929092016040019392505050565b600082198211156115455761154561162b565b500190565b60008261157e577f4e487b710000000000000000000000000000000000000000000000000000000081526012600452602481fd5b500490565b6000817fffffffffffffffffffffffffffffffffffffffffffffffffffffffffffffffff04831182151516156115bb576115bb61162b565b500290565b6000828210156115d2576115d261162b565b500390565b600181811c908216806115eb57607f821691505b60208210811415611625577f4e487b7100000000000000000000000000000000000000000000000000000000600052602260045260246000fd5b50919050565b7f4e487b7100000000000000000000000000000000000000000000000000000000600052601160045260246000fdfea2646970667358221220a1c059832389bf1da28f3322e8126856fb4b7c02d9d2a9084a30a63e73e7bd2e64736f6c63430008040033",
  "immutableReferences": {},
  "source": "// SPDX-License-Identifier: Unlicensed\npragma solidity =0.8.4;\npragma abicoder v2;\n\nimport \"@openzeppelin/contracts/token/ERC20/ERC20.sol\";\nimport \"@openzeppelin/contracts/access/Ownable.sol\";\n\nimport \"./pocketswap/interfaces/IPocket.sol\";\n\ncontract Pocket is IPocket, ERC20(\"XPocket\", \"POCKET\"), Ownable {\n    mapping(address => bool) public override rewardsExcluded;\n    mapping(address => uint256) public lastTotalDividends;\n    uint256 public rewardsIncludedSupply;\n    uint256 private totalDividends;\n\n    constructor() {\n        _mint(msg.sender, 50e6 ether);\n        rewardsIncludedSupply = totalSupply();\n        rewardsExcluded[address(this)] = true;\n    }\n\n    function _calcRewards(address account) internal view virtual returns (uint256) {\n        if (account == address(this) || rewardsExcluded[account]) {\n            return 0;\n        }\n\n        uint256 _balance = ERC20.balanceOf(account);\n        if (_balance == 0) {\n            return 0;\n        }\n\n        return (_balance * (totalDividends - lastTotalDividends[account])) / rewardsIncludedSupply;\n    }\n\n    modifier _distribute(address account) {\n        uint256 rewards = _calcRewards(account);\n        lastTotalDividends[account] = totalDividends;\n\n        if (rewards > 0) {\n            super._transfer(address(this), account, rewards);\n        }\n        _;\n    }\n\n    modifier _notExcluded(address account) {\n        require(!rewardsExcluded[account], \"Pocket: Already excluded from rewards\");\n        _;\n    }\n\n    modifier _excluded(address account) {\n        require(rewardsExcluded[account], \"Pocket: Not excluded from rewards\");\n        _;\n    }\n\n    function excludeFromRewards(address account)\n    _notExcluded(account)\n    _distribute(account)\n    external onlyOwner {\n        rewardsExcluded[account] = true;\n        rewardsIncludedSupply -= ERC20.balanceOf(account);\n    }\n\n    function includeInRewards(address account)\n    _excluded(account)\n    external onlyOwner {\n        delete rewardsExcluded[account];\n        lastTotalDividends[account] = totalDividends;\n        rewardsIncludedSupply += ERC20.balanceOf(account);\n    }\n\n    function addRewards(uint256 amount) override external returns (bool) {\n        return transfer(address(this), amount);\n    }\n\n    /**\n     * @dev See {ERC20-_transfer}.\n     */\n    function _transfer(address sender, address recipient, uint256 amount)\n    _distribute(sender) _distribute(recipient)\n    internal virtual override {\n        if (recipient == address(this)) {\n            totalDividends += amount;\n        }\n        super._transfer(sender, recipient, amount);\n        if (rewardsExcluded[sender] && !rewardsExcluded[recipient]) {\n            rewardsIncludedSupply += amount;\n        } else if (!rewardsExcluded[sender] && rewardsExcluded[recipient]) {\n            rewardsIncludedSupply -= amount;\n        }\n    }\n\n    /**\n     * @dev See {IERC20-balanceOf}.\n     */\n    function balanceOf(address account) public view virtual override returns (uint256) {\n        return ERC20.balanceOf(account) + _calcRewards(account);\n    }\n}\n",
  "sourcePath": "/Users/ilyk/projects/midgardtech/xpocket-PocketSwap/PocketSwap/contracts/Pocket.sol",
  "compiler": {
    "name": "solc",
    "version": "0.8.4+commit.c7e474f2.Emscripten.clang"
  },
  "schemaVersion": "3.4.3",
  "updatedAt": "2021-12-17T08:43:46.481Z",
  "devdoc": {
    "kind": "dev",
    "methods": {
      "allowance(address,address)": {
        "details": "See {IERC20-allowance}."
      },
      "approve(address,uint256)": {
        "details": "See {IERC20-approve}. Requirements: - `spender` cannot be the zero address."
      },
      "balanceOf(address)": {
        "details": "See {IERC20-balanceOf}."
      },
      "decimals()": {
        "details": "Returns the number of decimals used to get its user representation. For example, if `decimals` equals `2`, a balance of `505` tokens should be displayed to a user as `5,05` (`505 / 10 ** 2`). Tokens usually opt for a value of 18, imitating the relationship between Ether and Wei. This is the value {ERC20} uses, unless this function is overridden; NOTE: This information is only used for _display_ purposes: it in no way affects any of the arithmetic of the contract, including {IERC20-balanceOf} and {IERC20-transfer}."
      },
      "decreaseAllowance(address,uint256)": {
        "details": "Atomically decreases the allowance granted to `spender` by the caller. This is an alternative to {approve} that can be used as a mitigation for problems described in {IERC20-approve}. Emits an {Approval} event indicating the updated allowance. Requirements: - `spender` cannot be the zero address. - `spender` must have allowance for the caller of at least `subtractedValue`."
      },
      "increaseAllowance(address,uint256)": {
        "details": "Atomically increases the allowance granted to `spender` by the caller. This is an alternative to {approve} that can be used as a mitigation for problems described in {IERC20-approve}. Emits an {Approval} event indicating the updated allowance. Requirements: - `spender` cannot be the zero address."
      },
      "name()": {
        "details": "Returns the name of the token."
      },
      "owner()": {
        "details": "Returns the address of the current owner."
      },
      "renounceOwnership()": {
        "details": "Leaves the contract without owner. It will not be possible to call `onlyOwner` functions anymore. Can only be called by the current owner. NOTE: Renouncing ownership will leave the contract without an owner, thereby removing any functionality that is only available to the owner."
      },
      "symbol()": {
        "details": "Returns the symbol of the token, usually a shorter version of the name."
      },
      "totalSupply()": {
        "details": "See {IERC20-totalSupply}."
      },
      "transfer(address,uint256)": {
        "details": "See {IERC20-transfer}. Requirements: - `recipient` cannot be the zero address. - the caller must have a balance of at least `amount`."
      },
      "transferFrom(address,address,uint256)": {
        "details": "See {IERC20-transferFrom}. Emits an {Approval} event indicating the updated allowance. This is not required by the EIP. See the note at the beginning of {ERC20}. Requirements: - `sender` and `recipient` cannot be the zero address. - `sender` must have a balance of at least `amount`. - the caller must have allowance for ``sender``'s tokens of at least `amount`."
      },
      "transferOwnership(address)": {
        "details": "Transfers ownership of the contract to a new account (`newOwner`). Can only be called by the current owner."
      }
    },
    "version": 1
  },
  "userdoc": {
    "kind": "user",
    "methods": {},
    "version": 1
  }
}