{
  "contractName": "PocketSwapRouter",
  "abi": [
    {
      "inputs": [
        {
          "internalType": "address",
          "name": "_factory",
          "type": "address"
        },
        {
          "internalType": "address",
          "name": "_WETH9",
          "type": "address"
        }
      ],
      "stateMutability": "nonpayable",
      "type": "constructor"
    },
    {
      "inputs": [],
      "name": "WETH9",
      "outputs": [
        {
          "internalType": "address",
          "name": "",
          "type": "address"
        }
      ],
      "stateMutability": "view",
      "type": "function"
    },
    {
      "inputs": [
        {
          "components": [
            {
              "internalType": "address",
              "name": "token0",
              "type": "address"
            },
            {
              "internalType": "address",
              "name": "token1",
              "type": "address"
            },
            {
              "internalType": "address",
              "name": "recipient",
              "type": "address"
            },
            {
              "internalType": "uint256",
              "name": "amount0Desired",
              "type": "uint256"
            },
            {
              "internalType": "uint256",
              "name": "amount1Desired",
              "type": "uint256"
            },
            {
              "internalType": "uint256",
              "name": "amount0Min",
              "type": "uint256"
            },
            {
              "internalType": "uint256",
              "name": "amount1Min",
              "type": "uint256"
            },
            {
              "internalType": "uint256",
              "name": "deadline",
              "type": "uint256"
            }
          ],
          "internalType": "struct IPocketSwapLiquidityRouter.AddLiquidityParams",
          "name": "params",
          "type": "tuple"
        }
      ],
      "name": "addLiquidity",
      "outputs": [
        {
          "internalType": "uint256",
          "name": "amountA",
          "type": "uint256"
        },
        {
          "internalType": "uint256",
          "name": "amountB",
          "type": "uint256"
        },
        {
          "internalType": "uint256",
          "name": "liquidity",
          "type": "uint256"
        }
      ],
      "stateMutability": "payable",
      "type": "function"
    },
    {
      "inputs": [
        {
          "components": [
            {
              "internalType": "bytes",
              "name": "path",
              "type": "bytes"
            },
            {
              "internalType": "address",
              "name": "recipient",
              "type": "address"
            },
            {
              "internalType": "uint256",
              "name": "deadline",
              "type": "uint256"
            },
            {
              "internalType": "uint256",
              "name": "amountOut",
              "type": "uint256"
            },
            {
              "internalType": "uint256",
              "name": "amountInMaximum",
              "type": "uint256"
            }
          ],
          "internalType": "struct IPocketSwapRouter.OutputParams",
          "name": "params",
          "type": "tuple"
        }
      ],
      "name": "exactOutput",
      "outputs": [
        {
          "internalType": "uint256",
          "name": "amountIn",
          "type": "uint256"
        }
      ],
      "stateMutability": "payable",
      "type": "function"
    },
    {
      "inputs": [
        {
          "components": [
            {
              "internalType": "address",
              "name": "tokenIn",
              "type": "address"
            },
            {
              "internalType": "address",
              "name": "tokenOut",
              "type": "address"
            },
            {
              "internalType": "uint24",
              "name": "fee",
              "type": "uint24"
            },
            {
              "internalType": "address",
              "name": "recipient",
              "type": "address"
            },
            {
              "internalType": "uint256",
              "name": "deadline",
              "type": "uint256"
            },
            {
              "internalType": "uint256",
              "name": "amountOut",
              "type": "uint256"
            },
            {
              "internalType": "uint256",
              "name": "amountInMaximum",
              "type": "uint256"
            },
            {
              "internalType": "uint160",
              "name": "sqrtPriceLimitX96",
              "type": "uint160"
            }
          ],
          "internalType": "struct IPocketSwapRouter.OutputSingleParams",
          "name": "params",
          "type": "tuple"
        }
      ],
      "name": "exactOutputSingle",
      "outputs": [
        {
          "internalType": "uint256",
          "name": "amountIn",
          "type": "uint256"
        }
      ],
      "stateMutability": "payable",
      "type": "function"
    },
    {
      "inputs": [],
      "name": "factory",
      "outputs": [
        {
          "internalType": "address",
          "name": "",
          "type": "address"
        }
      ],
      "stateMutability": "view",
      "type": "function"
    },
    {
      "inputs": [
        {
          "internalType": "uint256",
          "name": "amountOut",
          "type": "uint256"
        },
        {
          "internalType": "uint256",
          "name": "reserveIn",
          "type": "uint256"
        },
        {
          "internalType": "uint256",
          "name": "reserveOut",
          "type": "uint256"
        }
      ],
      "name": "getAmountIn",
      "outputs": [
        {
          "internalType": "uint256",
          "name": "amountIn",
          "type": "uint256"
        }
      ],
      "stateMutability": "view",
      "type": "function"
    },
    {
      "inputs": [
        {
          "internalType": "uint256",
          "name": "amountIn",
          "type": "uint256"
        },
        {
          "internalType": "uint256",
          "name": "reserveIn",
          "type": "uint256"
        },
        {
          "internalType": "uint256",
          "name": "reserveOut",
          "type": "uint256"
        }
      ],
      "name": "getAmountOut",
      "outputs": [
        {
          "internalType": "uint256",
          "name": "amountOut",
          "type": "uint256"
        }
      ],
      "stateMutability": "view",
      "type": "function"
    },
    {
      "inputs": [
        {
          "internalType": "uint256",
          "name": "amountOut",
          "type": "uint256"
        },
        {
          "internalType": "address[]",
          "name": "path",
          "type": "address[]"
        }
      ],
      "name": "getAmountsIn",
      "outputs": [
        {
          "internalType": "uint256[]",
          "name": "amounts",
          "type": "uint256[]"
        }
      ],
      "stateMutability": "view",
      "type": "function"
    },
    {
      "inputs": [
        {
          "internalType": "uint256",
          "name": "amountIn",
          "type": "uint256"
        },
        {
          "internalType": "address[]",
          "name": "path",
          "type": "address[]"
        }
      ],
      "name": "getAmountsOut",
      "outputs": [
        {
          "internalType": "uint256[]",
          "name": "amounts",
          "type": "uint256[]"
        }
      ],
      "stateMutability": "view",
      "type": "function"
    },
    {
      "inputs": [
        {
          "internalType": "bytes[]",
          "name": "data",
          "type": "bytes[]"
        }
      ],
      "name": "multicall",
      "outputs": [
        {
          "internalType": "bytes[]",
          "name": "results",
          "type": "bytes[]"
        }
      ],
      "stateMutability": "payable",
      "type": "function"
    },
    {
      "inputs": [
        {
          "internalType": "address",
          "name": "tokenA",
          "type": "address"
        },
        {
          "internalType": "address",
          "name": "tokenB",
          "type": "address"
        }
      ],
      "name": "pairFor",
      "outputs": [
        {
          "internalType": "contract IPocketSwapPair",
          "name": "",
          "type": "address"
        }
      ],
      "stateMutability": "view",
      "type": "function"
    },
    {
      "inputs": [
        {
          "internalType": "uint256",
          "name": "amount0Delta",
          "type": "uint256"
        },
        {
          "internalType": "uint256",
          "name": "amount1Delta",
          "type": "uint256"
        },
        {
          "internalType": "bytes",
          "name": "_data",
          "type": "bytes"
        }
      ],
      "name": "pocketSwapCallback",
      "outputs": [],
      "stateMutability": "nonpayable",
      "type": "function"
    },
    {
      "inputs": [
        {
          "internalType": "uint256",
          "name": "amountA",
          "type": "uint256"
        },
        {
          "internalType": "uint256",
          "name": "reserveA",
          "type": "uint256"
        },
        {
          "internalType": "uint256",
          "name": "reserveB",
          "type": "uint256"
        }
      ],
      "name": "quote",
      "outputs": [
        {
          "internalType": "uint256",
          "name": "amountB",
          "type": "uint256"
        }
      ],
      "stateMutability": "pure",
      "type": "function"
    },
    {
      "inputs": [
        {
          "components": [
            {
              "internalType": "address",
              "name": "tokenA",
              "type": "address"
            },
            {
              "internalType": "address",
              "name": "tokenB",
              "type": "address"
            },
            {
              "internalType": "uint256",
              "name": "liquidity",
              "type": "uint256"
            },
            {
              "internalType": "uint256",
              "name": "amountAMin",
              "type": "uint256"
            },
            {
              "internalType": "uint256",
              "name": "amountBMin",
              "type": "uint256"
            },
            {
              "internalType": "address",
              "name": "recipient",
              "type": "address"
            },
            {
              "internalType": "uint256",
              "name": "deadline",
              "type": "uint256"
            }
          ],
          "internalType": "struct IPocketSwapLiquidityRouter.RemoveLiquidityParams",
          "name": "params",
          "type": "tuple"
        }
      ],
      "name": "removeLiquidity",
      "outputs": [
        {
          "internalType": "uint256",
          "name": "amountA",
          "type": "uint256"
        },
        {
          "internalType": "uint256",
          "name": "amountB",
          "type": "uint256"
        }
      ],
      "stateMutability": "payable",
      "type": "function"
    },
    {
      "inputs": [
        {
          "components": [
            {
              "internalType": "address",
              "name": "tokenIn",
              "type": "address"
            },
            {
              "internalType": "address",
              "name": "tokenOut",
              "type": "address"
            },
            {
              "internalType": "address",
              "name": "recipient",
              "type": "address"
            },
            {
              "internalType": "uint256",
              "name": "deadline",
              "type": "uint256"
            },
            {
              "internalType": "uint256",
              "name": "amountIn",
              "type": "uint256"
            },
            {
              "internalType": "uint256",
              "name": "amountOutMinimum",
              "type": "uint256"
            }
          ],
          "internalType": "struct IPocketSwapRouter.SwapParams",
          "name": "params",
          "type": "tuple"
        }
      ],
      "name": "swap",
      "outputs": [
        {
          "internalType": "uint256",
          "name": "amountOut",
          "type": "uint256"
        }
      ],
      "stateMutability": "payable",
      "type": "function"
    },
    {
      "inputs": [
        {
          "components": [
            {
              "internalType": "bytes",
              "name": "path",
              "type": "bytes"
            },
            {
              "internalType": "address",
              "name": "recipient",
              "type": "address"
            },
            {
              "internalType": "uint256",
              "name": "deadline",
              "type": "uint256"
            },
            {
              "internalType": "uint256",
              "name": "amountIn",
              "type": "uint256"
            },
            {
              "internalType": "uint256",
              "name": "amountOutMinimum",
              "type": "uint256"
            }
          ],
          "internalType": "struct IPocketSwapRouter.SwapMultiParams",
          "name": "params",
          "type": "tuple"
        }
      ],
      "name": "swapMulti",
      "outputs": [
        {
          "internalType": "uint256",
          "name": "amountOut",
          "type": "uint256"
        }
      ],
      "stateMutability": "payable",
      "type": "function"
    },
    {
      "inputs": [
        {
          "internalType": "address",
          "name": "token",
          "type": "address"
        },
        {
          "internalType": "uint256",
          "name": "amountMinimum",
          "type": "uint256"
        },
        {
          "internalType": "address",
          "name": "recipient",
          "type": "address"
        }
      ],
      "name": "sweepToken",
      "outputs": [],
      "stateMutability": "payable",
      "type": "function"
    },
    {
      "inputs": [
        {
          "internalType": "uint256",
          "name": "amountMinimum",
          "type": "uint256"
        },
        {
          "internalType": "address",
          "name": "recipient",
          "type": "address"
        }
      ],
      "name": "unwrapWETH9",
      "outputs": [],
      "stateMutability": "payable",
      "type": "function"
    },
    {
      "stateMutability": "payable",
      "type": "receive"
    }
  ],
  "bytecode": "0x60c06040526000196000553480156200001757600080fd5b5060405162002c8e38038062002c8e8339810160408190526200003a9162000076565b6001600160601b0319606092831b8116608052911b1660a052620000ad565b80516001600160a01b03811681146200007157600080fd5b919050565b6000806040838503121562000089578182fd5b620000948362000059565b9150620000a46020840162000059565b90509250929050565b60805160601c60a05160601c612b7b620001136000398061011d52806106175280610708528061079552508061039352806104e852806108305280610a455280610b505280610c5f5280610dd45280610dfd52806110a0528061166a5250612b7b6000f3fe60806040526004361061010d5760003560e01c80638d4d72e511610095578063c45a015511610064578063c45a015514610323578063d06ca61f14610338578063db3e219814610358578063df2ab5bb1461036b578063f28c04981461037e5761017d565b80638d4d72e5146102a157806396ed28f9146102c3578063ac9650d8146102e3578063ad615dec146103035761017d565b806349404b7c116100dc57806349404b7c1461020b5780634aa4a4fc1461021e5780637936cd901461024057806384cec8551461026057806385f8c259146102815761017d565b8063054d50d41461018257806313b51924146101b85780631f00ca74146101cb578063441a12de146101f85761017d565b3661017d57336001600160a01b037f0000000000000000000000000000000000000000000000000000000000000000161461017b576040805162461bcd60e51b81526020600482015260096024820152684e6f7420574554483960b81b604482015290519081900360640190fd5b005b600080fd5b34801561018e57600080fd5b506101a261019d366004612695565b61038c565b6040516101af9190612944565b60405180910390f35b6101a26101c6366004612446565b6103c2565b3480156101d757600080fd5b506101eb6101e636600461253e565b6104e1565b6040516101af91906127d5565b6101a26102063660046124f1565b610517565b61017b61021936600461251a565b610613565b34801561022a57600080fd5b50610233610793565b6040516101af9190612723565b34801561024c57600080fd5b5061017b61025b36600461261a565b6107b7565b61027361026e366004612435565b6107cf565b6040516101af92919061294d565b34801561028d57600080fd5b506101a261029c366004612695565b610a3e565b6102b46102af3660046123e1565b610a6c565b6040516101af93929190612992565b3480156102cf57600080fd5b506102336102de366004612266565b610c58565b6102f66102f13660046122df565b610c85565b6040516101af9190612775565b34801561030f57600080fd5b506101a261031e366004612695565b610dc5565b34801561032f57600080fd5b50610233610dd2565b34801561034457600080fd5b506101eb61035336600461253e565b610df6565b6101a26103663660046123e1565b610e23565b61017b61037936600461229e565b610e29565b6101a26103663660046123fd565b60006103ba7f0000000000000000000000000000000000000000000000000000000000000000858585610f0d565b949350505050565b60008160400151806103d2610fe6565b111561041b576040805162461bcd60e51b8152602060048201526013602482015272151c985b9cd858dd1a5bdb881d1bdbc81bdb19606a1b604482015290519081900360640190fd5b60009150335b60006104308560000151610fea565b905061047a85606001518261044957866020015161044b565b305b60405180604001604052806104638a60000151610ff6565b8152602001866001600160a01b0316815250611005565b6060860152801561049a578451309250610493906110f2565b85526104a7565b84606001519350506104ad565b50610421565b83608001518310156104da5760405162461bcd60e51b81526004016104d1906128da565b60405180910390fd5b5050919050565b606061050e7f0000000000000000000000000000000000000000000000000000000000000000848461110d565b90505b92915050565b6000816060013580610527610fe6565b1115610570576040805162461bcd60e51b8152602060048201526013602482015272151c985b9cd858dd1a5bdb881d1bdbc81bdb19606a1b604482015290519081900360640190fd5b6105e760808401356105886060860160408701612227565b60408051808201909152806105a06020890189612227565b6105b060408a0160208b01612227565b6040516020016105c19291906126ec565b6040516020818303038152906040528152602001336001600160a01b0316815250611005565b91508260a0013582101561060d5760405162461bcd60e51b81526004016104d1906128da565b50919050565b60007f00000000000000000000000000000000000000000000000000000000000000006001600160a01b03166370a08231306040518263ffffffff1660e01b815260040180826001600160a01b0316815260200191505060206040518083038186803b15801561068257600080fd5b505afa158015610696573d6000803e3d6000fd5b505050506040513d60208110156106ac57600080fd5b5051905082156107005782811015610700576040805162461bcd60e51b8152602060048201526012602482015271496e73756666696369656e7420574554483960701b604482015290519081900360640190fd5b801561078e577f00000000000000000000000000000000000000000000000000000000000000006001600160a01b0316632e1a7d4d826040518263ffffffff1660e01b815260040180828152602001915050600060405180830381600087803b15801561076c57600080fd5b505af1158015610780573d6000803e3d6000fd5b5050505061078e828261125b565b505050565b7f000000000000000000000000000000000000000000000000000000000000000081565b60405162461bcd60e51b81526004016104d19061282c565b6000808260c00135806107e0610fe6565b1115610829576040805162461bcd60e51b8152602060048201526013602482015272151c985b9cd858dd1a5bdb881d1bdbc81bdb19606a1b604482015290519081900360640190fd5b60006108717f000000000000000000000000000000000000000000000000000000000000000061085c6020880188612227565b61086c6040890160208a01612227565b611372565b9050806001600160a01b03166323b872dd338388604001356040518463ffffffff1660e01b81526004016108a793929190612737565b602060405180830381600087803b1580156108c157600080fd5b505af11580156108d5573d6000803e3d6000fd5b505050506040513d601f19601f820116820180604052508101906108f9919061234e565b506000806001600160a01b0383166389afcb4461091c60c08a0160a08b01612227565b6040518263ffffffff1660e01b81526004016109389190612723565b6040805180830381600087803b15801561095157600080fd5b505af1158015610965573d6000803e3d6000fd5b505050506040513d601f19601f8201168201806040525081019061098991906125f7565b909250905060006109b56109a060208a018a612227565b6109b060408b0160208c01612227565b61143b565b5090506001600160a01b0381166109cf60208a018a612227565b6001600160a01b0316146109e45781836109e7565b82825b90975095506060880135871015610a105760405162461bcd60e51b81526004016104d19061284c565b8760800135861015610a345760405162461bcd60e51b81526004016104d190612893565b5050505050915091565b60006103ba7f0000000000000000000000000000000000000000000000000000000000000000858585611519565b60008060008360e0013580610a7f610fe6565b1115610ac8576040805162461bcd60e51b8152602060048201526013602482015272151c985b9cd858dd1a5bdb881d1bdbc81bdb19606a1b604482015290519081900360640190fd5b610b44856060013586608001358760a001358860c0013560405180604001604052808b6000016020810190610afd9190612227565b610b0d60408e0160208f01612227565b604051602001610b1e9291906126ec565b6040516020818303038152906040528152602001336001600160a01b0316815250611663565b90945092506000610b8c7f0000000000000000000000000000000000000000000000000000000000000000610b7c6020890189612227565b61086c60408a0160208b01612227565b9050610ba6610b9e6020880188612227565b338388611873565b610bc1610bb96040880160208901612227565b338387611873565b6001600160a01b038116636a627842610be06060890160408a01612227565b6040518263ffffffff1660e01b8152600401610bfc9190612723565b602060405180830381600087803b158015610c1657600080fd5b505af1158015610c2a573d6000803e3d6000fd5b505050506040513d601f19601f82011682018060405250810190610c4e9190612502565b9496939550505050565b600061050e7f00000000000000000000000000000000000000000000000000000000000000008484611372565b60608167ffffffffffffffff81118015610c9e57600080fd5b50604051908082528060200260200182016040528015610cd257816020015b6060815260200190600190039081610cbd5790505b50905060005b82811015610dbe5760008030868685818110610cf057fe5b9050602002810190610d0291906129a8565b604051610d10929190612713565b600060405180830381855af49150503d8060008114610d4b576040519150601f19603f3d011682016040523d82523d6000602084013e610d50565b606091505b509150915081610d9c57604481511015610d6957600080fd5b60048101905080806020019051810190610d83919061236e565b60405162461bcd60e51b81526004016104d19190612819565b80848481518110610da957fe5b60209081029190910101525050600101610cd8565b5092915050565b60006103ba8484846119cb565b7f000000000000000000000000000000000000000000000000000000000000000081565b606061050e7f00000000000000000000000000000000000000000000000000000000000000008484611a71565b50600090565b6000836001600160a01b03166370a08231306040518263ffffffff1660e01b815260040180826001600160a01b0316815260200191505060206040518083038186803b158015610e7857600080fd5b505afa158015610e8c573d6000803e3d6000fd5b505050506040513d6020811015610ea257600080fd5b505190508215610ef65782811015610ef6576040805162461bcd60e51b815260206004820152601260248201527124b739bab33334b1b4b2b73a103a37b5b2b760711b604482015290519081900360640190fd5b8015610f0757610f07848383611ba9565b50505050565b6000808411610f4d5760405162461bcd60e51b815260040180806020018281038252602c815260200180612ac7602c913960400191505060405180910390fd5b600083118015610f5d5750600082115b610f985760405162461bcd60e51b8152600401808060200182810382526029815260200180612a9e6029913960400191505060405180910390fd5b6000610fa6856103e5611cf0565b90506000610fb48285611cf0565b90506000610fce83610fc8886103e8611cf0565b90611d53565b9050808281610fd957fe5b0498975050505050505050565b4290565b8051603c11155b919050565b60606105118260006028611da2565b6000806000611017846000015161134a565b60408051600280825260608201835293955091935060009290602083019080368337019050509050828160008151811061104d57fe5b60200260200101906001600160a01b031690816001600160a01b031681525050818160018151811061107b57fe5b60200260200101906001600160a01b031690816001600160a01b0316815250506110c67f00000000000000000000000000000000000000000000000000000000000000008883611a71565b6001815181106110d257fe5b602002602001015193506110e886888688611ef3565b5050509392505050565b606061051160148084510384611da29092919063ffffffff16565b6060600282511015611166576040805162461bcd60e51b815260206004820152601f60248201527f506f636b6574537761704c6962726172793a20494e56414c49445f5041544800604482015290519081900360640190fd5b815167ffffffffffffffff8111801561117e57600080fd5b506040519080825280602002602001820160405280156111a8578160200160208202803683370190505b50905082816001835103815181106111bc57fe5b60209081029190910101528151600019015b80156112535760008061120b878660018603815181106111ea57fe5b60200260200101518786815181106111fe57fe5b6020026020010151611feb565b9150915061122e8785858151811061121f57fe5b60200260200101518484611519565b84600185038151811061123d57fe5b60209081029190910101525050600019016111ce565b509392505050565b604080516000808252602082019092526001600160a01b0384169083906040518082805190602001908083835b602083106112a75780518252601f199092019160209182019101611288565b6001836020036101000a03801982511681845116808217855250505050505090500191505060006040518083038185875af1925050503d8060008114611309576040519150601f19603f3d011682016040523d82523d6000602084013e61130e565b606091505b505090508061078e576040805162461bcd60e51b815260206004820152600360248201526253544560e81b604482015290519081900360640190fd5b60008061135783826120b9565b91506113648360146120b9565b9050915091565b5050505050565b6000816001600160a01b0316836001600160a01b03161115611392579091905b50604080516bffffffffffffffffffffffff19606094851b811660208084019190915293851b81166034830152825160288184030181526048830184528051908501206001600160f81b031960688401529590941b9093166069840152607d8301939093527fd24446bb6613120a8b987a0c6a7f241b8dbdf03b99cce4a70aa35a0546f9afd5609d808401919091528351808403909101815260bd909201909252805191012090565b600080826001600160a01b0316846001600160a01b0316141561148f5760405162461bcd60e51b8152600401808060200182810382526026815260200180612a786026913960400191505060405180910390fd5b826001600160a01b0316846001600160a01b0316106114af5782846114b2565b83835b90925090506001600160a01b038216611512576040805162461bcd60e51b815260206004820152601f60248201527f506f636b6574537761704c6962726172793a205a45524f5f4144445245535300604482015290519081900360640190fd5b9250929050565b60008084116115595760405162461bcd60e51b815260040180806020018281038252602d815260200180612b19602d913960400191505060405180910390fd5b6000831180156115695750600082115b6115a45760405162461bcd60e51b8152600401808060200182810382526029815260200180612a9e6029913960400191505060405180910390fd5b6000856001600160a01b031663ddca3f436040518163ffffffff1660e01b815260040160206040518083038186803b1580156115df57600080fd5b505afa1580156115f3573d6000803e3d6000fd5b505050506040513d602081101561160957600080fd5b505190506000611627633b9aca006116218789611cf0565b90611cf0565b90506000611640633b9aca00849003611621878a612169565b9050611657600182848161165057fe5b0490611d53565b98975050505050505050565b60008060007f0000000000000000000000000000000000000000000000000000000000000000905060008061169b866000015161134a565b60405163e6a4390560e01b815291935091506000906001600160a01b0385169063e6a43905906116d1908690869060040161275b565b60206040518083038186803b1580156116e957600080fd5b505afa1580156116fd573d6000803e3d6000fd5b505050506040513d601f19601f82011682018060405250810190611721919061224a565b6001600160a01b031614156117b2576040516364e329cb60e11b81526001600160a01b0384169063c9c653969061175e908590859060040161275b565b602060405180830381600087803b15801561177857600080fd5b505af115801561178c573d6000803e3d6000fd5b505050506040513d601f19601f820116820180604052508101906117b0919061224a565b505b6000806117c0858585611feb565b915091508160001480156117d2575080155b156117e2578b96508a9550611864565b60006117ef8d84846119cb565b90508b811161182357898110156118185760405162461bcd60e51b81526004016104d190612893565b8c9750955085611862565b60006118308d84866119cb565b90508d81111561183c57fe5b8b81101561185c5760405162461bcd60e51b81526004016104d19061284c565b97508b96505b505b50505050509550959350505050565b604080516001600160a01b0385811660248301528481166044830152606480830185905283518084039091018152608490920183526020820180516001600160e01b03166323b872dd60e01b178152925182516000948594938a169392918291908083835b602083106118f75780518252601f1990920191602091820191016118d8565b6001836020036101000a0380198251168184511680821785525050505050509050019150506000604051808303816000865af19150503d8060008114611959576040519150601f19603f3d011682016040523d82523d6000602084013e61195e565b606091505b509150915081801561198c57508051158061198c575080806020019051602081101561198957600080fd5b50515b6119c3576040805162461bcd60e51b815260206004820152600360248201526229aa2360e91b604482015290519081900360640190fd5b505050505050565b6000808411611a0b5760405162461bcd60e51b8152600401808060200182810382526026815260200180612af36026913960400191505060405180910390fd5b600083118015611a1b5750600082115b611a565760405162461bcd60e51b8152600401808060200182810382526029815260200180612a9e6029913960400191505060405180910390fd5b82611a618584611cf0565b81611a6857fe5b04949350505050565b6060600282511015611aca576040805162461bcd60e51b815260206004820152601f60248201527f506f636b6574537761704c6962726172793a20494e56414c49445f5041544800604482015290519081900360640190fd5b815167ffffffffffffffff81118015611ae257600080fd5b50604051908082528060200260200182016040528015611b0c578160200160208202803683370190505b5090508281600081518110611b1d57fe5b60200260200101818152505060005b600183510381101561125357600080611b6287868581518110611b4b57fe5b60200260200101518786600101815181106111fe57fe5b91509150611b8587858581518110611b7657fe5b60200260200101518484610f0d565b848460010181518110611b9457fe5b60209081029190910101525050600101611b2c565b604080516001600160a01b038481166024830152604480830185905283518084039091018152606490920183526020820180516001600160e01b031663a9059cbb60e01b1781529251825160009485949389169392918291908083835b60208310611c255780518252601f199092019160209182019101611c06565b6001836020036101000a0380198251168184511680821785525050505050509050019150506000604051808303816000865af19150503d8060008114611c87576040519150601f19603f3d011682016040523d82523d6000602084013e611c8c565b606091505b5091509150818015611cba575080511580611cba5750808060200190516020811015611cb757600080fd5b50515b61136b576040805162461bcd60e51b815260206004820152600260248201526114d560f21b604482015290519081900360640190fd5b6000811580611d0b57505080820282828281611d0857fe5b04145b610511576040805162461bcd60e51b815260206004820152601460248201527364732d6d6174682d6d756c2d6f766572666c6f7760601b604482015290519081900360640190fd5b80820182811015610511576040805162461bcd60e51b815260206004820152601460248201527364732d6d6174682d6164642d6f766572666c6f7760601b604482015290519081900360640190fd5b60608182601f011015611ded576040805162461bcd60e51b815260206004820152600e60248201526d736c6963655f6f766572666c6f7760901b604482015290519081900360640190fd5b828284011015611e35576040805162461bcd60e51b815260206004820152600e60248201526d736c6963655f6f766572666c6f7760901b604482015290519081900360640190fd5b81830184511015611e81576040805162461bcd60e51b8152602060048201526011602482015270736c6963655f6f75744f66426f756e647360781b604482015290519081900360640190fd5b606082158015611ea05760405191506000825260208201604052611eea565b6040519150601f8416801560200281840101858101878315602002848b0101015b81831015611ed9578051835260209283019201611ec1565b5050858452601f01601f1916604052505b50949350505050565b600080611f03836000015161134a565b915091506000611f138383610c58565b9050611f2183338389611873565b6000611f2d848461143b565b509050600080826001600160a01b0316866001600160a01b031614611f5457876000611f58565b6000885b91509150836001600160a01b031663022c0d9f83838d8b604051602001611f7f9190612907565b6040516020818303038152906040526040518563ffffffff1660e01b8152600401611fad949392919061295b565b600060405180830381600087803b158015611fc757600080fd5b505af1158015611fdb573d6000803e3d6000fd5b5050505050505050505050505050565b6000806000611ffa858561143b565b50905060008061200b888888611372565b6001600160a01b0316630902f1ac6040518163ffffffff1660e01b815260040160606040518083038186803b15801561204357600080fd5b505afa158015612057573d6000803e3d6000fd5b505050506040513d606081101561206d57600080fd5b5080516020909101516dffffffffffffffffffffffffffff91821693501690506001600160a01b03878116908416146120a75780826120aa565b81815b90999098509650505050505050565b600081826014011015612108576040805162461bcd60e51b8152602060048201526012602482015271746f416464726573735f6f766572666c6f7760701b604482015290519081900360640190fd5b8160140183511015612159576040805162461bcd60e51b8152602060048201526015602482015274746f416464726573735f6f75744f66426f756e647360581b604482015290519081900360640190fd5b500160200151600160601b900490565b80820382811115610511576040805162461bcd60e51b815260206004820152601560248201527464732d6d6174682d7375622d756e646572666c6f7760581b604482015290519081900360640190fd5b8035610ff181612a5f565b600082601f8301126121d4578081fd5b81356121e76121e282612a11565b6129ed565b8181528460208386010111156121fb578283fd5b816020850160208301379081016020019190915292915050565b6000610100828403121561060d578081fd5b600060208284031215612238578081fd5b813561224381612a5f565b9392505050565b60006020828403121561225b578081fd5b815161224381612a5f565b60008060408385031215612278578081fd5b823561228381612a5f565b9150602083013561229381612a5f565b809150509250929050565b6000806000606084860312156122b2578081fd5b83356122bd81612a5f565b92506020840135915060408401356122d481612a5f565b809150509250925092565b600080602083850312156122f1578182fd5b823567ffffffffffffffff80821115612308578384fd5b818501915085601f83011261231b578384fd5b813581811115612329578485fd5b866020808302850101111561233c578485fd5b60209290920196919550909350505050565b60006020828403121561235f578081fd5b81518015158114612243578182fd5b60006020828403121561237f578081fd5b815167ffffffffffffffff811115612395578182fd5b8201601f810184136123a5578182fd5b80516123b36121e282612a11565b8181528560208385010111156123c7578384fd5b6123d8826020830160208601612a33565b95945050505050565b600061010082840312156123f3578081fd5b61050e8383612215565b60006020828403121561240e578081fd5b813567ffffffffffffffff811115612424578182fd5b820160a08185031215612243578182fd5b600060e0828403121561060d578081fd5b600060208284031215612457578081fd5b813567ffffffffffffffff8082111561246e578283fd5b9083019060a08286031215612481578283fd5b60405160a08101818110838211171561249657fe5b6040528235828111156124a7578485fd5b6124b3878286016121c4565b8252506124c2602084016121b9565b602082015260408301356040820152606083013560608201526080830135608082015280935050505092915050565b600060c0828403121561060d578081fd5b600060208284031215612513578081fd5b5051919050565b6000806040838503121561252c578182fd5b82359150602083013561229381612a5f565b60008060408385031215612550578182fd5b8235915060208084013567ffffffffffffffff8082111561256f578384fd5b818601915086601f830112612582578384fd5b81358181111561258e57fe5b838102915061259e8483016129ed565b8181528481019084860184860187018b10156125b8578788fd5b8795505b838610156125e657803594506125d185612a5f565b848352600195909501949186019186016125bc565b508096505050505050509250929050565b60008060408385031215612609578182fd5b505080516020909101519092909150565b6000806000806060858703121561262f578182fd5b8435935060208501359250604085013567ffffffffffffffff80821115612654578384fd5b818701915087601f830112612667578384fd5b813581811115612675578485fd5b886020828501011115612686578485fd5b95989497505060200194505050565b6000806000606084860312156126a9578081fd5b505081359360208301359350604090920135919050565b600081518084526126d8816020860160208601612a33565b601f01601f19169290920160200192915050565b6bffffffffffffffffffffffff19606093841b811682529190921b16601482015260280190565b6000828483379101908152919050565b6001600160a01b0391909116815260200190565b6001600160a01b039384168152919092166020820152604081019190915260600190565b6001600160a01b0392831681529116602082015260400190565b6000602080830181845280855180835260408601915060408482028701019250838701855b828110156127c857603f198886030184526127b68583516126c0565b9450928501929085019060010161279a565b5092979650505050505050565b6020808252825182820181905260009190848201906040850190845b8181101561280d578351835292840192918401916001016127f1565b50909695505050505050565b60006020825261050e60208301846126c0565b60208082526006908201526531323332343160d01b604082015260600190565b60208082526027908201527f506f636b657453776170526f757465723a20494e53554646494349454e545f4160408201526617d05353d5539560ca1b606082015260800190565b60208082526027908201527f506f636b657453776170526f757465723a20494e53554646494349454e545f4260408201526617d05353d5539560ca1b606082015260800190565b602080825260139082015272151bdbc81b1a5d1d1b19481c9958d95a5d9959606a1b604082015260600190565b60006020825282516040602084015261292360608401826126c0565b602094909401516001600160a01b0316604093909301929092525090919050565b90815260200190565b918252602082015260400190565b600085825284602083015260018060a01b03841660408301526080606083015261298860808301846126c0565b9695505050505050565b9283526020830191909152604082015260600190565b6000808335601e198436030181126129be578283fd5b83018035915067ffffffffffffffff8211156129d8578283fd5b60200191503681900382131561151257600080fd5b60405181810167ffffffffffffffff81118282101715612a0957fe5b604052919050565b600067ffffffffffffffff821115612a2557fe5b50601f01601f191660200190565b60005b83811015612a4e578181015183820152602001612a36565b83811115610f075750506000910152565b6001600160a01b0381168114612a7457600080fd5b5056fe506f636b6574537761704c6962726172793a204944454e544943414c5f414444524553534553506f636b6574537761704c6962726172793a20494e53554646494349454e545f4c4951554944495459506f636b6574537761704c6962726172793a20494e53554646494349454e545f494e5055545f414d4f554e54506f636b6574537761704c6962726172793a20494e53554646494349454e545f414d4f554e54506f636b6574537761704c6962726172793a20494e53554646494349454e545f4f55545055545f414d4f554e54a26469706673582212209832d195d779890a804f3b00ddb0534a3e35698c5e7bece86ffa0b61f2845c9c64736f6c63430007060033",
  "immutableReferences": {
    "2887": [
      {
        "length": 32,
        "start": 915
      },
      {
        "length": 32,
        "start": 1256
      },
      {
        "length": 32,
        "start": 2096
      },
      {
        "length": 32,
        "start": 2629
      },
      {
        "length": 32,
        "start": 2896
      },
      {
        "length": 32,
        "start": 3167
      },
      {
        "length": 32,
        "start": 3540
      },
      {
        "length": 32,
        "start": 3581
      },
      {
        "length": 32,
        "start": 4256
      },
      {
        "length": 32,
        "start": 5738
      }
    ],
    "2891": [
      {
        "length": 32,
        "start": 285
      },
      {
        "length": 32,
        "start": 1559
      },
      {
        "length": 32,
        "start": 1800
      },
      {
        "length": 32,
        "start": 1941
      }
    ]
  },
  "source": "// SPDX-License-Identifier: Unlicensed\npragma solidity >=0.6.12;\npragma abicoder v2;\n\nimport \"./SwapRouter.sol\";\nimport \"./LiquidityRouter.sol\";\nimport \"./abstract/PeripheryImmutableState.sol\";\n\ncontract PocketSwapRouter is\nPeripheryImmutableState,\nPeripheryValidation,\nSwapRouter,\nLiquidityRouter\n{\n    constructor(address _factory, address _WETH9)\n    PeripheryImmutableState(_factory, _WETH9) {}\n}",
  "sourcePath": "/Users/ilyk/projects/midgardtech/xpocket-PocketSwap/contracts/pocketswap/PocketSwapRouter.sol",
  "compiler": {
    "name": "solc",
    "version": "0.7.6+commit.7338295f.Emscripten.clang"
  },
  "schemaVersion": "3.3.3",
  "updatedAt": "2021-04-15T14:52:35.500Z",
  "devdoc": {
    "kind": "dev",
    "methods": {
      "exactOutput((bytes,address,uint256,uint256,uint256))": {
        "params": {
          "params": "The parameters necessary for the multi-hop swap, encoded as `OutputParams` in calldata"
        },
        "returns": {
          "amountIn": "The amount of the input token"
        }
      },
      "exactOutputSingle((address,address,uint24,address,uint256,uint256,uint256,uint160))": {
        "params": {
          "params": "The parameters necessary for the swap, encoded as `OutputSingleParams` in calldata"
        },
        "returns": {
          "amountIn": "The amount of the input token"
        }
      },
      "multicall(bytes[])": {
        "details": "The `msg.value` should not be trusted for any method callable from multicall.",
        "params": {
          "data": "The encoded function data for each of the calls to make to this contract"
        },
        "returns": {
          "results": "The results from each of the calls passed in via data"
        }
      },
      "swap((address,address,address,uint256,uint256,uint256))": {
        "params": {
          "params": "The parameters necessary for the swap, encoded as `SwapParams` in calldata"
        },
        "returns": {
          "amountOut": "The amount of the received token"
        }
      },
      "swapMulti((bytes,address,uint256,uint256,uint256))": {
        "params": {
          "params": "The parameters necessary for the multi-hop swap, encoded as `SwapMultiParams` in calldata"
        },
        "returns": {
          "amountOut": "The amount of the received token"
        }
      },
      "sweepToken(address,uint256,address)": {
        "details": "The amountMinimum parameter prevents malicious contracts from stealing the token from users",
        "params": {
          "amountMinimum": "The minimum amount of token required for a transfer",
          "recipient": "The destination address of the token",
          "token": "The contract address of the token which will be transferred to `recipient`"
        }
      },
      "unwrapWETH9(uint256,address)": {
        "details": "The amountMinimum parameter prevents malicious contracts from stealing WETH9 from users.",
        "params": {
          "amountMinimum": "The minimum amount of WETH9 to unwrap",
          "recipient": "The address receiving ETH"
        }
      }
    },
    "version": 1
  },
  "userdoc": {
    "kind": "user",
    "methods": {
      "exactOutput((bytes,address,uint256,uint256,uint256))": {
        "notice": "Swaps as little as possible of one token for `amountOut` of another along the specified path (reversed)"
      },
      "exactOutputSingle((address,address,uint24,address,uint256,uint256,uint256,uint160))": {
        "notice": "Swaps as little as possible of one token for `amountOut` of another token"
      },
      "multicall(bytes[])": {
        "notice": "Call multiple functions in the current contract and return the data from all of them if they all succeed"
      },
      "swap((address,address,address,uint256,uint256,uint256))": {
        "notice": "Swaps `amountIn` of one token for as much as possible of another token"
      },
      "swapMulti((bytes,address,uint256,uint256,uint256))": {
        "notice": "Swaps `amountIn` of one token for as much as possible of another along the specified path"
      },
      "sweepToken(address,uint256,address)": {
        "notice": "Sends the full amount of a token held by this contract to the given recipient"
      },
      "unwrapWETH9(uint256,address)": {
        "notice": "Unwraps the contract's WETH9 balance and sends it to recipient as ETH."
      }
    },
    "version": 1
  }
}