{
  "contractName": "PocketSwap",
  "abi": [
    {
      "inputs": [],
      "name": "rewardsPerToken",
      "outputs": [
        {
          "internalType": "uint256",
          "name": "",
          "type": "uint256"
        }
      ],
      "stateMutability": "view",
      "type": "function"
    },
    {
      "inputs": [],
      "name": "router",
      "outputs": [
        {
          "internalType": "contract IPocketSwapRouter",
          "name": "",
          "type": "address"
        }
      ],
      "stateMutability": "view",
      "type": "function"
    },
    {
      "inputs": [
        {
          "internalType": "address",
          "name": "",
          "type": "address"
        }
      ],
      "name": "takenReward",
      "outputs": [
        {
          "internalType": "uint256",
          "name": "",
          "type": "uint256"
        }
      ],
      "stateMutability": "view",
      "type": "function"
    },
    {
      "inputs": [],
      "name": "tokenHoldersFee",
      "outputs": [
        {
          "internalType": "address",
          "name": "",
          "type": "address"
        }
      ],
      "stateMutability": "view",
      "type": "function"
    },
    {
      "inputs": [
        {
          "components": [
            {
              "internalType": "address",
              "name": "tokenIn",
              "type": "address"
            },
            {
              "internalType": "address",
              "name": "tokenOut",
              "type": "address"
            },
            {
              "internalType": "address",
              "name": "recipient",
              "type": "address"
            },
            {
              "internalType": "uint256",
              "name": "deadline",
              "type": "uint256"
            },
            {
              "internalType": "uint256",
              "name": "amountIn",
              "type": "uint256"
            },
            {
              "internalType": "uint256",
              "name": "amountOutMinimum",
              "type": "uint256"
            }
          ],
          "internalType": "struct IPocketSwapRouter.SwapParams",
          "name": "params",
          "type": "tuple"
        }
      ],
      "name": "swap",
      "outputs": [],
      "stateMutability": "nonpayable",
      "type": "function"
    }
  ],
  "bytecode": "0x608060405234801561001057600080fd5b5061029e806100206000396000f3fe608060405234801561001057600080fd5b50600436106100575760003560e01c8063253f0c541461005c578063441a12de1461008557806370641a361461009a578063f7e46ea2146100a2578063f887ea40146100b7575b600080fd5b61006f61006a366004610197565b6100bf565b60405161007c919061025f565b60405180910390f35b6100986100933660046101b8565b6100d1565b005b61006f610157565b6100aa61015d565b60405161007c91906101e7565b6100aa61016c565b60036020526000908152604090205481565b60005460405163220d096f60e11b81526001600160a01b039091169063441a12de906101019084906004016101fb565b602060405180830381600087803b15801561011b57600080fd5b505af115801561012f573d6000803e3d6000fd5b505050506040513d601f19601f8201168201806040525081019061015391906101cf565b5050565b60025481565b6001546001600160a01b031681565b6000546001600160a01b031681565b80356001600160a01b038116811461019257600080fd5b919050565b6000602082840312156101a8578081fd5b6101b18261017b565b9392505050565b600060c082840312156101c9578081fd5b50919050565b6000602082840312156101e0578081fd5b5051919050565b6001600160a01b0391909116815260200190565b60c081016001600160a01b03806102118561017b565b168352806102216020860161017b565b166020840152806102346040860161017b565b16604084015250606083013560608301526080830135608083015260a083013560a083015292915050565b9081526020019056fea26469706673582212209475168c86108d3a4093b5d83c0e556268699612677bc0c08fa96a4a937bf0b264736f6c63430007060033",
  "immutableReferences": {},
  "source": "// SPDX-License-Identifier: Unlicensed\npragma solidity >=0.6.12;\npragma abicoder v2;\n\nimport \"./pocketswap/interfaces/IPocketSwapRouter.sol\";\n\ncontract PocketSwap {\n    IPocketSwapRouter public router;\n    address public tokenHoldersFee;\n    uint public rewardsPerToken;\n    mapping(address => uint) public takenReward;\n\n    function swap(IPocketSwapRouter.SwapParams calldata params) external {\n        router.swap(params);\n    }\n}\n",
  "sourcePath": "/Users/ilyk/projects/midgardtech/xpocket-PocketSwap/contracts/PocketSwap.sol",
  "compiler": {
    "name": "solc",
    "version": "0.7.6+commit.7338295f.Emscripten.clang"
  },
  "schemaVersion": "3.3.4",
  "updatedAt": "2021-04-29T12:13:15.455Z",
  "devdoc": {
    "kind": "dev",
    "methods": {},
    "version": 1
  },
  "userdoc": {
    "kind": "user",
    "methods": {},
    "version": 1
  }
}