{
  "contractName": "PocketSwapRouter",
  "abi": [
    {
      "inputs": [
        {
          "internalType": "address",
          "name": "_factory",
          "type": "address"
        },
        {
          "internalType": "address",
          "name": "_WETH",
          "type": "address"
        }
      ],
      "stateMutability": "nonpayable",
      "type": "constructor"
    },
    {
      "inputs": [],
      "name": "WETH",
      "outputs": [
        {
          "internalType": "address",
          "name": "",
          "type": "address"
        }
      ],
      "stateMutability": "view",
      "type": "function"
    },
    {
      "inputs": [],
      "name": "factory",
      "outputs": [
        {
          "internalType": "address",
          "name": "",
          "type": "address"
        }
      ],
      "stateMutability": "view",
      "type": "function"
    },
    {
      "stateMutability": "payable",
      "type": "receive"
    },
    {
      "inputs": [
        {
          "internalType": "address",
          "name": "tokenA",
          "type": "address"
        },
        {
          "internalType": "address",
          "name": "tokenB",
          "type": "address"
        },
        {
          "internalType": "uint256",
          "name": "amountADesired",
          "type": "uint256"
        },
        {
          "internalType": "uint256",
          "name": "amountBDesired",
          "type": "uint256"
        },
        {
          "internalType": "uint256",
          "name": "amountAMin",
          "type": "uint256"
        },
        {
          "internalType": "uint256",
          "name": "amountBMin",
          "type": "uint256"
        },
        {
          "internalType": "address",
          "name": "to",
          "type": "address"
        },
        {
          "internalType": "uint256",
          "name": "deadline",
          "type": "uint256"
        }
      ],
      "name": "addLiquidity",
      "outputs": [
        {
          "internalType": "uint256",
          "name": "amountA",
          "type": "uint256"
        },
        {
          "internalType": "uint256",
          "name": "amountB",
          "type": "uint256"
        },
        {
          "internalType": "uint256",
          "name": "liquidity",
          "type": "uint256"
        }
      ],
      "stateMutability": "nonpayable",
      "type": "function"
    },
    {
      "inputs": [
        {
          "internalType": "address",
          "name": "token",
          "type": "address"
        },
        {
          "internalType": "uint256",
          "name": "amountTokenDesired",
          "type": "uint256"
        },
        {
          "internalType": "uint256",
          "name": "amountTokenMin",
          "type": "uint256"
        },
        {
          "internalType": "uint256",
          "name": "amountETHMin",
          "type": "uint256"
        },
        {
          "internalType": "address",
          "name": "to",
          "type": "address"
        },
        {
          "internalType": "uint256",
          "name": "deadline",
          "type": "uint256"
        }
      ],
      "name": "addLiquidityETH",
      "outputs": [
        {
          "internalType": "uint256",
          "name": "amountToken",
          "type": "uint256"
        },
        {
          "internalType": "uint256",
          "name": "amountETH",
          "type": "uint256"
        },
        {
          "internalType": "uint256",
          "name": "liquidity",
          "type": "uint256"
        }
      ],
      "stateMutability": "payable",
      "type": "function"
    },
    {
      "inputs": [
        {
          "internalType": "address",
          "name": "tokenA",
          "type": "address"
        },
        {
          "internalType": "address",
          "name": "tokenB",
          "type": "address"
        },
        {
          "internalType": "uint256",
          "name": "liquidity",
          "type": "uint256"
        },
        {
          "internalType": "uint256",
          "name": "amountAMin",
          "type": "uint256"
        },
        {
          "internalType": "uint256",
          "name": "amountBMin",
          "type": "uint256"
        },
        {
          "internalType": "address",
          "name": "to",
          "type": "address"
        },
        {
          "internalType": "uint256",
          "name": "deadline",
          "type": "uint256"
        }
      ],
      "name": "removeLiquidity",
      "outputs": [
        {
          "internalType": "uint256",
          "name": "amountA",
          "type": "uint256"
        },
        {
          "internalType": "uint256",
          "name": "amountB",
          "type": "uint256"
        }
      ],
      "stateMutability": "nonpayable",
      "type": "function"
    },
    {
      "inputs": [
        {
          "internalType": "address",
          "name": "token",
          "type": "address"
        },
        {
          "internalType": "uint256",
          "name": "liquidity",
          "type": "uint256"
        },
        {
          "internalType": "uint256",
          "name": "amountTokenMin",
          "type": "uint256"
        },
        {
          "internalType": "uint256",
          "name": "amountETHMin",
          "type": "uint256"
        },
        {
          "internalType": "address",
          "name": "to",
          "type": "address"
        },
        {
          "internalType": "uint256",
          "name": "deadline",
          "type": "uint256"
        }
      ],
      "name": "removeLiquidityETH",
      "outputs": [
        {
          "internalType": "uint256",
          "name": "amountToken",
          "type": "uint256"
        },
        {
          "internalType": "uint256",
          "name": "amountETH",
          "type": "uint256"
        }
      ],
      "stateMutability": "nonpayable",
      "type": "function"
    },
    {
      "inputs": [
        {
          "internalType": "address",
          "name": "tokenA",
          "type": "address"
        },
        {
          "internalType": "address",
          "name": "tokenB",
          "type": "address"
        },
        {
          "internalType": "uint256",
          "name": "liquidity",
          "type": "uint256"
        },
        {
          "internalType": "uint256",
          "name": "amountAMin",
          "type": "uint256"
        },
        {
          "internalType": "uint256",
          "name": "amountBMin",
          "type": "uint256"
        },
        {
          "internalType": "address",
          "name": "to",
          "type": "address"
        },
        {
          "internalType": "uint256",
          "name": "deadline",
          "type": "uint256"
        },
        {
          "internalType": "bool",
          "name": "approveMax",
          "type": "bool"
        },
        {
          "internalType": "uint8",
          "name": "v",
          "type": "uint8"
        },
        {
          "internalType": "bytes32",
          "name": "r",
          "type": "bytes32"
        },
        {
          "internalType": "bytes32",
          "name": "s",
          "type": "bytes32"
        }
      ],
      "name": "removeLiquidityWithPermit",
      "outputs": [
        {
          "internalType": "uint256",
          "name": "amountA",
          "type": "uint256"
        },
        {
          "internalType": "uint256",
          "name": "amountB",
          "type": "uint256"
        }
      ],
      "stateMutability": "nonpayable",
      "type": "function"
    },
    {
      "inputs": [
        {
          "internalType": "address",
          "name": "tokenA",
          "type": "address"
        },
        {
          "internalType": "address",
          "name": "tokenB",
          "type": "address"
        }
      ],
      "name": "pairFor",
      "outputs": [
        {
          "internalType": "address",
          "name": "",
          "type": "address"
        }
      ],
      "stateMutability": "view",
      "type": "function"
    },
    {
      "inputs": [
        {
          "internalType": "address",
          "name": "token",
          "type": "address"
        },
        {
          "internalType": "uint256",
          "name": "liquidity",
          "type": "uint256"
        },
        {
          "internalType": "uint256",
          "name": "amountTokenMin",
          "type": "uint256"
        },
        {
          "internalType": "uint256",
          "name": "amountETHMin",
          "type": "uint256"
        },
        {
          "internalType": "address",
          "name": "to",
          "type": "address"
        },
        {
          "internalType": "uint256",
          "name": "deadline",
          "type": "uint256"
        },
        {
          "internalType": "bool",
          "name": "approveMax",
          "type": "bool"
        },
        {
          "internalType": "uint8",
          "name": "v",
          "type": "uint8"
        },
        {
          "internalType": "bytes32",
          "name": "r",
          "type": "bytes32"
        },
        {
          "internalType": "bytes32",
          "name": "s",
          "type": "bytes32"
        }
      ],
      "name": "removeLiquidityETHWithPermit",
      "outputs": [
        {
          "internalType": "uint256",
          "name": "amountToken",
          "type": "uint256"
        },
        {
          "internalType": "uint256",
          "name": "amountETH",
          "type": "uint256"
        }
      ],
      "stateMutability": "nonpayable",
      "type": "function"
    },
    {
      "inputs": [
        {
          "internalType": "address",
          "name": "token",
          "type": "address"
        },
        {
          "internalType": "uint256",
          "name": "liquidity",
          "type": "uint256"
        },
        {
          "internalType": "uint256",
          "name": "amountTokenMin",
          "type": "uint256"
        },
        {
          "internalType": "uint256",
          "name": "amountETHMin",
          "type": "uint256"
        },
        {
          "internalType": "address",
          "name": "to",
          "type": "address"
        },
        {
          "internalType": "uint256",
          "name": "deadline",
          "type": "uint256"
        }
      ],
      "name": "removeLiquidityETHSupportingFeeOnTransferTokens",
      "outputs": [
        {
          "internalType": "uint256",
          "name": "amountETH",
          "type": "uint256"
        }
      ],
      "stateMutability": "nonpayable",
      "type": "function"
    },
    {
      "inputs": [
        {
          "internalType": "address",
          "name": "token",
          "type": "address"
        },
        {
          "internalType": "uint256",
          "name": "liquidity",
          "type": "uint256"
        },
        {
          "internalType": "uint256",
          "name": "amountTokenMin",
          "type": "uint256"
        },
        {
          "internalType": "uint256",
          "name": "amountETHMin",
          "type": "uint256"
        },
        {
          "internalType": "address",
          "name": "to",
          "type": "address"
        },
        {
          "internalType": "uint256",
          "name": "deadline",
          "type": "uint256"
        },
        {
          "internalType": "bool",
          "name": "approveMax",
          "type": "bool"
        },
        {
          "internalType": "uint8",
          "name": "v",
          "type": "uint8"
        },
        {
          "internalType": "bytes32",
          "name": "r",
          "type": "bytes32"
        },
        {
          "internalType": "bytes32",
          "name": "s",
          "type": "bytes32"
        }
      ],
      "name": "removeLiquidityETHWithPermitSupportingFeeOnTransferTokens",
      "outputs": [
        {
          "internalType": "uint256",
          "name": "amountETH",
          "type": "uint256"
        }
      ],
      "stateMutability": "nonpayable",
      "type": "function"
    },
    {
      "inputs": [
        {
          "internalType": "uint256",
          "name": "amountIn",
          "type": "uint256"
        },
        {
          "internalType": "uint256",
          "name": "amountOutMin",
          "type": "uint256"
        },
        {
          "internalType": "address[]",
          "name": "path",
          "type": "address[]"
        },
        {
          "internalType": "address",
          "name": "to",
          "type": "address"
        },
        {
          "internalType": "uint256",
          "name": "deadline",
          "type": "uint256"
        }
      ],
      "name": "swapExactTokensForTokens",
      "outputs": [
        {
          "internalType": "uint256[]",
          "name": "amounts",
          "type": "uint256[]"
        }
      ],
      "stateMutability": "nonpayable",
      "type": "function"
    },
    {
      "inputs": [
        {
          "internalType": "uint256",
          "name": "amountOut",
          "type": "uint256"
        },
        {
          "internalType": "uint256",
          "name": "amountInMax",
          "type": "uint256"
        },
        {
          "internalType": "address[]",
          "name": "path",
          "type": "address[]"
        },
        {
          "internalType": "address",
          "name": "to",
          "type": "address"
        },
        {
          "internalType": "uint256",
          "name": "deadline",
          "type": "uint256"
        }
      ],
      "name": "swapTokensForExactTokens",
      "outputs": [
        {
          "internalType": "uint256[]",
          "name": "amounts",
          "type": "uint256[]"
        }
      ],
      "stateMutability": "nonpayable",
      "type": "function"
    },
    {
      "inputs": [
        {
          "internalType": "uint256",
          "name": "amountOutMin",
          "type": "uint256"
        },
        {
          "internalType": "address[]",
          "name": "path",
          "type": "address[]"
        },
        {
          "internalType": "address",
          "name": "to",
          "type": "address"
        },
        {
          "internalType": "uint256",
          "name": "deadline",
          "type": "uint256"
        }
      ],
      "name": "swapExactETHForTokens",
      "outputs": [
        {
          "internalType": "uint256[]",
          "name": "amounts",
          "type": "uint256[]"
        }
      ],
      "stateMutability": "payable",
      "type": "function"
    },
    {
      "inputs": [
        {
          "internalType": "uint256",
          "name": "amountOut",
          "type": "uint256"
        },
        {
          "internalType": "uint256",
          "name": "amountInMax",
          "type": "uint256"
        },
        {
          "internalType": "address[]",
          "name": "path",
          "type": "address[]"
        },
        {
          "internalType": "address",
          "name": "to",
          "type": "address"
        },
        {
          "internalType": "uint256",
          "name": "deadline",
          "type": "uint256"
        }
      ],
      "name": "swapTokensForExactETH",
      "outputs": [
        {
          "internalType": "uint256[]",
          "name": "amounts",
          "type": "uint256[]"
        }
      ],
      "stateMutability": "nonpayable",
      "type": "function"
    },
    {
      "inputs": [
        {
          "internalType": "uint256",
          "name": "amountIn",
          "type": "uint256"
        },
        {
          "internalType": "uint256",
          "name": "amountOutMin",
          "type": "uint256"
        },
        {
          "internalType": "address[]",
          "name": "path",
          "type": "address[]"
        },
        {
          "internalType": "address",
          "name": "to",
          "type": "address"
        },
        {
          "internalType": "uint256",
          "name": "deadline",
          "type": "uint256"
        }
      ],
      "name": "swapExactTokensForETH",
      "outputs": [
        {
          "internalType": "uint256[]",
          "name": "amounts",
          "type": "uint256[]"
        }
      ],
      "stateMutability": "nonpayable",
      "type": "function"
    },
    {
      "inputs": [
        {
          "internalType": "uint256",
          "name": "amountOut",
          "type": "uint256"
        },
        {
          "internalType": "address[]",
          "name": "path",
          "type": "address[]"
        },
        {
          "internalType": "address",
          "name": "to",
          "type": "address"
        },
        {
          "internalType": "uint256",
          "name": "deadline",
          "type": "uint256"
        }
      ],
      "name": "swapETHForExactTokens",
      "outputs": [
        {
          "internalType": "uint256[]",
          "name": "amounts",
          "type": "uint256[]"
        }
      ],
      "stateMutability": "payable",
      "type": "function"
    },
    {
      "inputs": [
        {
          "internalType": "uint256",
          "name": "amountIn",
          "type": "uint256"
        },
        {
          "internalType": "uint256",
          "name": "amountOutMin",
          "type": "uint256"
        },
        {
          "internalType": "address[]",
          "name": "path",
          "type": "address[]"
        },
        {
          "internalType": "address",
          "name": "to",
          "type": "address"
        },
        {
          "internalType": "uint256",
          "name": "deadline",
          "type": "uint256"
        }
      ],
      "name": "swapExactTokensForTokensSupportingFeeOnTransferTokens",
      "outputs": [],
      "stateMutability": "nonpayable",
      "type": "function"
    },
    {
      "inputs": [
        {
          "internalType": "uint256",
          "name": "amountOutMin",
          "type": "uint256"
        },
        {
          "internalType": "address[]",
          "name": "path",
          "type": "address[]"
        },
        {
          "internalType": "address",
          "name": "to",
          "type": "address"
        },
        {
          "internalType": "uint256",
          "name": "deadline",
          "type": "uint256"
        }
      ],
      "name": "swapExactETHForTokensSupportingFeeOnTransferTokens",
      "outputs": [],
      "stateMutability": "payable",
      "type": "function"
    },
    {
      "inputs": [
        {
          "internalType": "uint256",
          "name": "amountIn",
          "type": "uint256"
        },
        {
          "internalType": "uint256",
          "name": "amountOutMin",
          "type": "uint256"
        },
        {
          "internalType": "address[]",
          "name": "path",
          "type": "address[]"
        },
        {
          "internalType": "address",
          "name": "to",
          "type": "address"
        },
        {
          "internalType": "uint256",
          "name": "deadline",
          "type": "uint256"
        }
      ],
      "name": "swapExactTokensForETHSupportingFeeOnTransferTokens",
      "outputs": [],
      "stateMutability": "nonpayable",
      "type": "function"
    },
    {
      "inputs": [
        {
          "internalType": "uint256",
          "name": "amountA",
          "type": "uint256"
        },
        {
          "internalType": "uint256",
          "name": "reserveA",
          "type": "uint256"
        },
        {
          "internalType": "uint256",
          "name": "reserveB",
          "type": "uint256"
        }
      ],
      "name": "quote",
      "outputs": [
        {
          "internalType": "uint256",
          "name": "amountB",
          "type": "uint256"
        }
      ],
      "stateMutability": "pure",
      "type": "function"
    },
    {
      "inputs": [
        {
          "internalType": "uint256",
          "name": "amountIn",
          "type": "uint256"
        },
        {
          "internalType": "uint256",
          "name": "reserveIn",
          "type": "uint256"
        },
        {
          "internalType": "uint256",
          "name": "reserveOut",
          "type": "uint256"
        }
      ],
      "name": "getAmountOut",
      "outputs": [
        {
          "internalType": "uint256",
          "name": "amountOut",
          "type": "uint256"
        }
      ],
      "stateMutability": "view",
      "type": "function"
    },
    {
      "inputs": [
        {
          "internalType": "uint256",
          "name": "amountOut",
          "type": "uint256"
        },
        {
          "internalType": "uint256",
          "name": "reserveIn",
          "type": "uint256"
        },
        {
          "internalType": "uint256",
          "name": "reserveOut",
          "type": "uint256"
        }
      ],
      "name": "getAmountIn",
      "outputs": [
        {
          "internalType": "uint256",
          "name": "amountIn",
          "type": "uint256"
        }
      ],
      "stateMutability": "view",
      "type": "function"
    },
    {
      "inputs": [
        {
          "internalType": "uint256",
          "name": "amountIn",
          "type": "uint256"
        },
        {
          "internalType": "address[]",
          "name": "path",
          "type": "address[]"
        }
      ],
      "name": "getAmountsOut",
      "outputs": [
        {
          "internalType": "uint256[]",
          "name": "amounts",
          "type": "uint256[]"
        }
      ],
      "stateMutability": "view",
      "type": "function"
    },
    {
      "inputs": [
        {
          "internalType": "uint256",
          "name": "amountOut",
          "type": "uint256"
        },
        {
          "internalType": "address[]",
          "name": "path",
          "type": "address[]"
        }
      ],
      "name": "getAmountsIn",
      "outputs": [
        {
          "internalType": "uint256[]",
          "name": "amounts",
          "type": "uint256[]"
        }
      ],
      "stateMutability": "view",
      "type": "function"
    }
  ],
  "bytecode": "0x60c060405234801561001057600080fd5b5060405162004894380380620048948339818101604052604081101561003557600080fd5b5080516020909101516001600160601b0319606092831b8116608052911b1660a05260805160601c60a05160601c6146fb620001996000398061017a5280610d3a5280610d755280610e8d52806110ab5280611435528061159b528061194a5280611a255280611aff5280611bcd5280611d135280611d9b528061202552806120a05280612154528061222052806122b55280612329528061280c5280612a765280612acc5280612b005280612b745280612d025280612e455280612ecd525080610e0e5280610f1b5280610ff2528061117152806111aa52806112e552806114c3528061157952806116e95280611c605280611dcd5280611ed65280611f485280611ffd528061235b5280612599528061279152806127ba52806127ea52806129575280612aaa5280612d955280612eff528061377152806137b45280613a8f5280613bb55280613c265280614089528061414252806141f552506146fb6000f3fe60806040526004361061016a5760003560e01c80638803dbee116100d1578063baa2abde1161008a578063ded9382a11610064578063ded9382a14610b30578063e8e3370014610ba3578063f305d71914610c23578063fb3bdb4114610c69576101a3565b8063baa2abde14610a09578063c45a015514610a66578063d06ca61f14610a7b576101a3565b80638803dbee146107fa57806396ed28f914610890578063ad5c4648146108e7578063ad615dec146108fc578063af2979eb14610932578063b6f9de9514610985576101a3565b80634a25d94a116101235780634a25d94a1461050b5780635b0d5984146105a15780635c11d79514610614578063791ac947146106aa5780637ff36ab51461074057806385f8c259146107c4576101a3565b806302751cec146101a8578063054d50d41461021457806318cbafe51461025c5780631f00ca74146103425780632195995c146103f757806338ed173914610475576101a3565b366101a357336001600160a01b037f000000000000000000000000000000000000000000000000000000000000000016146101a157fe5b005b600080fd5b3480156101b457600080fd5b506101fb600480360360c08110156101cb57600080fd5b506001600160a01b0381358116916020810135916040820135916060810135916080820135169060a00135610ced565b6040805192835260208301919091528051918290030190f35b34801561022057600080fd5b5061024a6004803603606081101561023757600080fd5b5080359060208101359060400135610e07565b60408051918252519081900360200190f35b34801561026857600080fd5b506102f2600480360360a081101561027f57600080fd5b813591602081013591810190606081016040820135600160201b8111156102a557600080fd5b8201836020820111156102b757600080fd5b803590602001918460208302840111600160201b831117156102d857600080fd5b91935091506001600160a01b038135169060200135610e3d565b60408051602080825283518183015283519192839290830191858101910280838360005b8381101561032e578181015183820152602001610316565b505050509050019250505060405180910390f35b34801561034e57600080fd5b506102f26004803603604081101561036557600080fd5b81359190810190604081016020820135600160201b81111561038657600080fd5b82018360208201111561039857600080fd5b803590602001918460208302840111600160201b831117156103b957600080fd5b91908080602002602001604051908101604052809392919081815260200183836020028082843760009201919091525092955061116a945050505050565b34801561040357600080fd5b506101fb600480360361016081101561041b57600080fd5b506001600160a01b038135811691602081013582169160408201359160608101359160808201359160a08101359091169060c08101359060e081013515159060ff61010082013516906101208101359061014001356111a0565b34801561048157600080fd5b506102f2600480360360a081101561049857600080fd5b813591602081013591810190606081016040820135600160201b8111156104be57600080fd5b8201836020820111156104d057600080fd5b803590602001918460208302840111600160201b831117156104f157600080fd5b91935091506001600160a01b03813516906020013561129a565b34801561051757600080fd5b506102f2600480360360a081101561052e57600080fd5b813591602081013591810190606081016040820135600160201b81111561055457600080fd5b82018360208201111561056657600080fd5b803590602001918460208302840111600160201b8311171561058757600080fd5b91935091506001600160a01b0381351690602001356113e5565b3480156105ad57600080fd5b5061024a60048036036101408110156105c557600080fd5b506001600160a01b0381358116916020810135916040820135916060810135916080820135169060a08101359060c081013515159060ff60e08201351690610100810135906101200135611571565b34801561062057600080fd5b506101a1600480360360a081101561063757600080fd5b813591602081013591810190606081016040820135600160201b81111561065d57600080fd5b82018360208201111561066f57600080fd5b803590602001918460208302840111600160201b8311171561069057600080fd5b91935091506001600160a01b03813516906020013561167f565b3480156106b657600080fd5b506101a1600480360360a08110156106cd57600080fd5b813591602081013591810190606081016040820135600160201b8111156106f357600080fd5b82018360208201111561070557600080fd5b803590602001918460208302840111600160201b8311171561072657600080fd5b91935091506001600160a01b0381351690602001356118fc565b6102f26004803603608081101561075657600080fd5b81359190810190604081016020820135600160201b81111561077757600080fd5b82018360208201111561078957600080fd5b803590602001918460208302840111600160201b831117156107aa57600080fd5b91935091506001600160a01b038135169060200135611b85565b3480156107d057600080fd5b5061024a600480360360608110156107e757600080fd5b5080359060208101359060400135611ecf565b34801561080657600080fd5b506102f2600480360360a081101561081d57600080fd5b813591602081013591810190606081016040820135600160201b81111561084357600080fd5b82018360208201111561085557600080fd5b803590602001918460208302840111600160201b8311171561087657600080fd5b91935091506001600160a01b038135169060200135611efd565b34801561089c57600080fd5b506108cb600480360360408110156108b357600080fd5b506001600160a01b0381358116916020013516611ff6565b604080516001600160a01b039092168252519081900360200190f35b3480156108f357600080fd5b506108cb612023565b34801561090857600080fd5b5061024a6004803603606081101561091f57600080fd5b5080359060208101359060400135612047565b34801561093e57600080fd5b5061024a600480360360c081101561095557600080fd5b506001600160a01b0381358116916020810135916040820135916060810135916080820135169060a00135612054565b6101a16004803603608081101561099b57600080fd5b81359190810190604081016020820135600160201b8111156109bc57600080fd5b8201836020820111156109ce57600080fd5b803590602001918460208302840111600160201b831117156109ef57600080fd5b91935091506001600160a01b0381351690602001356121da565b348015610a1557600080fd5b506101fb600480360360e0811015610a2c57600080fd5b506001600160a01b038135811691602081013582169160408201359160608101359160808201359160a08101359091169060c0013561254b565b348015610a7257600080fd5b506108cb61278f565b348015610a8757600080fd5b506102f260048036036040811015610a9e57600080fd5b81359190810190604081016020820135600160201b811115610abf57600080fd5b820183602082011115610ad157600080fd5b803590602001918460208302840111600160201b83111715610af257600080fd5b9190808060200260200160405190810160405280939291908181526020018383602002808284376000920191909152509295506127b3945050505050565b348015610b3c57600080fd5b506101fb6004803603610140811015610b5457600080fd5b506001600160a01b0381358116916020810135916040820135916060810135916080820135169060a08101359060c081013515159060ff60e082013516906101008101359061012001356127e0565b348015610baf57600080fd5b50610c056004803603610100811015610bc757600080fd5b506001600160a01b038135811691602081013582169160408201359160608101359160808201359160a08101359160c0820135169060e001356128f4565b60408051938452602084019290925282820152519081900360600190f35b610c05600480360360c0811015610c3957600080fd5b506001600160a01b0381358116916020810135916040820135916060810135916080820135169060a00135612a27565b6102f260048036036080811015610c7f57600080fd5b81359190810190604081016020820135600160201b811115610ca057600080fd5b820183602082011115610cb257600080fd5b803590602001918460208302840111600160201b83111715610cd357600080fd5b91935091506001600160a01b038135169060200135612cba565b6000808242811015610d34576040805162461bcd60e51b8152602060048201526019602482015260008051602061452f833981519152604482015290519081900360640190fd5b610d63897f00000000000000000000000000000000000000000000000000000000000000008a8a8a308a61254b565b9093509150610d73898685613033565b7f00000000000000000000000000000000000000000000000000000000000000006001600160a01b0316632e1a7d4d836040518263ffffffff1660e01b815260040180828152602001915050600060405180830381600087803b158015610dd957600080fd5b505af1158015610ded573d6000803e3d6000fd5b50505050610dfb8583613187565b50965096945050505050565b6000610e357f000000000000000000000000000000000000000000000000000000000000000085858561327f565b949350505050565b60608142811015610e83576040805162461bcd60e51b8152602060048201526019602482015260008051602061452f833981519152604482015290519081900360640190fd5b6001600160a01b037f00000000000000000000000000000000000000000000000000000000000000001686866000198101818110610ebd57fe5b905060200201356001600160a01b03166001600160a01b031614610f16576040805162461bcd60e51b815260206004820152601e6024820152600080516020614484833981519152604482015290519081900360640190fd5b610f747f00000000000000000000000000000000000000000000000000000000000000008988888080602002602001604051908101604052809392919081815260200183836020028082843760009201919091525061335892505050565b91508682600184510381518110610f8757fe5b60200260200101511015610fcc5760405162461bcd60e51b815260040180806020018281038252602c81526020018061469a602c913960400191505060405180910390fd5b61106a86866000818110610fdc57fe5b905060200201356001600160a01b0316336110507f00000000000000000000000000000000000000000000000000000000000000008a8a600081811061101e57fe5b905060200201356001600160a01b03168b8b600181811061103b57fe5b905060200201356001600160a01b03166134a5565b8560008151811061105d57fe5b6020026020010151613565565b6110a9828787808060200260200160405190810160405280939291908181526020018383602002808284376000920191909152503092506136c2915050565b7f00000000000000000000000000000000000000000000000000000000000000006001600160a01b0316632e1a7d4d836001855103815181106110e857fe5b60200260200101516040518263ffffffff1660e01b815260040180828152602001915050600060405180830381600087803b15801561112657600080fd5b505af115801561113a573d6000803e3d6000fd5b5050505061115f848360018551038151811061115257fe5b6020026020010151613187565b509695505050505050565b60606111977f000000000000000000000000000000000000000000000000000000000000000084846138ff565b90505b92915050565b60008060006111d07f00000000000000000000000000000000000000000000000000000000000000008f8f6134a5565b90506000876111df578c6111e3565b6000195b6040805163d505accf60e01b815233600482015230602482015260448101839052606481018c905260ff8a16608482015260a4810189905260c4810188905290519192506001600160a01b0384169163d505accf9160e48082019260009290919082900301818387803b15801561125957600080fd5b505af115801561126d573d6000803e3d6000fd5b505050506112808f8f8f8f8f8f8f61254b565b809450819550505050509b509b9950505050505050505050565b606081428110156112e0576040805162461bcd60e51b8152602060048201526019602482015260008051602061452f833981519152604482015290519081900360640190fd5b61133e7f00000000000000000000000000000000000000000000000000000000000000008988888080602002602001604051908101604052809392919081815260200183836020028082843760009201919091525061335892505050565b9150868260018451038151811061135157fe5b602002602001015110156113965760405162461bcd60e51b815260040180806020018281038252602c81526020018061469a602c913960400191505060405180910390fd5b6113a686866000818110610fdc57fe5b61115f828787808060200260200160405190810160405280939291908181526020018383602002808284376000920191909152508992506136c2915050565b6060814281101561142b576040805162461bcd60e51b8152602060048201526019602482015260008051602061452f833981519152604482015290519081900360640190fd5b6001600160a01b037f0000000000000000000000000000000000000000000000000000000000000000168686600019810181811061146557fe5b905060200201356001600160a01b03166001600160a01b0316146114be576040805162461bcd60e51b815260206004820152601e6024820152600080516020614484833981519152604482015290519081900360640190fd5b61151c7f0000000000000000000000000000000000000000000000000000000000000000898888808060200260200160405190810160405280939291908181526020018383602002808284376000920191909152506138ff92505050565b9150868260008151811061152c57fe5b60200260200101511115610fcc5760405162461bcd60e51b815260040180806020018281038252602881526020018061454f6028913960400191505060405180910390fd5b6000806115bf7f00000000000000000000000000000000000000000000000000000000000000008d7f00000000000000000000000000000000000000000000000000000000000000006134a5565b90506000866115ce578b6115d2565b6000195b6040805163d505accf60e01b815233600482015230602482015260448101839052606481018b905260ff8916608482015260a4810188905260c4810187905290519192506001600160a01b0384169163d505accf9160e48082019260009290919082900301818387803b15801561164857600080fd5b505af115801561165c573d6000803e3d6000fd5b5050505061166e8d8d8d8d8d8d612054565b9d9c50505050505050505050505050565b80428110156116c3576040805162461bcd60e51b8152602060048201526019602482015260008051602061452f833981519152604482015290519081900360640190fd5b611738858560008181106116d357fe5b905060200201356001600160a01b0316336117327f00000000000000000000000000000000000000000000000000000000000000008989600081811061171557fe5b905060200201356001600160a01b03168a8a600181811061103b57fe5b8a613565565b60008585600019810181811061174a57fe5b905060200201356001600160a01b03166001600160a01b03166370a08231856040518263ffffffff1660e01b815260040180826001600160a01b0316815260200191505060206040518083038186803b1580156117a657600080fd5b505afa1580156117ba573d6000803e3d6000fd5b505050506040513d60208110156117d057600080fd5b50516040805160208881028281018201909352888252929350611812929091899189918291850190849080828437600092019190915250889250613a38915050565b866118b5828888600019810181811061182757fe5b905060200201356001600160a01b03166001600160a01b03166370a08231886040518263ffffffff1660e01b815260040180826001600160a01b0316815260200191505060206040518083038186803b15801561188357600080fd5b505afa158015611897573d6000803e3d6000fd5b505050506040513d60208110156118ad57600080fd5b505190613d5b565b10156118f25760405162461bcd60e51b815260040180806020018281038252602c81526020018061469a602c913960400191505060405180910390fd5b5050505050505050565b8042811015611940576040805162461bcd60e51b8152602060048201526019602482015260008051602061452f833981519152604482015290519081900360640190fd5b6001600160a01b037f0000000000000000000000000000000000000000000000000000000000000000168585600019810181811061197a57fe5b905060200201356001600160a01b03166001600160a01b0316146119d3576040805162461bcd60e51b815260206004820152601e6024820152600080516020614484833981519152604482015290519081900360640190fd5b6119e3858560008181106116d357fe5b611a21858580806020026020016040519081016040528093929190818152602001838360200280828437600092019190915250309250613a38915050565b60007f00000000000000000000000000000000000000000000000000000000000000006001600160a01b03166370a08231306040518263ffffffff1660e01b815260040180826001600160a01b0316815260200191505060206040518083038186803b158015611a9057600080fd5b505afa158015611aa4573d6000803e3d6000fd5b505050506040513d6020811015611aba57600080fd5b5051905086811015611afd5760405162461bcd60e51b815260040180806020018281038252602c81526020018061469a602c913960400191505060405180910390fd5b7f00000000000000000000000000000000000000000000000000000000000000006001600160a01b0316632e1a7d4d826040518263ffffffff1660e01b815260040180828152602001915050600060405180830381600087803b158015611b6357600080fd5b505af1158015611b77573d6000803e3d6000fd5b505050506118f28482613187565b60608142811015611bcb576040805162461bcd60e51b8152602060048201526019602482015260008051602061452f833981519152604482015290519081900360640190fd5b7f00000000000000000000000000000000000000000000000000000000000000006001600160a01b031686866000818110611c0257fe5b905060200201356001600160a01b03166001600160a01b031614611c5b576040805162461bcd60e51b815260206004820152601e6024820152600080516020614484833981519152604482015290519081900360640190fd5b611cb97f00000000000000000000000000000000000000000000000000000000000000003488888080602002602001604051908101604052809392919081815260200183836020028082843760009201919091525061335892505050565b91508682600184510381518110611ccc57fe5b60200260200101511015611d115760405162461bcd60e51b815260040180806020018281038252602c81526020018061469a602c913960400191505060405180910390fd5b7f00000000000000000000000000000000000000000000000000000000000000006001600160a01b031663d0e30db083600081518110611d4d57fe5b60200260200101516040518263ffffffff1660e01b81526004016000604051808303818588803b158015611d8057600080fd5b505af1158015611d94573d6000803e3d6000fd5b50505050507f00000000000000000000000000000000000000000000000000000000000000006001600160a01b031663a9059cbb611df97f00000000000000000000000000000000000000000000000000000000000000008989600081811061171557fe5b84600081518110611e0657fe5b60200260200101516040518363ffffffff1660e01b815260040180836001600160a01b0316815260200182815260200192505050602060405180830381600087803b158015611e5457600080fd5b505af1158015611e68573d6000803e3d6000fd5b505050506040513d6020811015611e7e57600080fd5b5051611e8657fe5b611ec5828787808060200260200160405190810160405280939291908181526020018383602002808284376000920191909152508992506136c2915050565b5095945050505050565b6000610e357f0000000000000000000000000000000000000000000000000000000000000000858585613dab565b60608142811015611f43576040805162461bcd60e51b8152602060048201526019602482015260008051602061452f833981519152604482015290519081900360640190fd5b611fa17f0000000000000000000000000000000000000000000000000000000000000000898888808060200260200160405190810160405280939291908181526020018383602002808284376000920191909152506138ff92505050565b91508682600081518110611fb157fe5b602002602001015111156113965760405162461bcd60e51b815260040180806020018281038252602881526020018061454f6028913960400191505060405180910390fd5b60006111977f000000000000000000000000000000000000000000000000000000000000000084846134a5565b7f000000000000000000000000000000000000000000000000000000000000000081565b6000610e35848484613ef5565b6000814281101561209a576040805162461bcd60e51b8152602060048201526019602482015260008051602061452f833981519152604482015290519081900360640190fd5b6120c9887f0000000000000000000000000000000000000000000000000000000000000000898989308961254b565b90508092505061215288858a6001600160a01b03166370a08231306040518263ffffffff1660e01b815260040180826001600160a01b0316815260200191505060206040518083038186803b15801561212157600080fd5b505afa158015612135573d6000803e3d6000fd5b505050506040513d602081101561214b57600080fd5b5051613033565b7f00000000000000000000000000000000000000000000000000000000000000006001600160a01b0316632e1a7d4d836040518263ffffffff1660e01b815260040180828152602001915050600060405180830381600087803b1580156121b857600080fd5b505af11580156121cc573d6000803e3d6000fd5b5050505061115f8483613187565b804281101561221e576040805162461bcd60e51b8152602060048201526019602482015260008051602061452f833981519152604482015290519081900360640190fd5b7f00000000000000000000000000000000000000000000000000000000000000006001600160a01b03168585600081811061225557fe5b905060200201356001600160a01b03166001600160a01b0316146122ae576040805162461bcd60e51b815260206004820152601e6024820152600080516020614484833981519152604482015290519081900360640190fd5b60003490507f00000000000000000000000000000000000000000000000000000000000000006001600160a01b031663d0e30db0826040518263ffffffff1660e01b81526004016000604051808303818588803b15801561230e57600080fd5b505af1158015612322573d6000803e3d6000fd5b50505050507f00000000000000000000000000000000000000000000000000000000000000006001600160a01b031663a9059cbb6123877f00000000000000000000000000000000000000000000000000000000000000008989600081811061171557fe5b836040518363ffffffff1660e01b815260040180836001600160a01b0316815260200182815260200192505050602060405180830381600087803b1580156123ce57600080fd5b505af11580156123e2573d6000803e3d6000fd5b505050506040513d60208110156123f857600080fd5b505161240057fe5b60008686600019810181811061241257fe5b905060200201356001600160a01b03166001600160a01b03166370a08231866040518263ffffffff1660e01b815260040180826001600160a01b0316815260200191505060206040518083038186803b15801561246e57600080fd5b505afa158015612482573d6000803e3d6000fd5b505050506040513d602081101561249857600080fd5b505160408051602089810282810182019093528982529293506124da9290918a918a918291850190849080828437600092019190915250899250613a38915050565b876118b582898960001981018181106124ef57fe5b905060200201356001600160a01b03166001600160a01b03166370a08231896040518263ffffffff1660e01b815260040180826001600160a01b0316815260200191505060206040518083038186803b15801561188357600080fd5b6000808242811015612592576040805162461bcd60e51b8152602060048201526019602482015260008051602061452f833981519152604482015290519081900360640190fd5b60006125bf7f00000000000000000000000000000000000000000000000000000000000000008c8c6134a5565b604080516323b872dd60e01b81523360048201526001600160a01b03831660248201819052604482018d9052915192935090916323b872dd916064808201926020929091908290030181600087803b15801561261a57600080fd5b505af115801561262e573d6000803e3d6000fd5b505050506040513d602081101561264457600080fd5b50506040805163226bf2d160e21b81526001600160a01b03888116600483015282516000938493928616926389afcb44926024808301939282900301818787803b15801561269157600080fd5b505af11580156126a5573d6000803e3d6000fd5b505050506040513d60408110156126bb57600080fd5b508051602090910151909250905060006126d58e8e613f9b565b509050806001600160a01b03168e6001600160a01b0316146126f85781836126fb565b82825b90975095508a87101561273f5760405162461bcd60e51b81526004018080602001828103825260278152602001806145a06027913960400191505060405180910390fd5b8986101561277e5760405162461bcd60e51b81526004018080602001828103825260278152602001806145f36027913960400191505060405180910390fd5b505050505097509795505050505050565b7f000000000000000000000000000000000000000000000000000000000000000081565b60606111977f00000000000000000000000000000000000000000000000000000000000000008484613358565b60008060006128307f00000000000000000000000000000000000000000000000000000000000000008e7f00000000000000000000000000000000000000000000000000000000000000006134a5565b905060008761283f578c612843565b6000195b6040805163d505accf60e01b815233600482015230602482015260448101839052606481018c905260ff8a16608482015260a4810189905260c4810188905290519192506001600160a01b0384169163d505accf9160e48082019260009290919082900301818387803b1580156128b957600080fd5b505af11580156128cd573d6000803e3d6000fd5b505050506128df8e8e8e8e8e8e610ced565b909f909e509c50505050505050505050505050565b6000806000834281101561293d576040805162461bcd60e51b8152602060048201526019602482015260008051602061452f833981519152604482015290519081900360640190fd5b61294b8c8c8c8c8c8c614079565b9094509250600061297d7f00000000000000000000000000000000000000000000000000000000000000008e8e6134a5565b905061298b8d338388613565565b6129978c338387613565565b806001600160a01b0316636a627842886040518263ffffffff1660e01b815260040180826001600160a01b03168152602001915050602060405180830381600087803b1580156129e657600080fd5b505af11580156129fa573d6000803e3d6000fd5b505050506040513d6020811015612a1057600080fd5b5051949d939c50939a509198505050505050505050565b60008060008342811015612a70576040805162461bcd60e51b8152602060048201526019602482015260008051602061452f833981519152604482015290519081900360640190fd5b612a9e8a7f00000000000000000000000000000000000000000000000000000000000000008b348c8c614079565b90945092506000612af07f00000000000000000000000000000000000000000000000000000000000000008c7f00000000000000000000000000000000000000000000000000000000000000006134a5565b9050612afe8b338388613565565b7f00000000000000000000000000000000000000000000000000000000000000006001600160a01b031663d0e30db0856040518263ffffffff1660e01b81526004016000604051808303818588803b158015612b5957600080fd5b505af1158015612b6d573d6000803e3d6000fd5b50505050507f00000000000000000000000000000000000000000000000000000000000000006001600160a01b031663a9059cbb82866040518363ffffffff1660e01b815260040180836001600160a01b0316815260200182815260200192505050602060405180830381600087803b158015612be957600080fd5b505af1158015612bfd573d6000803e3d6000fd5b505050506040513d6020811015612c1357600080fd5b5051612c1b57fe5b806001600160a01b0316636a627842886040518263ffffffff1660e01b815260040180826001600160a01b03168152602001915050602060405180830381600087803b158015612c6a57600080fd5b505af1158015612c7e573d6000803e3d6000fd5b505050506040513d6020811015612c9457600080fd5b5051925034841015612cac57612cac33853403613187565b505096509650969350505050565b60608142811015612d00576040805162461bcd60e51b8152602060048201526019602482015260008051602061452f833981519152604482015290519081900360640190fd5b7f00000000000000000000000000000000000000000000000000000000000000006001600160a01b031686866000818110612d3757fe5b905060200201356001600160a01b03166001600160a01b031614612d90576040805162461bcd60e51b815260206004820152601e6024820152600080516020614484833981519152604482015290519081900360640190fd5b612dee7f0000000000000000000000000000000000000000000000000000000000000000888888808060200260200160405190810160405280939291908181526020018383602002808284376000920191909152506138ff92505050565b91503482600081518110612dfe57fe5b60200260200101511115612e435760405162461bcd60e51b815260040180806020018281038252602881526020018061454f6028913960400191505060405180910390fd5b7f00000000000000000000000000000000000000000000000000000000000000006001600160a01b031663d0e30db083600081518110612e7f57fe5b60200260200101516040518263ffffffff1660e01b81526004016000604051808303818588803b158015612eb257600080fd5b505af1158015612ec6573d6000803e3d6000fd5b50505050507f00000000000000000000000000000000000000000000000000000000000000006001600160a01b031663a9059cbb612f2b7f00000000000000000000000000000000000000000000000000000000000000008989600081811061171557fe5b84600081518110612f3857fe5b60200260200101516040518363ffffffff1660e01b815260040180836001600160a01b0316815260200182815260200192505050602060405180830381600087803b158015612f8657600080fd5b505af1158015612f9a573d6000803e3d6000fd5b505050506040513d6020811015612fb057600080fd5b5051612fb857fe5b612ff7828787808060200260200160405190810160405280939291908181526020018383602002808284376000920191909152508992506136c2915050565b8160008151811061300457fe5b6020026020010151341115611ec557611ec5338360008151811061302457fe5b60200260200101513403613187565b604080516001600160a01b038481166024830152604480830185905283518084039091018152606490920183526020820180516001600160e01b031663a9059cbb60e01b178152925182516000946060949389169392918291908083835b602083106130b05780518252601f199092019160209182019101613091565b6001836020036101000a0380198251168184511680821785525050505050509050019150506000604051808303816000865af19150503d8060008114613112576040519150601f19603f3d011682016040523d82523d6000602084013e613117565b606091505b5091509150818015613145575080511580613145575080806020019051602081101561314257600080fd5b50515b6131805760405162461bcd60e51b815260040180806020018281038252602d815260200180614640602d913960400191505060405180910390fd5b5050505050565b604080516000808252602082019092526001600160a01b0384169083906040518082805190602001908083835b602083106131d35780518252601f1990920191602091820191016131b4565b6001836020036101000a03801982511681845116808217855250505050505090500191505060006040518083038185875af1925050503d8060008114613235576040519150601f19603f3d011682016040523d82523d6000602084013e61323a565b606091505b505090508061327a5760405162461bcd60e51b81526004018080602001828103825260348152602001806144fb6034913960400191505060405180910390fd5b505050565b60008084116132bf5760405162461bcd60e51b815260040180806020018281038252602c8152602001806145c7602c913960400191505060405180910390fd5b6000831180156132cf5750600082115b61330a5760405162461bcd60e51b81526004018080602001828103825260298152602001806145776029913960400191505060405180910390fd5b6000613318856103e561430a565b90506000613326828561430a565b905060006133408361333a886103e861430a565b9061436d565b905080828161334b57fe5b0498975050505050505050565b60606002825110156133b1576040805162461bcd60e51b815260206004820152601f60248201527f506f636b6574537761704c6962726172793a20494e56414c49445f5041544800604482015290519081900360640190fd5b815167ffffffffffffffff811180156133c957600080fd5b506040519080825280602002602001820160405280156133f3578160200160208202803683370190505b509050828160008151811061340457fe5b60200260200101818152505060005b600183510381101561349d576000806134568786858151811061343257fe5b602002602001015187866001018151811061344957fe5b60200260200101516143bc565b915091506134798785858151811061346a57fe5b6020026020010151848461327f565b84846001018151811061348857fe5b60209081029190910101525050600101613413565b509392505050565b60008060006134b48585613f9b565b604080516bffffffffffffffffffffffff19606094851b811660208084019190915293851b81166034830152825160288184030181526048830184528051908501206001600160f81b031960688401529a90941b9093166069840152607d8301989098527f0365a369b2780af80f5a5f783d7d0a97f910114e19ac9c8feb94cd4f818043c8609d808401919091528851808403909101815260bd909201909752805196019590952095945050505050565b604080516001600160a01b0385811660248301528481166044830152606480830185905283518084039091018152608490920183526020820180516001600160e01b03166323b872dd60e01b17815292518251600094606094938a169392918291908083835b602083106135ea5780518252601f1990920191602091820191016135cb565b6001836020036101000a0380198251168184511680821785525050505050509050019150506000604051808303816000865af19150503d806000811461364c576040519150601f19603f3d011682016040523d82523d6000602084013e613651565b606091505b509150915081801561367f57508051158061367f575080806020019051602081101561367c57600080fd5b50515b6136ba5760405162461bcd60e51b81526004018080602001828103825260318152602001806144ca6031913960400191505060405180910390fd5b505050505050565b60005b60018351038110156138f9576000808483815181106136e057fe5b60200260200101518584600101815181106136f757fe5b602002602001015191509150600061370f8383613f9b565b509050600087856001018151811061372357fe5b60200260200101519050600080836001600160a01b0316866001600160a01b03161461375157826000613755565b6000835b91509150600060028a5103881061376c57886137ad565b6137ad7f0000000000000000000000000000000000000000000000000000000000000000878c8b600201815181106137a057fe5b60200260200101516134a5565b90506137da7f000000000000000000000000000000000000000000000000000000000000000088886134a5565b6001600160a01b031663022c0d9f84848460006040519080825280601f01601f191660200182016040528015613817576020820181803683370190505b506040518563ffffffff1660e01b815260040180858152602001848152602001836001600160a01b0316815260200180602001828103825283818151815260200191508051906020019080838360005b8381101561387f578181015183820152602001613867565b50505050905090810190601f1680156138ac5780820380516001836020036101000a031916815260200191505b5095505050505050600060405180830381600087803b1580156138ce57600080fd5b505af11580156138e2573d6000803e3d6000fd5b5050600190990198506136c5975050505050505050565b50505050565b6060600282511015613958576040805162461bcd60e51b815260206004820152601f60248201527f506f636b6574537761704c6962726172793a20494e56414c49445f5041544800604482015290519081900360640190fd5b815167ffffffffffffffff8111801561397057600080fd5b5060405190808252806020026020018201604052801561399a578160200160208202803683370190505b50905082816001835103815181106139ae57fe5b60209081029190910101528151600019015b801561349d576000806139f0878660018603815181106139dc57fe5b602002602001015187868151811061344957fe5b91509150613a1387858581518110613a0457fe5b60200260200101518484613dab565b846001850381518110613a2257fe5b60209081029190910101525050600019016139c0565b60005b600183510381101561327a57600080848381518110613a5657fe5b6020026020010151858460010181518110613a6d57fe5b6020026020010151915091506000613a858383613f9b565b5090506000613ab57f000000000000000000000000000000000000000000000000000000000000000085856134a5565b9050600080600080846001600160a01b0316630902f1ac6040518163ffffffff1660e01b815260040160606040518083038186803b158015613af657600080fd5b505afa158015613b0a573d6000803e3d6000fd5b505050506040513d6060811015613b2057600080fd5b5080516020909101516001600160701b0391821693501690506000806001600160a01b038a811690891614613b56578284613b59565b83835b91509150613bae828b6001600160a01b03166370a082318a6040518263ffffffff1660e01b815260040180826001600160a01b0316815260200191505060206040518083038186803b15801561188357600080fd5b9550613bdc7f000000000000000000000000000000000000000000000000000000000000000087848461327f565b945050505050600080856001600160a01b0316886001600160a01b031614613c0657826000613c0a565b6000835b91509150600060028c51038a10613c21578a613c55565b613c557f0000000000000000000000000000000000000000000000000000000000000000898e8d600201815181106137a057fe5b604080516000808252602082019283905263022c0d9f60e01b835260248201878152604483018790526001600160a01b038086166064850152608060848501908152845160a48601819052969750908c169563022c0d9f958a958a958a9591949193919260c486019290918190849084905b83811015613cdf578181015183820152602001613cc7565b50505050905090810190601f168015613d0c5780820380516001836020036101000a031916815260200191505b5095505050505050600060405180830381600087803b158015613d2e57600080fd5b505af1158015613d42573d6000803e3d6000fd5b50506001909b019a50613a3b9950505050505050505050565b8082038281111561119a576040805162461bcd60e51b815260206004820152601560248201527464732d6d6174682d7375622d756e646572666c6f7760581b604482015290519081900360640190fd5b6000808411613deb5760405162461bcd60e51b815260040180806020018281038252602d81526020018061466d602d913960400191505060405180910390fd5b600083118015613dfb5750600082115b613e365760405162461bcd60e51b81526004018080602001828103825260298152602001806145776029913960400191505060405180910390fd5b6000856001600160a01b031663ddca3f436040518163ffffffff1660e01b815260040160206040518083038186803b158015613e7157600080fd5b505afa158015613e85573d6000803e3d6000fd5b505050506040513d6020811015613e9b57600080fd5b505190506000613eb9633b9aca00613eb3878961430a565b9061430a565b90506000613ed2633b9aca00849003613eb3878a613d5b565b9050613ee96001828481613ee257fe5b049061436d565b98975050505050505050565b6000808411613f355760405162461bcd60e51b815260040180806020018281038252602681526020018061461a6026913960400191505060405180910390fd5b600083118015613f455750600082115b613f805760405162461bcd60e51b81526004018080602001828103825260298152602001806145776029913960400191505060405180910390fd5b82613f8b858461430a565b81613f9257fe5b04949350505050565b600080826001600160a01b0316846001600160a01b03161415613fef5760405162461bcd60e51b81526004018080602001828103825260268152602001806144a46026913960400191505060405180910390fd5b826001600160a01b0316846001600160a01b03161061400f578284614012565b83835b90925090506001600160a01b038216614072576040805162461bcd60e51b815260206004820152601f60248201527f506f636b6574537761704c6962726172793a205a45524f5f4144445245535300604482015290519081900360640190fd5b9250929050565b60008060006001600160a01b03167f00000000000000000000000000000000000000000000000000000000000000006001600160a01b031663e6a439058a8a6040518363ffffffff1660e01b815260040180836001600160a01b03168152602001826001600160a01b031681526020019250505060206040518083038186803b15801561410557600080fd5b505afa158015614119573d6000803e3d6000fd5b505050506040513d602081101561412f57600080fd5b50516001600160a01b031614156141ed577f00000000000000000000000000000000000000000000000000000000000000006001600160a01b031663c9c6539689896040518363ffffffff1660e01b815260040180836001600160a01b03168152602001826001600160a01b0316815260200192505050602060405180830381600087803b1580156141c057600080fd5b505af11580156141d4573d6000803e3d6000fd5b505050506040513d60208110156141ea57600080fd5b50505b60008061421b7f00000000000000000000000000000000000000000000000000000000000000008b8b6143bc565b9150915081600014801561422d575080155b1561423d578793508692506142fd565b600061424a898484613ef5565b905087811161429d57858110156142925760405162461bcd60e51b81526004018080602001828103825260278152602001806145f36027913960400191505060405180910390fd5b8894509250826142fb565b60006142aa898486613ef5565b9050898111156142b657fe5b878110156142f55760405162461bcd60e51b81526004018080602001828103825260278152602001806145a06027913960400191505060405180910390fd5b94508793505b505b5050965096945050505050565b60008115806143255750508082028282828161432257fe5b04145b61119a576040805162461bcd60e51b815260206004820152601460248201527364732d6d6174682d6d756c2d6f766572666c6f7760601b604482015290519081900360640190fd5b8082018281101561119a576040805162461bcd60e51b815260206004820152601460248201527364732d6d6174682d6164642d6f766572666c6f7760601b604482015290519081900360640190fd5b60008060006143cb8585613f9b565b5090506000806143dc8888886134a5565b6001600160a01b0316630902f1ac6040518163ffffffff1660e01b815260040160606040518083038186803b15801561441457600080fd5b505afa158015614428573d6000803e3d6000fd5b505050506040513d606081101561443e57600080fd5b5080516020909101516001600160701b0391821693501690506001600160a01b0387811690841614614471578082614474565b81815b9099909850965050505050505056fe506f636b657453776170526f757465723a20494e56414c49445f504154480000506f636b6574537761704c6962726172793a204944454e544943414c5f4144445245535345535472616e7366657248656c7065723a3a7472616e7366657246726f6d3a207472616e7366657246726f6d206661696c65645472616e7366657248656c7065723a3a736166655472616e736665724554483a20455448207472616e73666572206661696c6564506f636b657453776170526f757465723a204558504952454400000000000000506f636b657453776170526f757465723a204558434553534956455f494e5055545f414d4f554e54506f636b6574537761704c6962726172793a20494e53554646494349454e545f4c4951554944495459506f636b657453776170526f757465723a20494e53554646494349454e545f415f414d4f554e54506f636b6574537761704c6962726172793a20494e53554646494349454e545f494e5055545f414d4f554e54506f636b657453776170526f757465723a20494e53554646494349454e545f425f414d4f554e54506f636b6574537761704c6962726172793a20494e53554646494349454e545f414d4f554e545472616e7366657248656c7065723a3a736166655472616e736665723a207472616e73666572206661696c6564506f636b6574537761704c6962726172793a20494e53554646494349454e545f4f55545055545f414d4f554e54506f636b657453776170526f757465723a20494e53554646494349454e545f4f55545055545f414d4f554e54a2646970667358221220ab7eae688301dae775745781aa6611f387be5418be9b38bd966d4927bfeec4d264736f6c634300060c0033",
  "immutableReferences": {
    "9970": [
      {
        "length": 32,
        "start": 3598
      },
      {
        "length": 32,
        "start": 3867
      },
      {
        "length": 32,
        "start": 4082
      },
      {
        "length": 32,
        "start": 4465
      },
      {
        "length": 32,
        "start": 4522
      },
      {
        "length": 32,
        "start": 4837
      },
      {
        "length": 32,
        "start": 5315
      },
      {
        "length": 32,
        "start": 5497
      },
      {
        "length": 32,
        "start": 5865
      },
      {
        "length": 32,
        "start": 7264
      },
      {
        "length": 32,
        "start": 7629
      },
      {
        "length": 32,
        "start": 7894
      },
      {
        "length": 32,
        "start": 8008
      },
      {
        "length": 32,
        "start": 8189
      },
      {
        "length": 32,
        "start": 9051
      },
      {
        "length": 32,
        "start": 9625
      },
      {
        "length": 32,
        "start": 10129
      },
      {
        "length": 32,
        "start": 10170
      },
      {
        "length": 32,
        "start": 10218
      },
      {
        "length": 32,
        "start": 10583
      },
      {
        "length": 32,
        "start": 10922
      },
      {
        "length": 32,
        "start": 11669
      },
      {
        "length": 32,
        "start": 12031
      },
      {
        "length": 32,
        "start": 14193
      },
      {
        "length": 32,
        "start": 14260
      },
      {
        "length": 32,
        "start": 14991
      },
      {
        "length": 32,
        "start": 15285
      },
      {
        "length": 32,
        "start": 15398
      },
      {
        "length": 32,
        "start": 16521
      },
      {
        "length": 32,
        "start": 16706
      },
      {
        "length": 32,
        "start": 16885
      }
    ],
    "9973": [
      {
        "length": 32,
        "start": 378
      },
      {
        "length": 32,
        "start": 3386
      },
      {
        "length": 32,
        "start": 3445
      },
      {
        "length": 32,
        "start": 3725
      },
      {
        "length": 32,
        "start": 4267
      },
      {
        "length": 32,
        "start": 5173
      },
      {
        "length": 32,
        "start": 5531
      },
      {
        "length": 32,
        "start": 6474
      },
      {
        "length": 32,
        "start": 6693
      },
      {
        "length": 32,
        "start": 6911
      },
      {
        "length": 32,
        "start": 7117
      },
      {
        "length": 32,
        "start": 7443
      },
      {
        "length": 32,
        "start": 7579
      },
      {
        "length": 32,
        "start": 8229
      },
      {
        "length": 32,
        "start": 8352
      },
      {
        "length": 32,
        "start": 8532
      },
      {
        "length": 32,
        "start": 8736
      },
      {
        "length": 32,
        "start": 8885
      },
      {
        "length": 32,
        "start": 9001
      },
      {
        "length": 32,
        "start": 10252
      },
      {
        "length": 32,
        "start": 10870
      },
      {
        "length": 32,
        "start": 10956
      },
      {
        "length": 32,
        "start": 11008
      },
      {
        "length": 32,
        "start": 11124
      },
      {
        "length": 32,
        "start": 11522
      },
      {
        "length": 32,
        "start": 11845
      },
      {
        "length": 32,
        "start": 11981
      }
    ]
  },
  "source": "// SPDX-License-Identifier: Unlicensed\npragma solidity >=0.6.12;\n\nimport '../Uniswap/uniswap-lib/contracts/libraries/TransferHelper.sol';\nimport '../Uniswap/uniswap-v2-periphery/contracts/interfaces/IWETH.sol';\n\nimport \"./libraries/PocketSwapLibrary.sol\";\nimport \"./PocketSwapFactory.sol\";\nimport \"./interfaces/IPocketSwapRouter.sol\";\n\ncontract PocketSwapRouter is IPocketSwapRouter {\n    using SafeMath for uint;\n\n    address public override immutable factory;\n    address public override immutable WETH;\n\n    modifier ensure(uint deadline) {\n        require(deadline >= block.timestamp, 'PocketSwapRouter: EXPIRED');\n        _;\n    }\n\n    constructor(address _factory, address _WETH) public {\n        factory = _factory;\n        WETH = _WETH;\n    }\n\n    receive() external payable {\n        assert(msg.sender == WETH);\n        // only accept ETH via fallback from the WETH contract\n    }\n\n    // **** ADD LIQUIDITY ****\n    function _addLiquidity(\n        address tokenA,\n        address tokenB,\n        uint amountADesired,\n        uint amountBDesired,\n        uint amountAMin,\n        uint amountBMin\n    ) internal virtual returns (uint amountA, uint amountB) {\n        // create the pair if it doesn't exist yet\n        if (PocketSwapFactory(factory).getPair(tokenA, tokenB) == address(0)) {\n            PocketSwapFactory(factory).createPair(tokenA, tokenB);\n        }\n        (uint reserveA, uint reserveB) = PocketSwapLibrary.getReserves(factory, tokenA, tokenB);\n        if (reserveA == 0 && reserveB == 0) {\n            (amountA, amountB) = (amountADesired, amountBDesired);\n        } else {\n            uint amountBOptimal = PocketSwapLibrary.quote(amountADesired, reserveA, reserveB);\n            if (amountBOptimal <= amountBDesired) {\n                require(amountBOptimal >= amountBMin, 'PocketSwapRouter: INSUFFICIENT_B_AMOUNT');\n                (amountA, amountB) = (amountADesired, amountBOptimal);\n            } else {\n                uint amountAOptimal = PocketSwapLibrary.quote(amountBDesired, reserveB, reserveA);\n                assert(amountAOptimal <= amountADesired);\n                require(amountAOptimal >= amountAMin, 'PocketSwapRouter: INSUFFICIENT_A_AMOUNT');\n                (amountA, amountB) = (amountAOptimal, amountBDesired);\n            }\n        }\n    }\n\n    function addLiquidity(\n        address tokenA,\n        address tokenB,\n        uint amountADesired,\n        uint amountBDesired,\n        uint amountAMin,\n        uint amountBMin,\n        address to,\n        uint deadline\n    ) external virtual override ensure(deadline) returns (uint amountA, uint amountB, uint liquidity) {\n        (amountA, amountB) = _addLiquidity(tokenA, tokenB, amountADesired, amountBDesired, amountAMin, amountBMin);\n        address pair = PocketSwapLibrary.pairFor(factory, tokenA, tokenB);\n        TransferHelper.safeTransferFrom(tokenA, msg.sender, pair, amountA);\n        TransferHelper.safeTransferFrom(tokenB, msg.sender, pair, amountB);\n        liquidity = IUniswapV2Pair(pair).mint(to);\n    }\n\n    function addLiquidityETH(\n        address token,\n        uint amountTokenDesired,\n        uint amountTokenMin,\n        uint amountETHMin,\n        address to,\n        uint deadline\n    ) external virtual override payable ensure(deadline) returns (uint amountToken, uint amountETH, uint liquidity) {\n        (amountToken, amountETH) = _addLiquidity(\n            token,\n            WETH,\n            amountTokenDesired,\n            msg.value,\n            amountTokenMin,\n            amountETHMin\n        );\n        address pair = PocketSwapLibrary.pairFor(factory, token, WETH);\n        TransferHelper.safeTransferFrom(token, msg.sender, pair, amountToken);\n        IWETH(WETH).deposit{value : amountETH}();\n        assert(IWETH(WETH).transfer(pair, amountETH));\n        liquidity = IUniswapV2Pair(pair).mint(to);\n        // refund dust eth, if any\n        if (msg.value > amountETH) TransferHelper.safeTransferETH(msg.sender, msg.value - amountETH);\n    }\n\n    // **** REMOVE LIQUIDITY ****\n    function removeLiquidity(\n        address tokenA,\n        address tokenB,\n        uint liquidity,\n        uint amountAMin,\n        uint amountBMin,\n        address to,\n        uint deadline\n    ) public virtual override ensure(deadline) returns (uint amountA, uint amountB) {\n        address pair = PocketSwapLibrary.pairFor(factory, tokenA, tokenB);\n        IUniswapV2Pair(pair).transferFrom(msg.sender, pair, liquidity);\n        // send liquidity to pair\n        (uint amount0, uint amount1) = IUniswapV2Pair(pair).burn(to);\n        (address token0,) = PocketSwapLibrary.sortTokens(tokenA, tokenB);\n        (amountA, amountB) = tokenA == token0 ? (amount0, amount1) : (amount1, amount0);\n        require(amountA >= amountAMin, 'PocketSwapRouter: INSUFFICIENT_A_AMOUNT');\n        require(amountB >= amountBMin, 'PocketSwapRouter: INSUFFICIENT_B_AMOUNT');\n    }\n\n    function removeLiquidityETH(\n        address token,\n        uint liquidity,\n        uint amountTokenMin,\n        uint amountETHMin,\n        address to,\n        uint deadline\n    ) public virtual override ensure(deadline) returns (uint amountToken, uint amountETH) {\n        (amountToken, amountETH) = removeLiquidity(\n            token,\n            WETH,\n            liquidity,\n            amountTokenMin,\n            amountETHMin,\n            address(this),\n            deadline\n        );\n        TransferHelper.safeTransfer(token, to, amountToken);\n        IWETH(WETH).withdraw(amountETH);\n        TransferHelper.safeTransferETH(to, amountETH);\n    }\n\n    function removeLiquidityWithPermit(\n        address tokenA,\n        address tokenB,\n        uint liquidity,\n        uint amountAMin,\n        uint amountBMin,\n        address to,\n        uint deadline,\n        bool approveMax, uint8 v, bytes32 r, bytes32 s\n    ) external virtual override returns (uint amountA, uint amountB) {\n        address pair = PocketSwapLibrary.pairFor(factory, tokenA, tokenB);\n        uint value = approveMax ? uint(- 1) : liquidity;\n        IUniswapV2Pair(pair).permit(msg.sender, address(this), value, deadline, v, r, s);\n        (amountA, amountB) = removeLiquidity(tokenA, tokenB, liquidity, amountAMin, amountBMin, to, deadline);\n    }\n\n    function pairFor(\n        address tokenA,\n        address tokenB\n    ) external view returns (address) {\n        return PocketSwapLibrary.pairFor(factory, tokenA, tokenB);\n    }\n\n    function removeLiquidityETHWithPermit(\n        address token,\n        uint liquidity,\n        uint amountTokenMin,\n        uint amountETHMin,\n        address to,\n        uint deadline,\n        bool approveMax, uint8 v, bytes32 r, bytes32 s\n    ) external virtual override returns (uint amountToken, uint amountETH) {\n        address pair = PocketSwapLibrary.pairFor(factory, token, WETH);\n        uint value = approveMax ? uint(- 1) : liquidity;\n        IUniswapV2Pair(pair).permit(msg.sender, address(this), value, deadline, v, r, s);\n        (amountToken, amountETH) = removeLiquidityETH(token, liquidity, amountTokenMin, amountETHMin, to, deadline);\n    }\n\n    // **** REMOVE LIQUIDITY (supporting fee-on-transfer tokens) ****\n    function removeLiquidityETHSupportingFeeOnTransferTokens(\n        address token,\n        uint liquidity,\n        uint amountTokenMin,\n        uint amountETHMin,\n        address to,\n        uint deadline\n    ) public virtual override ensure(deadline) returns (uint amountETH) {\n        (, amountETH) = removeLiquidity(\n            token,\n            WETH,\n            liquidity,\n            amountTokenMin,\n            amountETHMin,\n            address(this),\n            deadline\n        );\n        TransferHelper.safeTransfer(token, to, IERC20(token).balanceOf(address(this)));\n        IWETH(WETH).withdraw(amountETH);\n        TransferHelper.safeTransferETH(to, amountETH);\n    }\n\n    function removeLiquidityETHWithPermitSupportingFeeOnTransferTokens(\n        address token,\n        uint liquidity,\n        uint amountTokenMin,\n        uint amountETHMin,\n        address to,\n        uint deadline,\n        bool approveMax, uint8 v, bytes32 r, bytes32 s\n    ) external virtual override returns (uint amountETH) {\n        address pair = PocketSwapLibrary.pairFor(factory, token, WETH);\n        uint value = approveMax ? uint(- 1) : liquidity;\n        IUniswapV2Pair(pair).permit(msg.sender, address(this), value, deadline, v, r, s);\n        amountETH = removeLiquidityETHSupportingFeeOnTransferTokens(\n            token, liquidity, amountTokenMin, amountETHMin, to, deadline\n        );\n    }\n\n    // **** SWAP ****\n    // requires the initial amount to have already been sent to the first pair\n    function _swap(uint[] memory amounts, address[] memory path, address _to) internal virtual {\n        for (uint i; i < path.length - 1; i++) {\n            (address input, address output) = (path[i], path[i + 1]);\n            (address token0,) = PocketSwapLibrary.sortTokens(input, output);\n            uint amountOut = amounts[i + 1];\n            (uint amount0Out, uint amount1Out) = input == token0 ? (uint(0), amountOut) : (amountOut, uint(0));\n            address to = i < path.length - 2 ? PocketSwapLibrary.pairFor(factory, output, path[i + 2]) : _to;\n            IUniswapV2Pair(PocketSwapLibrary.pairFor(factory, input, output)).swap(\n                amount0Out, amount1Out, to, new bytes(0)\n            );\n        }\n    }\n\n    function swapExactTokensForTokens(\n        uint amountIn,\n        uint amountOutMin,\n        address[] calldata path,\n        address to,\n        uint deadline\n    ) external virtual override ensure(deadline) returns (uint[] memory amounts) {\n        amounts = PocketSwapLibrary.getAmountsOut(factory, amountIn, path);\n        require(amounts[amounts.length - 1] >= amountOutMin, 'PocketSwapRouter: INSUFFICIENT_OUTPUT_AMOUNT');\n        TransferHelper.safeTransferFrom(\n            path[0], msg.sender, PocketSwapLibrary.pairFor(factory, path[0], path[1]), amounts[0]\n        );\n        _swap(amounts, path, to);\n    }\n\n    function swapTokensForExactTokens(\n        uint amountOut,\n        uint amountInMax,\n        address[] calldata path,\n        address to,\n        uint deadline\n    ) external virtual override ensure(deadline) returns (uint[] memory amounts) {\n        amounts = PocketSwapLibrary.getAmountsIn(factory, amountOut, path);\n        require(amounts[0] <= amountInMax, 'PocketSwapRouter: EXCESSIVE_INPUT_AMOUNT');\n        TransferHelper.safeTransferFrom(\n            path[0], msg.sender, PocketSwapLibrary.pairFor(factory, path[0], path[1]), amounts[0]\n        );\n        _swap(amounts, path, to);\n    }\n\n    function swapExactETHForTokens(uint amountOutMin, address[] calldata path, address to, uint deadline)\n    external\n    virtual\n    override\n    payable\n    ensure(deadline)\n    returns (uint[] memory amounts)\n    {\n        require(path[0] == WETH, 'PocketSwapRouter: INVALID_PATH');\n        amounts = PocketSwapLibrary.getAmountsOut(factory, msg.value, path);\n        require(amounts[amounts.length - 1] >= amountOutMin, 'PocketSwapRouter: INSUFFICIENT_OUTPUT_AMOUNT');\n        IWETH(WETH).deposit{value : amounts[0]}();\n        assert(IWETH(WETH).transfer(PocketSwapLibrary.pairFor(factory, path[0], path[1]), amounts[0]));\n        _swap(amounts, path, to);\n    }\n\n    function swapTokensForExactETH(uint amountOut, uint amountInMax, address[] calldata path, address to, uint deadline)\n    external\n    virtual\n    override\n    ensure(deadline)\n    returns (uint[] memory amounts)\n    {\n        require(path[path.length - 1] == WETH, 'PocketSwapRouter: INVALID_PATH');\n        amounts = PocketSwapLibrary.getAmountsIn(factory, amountOut, path);\n        require(amounts[0] <= amountInMax, 'PocketSwapRouter: EXCESSIVE_INPUT_AMOUNT');\n        TransferHelper.safeTransferFrom(\n            path[0], msg.sender, PocketSwapLibrary.pairFor(factory, path[0], path[1]), amounts[0]\n        );\n        _swap(amounts, path, address(this));\n        IWETH(WETH).withdraw(amounts[amounts.length - 1]);\n        TransferHelper.safeTransferETH(to, amounts[amounts.length - 1]);\n    }\n\n    function swapExactTokensForETH(uint amountIn, uint amountOutMin, address[] calldata path, address to, uint deadline)\n    external\n    virtual\n    override\n    ensure(deadline)\n    returns (uint[] memory amounts)\n    {\n        require(path[path.length - 1] == WETH, 'PocketSwapRouter: INVALID_PATH');\n        amounts = PocketSwapLibrary.getAmountsOut(factory, amountIn, path);\n        require(amounts[amounts.length - 1] >= amountOutMin, 'PocketSwapRouter: INSUFFICIENT_OUTPUT_AMOUNT');\n        TransferHelper.safeTransferFrom(\n            path[0], msg.sender, PocketSwapLibrary.pairFor(factory, path[0], path[1]), amounts[0]\n        );\n        _swap(amounts, path, address(this));\n        IWETH(WETH).withdraw(amounts[amounts.length - 1]);\n        TransferHelper.safeTransferETH(to, amounts[amounts.length - 1]);\n    }\n\n    function swapETHForExactTokens(uint amountOut, address[] calldata path, address to, uint deadline)\n    external\n    virtual\n    override\n    payable\n    ensure(deadline)\n    returns (uint[] memory amounts)\n    {\n        require(path[0] == WETH, 'PocketSwapRouter: INVALID_PATH');\n        amounts = PocketSwapLibrary.getAmountsIn(factory, amountOut, path);\n        require(amounts[0] <= msg.value, 'PocketSwapRouter: EXCESSIVE_INPUT_AMOUNT');\n        IWETH(WETH).deposit{value : amounts[0]}();\n        assert(IWETH(WETH).transfer(PocketSwapLibrary.pairFor(factory, path[0], path[1]), amounts[0]));\n        _swap(amounts, path, to);\n        // refund dust eth, if any\n        if (msg.value > amounts[0]) TransferHelper.safeTransferETH(msg.sender, msg.value - amounts[0]);\n    }\n\n    // **** SWAP (supporting fee-on-transfer tokens) ****\n    // requires the initial amount to have already been sent to the first pair\n    function _swapSupportingFeeOnTransferTokens(address[] memory path, address _to) internal virtual {\n        for (uint i; i < path.length - 1; i++) {\n            (address input, address output) = (path[i], path[i + 1]);\n            (address token0,) = PocketSwapLibrary.sortTokens(input, output);\n            IUniswapV2Pair pair = IUniswapV2Pair(PocketSwapLibrary.pairFor(factory, input, output));\n            uint amountInput;\n            uint amountOutput;\n            {// scope to avoid stack too deep errors\n                (uint reserve0, uint reserve1,) = pair.getReserves();\n                (uint reserveInput, uint reserveOutput) = input == token0 ? (reserve0, reserve1) : (reserve1, reserve0);\n                amountInput = IERC20(input).balanceOf(address(pair)).sub(reserveInput);\n                amountOutput = PocketSwapLibrary.getAmountOut(factory, amountInput, reserveInput, reserveOutput);\n            }\n            (uint amount0Out, uint amount1Out) = input == token0 ? (uint(0), amountOutput) : (amountOutput, uint(0));\n            address to = i < path.length - 2 ? PocketSwapLibrary.pairFor(factory, output, path[i + 2]) : _to;\n            pair.swap(amount0Out, amount1Out, to, new bytes(0));\n        }\n    }\n\n    function swapExactTokensForTokensSupportingFeeOnTransferTokens(\n        uint amountIn,\n        uint amountOutMin,\n        address[] calldata path,\n        address to,\n        uint deadline\n    ) external virtual override ensure(deadline) {\n        TransferHelper.safeTransferFrom(\n            path[0], msg.sender, PocketSwapLibrary.pairFor(factory, path[0], path[1]), amountIn\n        );\n        uint balanceBefore = IERC20(path[path.length - 1]).balanceOf(to);\n        _swapSupportingFeeOnTransferTokens(path, to);\n        require(\n            IERC20(path[path.length - 1]).balanceOf(to).sub(balanceBefore) >= amountOutMin,\n            'PocketSwapRouter: INSUFFICIENT_OUTPUT_AMOUNT'\n        );\n    }\n\n    function swapExactETHForTokensSupportingFeeOnTransferTokens(\n        uint amountOutMin,\n        address[] calldata path,\n        address to,\n        uint deadline\n    )\n    external\n    virtual\n    override\n    payable\n    ensure(deadline)\n    {\n        require(path[0] == WETH, 'PocketSwapRouter: INVALID_PATH');\n        uint amountIn = msg.value;\n        IWETH(WETH).deposit{value : amountIn}();\n        assert(IWETH(WETH).transfer(PocketSwapLibrary.pairFor(factory, path[0], path[1]), amountIn));\n        uint balanceBefore = IERC20(path[path.length - 1]).balanceOf(to);\n        _swapSupportingFeeOnTransferTokens(path, to);\n        require(\n            IERC20(path[path.length - 1]).balanceOf(to).sub(balanceBefore) >= amountOutMin,\n            'PocketSwapRouter: INSUFFICIENT_OUTPUT_AMOUNT'\n        );\n    }\n\n    function swapExactTokensForETHSupportingFeeOnTransferTokens(\n        uint amountIn,\n        uint amountOutMin,\n        address[] calldata path,\n        address to,\n        uint deadline\n    )\n    external\n    virtual\n    override\n    ensure(deadline)\n    {\n        require(path[path.length - 1] == WETH, 'PocketSwapRouter: INVALID_PATH');\n        TransferHelper.safeTransferFrom(\n            path[0], msg.sender, PocketSwapLibrary.pairFor(factory, path[0], path[1]), amountIn\n        );\n        _swapSupportingFeeOnTransferTokens(path, address(this));\n        uint amountOut = IERC20(WETH).balanceOf(address(this));\n        require(amountOut >= amountOutMin, 'PocketSwapRouter: INSUFFICIENT_OUTPUT_AMOUNT');\n        IWETH(WETH).withdraw(amountOut);\n        TransferHelper.safeTransferETH(to, amountOut);\n    }\n\n    // **** LIBRARY FUNCTIONS ****\n    function quote(uint amountA, uint reserveA, uint reserveB) public pure virtual override returns (uint amountB) {\n        return PocketSwapLibrary.quote(amountA, reserveA, reserveB);\n    }\n\n    function getAmountOut(uint amountIn, uint reserveIn, uint reserveOut)\n    public\n    view\n    virtual\n    override\n    returns (uint amountOut)\n    {\n        return PocketSwapLibrary.getAmountOut(factory, amountIn, reserveIn, reserveOut);\n    }\n\n    function getAmountIn(uint amountOut, uint reserveIn, uint reserveOut)\n    public\n    view\n    virtual\n    override\n    returns (uint amountIn)\n    {\n        return PocketSwapLibrary.getAmountIn(factory, amountOut, reserveIn, reserveOut);\n    }\n\n    function getAmountsOut(uint amountIn, address[] memory path)\n    public\n    view\n    virtual\n    override\n    returns (uint[] memory amounts)\n    {\n        return PocketSwapLibrary.getAmountsOut(factory, amountIn, path);\n    }\n\n    function getAmountsIn(uint amountOut, address[] memory path)\n    public\n    view\n    virtual\n    override\n    returns (uint[] memory amounts)\n    {\n        return PocketSwapLibrary.getAmountsIn(factory, amountOut, path);\n    }\n}\n",
  "sourcePath": "/Users/ilyk/projects/midgardtech/xpocket-PocketSwap/contracts/pocketswap/PocketSwapRouter.sol",
  "compiler": {
    "name": "solc",
    "version": "0.6.12+commit.27d51765.Emscripten.clang"
  },
  "schemaVersion": "3.3.4",
  "updatedAt": "2021-04-12T12:51:07.509Z",
  "devdoc": {
    "kind": "dev",
    "methods": {},
    "version": 1
  },
  "userdoc": {
    "kind": "user",
    "methods": {},
    "version": 1
  }
}