{
  "contractName": "PocketSwapRouter",
  "abi": [
    {
      "inputs": [
        {
          "internalType": "address",
          "name": "_factory",
          "type": "address"
        },
        {
          "internalType": "address",
          "name": "_WETH9",
          "type": "address"
        },
        {
          "internalType": "address",
          "name": "_pocketToken",
          "type": "address"
        }
      ],
      "stateMutability": "nonpayable",
      "type": "constructor"
    },
    {
      "inputs": [],
      "name": "WETH9",
      "outputs": [
        {
          "internalType": "address",
          "name": "",
          "type": "address"
        }
      ],
      "stateMutability": "view",
      "type": "function"
    },
    {
      "inputs": [
        {
          "components": [
            {
              "internalType": "address",
              "name": "token0",
              "type": "address"
            },
            {
              "internalType": "address",
              "name": "token1",
              "type": "address"
            },
            {
              "internalType": "address",
              "name": "recipient",
              "type": "address"
            },
            {
              "internalType": "uint256",
              "name": "amount0Desired",
              "type": "uint256"
            },
            {
              "internalType": "uint256",
              "name": "amount1Desired",
              "type": "uint256"
            },
            {
              "internalType": "uint256",
              "name": "amount0Min",
              "type": "uint256"
            },
            {
              "internalType": "uint256",
              "name": "amount1Min",
              "type": "uint256"
            },
            {
              "internalType": "uint256",
              "name": "deadline",
              "type": "uint256"
            }
          ],
          "internalType": "struct IPocketSwapLiquidityRouter.AddLiquidityParams",
          "name": "params",
          "type": "tuple"
        }
      ],
      "name": "addLiquidity",
      "outputs": [
        {
          "internalType": "uint256",
          "name": "amountA",
          "type": "uint256"
        },
        {
          "internalType": "uint256",
          "name": "amountB",
          "type": "uint256"
        },
        {
          "internalType": "uint256",
          "name": "amountPocket",
          "type": "uint256"
        },
        {
          "internalType": "uint256",
          "name": "liquidity",
          "type": "uint256"
        }
      ],
      "stateMutability": "payable",
      "type": "function"
    },
    {
      "inputs": [
        {
          "components": [
            {
              "internalType": "address",
              "name": "token0",
              "type": "address"
            },
            {
              "internalType": "address",
              "name": "token1",
              "type": "address"
            },
            {
              "internalType": "address",
              "name": "recipient",
              "type": "address"
            },
            {
              "internalType": "uint256",
              "name": "amount0Desired",
              "type": "uint256"
            },
            {
              "internalType": "uint256",
              "name": "amount1Desired",
              "type": "uint256"
            },
            {
              "internalType": "uint256",
              "name": "amount0Min",
              "type": "uint256"
            },
            {
              "internalType": "uint256",
              "name": "amount1Min",
              "type": "uint256"
            },
            {
              "internalType": "uint256",
              "name": "deadline",
              "type": "uint256"
            }
          ],
          "internalType": "struct IPocketSwapLiquidityRouter.AddLiquidityParams",
          "name": "params",
          "type": "tuple"
        }
      ],
      "name": "calcLiquidity",
      "outputs": [
        {
          "internalType": "uint256",
          "name": "amountA",
          "type": "uint256"
        },
        {
          "internalType": "uint256",
          "name": "amountB",
          "type": "uint256"
        },
        {
          "internalType": "uint256",
          "name": "amountAPocket",
          "type": "uint256"
        },
        {
          "internalType": "uint256",
          "name": "amountBPocket",
          "type": "uint256"
        }
      ],
      "stateMutability": "view",
      "type": "function"
    },
    {
      "inputs": [],
      "name": "factory",
      "outputs": [
        {
          "internalType": "address",
          "name": "",
          "type": "address"
        }
      ],
      "stateMutability": "view",
      "type": "function"
    },
    {
      "inputs": [
        {
          "internalType": "uint256",
          "name": "amountOut",
          "type": "uint256"
        },
        {
          "internalType": "uint256",
          "name": "reserveIn",
          "type": "uint256"
        },
        {
          "internalType": "uint256",
          "name": "reserveOut",
          "type": "uint256"
        }
      ],
      "name": "getAmountIn",
      "outputs": [
        {
          "internalType": "uint256",
          "name": "amountIn",
          "type": "uint256"
        }
      ],
      "stateMutability": "view",
      "type": "function"
    },
    {
      "inputs": [
        {
          "internalType": "uint256",
          "name": "amountIn",
          "type": "uint256"
        },
        {
          "internalType": "uint256",
          "name": "reserveIn",
          "type": "uint256"
        },
        {
          "internalType": "uint256",
          "name": "reserveOut",
          "type": "uint256"
        }
      ],
      "name": "getAmountOut",
      "outputs": [
        {
          "internalType": "uint256",
          "name": "amountOut",
          "type": "uint256"
        }
      ],
      "stateMutability": "view",
      "type": "function"
    },
    {
      "inputs": [
        {
          "internalType": "uint256",
          "name": "amountOut",
          "type": "uint256"
        },
        {
          "internalType": "address[]",
          "name": "path",
          "type": "address[]"
        }
      ],
      "name": "getAmountsIn",
      "outputs": [
        {
          "internalType": "uint256[]",
          "name": "amounts",
          "type": "uint256[]"
        }
      ],
      "stateMutability": "view",
      "type": "function"
    },
    {
      "inputs": [
        {
          "internalType": "uint256",
          "name": "amountIn",
          "type": "uint256"
        },
        {
          "internalType": "address[]",
          "name": "path",
          "type": "address[]"
        }
      ],
      "name": "getAmountsOut",
      "outputs": [
        {
          "internalType": "uint256[]",
          "name": "amounts",
          "type": "uint256[]"
        }
      ],
      "stateMutability": "view",
      "type": "function"
    },
    {
      "inputs": [
        {
          "internalType": "bytes[]",
          "name": "data",
          "type": "bytes[]"
        }
      ],
      "name": "multicall",
      "outputs": [
        {
          "internalType": "bytes[]",
          "name": "results",
          "type": "bytes[]"
        }
      ],
      "stateMutability": "payable",
      "type": "function"
    },
    {
      "inputs": [
        {
          "internalType": "address",
          "name": "tokenA",
          "type": "address"
        },
        {
          "internalType": "address",
          "name": "tokenB",
          "type": "address"
        }
      ],
      "name": "pairFor",
      "outputs": [
        {
          "internalType": "contract IPocketSwapPair",
          "name": "",
          "type": "address"
        }
      ],
      "stateMutability": "view",
      "type": "function"
    },
    {
      "inputs": [],
      "name": "pocket",
      "outputs": [
        {
          "internalType": "address",
          "name": "",
          "type": "address"
        }
      ],
      "stateMutability": "view",
      "type": "function"
    },
    {
      "inputs": [
        {
          "internalType": "uint256",
          "name": "amount0Delta",
          "type": "uint256"
        },
        {
          "internalType": "uint256",
          "name": "amount1Delta",
          "type": "uint256"
        },
        {
          "internalType": "bytes",
          "name": "_data",
          "type": "bytes"
        }
      ],
      "name": "pocketSwapCallback",
      "outputs": [],
      "stateMutability": "nonpayable",
      "type": "function"
    },
    {
      "inputs": [
        {
          "internalType": "uint256",
          "name": "amountA",
          "type": "uint256"
        },
        {
          "internalType": "uint256",
          "name": "reserveA",
          "type": "uint256"
        },
        {
          "internalType": "uint256",
          "name": "reserveB",
          "type": "uint256"
        }
      ],
      "name": "quote",
      "outputs": [
        {
          "internalType": "uint256",
          "name": "amountB",
          "type": "uint256"
        }
      ],
      "stateMutability": "pure",
      "type": "function"
    },
    {
      "inputs": [
        {
          "components": [
            {
              "internalType": "address",
              "name": "tokenA",
              "type": "address"
            },
            {
              "internalType": "address",
              "name": "tokenB",
              "type": "address"
            },
            {
              "internalType": "uint256",
              "name": "liquidity",
              "type": "uint256"
            },
            {
              "internalType": "uint256",
              "name": "amountAMin",
              "type": "uint256"
            },
            {
              "internalType": "uint256",
              "name": "amountBMin",
              "type": "uint256"
            },
            {
              "internalType": "address",
              "name": "rewards",
              "type": "address"
            },
            {
              "internalType": "address",
              "name": "recipient",
              "type": "address"
            },
            {
              "internalType": "uint256",
              "name": "deadline",
              "type": "uint256"
            }
          ],
          "internalType": "struct IPocketSwapLiquidityRouter.RemoveLiquidityParams",
          "name": "params",
          "type": "tuple"
        }
      ],
      "name": "removeLiquidity",
      "outputs": [
        {
          "internalType": "uint256",
          "name": "amountA",
          "type": "uint256"
        },
        {
          "internalType": "uint256",
          "name": "amountB",
          "type": "uint256"
        }
      ],
      "stateMutability": "payable",
      "type": "function"
    },
    {
      "inputs": [
        {
          "components": [
            {
              "internalType": "address",
              "name": "tokenIn",
              "type": "address"
            },
            {
              "internalType": "address",
              "name": "tokenOut",
              "type": "address"
            },
            {
              "internalType": "address",
              "name": "recipient",
              "type": "address"
            },
            {
              "internalType": "uint256",
              "name": "deadline",
              "type": "uint256"
            },
            {
              "internalType": "uint256",
              "name": "amountIn",
              "type": "uint256"
            },
            {
              "internalType": "uint256",
              "name": "amountOutMinimum",
              "type": "uint256"
            }
          ],
          "internalType": "struct IPocketSwapRouter.SwapParams",
          "name": "params",
          "type": "tuple"
        }
      ],
      "name": "swap",
      "outputs": [
        {
          "internalType": "uint256",
          "name": "amountOut",
          "type": "uint256"
        }
      ],
      "stateMutability": "payable",
      "type": "function"
    },
    {
      "inputs": [
        {
          "components": [
            {
              "internalType": "bytes",
              "name": "path",
              "type": "bytes"
            },
            {
              "internalType": "address",
              "name": "recipient",
              "type": "address"
            },
            {
              "internalType": "uint256",
              "name": "deadline",
              "type": "uint256"
            },
            {
              "internalType": "uint256",
              "name": "amountIn",
              "type": "uint256"
            },
            {
              "internalType": "uint256",
              "name": "amountOutMinimum",
              "type": "uint256"
            }
          ],
          "internalType": "struct IPocketSwapRouter.SwapMultiParams",
          "name": "params",
          "type": "tuple"
        }
      ],
      "name": "swapMulti",
      "outputs": [
        {
          "internalType": "uint256",
          "name": "amountOut",
          "type": "uint256"
        }
      ],
      "stateMutability": "payable",
      "type": "function"
    },
    {
      "inputs": [
        {
          "internalType": "address",
          "name": "token",
          "type": "address"
        },
        {
          "internalType": "uint256",
          "name": "amountMinimum",
          "type": "uint256"
        },
        {
          "internalType": "address",
          "name": "recipient",
          "type": "address"
        }
      ],
      "name": "sweepToken",
      "outputs": [],
      "stateMutability": "payable",
      "type": "function"
    },
    {
      "inputs": [
        {
          "internalType": "uint256",
          "name": "amountMinimum",
          "type": "uint256"
        },
        {
          "internalType": "address",
          "name": "recipient",
          "type": "address"
        }
      ],
      "name": "unwrapWETH9",
      "outputs": [],
      "stateMutability": "payable",
      "type": "function"
    }
  ],
  "bytecode": "0x60e06040526000196000556001805460ff191690553480156200002157600080fd5b5060405162004b4138038062004b41833981016040819052620000449162000089565b6001600160601b0319606093841b811660805291831b821660a05290911b1660c052620000d2565b80516001600160a01b03811681146200008457600080fd5b919050565b6000806000606084860312156200009e578283fd5b620000a9846200006c565b9250620000b9602085016200006c565b9150620000c9604085016200006c565b90509250925092565b60805160601c60a05160601c60c05160601c6148e66200025b6000396000818161037601528181610ebe01528181610efb01528181610f6d0152818161105c0152818161121e0152818161126b015281816113730152818161146b015281816115b60152818161164b0152818161166d015281816118a8015281816118f1015281816119e801528181611a1301528181611a4e01528181611a8401528181611bbb01528181611c0901528181612cb701528181612cf401528181612d5101528181612dcf0152612f140152600081816101db015281816107060152818161081501528181613080015281816130c90152613177015260008181610342015281816103d2015281816105590152818161096401528181610dbf01528181610e2b01528181610f9a0152818161108401528181611314015281816116da01528181611764015281816119ba01528181611b8501528181611cf101528181611ead015281816122a60152818161287b015281816129c501528181612b06015261361101526148e66000f3fe6080604052600436106101295760003560e01c806385f8c259116100a5578063ad615dec11610074578063cccef9e211610059578063cccef9e214610364578063d06ca61f14610398578063df2ab5bb146103b857600080fd5b8063ad615dec14610310578063c45a01551461033057600080fd5b806385f8c2591461029d5780638d4d72e5146102bd57806396ed28f9146102d0578063ac9650d8146102f057600080fd5b806349404b7c116100fc5780636385a271116100e15780636385a2711461021557806368bc7e081461023d5780637936cd901461027d57600080fd5b806349404b7c146101b45780634aa4a4fc146101c957600080fd5b8063054d50d41461012e57806313b51924146101615780631f00ca7414610174578063441a12de146101a1575b600080fd5b34801561013a57600080fd5b5061014e61014936600461443b565b6103cb565b6040519081526020015b60405180910390f35b61014e61016f3660046141ad565b610403565b34801561018057600080fd5b5061019461018f3660046142dd565b610552565b604051610158919061455b565b61014e6101af36600461424d565b61057f565b6101c76101c23660046142b9565b6106d5565b005b3480156101d557600080fd5b506101fd7f000000000000000000000000000000000000000000000000000000000000000081565b6040516001600160a01b039091168152602001610158565b6102286102233660046140fb565b610888565b60408051928352602083019190915201610158565b34801561024957600080fd5b5061025d6102583660046140fb565b610cd9565b604080519485526020850193909352918301526060820152608001610158565b34801561028957600080fd5b506101c76102983660046143c0565b610d96565b3480156102a957600080fd5b5061014e6102b836600461443b565b6116d3565b61025d6102cb3660046140fb565b611701565b3480156102dc57600080fd5b506101fd6102eb366004613f7f565b611cea565b6103036102fe366004613ff8565b611d17565b60405161015891906144dc565b34801561031c57600080fd5b5061014e61032b36600461443b565b611e99565b34801561033c57600080fd5b506101fd7f000000000000000000000000000000000000000000000000000000000000000081565b34801561037057600080fd5b506101fd7f000000000000000000000000000000000000000000000000000000000000000081565b3480156103a457600080fd5b506101946103b33660046142dd565b611ea6565b6101c76103c6366004613fb7565b611ed3565b60006103f97f0000000000000000000000000000000000000000000000000000000000000000858585611fd5565b90505b9392505050565b60008160400151806104124290565b11156104655760405162461bcd60e51b815260206004820152601360248201527f5472616e73616374696f6e20746f6f206f6c640000000000000000000000000060448201526064015b60405180910390fd5b60009150335b600061047a85600001516121a0565b90506104c4856060015182610493578660200151610495565b305b60405180604001604052806104ad8a600001516121c3565b8152602001866001600160a01b03168152506121e3565b606086015280156104e45784513092506104dd9061230c565b85526104f1565b84606001519350506104f7565b5061046b565b836080015183101561054b5760405162461bcd60e51b815260206004820152601360248201527f546f6f206c6974746c6520726563656976656400000000000000000000000000604482015260640161045c565b5050919050565b60606103fc7f00000000000000000000000000000000000000000000000000000000000000008484612320565b60006060820135804211156105d65760405162461bcd60e51b815260206004820152601360248201527f5472616e73616374696f6e20746f6f206f6c6400000000000000000000000000604482015260640161045c565b61067960808401356105ee6060860160408701613f47565b60408051808201909152806106066020890189613f47565b61061660408a0160208b01613f47565b6040517fffffffffffffffffffffffffffffffffffffffff000000000000000000000000606093841b811660208301529190921b1660348201526048016040516020818303038152906040528152602001336001600160a01b03168152506121e3565b91508260a001358210156106cf5760405162461bcd60e51b815260206004820152601360248201527f546f6f206c6974746c6520726563656976656400000000000000000000000000604482015260640161045c565b50919050565b6040517f70a082310000000000000000000000000000000000000000000000000000000081523060048201526000907f00000000000000000000000000000000000000000000000000000000000000006001600160a01b0316906370a082319060240160206040518083038186803b15801561075057600080fd5b505afa158015610764573d6000803e3d6000fd5b505050506040513d601f19601f8201168201806040525081019061078891906142a1565b905082156107e057828110156107e05760405162461bcd60e51b815260206004820152601260248201527f496e73756666696369656e742057455448390000000000000000000000000000604482015260640161045c565b8015610883576040517f2e1a7d4d000000000000000000000000000000000000000000000000000000008152600481018290527f00000000000000000000000000000000000000000000000000000000000000006001600160a01b031690632e1a7d4d90602401600060405180830381600087803b15801561086157600080fd5b505af1158015610875573d6000803e3d6000fd5b50505050610883828261250b565b505050565b60008060e0830135804211156108e05760405162461bcd60e51b815260206004820152601360248201527f5472616e73616374696f6e20746f6f206f6c6400000000000000000000000000604482015260640161045c565b60015460ff16156109335760405162461bcd60e51b815260206004820152600660248201527f4c4f434b45440000000000000000000000000000000000000000000000000000604482015260640161045c565b600180547fffffffffffffffffffffffffffffffffffffffffffffffffffffffffffffff00168117905560006109a57f00000000000000000000000000000000000000000000000000000000000000006109906020880188613f47565b6109a06040890160208a01613f47565b6125c8565b604080517f23b872dd0000000000000000000000000000000000000000000000000000000081523360048201526001600160a01b03831660248201819052918801356044820152919250906323b872dd90606401602060405180830381600087803b158015610a1357600080fd5b505af1158015610a27573d6000803e3d6000fd5b505050506040513d601f19601f82011682018060405250810190610a4b9190614068565b506040517f89afcb4400000000000000000000000000000000000000000000000000000000815230600482015260009081906001600160a01b038416906389afcb44906024016040805180830381600087803b158015610aaa57600080fd5b505af1158015610abe573d6000803e3d6000fd5b505050506040513d601f19601f82011682018060405250810190610ae2919061439d565b90925090506000610b0e610af960208a018a613f47565b610b0960408b0160208c01613f47565b612728565b5090506001600160a01b038116610b2860208a018a613f47565b6001600160a01b031614610b3d578183610b40565b82825b90975095506060880135871015610bbf5760405162461bcd60e51b815260206004820152602760248201527f506f636b657453776170526f757465723a20494e53554646494349454e545f4160448201527f5f414d4f554e5400000000000000000000000000000000000000000000000000606482015260840161045c565b8760800135861015610c395760405162461bcd60e51b815260206004820152602760248201527f506f636b657453776170526f757465723a20494e53554646494349454e545f4260448201527f5f414d4f554e5400000000000000000000000000000000000000000000000000606482015260840161045c565b610c6f610c4c60c08a0160a08b01613f47565b610c5960208b018b613f47565b89610c6a60e08d0160c08e01613f47565b612838565b610ca3610c8260c08a0160a08b01613f47565b610c9260408b0160208c01613f47565b88610c6a60e08d0160c08e01613f47565b5050600180547fffffffffffffffffffffffffffffffffffffffffffffffffffffffffffffff0016905550929491935090915050565b600080600080610d87856060013586608001358760a001358860c0013560405180604001604052808b6000016020810190610d149190613f47565b610d2460408e0160208f01613f47565b6040517fffffffffffffffffffffffffffffffffffffffff000000000000000000000000606093841b811660208301529190921b1660348201526048016040516020818303038152906040528152602001336001600160a01b0316815250612afc565b92989197509550909350915050565b6000610da482840184614117565b9050600080610db68360000151613037565b91509150610de57f00000000000000000000000000000000000000000000000000000000000000008383613058565b5060008060008911610e0c57836001600160a01b0316836001600160a01b03161088610e23565b826001600160a01b0316846001600160a01b031610895b9150915060007f00000000000000000000000000000000000000000000000000000000000000006001600160a01b03166346870d2b6040518163ffffffff1660e01b815260040160206040518083038186803b158015610e8257600080fd5b505afa158015610e96573d6000803e3d6000fd5b505050506040513d601f19601f82011682018060405250810190610eba91906142a1565b90507f00000000000000000000000000000000000000000000000000000000000000006001600160a01b0316856001600160a01b031614158015610f3057507f00000000000000000000000000000000000000000000000000000000000000006001600160a01b0316846001600160a01b031614155b15611575576040517fe6a439050000000000000000000000000000000000000000000000000000000081526001600160a01b0380871660048301527f00000000000000000000000000000000000000000000000000000000000000008116602483015286916000917f0000000000000000000000000000000000000000000000000000000000000000169063e6a439059060440160206040518083038186803b158015610fdc57600080fd5b505afa158015610ff0573d6000803e3d6000fd5b505050506040513d601f19601f820116820180604052508101906110149190613f63565b90506001600160a01b038116611159576040517fe6a439050000000000000000000000000000000000000000000000000000000081526001600160a01b0387811660048301527f0000000000000000000000000000000000000000000000000000000000000000811660248301527f0000000000000000000000000000000000000000000000000000000000000000169063e6a439059060440160206040518083038186803b1580156110c657600080fd5b505afa1580156110da573d6000803e3d6000fd5b505050506040513d601f19601f820116820180604052508101906110fe9190613f63565b86925090506001600160a01b0381166111595760405162461bcd60e51b815260206004820152600e60248201527f4e6f20504f434b45542070616972000000000000000000000000000000000000604482015260640161045c565b6040517f70a08231000000000000000000000000000000000000000000000000000000008152336004820152600090633b9aca009085906001600160a01b038616906370a082319060240160206040518083038186803b1580156111bc57600080fd5b505afa1580156111d0573d6000803e3d6000fd5b505050506040513d601f19601f820116820180604052508101906111f491906142a1565b6111fe919061477e565b611208919061475e565b90506112168333848461307c565b6000611242847f0000000000000000000000000000000000000000000000000000000000000000612728565b5060408051600280825260608201835292935060009290916020830190803683370190505090507f0000000000000000000000000000000000000000000000000000000000000000816000815181106112ab57634e487b7160e01b600052603260045260246000fd5b60200260200101906001600160a01b031690816001600160a01b03168152505084816001815181106112ed57634e487b7160e01b600052603260045260246000fd5b60200260200101906001600160a01b031690816001600160a01b031681525050600061133a7f00000000000000000000000000000000000000000000000000000000000000008584613231565b60018151811061135a57634e487b7160e01b600052603260045260246000fd5b60200260200101519050600080846001600160a01b03167f00000000000000000000000000000000000000000000000000000000000000006001600160a01b0316146113a8578260006113ac565b6000835b6040517f022c0d9f0000000000000000000000000000000000000000000000000000000081526004810183905260248101829052306044820152608060648201526000608482015291935091506001600160a01b0388169063022c0d9f9060a401600060405180830381600087803b15801561142757600080fd5b505af115801561143b573d6000803e3d6000fd5b50506040517f70a082310000000000000000000000000000000000000000000000000000000081523060048201527f00000000000000000000000000000000000000000000000000000000000000006001600160a01b0316925063beceed39915082906370a082319060240160206040518083038186803b1580156114bf57600080fd5b505afa1580156114d3573d6000803e3d6000fd5b505050506040513d601f19601f820116820180604052508101906114f791906142a1565b6040518263ffffffff1660e01b815260040161151591815260200190565b602060405180830381600087803b15801561152f57600080fd5b505af1158015611543573d6000803e3d6000fd5b505050506040513d601f19601f820116820180604052508101906115679190614068565b505050505050505050611694565b6040517f70a08231000000000000000000000000000000000000000000000000000000008152336004820152600090633b9aca009083906001600160a01b037f000000000000000000000000000000000000000000000000000000000000000016906370a082319060240160206040518083038186803b1580156115f857600080fd5b505afa15801561160c573d6000803e3d6000fd5b505050506040513d601f19601f8201168201806040525081019061163091906142a1565b61163a919061477e565b611644919061475e565b90506116927f0000000000000000000000000000000000000000000000000000000000000000337f0000000000000000000000000000000000000000000000000000000000000000846133fc565b505b821580156116a8575085516116a8906121a0565b156116c75785516116b89061230c565b86526116c582338861354e565b505b50505050505050505050565b60006103f97f000000000000000000000000000000000000000000000000000000000000000085858561366d565b600080808060e08501358042111561175b5760405162461bcd60e51b815260206004820152601360248201527f5472616e73616374696f6e20746f6f206f6c6400000000000000000000000000604482015260640161045c565b600080806117a07f000000000000000000000000000000000000000000000000000000000000000061179060208c018c613f47565b6109a060408d0160208e01613f47565b90506117ab89610cd9565b929a50909850935091506117cd6117c560208b018b613f47565b33838b61307c565b6117e86117e060408b0160208c01613f47565b33838a61307c565b6001600160a01b038116636a62784261180760608c0160408d01613f47565b6040517fffffffff0000000000000000000000000000000000000000000000000000000060e084901b1681526001600160a01b039091166004820152602401602060405180830381600087803b15801561186057600080fd5b505af1158015611874573d6000803e3d6000fd5b505050506040513d601f19601f8201168201806040525081019061189891906142a1565b6000965094506001600160a01b037f0000000000000000000000000000000000000000000000000000000000000000166118d560208b018b613f47565b6001600160a01b03161415801561192d57506001600160a01b037f00000000000000000000000000000000000000000000000000000000000000001661192160408b0160208c01613f47565b6001600160a01b031614155b15611cdf5760008311806119415750600082115b61198d5760405162461bcd60e51b815260206004820152601d60248201527f43616e6e6f742063616c63756c61746520504f434b45542076616c7565000000604482015260640161045c565b8215611b5e5782955060006002896119a5919061475e565b90506119b1818a6147bb565b98506000611a0c7f00000000000000000000000000000000000000000000000000000000000000006119e660208e018e613f47565b7f00000000000000000000000000000000000000000000000000000000000000006125c8565b9050611a3a7f000000000000000000000000000000000000000000000000000000000000000033838b61307c565b6000611a72611a4c60208e018e613f47565b7f0000000000000000000000000000000000000000000000000000000000000000612728565b509050600080826001600160a01b03167f00000000000000000000000000000000000000000000000000000000000000006001600160a01b031614611ab957846000611abd565b6000855b6040517f022c0d9f00000000000000000000000000000000000000000000000000000000815260048101839052602481018290526001600160a01b03898116604483015260806064830152600060848301529294509092509085169063022c0d9f9060a401600060405180830381600087803b158015611b3c57600080fd5b505af1158015611b50573d6000803e3d6000fd5b505050505050505050611cdf565b8195506000600288611b70919061475e565b9050611b7c81896147bb565b97506000611bb47f00000000000000000000000000000000000000000000000000000000000000006119e660408e0160208f01613f47565b9050611be27f000000000000000000000000000000000000000000000000000000000000000033838b61307c565b6000611bf7611a4c60408e0160208f01613f47565b509050600080826001600160a01b03167f00000000000000000000000000000000000000000000000000000000000000006001600160a01b031614611c3e57846000611c42565b6000855b6040517f022c0d9f00000000000000000000000000000000000000000000000000000000815260048101839052602481018290526001600160a01b03898116604483015260806064830152600060848301529294509092509085169063022c0d9f9060a401600060405180830381600087803b158015611cc157600080fd5b505af1158015611cd5573d6000803e3d6000fd5b5050505050505050505b505050509193509193565b60006103fc7f000000000000000000000000000000000000000000000000000000000000000084846125c8565b60608167ffffffffffffffff811115611d4057634e487b7160e01b600052604160045260246000fd5b604051908082528060200260200182016040528015611d7357816020015b6060815260200190600190039081611d5e5790505b50905060005b82811015611e925760008030868685818110611da557634e487b7160e01b600052603260045260246000fd5b9050602002810190611db79190614625565b604051611dc59291906144b0565b600060405180830381855af49150503d8060008114611e00576040519150601f19603f3d011682016040523d82523d6000602084013e611e05565b606091505b509150915081611e5157604481511015611e1e57600080fd5b60048101905080806020019051810190611e389190614088565b60405162461bcd60e51b815260040161045c919061459f565b80848481518110611e7257634e487b7160e01b600052603260045260246000fd5b602002602001018190525050508080611e8a90614833565b915050611d79565b5092915050565b60006103f9848484613831565b60606103fc7f00000000000000000000000000000000000000000000000000000000000000008484613231565b6040517f70a082310000000000000000000000000000000000000000000000000000000081523060048201526000906001600160a01b038516906370a082319060240160206040518083038186803b158015611f2e57600080fd5b505afa158015611f42573d6000803e3d6000fd5b505050506040513d601f19601f82011682018060405250810190611f6691906142a1565b90508215611fbe5782811015611fbe5760405162461bcd60e51b815260206004820152601260248201527f496e73756666696369656e7420746f6b656e0000000000000000000000000000604482015260640161045c565b8015611fcf57611fcf84838361393f565b50505050565b600080841161204c5760405162461bcd60e51b815260206004820152602c60248201527f506f636b6574537761704c6962726172793a20494e53554646494349454e545f60448201527f494e5055545f414d4f554e540000000000000000000000000000000000000000606482015260840161045c565b60008311801561205c5750600082115b6120ce5760405162461bcd60e51b815260206004820152602960248201527f506f636b6574537761704c6962726172793a20494e53554646494349454e545f60448201527f4c49515549444954590000000000000000000000000000000000000000000000606482015260840161045c565b6000856001600160a01b031663ddca3f436040518163ffffffff1660e01b815260040160206040518083038186803b15801561210957600080fd5b505afa15801561211d573d6000803e3d6000fd5b505050506040513d601f19601f8201168201806040525081019061214191906142a1565b9050600061215d61215683633b9aca006147bb565b8790613a81565b9050600061216b8286613a81565b905060006121878361218189633b9aca00613a81565b90613a8d565b9050612193818361475e565b9998505050505050505050565b600060146121ae8180614746565b6121b89190614746565b825110159050919050565b60606121dd60006121d5601480614746565b849190613a99565b92915050565b60008060006121f58460000151613037565b60408051600280825260608201835293955091935060009290602083019080368337019050509050828160008151811061223f57634e487b7160e01b600052603260045260246000fd5b60200260200101906001600160a01b031690816001600160a01b031681525050818160018151811061228157634e487b7160e01b600052603260045260246000fd5b60200260200101906001600160a01b031690816001600160a01b0316815250506122cc7f00000000000000000000000000000000000000000000000000000000000000008883613231565b6001815181106122ec57634e487b7160e01b600052603260045260246000fd5b6020026020010151935061230286888688613c38565b5050509392505050565b60606121dd60148084516121d591906147bb565b60606002825110156123745760405162461bcd60e51b815260206004820152601f60248201527f506f636b6574537761704c6962726172793a20494e56414c49445f5041544800604482015260640161045c565b815167ffffffffffffffff81111561239c57634e487b7160e01b600052604160045260246000fd5b6040519080825280602002602001820160405280156123c5578160200160208202803683370190505b5090508281600183516123d891906147bb565b815181106123f657634e487b7160e01b600052603260045260246000fd5b60200260200101818152505060006001835161241291906147bb565b90505b801561250357600080612481878661242e6001876147bb565b8151811061244c57634e487b7160e01b600052603260045260246000fd5b602002602001015187868151811061247457634e487b7160e01b600052603260045260246000fd5b6020026020010151613cf2565b915091506124b8878585815181106124a957634e487b7160e01b600052603260045260246000fd5b6020026020010151848461366d565b846124c46001866147bb565b815181106124e257634e487b7160e01b600052603260045260246000fd5b602002602001018181525050505080806124fb906147fe565b915050612415565b509392505050565b604080516000808252602082019092526001600160a01b03841690839060405161253591906144c0565b60006040518083038185875af1925050503d8060008114612572576040519150601f19603f3d011682016040523d82523d6000602084013e612577565b606091505b50509050806108835760405162461bcd60e51b815260206004820152600360248201527f5354450000000000000000000000000000000000000000000000000000000000604482015260640161045c565b6000816001600160a01b0316836001600160a01b031611156125e8579091905b6040517fffffffffffffffffffffffffffffffffffffffff000000000000000000000000606085811b8216602084015284901b1660348201528490604801604080517fffffffffffffffffffffffffffffffffffffffffffffffffffffffffffffffe08184030181529082905280516020918201206126ea939290917fe28fa7bf5fb2d35a8f7e8c92c9a7ce8c68d700393825d6eb56728888754f488b91017fff00000000000000000000000000000000000000000000000000000000000000815260609390931b7fffffffffffffffffffffffffffffffffffffffff0000000000000000000000001660018401526015830191909152603582015260550190565b604080517fffffffffffffffffffffffffffffffffffffffffffffffffffffffffffffffe08184030181529190528051602090910120949350505050565b600080826001600160a01b0316846001600160a01b031614156127b35760405162461bcd60e51b815260206004820152602660248201527f506f636b6574537761704c6962726172793a204944454e544943414c5f41444460448201527f5245535345530000000000000000000000000000000000000000000000000000606482015260840161045c565b826001600160a01b0316846001600160a01b0316106127d35782846127d6565b83835b90925090506001600160a01b0382166128315760405162461bcd60e51b815260206004820152601f60248201527f506f636b6574537761704c6962726172793a205a45524f5f4144445245535300604482015260640161045c565b9250929050565b6040517fe6a439050000000000000000000000000000000000000000000000000000000081526001600160a01b03858116600483015284811660248301526000917f00000000000000000000000000000000000000000000000000000000000000009091169063e6a439059060440160206040518083038186803b1580156128bf57600080fd5b505afa1580156128d3573d6000803e3d6000fd5b505050506040513d601f19601f820116820180604052508101906128f79190613f63565b90506001600160a01b038116612919576129138430848661307c565b50611fcf565b604080516002808252606082018352600092602083019080368337019050509050848160008151811061295c57634e487b7160e01b600052603260045260246000fd5b60200260200101906001600160a01b031690816001600160a01b031681525050858160018151811061299e57634e487b7160e01b600052603260045260246000fd5b60200260200101906001600160a01b031690816001600160a01b03168152505060006129eb7f00000000000000000000000000000000000000000000000000000000000000008684613231565b600181518110612a0b57634e487b7160e01b600052603260045260246000fd5b60200260200101519050612a218630858861307c565b6000612a2d8888612728565b509050600080826001600160a01b0316896001600160a01b031614612a5457836000612a58565b6000845b6040517f022c0d9f00000000000000000000000000000000000000000000000000000000815260048101839052602481018290526001600160a01b038a8116604483015260806064830152600060848301529294509092509087169063022c0d9f9060a4015b600060405180830381600087803b158015612ad857600080fd5b505af1158015612aec573d6000803e3d6000fd5b5050505050505050505050505050565b60008060008060007f00000000000000000000000000000000000000000000000000000000000000009050600080612b378860000151613037565b91509150600080612b49858585613cf2565b91509150816000148015612b5b575080155b15612b6b578d98508c9750612cad565b6000612b788f8484613831565b90508d8111612c02578b811015612bf75760405162461bcd60e51b815260206004820152602760248201527f506f636b657453776170526f757465723a20494e53554646494349454e545f4260448201527f5f414d4f554e5400000000000000000000000000000000000000000000000000606482015260840161045c565b8e9950975087612cab565b6000612c0f8f8486613831565b90508f811115612c2f57634e487b7160e01b600052600160045260246000fd5b8d811015612ca55760405162461bcd60e51b815260206004820152602760248201527f506f636b657453776170526f757465723a20494e53554646494349454e545f4160448201527f5f414d4f554e5400000000000000000000000000000000000000000000000000606482015260840161045c565b99508d98505b505b60009650600095507f00000000000000000000000000000000000000000000000000000000000000006001600160a01b0316846001600160a01b031614158015612d2957507f00000000000000000000000000000000000000000000000000000000000000006001600160a01b0316836001600160a01b031614155b15613026576040805160028082526060820183526000926020830190803683370190505090507f000000000000000000000000000000000000000000000000000000000000000081600081518110612d9157634e487b7160e01b600052603260045260246000fd5b6001600160a01b0392831660209182029290920101526040517fe6a439050000000000000000000000000000000000000000000000000000000081527f000000000000000000000000000000000000000000000000000000000000000082166004820152868216602482015260009188169063e6a439059060440160206040518083038186803b158015612e2457600080fd5b505afa158015612e38573d6000803e3d6000fd5b505050506040513d601f19601f82011682018060405250810190612e5c9190613f63565b6001600160a01b031614612ee4578481600181518110612e8c57634e487b7160e01b600052603260045260246000fd5b6001600160a01b0390921660209283029190910190910152612eb986612eb360028d61475e565b83612320565b600081518110612ed957634e487b7160e01b600052603260045260246000fd5b602002602001015197505b6040517fe6a439050000000000000000000000000000000000000000000000000000000081526001600160a01b037f00000000000000000000000000000000000000000000000000000000000000008116600483015285811660248301526000919088169063e6a439059060440160206040518083038186803b158015612f6a57600080fd5b505afa158015612f7e573d6000803e3d6000fd5b505050506040513d601f19601f82011682018060405250810190612fa29190613f63565b6001600160a01b031614613024578381600181518110612fd257634e487b7160e01b600052603260045260246000fd5b6001600160a01b0390921660209283029190910190910152612ff986612eb360028c61475e565b60008151811061301957634e487b7160e01b600052603260045260246000fd5b602002602001015196505b505b505050505095509550955095915050565b6000806130448382613de5565b9150613051836014613de5565b9050915091565b60006130658484846125c8565b9050336001600160a01b038216146103fc57600080fd5b60007f00000000000000000000000000000000000000000000000000000000000000006001600160a01b0316856001600160a01b03161480156130c25750814791508110155b156131fd577f00000000000000000000000000000000000000000000000000000000000000006001600160a01b031663d0e30db0826040518263ffffffff1660e01b81526004016000604051808303818588803b15801561312257600080fd5b505af1158015613136573d6000803e3d6000fd5b50506040517fa9059cbb0000000000000000000000000000000000000000000000000000000081526001600160a01b038781166004830152602482018790527f000000000000000000000000000000000000000000000000000000000000000016935063a9059cbb92506044019050602060405180830381600087803b1580156131bf57600080fd5b505af11580156131d3573d6000803e3d6000fd5b505050506040513d601f19601f820116820180604052508101906131f79190614068565b5061322a565b6001600160a01b03841630141561321e5761321985848461393f565b61322a565b61322a858585856133fc565b5050505050565b60606002825110156132855760405162461bcd60e51b815260206004820152601f60248201527f506f636b6574537761704c6962726172793a20494e56414c49445f5041544800604482015260640161045c565b815167ffffffffffffffff8111156132ad57634e487b7160e01b600052604160045260246000fd5b6040519080825280602002602001820160405280156132d6578160200160208202803683370190505b50905082816000815181106132fb57634e487b7160e01b600052603260045260246000fd5b60200260200101818152505060005b6001835161331891906147bb565b8110156125035760008061337a8786858151811061334657634e487b7160e01b600052603260045260246000fd5b60200260200101518786600161335c9190614746565b8151811061247457634e487b7160e01b600052603260045260246000fd5b915091506133b1878585815181106133a257634e487b7160e01b600052603260045260246000fd5b60200260200101518484611fd5565b846133bd856001614746565b815181106133db57634e487b7160e01b600052603260045260246000fd5b602002602001018181525050505080806133f490614833565b91505061330a565b604080516001600160a01b0385811660248301528481166044830152606480830185905283518084039091018152608490920183526020820180517bffffffffffffffffffffffffffffffffffffffffffffffffffffffff167f23b872dd00000000000000000000000000000000000000000000000000000000179052915160009283929088169161348e91906144c0565b6000604051808303816000865af19150503d80600081146134cb576040519150601f19603f3d011682016040523d82523d6000602084013e6134d0565b606091505b50915091508180156134fa5750805115806134fa5750808060200190518101906134fa9190614068565b6135465760405162461bcd60e51b815260206004820152600360248201527f5354460000000000000000000000000000000000000000000000000000000000604482015260640161045c565b505050505050565b60008060006135608460000151613037565b6040805160028082526060820183529395509193506000929060208301908036833701905050905081816000815181106135aa57634e487b7160e01b600052603260045260246000fd5b60200260200101906001600160a01b031690816001600160a01b03168152505082816001815181106135ec57634e487b7160e01b600052603260045260246000fd5b60200260200101906001600160a01b031690816001600160a01b0316815250506136377f00000000000000000000000000000000000000000000000000000000000000008883612320565b60008151811061365757634e487b7160e01b600052603260045260246000fd5b6020026020010151935061230286858988613c38565b60008084116136e45760405162461bcd60e51b815260206004820152602d60248201527f506f636b6574537761704c6962726172793a20494e53554646494349454e545f60448201527f4f55545055545f414d4f554e5400000000000000000000000000000000000000606482015260840161045c565b6000831180156136f45750600082115b6137665760405162461bcd60e51b815260206004820152602960248201527f506f636b6574537761704c6962726172793a20494e53554646494349454e545f60448201527f4c49515549444954590000000000000000000000000000000000000000000000606482015260840161045c565b6000856001600160a01b031663ddca3f436040518163ffffffff1660e01b815260040160206040518083038186803b1580156137a157600080fd5b505afa1580156137b5573d6000803e3d6000fd5b505050506040513d601f19601f820116820180604052508101906137d991906142a1565b905060006137f5633b9aca006137ef8789613a81565b90613a81565b9050600061381461380a84633b9aca006147bb565b6137ef878a613eb5565b90506138256001612181838561475e565b98975050505050505050565b60008084116138a85760405162461bcd60e51b815260206004820152602660248201527f506f636b6574537761704c6962726172793a20494e53554646494349454e545f60448201527f414d4f554e540000000000000000000000000000000000000000000000000000606482015260840161045c565b6000831180156138b85750600082115b61392a5760405162461bcd60e51b815260206004820152602960248201527f506f636b6574537761704c6962726172793a20494e53554646494349454e545f60448201527f4c49515549444954590000000000000000000000000000000000000000000000606482015260840161045c565b826139358584613a81565b6103f9919061475e565b604080516001600160a01b038481166024830152604480830185905283518084039091018152606490920183526020820180517bffffffffffffffffffffffffffffffffffffffffffffffffffffffff167fa9059cbb0000000000000000000000000000000000000000000000000000000017905291516000928392908716916139c991906144c0565b6000604051808303816000865af19150503d8060008114613a06576040519150601f19603f3d011682016040523d82523d6000602084013e613a0b565b606091505b5091509150818015613a35575080511580613a35575080806020019051810190613a359190614068565b61322a5760405162461bcd60e51b815260206004820152600260248201527f5354000000000000000000000000000000000000000000000000000000000000604482015260640161045c565b60006103fc828461477e565b60006103fc8284614746565b606081613aa781601f614746565b1015613af55760405162461bcd60e51b815260206004820152600e60248201527f736c6963655f6f766572666c6f77000000000000000000000000000000000000604482015260640161045c565b82613b008382614746565b1015613b4e5760405162461bcd60e51b815260206004820152600e60248201527f736c6963655f6f766572666c6f77000000000000000000000000000000000000604482015260640161045c565b613b588284614746565b84511015613ba85760405162461bcd60e51b815260206004820152601160248201527f736c6963655f6f75744f66426f756e6473000000000000000000000000000000604482015260640161045c565b606082158015613bc75760405191506000825260208201604052613c2f565b6040519150601f8416801560200281840101858101878315602002848b0101015b81831015613c00578051835260209283019201613be8565b5050858452601f017fffffffffffffffffffffffffffffffffffffffffffffffffffffffffffffffe016604052505b50949350505050565b600080613c488360000151613037565b915091506000613c588383611cea565b9050613c668333838961307c565b6000613c728484612728565b509050600080826001600160a01b0316866001600160a01b031614613c9957876000613c9d565b6000885b91509150836001600160a01b031663022c0d9f83838d8b604051602001613cc491906145b2565b6040516020818303038152906040526040518563ffffffff1660e01b8152600401612abe94939291906145ed565b6000806000613d018585612728565b5090506000613d118787876125c8565b90506000819050600080826001600160a01b0316630902f1ac6040518163ffffffff1660e01b815260040160606040518083038186803b158015613d5457600080fd5b505afa158015613d68573d6000803e3d6000fd5b505050506040513d601f19601f82011682018060405250810190613d8c919061425e565b506dffffffffffffffffffffffffffff1691506dffffffffffffffffffffffffffff169150846001600160a01b0316896001600160a01b031614613dd1578082613dd4565b81815b909b909a5098505050505050505050565b600081613df3816014614746565b1015613e415760405162461bcd60e51b815260206004820152601260248201527f746f416464726573735f6f766572666c6f770000000000000000000000000000604482015260640161045c565b613e4c826014614746565b83511015613e9c5760405162461bcd60e51b815260206004820152601560248201527f746f416464726573735f6f75744f66426f756e64730000000000000000000000604482015260640161045c565b5001602001516c01000000000000000000000000900490565b60006103fc82846147bb565b600082601f830112613ed1578081fd5b8135613ee4613edf82614700565b6146b1565b818152846020838601011115613ef8578283fd5b816020850160208301379081016020019190915292915050565b600061010082840312156106cf578081fd5b80516dffffffffffffffffffffffffffff81168114613f4257600080fd5b919050565b600060208284031215613f58578081fd5b81356103fc81614898565b600060208284031215613f74578081fd5b81516103fc81614898565b60008060408385031215613f91578081fd5b8235613f9c81614898565b91506020830135613fac81614898565b809150509250929050565b600080600060608486031215613fcb578081fd5b8335613fd681614898565b9250602084013591506040840135613fed81614898565b809150509250925092565b6000806020838503121561400a578182fd5b823567ffffffffffffffff80821115614021578384fd5b818501915085601f830112614034578384fd5b813581811115614042578485fd5b8660208260051b8501011115614056578485fd5b60209290920196919550909350505050565b600060208284031215614079578081fd5b815180151581146103fc578182fd5b600060208284031215614099578081fd5b815167ffffffffffffffff8111156140af578182fd5b8201601f810184136140bf578182fd5b80516140cd613edf82614700565b8181528560208385010111156140e1578384fd5b6140f28260208301602086016147d2565b95945050505050565b6000610100828403121561410d578081fd5b6103fc8383613f12565b600060208284031215614128578081fd5b813567ffffffffffffffff8082111561413f578283fd5b9083019060408286031215614152578283fd5b60405160408101818110838211171561416d5761416d614882565b60405282358281111561417e578485fd5b61418a87828601613ec1565b8252506020830135925061419d83614898565b6020810192909252509392505050565b6000602082840312156141be578081fd5b813567ffffffffffffffff808211156141d5578283fd5b9083019060a082860312156141e8578283fd5b6141f0614688565b8235828111156141fe578485fd5b61420a87828601613ec1565b8252506020830135915061421d82614898565b81602082015260408301356040820152606083013560608201526080830135608082015280935050505092915050565b600060c082840312156106cf578081fd5b600080600060608486031215614272578081fd5b61427b84613f24565b925061428960208501613f24565b9150604084015163ffffffff81168114613fed578182fd5b6000602082840312156142b2578081fd5b5051919050565b600080604083850312156142cb578182fd5b823591506020830135613fac81614898565b600080604083850312156142ef578182fd5b8235915060208084013567ffffffffffffffff8082111561430e578384fd5b818601915086601f830112614321578384fd5b81358181111561433357614333614882565b8060051b91506143448483016146b1565b8181528481019084860184860187018b101561435e578788fd5b8795505b8386101561438c578035945061437785614898565b84835260019590950194918601918601614362565b508096505050505050509250929050565b600080604083850312156143af578182fd5b505080516020909101519092909150565b600080600080606085870312156143d5578182fd5b8435935060208501359250604085013567ffffffffffffffff808211156143fa578384fd5b818701915087601f83011261440d578384fd5b81358181111561441b578485fd5b88602082850101111561442c578485fd5b95989497505060200194505050565b60008060006060848603121561444f578081fd5b505081359360208301359350604090920135919050565b6000815180845261447e8160208601602086016147d2565b601f017fffffffffffffffffffffffffffffffffffffffffffffffffffffffffffffffe0169290920160200192915050565b8183823760009101908152919050565b600082516144d28184602087016147d2565b9190910192915050565b6000602080830181845280855180835260408601915060408160051b8701019250838701855b8281101561454e577fffffffffffffffffffffffffffffffffffffffffffffffffffffffffffffffc088860301845261453c858351614466565b94509285019290850190600101614502565b5092979650505050505050565b6020808252825182820181905260009190848201906040850190845b8181101561459357835183529284019291840191600101614577565b50909695505050505050565b6020815260006103fc6020830184614466565b6020815260008251604060208401526145ce6060840182614466565b90506001600160a01b0360208501511660408401528091505092915050565b8481528360208201526001600160a01b038316604082015260806060820152600061461b6080830184614466565b9695505050505050565b60008083357fffffffffffffffffffffffffffffffffffffffffffffffffffffffffffffffe1843603018112614659578283fd5b83018035915067ffffffffffffffff821115614673578283fd5b60200191503681900382131561283157600080fd5b60405160a0810167ffffffffffffffff811182821017156146ab576146ab614882565b60405290565b604051601f82017fffffffffffffffffffffffffffffffffffffffffffffffffffffffffffffffe016810167ffffffffffffffff811182821017156146f8576146f8614882565b604052919050565b600067ffffffffffffffff82111561471a5761471a614882565b50601f017fffffffffffffffffffffffffffffffffffffffffffffffffffffffffffffffe01660200190565b600082198211156147595761475961486c565b500190565b60008261477957634e487b7160e01b81526012600452602481fd5b500490565b6000817fffffffffffffffffffffffffffffffffffffffffffffffffffffffffffffffff04831182151516156147b6576147b661486c565b500290565b6000828210156147cd576147cd61486c565b500390565b60005b838110156147ed5781810151838201526020016147d5565b83811115611fcf5750506000910152565b60008161480d5761480d61486c565b507fffffffffffffffffffffffffffffffffffffffffffffffffffffffffffffffff0190565b60007fffffffffffffffffffffffffffffffffffffffffffffffffffffffffffffffff8214156148655761486561486c565b5060010190565b634e487b7160e01b600052601160045260246000fd5b634e487b7160e01b600052604160045260246000fd5b6001600160a01b03811681146148ad57600080fd5b5056fea264697066735822122075bbb1f4622f072e1f92865d4e25254e324cd41bb674651275ae50206b3185c664736f6c63430008040033",
  "immutableReferences": {
    "2849": [
      {
        "length": 32,
        "start": 834
      },
      {
        "length": 32,
        "start": 978
      },
      {
        "length": 32,
        "start": 1369
      },
      {
        "length": 32,
        "start": 2404
      },
      {
        "length": 32,
        "start": 3519
      },
      {
        "length": 32,
        "start": 3627
      },
      {
        "length": 32,
        "start": 3994
      },
      {
        "length": 32,
        "start": 4228
      },
      {
        "length": 32,
        "start": 4884
      },
      {
        "length": 32,
        "start": 5850
      },
      {
        "length": 32,
        "start": 5988
      },
      {
        "length": 32,
        "start": 6586
      },
      {
        "length": 32,
        "start": 7045
      },
      {
        "length": 32,
        "start": 7409
      },
      {
        "length": 32,
        "start": 7853
      },
      {
        "length": 32,
        "start": 8870
      },
      {
        "length": 32,
        "start": 10363
      },
      {
        "length": 32,
        "start": 10693
      },
      {
        "length": 32,
        "start": 11014
      },
      {
        "length": 32,
        "start": 13841
      }
    ],
    "2853": [
      {
        "length": 32,
        "start": 475
      },
      {
        "length": 32,
        "start": 1798
      },
      {
        "length": 32,
        "start": 2069
      },
      {
        "length": 32,
        "start": 12416
      },
      {
        "length": 32,
        "start": 12489
      },
      {
        "length": 32,
        "start": 12663
      }
    ],
    "2857": [
      {
        "length": 32,
        "start": 886
      },
      {
        "length": 32,
        "start": 3774
      },
      {
        "length": 32,
        "start": 3835
      },
      {
        "length": 32,
        "start": 3949
      },
      {
        "length": 32,
        "start": 4188
      },
      {
        "length": 32,
        "start": 4638
      },
      {
        "length": 32,
        "start": 4715
      },
      {
        "length": 32,
        "start": 4979
      },
      {
        "length": 32,
        "start": 5227
      },
      {
        "length": 32,
        "start": 5558
      },
      {
        "length": 32,
        "start": 5707
      },
      {
        "length": 32,
        "start": 5741
      },
      {
        "length": 32,
        "start": 6312
      },
      {
        "length": 32,
        "start": 6385
      },
      {
        "length": 32,
        "start": 6632
      },
      {
        "length": 32,
        "start": 6675
      },
      {
        "length": 32,
        "start": 6734
      },
      {
        "length": 32,
        "start": 6788
      },
      {
        "length": 32,
        "start": 7099
      },
      {
        "length": 32,
        "start": 7177
      },
      {
        "length": 32,
        "start": 11447
      },
      {
        "length": 32,
        "start": 11508
      },
      {
        "length": 32,
        "start": 11601
      },
      {
        "length": 32,
        "start": 11727
      },
      {
        "length": 32,
        "start": 12052
      }
    ]
  },
  "source": "// SPDX-License-Identifier: Unlicensed\npragma solidity =0.8.4;\npragma abicoder v2;\n\nimport \"./router/SwapRouter.sol\";\nimport \"./router/LiquidityRouter.sol\";\nimport \"./abstract/PeripheryImmutableState.sol\";\n\ncontract PocketSwapRouter is\nPeripheryImmutableState,\nPeripheryValidation,\nSwapRouter,\nLiquidityRouter\n{\n    constructor(address _factory, address _WETH9, address _pocketToken)\n    PeripheryImmutableState(_factory, _WETH9, _pocketToken) {}\n}",
  "sourcePath": "/Users/ilyk/projects/midgardtech/xpocket-PocketSwap/contracts/pocketswap/PocketSwapRouter.sol",
  "compiler": {
    "name": "solc",
    "version": "0.8.4+commit.c7e474f2.Emscripten.clang"
  },
  "schemaVersion": "3.3.3",
  "updatedAt": "2021-07-06T07:43:07.064Z",
  "devdoc": {
    "kind": "dev",
    "methods": {
      "multicall(bytes[])": {
        "details": "The `msg.value` should not be trusted for any method callable from multicall.",
        "params": {
          "data": "The encoded function data for each of the calls to make to this contract"
        },
        "returns": {
          "results": "The results from each of the calls passed in via data"
        }
      },
      "swap((address,address,address,uint256,uint256,uint256))": {
        "params": {
          "params": "The parameters necessary for the swap, encoded as `SwapParams` in calldata"
        },
        "returns": {
          "amountOut": "The amount of the received token"
        }
      },
      "swapMulti((bytes,address,uint256,uint256,uint256))": {
        "params": {
          "params": "The parameters necessary for the multi-hop swap, encoded as `SwapMultiParams` in calldata"
        },
        "returns": {
          "amountOut": "The amount of the received token"
        }
      },
      "sweepToken(address,uint256,address)": {
        "details": "The amountMinimum parameter prevents malicious contracts from stealing the token from users",
        "params": {
          "amountMinimum": "The minimum amount of token required for a transfer",
          "recipient": "The destination address of the token",
          "token": "The contract address of the token which will be transferred to `recipient`"
        }
      },
      "unwrapWETH9(uint256,address)": {
        "details": "The amountMinimum parameter prevents malicious contracts from stealing WETH9 from users.",
        "params": {
          "amountMinimum": "The minimum amount of WETH9 to unwrap",
          "recipient": "The address receiving ETH"
        }
      }
    },
    "version": 1
  },
  "userdoc": {
    "kind": "user",
    "methods": {
      "multicall(bytes[])": {
        "notice": "Call multiple functions in the current contract and return the data from all of them if they all succeed"
      },
      "swap((address,address,address,uint256,uint256,uint256))": {
        "notice": "Swaps `amountIn` of one token for as much as possible of another token"
      },
      "swapMulti((bytes,address,uint256,uint256,uint256))": {
        "notice": "Swaps `amountIn` of one token for as much as possible of another along the specified path"
      },
      "sweepToken(address,uint256,address)": {
        "notice": "Sends the full amount of a token held by this contract to the given recipient"
      },
      "unwrapWETH9(uint256,address)": {
        "notice": "Unwraps the contract's WETH9 balance and sends it to recipient as ETH."
      }
    },
    "version": 1
  }
}