{
  "contractName": "PocketSwapRouter",
  "abi": [
    {
      "inputs": [
        {
          "internalType": "address",
          "name": "_factory",
          "type": "address"
        },
        {
          "internalType": "address",
          "name": "_WETH9",
          "type": "address"
        },
        {
          "internalType": "address",
          "name": "_pocketToken",
          "type": "address"
        }
      ],
      "stateMutability": "nonpayable",
      "type": "constructor"
    },
    {
      "inputs": [],
      "name": "WETH9",
      "outputs": [
        {
          "internalType": "address",
          "name": "",
          "type": "address"
        }
      ],
      "stateMutability": "view",
      "type": "function"
    },
    {
      "inputs": [
        {
          "components": [
            {
              "internalType": "address",
              "name": "token0",
              "type": "address"
            },
            {
              "internalType": "address",
              "name": "token1",
              "type": "address"
            },
            {
              "internalType": "address",
              "name": "recipient",
              "type": "address"
            },
            {
              "internalType": "uint256",
              "name": "amount0Desired",
              "type": "uint256"
            },
            {
              "internalType": "uint256",
              "name": "amount1Desired",
              "type": "uint256"
            },
            {
              "internalType": "uint256",
              "name": "amount0Min",
              "type": "uint256"
            },
            {
              "internalType": "uint256",
              "name": "amount1Min",
              "type": "uint256"
            },
            {
              "internalType": "uint256",
              "name": "deadline",
              "type": "uint256"
            }
          ],
          "internalType": "struct IPocketSwapLiquidityRouter.AddLiquidityParams",
          "name": "params",
          "type": "tuple"
        }
      ],
      "name": "addLiquidity",
      "outputs": [
        {
          "internalType": "uint256",
          "name": "amountA",
          "type": "uint256"
        },
        {
          "internalType": "uint256",
          "name": "amountB",
          "type": "uint256"
        },
        {
          "internalType": "uint256",
          "name": "amountPocket",
          "type": "uint256"
        },
        {
          "internalType": "uint256",
          "name": "liquidity",
          "type": "uint256"
        }
      ],
      "stateMutability": "payable",
      "type": "function"
    },
    {
      "inputs": [
        {
          "components": [
            {
              "internalType": "address",
              "name": "token0",
              "type": "address"
            },
            {
              "internalType": "address",
              "name": "token1",
              "type": "address"
            },
            {
              "internalType": "address",
              "name": "recipient",
              "type": "address"
            },
            {
              "internalType": "uint256",
              "name": "amount0Desired",
              "type": "uint256"
            },
            {
              "internalType": "uint256",
              "name": "amount1Desired",
              "type": "uint256"
            },
            {
              "internalType": "uint256",
              "name": "amount0Min",
              "type": "uint256"
            },
            {
              "internalType": "uint256",
              "name": "amount1Min",
              "type": "uint256"
            },
            {
              "internalType": "uint256",
              "name": "deadline",
              "type": "uint256"
            }
          ],
          "internalType": "struct IPocketSwapLiquidityRouter.AddLiquidityParams",
          "name": "params",
          "type": "tuple"
        }
      ],
      "name": "calcLiquidity",
      "outputs": [
        {
          "internalType": "uint256",
          "name": "amountA",
          "type": "uint256"
        },
        {
          "internalType": "uint256",
          "name": "amountB",
          "type": "uint256"
        }
      ],
      "stateMutability": "view",
      "type": "function"
    },
    {
      "inputs": [],
      "name": "factory",
      "outputs": [
        {
          "internalType": "address",
          "name": "",
          "type": "address"
        }
      ],
      "stateMutability": "view",
      "type": "function"
    },
    {
      "inputs": [
        {
          "internalType": "uint256",
          "name": "amountOut",
          "type": "uint256"
        },
        {
          "internalType": "uint256",
          "name": "reserveIn",
          "type": "uint256"
        },
        {
          "internalType": "uint256",
          "name": "reserveOut",
          "type": "uint256"
        }
      ],
      "name": "getAmountIn",
      "outputs": [
        {
          "internalType": "uint256",
          "name": "amountIn",
          "type": "uint256"
        }
      ],
      "stateMutability": "view",
      "type": "function"
    },
    {
      "inputs": [
        {
          "internalType": "uint256",
          "name": "amountIn",
          "type": "uint256"
        },
        {
          "internalType": "uint256",
          "name": "reserveIn",
          "type": "uint256"
        },
        {
          "internalType": "uint256",
          "name": "reserveOut",
          "type": "uint256"
        }
      ],
      "name": "getAmountOut",
      "outputs": [
        {
          "internalType": "uint256",
          "name": "amountOut",
          "type": "uint256"
        }
      ],
      "stateMutability": "view",
      "type": "function"
    },
    {
      "inputs": [
        {
          "internalType": "uint256",
          "name": "amountOut",
          "type": "uint256"
        },
        {
          "internalType": "address[]",
          "name": "path",
          "type": "address[]"
        }
      ],
      "name": "getAmountsIn",
      "outputs": [
        {
          "internalType": "uint256[]",
          "name": "amounts",
          "type": "uint256[]"
        }
      ],
      "stateMutability": "view",
      "type": "function"
    },
    {
      "inputs": [
        {
          "internalType": "uint256",
          "name": "amountIn",
          "type": "uint256"
        },
        {
          "internalType": "address[]",
          "name": "path",
          "type": "address[]"
        }
      ],
      "name": "getAmountsOut",
      "outputs": [
        {
          "internalType": "uint256[]",
          "name": "amounts",
          "type": "uint256[]"
        }
      ],
      "stateMutability": "view",
      "type": "function"
    },
    {
      "inputs": [
        {
          "internalType": "bytes[]",
          "name": "data",
          "type": "bytes[]"
        }
      ],
      "name": "multicall",
      "outputs": [
        {
          "internalType": "bytes[]",
          "name": "results",
          "type": "bytes[]"
        }
      ],
      "stateMutability": "payable",
      "type": "function"
    },
    {
      "inputs": [
        {
          "internalType": "address",
          "name": "tokenA",
          "type": "address"
        },
        {
          "internalType": "address",
          "name": "tokenB",
          "type": "address"
        }
      ],
      "name": "pairFor",
      "outputs": [
        {
          "internalType": "contract IPocketSwapPair",
          "name": "",
          "type": "address"
        }
      ],
      "stateMutability": "view",
      "type": "function"
    },
    {
      "inputs": [],
      "name": "pocket",
      "outputs": [
        {
          "internalType": "address",
          "name": "",
          "type": "address"
        }
      ],
      "stateMutability": "view",
      "type": "function"
    },
    {
      "inputs": [
        {
          "internalType": "uint256",
          "name": "amount0Delta",
          "type": "uint256"
        },
        {
          "internalType": "uint256",
          "name": "amount1Delta",
          "type": "uint256"
        },
        {
          "internalType": "bytes",
          "name": "_data",
          "type": "bytes"
        }
      ],
      "name": "pocketSwapCallback",
      "outputs": [],
      "stateMutability": "nonpayable",
      "type": "function"
    },
    {
      "inputs": [
        {
          "internalType": "uint256",
          "name": "amountA",
          "type": "uint256"
        },
        {
          "internalType": "uint256",
          "name": "reserveA",
          "type": "uint256"
        },
        {
          "internalType": "uint256",
          "name": "reserveB",
          "type": "uint256"
        }
      ],
      "name": "quote",
      "outputs": [
        {
          "internalType": "uint256",
          "name": "amountB",
          "type": "uint256"
        }
      ],
      "stateMutability": "pure",
      "type": "function"
    },
    {
      "inputs": [
        {
          "components": [
            {
              "internalType": "address",
              "name": "tokenA",
              "type": "address"
            },
            {
              "internalType": "address",
              "name": "tokenB",
              "type": "address"
            },
            {
              "internalType": "uint256",
              "name": "liquidity",
              "type": "uint256"
            },
            {
              "internalType": "uint256",
              "name": "amountAMin",
              "type": "uint256"
            },
            {
              "internalType": "uint256",
              "name": "amountBMin",
              "type": "uint256"
            },
            {
              "internalType": "address",
              "name": "rewards",
              "type": "address"
            },
            {
              "internalType": "address",
              "name": "recipient",
              "type": "address"
            },
            {
              "internalType": "uint256",
              "name": "deadline",
              "type": "uint256"
            }
          ],
          "internalType": "struct IPocketSwapLiquidityRouter.RemoveLiquidityParams",
          "name": "params",
          "type": "tuple"
        }
      ],
      "name": "removeLiquidity",
      "outputs": [
        {
          "internalType": "uint256",
          "name": "amountA",
          "type": "uint256"
        },
        {
          "internalType": "uint256",
          "name": "amountB",
          "type": "uint256"
        }
      ],
      "stateMutability": "payable",
      "type": "function"
    },
    {
      "inputs": [
        {
          "components": [
            {
              "internalType": "address",
              "name": "tokenIn",
              "type": "address"
            },
            {
              "internalType": "address",
              "name": "tokenOut",
              "type": "address"
            },
            {
              "internalType": "address",
              "name": "recipient",
              "type": "address"
            },
            {
              "internalType": "uint256",
              "name": "deadline",
              "type": "uint256"
            },
            {
              "internalType": "uint256",
              "name": "amountIn",
              "type": "uint256"
            },
            {
              "internalType": "uint256",
              "name": "amountOutMinimum",
              "type": "uint256"
            }
          ],
          "internalType": "struct IPocketSwapRouter.SwapParams",
          "name": "params",
          "type": "tuple"
        }
      ],
      "name": "swap",
      "outputs": [
        {
          "internalType": "uint256",
          "name": "amountOut",
          "type": "uint256"
        }
      ],
      "stateMutability": "payable",
      "type": "function"
    },
    {
      "inputs": [
        {
          "components": [
            {
              "internalType": "bytes",
              "name": "path",
              "type": "bytes"
            },
            {
              "internalType": "address",
              "name": "recipient",
              "type": "address"
            },
            {
              "internalType": "uint256",
              "name": "deadline",
              "type": "uint256"
            },
            {
              "internalType": "uint256",
              "name": "amountIn",
              "type": "uint256"
            },
            {
              "internalType": "uint256",
              "name": "amountOutMinimum",
              "type": "uint256"
            }
          ],
          "internalType": "struct IPocketSwapRouter.SwapMultiParams",
          "name": "params",
          "type": "tuple"
        }
      ],
      "name": "swapMulti",
      "outputs": [
        {
          "internalType": "uint256",
          "name": "amountOut",
          "type": "uint256"
        }
      ],
      "stateMutability": "payable",
      "type": "function"
    },
    {
      "inputs": [
        {
          "internalType": "address",
          "name": "token",
          "type": "address"
        },
        {
          "internalType": "uint256",
          "name": "amountMinimum",
          "type": "uint256"
        },
        {
          "internalType": "address",
          "name": "recipient",
          "type": "address"
        }
      ],
      "name": "sweepToken",
      "outputs": [],
      "stateMutability": "payable",
      "type": "function"
    },
    {
      "inputs": [
        {
          "internalType": "uint256",
          "name": "amountMinimum",
          "type": "uint256"
        },
        {
          "internalType": "address",
          "name": "recipient",
          "type": "address"
        }
      ],
      "name": "unwrapWETH9",
      "outputs": [],
      "stateMutability": "payable",
      "type": "function"
    }
  ],
  "bytecode": "0x60e06040526000196000556001805460ff191690553480156200002157600080fd5b50604051620046cc380380620046cc833981016040819052620000449162000089565b6001600160601b0319606093841b811660805291831b821660a05290911b1660c052620000d2565b80516001600160a01b03811681146200008457600080fd5b919050565b6000806000606084860312156200009e578283fd5b620000a9846200006c565b9250620000b9602085016200006c565b9150620000c9604085016200006c565b90509250925092565b60805160601c60a05160601c60c05160601c6144da620001f26000396000818161038301528181610f7e01528181610fd50152818161106e01528181611178015281816112f7015281816113440152818161148d0152818161159f015281816117050152818161179a01526117bc0152600081816101db0152818161072d0152818161084901528181612b6301528181612bc60152612c8e01526000818161034f015281816103df01528181610573015281816109a501528181610e3901528181610ede0152818161109b015281816111a0015281816114210152818161182a015281816118b201528181611a1101528181611bcd015281816120140152818161265e015281816127e90152818161294e015261317601526144da6000f3fe6080604052600436106101295760003560e01c806385f8c259116100a5578063ad615dec11610074578063cccef9e211610059578063cccef9e214610371578063d06ca61f146103a5578063df2ab5bb146103c557600080fd5b8063ad615dec1461031d578063c45a01551461033d57600080fd5b806385f8c2591461028a5780638d4d72e5146102aa57806396ed28f9146102dd578063ac9650d8146102fd57600080fd5b806349404b7c116100fc5780636385a271116100e15780636385a2711461022257806368bc7e081461024a5780637936cd901461026a57600080fd5b806349404b7c146101b45780634aa4a4fc146101c957600080fd5b8063054d50d41461012e57806313b51924146101615780631f00ca7414610174578063441a12de146101a1575b600080fd5b34801561013a57600080fd5b5061014e610149366004614008565b6103d8565b6040519081526020015b60405180910390f35b61014e61016f366004613d7a565b610410565b34801561018057600080fd5b5061019461018f366004613eaa565b61056c565b6040516101589190614128565b61014e6101af366004613e1a565b610599565b6101c76101c2366004613e86565b6106fc565b005b3480156101d557600080fd5b506101fd7f000000000000000000000000000000000000000000000000000000000000000081565b60405173ffffffffffffffffffffffffffffffffffffffff9091168152602001610158565b610235610230366004613cc8565b6108c9565b60408051928352602083019190915201610158565b34801561025657600080fd5b50610235610265366004613cc8565b610d4e565b34801561027657600080fd5b506101c7610285366004613f8d565b610e10565b34801561029657600080fd5b5061014e6102a5366004614008565b611823565b6102bd6102b8366004613cc8565b611851565b604080519485526020850193909352918301526060820152608001610158565b3480156102e957600080fd5b506101fd6102f8366004613b4c565b611a0a565b61031061030b366004613bc5565b611a37565b60405161015891906140a9565b34801561032957600080fd5b5061014e610338366004614008565b611bb9565b34801561034957600080fd5b506101fd7f000000000000000000000000000000000000000000000000000000000000000081565b34801561037d57600080fd5b506101fd7f000000000000000000000000000000000000000000000000000000000000000081565b3480156103b157600080fd5b506101946103c0366004613eaa565b611bc6565b6101c76103d3366004613b84565b611bf3565b60006104067f0000000000000000000000000000000000000000000000000000000000000000858585611d02565b90505b9392505050565b600081604001518061041f4290565b11156104725760405162461bcd60e51b815260206004820152601360248201527f5472616e73616374696f6e20746f6f206f6c640000000000000000000000000060448201526064015b60405180910390fd5b60009150335b60006104878560000151611eda565b90506104de8560600151826104a05786602001516104a2565b305b60405180604001604052806104ba8a60000151611efd565b81526020018673ffffffffffffffffffffffffffffffffffffffff16815250611f1d565b606086015280156104fe5784513092506104f79061207a565b855261050b565b8460600151935050610511565b50610478565b83608001518310156105655760405162461bcd60e51b815260206004820152601360248201527f546f6f206c6974746c65207265636569766564000000000000000000000000006044820152606401610469565b5050919050565b60606104097f0000000000000000000000000000000000000000000000000000000000000000848461208e565b60006060820135804211156105f05760405162461bcd60e51b815260206004820152601360248201527f5472616e73616374696f6e20746f6f206f6c64000000000000000000000000006044820152606401610469565b6106a060808401356106086060860160408701613b14565b60408051808201909152806106206020890189613b14565b61063060408a0160208b01613b14565b6040517fffffffffffffffffffffffffffffffffffffffff000000000000000000000000606093841b811660208301529190921b16603482015260480160405160208183030381529060405281526020013373ffffffffffffffffffffffffffffffffffffffff16815250611f1d565b91508260a001358210156106f65760405162461bcd60e51b815260206004820152601360248201527f546f6f206c6974746c65207265636569766564000000000000000000000000006044820152606401610469565b50919050565b6040517f70a082310000000000000000000000000000000000000000000000000000000081523060048201526000907f000000000000000000000000000000000000000000000000000000000000000073ffffffffffffffffffffffffffffffffffffffff16906370a082319060240160206040518083038186803b15801561078457600080fd5b505afa158015610798573d6000803e3d6000fd5b505050506040513d601f19601f820116820180604052508101906107bc9190613e6e565b9050821561081457828110156108145760405162461bcd60e51b815260206004820152601260248201527f496e73756666696369656e7420574554483900000000000000000000000000006044820152606401610469565b80156108c4576040517f2e1a7d4d000000000000000000000000000000000000000000000000000000008152600481018290527f000000000000000000000000000000000000000000000000000000000000000073ffffffffffffffffffffffffffffffffffffffff1690632e1a7d4d90602401600060405180830381600087803b1580156108a257600080fd5b505af11580156108b6573d6000803e3d6000fd5b505050506108c48282612279565b505050565b60008060e0830135804211156109215760405162461bcd60e51b815260206004820152601360248201527f5472616e73616374696f6e20746f6f206f6c64000000000000000000000000006044820152606401610469565b60015460ff16156109745760405162461bcd60e51b815260206004820152600660248201527f4c4f434b454400000000000000000000000000000000000000000000000000006044820152606401610469565b600180547fffffffffffffffffffffffffffffffffffffffffffffffffffffffffffffff00168117905560006109e67f00000000000000000000000000000000000000000000000000000000000000006109d16020880188613b14565b6109e16040890160208a01613b14565b612343565b604080517f23b872dd00000000000000000000000000000000000000000000000000000000815233600482015273ffffffffffffffffffffffffffffffffffffffff831660248201819052918801356044820152919250906323b872dd90606401602060405180830381600087803b158015610a6157600080fd5b505af1158015610a75573d6000803e3d6000fd5b505050506040513d601f19601f82011682018060405250810190610a999190613c35565b506040517f89afcb44000000000000000000000000000000000000000000000000000000008152306004820152600090819073ffffffffffffffffffffffffffffffffffffffff8416906389afcb44906024016040805180830381600087803b158015610b0557600080fd5b505af1158015610b19573d6000803e3d6000fd5b505050506040513d601f19601f82011682018060405250810190610b3d9190613f6a565b90925090506000610b69610b5460208a018a613b14565b610b6460408b0160208c01613b14565b6124bd565b50905073ffffffffffffffffffffffffffffffffffffffff8116610b9060208a018a613b14565b73ffffffffffffffffffffffffffffffffffffffff1614610bb2578183610bb5565b82825b90975095506060880135871015610c345760405162461bcd60e51b815260206004820152602760248201527f506f636b657453776170526f757465723a20494e53554646494349454e545f4160448201527f5f414d4f554e54000000000000000000000000000000000000000000000000006064820152608401610469565b8760800135861015610cae5760405162461bcd60e51b815260206004820152602760248201527f506f636b657453776170526f757465723a20494e53554646494349454e545f4260448201527f5f414d4f554e54000000000000000000000000000000000000000000000000006064820152608401610469565b610ce4610cc160c08a0160a08b01613b14565b610cce60208b018b613b14565b89610cdf60e08d0160c08e01613b14565b61260e565b610d18610cf760c08a0160a08b01613b14565b610d0760408b0160208c01613b14565b88610cdf60e08d0160c08e01613b14565b5050600180547fffffffffffffffffffffffffffffffffffffffffffffffffffffffffffffff0016905550929491935090915050565b600080610e06836060013584608001358560a001358660c001356040518060400160405280896000016020810190610d869190613b14565b610d9660408c0160208d01613b14565b6040517fffffffffffffffffffffffffffffffffffffffff000000000000000000000000606093841b811660208301529190921b16603482015260480160405160208183030381529060405281526020013373ffffffffffffffffffffffffffffffffffffffff16815250612947565b9094909350915050565b6000610e1e82840184613ce4565b9050600080610e308360000151612b0d565b91509150610e5f7f00000000000000000000000000000000000000000000000000000000000000008383612b2e565b506000806000808a11610ea2578473ffffffffffffffffffffffffffffffffffffffff168473ffffffffffffffffffffffffffffffffffffffff1610898b610ed4565b8373ffffffffffffffffffffffffffffffffffffffff168573ffffffffffffffffffffffffffffffffffffffff16108a8a5b92509250925060007f000000000000000000000000000000000000000000000000000000000000000073ffffffffffffffffffffffffffffffffffffffff166346870d2b6040518163ffffffff1660e01b815260040160206040518083038186803b158015610f4257600080fd5b505afa158015610f56573d6000803e3d6000fd5b505050506040513d601f19601f82011682018060405250810190610f7a9190613e6e565b90507f000000000000000000000000000000000000000000000000000000000000000073ffffffffffffffffffffffffffffffffffffffff168673ffffffffffffffffffffffffffffffffffffffff161415801561102457507f000000000000000000000000000000000000000000000000000000000000000073ffffffffffffffffffffffffffffffffffffffff168573ffffffffffffffffffffffffffffffffffffffff1614155b156116b7576040517fe6a4390500000000000000000000000000000000000000000000000000000000815273ffffffffffffffffffffffffffffffffffffffff80881660048301527f00000000000000000000000000000000000000000000000000000000000000008116602483015287916000917f0000000000000000000000000000000000000000000000000000000000000000169063e6a439059060440160206040518083038186803b1580156110dd57600080fd5b505afa1580156110f1573d6000803e3d6000fd5b505050506040513d601f19601f820116820180604052508101906111159190613b30565b90508373ffffffffffffffffffffffffffffffffffffffff8216611285576040517fe6a4390500000000000000000000000000000000000000000000000000000000815273ffffffffffffffffffffffffffffffffffffffff89811660048301527f0000000000000000000000000000000000000000000000000000000000000000811660248301527f0000000000000000000000000000000000000000000000000000000000000000169063e6a439059060440160206040518083038186803b1580156111e257600080fd5b505afa1580156111f6573d6000803e3d6000fd5b505050506040513d601f19601f8201168201806040525081019061121a9190613b30565b889350915085905073ffffffffffffffffffffffffffffffffffffffff82166112855760405162461bcd60e51b815260206004820152600e60248201527f4e6f20504f434b455420706169720000000000000000000000000000000000006044820152606401610469565b6000633b9aca006112968684614365565b6112a09190614345565b90508873ffffffffffffffffffffffffffffffffffffffff168473ffffffffffffffffffffffffffffffffffffffff1614156112e3576112e081886143a2565b96505b6112ef84338584612b5f565b600061131b857f00000000000000000000000000000000000000000000000000000000000000006124bd565b5060408051600280825260608201835292935060009290916020830190803683370190505090507f00000000000000000000000000000000000000000000000000000000000000008160008151811061138457634e487b7160e01b600052603260045260246000fd5b602002602001019073ffffffffffffffffffffffffffffffffffffffff16908173ffffffffffffffffffffffffffffffffffffffff168152505085816001815181106113e057634e487b7160e01b600052603260045260246000fd5b602002602001019073ffffffffffffffffffffffffffffffffffffffff16908173ffffffffffffffffffffffffffffffffffffffff168152505060006114477f00000000000000000000000000000000000000000000000000000000000000008584612d55565b60018151811061146757634e487b7160e01b600052603260045260246000fd5b602002602001015190506000808473ffffffffffffffffffffffffffffffffffffffff167f000000000000000000000000000000000000000000000000000000000000000073ffffffffffffffffffffffffffffffffffffffff16146114cf578260006114d3565b6000835b6040517f022c0d9f00000000000000000000000000000000000000000000000000000000815260048101839052602481018290523060448201526080606482015260006084820152919350915073ffffffffffffffffffffffffffffffffffffffff89169063022c0d9f9060a401600060405180830381600087803b15801561155b57600080fd5b505af115801561156f573d6000803e3d6000fd5b50506040517f70a082310000000000000000000000000000000000000000000000000000000081523060048201527f000000000000000000000000000000000000000000000000000000000000000073ffffffffffffffffffffffffffffffffffffffff16925063beceed39915082906370a082319060240160206040518083038186803b15801561160057600080fd5b505afa158015611614573d6000803e3d6000fd5b505050506040513d601f19601f820116820180604052508101906116389190613e6e565b6040518263ffffffff1660e01b815260040161165691815260200190565b602060405180830381600087803b15801561167057600080fd5b505af1158015611684573d6000803e3d6000fd5b505050506040513d601f19601f820116820180604052508101906116a89190613c35565b505050505050505050506117e3565b6040517f70a08231000000000000000000000000000000000000000000000000000000008152336004820152600090633b9aca0090839073ffffffffffffffffffffffffffffffffffffffff7f000000000000000000000000000000000000000000000000000000000000000016906370a082319060240160206040518083038186803b15801561174757600080fd5b505afa15801561175b573d6000803e3d6000fd5b505050506040513d601f19601f8201168201806040525081019061177f9190613e6e565b6117899190614365565b6117939190614345565b90506117e17f0000000000000000000000000000000000000000000000000000000000000000337f000000000000000000000000000000000000000000000000000000000000000084612f20565b505b831580156117f7575086516117f790611eda565b156118165786516118079061207a565b875261181483338961307f565b505b5050505050505050505050565b60006104067f00000000000000000000000000000000000000000000000000000000000000008585856131d2565b600080808060e0850135804211156118ab5760405162461bcd60e51b815260206004820152601360248201527f5472616e73616374696f6e20746f6f206f6c64000000000000000000000000006044820152606401610469565b60006118ee7f00000000000000000000000000000000000000000000000000000000000000006118de60208a018a613b14565b6109e160408b0160208c01613b14565b90506118f987610d4e565b909650945061191661190e6020890189613b14565b338389612b5f565b6119316119296040890160208a01613b14565b338388612b5f565b73ffffffffffffffffffffffffffffffffffffffff8116636a62784261195d60608a0160408b01613b14565b6040517fffffffff0000000000000000000000000000000000000000000000000000000060e084901b16815273ffffffffffffffffffffffffffffffffffffffff9091166004820152602401602060405180830381600087803b1580156119c357600080fd5b505af11580156119d7573d6000803e3d6000fd5b505050506040513d601f19601f820116820180604052508101906119fb9190613e6e565b92506000935050509193509193565b60006104097f00000000000000000000000000000000000000000000000000000000000000008484612343565b60608167ffffffffffffffff811115611a6057634e487b7160e01b600052604160045260246000fd5b604051908082528060200260200182016040528015611a9357816020015b6060815260200190600190039081611a7e5790505b50905060005b82811015611bb25760008030868685818110611ac557634e487b7160e01b600052603260045260246000fd5b9050602002810190611ad7919061420c565b604051611ae592919061407d565b600060405180830381855af49150503d8060008114611b20576040519150601f19603f3d011682016040523d82523d6000602084013e611b25565b606091505b509150915081611b7157604481511015611b3e57600080fd5b60048101905080806020019051810190611b589190613c55565b60405162461bcd60e51b8152600401610469919061416c565b80848481518110611b9257634e487b7160e01b600052603260045260246000fd5b602002602001018190525050508080611baa9061441a565b915050611a99565b5092915050565b60006104068484846133a3565b60606104097f00000000000000000000000000000000000000000000000000000000000000008484612d55565b6040517f70a0823100000000000000000000000000000000000000000000000000000000815230600482015260009073ffffffffffffffffffffffffffffffffffffffff8516906370a082319060240160206040518083038186803b158015611c5b57600080fd5b505afa158015611c6f573d6000803e3d6000fd5b505050506040513d601f19601f82011682018060405250810190611c939190613e6e565b90508215611ceb5782811015611ceb5760405162461bcd60e51b815260206004820152601260248201527f496e73756666696369656e7420746f6b656e00000000000000000000000000006044820152606401610469565b8015611cfc57611cfc8483836134b1565b50505050565b6000808411611d795760405162461bcd60e51b815260206004820152602c60248201527f506f636b6574537761704c6962726172793a20494e53554646494349454e545f60448201527f494e5055545f414d4f554e5400000000000000000000000000000000000000006064820152608401610469565b600083118015611d895750600082115b611dfb5760405162461bcd60e51b815260206004820152602960248201527f506f636b6574537761704c6962726172793a20494e53554646494349454e545f60448201527f4c495155494449545900000000000000000000000000000000000000000000006064820152608401610469565b60008573ffffffffffffffffffffffffffffffffffffffff1663ddca3f436040518163ffffffff1660e01b815260040160206040518083038186803b158015611e4357600080fd5b505afa158015611e57573d6000803e3d6000fd5b505050506040513d601f19601f82011682018060405250810190611e7b9190613e6e565b90506000611e97611e9083633b9aca006143a2565b8790613600565b90506000611ea58286613600565b90506000611ec183611ebb89633b9aca00613600565b9061360c565b9050611ecd8183614345565b9998505050505050505050565b60006014611ee8818061432d565b611ef2919061432d565b825110159050919050565b6060611f176000611f0f60148061432d565b849190613618565b92915050565b6000806000611f2f8460000151612b0d565b604080516002808252606082018352939550919350600092906020830190803683370190505090508281600081518110611f7957634e487b7160e01b600052603260045260246000fd5b602002602001019073ffffffffffffffffffffffffffffffffffffffff16908173ffffffffffffffffffffffffffffffffffffffff16815250508181600181518110611fd557634e487b7160e01b600052603260045260246000fd5b602002602001019073ffffffffffffffffffffffffffffffffffffffff16908173ffffffffffffffffffffffffffffffffffffffff168152505061203a7f00000000000000000000000000000000000000000000000000000000000000008883612d55565b60018151811061205a57634e487b7160e01b600052603260045260246000fd5b60200260200101519350612070868886886137b7565b5050509392505050565b6060611f176014808451611f0f91906143a2565b60606002825110156120e25760405162461bcd60e51b815260206004820152601f60248201527f506f636b6574537761704c6962726172793a20494e56414c49445f50415448006044820152606401610469565b815167ffffffffffffffff81111561210a57634e487b7160e01b600052604160045260246000fd5b604051908082528060200260200182016040528015612133578160200160208202803683370190505b50905082816001835161214691906143a2565b8151811061216457634e487b7160e01b600052603260045260246000fd5b60200260200101818152505060006001835161218091906143a2565b90505b8015612271576000806121ef878661219c6001876143a2565b815181106121ba57634e487b7160e01b600052603260045260246000fd5b60200260200101518786815181106121e257634e487b7160e01b600052603260045260246000fd5b6020026020010151613898565b915091506122268785858151811061221757634e487b7160e01b600052603260045260246000fd5b602002602001015184846131d2565b846122326001866143a2565b8151811061225057634e487b7160e01b600052603260045260246000fd5b60200260200101818152505050508080612269906143e5565b915050612183565b509392505050565b6040805160008082526020820190925273ffffffffffffffffffffffffffffffffffffffff84169083906040516122b0919061408d565b60006040518083038185875af1925050503d80600081146122ed576040519150601f19603f3d011682016040523d82523d6000602084013e6122f2565b606091505b50509050806108c45760405162461bcd60e51b815260206004820152600360248201527f53544500000000000000000000000000000000000000000000000000000000006044820152606401610469565b60008173ffffffffffffffffffffffffffffffffffffffff168373ffffffffffffffffffffffffffffffffffffffff16111561237d579091905b6040517fffffffffffffffffffffffffffffffffffffffff000000000000000000000000606085811b8216602084015284901b1660348201528490604801604080517fffffffffffffffffffffffffffffffffffffffffffffffffffffffffffffffe081840301815290829052805160209182012061247f939290917f6f9413fb6ab391fdd0608a5ec0dfb5ca95f899db515c4f3a6cacd1562e09392e91017fff00000000000000000000000000000000000000000000000000000000000000815260609390931b7fffffffffffffffffffffffffffffffffffffffff0000000000000000000000001660018401526015830191909152603582015260550190565b604080517fffffffffffffffffffffffffffffffffffffffffffffffffffffffffffffffe08184030181529190528051602090910120949350505050565b6000808273ffffffffffffffffffffffffffffffffffffffff168473ffffffffffffffffffffffffffffffffffffffff1614156125625760405162461bcd60e51b815260206004820152602660248201527f506f636b6574537761704c6962726172793a204944454e544943414c5f41444460448201527f52455353455300000000000000000000000000000000000000000000000000006064820152608401610469565b8273ffffffffffffffffffffffffffffffffffffffff168473ffffffffffffffffffffffffffffffffffffffff161061259c57828461259f565b83835b909250905073ffffffffffffffffffffffffffffffffffffffff82166126075760405162461bcd60e51b815260206004820152601f60248201527f506f636b6574537761704c6962726172793a205a45524f5f41444452455353006044820152606401610469565b9250929050565b6040517fe6a4390500000000000000000000000000000000000000000000000000000000815273ffffffffffffffffffffffffffffffffffffffff858116600483015284811660248301526000917f00000000000000000000000000000000000000000000000000000000000000009091169063e6a439059060440160206040518083038186803b1580156126a257600080fd5b505afa1580156126b6573d6000803e3d6000fd5b505050506040513d601f19601f820116820180604052508101906126da9190613b30565b905073ffffffffffffffffffffffffffffffffffffffff81166127095761270384308486612b5f565b50611cfc565b604080516002808252606082018352600092602083019080368337019050509050848160008151811061274c57634e487b7160e01b600052603260045260246000fd5b602002602001019073ffffffffffffffffffffffffffffffffffffffff16908173ffffffffffffffffffffffffffffffffffffffff168152505085816001815181106127a857634e487b7160e01b600052603260045260246000fd5b602002602001019073ffffffffffffffffffffffffffffffffffffffff16908173ffffffffffffffffffffffffffffffffffffffff1681525050600061280f7f00000000000000000000000000000000000000000000000000000000000000008684612d55565b60018151811061282f57634e487b7160e01b600052603260045260246000fd5b6020026020010151905061284586308588612b5f565b600061285188886124bd565b5090506000808273ffffffffffffffffffffffffffffffffffffffff168973ffffffffffffffffffffffffffffffffffffffff161461289257836000612896565b6000845b6040517f022c0d9f000000000000000000000000000000000000000000000000000000008152600481018390526024810182905273ffffffffffffffffffffffffffffffffffffffff8a8116604483015260806064830152600060848301529294509092509087169063022c0d9f9060a4015b600060405180830381600087803b15801561292357600080fd5b505af1158015612937573d6000803e3d6000fd5b5050505050505050505050505050565b60008060007f0000000000000000000000000000000000000000000000000000000000000000905060008061297f8660000151612b0d565b91509150600080612991858585613898565b915091508160001480156129a3575080155b156129b8578b8b965096505050505050612b03565b60006129c58d84846133a3565b90508b8111612a545789811015612a445760405162461bcd60e51b815260206004820152602760248201527f506f636b657453776170526f757465723a20494e53554646494349454e545f4260448201527f5f414d4f554e54000000000000000000000000000000000000000000000000006064820152608401610469565b8c97509550612b03945050505050565b6000612a618d84866133a3565b90508d811115612a8157634e487b7160e01b600052600160045260246000fd5b8b811015612af75760405162461bcd60e51b815260206004820152602760248201527f506f636b657453776170526f757465723a20494e53554646494349454e545f4160448201527f5f414d4f554e54000000000000000000000000000000000000000000000000006064820152608401610469565b97508b96505050505050505b9550959350505050565b600080612b1a83826139b2565b9150612b278360146139b2565b9050915091565b6000612b3b848484612343565b90503373ffffffffffffffffffffffffffffffffffffffff82161461040957600080fd5b60007f000000000000000000000000000000000000000000000000000000000000000073ffffffffffffffffffffffffffffffffffffffff168573ffffffffffffffffffffffffffffffffffffffff16148015612bbf5750814791508110155b15612d14577f000000000000000000000000000000000000000000000000000000000000000073ffffffffffffffffffffffffffffffffffffffff1663d0e30db0826040518263ffffffff1660e01b81526004016000604051808303818588803b158015612c2c57600080fd5b505af1158015612c40573d6000803e3d6000fd5b50506040517fa9059cbb00000000000000000000000000000000000000000000000000000000815273ffffffffffffffffffffffffffffffffffffffff8781166004830152602482018790527f000000000000000000000000000000000000000000000000000000000000000016935063a9059cbb92506044019050602060405180830381600087803b158015612cd657600080fd5b505af1158015612cea573d6000803e3d6000fd5b505050506040513d601f19601f82011682018060405250810190612d0e9190613c35565b50612d4e565b73ffffffffffffffffffffffffffffffffffffffff8416301415612d4257612d3d8584846134b1565b612d4e565b612d4e85858585612f20565b5050505050565b6060600282511015612da95760405162461bcd60e51b815260206004820152601f60248201527f506f636b6574537761704c6962726172793a20494e56414c49445f50415448006044820152606401610469565b815167ffffffffffffffff811115612dd157634e487b7160e01b600052604160045260246000fd5b604051908082528060200260200182016040528015612dfa578160200160208202803683370190505b5090508281600081518110612e1f57634e487b7160e01b600052603260045260246000fd5b60200260200101818152505060005b60018351612e3c91906143a2565b81101561227157600080612e9e87868581518110612e6a57634e487b7160e01b600052603260045260246000fd5b602002602001015187866001612e80919061432d565b815181106121e257634e487b7160e01b600052603260045260246000fd5b91509150612ed587858581518110612ec657634e487b7160e01b600052603260045260246000fd5b60200260200101518484611d02565b84612ee185600161432d565b81518110612eff57634e487b7160e01b600052603260045260246000fd5b60200260200101818152505050508080612f189061441a565b915050612e2e565b6040805173ffffffffffffffffffffffffffffffffffffffff85811660248301528481166044830152606480830185905283518084039091018152608490920183526020820180517bffffffffffffffffffffffffffffffffffffffffffffffffffffffff167f23b872dd000000000000000000000000000000000000000000000000000000001790529151600092839290881691612fbf919061408d565b6000604051808303816000865af19150503d8060008114612ffc576040519150601f19603f3d011682016040523d82523d6000602084013e613001565b606091505b509150915081801561302b57508051158061302b57508080602001905181019061302b9190613c35565b6130775760405162461bcd60e51b815260206004820152600360248201527f53544600000000000000000000000000000000000000000000000000000000006044820152606401610469565b505050505050565b60008060006130918460000151612b0d565b6040805160028082526060820183529395509193506000929060208301908036833701905050905081816000815181106130db57634e487b7160e01b600052603260045260246000fd5b602002602001019073ffffffffffffffffffffffffffffffffffffffff16908173ffffffffffffffffffffffffffffffffffffffff1681525050828160018151811061313757634e487b7160e01b600052603260045260246000fd5b602002602001019073ffffffffffffffffffffffffffffffffffffffff16908173ffffffffffffffffffffffffffffffffffffffff168152505061319c7f0000000000000000000000000000000000000000000000000000000000000000888361208e565b6000815181106131bc57634e487b7160e01b600052603260045260246000fd5b60200260200101519350612070868589886137b7565b60008084116132495760405162461bcd60e51b815260206004820152602d60248201527f506f636b6574537761704c6962726172793a20494e53554646494349454e545f60448201527f4f55545055545f414d4f554e54000000000000000000000000000000000000006064820152608401610469565b6000831180156132595750600082115b6132cb5760405162461bcd60e51b815260206004820152602960248201527f506f636b6574537761704c6962726172793a20494e53554646494349454e545f60448201527f4c495155494449545900000000000000000000000000000000000000000000006064820152608401610469565b60008573ffffffffffffffffffffffffffffffffffffffff1663ddca3f436040518163ffffffff1660e01b815260040160206040518083038186803b15801561331357600080fd5b505afa158015613327573d6000803e3d6000fd5b505050506040513d601f19601f8201168201806040525081019061334b9190613e6e565b90506000613367633b9aca006133618789613600565b90613600565b9050600061338661337c84633b9aca006143a2565b613361878a613a82565b90506133976001611ebb8385614345565b98975050505050505050565b600080841161341a5760405162461bcd60e51b815260206004820152602660248201527f506f636b6574537761704c6962726172793a20494e53554646494349454e545f60448201527f414d4f554e5400000000000000000000000000000000000000000000000000006064820152608401610469565b60008311801561342a5750600082115b61349c5760405162461bcd60e51b815260206004820152602960248201527f506f636b6574537761704c6962726172793a20494e53554646494349454e545f60448201527f4c495155494449545900000000000000000000000000000000000000000000006064820152608401610469565b826134a78584613600565b6104069190614345565b6040805173ffffffffffffffffffffffffffffffffffffffff8481166024830152604480830185905283518084039091018152606490920183526020820180517bffffffffffffffffffffffffffffffffffffffffffffffffffffffff167fa9059cbb000000000000000000000000000000000000000000000000000000001790529151600092839290871691613548919061408d565b6000604051808303816000865af19150503d8060008114613585576040519150601f19603f3d011682016040523d82523d6000602084013e61358a565b606091505b50915091508180156135b45750805115806135b45750808060200190518101906135b49190613c35565b612d4e5760405162461bcd60e51b815260206004820152600260248201527f53540000000000000000000000000000000000000000000000000000000000006044820152606401610469565b60006104098284614365565b6000610409828461432d565b60608161362681601f61432d565b10156136745760405162461bcd60e51b815260206004820152600e60248201527f736c6963655f6f766572666c6f770000000000000000000000000000000000006044820152606401610469565b8261367f838261432d565b10156136cd5760405162461bcd60e51b815260206004820152600e60248201527f736c6963655f6f766572666c6f770000000000000000000000000000000000006044820152606401610469565b6136d7828461432d565b845110156137275760405162461bcd60e51b815260206004820152601160248201527f736c6963655f6f75744f66426f756e64730000000000000000000000000000006044820152606401610469565b60608215801561374657604051915060008252602082016040526137ae565b6040519150601f8416801560200281840101858101878315602002848b0101015b8183101561377f578051835260209283019201613767565b5050858452601f017fffffffffffffffffffffffffffffffffffffffffffffffffffffffffffffffe016604052505b50949350505050565b6000806137c78360000151612b0d565b9150915060006137d78383611a0a565b90506137e583338389612b5f565b60006137f184846124bd565b5090506000808273ffffffffffffffffffffffffffffffffffffffff168673ffffffffffffffffffffffffffffffffffffffff161461383257876000613836565b6000885b915091508373ffffffffffffffffffffffffffffffffffffffff1663022c0d9f83838d8b60405160200161386a919061417f565b6040516020818303038152906040526040518563ffffffff1660e01b815260040161290994939291906141c7565b60008060006138a785856124bd565b50905060006138b7878787612343565b905060008190506000808273ffffffffffffffffffffffffffffffffffffffff16630902f1ac6040518163ffffffff1660e01b815260040160606040518083038186803b15801561390757600080fd5b505afa15801561391b573d6000803e3d6000fd5b505050506040513d601f19601f8201168201806040525081019061393f9190613e2b565b506dffffffffffffffffffffffffffff1691506dffffffffffffffffffffffffffff1691508473ffffffffffffffffffffffffffffffffffffffff168973ffffffffffffffffffffffffffffffffffffffff161461399e5780826139a1565b81815b909b909a5098505050505050505050565b6000816139c081601461432d565b1015613a0e5760405162461bcd60e51b815260206004820152601260248201527f746f416464726573735f6f766572666c6f7700000000000000000000000000006044820152606401610469565b613a1982601461432d565b83511015613a695760405162461bcd60e51b815260206004820152601560248201527f746f416464726573735f6f75744f66426f756e647300000000000000000000006044820152606401610469565b5001602001516c01000000000000000000000000900490565b600061040982846143a2565b600082601f830112613a9e578081fd5b8135613ab1613aac826142e7565b614298565b818152846020838601011115613ac5578283fd5b816020850160208301379081016020019190915292915050565b600061010082840312156106f6578081fd5b80516dffffffffffffffffffffffffffff81168114613b0f57600080fd5b919050565b600060208284031215613b25578081fd5b81356104098161447f565b600060208284031215613b41578081fd5b81516104098161447f565b60008060408385031215613b5e578081fd5b8235613b698161447f565b91506020830135613b798161447f565b809150509250929050565b600080600060608486031215613b98578081fd5b8335613ba38161447f565b9250602084013591506040840135613bba8161447f565b809150509250925092565b60008060208385031215613bd7578182fd5b823567ffffffffffffffff80821115613bee578384fd5b818501915085601f830112613c01578384fd5b813581811115613c0f578485fd5b8660208260051b8501011115613c23578485fd5b60209290920196919550909350505050565b600060208284031215613c46578081fd5b81518015158114610409578182fd5b600060208284031215613c66578081fd5b815167ffffffffffffffff811115613c7c578182fd5b8201601f81018413613c8c578182fd5b8051613c9a613aac826142e7565b818152856020838501011115613cae578384fd5b613cbf8260208301602086016143b9565b95945050505050565b60006101008284031215613cda578081fd5b6104098383613adf565b600060208284031215613cf5578081fd5b813567ffffffffffffffff80821115613d0c578283fd5b9083019060408286031215613d1f578283fd5b604051604081018181108382111715613d3a57613d3a614469565b604052823582811115613d4b578485fd5b613d5787828601613a8e565b82525060208301359250613d6a8361447f565b6020810192909252509392505050565b600060208284031215613d8b578081fd5b813567ffffffffffffffff80821115613da2578283fd5b9083019060a08286031215613db5578283fd5b613dbd61426f565b823582811115613dcb578485fd5b613dd787828601613a8e565b82525060208301359150613dea8261447f565b81602082015260408301356040820152606083013560608201526080830135608082015280935050505092915050565b600060c082840312156106f6578081fd5b600080600060608486031215613e3f578081fd5b613e4884613af1565b9250613e5660208501613af1565b9150604084015163ffffffff81168114613bba578182fd5b600060208284031215613e7f578081fd5b5051919050565b60008060408385031215613e98578182fd5b823591506020830135613b798161447f565b60008060408385031215613ebc578182fd5b8235915060208084013567ffffffffffffffff80821115613edb578384fd5b818601915086601f830112613eee578384fd5b813581811115613f0057613f00614469565b8060051b9150613f11848301614298565b8181528481019084860184860187018b1015613f2b578788fd5b8795505b83861015613f595780359450613f448561447f565b84835260019590950194918601918601613f2f565b508096505050505050509250929050565b60008060408385031215613f7c578182fd5b505080516020909101519092909150565b60008060008060608587031215613fa2578182fd5b8435935060208501359250604085013567ffffffffffffffff80821115613fc7578384fd5b818701915087601f830112613fda578384fd5b813581811115613fe8578485fd5b886020828501011115613ff9578485fd5b95989497505060200194505050565b60008060006060848603121561401c578081fd5b505081359360208301359350604090920135919050565b6000815180845261404b8160208601602086016143b9565b601f017fffffffffffffffffffffffffffffffffffffffffffffffffffffffffffffffe0169290920160200192915050565b8183823760009101908152919050565b6000825161409f8184602087016143b9565b9190910192915050565b6000602080830181845280855180835260408601915060408160051b8701019250838701855b8281101561411b577fffffffffffffffffffffffffffffffffffffffffffffffffffffffffffffffc0888603018452614109858351614033565b945092850192908501906001016140cf565b5092979650505050505050565b6020808252825182820181905260009190848201906040850190845b8181101561416057835183529284019291840191600101614144565b50909695505050505050565b6020815260006104096020830184614033565b60208152600082516040602084015261419b6060840182614033565b905073ffffffffffffffffffffffffffffffffffffffff60208501511660408401528091505092915050565b84815283602082015273ffffffffffffffffffffffffffffffffffffffff831660408201526080606082015260006142026080830184614033565b9695505050505050565b60008083357fffffffffffffffffffffffffffffffffffffffffffffffffffffffffffffffe1843603018112614240578283fd5b83018035915067ffffffffffffffff82111561425a578283fd5b60200191503681900382131561260757600080fd5b60405160a0810167ffffffffffffffff8111828210171561429257614292614469565b60405290565b604051601f82017fffffffffffffffffffffffffffffffffffffffffffffffffffffffffffffffe016810167ffffffffffffffff811182821017156142df576142df614469565b604052919050565b600067ffffffffffffffff82111561430157614301614469565b50601f017fffffffffffffffffffffffffffffffffffffffffffffffffffffffffffffffe01660200190565b6000821982111561434057614340614453565b500190565b60008261436057634e487b7160e01b81526012600452602481fd5b500490565b6000817fffffffffffffffffffffffffffffffffffffffffffffffffffffffffffffffff048311821515161561439d5761439d614453565b500290565b6000828210156143b4576143b4614453565b500390565b60005b838110156143d45781810151838201526020016143bc565b83811115611cfc5750506000910152565b6000816143f4576143f4614453565b507fffffffffffffffffffffffffffffffffffffffffffffffffffffffffffffffff0190565b60007fffffffffffffffffffffffffffffffffffffffffffffffffffffffffffffffff82141561444c5761444c614453565b5060010190565b634e487b7160e01b600052601160045260246000fd5b634e487b7160e01b600052604160045260246000fd5b73ffffffffffffffffffffffffffffffffffffffff811681146144a157600080fd5b5056fea264697066735822122093ffdaf8448c564245edfc87b6204a608e9c75b18c37c5e708d1e2270368fe5b64736f6c63430008040033",
  "immutableReferences": {
    "2454": [
      {
        "length": 32,
        "start": 847
      },
      {
        "length": 32,
        "start": 991
      },
      {
        "length": 32,
        "start": 1395
      },
      {
        "length": 32,
        "start": 2469
      },
      {
        "length": 32,
        "start": 3641
      },
      {
        "length": 32,
        "start": 3806
      },
      {
        "length": 32,
        "start": 4251
      },
      {
        "length": 32,
        "start": 4512
      },
      {
        "length": 32,
        "start": 5153
      },
      {
        "length": 32,
        "start": 6186
      },
      {
        "length": 32,
        "start": 6322
      },
      {
        "length": 32,
        "start": 6673
      },
      {
        "length": 32,
        "start": 7117
      },
      {
        "length": 32,
        "start": 8212
      },
      {
        "length": 32,
        "start": 9822
      },
      {
        "length": 32,
        "start": 10217
      },
      {
        "length": 32,
        "start": 10574
      },
      {
        "length": 32,
        "start": 12662
      }
    ],
    "2458": [
      {
        "length": 32,
        "start": 475
      },
      {
        "length": 32,
        "start": 1837
      },
      {
        "length": 32,
        "start": 2121
      },
      {
        "length": 32,
        "start": 11107
      },
      {
        "length": 32,
        "start": 11206
      },
      {
        "length": 32,
        "start": 11406
      }
    ],
    "2462": [
      {
        "length": 32,
        "start": 899
      },
      {
        "length": 32,
        "start": 3966
      },
      {
        "length": 32,
        "start": 4053
      },
      {
        "length": 32,
        "start": 4206
      },
      {
        "length": 32,
        "start": 4472
      },
      {
        "length": 32,
        "start": 4855
      },
      {
        "length": 32,
        "start": 4932
      },
      {
        "length": 32,
        "start": 5261
      },
      {
        "length": 32,
        "start": 5535
      },
      {
        "length": 32,
        "start": 5893
      },
      {
        "length": 32,
        "start": 6042
      },
      {
        "length": 32,
        "start": 6076
      }
    ]
  },
  "source": "// SPDX-License-Identifier: Unlicensed\npragma solidity =0.8.4;\npragma abicoder v2;\n\nimport \"./router/SwapRouter.sol\";\nimport \"./router/LiquidityRouter.sol\";\nimport \"./abstract/PeripheryImmutableState.sol\";\n\ncontract PocketSwapRouter is\nPeripheryImmutableState,\nPeripheryValidation,\nSwapRouter,\nLiquidityRouter\n{\n    constructor(address _factory, address _WETH9, address _pocketToken)\n    PeripheryImmutableState(_factory, _WETH9, _pocketToken) {}\n}",
  "sourcePath": "/Users/ilyk/projects/midgardtech/xpocket-PocketSwap/PocketSwap/contracts/pocketswap/PocketSwapRouter.sol",
  "compiler": {
    "name": "solc",
    "version": "0.8.4+commit.c7e474f2.Emscripten.clang"
  },
  "schemaVersion": "3.3.3",
  "updatedAt": "2021-11-29T13:31:49.499Z",
  "devdoc": {
    "kind": "dev",
    "methods": {
      "multicall(bytes[])": {
        "details": "The `msg.value` should not be trusted for any method callable from multicall.",
        "params": {
          "data": "The encoded function data for each of the calls to make to this contract"
        },
        "returns": {
          "results": "The results from each of the calls passed in via data"
        }
      },
      "swap((address,address,address,uint256,uint256,uint256))": {
        "params": {
          "params": "The parameters necessary for the swap, encoded as `SwapParams` in calldata"
        },
        "returns": {
          "amountOut": "The amount of the received token"
        }
      },
      "swapMulti((bytes,address,uint256,uint256,uint256))": {
        "params": {
          "params": "The parameters necessary for the multi-hop swap, encoded as `SwapMultiParams` in calldata"
        },
        "returns": {
          "amountOut": "The amount of the received token"
        }
      },
      "sweepToken(address,uint256,address)": {
        "details": "The amountMinimum parameter prevents malicious contracts from stealing the token from users",
        "params": {
          "amountMinimum": "The minimum amount of token required for a transfer",
          "recipient": "The destination address of the token",
          "token": "The contract address of the token which will be transferred to `recipient`"
        }
      },
      "unwrapWETH9(uint256,address)": {
        "details": "The amountMinimum parameter prevents malicious contracts from stealing WETH9 from users.",
        "params": {
          "amountMinimum": "The minimum amount of WETH9 to unwrap",
          "recipient": "The address receiving ETH"
        }
      }
    },
    "version": 1
  },
  "userdoc": {
    "kind": "user",
    "methods": {
      "multicall(bytes[])": {
        "notice": "Call multiple functions in the current contract and return the data from all of them if they all succeed"
      },
      "swap((address,address,address,uint256,uint256,uint256))": {
        "notice": "Swaps `amountIn` of one token for as much as possible of another token"
      },
      "swapMulti((bytes,address,uint256,uint256,uint256))": {
        "notice": "Swaps `amountIn` of one token for as much as possible of another along the specified path"
      },
      "sweepToken(address,uint256,address)": {
        "notice": "Sends the full amount of a token held by this contract to the given recipient"
      },
      "unwrapWETH9(uint256,address)": {
        "notice": "Unwraps the contract's WETH9 balance and sends it to recipient as ETH."
      }
    },
    "version": 1
  }
}