{
  "contractName": "PocketSwapRouter",
  "abi": [
    {
      "inputs": [
        {
          "internalType": "address",
          "name": "_factory",
          "type": "address"
        },
        {
          "internalType": "address",
          "name": "_WETH9",
          "type": "address"
        },
        {
          "internalType": "address",
          "name": "_pocketToken",
          "type": "address"
        }
      ],
      "stateMutability": "nonpayable",
      "type": "constructor"
    },
    {
      "inputs": [],
      "name": "WETH9",
      "outputs": [
        {
          "internalType": "address",
          "name": "",
          "type": "address"
        }
      ],
      "stateMutability": "view",
      "type": "function"
    },
    {
      "inputs": [
        {
          "components": [
            {
              "internalType": "address",
              "name": "token0",
              "type": "address"
            },
            {
              "internalType": "address",
              "name": "token1",
              "type": "address"
            },
            {
              "internalType": "address",
              "name": "recipient",
              "type": "address"
            },
            {
              "internalType": "uint256",
              "name": "amount0Desired",
              "type": "uint256"
            },
            {
              "internalType": "uint256",
              "name": "amount1Desired",
              "type": "uint256"
            },
            {
              "internalType": "uint256",
              "name": "amount0Min",
              "type": "uint256"
            },
            {
              "internalType": "uint256",
              "name": "amount1Min",
              "type": "uint256"
            },
            {
              "internalType": "uint256",
              "name": "deadline",
              "type": "uint256"
            }
          ],
          "internalType": "struct IPocketSwapLiquidityRouter.AddLiquidityParams",
          "name": "params",
          "type": "tuple"
        }
      ],
      "name": "addLiquidity",
      "outputs": [
        {
          "internalType": "uint256",
          "name": "amountA",
          "type": "uint256"
        },
        {
          "internalType": "uint256",
          "name": "amountB",
          "type": "uint256"
        },
        {
          "internalType": "uint256",
          "name": "amountPocket",
          "type": "uint256"
        },
        {
          "internalType": "uint256",
          "name": "liquidity",
          "type": "uint256"
        }
      ],
      "stateMutability": "payable",
      "type": "function"
    },
    {
      "inputs": [
        {
          "components": [
            {
              "internalType": "bytes",
              "name": "path",
              "type": "bytes"
            },
            {
              "internalType": "address",
              "name": "recipient",
              "type": "address"
            },
            {
              "internalType": "uint256",
              "name": "deadline",
              "type": "uint256"
            },
            {
              "internalType": "uint256",
              "name": "amountOut",
              "type": "uint256"
            },
            {
              "internalType": "uint256",
              "name": "amountInMaximum",
              "type": "uint256"
            }
          ],
          "internalType": "struct IPocketSwapRouter.OutputParams",
          "name": "params",
          "type": "tuple"
        }
      ],
      "name": "exactOutput",
      "outputs": [
        {
          "internalType": "uint256",
          "name": "amountIn",
          "type": "uint256"
        }
      ],
      "stateMutability": "payable",
      "type": "function"
    },
    {
      "inputs": [
        {
          "components": [
            {
              "internalType": "address",
              "name": "tokenIn",
              "type": "address"
            },
            {
              "internalType": "address",
              "name": "tokenOut",
              "type": "address"
            },
            {
              "internalType": "uint24",
              "name": "fee",
              "type": "uint24"
            },
            {
              "internalType": "address",
              "name": "recipient",
              "type": "address"
            },
            {
              "internalType": "uint256",
              "name": "deadline",
              "type": "uint256"
            },
            {
              "internalType": "uint256",
              "name": "amountOut",
              "type": "uint256"
            },
            {
              "internalType": "uint256",
              "name": "amountInMaximum",
              "type": "uint256"
            },
            {
              "internalType": "uint160",
              "name": "sqrtPriceLimitX96",
              "type": "uint160"
            }
          ],
          "internalType": "struct IPocketSwapRouter.OutputSingleParams",
          "name": "params",
          "type": "tuple"
        }
      ],
      "name": "exactOutputSingle",
      "outputs": [
        {
          "internalType": "uint256",
          "name": "amountIn",
          "type": "uint256"
        }
      ],
      "stateMutability": "payable",
      "type": "function"
    },
    {
      "inputs": [],
      "name": "factory",
      "outputs": [
        {
          "internalType": "address",
          "name": "",
          "type": "address"
        }
      ],
      "stateMutability": "view",
      "type": "function"
    },
    {
      "inputs": [
        {
          "internalType": "uint256",
          "name": "amountOut",
          "type": "uint256"
        },
        {
          "internalType": "uint256",
          "name": "reserveIn",
          "type": "uint256"
        },
        {
          "internalType": "uint256",
          "name": "reserveOut",
          "type": "uint256"
        }
      ],
      "name": "getAmountIn",
      "outputs": [
        {
          "internalType": "uint256",
          "name": "amountIn",
          "type": "uint256"
        }
      ],
      "stateMutability": "view",
      "type": "function"
    },
    {
      "inputs": [
        {
          "internalType": "uint256",
          "name": "amountIn",
          "type": "uint256"
        },
        {
          "internalType": "uint256",
          "name": "reserveIn",
          "type": "uint256"
        },
        {
          "internalType": "uint256",
          "name": "reserveOut",
          "type": "uint256"
        }
      ],
      "name": "getAmountOut",
      "outputs": [
        {
          "internalType": "uint256",
          "name": "amountOut",
          "type": "uint256"
        }
      ],
      "stateMutability": "view",
      "type": "function"
    },
    {
      "inputs": [
        {
          "internalType": "uint256",
          "name": "amountOut",
          "type": "uint256"
        },
        {
          "internalType": "address[]",
          "name": "path",
          "type": "address[]"
        }
      ],
      "name": "getAmountsIn",
      "outputs": [
        {
          "internalType": "uint256[]",
          "name": "amounts",
          "type": "uint256[]"
        }
      ],
      "stateMutability": "view",
      "type": "function"
    },
    {
      "inputs": [
        {
          "internalType": "uint256",
          "name": "amountIn",
          "type": "uint256"
        },
        {
          "internalType": "address[]",
          "name": "path",
          "type": "address[]"
        }
      ],
      "name": "getAmountsOut",
      "outputs": [
        {
          "internalType": "uint256[]",
          "name": "amounts",
          "type": "uint256[]"
        }
      ],
      "stateMutability": "view",
      "type": "function"
    },
    {
      "inputs": [
        {
          "internalType": "bytes[]",
          "name": "data",
          "type": "bytes[]"
        }
      ],
      "name": "multicall",
      "outputs": [
        {
          "internalType": "bytes[]",
          "name": "results",
          "type": "bytes[]"
        }
      ],
      "stateMutability": "payable",
      "type": "function"
    },
    {
      "inputs": [
        {
          "internalType": "address",
          "name": "tokenA",
          "type": "address"
        },
        {
          "internalType": "address",
          "name": "tokenB",
          "type": "address"
        }
      ],
      "name": "pairFor",
      "outputs": [
        {
          "internalType": "contract IPocketSwapPair",
          "name": "",
          "type": "address"
        }
      ],
      "stateMutability": "view",
      "type": "function"
    },
    {
      "inputs": [],
      "name": "pocket",
      "outputs": [
        {
          "internalType": "address",
          "name": "",
          "type": "address"
        }
      ],
      "stateMutability": "view",
      "type": "function"
    },
    {
      "inputs": [
        {
          "internalType": "uint256",
          "name": "amount0Delta",
          "type": "uint256"
        },
        {
          "internalType": "uint256",
          "name": "amount1Delta",
          "type": "uint256"
        },
        {
          "internalType": "bytes",
          "name": "_data",
          "type": "bytes"
        }
      ],
      "name": "pocketSwapCallback",
      "outputs": [],
      "stateMutability": "nonpayable",
      "type": "function"
    },
    {
      "inputs": [
        {
          "internalType": "uint256",
          "name": "amountA",
          "type": "uint256"
        },
        {
          "internalType": "uint256",
          "name": "reserveA",
          "type": "uint256"
        },
        {
          "internalType": "uint256",
          "name": "reserveB",
          "type": "uint256"
        }
      ],
      "name": "quote",
      "outputs": [
        {
          "internalType": "uint256",
          "name": "amountB",
          "type": "uint256"
        }
      ],
      "stateMutability": "pure",
      "type": "function"
    },
    {
      "inputs": [
        {
          "components": [
            {
              "internalType": "address",
              "name": "tokenA",
              "type": "address"
            },
            {
              "internalType": "address",
              "name": "tokenB",
              "type": "address"
            },
            {
              "internalType": "uint256",
              "name": "liquidity",
              "type": "uint256"
            },
            {
              "internalType": "uint256",
              "name": "amountAMin",
              "type": "uint256"
            },
            {
              "internalType": "uint256",
              "name": "amountBMin",
              "type": "uint256"
            },
            {
              "internalType": "address",
              "name": "rewards",
              "type": "address"
            },
            {
              "internalType": "address",
              "name": "recipient",
              "type": "address"
            },
            {
              "internalType": "uint256",
              "name": "deadline",
              "type": "uint256"
            }
          ],
          "internalType": "struct IPocketSwapLiquidityRouter.RemoveLiquidityParams",
          "name": "params",
          "type": "tuple"
        }
      ],
      "name": "removeLiquidity",
      "outputs": [
        {
          "internalType": "uint256",
          "name": "amountA",
          "type": "uint256"
        },
        {
          "internalType": "uint256",
          "name": "amountB",
          "type": "uint256"
        }
      ],
      "stateMutability": "payable",
      "type": "function"
    },
    {
      "inputs": [
        {
          "components": [
            {
              "internalType": "address",
              "name": "tokenIn",
              "type": "address"
            },
            {
              "internalType": "address",
              "name": "tokenOut",
              "type": "address"
            },
            {
              "internalType": "address",
              "name": "recipient",
              "type": "address"
            },
            {
              "internalType": "uint256",
              "name": "deadline",
              "type": "uint256"
            },
            {
              "internalType": "uint256",
              "name": "amountIn",
              "type": "uint256"
            },
            {
              "internalType": "uint256",
              "name": "amountOutMinimum",
              "type": "uint256"
            }
          ],
          "internalType": "struct IPocketSwapRouter.SwapParams",
          "name": "params",
          "type": "tuple"
        }
      ],
      "name": "swap",
      "outputs": [
        {
          "internalType": "uint256",
          "name": "amountOut",
          "type": "uint256"
        }
      ],
      "stateMutability": "payable",
      "type": "function"
    },
    {
      "inputs": [
        {
          "components": [
            {
              "internalType": "bytes",
              "name": "path",
              "type": "bytes"
            },
            {
              "internalType": "address",
              "name": "recipient",
              "type": "address"
            },
            {
              "internalType": "uint256",
              "name": "deadline",
              "type": "uint256"
            },
            {
              "internalType": "uint256",
              "name": "amountIn",
              "type": "uint256"
            },
            {
              "internalType": "uint256",
              "name": "amountOutMinimum",
              "type": "uint256"
            }
          ],
          "internalType": "struct IPocketSwapRouter.SwapMultiParams",
          "name": "params",
          "type": "tuple"
        }
      ],
      "name": "swapMulti",
      "outputs": [
        {
          "internalType": "uint256",
          "name": "amountOut",
          "type": "uint256"
        }
      ],
      "stateMutability": "payable",
      "type": "function"
    },
    {
      "inputs": [
        {
          "internalType": "address",
          "name": "token",
          "type": "address"
        },
        {
          "internalType": "uint256",
          "name": "amountMinimum",
          "type": "uint256"
        },
        {
          "internalType": "address",
          "name": "recipient",
          "type": "address"
        }
      ],
      "name": "sweepToken",
      "outputs": [],
      "stateMutability": "payable",
      "type": "function"
    },
    {
      "inputs": [
        {
          "internalType": "uint256",
          "name": "amountMinimum",
          "type": "uint256"
        },
        {
          "internalType": "address",
          "name": "recipient",
          "type": "address"
        }
      ],
      "name": "unwrapWETH9",
      "outputs": [],
      "stateMutability": "payable",
      "type": "function"
    },
    {
      "stateMutability": "payable",
      "type": "receive"
    }
  ],
  "bytecode": "0x60e06040527fffffffffffffffffffffffffffffffffffffffffffffffffffffffffffffffff6000553480156200003557600080fd5b5060405162005f9f38038062005f9f83398181016040528101906200005b919062000126565b8282828273ffffffffffffffffffffffffffffffffffffffff1660808173ffffffffffffffffffffffffffffffffffffffff1660601b815250508173ffffffffffffffffffffffffffffffffffffffff1660a08173ffffffffffffffffffffffffffffffffffffffff1660601b815250508073ffffffffffffffffffffffffffffffffffffffff1660c08173ffffffffffffffffffffffffffffffffffffffff1660601b81525050505050505050620001ca565b6000815190506200012081620001b0565b92915050565b6000806000606084860312156200013c57600080fd5b60006200014c868287016200010f565b93505060206200015f868287016200010f565b925050604062000172868287016200010f565b9150509250925092565b6000620001898262000190565b9050919050565b600073ffffffffffffffffffffffffffffffffffffffff82169050919050565b620001bb816200017c565b8114620001c757600080fd5b50565b60805160601c60a05160601c60c05160601c615c926200030d60003960008181610f9c015281816110050152818161110c015281816111ed015281816112e10152818161130c0152818161134d01528181611390015281816114b0015281816114db0152818161151c0152818161155f0152818161198401528181612b7601528181612bcd01528181612c9701528181612d600152612f0e01526000818161011f0152818161084b0152818161094c015281816109e70152818161309d01528181613100015261318101526000818161055d015281816106e901528181610a6201528181610d3301528181610e1f01528181610f4a015281816110bd0152818161119e015281816112ad0152818161147c0152818161170e01528181611960015281816119ad01528181611e490152818161268501526128b40152615c926000f3fe6080604052600436106101185760003560e01c80638d4d72e5116100a0578063cccef9e211610064578063cccef9e214610472578063d06ca61f1461049d578063db3e2198146104da578063df2ab5bb1461050a578063f28c049814610526576101ad565b80638d4d72e51461036a57806396ed28f91461039d578063ac9650d8146103da578063ad615dec1461040a578063c45a015514610447576101ad565b806349404b7c116100e757806349404b7c1461028c5780634aa4a4fc146102a85780636385a271146102d35780637936cd901461030457806385f8c2591461032d576101ad565b8063054d50d4146101b257806313b51924146101ef5780631f00ca741461021f578063441a12de1461025c576101ad565b366101ad577f000000000000000000000000000000000000000000000000000000000000000073ffffffffffffffffffffffffffffffffffffffff163373ffffffffffffffffffffffffffffffffffffffff16146101ab576040517f08c379a00000000000000000000000000000000000000000000000000000000081526004016101a290614f3d565b60405180910390fd5b005b600080fd5b3480156101be57600080fd5b506101d960048036038101906101d491906145c7565b610556565b6040516101e691906150bf565b60405180910390f35b610209600480360381019061020491906143ad565b61058d565b60405161021691906150bf565b60405180910390f35b34801561022b57600080fd5b50610246600480360381019061024191906144cb565b6106e2565b6040516102539190614d7e565b60405180910390f35b610276600480360381019061027191906143ee565b610717565b60405161028391906150bf565b60405180910390f35b6102a660048036038101906102a1919061448f565b610847565b005b3480156102b457600080fd5b506102bd6109e5565b6040516102ca9190614cb8565b60405180910390f35b6102ed60048036038101906102e89190614342565b610a09565b6040516102fb9291906150da565b60405180910390f35b34801561031057600080fd5b5061032b6004803603810190610326919061455b565b610d07565b005b34801561033957600080fd5b50610354600480360381019061034f91906145c7565b610e18565b60405161036191906150bf565b60405180910390f35b610384600480360381019061037f91906142ad565b610e4f565b6040516103949493929190615199565b60405180910390f35b3480156103a957600080fd5b506103c460048036038101906103bf9190614173565b611707565b6040516103d19190614da0565b60405180910390f35b6103f460048036038101906103ef91906141fe565b61173c565b6040516104019190614d5c565b60405180910390f35b34801561041657600080fd5b50610431600480360381019061042c91906145c7565b611948565b60405161043e91906150bf565b60405180910390f35b34801561045357600080fd5b5061045c61195e565b6040516104699190614cb8565b60405180910390f35b34801561047e57600080fd5b50610487611982565b6040516104949190614cb8565b60405180910390f35b3480156104a957600080fd5b506104c460048036038101906104bf91906144cb565b6119a6565b6040516104d19190614d7e565b60405180910390f35b6104f460048036038101906104ef9190614318565b6119db565b60405161050191906150bf565b60405180910390f35b610524600480360381019061051f91906141af565b6119e2565b005b610540600480360381019061053b91906142d7565b611ad7565b60405161054d91906150bf565b60405180910390f35b60006105847f0000000000000000000000000000000000000000000000000000000000000000858585611ade565b90509392505050565b600081604001518061059d611c77565b11156105de576040517f08c379a00000000000000000000000000000000000000000000000000000000081526004016105d590614fdd565b60405180910390fd5b6000915060003390505b6001156106945760006105fe8560000151611c7f565b9050610655856060015182610617578660200151610619565b305b60405180604001604052806106318a60000151611ca5565b81526020018673ffffffffffffffffffffffffffffffffffffffff16815250611cd0565b8560600181815250508015610681573091506106748560000151611ec8565b856000018190525061068e565b8460600151935050610694565b506105e8565b83608001518310156106db576040517f08c379a00000000000000000000000000000000000000000000000000000000081526004016106d29061505d565b60405180910390fd5b5050919050565b606061070f7f00000000000000000000000000000000000000000000000000000000000000008484611ef3565b905092915050565b6000816060013580610727611c77565b1115610768576040517f08c379a000000000000000000000000000000000000000000000000000000000815260040161075f90614fdd565b60405180910390fd5b6107f883608001358460400160208101906107839190614121565b60405180604001604052808760000160208101906107a19190614121565b8860200160208101906107b49190614121565b6040516020016107c5929190614c14565b60405160208183030381529060405281526020013373ffffffffffffffffffffffffffffffffffffffff16815250611cd0565b91508260a00135821015610841576040517f08c379a00000000000000000000000000000000000000000000000000000000081526004016108389061505d565b60405180910390fd5b50919050565b60007f000000000000000000000000000000000000000000000000000000000000000073ffffffffffffffffffffffffffffffffffffffff166370a08231306040518263ffffffff1660e01b81526004016108a29190614cb8565b60206040518083038186803b1580156108ba57600080fd5b505afa1580156108ce573d6000803e3d6000fd5b505050506040513d601f19601f820116820180604052508101906108f29190614466565b905060008311156109415782811015610940576040517f08c379a000000000000000000000000000000000000000000000000000000000815260040161093790614ddd565b60405180910390fd5b5b60008111156109e0577f000000000000000000000000000000000000000000000000000000000000000073ffffffffffffffffffffffffffffffffffffffff16632e1a7d4d826040518263ffffffff1660e01b81526004016109a391906150bf565b600060405180830381600087803b1580156109bd57600080fd5b505af11580156109d1573d6000803e3d6000fd5b505050506109df8282612173565b5b505050565b7f000000000000000000000000000000000000000000000000000000000000000081565b6000808260e0013580610a1a611c77565b1115610a5b576040517f08c379a0000000000000000000000000000000000000000000000000000000008152600401610a5290614fdd565b60405180910390fd5b6000610aac7f0000000000000000000000000000000000000000000000000000000000000000866000016020810190610a949190614121565b876020016020810190610aa79190614121565b612299565b90508073ffffffffffffffffffffffffffffffffffffffff166323b872dd338388604001356040518463ffffffff1660e01b8152600401610aef93929190614cfc565b602060405180830381600087803b158015610b0957600080fd5b505af1158015610b1d573d6000803e3d6000fd5b505050506040513d601f19601f82011682018060405250810190610b419190614243565b506000808273ffffffffffffffffffffffffffffffffffffffff166389afcb448860c0016020810190610b749190614121565b6040518263ffffffff1660e01b8152600401610b909190614cb8565b6040805180830381600087803b158015610ba957600080fd5b505af1158015610bbd573d6000803e3d6000fd5b505050506040513d601f19601f82011682018060405250810190610be1919061451f565b915091506000610c15886000016020810190610bfd9190614121565b896020016020810190610c109190614121565b61235c565b5090508073ffffffffffffffffffffffffffffffffffffffff16886000016020810190610c429190614121565b73ffffffffffffffffffffffffffffffffffffffff1614610c64578183610c67565b82825b80975081985050508760600135871015610cb6576040517f08c379a0000000000000000000000000000000000000000000000000000000008152600401610cad90614ebd565b60405180910390fd5b8760800135861015610cfd576040517f08c379a0000000000000000000000000000000000000000000000000000000008152600401610cf490614f5d565b60405180910390fd5b5050505050915091565b60008282810190610d18919061436c565b9050600080610d2a836000015161248a565b91509150610d597f000000000000000000000000000000000000000000000000000000000000000083836124be565b5060008060008911610d9a578373ffffffffffffffffffffffffffffffffffffffff168373ffffffffffffffffffffffffffffffffffffffff161088610dcb565b8273ffffffffffffffffffffffffffffffffffffffff168473ffffffffffffffffffffffffffffffffffffffff1610895b9150915081158015610de65750610de58560000151611c7f565b5b15610e0d57610df88560000151611ec8565b8560000181905250610e0b81338761250c565b505b505050505050505050565b6000610e467f0000000000000000000000000000000000000000000000000000000000000000858585612704565b90509392505050565b6000806000808460e0013580610e63611c77565b1115610ea4576040517f08c379a0000000000000000000000000000000000000000000000000000000008152600401610e9b90614fdd565b60405180910390fd5b600080610f33886060013589608001358a60a001358b60c0013560405180604001604052808e6000016020810190610edc9190614121565b8f6020016020810190610eef9190614121565b604051602001610f00929190614c14565b60405160208183030381529060405281526020013373ffffffffffffffffffffffffffffffffffffffff168152506128aa565b809450819550829950839a50505050506000610f947f00000000000000000000000000000000000000000000000000000000000000008a6000016020810190610f7c9190614121565b8b6020016020810190610f8f9190614121565b612299565b9050600095507f000000000000000000000000000000000000000000000000000000000000000073ffffffffffffffffffffffffffffffffffffffff16896000016020810190610fe49190614121565b73ffffffffffffffffffffffffffffffffffffffff161415801561106657507f000000000000000000000000000000000000000000000000000000000000000073ffffffffffffffffffffffffffffffffffffffff1689602001602081019061104d9190614121565b73ffffffffffffffffffffffffffffffffffffffff1614155b1561162157600083118061107a5750600082115b6110b9576040517f08c379a00000000000000000000000000000000000000000000000000000000081526004016110b090614dfd565b60405180910390fd5b60007f000000000000000000000000000000000000000000000000000000000000000073ffffffffffffffffffffffffffffffffffffffff1663e6a439058b600001602081019061110a9190614121565b7f00000000000000000000000000000000000000000000000000000000000000006040518363ffffffff1660e01b8152600401611148929190614cd3565b60206040518083038186803b15801561116057600080fd5b505afa158015611174573d6000803e3d6000fd5b505050506040513d601f19601f82011682018060405250810190611198919061414a565b905060007f000000000000000000000000000000000000000000000000000000000000000073ffffffffffffffffffffffffffffffffffffffff1663e6a439058c60200160208101906111eb9190614121565b7f00000000000000000000000000000000000000000000000000000000000000006040518363ffffffff1660e01b8152600401611229929190614cd3565b60206040518083038186803b15801561124157600080fd5b505afa158015611255573d6000803e3d6000fd5b505050506040513d601f19601f82011682018060405250810190611279919061414a565b9050600085111561145357849750600060028b611296919061540f565b9050808b6112a4919061549a565b9a5060006113057f00000000000000000000000000000000000000000000000000000000000000008e60000160208101906112df9190614121565b7f0000000000000000000000000000000000000000000000000000000000000000612299565b90506113337f000000000000000000000000000000000000000000000000000000000000000033838d613099565b60006113718e600001602081019061134b9190614121565b7f000000000000000000000000000000000000000000000000000000000000000061235c565b5090506000808273ffffffffffffffffffffffffffffffffffffffff167f000000000000000000000000000000000000000000000000000000000000000073ffffffffffffffffffffffffffffffffffffffff16146113d2578460006113d6565b6000855b915091508373ffffffffffffffffffffffffffffffffffffffff1663022c0d9f83838b6040518463ffffffff1660e01b81526004016114179392919061514f565b600060405180830381600087803b15801561143157600080fd5b505af1158015611445573d6000803e3d6000fd5b50505050505050505061161e565b839750600060028a611465919061540f565b9050808a611473919061549a565b995060006114d47f00000000000000000000000000000000000000000000000000000000000000008e60200160208101906114ae9190614121565b7f0000000000000000000000000000000000000000000000000000000000000000612299565b90506115027f000000000000000000000000000000000000000000000000000000000000000033838d613099565b60006115408e602001602081019061151a9190614121565b7f000000000000000000000000000000000000000000000000000000000000000061235c565b5090506000808273ffffffffffffffffffffffffffffffffffffffff167f000000000000000000000000000000000000000000000000000000000000000073ffffffffffffffffffffffffffffffffffffffff16146115a1578460006115a5565b6000855b915091508373ffffffffffffffffffffffffffffffffffffffff1663022c0d9f83838b6040518463ffffffff1660e01b81526004016115e69392919061514f565b600060405180830381600087803b15801561160057600080fd5b505af1158015611614573d6000803e3d6000fd5b5050505050505050505b50505b61163f8960000160208101906116379190614121565b33838b613099565b61165d8960200160208101906116559190614121565b33838a613099565b8073ffffffffffffffffffffffffffffffffffffffff16636a6278428a604001602081019061168c9190614121565b6040518263ffffffff1660e01b81526004016116a89190614cb8565b602060405180830381600087803b1580156116c257600080fd5b505af11580156116d6573d6000803e3d6000fd5b505050506040513d601f19601f820116820180604052508101906116fa9190614466565b9450505050509193509193565b60006117347f00000000000000000000000000000000000000000000000000000000000000008484612299565b905092915050565b60608282905067ffffffffffffffff811115611781577f4e487b7100000000000000000000000000000000000000000000000000000000600052604160045260246000fd5b6040519080825280602002602001820160405280156117b457816020015b606081526020019060019003908161179f5790505b50905060005b83839050811015611941576000803073ffffffffffffffffffffffffffffffffffffffff16868685818110611818577f4e487b7100000000000000000000000000000000000000000000000000000000600052603260045260246000fd5b905060200281019061182a91906151de565b604051611838929190614c40565b600060405180830381855af49150503d8060008114611873576040519150601f19603f3d011682016040523d82523d6000602084013e611878565b606091505b5091509150816118e75760448151101561189157600080fd5b600481019050808060200190518101906118ab919061426c565b6040517f08c379a00000000000000000000000000000000000000000000000000000000081526004016118de9190614dbb565b60405180910390fd5b80848481518110611921577f4e487b7100000000000000000000000000000000000000000000000000000000600052603260045260246000fd5b6020026020010181905250505080806119399061560b565b9150506117ba565b5092915050565b600061195584848461328b565b90509392505050565b7f000000000000000000000000000000000000000000000000000000000000000081565b7f000000000000000000000000000000000000000000000000000000000000000081565b60606119d37f00000000000000000000000000000000000000000000000000000000000000008484613345565b905092915050565b6000919050565b60008373ffffffffffffffffffffffffffffffffffffffff166370a08231306040518263ffffffff1660e01b8152600401611a1d9190614cb8565b60206040518083038186803b158015611a3557600080fd5b505afa158015611a49573d6000803e3d6000fd5b505050506040513d601f19601f82011682018060405250810190611a6d9190614466565b90506000831115611abc5782811015611abb576040517f08c379a0000000000000000000000000000000000000000000000000000000008152600401611ab290614e1d565b60405180910390fd5b5b6000811115611ad157611ad08483836135b5565b5b50505050565b6000919050565b6000808411611b22576040517f08c379a0000000000000000000000000000000000000000000000000000000008152600401611b1990614edd565b60405180910390fd5b600083118015611b325750600082115b611b71576040517f08c379a0000000000000000000000000000000000000000000000000000000008152600401611b6890614e9d565b60405180910390fd5b60008573ffffffffffffffffffffffffffffffffffffffff1663ddca3f436040518163ffffffff1660e01b815260040160206040518083038186803b158015611bb957600080fd5b505afa158015611bcd573d6000803e3d6000fd5b505050506040513d601f19601f82011682018060405250810190611bf19190614466565b90506000611c1782633b9aca00611c08919061549a565b8761370a90919063ffffffff16565b90506000611c2e858361370a90919063ffffffff16565b90506000611c5b83611c4d633b9aca008a61370a90919063ffffffff16565b61372090919063ffffffff16565b90508082611c69919061540f565b945050505050949350505050565b600042905090565b60006014806014611c9091906153b9565b611c9a91906153b9565b825110159050919050565b6060611cc96000601480611cb991906153b9565b846137369092919063ffffffff16565b9050919050565b6000806000611ce2846000015161248a565b915091506000600267ffffffffffffffff811115611d29577f4e487b7100000000000000000000000000000000000000000000000000000000600052604160045260246000fd5b604051908082528060200260200182016040528015611d575781602001602082028036833780820191505090505b5090508281600081518110611d95577f4e487b7100000000000000000000000000000000000000000000000000000000600052603260045260246000fd5b602002602001019073ffffffffffffffffffffffffffffffffffffffff16908173ffffffffffffffffffffffffffffffffffffffff16815250508181600181518110611e0a577f4e487b7100000000000000000000000000000000000000000000000000000000600052603260045260246000fd5b602002602001019073ffffffffffffffffffffffffffffffffffffffff16908173ffffffffffffffffffffffffffffffffffffffff1681525050611e6f7f00000000000000000000000000000000000000000000000000000000000000008883613345565b600181518110611ea8577f4e487b7100000000000000000000000000000000000000000000000000000000600052603260045260246000fd5b60200260200101519350611ebe868886886138a2565b5050509392505050565b6060611eec6014808451611edc919061549a565b846137369092919063ffffffff16565b9050919050565b6060600282511015611f3a576040517f08c379a0000000000000000000000000000000000000000000000000000000008152600401611f3190614f9d565b60405180910390fd5b815167ffffffffffffffff811115611f7b577f4e487b7100000000000000000000000000000000000000000000000000000000600052604160045260246000fd5b604051908082528060200260200182016040528015611fa95781602001602082028036833780820191505090505b509050828160018351611fbc919061549a565b81518110611ff3577f4e487b7100000000000000000000000000000000000000000000000000000000600052603260045260246000fd5b60200260200101818152505060006001835161200f919061549a565b90505b600081111561216b576000806120b58786600186612030919061549a565b81518110612067577f4e487b7100000000000000000000000000000000000000000000000000000000600052603260045260246000fd5b60200260200101518786815181106120a8577f4e487b7100000000000000000000000000000000000000000000000000000000600052603260045260246000fd5b60200260200101516139c1565b91509150612105878585815181106120f6577f4e487b7100000000000000000000000000000000000000000000000000000000600052603260045260246000fd5b60200260200101518484612704565b84600185612113919061549a565b8151811061214a577f4e487b7100000000000000000000000000000000000000000000000000000000600052603260045260246000fd5b60200260200101818152505050508080612163906155b0565b915050612012565b509392505050565b60008273ffffffffffffffffffffffffffffffffffffffff1682600067ffffffffffffffff8111156121ce577f4e487b7100000000000000000000000000000000000000000000000000000000600052604160045260246000fd5b6040519080825280601f01601f1916602001820160405280156122005781602001600182028036833780820191505090505b5060405161220e9190614c59565b60006040518083038185875af1925050503d806000811461224b576040519150601f19603f3d011682016040523d82523d6000602084013e612250565b606091505b5050905080612294576040517f08c379a000000000000000000000000000000000000000000000000000000000815260040161228b90614e5d565b60405180910390fd5b505050565b60008173ffffffffffffffffffffffffffffffffffffffff168373ffffffffffffffffffffffffffffffffffffffff1611156122da57818380935081945050505b8383836040516020016122ee929190614c14565b604051602081830303815290604052805190602001207f6052f97ae694c9b6af9ccaeee836a290900b9953c84efc9d02ff1e46cbd50e3860001b60405160200161233a93929190614c70565b6040516020818303038152906040528051906020012060001c90509392505050565b6000808273ffffffffffffffffffffffffffffffffffffffff168473ffffffffffffffffffffffffffffffffffffffff1614156123ce576040517f08c379a00000000000000000000000000000000000000000000000000000000081526004016123c590614e3d565b60405180910390fd5b8273ffffffffffffffffffffffffffffffffffffffff168473ffffffffffffffffffffffffffffffffffffffff161061240857828461240b565b83835b8092508193505050600073ffffffffffffffffffffffffffffffffffffffff168273ffffffffffffffffffffffffffffffffffffffff161415612483576040517f08c379a000000000000000000000000000000000000000000000000000000000815260040161247a90614efd565b60405180910390fd5b9250929050565b6000806124a1600084613ad390919063ffffffff16565b91506124b7601484613ad390919063ffffffff16565b9050915091565b60006124cb848484612299565b90508073ffffffffffffffffffffffffffffffffffffffff163373ffffffffffffffffffffffffffffffffffffffff161461250557600080fd5b9392505050565b600080600061251e846000015161248a565b915091506000600267ffffffffffffffff811115612565577f4e487b7100000000000000000000000000000000000000000000000000000000600052604160045260246000fd5b6040519080825280602002602001820160405280156125935781602001602082028036833780820191505090505b50905081816000815181106125d1577f4e487b7100000000000000000000000000000000000000000000000000000000600052603260045260246000fd5b602002602001019073ffffffffffffffffffffffffffffffffffffffff16908173ffffffffffffffffffffffffffffffffffffffff16815250508281600181518110612646577f4e487b7100000000000000000000000000000000000000000000000000000000600052603260045260246000fd5b602002602001019073ffffffffffffffffffffffffffffffffffffffff16908173ffffffffffffffffffffffffffffffffffffffff16815250506126ab7f00000000000000000000000000000000000000000000000000000000000000008883611ef3565b6000815181106126e4577f4e487b7100000000000000000000000000000000000000000000000000000000600052603260045260246000fd5b602002602001015193506126fa868589886138a2565b5050509392505050565b6000808411612748576040517f08c379a000000000000000000000000000000000000000000000000000000000815260040161273f9061503d565b60405180910390fd5b6000831180156127585750600082115b612797576040517f08c379a000000000000000000000000000000000000000000000000000000000815260040161278e90614e9d565b60405180910390fd5b60008573ffffffffffffffffffffffffffffffffffffffff1663ddca3f436040518163ffffffff1660e01b815260040160206040518083038186803b1580156127df57600080fd5b505afa1580156127f3573d6000803e3d6000fd5b505050506040513d601f19601f820116820180604052508101906128179190614466565b90506000612844633b9aca00612836888861370a90919063ffffffff16565b61370a90919063ffffffff16565b9050600061287c83633b9aca0061285b919061549a565b61286e8988613b9890919063ffffffff16565b61370a90919063ffffffff16565b905061289d6001828461288f919061540f565b61372090919063ffffffff16565b9350505050949350505050565b60008060008060007f000000000000000000000000000000000000000000000000000000000000000090506000806128e5886000015161248a565b91509150600073ffffffffffffffffffffffffffffffffffffffff168373ffffffffffffffffffffffffffffffffffffffff1663e6a4390584846040518363ffffffff1660e01b815260040161293c929190614cd3565b60206040518083038186803b15801561295457600080fd5b505afa158015612968573d6000803e3d6000fd5b505050506040513d601f19601f8201168201806040525081019061298c919061414a565b73ffffffffffffffffffffffffffffffffffffffff161415612a37578273ffffffffffffffffffffffffffffffffffffffff1663c9c6539683836040518363ffffffff1660e01b81526004016129e3929190614cd3565b602060405180830381600087803b1580156129fd57600080fd5b505af1158015612a11573d6000803e3d6000fd5b505050506040513d601f19601f82011682018060405250810190612a35919061414a565b505b600080612a458585856139c1565b91509150600082148015612a595750600081145b15612a6d578d8d809950819a505050612b6c565b6000612a7a8f848461328b565b90508d8111612ad5578b811015612ac6576040517f08c379a0000000000000000000000000000000000000000000000000000000008152600401612abd90614f5d565b60405180910390fd5b8e81809a50819b505050612b6a565b6000612ae28f848661328b565b90508f811115612b1b577f4e487b7100000000000000000000000000000000000000000000000000000000600052600160045260246000fd5b8d811015612b5e576040517f08c379a0000000000000000000000000000000000000000000000000000000008152600401612b5590614ebd565b60405180910390fd5b808f809b50819c505050505b505b60009650600095507f000000000000000000000000000000000000000000000000000000000000000073ffffffffffffffffffffffffffffffffffffffff168473ffffffffffffffffffffffffffffffffffffffff1614158015612c1c57507f000000000000000000000000000000000000000000000000000000000000000073ffffffffffffffffffffffffffffffffffffffff168373ffffffffffffffffffffffffffffffffffffffff1614155b15613088576000600267ffffffffffffffff811115612c64577f4e487b7100000000000000000000000000000000000000000000000000000000600052604160045260246000fd5b604051908082528060200260200182016040528015612c925781602001602082028036833780820191505090505b5090507f000000000000000000000000000000000000000000000000000000000000000081600081518110612cf0577f4e487b7100000000000000000000000000000000000000000000000000000000600052603260045260246000fd5b602002602001019073ffffffffffffffffffffffffffffffffffffffff16908173ffffffffffffffffffffffffffffffffffffffff1681525050600073ffffffffffffffffffffffffffffffffffffffff168673ffffffffffffffffffffffffffffffffffffffff1663e6a439057f0000000000000000000000000000000000000000000000000000000000000000886040518363ffffffff1660e01b8152600401612d9d929190614cd3565b60206040518083038186803b158015612db557600080fd5b505afa158015612dc9573d6000803e3d6000fd5b505050506040513d601f19601f82011682018060405250810190612ded919061414a565b73ffffffffffffffffffffffffffffffffffffffff1614612ed8578481600181518110612e43577f4e487b7100000000000000000000000000000000000000000000000000000000600052603260045260246000fd5b602002602001019073ffffffffffffffffffffffffffffffffffffffff16908173ffffffffffffffffffffffffffffffffffffffff1681525050612e948660028c612e8e919061540f565b83611ef3565b600081518110612ecd577f4e487b7100000000000000000000000000000000000000000000000000000000600052603260045260246000fd5b602002602001015197505b600073ffffffffffffffffffffffffffffffffffffffff168673ffffffffffffffffffffffffffffffffffffffff1663e6a439057f0000000000000000000000000000000000000000000000000000000000000000876040518363ffffffff1660e01b8152600401612f4b929190614cd3565b60206040518083038186803b158015612f6357600080fd5b505afa158015612f77573d6000803e3d6000fd5b505050506040513d601f19601f82011682018060405250810190612f9b919061414a565b73ffffffffffffffffffffffffffffffffffffffff1614613086578381600181518110612ff1577f4e487b7100000000000000000000000000000000000000000000000000000000600052603260045260246000fd5b602002602001019073ffffffffffffffffffffffffffffffffffffffff16908173ffffffffffffffffffffffffffffffffffffffff16815250506130428660028b61303c919061540f565b83611ef3565b60008151811061307b577f4e487b7100000000000000000000000000000000000000000000000000000000600052603260045260246000fd5b602002602001015196505b505b505050505095509550955095915050565b60007f000000000000000000000000000000000000000000000000000000000000000073ffffffffffffffffffffffffffffffffffffffff168573ffffffffffffffffffffffffffffffffffffffff161480156130f95750814791508110155b15613232577f000000000000000000000000000000000000000000000000000000000000000073ffffffffffffffffffffffffffffffffffffffff1663d0e30db0826040518263ffffffff1660e01b81526004016000604051808303818588803b15801561316657600080fd5b505af115801561317a573d6000803e3d6000fd5b50505050507f000000000000000000000000000000000000000000000000000000000000000073ffffffffffffffffffffffffffffffffffffffff1663a9059cbb84846040518363ffffffff1660e01b81526004016131da929190614d33565b602060405180830381600087803b1580156131f457600080fd5b505af1158015613208573d6000803e3d6000fd5b505050506040513d601f19601f8201168201806040525081019061322c9190614243565b50613284565b3073ffffffffffffffffffffffffffffffffffffffff168473ffffffffffffffffffffffffffffffffffffffff161415613276576132718584846135b5565b613283565b61328285858585613bae565b5b5b5050505050565b60008084116132cf576040517f08c379a00000000000000000000000000000000000000000000000000000000081526004016132c690614ffd565b60405180910390fd5b6000831180156132df5750600082115b61331e576040517f08c379a000000000000000000000000000000000000000000000000000000000815260040161331590614e9d565b60405180910390fd5b82613332838661370a90919063ffffffff16565b61333c919061540f565b90509392505050565b606060028251101561338c576040517f08c379a000000000000000000000000000000000000000000000000000000000815260040161338390614f9d565b60405180910390fd5b815167ffffffffffffffff8111156133cd577f4e487b7100000000000000000000000000000000000000000000000000000000600052604160045260246000fd5b6040519080825280602002602001820160405280156133fb5781602001602082028036833780820191505090505b5090508281600081518110613439577f4e487b7100000000000000000000000000000000000000000000000000000000600052603260045260246000fd5b60200260200101818152505060005b60018351613456919061549a565b8110156135ad576000806134f78786858151811061349d577f4e487b7100000000000000000000000000000000000000000000000000000000600052603260045260246000fd5b6020026020010151876001876134b391906153b9565b815181106134ea577f4e487b7100000000000000000000000000000000000000000000000000000000600052603260045260246000fd5b60200260200101516139c1565b9150915061354787858581518110613538577f4e487b7100000000000000000000000000000000000000000000000000000000600052603260045260246000fd5b60200260200101518484611ade565b8460018561355591906153b9565b8151811061358c577f4e487b7100000000000000000000000000000000000000000000000000000000600052603260045260246000fd5b602002602001018181525050505080806135a59061560b565b915050613448565b509392505050565b6000808473ffffffffffffffffffffffffffffffffffffffff1663a9059cbb60e01b85856040516024016135ea929190614d33565b604051602081830303815290604052907bffffffffffffffffffffffffffffffffffffffffffffffffffffffff19166020820180517bffffffffffffffffffffffffffffffffffffffffffffffffffffffff83818316178352505050506040516136549190614c59565b6000604051808303816000865af19150503d8060008114613691576040519150601f19603f3d011682016040523d82523d6000602084013e613696565b606091505b50915091508180156136c457506000815114806136c35750808060200190518101906136c29190614243565b5b5b613703576040517f08c379a00000000000000000000000000000000000000000000000000000000081526004016136fa90614f1d565b60405180910390fd5b5050505050565b600081836137189190615440565b905092915050565b6000818361372e91906153b9565b905092915050565b606081601f8361374691906153b9565b1015613787576040517f08c379a000000000000000000000000000000000000000000000000000000000815260040161377e90614e7d565b60405180910390fd5b82828461379491906153b9565b10156137d5576040517f08c379a00000000000000000000000000000000000000000000000000000000081526004016137cc90614e7d565b60405180910390fd5b81836137e191906153b9565b84511015613824576040517f08c379a000000000000000000000000000000000000000000000000000000000815260040161381b9061501d565b60405180910390fd5b60608215600081146138455760405191506000825260208201604052613896565b6040519150601f8416801560200281840101858101878315602002848b0101015b818310156138835780518352602083019250602081019050613866565b50868552601f19601f8301166040525050505b50809150509392505050565b6000806138b2836000015161248a565b9150915060006138c28383611707565b90506138d083338389613099565b60006138dc848461235c565b5090506000808273ffffffffffffffffffffffffffffffffffffffff168673ffffffffffffffffffffffffffffffffffffffff161461391d57876000613921565b6000885b915091508373ffffffffffffffffffffffffffffffffffffffff1663022c0d9f83838d8b604051602001613955919061509d565b6040516020818303038152906040526040518563ffffffff1660e01b81526004016139839493929190615103565b600060405180830381600087803b15801561399d57600080fd5b505af11580156139b1573d6000803e3d6000fd5b5050505050505050505050505050565b60008060006139d0858561235c565b5090506000806139e1888888612299565b73ffffffffffffffffffffffffffffffffffffffff16630902f1ac6040518163ffffffff1660e01b815260040160606040518083038186803b158015613a2657600080fd5b505afa158015613a3a573d6000803e3d6000fd5b505050506040513d601f19601f82011682018060405250810190613a5e9190614417565b506dffffffffffffffffffffffffffff1691506dffffffffffffffffffffffffffff1691508273ffffffffffffffffffffffffffffffffffffffff168773ffffffffffffffffffffffffffffffffffffffff1614613abd578082613ac0565b81815b8095508196505050505050935093915050565b600081601483613ae391906153b9565b1015613b24576040517f08c379a0000000000000000000000000000000000000000000000000000000008152600401613b1b9061507d565b60405180910390fd5b601482613b3191906153b9565b83511015613b74576040517f08c379a0000000000000000000000000000000000000000000000000000000008152600401613b6b90614f7d565b60405180910390fd5b60006c01000000000000000000000000836020860101510490508091505092915050565b60008183613ba6919061549a565b905092915050565b6000808573ffffffffffffffffffffffffffffffffffffffff166323b872dd60e01b868686604051602401613be593929190614cfc565b604051602081830303815290604052907bffffffffffffffffffffffffffffffffffffffffffffffffffffffff19166020820180517bffffffffffffffffffffffffffffffffffffffffffffffffffffffff8381831617835250505050604051613c4f9190614c59565b6000604051808303816000865af19150503d8060008114613c8c576040519150601f19603f3d011682016040523d82523d6000602084013e613c91565b606091505b5091509150818015613cbf5750600081511480613cbe575080806020019051810190613cbd9190614243565b5b5b613cfe576040517f08c379a0000000000000000000000000000000000000000000000000000000008152600401613cf590614fbd565b60405180910390fd5b505050505050565b6000613d19613d148461525a565b615235565b90508083825260208201905082856020860282011115613d3857600080fd5b60005b85811015613d685781613d4e8882613dee565b845260208401935060208301925050600181019050613d3b565b5050509392505050565b6000613d85613d8084615286565b615235565b905082815260208101848484011115613d9d57600080fd5b613da884828561556e565b509392505050565b6000613dc3613dbe846152b7565b615235565b905082815260208101848484011115613ddb57600080fd5b613de684828561557d565b509392505050565b600081359050613dfd81615be9565b92915050565b600081519050613e1281615be9565b92915050565b600082601f830112613e2957600080fd5b8135613e39848260208601613d06565b91505092915050565b60008083601f840112613e5457600080fd5b8235905067ffffffffffffffff811115613e6d57600080fd5b602083019150836020820283011115613e8557600080fd5b9250929050565b600081519050613e9b81615c00565b92915050565b60008083601f840112613eb357600080fd5b8235905067ffffffffffffffff811115613ecc57600080fd5b602083019150836001820283011115613ee457600080fd5b9250929050565b600082601f830112613efc57600080fd5b8135613f0c848260208601613d72565b91505092915050565b600082601f830112613f2657600080fd5b8151613f36848260208601613db0565b91505092915050565b60006101008284031215613f5257600080fd5b81905092915050565b600060a08284031215613f6d57600080fd5b81905092915050565b60006101008284031215613f8957600080fd5b81905092915050565b60006101008284031215613fa557600080fd5b81905092915050565b600060408284031215613fc057600080fd5b613fca6040615235565b9050600082013567ffffffffffffffff811115613fe657600080fd5b613ff284828501613eeb565b600083015250602061400684828501613dee565b60208301525092915050565b600060a0828403121561402457600080fd5b61402e60a0615235565b9050600082013567ffffffffffffffff81111561404a57600080fd5b61405684828501613eeb565b600083015250602061406a84828501613dee565b602083015250604061407e848285016140e2565b6040830152506060614092848285016140e2565b60608301525060806140a6848285016140e2565b60808301525092915050565b600060c082840312156140c457600080fd5b81905092915050565b6000815190506140dc81615c17565b92915050565b6000813590506140f181615c2e565b92915050565b60008151905061410681615c2e565b92915050565b60008151905061411b81615c45565b92915050565b60006020828403121561413357600080fd5b600061414184828501613dee565b91505092915050565b60006020828403121561415c57600080fd5b600061416a84828501613e03565b91505092915050565b6000806040838503121561418657600080fd5b600061419485828601613dee565b92505060206141a585828601613dee565b9150509250929050565b6000806000606084860312156141c457600080fd5b60006141d286828701613dee565b93505060206141e3868287016140e2565b92505060406141f486828701613dee565b9150509250925092565b6000806020838503121561421157600080fd5b600083013567ffffffffffffffff81111561422b57600080fd5b61423785828601613e42565b92509250509250929050565b60006020828403121561425557600080fd5b600061426384828501613e8c565b91505092915050565b60006020828403121561427e57600080fd5b600082015167ffffffffffffffff81111561429857600080fd5b6142a484828501613f15565b91505092915050565b600061010082840312156142c057600080fd5b60006142ce84828501613f3f565b91505092915050565b6000602082840312156142e957600080fd5b600082013567ffffffffffffffff81111561430357600080fd5b61430f84828501613f5b565b91505092915050565b6000610100828403121561432b57600080fd5b600061433984828501613f76565b91505092915050565b6000610100828403121561435557600080fd5b600061436384828501613f92565b91505092915050565b60006020828403121561437e57600080fd5b600082013567ffffffffffffffff81111561439857600080fd5b6143a484828501613fae565b91505092915050565b6000602082840312156143bf57600080fd5b600082013567ffffffffffffffff8111156143d957600080fd5b6143e584828501614012565b91505092915050565b600060c0828403121561440057600080fd5b600061440e848285016140b2565b91505092915050565b60008060006060848603121561442c57600080fd5b600061443a868287016140cd565b935050602061444b868287016140cd565b925050604061445c8682870161410c565b9150509250925092565b60006020828403121561447857600080fd5b6000614486848285016140f7565b91505092915050565b600080604083850312156144a257600080fd5b60006144b0858286016140e2565b92505060206144c185828601613dee565b9150509250929050565b600080604083850312156144de57600080fd5b60006144ec858286016140e2565b925050602083013567ffffffffffffffff81111561450957600080fd5b61451585828601613e18565b9150509250929050565b6000806040838503121561453257600080fd5b6000614540858286016140f7565b9250506020614551858286016140f7565b9150509250929050565b6000806000806060858703121561457157600080fd5b600061457f878288016140e2565b9450506020614590878288016140e2565b935050604085013567ffffffffffffffff8111156145ad57600080fd5b6145b987828801613ea1565b925092505092959194509250565b6000806000606084860312156145dc57600080fd5b60006145ea868287016140e2565b93505060206145fb868287016140e2565b925050604061460c868287016140e2565b9150509250925092565b60006146228383614786565b905092915050565b60006146368383614bf6565b60208301905092915050565b61464b816154ce565b82525050565b61465a816154ce565b82525050565b61467161466c826154ce565b615654565b82525050565b600061468282615308565b61468c818561534e565b93508360208202850161469e856152e8565b8060005b858110156146da57848403895281516146bb8582614616565b94506146c683615334565b925060208a019950506001810190506146a2565b50829750879550505050505092915050565b60006146f782615313565b614701818561535f565b935061470c836152f8565b8060005b8381101561473d578151614724888261462a565b975061472f83615341565b925050600181019050614710565b5085935050505092915050565b61475b614756826154ec565b615666565b82525050565b600061476d8385615392565b935061477a83858461556e565b82840190509392505050565b60006147918261531e565b61479b8185615370565b93506147ab81856020860161557d565b6147b48161570f565b840191505092915050565b60006147ca8261531e565b6147d48185615381565b93506147e481856020860161557d565b6147ed8161570f565b840191505092915050565b60006148038261531e565b61480d8185615392565b935061481d81856020860161557d565b80840191505092915050565b6148328161554a565b82525050565b600061484382615329565b61484d818561539d565b935061485d81856020860161557d565b6148668161570f565b840191505092915050565b600061487e60128361539d565b91506148898261572d565b602082019050919050565b60006148a1601d8361539d565b91506148ac82615756565b602082019050919050565b60006148c460128361539d565b91506148cf8261577f565b602082019050919050565b60006148e760268361539d565b91506148f2826157a8565b604082019050919050565b600061490a60038361539d565b9150614915826157f7565b602082019050919050565b600061492d600e8361539d565b915061493882615820565b602082019050919050565b600061495060298361539d565b915061495b82615849565b604082019050919050565b600061497360278361539d565b915061497e82615898565b604082019050919050565b6000614996602c8361539d565b91506149a1826158e7565b604082019050919050565b60006149b96001836153ae565b91506149c482615936565b600182019050919050565b60006149dc601f8361539d565b91506149e78261595f565b602082019050919050565b60006149ff60028361539d565b9150614a0a82615988565b602082019050919050565b6000614a2260098361539d565b9150614a2d826159b1565b602082019050919050565b6000614a4560278361539d565b9150614a50826159da565b604082019050919050565b6000614a6860158361539d565b9150614a7382615a29565b602082019050919050565b6000614a8b601f8361539d565b9150614a9682615a52565b602082019050919050565b6000614aae60038361539d565b9150614ab982615a7b565b602082019050919050565b6000614ad160138361539d565b9150614adc82615aa4565b602082019050919050565b6000614af4600083615381565b9150614aff82615acd565b600082019050919050565b6000614b1760268361539d565b9150614b2282615ad0565b604082019050919050565b6000614b3a60118361539d565b9150614b4582615b1f565b602082019050919050565b6000614b5d602d8361539d565b9150614b6882615b48565b604082019050919050565b6000614b8060138361539d565b9150614b8b82615b97565b602082019050919050565b6000614ba360128361539d565b9150614bae82615bc0565b602082019050919050565b60006040830160008301518482036000860152614bd68282614786565b9150506020830151614beb6020860182614642565b508091505092915050565b614bff81615530565b82525050565b614c0e81615530565b82525050565b6000614c208285614660565b601482019150614c308284614660565b6014820191508190509392505050565b6000614c4d828486614761565b91508190509392505050565b6000614c6582846147f8565b915081905092915050565b6000614c7b826149ac565b9150614c878286614660565b601482019150614c97828561474a565b602082019150614ca7828461474a565b602082019150819050949350505050565b6000602082019050614ccd6000830184614651565b92915050565b6000604082019050614ce86000830185614651565b614cf56020830184614651565b9392505050565b6000606082019050614d116000830186614651565b614d1e6020830185614651565b614d2b6040830184614c05565b949350505050565b6000604082019050614d486000830185614651565b614d556020830184614c05565b9392505050565b60006020820190508181036000830152614d768184614677565b905092915050565b60006020820190508181036000830152614d9881846146ec565b905092915050565b6000602082019050614db56000830184614829565b92915050565b60006020820190508181036000830152614dd58184614838565b905092915050565b60006020820190508181036000830152614df681614871565b9050919050565b60006020820190508181036000830152614e1681614894565b9050919050565b60006020820190508181036000830152614e36816148b7565b9050919050565b60006020820190508181036000830152614e56816148da565b9050919050565b60006020820190508181036000830152614e76816148fd565b9050919050565b60006020820190508181036000830152614e9681614920565b9050919050565b60006020820190508181036000830152614eb681614943565b9050919050565b60006020820190508181036000830152614ed681614966565b9050919050565b60006020820190508181036000830152614ef681614989565b9050919050565b60006020820190508181036000830152614f16816149cf565b9050919050565b60006020820190508181036000830152614f36816149f2565b9050919050565b60006020820190508181036000830152614f5681614a15565b9050919050565b60006020820190508181036000830152614f7681614a38565b9050919050565b60006020820190508181036000830152614f9681614a5b565b9050919050565b60006020820190508181036000830152614fb681614a7e565b9050919050565b60006020820190508181036000830152614fd681614aa1565b9050919050565b60006020820190508181036000830152614ff681614ac4565b9050919050565b6000602082019050818103600083015261501681614b0a565b9050919050565b6000602082019050818103600083015261503681614b2d565b9050919050565b6000602082019050818103600083015261505681614b50565b9050919050565b6000602082019050818103600083015261507681614b73565b9050919050565b6000602082019050818103600083015261509681614b96565b9050919050565b600060208201905081810360008301526150b78184614bb9565b905092915050565b60006020820190506150d46000830184614c05565b92915050565b60006040820190506150ef6000830185614c05565b6150fc6020830184614c05565b9392505050565b60006080820190506151186000830187614c05565b6151256020830186614c05565b6151326040830185614651565b818103606083015261514481846147bf565b905095945050505050565b60006080820190506151646000830186614c05565b6151716020830185614c05565b61517e6040830184614651565b818103606083015261518f81614ae7565b9050949350505050565b60006080820190506151ae6000830187614c05565b6151bb6020830186614c05565b6151c86040830185614c05565b6151d56060830184614c05565b95945050505050565b600080833560016020038436030381126151f757600080fd5b80840192508235915067ffffffffffffffff82111561521557600080fd5b60208301925060018202360383131561522d57600080fd5b509250929050565b600061523f615250565b905061524b82826155da565b919050565b6000604051905090565b600067ffffffffffffffff821115615275576152746156e0565b5b602082029050602081019050919050565b600067ffffffffffffffff8211156152a1576152a06156e0565b5b6152aa8261570f565b9050602081019050919050565b600067ffffffffffffffff8211156152d2576152d16156e0565b5b6152db8261570f565b9050602081019050919050565b6000819050602082019050919050565b6000819050602082019050919050565b600081519050919050565b600081519050919050565b600081519050919050565b600081519050919050565b6000602082019050919050565b6000602082019050919050565b600082825260208201905092915050565b600082825260208201905092915050565b600082825260208201905092915050565b600082825260208201905092915050565b600081905092915050565b600082825260208201905092915050565b600081905092915050565b60006153c482615530565b91506153cf83615530565b9250827fffffffffffffffffffffffffffffffffffffffffffffffffffffffffffffffff0382111561540457615403615682565b5b828201905092915050565b600061541a82615530565b915061542583615530565b925082615435576154346156b1565b5b828204905092915050565b600061544b82615530565b915061545683615530565b9250817fffffffffffffffffffffffffffffffffffffffffffffffffffffffffffffffff048311821515161561548f5761548e615682565b5b828202905092915050565b60006154a582615530565b91506154b083615530565b9250828210156154c3576154c2615682565b5b828203905092915050565b60006154d982615510565b9050919050565b60008115159050919050565b6000819050919050565b60006dffffffffffffffffffffffffffff82169050919050565b600073ffffffffffffffffffffffffffffffffffffffff82169050919050565b6000819050919050565b600063ffffffff82169050919050565b60006155558261555c565b9050919050565b600061556782615510565b9050919050565b82818337600083830152505050565b60005b8381101561559b578082015181840152602081019050615580565b838111156155aa576000848401525b50505050565b60006155bb82615530565b915060008214156155cf576155ce615682565b5b600182039050919050565b6155e38261570f565b810181811067ffffffffffffffff82111715615602576156016156e0565b5b80604052505050565b600061561682615530565b91507fffffffffffffffffffffffffffffffffffffffffffffffffffffffffffffffff82141561564957615648615682565b5b600182019050919050565b600061565f82615670565b9050919050565b6000819050919050565b600061567b82615720565b9050919050565b7f4e487b7100000000000000000000000000000000000000000000000000000000600052601160045260246000fd5b7f4e487b7100000000000000000000000000000000000000000000000000000000600052601260045260246000fd5b7f4e487b7100000000000000000000000000000000000000000000000000000000600052604160045260246000fd5b6000601f19601f8301169050919050565b60008160601b9050919050565b7f496e73756666696369656e742057455448390000000000000000000000000000600082015250565b7f43616e6e6f742063616c63756c61746520504f434b45542076616c7565000000600082015250565b7f496e73756666696369656e7420746f6b656e0000000000000000000000000000600082015250565b7f506f636b6574537761704c6962726172793a204944454e544943414c5f41444460008201527f5245535345530000000000000000000000000000000000000000000000000000602082015250565b7f5354450000000000000000000000000000000000000000000000000000000000600082015250565b7f736c6963655f6f766572666c6f77000000000000000000000000000000000000600082015250565b7f506f636b6574537761704c6962726172793a20494e53554646494349454e545f60008201527f4c49515549444954590000000000000000000000000000000000000000000000602082015250565b7f506f636b657453776170526f757465723a20494e53554646494349454e545f4160008201527f5f414d4f554e5400000000000000000000000000000000000000000000000000602082015250565b7f506f636b6574537761704c6962726172793a20494e53554646494349454e545f60008201527f494e5055545f414d4f554e540000000000000000000000000000000000000000602082015250565b7fff00000000000000000000000000000000000000000000000000000000000000600082015250565b7f506f636b6574537761704c6962726172793a205a45524f5f4144445245535300600082015250565b7f5354000000000000000000000000000000000000000000000000000000000000600082015250565b7f4e6f742057455448390000000000000000000000000000000000000000000000600082015250565b7f506f636b657453776170526f757465723a20494e53554646494349454e545f4260008201527f5f414d4f554e5400000000000000000000000000000000000000000000000000602082015250565b7f746f416464726573735f6f75744f66426f756e64730000000000000000000000600082015250565b7f506f636b6574537761704c6962726172793a20494e56414c49445f5041544800600082015250565b7f5354460000000000000000000000000000000000000000000000000000000000600082015250565b7f5472616e73616374696f6e20746f6f206f6c6400000000000000000000000000600082015250565b50565b7f506f636b6574537761704c6962726172793a20494e53554646494349454e545f60008201527f414d4f554e540000000000000000000000000000000000000000000000000000602082015250565b7f736c6963655f6f75744f66426f756e6473000000000000000000000000000000600082015250565b7f506f636b6574537761704c6962726172793a20494e53554646494349454e545f60008201527f4f55545055545f414d4f554e5400000000000000000000000000000000000000602082015250565b7f546f6f206c6974746c6520726563656976656400000000000000000000000000600082015250565b7f746f416464726573735f6f766572666c6f770000000000000000000000000000600082015250565b615bf2816154ce565b8114615bfd57600080fd5b50565b615c09816154e0565b8114615c1457600080fd5b50565b615c20816154f6565b8114615c2b57600080fd5b50565b615c3781615530565b8114615c4257600080fd5b50565b615c4e8161553a565b8114615c5957600080fd5b5056fea2646970667358221220ca29d1335ec46b34c494ff32803b5191f07a1c85263bf166b0bc4ab94c81723064736f6c63430008040033",
  "immutableReferences": {
    "2993": [
      {
        "length": 32,
        "start": 1373
      },
      {
        "length": 32,
        "start": 1769
      },
      {
        "length": 32,
        "start": 2658
      },
      {
        "length": 32,
        "start": 3379
      },
      {
        "length": 32,
        "start": 3615
      },
      {
        "length": 32,
        "start": 3914
      },
      {
        "length": 32,
        "start": 4285
      },
      {
        "length": 32,
        "start": 4510
      },
      {
        "length": 32,
        "start": 4781
      },
      {
        "length": 32,
        "start": 5244
      },
      {
        "length": 32,
        "start": 5902
      },
      {
        "length": 32,
        "start": 6496
      },
      {
        "length": 32,
        "start": 6573
      },
      {
        "length": 32,
        "start": 7753
      },
      {
        "length": 32,
        "start": 9861
      },
      {
        "length": 32,
        "start": 10420
      }
    ],
    "2997": [
      {
        "length": 32,
        "start": 287
      },
      {
        "length": 32,
        "start": 2123
      },
      {
        "length": 32,
        "start": 2380
      },
      {
        "length": 32,
        "start": 2535
      },
      {
        "length": 32,
        "start": 12445
      },
      {
        "length": 32,
        "start": 12544
      },
      {
        "length": 32,
        "start": 12673
      }
    ],
    "3001": [
      {
        "length": 32,
        "start": 3996
      },
      {
        "length": 32,
        "start": 4101
      },
      {
        "length": 32,
        "start": 4364
      },
      {
        "length": 32,
        "start": 4589
      },
      {
        "length": 32,
        "start": 4833
      },
      {
        "length": 32,
        "start": 4876
      },
      {
        "length": 32,
        "start": 4941
      },
      {
        "length": 32,
        "start": 5008
      },
      {
        "length": 32,
        "start": 5296
      },
      {
        "length": 32,
        "start": 5339
      },
      {
        "length": 32,
        "start": 5404
      },
      {
        "length": 32,
        "start": 5471
      },
      {
        "length": 32,
        "start": 6532
      },
      {
        "length": 32,
        "start": 11126
      },
      {
        "length": 32,
        "start": 11213
      },
      {
        "length": 32,
        "start": 11415
      },
      {
        "length": 32,
        "start": 11616
      },
      {
        "length": 32,
        "start": 12046
      }
    ]
  },
  "source": "// SPDX-License-Identifier: Unlicensed\npragma solidity =0.8.4;\npragma abicoder v2;\n\nimport \"./SwapRouter.sol\";\nimport \"./LiquidityRouter.sol\";\nimport \"./abstract/PeripheryImmutableState.sol\";\n\ncontract PocketSwapRouter is\nPeripheryImmutableState,\nPeripheryValidation,\nSwapRouter,\nLiquidityRouter\n{\n    constructor(address _factory, address _WETH9, address _pocketToken)\n    PeripheryImmutableState(_factory, _WETH9, _pocketToken) {}\n}",
  "sourcePath": "/Users/ilyk/projects/midgardtech/xpocket-PocketSwap/contracts/pocketswap/PocketSwapRouter.sol",
  "compiler": {
    "name": "solc",
    "version": "0.8.4+commit.c7e474f2.Emscripten.clang"
  },
  "schemaVersion": "3.4.0",
  "updatedAt": "2021-05-07T07:25:25.635Z",
  "devdoc": {
    "kind": "dev",
    "methods": {
      "exactOutput((bytes,address,uint256,uint256,uint256))": {
        "params": {
          "params": "The parameters necessary for the multi-hop swap, encoded as `OutputParams` in calldata"
        },
        "returns": {
          "amountIn": "The amount of the input token"
        }
      },
      "exactOutputSingle((address,address,uint24,address,uint256,uint256,uint256,uint160))": {
        "params": {
          "params": "The parameters necessary for the swap, encoded as `OutputSingleParams` in calldata"
        },
        "returns": {
          "amountIn": "The amount of the input token"
        }
      },
      "multicall(bytes[])": {
        "details": "The `msg.value` should not be trusted for any method callable from multicall.",
        "params": {
          "data": "The encoded function data for each of the calls to make to this contract"
        },
        "returns": {
          "results": "The results from each of the calls passed in via data"
        }
      },
      "swap((address,address,address,uint256,uint256,uint256))": {
        "params": {
          "params": "The parameters necessary for the swap, encoded as `SwapParams` in calldata"
        },
        "returns": {
          "amountOut": "The amount of the received token"
        }
      },
      "swapMulti((bytes,address,uint256,uint256,uint256))": {
        "params": {
          "params": "The parameters necessary for the multi-hop swap, encoded as `SwapMultiParams` in calldata"
        },
        "returns": {
          "amountOut": "The amount of the received token"
        }
      },
      "sweepToken(address,uint256,address)": {
        "details": "The amountMinimum parameter prevents malicious contracts from stealing the token from users",
        "params": {
          "amountMinimum": "The minimum amount of token required for a transfer",
          "recipient": "The destination address of the token",
          "token": "The contract address of the token which will be transferred to `recipient`"
        }
      },
      "unwrapWETH9(uint256,address)": {
        "details": "The amountMinimum parameter prevents malicious contracts from stealing WETH9 from users.",
        "params": {
          "amountMinimum": "The minimum amount of WETH9 to unwrap",
          "recipient": "The address receiving ETH"
        }
      }
    },
    "version": 1
  },
  "userdoc": {
    "kind": "user",
    "methods": {
      "exactOutput((bytes,address,uint256,uint256,uint256))": {
        "notice": "Swaps as little as possible of one token for `amountOut` of another along the specified path (reversed)"
      },
      "exactOutputSingle((address,address,uint24,address,uint256,uint256,uint256,uint160))": {
        "notice": "Swaps as little as possible of one token for `amountOut` of another token"
      },
      "multicall(bytes[])": {
        "notice": "Call multiple functions in the current contract and return the data from all of them if they all succeed"
      },
      "swap((address,address,address,uint256,uint256,uint256))": {
        "notice": "Swaps `amountIn` of one token for as much as possible of another token"
      },
      "swapMulti((bytes,address,uint256,uint256,uint256))": {
        "notice": "Swaps `amountIn` of one token for as much as possible of another along the specified path"
      },
      "sweepToken(address,uint256,address)": {
        "notice": "Sends the full amount of a token held by this contract to the given recipient"
      },
      "unwrapWETH9(uint256,address)": {
        "notice": "Unwraps the contract's WETH9 balance and sends it to recipient as ETH."
      }
    },
    "version": 1
  }
}