{
  "contractName": "PocketSwapPair",
  "abi": [
    {
      "inputs": [],
      "stateMutability": "nonpayable",
      "type": "constructor"
    },
    {
      "anonymous": false,
      "inputs": [
        {
          "indexed": true,
          "internalType": "address",
          "name": "owner",
          "type": "address"
        },
        {
          "indexed": true,
          "internalType": "address",
          "name": "spender",
          "type": "address"
        },
        {
          "indexed": false,
          "internalType": "uint256",
          "name": "value",
          "type": "uint256"
        }
      ],
      "name": "Approval",
      "type": "event"
    },
    {
      "anonymous": false,
      "inputs": [
        {
          "indexed": true,
          "internalType": "address",
          "name": "sender",
          "type": "address"
        },
        {
          "indexed": false,
          "internalType": "uint256",
          "name": "amount0",
          "type": "uint256"
        },
        {
          "indexed": false,
          "internalType": "uint256",
          "name": "amount1",
          "type": "uint256"
        },
        {
          "indexed": true,
          "internalType": "address",
          "name": "to",
          "type": "address"
        }
      ],
      "name": "Burn",
      "type": "event"
    },
    {
      "anonymous": false,
      "inputs": [
        {
          "indexed": true,
          "internalType": "address",
          "name": "sender",
          "type": "address"
        },
        {
          "indexed": false,
          "internalType": "uint256",
          "name": "amount0",
          "type": "uint256"
        },
        {
          "indexed": false,
          "internalType": "uint256",
          "name": "amount1",
          "type": "uint256"
        }
      ],
      "name": "Mint",
      "type": "event"
    },
    {
      "anonymous": false,
      "inputs": [
        {
          "indexed": true,
          "internalType": "address",
          "name": "sender",
          "type": "address"
        },
        {
          "indexed": false,
          "internalType": "uint256",
          "name": "amount0In",
          "type": "uint256"
        },
        {
          "indexed": false,
          "internalType": "uint256",
          "name": "amount1In",
          "type": "uint256"
        },
        {
          "indexed": false,
          "internalType": "uint256",
          "name": "amount0Out",
          "type": "uint256"
        },
        {
          "indexed": false,
          "internalType": "uint256",
          "name": "amount1Out",
          "type": "uint256"
        },
        {
          "indexed": true,
          "internalType": "address",
          "name": "to",
          "type": "address"
        }
      ],
      "name": "Swap",
      "type": "event"
    },
    {
      "anonymous": false,
      "inputs": [
        {
          "indexed": false,
          "internalType": "uint112",
          "name": "reserve0",
          "type": "uint112"
        },
        {
          "indexed": false,
          "internalType": "uint112",
          "name": "reserve1",
          "type": "uint112"
        }
      ],
      "name": "Sync",
      "type": "event"
    },
    {
      "anonymous": false,
      "inputs": [
        {
          "indexed": true,
          "internalType": "address",
          "name": "from",
          "type": "address"
        },
        {
          "indexed": true,
          "internalType": "address",
          "name": "to",
          "type": "address"
        },
        {
          "indexed": false,
          "internalType": "uint256",
          "name": "value",
          "type": "uint256"
        }
      ],
      "name": "Transfer",
      "type": "event"
    },
    {
      "inputs": [],
      "name": "DOMAIN_SEPARATOR",
      "outputs": [
        {
          "internalType": "bytes32",
          "name": "",
          "type": "bytes32"
        }
      ],
      "stateMutability": "view",
      "type": "function"
    },
    {
      "inputs": [],
      "name": "MINIMUM_LIQUIDITY",
      "outputs": [
        {
          "internalType": "uint256",
          "name": "",
          "type": "uint256"
        }
      ],
      "stateMutability": "view",
      "type": "function"
    },
    {
      "inputs": [],
      "name": "PERMIT_TYPEHASH",
      "outputs": [
        {
          "internalType": "bytes32",
          "name": "",
          "type": "bytes32"
        }
      ],
      "stateMutability": "view",
      "type": "function"
    },
    {
      "inputs": [
        {
          "internalType": "address",
          "name": "",
          "type": "address"
        },
        {
          "internalType": "address",
          "name": "",
          "type": "address"
        }
      ],
      "name": "allowance",
      "outputs": [
        {
          "internalType": "uint256",
          "name": "",
          "type": "uint256"
        }
      ],
      "stateMutability": "view",
      "type": "function"
    },
    {
      "inputs": [
        {
          "internalType": "address",
          "name": "spender",
          "type": "address"
        },
        {
          "internalType": "uint256",
          "name": "value",
          "type": "uint256"
        }
      ],
      "name": "approve",
      "outputs": [
        {
          "internalType": "bool",
          "name": "",
          "type": "bool"
        }
      ],
      "stateMutability": "nonpayable",
      "type": "function"
    },
    {
      "inputs": [
        {
          "internalType": "address",
          "name": "",
          "type": "address"
        }
      ],
      "name": "balanceOf",
      "outputs": [
        {
          "internalType": "uint256",
          "name": "",
          "type": "uint256"
        }
      ],
      "stateMutability": "view",
      "type": "function"
    },
    {
      "inputs": [],
      "name": "decimals",
      "outputs": [
        {
          "internalType": "uint8",
          "name": "",
          "type": "uint8"
        }
      ],
      "stateMutability": "view",
      "type": "function"
    },
    {
      "inputs": [],
      "name": "factory",
      "outputs": [
        {
          "internalType": "address",
          "name": "",
          "type": "address"
        }
      ],
      "stateMutability": "view",
      "type": "function"
    },
    {
      "inputs": [],
      "name": "name",
      "outputs": [
        {
          "internalType": "string",
          "name": "",
          "type": "string"
        }
      ],
      "stateMutability": "view",
      "type": "function"
    },
    {
      "inputs": [
        {
          "internalType": "address",
          "name": "",
          "type": "address"
        }
      ],
      "name": "nonces",
      "outputs": [
        {
          "internalType": "uint256",
          "name": "",
          "type": "uint256"
        }
      ],
      "stateMutability": "view",
      "type": "function"
    },
    {
      "inputs": [
        {
          "internalType": "address",
          "name": "owner",
          "type": "address"
        },
        {
          "internalType": "address",
          "name": "spender",
          "type": "address"
        },
        {
          "internalType": "uint256",
          "name": "value",
          "type": "uint256"
        },
        {
          "internalType": "uint256",
          "name": "deadline",
          "type": "uint256"
        },
        {
          "internalType": "uint8",
          "name": "v",
          "type": "uint8"
        },
        {
          "internalType": "bytes32",
          "name": "r",
          "type": "bytes32"
        },
        {
          "internalType": "bytes32",
          "name": "s",
          "type": "bytes32"
        }
      ],
      "name": "permit",
      "outputs": [],
      "stateMutability": "nonpayable",
      "type": "function"
    },
    {
      "inputs": [],
      "name": "price0CumulativeLast",
      "outputs": [
        {
          "internalType": "uint256",
          "name": "",
          "type": "uint256"
        }
      ],
      "stateMutability": "view",
      "type": "function"
    },
    {
      "inputs": [],
      "name": "price1CumulativeLast",
      "outputs": [
        {
          "internalType": "uint256",
          "name": "",
          "type": "uint256"
        }
      ],
      "stateMutability": "view",
      "type": "function"
    },
    {
      "inputs": [],
      "name": "symbol",
      "outputs": [
        {
          "internalType": "string",
          "name": "",
          "type": "string"
        }
      ],
      "stateMutability": "view",
      "type": "function"
    },
    {
      "inputs": [],
      "name": "token0",
      "outputs": [
        {
          "internalType": "address",
          "name": "",
          "type": "address"
        }
      ],
      "stateMutability": "view",
      "type": "function"
    },
    {
      "inputs": [],
      "name": "token1",
      "outputs": [
        {
          "internalType": "address",
          "name": "",
          "type": "address"
        }
      ],
      "stateMutability": "view",
      "type": "function"
    },
    {
      "inputs": [],
      "name": "totalSupply",
      "outputs": [
        {
          "internalType": "uint256",
          "name": "",
          "type": "uint256"
        }
      ],
      "stateMutability": "view",
      "type": "function"
    },
    {
      "inputs": [
        {
          "internalType": "address",
          "name": "to",
          "type": "address"
        },
        {
          "internalType": "uint256",
          "name": "value",
          "type": "uint256"
        }
      ],
      "name": "transfer",
      "outputs": [
        {
          "internalType": "bool",
          "name": "",
          "type": "bool"
        }
      ],
      "stateMutability": "nonpayable",
      "type": "function"
    },
    {
      "inputs": [
        {
          "internalType": "address",
          "name": "from",
          "type": "address"
        },
        {
          "internalType": "address",
          "name": "to",
          "type": "address"
        },
        {
          "internalType": "uint256",
          "name": "value",
          "type": "uint256"
        }
      ],
      "name": "transferFrom",
      "outputs": [
        {
          "internalType": "bool",
          "name": "",
          "type": "bool"
        }
      ],
      "stateMutability": "nonpayable",
      "type": "function"
    },
    {
      "inputs": [],
      "name": "getReserves",
      "outputs": [
        {
          "internalType": "uint112",
          "name": "_reserve0",
          "type": "uint112"
        },
        {
          "internalType": "uint112",
          "name": "_reserve1",
          "type": "uint112"
        },
        {
          "internalType": "uint32",
          "name": "_blockTimestampLast",
          "type": "uint32"
        }
      ],
      "stateMutability": "view",
      "type": "function"
    },
    {
      "inputs": [
        {
          "internalType": "address",
          "name": "_token0",
          "type": "address"
        },
        {
          "internalType": "address",
          "name": "_token1",
          "type": "address"
        }
      ],
      "name": "initialize",
      "outputs": [],
      "stateMutability": "nonpayable",
      "type": "function"
    },
    {
      "inputs": [
        {
          "internalType": "address",
          "name": "to",
          "type": "address"
        }
      ],
      "name": "mint",
      "outputs": [
        {
          "internalType": "uint256",
          "name": "liquidity",
          "type": "uint256"
        }
      ],
      "stateMutability": "nonpayable",
      "type": "function"
    },
    {
      "inputs": [
        {
          "internalType": "address",
          "name": "to",
          "type": "address"
        }
      ],
      "name": "burn",
      "outputs": [
        {
          "internalType": "uint256",
          "name": "amount0",
          "type": "uint256"
        },
        {
          "internalType": "uint256",
          "name": "amount1",
          "type": "uint256"
        }
      ],
      "stateMutability": "nonpayable",
      "type": "function"
    },
    {
      "inputs": [
        {
          "internalType": "uint256",
          "name": "amount0Out",
          "type": "uint256"
        },
        {
          "internalType": "uint256",
          "name": "amount1Out",
          "type": "uint256"
        },
        {
          "internalType": "address",
          "name": "to",
          "type": "address"
        },
        {
          "internalType": "bytes",
          "name": "data",
          "type": "bytes"
        }
      ],
      "name": "swap",
      "outputs": [],
      "stateMutability": "nonpayable",
      "type": "function"
    },
    {
      "inputs": [
        {
          "internalType": "address",
          "name": "to",
          "type": "address"
        }
      ],
      "name": "skim",
      "outputs": [],
      "stateMutability": "nonpayable",
      "type": "function"
    },
    {
      "inputs": [],
      "name": "sync",
      "outputs": [],
      "stateMutability": "nonpayable",
      "type": "function"
    }
  ],
  "bytecode": "0x60806040526001600b553480156200001657600080fd5b5060004690507f8b73c3c69bb8fe3d512ecc4cf759cc79239f7b179b0ffacaa9a75d522b39400f6040518060400160405280600a81526020017f506f636b65745377617000000000000000000000000000000000000000000000815250805190602001206040518060400160405280600181526020017f3100000000000000000000000000000000000000000000000000000000000000815250805190602001208330604051602001620000cf95949392919062000166565b604051602081830303815290604052805190602001206003819055505033600560006101000a81548173ffffffffffffffffffffffffffffffffffffffff021916908373ffffffffffffffffffffffffffffffffffffffff1602179055506200020b565b6200013e81620001c3565b82525050565b6200014f81620001d7565b82525050565b620001608162000201565b82525050565b600060a0820190506200017d600083018862000144565b6200018c602083018762000144565b6200019b604083018662000144565b620001aa606083018562000155565b620001b9608083018462000133565b9695505050505050565b6000620001d082620001e1565b9050919050565b6000819050919050565b600073ffffffffffffffffffffffffffffffffffffffff82169050919050565b6000819050919050565b613fa8806200021b6000396000f3fe608060405234801561001057600080fd5b506004361061018e5760003560e01c80636a627842116100de578063ba9a7a5611610097578063d21220a711610071578063d21220a7146104a2578063d505accf146104c0578063dd62ed3e146104dc578063fff6cae91461050c5761018e565b8063ba9a7a561461044a578063bc25cf7714610468578063c45a0155146104845761018e565b80636a6278421461033b57806370a082311461036b5780637ecebe001461039b57806389afcb44146103cb57806395d89b41146103fc578063a9059cbb1461041a5761018e565b806323b872dd1161014b5780633644e515116101255780633644e515146102c5578063485cc955146102e35780635909c0d5146102ff5780635a3d54931461031d5761018e565b806323b872dd1461025957806330adf81f14610289578063313ce567146102a75761018e565b8063022c0d9f1461019357806306fdde03146101af5780630902f1ac146101cd578063095ea7b3146101ed5780630dfe16811461021d57806318160ddd1461023b575b600080fd5b6101ad60048036038101906101a89190612dd0565b610516565b005b6101b7610d98565b6040516101c49190613358565b60405180910390f35b6101d5610dd1565b6040516101e493929190613563565b60405180910390f35b61020760048036038101906102029190612d42565b610e2e565b604051610214919061327c565b60405180910390f35b610225610e45565b6040516102329190613238565b60405180910390f35b610243610e6b565b604051610250919061359a565b60405180910390f35b610273600480360381019061026e9190612c55565b610e71565b604051610280919061327c565b60405180910390f35b61029161103c565b60405161029e9190613297565b60405180910390f35b6102af611063565b6040516102bc9190613663565b60405180910390f35b6102cd611068565b6040516102da9190613297565b60405180910390f35b6102fd60048036038101906102f89190612c19565b61106e565b005b610307611184565b604051610314919061359a565b60405180910390f35b61032561118a565b604051610332919061359a565b60405180910390f35b61035560048036038101906103509190612bf0565b611190565b604051610362919061359a565b60405180910390f35b61038560048036038101906103809190612bf0565b611511565b604051610392919061359a565b60405180910390f35b6103b560048036038101906103b09190612bf0565b611529565b6040516103c2919061359a565b60405180910390f35b6103e560048036038101906103e09190612bf0565b611541565b6040516103f39291906135b5565b60405180910390f35b6104046119a0565b6040516104119190613358565b60405180910390f35b610434600480360381019061042f9190612d42565b6119d9565b604051610441919061327c565b60405180910390f35b6104526119f0565b60405161045f919061359a565b60405180910390f35b610482600480360381019061047d9190612bf0565b6119f6565b005b61048c611c40565b6040516104999190613238565b60405180910390f35b6104aa611c66565b6040516104b79190613238565b60405180910390f35b6104da60048036038101906104d59190612ca4565b611c8c565b005b6104f660048036038101906104f19190612c19565b611eb4565b604051610503919061359a565b60405180910390f35b610514611ed9565b005b6001600b541461055b576040517f08c379a00000000000000000000000000000000000000000000000000000000081526004016105529061341a565b60405180910390fd5b6000600b8190555060008511806105725750600084115b6105b1576040517f08c379a00000000000000000000000000000000000000000000000000000000081526004016105a89061349a565b60405180910390fd5b6000806105bc610dd1565b5091509150816dffffffffffffffffffffffffffff16871080156105ef5750806dffffffffffffffffffffffffffff1686105b61062e576040517f08c379a0000000000000000000000000000000000000000000000000000000008152600401610625906133fa565b60405180910390fd5b6000806000600660009054906101000a900473ffffffffffffffffffffffffffffffffffffffff1690506000600760009054906101000a900473ffffffffffffffffffffffffffffffffffffffff1690508173ffffffffffffffffffffffffffffffffffffffff168973ffffffffffffffffffffffffffffffffffffffff16141580156106e757508073ffffffffffffffffffffffffffffffffffffffff168973ffffffffffffffffffffffffffffffffffffffff1614155b610726576040517f08c379a000000000000000000000000000000000000000000000000000000000815260040161071d906134fa565b60405180910390fd5b60008b111561073b5761073a828a8d6120c8565b5b60008a11156107505761074f818a8c6120c8565b5b600088889050111561088c573373ffffffffffffffffffffffffffffffffffffffff16637936cd908c8c8b8b6040518563ffffffff1660e01b815260040161079b94939291906135de565b600060405180830381600087803b1580156107b557600080fd5b505af19250505080156107c6575060015b61088b576107d2613adb565b806308c379a0141561084e57506107e7613e69565b806107f25750610850565b806040516020016108039190613216565b6040516020818303038152906040526040517f08c379a00000000000000000000000000000000000000000000000000000000081526004016108459190613358565b60405180910390fd5b505b6040517f08c379a0000000000000000000000000000000000000000000000000000000008152600401610882906133da565b60405180910390fd5b5b8173ffffffffffffffffffffffffffffffffffffffff166370a08231306040518263ffffffff1660e01b81526004016108c59190613238565b60206040518083038186803b1580156108dd57600080fd5b505afa1580156108f1573d6000803e3d6000fd5b505050506040513d601f19601f820116820180604052508101906109159190612da7565b93508073ffffffffffffffffffffffffffffffffffffffff166370a08231306040518263ffffffff1660e01b81526004016109509190613238565b60206040518083038186803b15801561096857600080fd5b505afa15801561097c573d6000803e3d6000fd5b505050506040513d601f19601f820116820180604052508101906109a09190612da7565b92505050600089856dffffffffffffffffffffffffffff166109c2919061383e565b83116109cf5760006109f7565b89856dffffffffffffffffffffffffffff166109eb919061383e565b836109f6919061383e565b5b9050600089856dffffffffffffffffffffffffffff16610a17919061383e565b8311610a24576000610a4c565b89856dffffffffffffffffffffffffffff16610a40919061383e565b83610a4b919061383e565b5b90506000821180610a5d5750600081115b610a9c576040517f08c379a0000000000000000000000000000000000000000000000000000000008152600401610a939061337a565b60405180910390fd5b6000600560009054906101000a900473ffffffffffffffffffffffffffffffffffffffff1673ffffffffffffffffffffffffffffffffffffffff166346870d2b6040518163ffffffff1660e01b815260040160206040518083038186803b158015610b0657600080fd5b505afa158015610b1a573d6000803e3d6000fd5b505050506040513d601f19601f82011682018060405250810190610b3e9190612da7565b600560009054906101000a900473ffffffffffffffffffffffffffffffffffffffff1673ffffffffffffffffffffffffffffffffffffffff1663ddca3f436040518163ffffffff1660e01b815260040160206040518083038186803b158015610ba657600080fd5b505afa158015610bba573d6000803e3d6000fd5b505050506040513d601f19601f82011682018060405250810190610bde9190612da7565b610be8919061383e565b90506000610c27610c02838661225290919063ffffffff16565b610c19633b9aca008961225290919063ffffffff16565b61226890919063ffffffff16565b90506000610c66610c41848661225290919063ffffffff16565b610c58633b9aca008961225290919063ffffffff16565b61226890919063ffffffff16565b9050610cb5670de0b6b3a7640000610ca78a6dffffffffffffffffffffffffffff168c6dffffffffffffffffffffffffffff1661225290919063ffffffff16565b61225290919063ffffffff16565b610cc8828461225290919063ffffffff16565b1015610d09576040517f08c379a0000000000000000000000000000000000000000000000000000000008152600401610d009061345a565b60405180910390fd5b505050610d188484888861227e565b8873ffffffffffffffffffffffffffffffffffffffff163373ffffffffffffffffffffffffffffffffffffffff167fd78ad95fa46c994b6551d0da85fc275fe613ce37657fb8d5e3d130840159d82284848f8f604051610d7b949392919061361e565b60405180910390a35050505050506001600b819055505050505050565b6040518060400160405280600a81526020017f506f636b6574537761700000000000000000000000000000000000000000000081525081565b6000806000600a60009054906101000a90046dffffffffffffffffffffffffffff169250600a600e9054906101000a90046dffffffffffffffffffffffffffff169150600a601c9054906101000a900463ffffffff169050909192565b6000610e3b338484612572565b6001905092915050565b600660009054906101000a900473ffffffffffffffffffffffffffffffffffffffff1681565b60005481565b60007fffffffffffffffffffffffffffffffffffffffffffffffffffffffffffffffff600260008673ffffffffffffffffffffffffffffffffffffffff1673ffffffffffffffffffffffffffffffffffffffff16815260200190815260200160002060003373ffffffffffffffffffffffffffffffffffffffff1673ffffffffffffffffffffffffffffffffffffffff168152602001908152602001600020541461102657610fa582600260008773ffffffffffffffffffffffffffffffffffffffff1673ffffffffffffffffffffffffffffffffffffffff16815260200190815260200160002060003373ffffffffffffffffffffffffffffffffffffffff1673ffffffffffffffffffffffffffffffffffffffff1681526020019081526020016000205461226890919063ffffffff16565b600260008673ffffffffffffffffffffffffffffffffffffffff1673ffffffffffffffffffffffffffffffffffffffff16815260200190815260200160002060003373ffffffffffffffffffffffffffffffffffffffff1673ffffffffffffffffffffffffffffffffffffffff168152602001908152602001600020819055505b61103184848461265d565b600190509392505050565b7f6e71edae12b1b97f4d1f60370fef10105fa2faae0126114a169c64845d6126c960001b81565b601281565b60035481565b600560009054906101000a900473ffffffffffffffffffffffffffffffffffffffff1673ffffffffffffffffffffffffffffffffffffffff163373ffffffffffffffffffffffffffffffffffffffff16146110fe576040517f08c379a00000000000000000000000000000000000000000000000000000000081526004016110f5906134da565b60405180910390fd5b81600660006101000a81548173ffffffffffffffffffffffffffffffffffffffff021916908373ffffffffffffffffffffffffffffffffffffffff16021790555080600760006101000a81548173ffffffffffffffffffffffffffffffffffffffff021916908373ffffffffffffffffffffffffffffffffffffffff1602179055505050565b60085481565b60095481565b60006001600b54146111d7576040517f08c379a00000000000000000000000000000000000000000000000000000000081526004016111ce9061341a565b60405180910390fd5b6000600b819055506000806111ea610dd1565b50915091506000600660009054906101000a900473ffffffffffffffffffffffffffffffffffffffff1673ffffffffffffffffffffffffffffffffffffffff166370a08231306040518263ffffffff1660e01b815260040161124c9190613238565b60206040518083038186803b15801561126457600080fd5b505afa158015611278573d6000803e3d6000fd5b505050506040513d601f19601f8201168201806040525081019061129c9190612da7565b90506000600760009054906101000a900473ffffffffffffffffffffffffffffffffffffffff1673ffffffffffffffffffffffffffffffffffffffff166370a08231306040518263ffffffff1660e01b81526004016112fb9190613238565b60206040518083038186803b15801561131357600080fd5b505afa158015611327573d6000803e3d6000fd5b505050506040513d601f19601f8201168201806040525081019061134b9190612da7565b90506000611372856dffffffffffffffffffffffffffff168461226890919063ffffffff16565b90506000611399856dffffffffffffffffffffffffffff168461226890919063ffffffff16565b905060008054905060008114156113ed576113d96103e86113cb6113c6858761225290919063ffffffff16565b6127f1565b61226890919063ffffffff16565b97506113e860006103e861286b565b611454565b611451876dffffffffffffffffffffffffffff16611414838661225290919063ffffffff16565b61141e919061375d565b876dffffffffffffffffffffffffffff16611442848661225290919063ffffffff16565b61144c919061375d565b612985565b97505b60008811611497576040517f08c379a000000000000000000000000000000000000000000000000000000000815260040161148e906133ba565b60405180910390fd5b6114a1898961286b565b6114ad8585898961227e565b3373ffffffffffffffffffffffffffffffffffffffff167f4c209b5fc8ad50758f13e2e1088ba56a560dff690a1c6fef26394f4c03821c4f84846040516114f59291906135b5565b60405180910390a2505050505050506001600b81905550919050565b60016020528060005260406000206000915090505481565b60046020528060005260406000206000915090505481565b6000806001600b5414611589576040517f08c379a00000000000000000000000000000000000000000000000000000000081526004016115809061341a565b60405180910390fd5b6000600b8190555060008061159c610dd1565b50915091506000600660009054906101000a900473ffffffffffffffffffffffffffffffffffffffff1690506000600760009054906101000a900473ffffffffffffffffffffffffffffffffffffffff16905060008273ffffffffffffffffffffffffffffffffffffffff166370a08231306040518263ffffffff1660e01b815260040161162a9190613238565b60206040518083038186803b15801561164257600080fd5b505afa158015611656573d6000803e3d6000fd5b505050506040513d601f19601f8201168201806040525081019061167a9190612da7565b905060008273ffffffffffffffffffffffffffffffffffffffff166370a08231306040518263ffffffff1660e01b81526004016116b79190613238565b60206040518083038186803b1580156116cf57600080fd5b505afa1580156116e3573d6000803e3d6000fd5b505050506040513d601f19601f820116820180604052508101906117079190612da7565b90506000600160003073ffffffffffffffffffffffffffffffffffffffff1673ffffffffffffffffffffffffffffffffffffffff16815260200190815260200160002054905060008054905080611767858461225290919063ffffffff16565b611771919061375d565b995080611787848461225290919063ffffffff16565b611791919061375d565b985060008a1180156117a35750600089115b6117e2576040517f08c379a00000000000000000000000000000000000000000000000000000000081526004016117d99061351a565b60405180910390fd5b6117ec308361299e565b6117f7868c8c6120c8565b611802858c8b6120c8565b8573ffffffffffffffffffffffffffffffffffffffff166370a08231306040518263ffffffff1660e01b815260040161183b9190613238565b60206040518083038186803b15801561185357600080fd5b505afa158015611867573d6000803e3d6000fd5b505050506040513d601f19601f8201168201806040525081019061188b9190612da7565b93508473ffffffffffffffffffffffffffffffffffffffff166370a08231306040518263ffffffff1660e01b81526004016118c69190613238565b60206040518083038186803b1580156118de57600080fd5b505afa1580156118f2573d6000803e3d6000fd5b505050506040513d601f19601f820116820180604052508101906119169190612da7565b925061192484848a8a61227e565b8a73ffffffffffffffffffffffffffffffffffffffff163373ffffffffffffffffffffffffffffffffffffffff167fdccd412f0b1252819cb1fd330b93224ca42612892bb3f4f789976e6d819364968c8c6040516119839291906135b5565b60405180910390a350505050505050506001600b81905550915091565b6040518060400160405280600781526020017f50532d504149520000000000000000000000000000000000000000000000000081525081565b60006119e633848461265d565b6001905092915050565b6103e881565b6001600b5414611a3b576040517f08c379a0000000000000000000000000000000000000000000000000000000008152600401611a329061341a565b60405180910390fd5b6000600b819055506000600660009054906101000a900473ffffffffffffffffffffffffffffffffffffffff1690506000600760009054906101000a900473ffffffffffffffffffffffffffffffffffffffff169050611b628284611b5d600a60009054906101000a90046dffffffffffffffffffffffffffff166dffffffffffffffffffffffffffff168673ffffffffffffffffffffffffffffffffffffffff166370a08231306040518263ffffffff1660e01b8152600401611aff9190613238565b60206040518083038186803b158015611b1757600080fd5b505afa158015611b2b573d6000803e3d6000fd5b505050506040513d601f19601f82011682018060405250810190611b4f9190612da7565b61226890919063ffffffff16565b6120c8565b611c338184611c2e600a600e9054906101000a90046dffffffffffffffffffffffffffff166dffffffffffffffffffffffffffff168573ffffffffffffffffffffffffffffffffffffffff166370a08231306040518263ffffffff1660e01b8152600401611bd09190613238565b60206040518083038186803b158015611be857600080fd5b505afa158015611bfc573d6000803e3d6000fd5b505050506040513d601f19601f82011682018060405250810190611c209190612da7565b61226890919063ffffffff16565b6120c8565b50506001600b8190555050565b600560009054906101000a900473ffffffffffffffffffffffffffffffffffffffff1681565b600760009054906101000a900473ffffffffffffffffffffffffffffffffffffffff1681565b42841015611ccf576040517f08c379a0000000000000000000000000000000000000000000000000000000008152600401611cc69061347a565b60405180910390fd5b60006003547f6e71edae12b1b97f4d1f60370fef10105fa2faae0126114a169c64845d6126c960001b898989600460008e73ffffffffffffffffffffffffffffffffffffffff1673ffffffffffffffffffffffffffffffffffffffff1681526020019081526020016000206000815480929190611d4b906139ca565b919050558a604051602001611d65969594939291906132b2565b60405160208183030381529060405280519060200120604051602001611d8c9291906131df565b604051602081830303815290604052805190602001209050600060018286868660405160008152602001604052604051611dc99493929190613313565b6020604051602081039080840390855afa158015611deb573d6000803e3d6000fd5b505050602060405103519050600073ffffffffffffffffffffffffffffffffffffffff168173ffffffffffffffffffffffffffffffffffffffff1614158015611e5f57508873ffffffffffffffffffffffffffffffffffffffff168173ffffffffffffffffffffffffffffffffffffffff16145b611e9e576040517f08c379a0000000000000000000000000000000000000000000000000000000008152600401611e95906134ba565b60405180910390fd5b611ea9898989612572565b505050505050505050565b6002602052816000526040600020602052806000526040600020600091509150505481565b6001600b5414611f1e576040517f08c379a0000000000000000000000000000000000000000000000000000000008152600401611f159061341a565b60405180910390fd5b6000600b819055506120be600660009054906101000a900473ffffffffffffffffffffffffffffffffffffffff1673ffffffffffffffffffffffffffffffffffffffff166370a08231306040518263ffffffff1660e01b8152600401611f849190613238565b60206040518083038186803b158015611f9c57600080fd5b505afa158015611fb0573d6000803e3d6000fd5b505050506040513d601f19601f82011682018060405250810190611fd49190612da7565b600760009054906101000a900473ffffffffffffffffffffffffffffffffffffffff1673ffffffffffffffffffffffffffffffffffffffff166370a08231306040518263ffffffff1660e01b815260040161202f9190613238565b60206040518083038186803b15801561204757600080fd5b505afa15801561205b573d6000803e3d6000fd5b505050506040513d601f19601f8201168201806040525081019061207f9190612da7565b600a60009054906101000a90046dffffffffffffffffffffffffffff16600a600e9054906101000a90046dffffffffffffffffffffffffffff1661227e565b6001600b81905550565b6000808473ffffffffffffffffffffffffffffffffffffffff166040518060400160405280601981526020017f7472616e7366657228616464726573732c75696e743235362900000000000000815250805190602001208585604051602401612132929190613253565b604051602081830303815290604052907bffffffffffffffffffffffffffffffffffffffffffffffffffffffff19166020820180517bffffffffffffffffffffffffffffffffffffffffffffffffffffffff838183161783525050505060405161219c91906131c8565b6000604051808303816000865af19150503d80600081146121d9576040519150601f19603f3d011682016040523d82523d6000602084013e6121de565b606091505b509150915081801561220c575060008151148061220b57508080602001905181019061220a9190612d7e565b5b5b61224b576040517f08c379a00000000000000000000000000000000000000000000000000000000081526004016122429061339a565b60405180910390fd5b5050505050565b6000818361226091906137e4565b905092915050565b60008183612276919061383e565b905092915050565b6dffffffffffffffffffffffffffff801684111580156122ae57506dffffffffffffffffffffffffffff80168311155b6122ed576040517f08c379a00000000000000000000000000000000000000000000000000000000081526004016122e49061343a565b60405180910390fd5b6000640100000000426123009190613a1d565b90506000600a601c9054906101000a900463ffffffff16826123229190613872565b905060008163ffffffff1611801561234b57506000846dffffffffffffffffffffffffffff1614155b801561236857506000836dffffffffffffffffffffffffffff1614155b1561246e578063ffffffff166123ad8561238186612ab8565b7bffffffffffffffffffffffffffffffffffffffffffffffffffffffff16612aec90919063ffffffff16565b7bffffffffffffffffffffffffffffffffffffffffffffffffffffffff166123d591906137e4565b600860008282546123e691906136d6565b925050819055508063ffffffff1661242d8461240187612ab8565b7bffffffffffffffffffffffffffffffffffffffffffffffffffffffff16612aec90919063ffffffff16565b7bffffffffffffffffffffffffffffffffffffffffffffffffffffffff1661245591906137e4565b6009600082825461246691906136d6565b925050819055505b85600a60006101000a8154816dffffffffffffffffffffffffffff02191690836dffffffffffffffffffffffffffff16021790555084600a600e6101000a8154816dffffffffffffffffffffffffffff02191690836dffffffffffffffffffffffffffff16021790555081600a601c6101000a81548163ffffffff021916908363ffffffff1602179055507f1c411e9a96e071241c2f21f7726b17ae89e3cab4c78be50e062b03a9fffbbad1600a60009054906101000a90046dffffffffffffffffffffffffffff16600a600e9054906101000a90046dffffffffffffffffffffffffffff1660405161256292919061353a565b60405180910390a1505050505050565b80600260008573ffffffffffffffffffffffffffffffffffffffff1673ffffffffffffffffffffffffffffffffffffffff16815260200190815260200160002060008473ffffffffffffffffffffffffffffffffffffffff1673ffffffffffffffffffffffffffffffffffffffff168152602001908152602001600020819055508173ffffffffffffffffffffffffffffffffffffffff168373ffffffffffffffffffffffffffffffffffffffff167f8c5be1e5ebec7d5bd14f71427d1e84f3dd0314c0f7b2291e5b200ac8c7c3b92583604051612650919061359a565b60405180910390a3505050565b6126af81600160008673ffffffffffffffffffffffffffffffffffffffff1673ffffffffffffffffffffffffffffffffffffffff1681526020019081526020016000205461226890919063ffffffff16565b600160008573ffffffffffffffffffffffffffffffffffffffff1673ffffffffffffffffffffffffffffffffffffffff1681526020019081526020016000208190555061274481600160008573ffffffffffffffffffffffffffffffffffffffff1673ffffffffffffffffffffffffffffffffffffffff16815260200190815260200160002054612b1290919063ffffffff16565b600160008473ffffffffffffffffffffffffffffffffffffffff1673ffffffffffffffffffffffffffffffffffffffff168152602001908152602001600020819055508173ffffffffffffffffffffffffffffffffffffffff168373ffffffffffffffffffffffffffffffffffffffff167fddf252ad1be2c89b69c2b068fc378daa952ba7f163c4a11628f55a4df523b3ef836040516127e4919061359a565b60405180910390a3505050565b600060038211156128585781905060006001600284612810919061375d565b61281a91906136d6565b90505b81811015612852578091506002818285612837919061375d565b61284191906136d6565b61284b919061375d565b905061281d565b50612866565b6000821461286557600190505b5b919050565b61288081600054612b1290919063ffffffff16565b6000819055506128d881600160008573ffffffffffffffffffffffffffffffffffffffff1673ffffffffffffffffffffffffffffffffffffffff16815260200190815260200160002054612b1290919063ffffffff16565b600160008473ffffffffffffffffffffffffffffffffffffffff1673ffffffffffffffffffffffffffffffffffffffff168152602001908152602001600020819055508173ffffffffffffffffffffffffffffffffffffffff16600073ffffffffffffffffffffffffffffffffffffffff167fddf252ad1be2c89b69c2b068fc378daa952ba7f163c4a11628f55a4df523b3ef83604051612979919061359a565b60405180910390a35050565b60008183106129945781612996565b825b905092915050565b6129f081600160008573ffffffffffffffffffffffffffffffffffffffff1673ffffffffffffffffffffffffffffffffffffffff1681526020019081526020016000205461226890919063ffffffff16565b600160008473ffffffffffffffffffffffffffffffffffffffff1673ffffffffffffffffffffffffffffffffffffffff16815260200190815260200160002081905550612a488160005461226890919063ffffffff16565b600081905550600073ffffffffffffffffffffffffffffffffffffffff168273ffffffffffffffffffffffffffffffffffffffff167fddf252ad1be2c89b69c2b068fc378daa952ba7f163c4a11628f55a4df523b3ef83604051612aac919061359a565b60405180910390a35050565b60006e010000000000000000000000000000826dffffffffffffffffffffffffffff16612ae5919061378e565b9050919050565b6000816dffffffffffffffffffffffffffff1683612b0a919061372c565b905092915050565b60008183612b2091906136d6565b905092915050565b600081359050612b3781613eff565b92915050565b600081519050612b4c81613f16565b92915050565b600081359050612b6181613f2d565b92915050565b60008083601f840112612b7957600080fd5b8235905067ffffffffffffffff811115612b9257600080fd5b602083019150836001820283011115612baa57600080fd5b9250929050565b600081359050612bc081613f44565b92915050565b600081519050612bd581613f44565b92915050565b600081359050612bea81613f5b565b92915050565b600060208284031215612c0257600080fd5b6000612c1084828501612b28565b91505092915050565b60008060408385031215612c2c57600080fd5b6000612c3a85828601612b28565b9250506020612c4b85828601612b28565b9150509250929050565b600080600060608486031215612c6a57600080fd5b6000612c7886828701612b28565b9350506020612c8986828701612b28565b9250506040612c9a86828701612bb1565b9150509250925092565b600080600080600080600060e0888a031215612cbf57600080fd5b6000612ccd8a828b01612b28565b9750506020612cde8a828b01612b28565b9650506040612cef8a828b01612bb1565b9550506060612d008a828b01612bb1565b9450506080612d118a828b01612bdb565b93505060a0612d228a828b01612b52565b92505060c0612d338a828b01612b52565b91505092959891949750929550565b60008060408385031215612d5557600080fd5b6000612d6385828601612b28565b9250506020612d7485828601612bb1565b9150509250929050565b600060208284031215612d9057600080fd5b6000612d9e84828501612b3d565b91505092915050565b600060208284031215612db957600080fd5b6000612dc784828501612bc6565b91505092915050565b600080600080600060808688031215612de857600080fd5b6000612df688828901612bb1565b9550506020612e0788828901612bb1565b9450506040612e1888828901612b28565b935050606086013567ffffffffffffffff811115612e3557600080fd5b612e4188828901612b67565b92509250509295509295909350565b612e59816138a6565b82525050565b612e68816138b8565b82525050565b612e77816138c4565b82525050565b612e8e612e89826138c4565b613a13565b82525050565b6000612ea0838561369e565b9350612ead838584613957565b612eb683613afd565b840190509392505050565b6000612ecc82613688565b612ed681856136af565b9350612ee6818560208601613966565b80840191505092915050565b6000612efd82613693565b612f0781856136ba565b9350612f17818560208601613966565b612f2081613afd565b840191505092915050565b6000612f3682613693565b612f4081856136cb565b9350612f50818560208601613966565b80840191505092915050565b6000612f696025836136ba565b9150612f7482613b1b565b604082019050919050565b6000612f8c6002836136cb565b9150612f9782613b6a565b600282019050919050565b6000612faf601b836136ba565b9150612fba82613b93565b602082019050919050565b6000612fd26029836136ba565b9150612fdd82613bbc565b604082019050919050565b6000612ff56007836136ba565b915061300082613c0b565b602082019050919050565b60006130186022836136ba565b915061302382613c34565b604082019050919050565b600061303b6012836136ba565b915061304682613c83565b602082019050919050565b600061305e6014836136ba565b915061306982613cac565b602082019050919050565b6000613081600d836136ba565b915061308c82613cd5565b602082019050919050565b60006130a46013836136ba565b91506130af82613cfe565b602082019050919050565b60006130c76005836136cb565b91506130d282613d27565b600582019050919050565b60006130ea6026836136ba565b91506130f582613d50565b604082019050919050565b600061310d601d836136ba565b915061311882613d9f565b602082019050919050565b60006131306015836136ba565b915061313b82613dc8565b602082019050919050565b60006131536016836136ba565b915061315e82613df1565b602082019050919050565b60006131766029836136ba565b915061318182613e1a565b604082019050919050565b613195816138ce565b82525050565b6131a481613930565b82525050565b6131b38161393a565b82525050565b6131c28161394a565b82525050565b60006131d48284612ec1565b915081905092915050565b60006131ea82612f7f565b91506131f68285612e7d565b6020820191506132068284612e7d565b6020820191508190509392505050565b6000613221826130ba565b915061322d8284612f2b565b915081905092915050565b600060208201905061324d6000830184612e50565b92915050565b60006040820190506132686000830185612e50565b613275602083018461319b565b9392505050565b60006020820190506132916000830184612e5f565b92915050565b60006020820190506132ac6000830184612e6e565b92915050565b600060c0820190506132c76000830189612e6e565b6132d46020830188612e50565b6132e16040830187612e50565b6132ee606083018661319b565b6132fb608083018561319b565b61330860a083018461319b565b979650505050505050565b60006080820190506133286000830187612e6e565b61333560208301866131b9565b6133426040830185612e6e565b61334f6060830184612e6e565b95945050505050565b600060208201905081810360008301526133728184612ef2565b905092915050565b6000602082019050818103600083015261339381612f5c565b9050919050565b600060208201905081810360008301526133b381612fa2565b9050919050565b600060208201905081810360008301526133d381612fc5565b9050919050565b600060208201905081810360008301526133f381612fe8565b9050919050565b600060208201905081810360008301526134138161300b565b9050919050565b600060208201905081810360008301526134338161302e565b9050919050565b6000602082019050818103600083015261345381613051565b9050919050565b6000602082019050818103600083015261347381613074565b9050919050565b6000602082019050818103600083015261349381613097565b9050919050565b600060208201905081810360008301526134b3816130dd565b9050919050565b600060208201905081810360008301526134d381613100565b9050919050565b600060208201905081810360008301526134f381613123565b9050919050565b6000602082019050818103600083015261351381613146565b9050919050565b6000602082019050818103600083015261353381613169565b9050919050565b600060408201905061354f600083018561318c565b61355c602083018461318c565b9392505050565b6000606082019050613578600083018661318c565b613585602083018561318c565b61359260408301846131aa565b949350505050565b60006020820190506135af600083018461319b565b92915050565b60006040820190506135ca600083018561319b565b6135d7602083018461319b565b9392505050565b60006060820190506135f3600083018761319b565b613600602083018661319b565b8181036040830152613613818486612e94565b905095945050505050565b6000608082019050613633600083018761319b565b613640602083018661319b565b61364d604083018561319b565b61365a606083018461319b565b95945050505050565b600060208201905061367860008301846131b9565b92915050565b6000604051905090565b600081519050919050565b600081519050919050565b600082825260208201905092915050565b600081905092915050565b600082825260208201905092915050565b600081905092915050565b60006136e182613930565b91506136ec83613930565b9250827fffffffffffffffffffffffffffffffffffffffffffffffffffffffffffffffff0382111561372157613720613a4e565b5b828201905092915050565b600061373782613908565b915061374283613908565b92508261375257613751613a7d565b5b828204905092915050565b600061376882613930565b915061377383613930565b92508261378357613782613a7d565b5b828204905092915050565b600061379982613908565b91506137a483613908565b9250817bffffffffffffffffffffffffffffffffffffffffffffffffffffffff04831182151516156137d9576137d8613a4e565b5b828202905092915050565b60006137ef82613930565b91506137fa83613930565b9250817fffffffffffffffffffffffffffffffffffffffffffffffffffffffffffffffff048311821515161561383357613832613a4e565b5b828202905092915050565b600061384982613930565b915061385483613930565b92508282101561386757613866613a4e565b5b828203905092915050565b600061387d8261393a565b91506138888361393a565b92508282101561389b5761389a613a4e565b5b828203905092915050565b60006138b1826138e8565b9050919050565b60008115159050919050565b6000819050919050565b60006dffffffffffffffffffffffffffff82169050919050565b600073ffffffffffffffffffffffffffffffffffffffff82169050919050565b60007bffffffffffffffffffffffffffffffffffffffffffffffffffffffff82169050919050565b6000819050919050565b600063ffffffff82169050919050565b600060ff82169050919050565b82818337600083830152505050565b60005b83811015613984578082015181840152602081019050613969565b83811115613993576000848401525b50505050565b6139a282613afd565b810181811067ffffffffffffffff821117156139c1576139c0613aac565b5b80604052505050565b60006139d582613930565b91507fffffffffffffffffffffffffffffffffffffffffffffffffffffffffffffffff821415613a0857613a07613a4e565b5b600182019050919050565b6000819050919050565b6000613a2882613930565b9150613a3383613930565b925082613a4357613a42613a7d565b5b828206905092915050565b7f4e487b7100000000000000000000000000000000000000000000000000000000600052601160045260246000fd5b7f4e487b7100000000000000000000000000000000000000000000000000000000600052601260045260246000fd5b7f4e487b7100000000000000000000000000000000000000000000000000000000600052604160045260246000fd5b600060033d1115613afa5760046000803e613af7600051613b0e565b90505b90565b6000601f19601f8301169050919050565b60008160e01c9050919050565b7f506f636b6574537761703a20494e53554646494349454e545f494e5055545f4160008201527f4d4f554e54000000000000000000000000000000000000000000000000000000602082015250565b7f1901000000000000000000000000000000000000000000000000000000000000600082015250565b7f506f636b6574537761703a205452414e534645525f4641494c45440000000000600082015250565b7f506f636b6574537761703a20494e53554646494349454e545f4c49515549444960008201527f54595f4d494e5445440000000000000000000000000000000000000000000000602082015250565b7f554e4b4e574e2100000000000000000000000000000000000000000000000000600082015250565b7f506f636b6574537761703a20494e53554646494349454e545f4c49515549444960008201527f5459000000000000000000000000000000000000000000000000000000000000602082015250565b7f506f636b6574537761703a204c4f434b45440000000000000000000000000000600082015250565b7f506f636b6574537761703a204f564552464c4f57000000000000000000000000600082015250565b7f506f636b6574537761703a204b00000000000000000000000000000000000000600082015250565b7f506f636b6574537761703a204558504952454400000000000000000000000000600082015250565b7f4e4f4b3a20000000000000000000000000000000000000000000000000000000600082015250565b7f506f636b6574537761703a20494e53554646494349454e545f4f55545055545f60008201527f414d4f554e540000000000000000000000000000000000000000000000000000602082015250565b7f506f636b6574537761703a20494e56414c49445f5349474e4154555245000000600082015250565b7f506f636b6574537761703a20464f5242494444454e0000000000000000000000600082015250565b7f506f636b6574537761703a20494e56414c49445f544f00000000000000000000600082015250565b7f506f636b6574537761703a20494e53554646494349454e545f4c49515549444960008201527f54595f4255524e45440000000000000000000000000000000000000000000000602082015250565b600060443d1015613e7957613efc565b613e8161367e565b60043d036004823e80513d602482011167ffffffffffffffff82111715613ea9575050613efc565b808201805167ffffffffffffffff811115613ec75750505050613efc565b80602083010160043d038501811115613ee4575050505050613efc565b613ef382602001850186613999565b82955050505050505b90565b613f08816138a6565b8114613f1357600080fd5b50565b613f1f816138b8565b8114613f2a57600080fd5b50565b613f36816138c4565b8114613f4157600080fd5b50565b613f4d81613930565b8114613f5857600080fd5b50565b613f648161394a565b8114613f6f57600080fd5b5056fea26469706673582212200a1cdf920cb2a0c479bb1a31dccca08d1da4778a014b46b9afc2160c0396cdc264736f6c63430008040033",
  "immutableReferences": {},
  "source": "// SPDX-License-Identifier: Unlicensed\npragma solidity =0.8.4;\n\nimport '@openzeppelin/contracts/token/ERC20/IERC20.sol';\n\nimport './libraries/Math.sol';\nimport './libraries/UQ112x112.sol';\n\nimport './PocketSwapERC20.sol';\nimport './interfaces/IPocketSwapFactory.sol';\nimport \"./interfaces/IPocketSwapPair.sol\";\nimport \"./interfaces/callback/IPocketSwapCallback.sol\";\nimport \"./pair/StorageData.sol\";\nimport \"./libraries/PlainMath.sol\";\n\ncontract PocketSwapPair is\nPocketSwapERC20,\nStorageData\n{\n    using PlainMath  for uint;\n    using UQ112x112 for uint224;\n\n    bytes4 private constant SELECTOR = bytes4(keccak256(bytes('transfer(address,uint256)')));\n\n    uint112 private reserve0;           // uses single storage slot, accessible via getReserves\n    uint112 private reserve1;           // uses single storage slot, accessible via getReserves\n    uint32  private blockTimestampLast; // uses single storage slot, accessible via getReserves\n\n    uint private unlocked = 1;\n\n    modifier lock() {\n        require(unlocked == 1, 'PocketSwap: LOCKED');\n        unlocked = 0;\n        _;\n        unlocked = 1;\n    }\n\n    function getReserves() public override view returns (uint112 _reserve0, uint112 _reserve1, uint32 _blockTimestampLast) {\n        _reserve0 = reserve0;\n        _reserve1 = reserve1;\n        _blockTimestampLast = blockTimestampLast;\n    }\n\n    function _safeTransfer(address token, address to, uint value) private {\n        (bool success, bytes memory data) = token.call(abi.encodeWithSelector(SELECTOR, to, value));\n        require(success && (data.length == 0 || abi.decode(data, (bool))), 'PocketSwap: TRANSFER_FAILED');\n    }\n\n    constructor() {\n        factory = msg.sender;\n    }\n\n    // called once by the factory at time of deployment\n    function initialize(address _token0, address _token1) external override {\n        require(msg.sender == factory, 'PocketSwap: FORBIDDEN');\n        // sufficient check\n        token0 = _token0;\n        token1 = _token1;\n    }\n\n    // update reserves and, on the first call per block, price accumulators\n    function _update(uint balance0, uint balance1, uint112 _reserve0, uint112 _reserve1) private {\n        require(balance0 <= type(uint112).max && balance1 <= type(uint112).max, 'PocketSwap: OVERFLOW');\n        uint32 blockTimestamp = uint32(block.timestamp % 2 ** 32);\n        uint32 timeElapsed = blockTimestamp - blockTimestampLast;\n        // overflow is desired\n        if (timeElapsed > 0 && _reserve0 != 0 && _reserve1 != 0) {\n            // * never overflows, and + overflow is desired\n            price0CumulativeLast += uint(UQ112x112.encode(_reserve1).uqdiv(_reserve0)) * timeElapsed;\n            price1CumulativeLast += uint(UQ112x112.encode(_reserve0).uqdiv(_reserve1)) * timeElapsed;\n        }\n        reserve0 = uint112(balance0);\n        reserve1 = uint112(balance1);\n        blockTimestampLast = blockTimestamp;\n        emit Sync(reserve0, reserve1);\n    }\n\n    // this low-level function should be called from a contract which performs important safety checks\n    function mint(address to) external override lock returns (uint liquidity) {\n        (uint112 _reserve0, uint112 _reserve1,) = getReserves();\n        // gas savings\n        uint balance0 = IERC20(token0).balanceOf(address(this));\n        uint balance1 = IERC20(token1).balanceOf(address(this));\n        uint amount0 = balance0.sub(_reserve0);\n        uint amount1 = balance1.sub(_reserve1);\n        uint _totalSupply = totalSupply;\n\n        if (_totalSupply == 0) {\n            liquidity = Math.sqrt(amount0.mul(amount1)).sub(MINIMUM_LIQUIDITY);\n            _mint(address(0), MINIMUM_LIQUIDITY);\n            // permanently lock the first MINIMUM_LIQUIDITY tokens\n        } else {\n            liquidity = Math.min(amount0.mul(_totalSupply) / _reserve0, amount1.mul(_totalSupply) / _reserve1);\n        }\n        require(liquidity > 0, 'PocketSwap: INSUFFICIENT_LIQUIDITY_MINTED');\n        _mint(to, liquidity);\n\n        _update(balance0, balance1, _reserve0, _reserve1);\n\n        // reserve0 and reserve1 are up-to-date\n        emit Mint(msg.sender, amount0, amount1);\n    }\n\n    // this low-level function should be called from a contract which performs important safety checks\n    function burn(address to) external override lock returns (uint amount0, uint amount1) {\n        (uint112 _reserve0, uint112 _reserve1,) = getReserves();\n        // gas savings\n        address _token0 = token0;\n        // gas savings\n        address _token1 = token1;\n        // gas savings\n        uint balance0 = IERC20(_token0).balanceOf(address(this));\n        uint balance1 = IERC20(_token1).balanceOf(address(this));\n        uint liquidity = balanceOf[address(this)];\n        uint _totalSupply = totalSupply;\n\n        amount0 = liquidity.mul(balance0) / _totalSupply;\n        // using balances ensures pro-rata distribution\n        amount1 = liquidity.mul(balance1) / _totalSupply;\n        // using balances ensures pro-rata distribution\n        require(amount0 > 0 && amount1 > 0, 'PocketSwap: INSUFFICIENT_LIQUIDITY_BURNED');\n        _burn(address(this), liquidity);\n        _safeTransfer(_token0, to, amount0);\n        _safeTransfer(_token1, to, amount1);\n        balance0 = IERC20(_token0).balanceOf(address(this));\n        balance1 = IERC20(_token1).balanceOf(address(this));\n\n        _update(balance0, balance1, _reserve0, _reserve1);\n\n        // reserve0 and reserve1 are up-to-date\n        emit Burn(msg.sender, amount0, amount1, to);\n    }\n\n    // this low-level function should be called from a contract which performs important safety checks\n    function swap(uint amount0Out, uint amount1Out, address to, bytes calldata data) external override lock {\n        require(amount0Out > 0 || amount1Out > 0, 'PocketSwap: INSUFFICIENT_OUTPUT_AMOUNT');\n        (uint112 _reserve0, uint112 _reserve1,) = getReserves();\n        // gas savings\n        require(amount0Out < _reserve0 && amount1Out < _reserve1, 'PocketSwap: INSUFFICIENT_LIQUIDITY');\n\n        uint balance0;\n        uint balance1;\n        {// scope for _token{0,1}, avoids stack too deep errors\n            address _token0 = token0;\n            address _token1 = token1;\n            require(to != _token0 && to != _token1, 'PocketSwap: INVALID_TO');\n            if (amount0Out > 0) _safeTransfer(_token0, to, amount0Out);\n            // optimistically transfer tokens\n            if (amount1Out > 0) _safeTransfer(_token1, to, amount1Out);\n            // optimistically transfer tokens\n            if (data.length > 0) {\n                try IPocketSwapCallback(msg.sender).pocketSwapCallback(amount0Out, amount1Out, data) {\n                } catch Error(string memory reason) {\n                    revert(string(abi.encodePacked(\"NOK: \", reason)));\n                } catch {\n                    revert(\"UNKNWN!\");\n                }\n            }\n            balance0 = IERC20(_token0).balanceOf(address(this));\n            balance1 = IERC20(_token1).balanceOf(address(this));\n        }\n        uint amount0In = balance0 > _reserve0 - amount0Out ? balance0 - (_reserve0 - amount0Out) : 0;\n        uint amount1In = balance1 > _reserve1 - amount1Out ? balance1 - (_reserve1 - amount1Out) : 0;\n        require(amount0In > 0 || amount1In > 0, 'PocketSwap: INSUFFICIENT_INPUT_AMOUNT');\n        {// scope for reserve{0,1}Adjusted, avoids stack too deep errors\n            uint fee = IPocketSwapFactory(factory).fee() - IPocketSwapFactory(factory).holdersFee();\n            uint balance0Adjusted = balance0.mul(1e9).sub(amount0In.mul(fee));\n            uint balance1Adjusted = balance1.mul(1e9).sub(amount1In.mul(fee));\n            require(balance0Adjusted.mul(balance1Adjusted) >= uint(_reserve0).mul(_reserve1).mul(1e9 ** 2), \"PocketSwap: K\");\n        }\n\n        _update(balance0, balance1, _reserve0, _reserve1);\n        emit Swap(msg.sender, amount0In, amount1In, amount0Out, amount1Out, to);\n    }\n\n    // force balances to match reserves\n    function skim(address to) external override lock {\n        address _token0 = token0;\n        // gas savings\n        address _token1 = token1;\n        // gas savings\n        _safeTransfer(_token0, to, IERC20(_token0).balanceOf(address(this)).sub(reserve0));\n        _safeTransfer(_token1, to, IERC20(_token1).balanceOf(address(this)).sub(reserve1));\n    }\n\n    // force reserves to match balances\n    function sync() external override lock {\n        _update(IERC20(token0).balanceOf(address(this)), IERC20(token1).balanceOf(address(this)), reserve0, reserve1);\n    }\n}\n",
  "sourcePath": "/Users/ilyk/projects/midgardtech/xpocket-PocketSwap/contracts/pocketswap/PocketSwapPair.sol",
  "compiler": {
    "name": "solc",
    "version": "0.8.4+commit.c7e474f2.Emscripten.clang"
  },
  "schemaVersion": "3.4.0",
  "updatedAt": "2021-05-10T08:24:25.336Z",
  "devdoc": {
    "kind": "dev",
    "methods": {},
    "version": 1
  },
  "userdoc": {
    "kind": "user",
    "methods": {},
    "version": 1
  }
}