{
  "contractName": "PocketSwapRouter",
  "abi": [
    {
      "inputs": [
        {
          "internalType": "address",
          "name": "_factory",
          "type": "address"
        },
        {
          "internalType": "address",
          "name": "_WETH9",
          "type": "address"
        },
        {
          "internalType": "address",
          "name": "_pocketToken",
          "type": "address"
        }
      ],
      "stateMutability": "nonpayable",
      "type": "constructor"
    },
    {
      "inputs": [],
      "name": "WETH9",
      "outputs": [
        {
          "internalType": "address",
          "name": "",
          "type": "address"
        }
      ],
      "stateMutability": "view",
      "type": "function"
    },
    {
      "inputs": [
        {
          "components": [
            {
              "internalType": "address",
              "name": "token0",
              "type": "address"
            },
            {
              "internalType": "address",
              "name": "token1",
              "type": "address"
            },
            {
              "internalType": "address",
              "name": "recipient",
              "type": "address"
            },
            {
              "internalType": "uint256",
              "name": "amount0Desired",
              "type": "uint256"
            },
            {
              "internalType": "uint256",
              "name": "amount1Desired",
              "type": "uint256"
            },
            {
              "internalType": "uint256",
              "name": "amount0Min",
              "type": "uint256"
            },
            {
              "internalType": "uint256",
              "name": "amount1Min",
              "type": "uint256"
            },
            {
              "internalType": "uint256",
              "name": "deadline",
              "type": "uint256"
            }
          ],
          "internalType": "struct IPocketSwapLiquidityRouter.AddLiquidityParams",
          "name": "params",
          "type": "tuple"
        }
      ],
      "name": "addLiquidity",
      "outputs": [
        {
          "internalType": "uint256",
          "name": "amountA",
          "type": "uint256"
        },
        {
          "internalType": "uint256",
          "name": "amountB",
          "type": "uint256"
        },
        {
          "internalType": "uint256",
          "name": "amountPocket",
          "type": "uint256"
        },
        {
          "internalType": "uint256",
          "name": "liquidity",
          "type": "uint256"
        }
      ],
      "stateMutability": "payable",
      "type": "function"
    },
    {
      "inputs": [
        {
          "components": [
            {
              "internalType": "address",
              "name": "token0",
              "type": "address"
            },
            {
              "internalType": "address",
              "name": "token1",
              "type": "address"
            },
            {
              "internalType": "address",
              "name": "recipient",
              "type": "address"
            },
            {
              "internalType": "uint256",
              "name": "amount0Desired",
              "type": "uint256"
            },
            {
              "internalType": "uint256",
              "name": "amount1Desired",
              "type": "uint256"
            },
            {
              "internalType": "uint256",
              "name": "amount0Min",
              "type": "uint256"
            },
            {
              "internalType": "uint256",
              "name": "amount1Min",
              "type": "uint256"
            },
            {
              "internalType": "uint256",
              "name": "deadline",
              "type": "uint256"
            }
          ],
          "internalType": "struct IPocketSwapLiquidityRouter.AddLiquidityParams",
          "name": "params",
          "type": "tuple"
        }
      ],
      "name": "calcLiquidity",
      "outputs": [
        {
          "internalType": "uint256",
          "name": "amountA",
          "type": "uint256"
        },
        {
          "internalType": "uint256",
          "name": "amountB",
          "type": "uint256"
        },
        {
          "internalType": "uint256",
          "name": "amountAPocket",
          "type": "uint256"
        },
        {
          "internalType": "uint256",
          "name": "amountBPocket",
          "type": "uint256"
        }
      ],
      "stateMutability": "view",
      "type": "function"
    },
    {
      "inputs": [
        {
          "components": [
            {
              "internalType": "bytes",
              "name": "path",
              "type": "bytes"
            },
            {
              "internalType": "address",
              "name": "recipient",
              "type": "address"
            },
            {
              "internalType": "uint256",
              "name": "deadline",
              "type": "uint256"
            },
            {
              "internalType": "uint256",
              "name": "amountOut",
              "type": "uint256"
            },
            {
              "internalType": "uint256",
              "name": "amountInMaximum",
              "type": "uint256"
            }
          ],
          "internalType": "struct IPocketSwapRouter.OutputParams",
          "name": "params",
          "type": "tuple"
        }
      ],
      "name": "exactOutput",
      "outputs": [
        {
          "internalType": "uint256",
          "name": "amountIn",
          "type": "uint256"
        }
      ],
      "stateMutability": "payable",
      "type": "function"
    },
    {
      "inputs": [
        {
          "components": [
            {
              "internalType": "address",
              "name": "tokenIn",
              "type": "address"
            },
            {
              "internalType": "address",
              "name": "tokenOut",
              "type": "address"
            },
            {
              "internalType": "uint24",
              "name": "fee",
              "type": "uint24"
            },
            {
              "internalType": "address",
              "name": "recipient",
              "type": "address"
            },
            {
              "internalType": "uint256",
              "name": "deadline",
              "type": "uint256"
            },
            {
              "internalType": "uint256",
              "name": "amountOut",
              "type": "uint256"
            },
            {
              "internalType": "uint256",
              "name": "amountInMaximum",
              "type": "uint256"
            },
            {
              "internalType": "uint160",
              "name": "sqrtPriceLimitX96",
              "type": "uint160"
            }
          ],
          "internalType": "struct IPocketSwapRouter.OutputSingleParams",
          "name": "params",
          "type": "tuple"
        }
      ],
      "name": "exactOutputSingle",
      "outputs": [
        {
          "internalType": "uint256",
          "name": "amountIn",
          "type": "uint256"
        }
      ],
      "stateMutability": "payable",
      "type": "function"
    },
    {
      "inputs": [],
      "name": "factory",
      "outputs": [
        {
          "internalType": "address",
          "name": "",
          "type": "address"
        }
      ],
      "stateMutability": "view",
      "type": "function"
    },
    {
      "inputs": [
        {
          "internalType": "uint256",
          "name": "amountOut",
          "type": "uint256"
        },
        {
          "internalType": "uint256",
          "name": "reserveIn",
          "type": "uint256"
        },
        {
          "internalType": "uint256",
          "name": "reserveOut",
          "type": "uint256"
        }
      ],
      "name": "getAmountIn",
      "outputs": [
        {
          "internalType": "uint256",
          "name": "amountIn",
          "type": "uint256"
        }
      ],
      "stateMutability": "view",
      "type": "function"
    },
    {
      "inputs": [
        {
          "internalType": "uint256",
          "name": "amountIn",
          "type": "uint256"
        },
        {
          "internalType": "uint256",
          "name": "reserveIn",
          "type": "uint256"
        },
        {
          "internalType": "uint256",
          "name": "reserveOut",
          "type": "uint256"
        }
      ],
      "name": "getAmountOut",
      "outputs": [
        {
          "internalType": "uint256",
          "name": "amountOut",
          "type": "uint256"
        }
      ],
      "stateMutability": "view",
      "type": "function"
    },
    {
      "inputs": [
        {
          "internalType": "uint256",
          "name": "amountOut",
          "type": "uint256"
        },
        {
          "internalType": "address[]",
          "name": "path",
          "type": "address[]"
        }
      ],
      "name": "getAmountsIn",
      "outputs": [
        {
          "internalType": "uint256[]",
          "name": "amounts",
          "type": "uint256[]"
        }
      ],
      "stateMutability": "view",
      "type": "function"
    },
    {
      "inputs": [
        {
          "internalType": "uint256",
          "name": "amountIn",
          "type": "uint256"
        },
        {
          "internalType": "address[]",
          "name": "path",
          "type": "address[]"
        }
      ],
      "name": "getAmountsOut",
      "outputs": [
        {
          "internalType": "uint256[]",
          "name": "amounts",
          "type": "uint256[]"
        }
      ],
      "stateMutability": "view",
      "type": "function"
    },
    {
      "inputs": [
        {
          "internalType": "bytes[]",
          "name": "data",
          "type": "bytes[]"
        }
      ],
      "name": "multicall",
      "outputs": [
        {
          "internalType": "bytes[]",
          "name": "results",
          "type": "bytes[]"
        }
      ],
      "stateMutability": "payable",
      "type": "function"
    },
    {
      "inputs": [
        {
          "internalType": "address",
          "name": "tokenA",
          "type": "address"
        },
        {
          "internalType": "address",
          "name": "tokenB",
          "type": "address"
        }
      ],
      "name": "pairFor",
      "outputs": [
        {
          "internalType": "contract IPocketSwapPair",
          "name": "",
          "type": "address"
        }
      ],
      "stateMutability": "view",
      "type": "function"
    },
    {
      "inputs": [],
      "name": "pocket",
      "outputs": [
        {
          "internalType": "address",
          "name": "",
          "type": "address"
        }
      ],
      "stateMutability": "view",
      "type": "function"
    },
    {
      "inputs": [
        {
          "internalType": "uint256",
          "name": "amount0Delta",
          "type": "uint256"
        },
        {
          "internalType": "uint256",
          "name": "amount1Delta",
          "type": "uint256"
        },
        {
          "internalType": "bytes",
          "name": "_data",
          "type": "bytes"
        }
      ],
      "name": "pocketSwapCallback",
      "outputs": [],
      "stateMutability": "nonpayable",
      "type": "function"
    },
    {
      "inputs": [
        {
          "internalType": "uint256",
          "name": "amountA",
          "type": "uint256"
        },
        {
          "internalType": "uint256",
          "name": "reserveA",
          "type": "uint256"
        },
        {
          "internalType": "uint256",
          "name": "reserveB",
          "type": "uint256"
        }
      ],
      "name": "quote",
      "outputs": [
        {
          "internalType": "uint256",
          "name": "amountB",
          "type": "uint256"
        }
      ],
      "stateMutability": "pure",
      "type": "function"
    },
    {
      "inputs": [
        {
          "components": [
            {
              "internalType": "address",
              "name": "tokenA",
              "type": "address"
            },
            {
              "internalType": "address",
              "name": "tokenB",
              "type": "address"
            },
            {
              "internalType": "uint256",
              "name": "liquidity",
              "type": "uint256"
            },
            {
              "internalType": "uint256",
              "name": "amountAMin",
              "type": "uint256"
            },
            {
              "internalType": "uint256",
              "name": "amountBMin",
              "type": "uint256"
            },
            {
              "internalType": "address",
              "name": "rewards",
              "type": "address"
            },
            {
              "internalType": "address",
              "name": "recipient",
              "type": "address"
            },
            {
              "internalType": "uint256",
              "name": "deadline",
              "type": "uint256"
            }
          ],
          "internalType": "struct IPocketSwapLiquidityRouter.RemoveLiquidityParams",
          "name": "params",
          "type": "tuple"
        }
      ],
      "name": "removeLiquidity",
      "outputs": [
        {
          "internalType": "uint256",
          "name": "amountA",
          "type": "uint256"
        },
        {
          "internalType": "uint256",
          "name": "amountB",
          "type": "uint256"
        }
      ],
      "stateMutability": "payable",
      "type": "function"
    },
    {
      "inputs": [
        {
          "components": [
            {
              "internalType": "address",
              "name": "tokenIn",
              "type": "address"
            },
            {
              "internalType": "address",
              "name": "tokenOut",
              "type": "address"
            },
            {
              "internalType": "address",
              "name": "recipient",
              "type": "address"
            },
            {
              "internalType": "uint256",
              "name": "deadline",
              "type": "uint256"
            },
            {
              "internalType": "uint256",
              "name": "amountIn",
              "type": "uint256"
            },
            {
              "internalType": "uint256",
              "name": "amountOutMinimum",
              "type": "uint256"
            }
          ],
          "internalType": "struct IPocketSwapRouter.SwapParams",
          "name": "params",
          "type": "tuple"
        }
      ],
      "name": "swap",
      "outputs": [
        {
          "internalType": "uint256",
          "name": "amountOut",
          "type": "uint256"
        }
      ],
      "stateMutability": "payable",
      "type": "function"
    },
    {
      "inputs": [
        {
          "components": [
            {
              "internalType": "bytes",
              "name": "path",
              "type": "bytes"
            },
            {
              "internalType": "address",
              "name": "recipient",
              "type": "address"
            },
            {
              "internalType": "uint256",
              "name": "deadline",
              "type": "uint256"
            },
            {
              "internalType": "uint256",
              "name": "amountIn",
              "type": "uint256"
            },
            {
              "internalType": "uint256",
              "name": "amountOutMinimum",
              "type": "uint256"
            }
          ],
          "internalType": "struct IPocketSwapRouter.SwapMultiParams",
          "name": "params",
          "type": "tuple"
        }
      ],
      "name": "swapMulti",
      "outputs": [
        {
          "internalType": "uint256",
          "name": "amountOut",
          "type": "uint256"
        }
      ],
      "stateMutability": "payable",
      "type": "function"
    },
    {
      "inputs": [
        {
          "internalType": "address",
          "name": "token",
          "type": "address"
        },
        {
          "internalType": "uint256",
          "name": "amountMinimum",
          "type": "uint256"
        },
        {
          "internalType": "address",
          "name": "recipient",
          "type": "address"
        }
      ],
      "name": "sweepToken",
      "outputs": [],
      "stateMutability": "payable",
      "type": "function"
    },
    {
      "inputs": [
        {
          "internalType": "uint256",
          "name": "amountMinimum",
          "type": "uint256"
        },
        {
          "internalType": "address",
          "name": "recipient",
          "type": "address"
        }
      ],
      "name": "unwrapWETH9",
      "outputs": [],
      "stateMutability": "payable",
      "type": "function"
    }
  ],
  "bytecode": "0x60e06040526000196000553480156200001757600080fd5b50604051620049eb380380620049eb8339810160408190526200003a916200007f565b6001600160601b0319606093841b811660805291831b821660a05290911b1660c052620000c8565b80516001600160a01b03811681146200007a57600080fd5b919050565b60008060006060848603121562000094578283fd5b6200009f8462000062565b9250620000af6020850162000062565b9150620000bf6040850162000062565b90509250925092565b60805160601c60a05160601c60c05160601c61478c6200025f600039600081816103ac01528181610e1f01528181610e5c01528181610ece01528181610fbd0152818161117f015281816111cc015281816112d4015281816113cd015281816114a2015281816115370152818161155901528181611794015281816117dd015281816118f5015281816119f001528181611acd01528181611af801528181611b3901528181611b6f01528181611ca901528181611cfa01528181612ae701528181612b2401528181612b8101528181612bff0152612d440152600081816102110152818161075e0152818161086d01528181612eb001528181612ef90152612fa70152600081816103780152818161042a015281816105b10152818161093f01528181610d2001528181610d8c01528181610efb01528181610fe501528181611275015281816115c601528181611650015281816118850152818161197d01528181611a9901528181611c7001528181611de501528181611fa10152818161239a015281816129360152613441015261478c6000f3fe60806040526004361061015f5760003560e01c80638d4d72e5116100c0578063cccef9e211610074578063db3e219811610059578063db3e2198146103ee578063df2ab5bb14610402578063f28c04981461041557600080fd5b8063cccef9e21461039a578063d06ca61f146103ce57600080fd5b8063ac9650d8116100a5578063ac9650d814610326578063ad615dec14610346578063c45a01551461036657600080fd5b80638d4d72e5146102f357806396ed28f91461030657600080fd5b80634aa4a4fc1161011757806368bc7e08116100fc57806368bc7e08146102735780637936cd90146102b357806385f8c259146102d357600080fd5b80634aa4a4fc146101ff5780636385a2711461024b57600080fd5b80631f00ca74116101485780631f00ca74146101aa578063441a12de146101d757806349404b7c146101ea57600080fd5b8063054d50d41461016457806313b5192414610197575b600080fd5b34801561017057600080fd5b5061018461017f3660046142e1565b610423565b6040519081526020015b60405180910390f35b6101846101a5366004614053565b61045b565b3480156101b657600080fd5b506101ca6101c5366004614183565b6105aa565b60405161018e9190614401565b6101846101e53660046140f3565b6105d7565b6101fd6101f836600461415f565b61072d565b005b34801561020b57600080fd5b506102337f000000000000000000000000000000000000000000000000000000000000000081565b6040516001600160a01b03909116815260200161018e565b61025e610259366004613f69565b6108e0565b6040805192835260208301919091520161018e565b34801561027f57600080fd5b5061029361028e366004613f69565b610c3a565b60408051948552602085019390935291830152606082015260800161018e565b3480156102bf57600080fd5b506101fd6102ce366004614266565b610cf7565b3480156102df57600080fd5b506101846102ee3660046142e1565b6115bf565b610293610301366004613f69565b6115ed565b34801561031257600080fd5b50610233610321366004613ded565b611dde565b610339610334366004613e66565b611e0b565b60405161018e9190614382565b34801561035257600080fd5b506101846103613660046142e1565b611f8d565b34801561037257600080fd5b506102337f000000000000000000000000000000000000000000000000000000000000000081565b3480156103a657600080fd5b506102337f000000000000000000000000000000000000000000000000000000000000000081565b3480156103da57600080fd5b506101ca6103e9366004614183565b611f9a565b6101846103fc366004613f69565b50600090565b6101fd610410366004613e25565b611fc7565b6101846103fc366004613f85565b60006104517f00000000000000000000000000000000000000000000000000000000000000008585856120c9565b90505b9392505050565b600081604001518061046a4290565b11156104bd5760405162461bcd60e51b815260206004820152601360248201527f5472616e73616374696f6e20746f6f206f6c640000000000000000000000000060448201526064015b60405180910390fd5b60009150335b60006104d28560000151612294565b905061051c8560600151826104eb5786602001516104ed565b305b60405180604001604052806105058a600001516122b7565b8152602001866001600160a01b03168152506122d7565b6060860152801561053c57845130925061053590612400565b8552610549565b846060015193505061054f565b506104c3565b83608001518310156105a35760405162461bcd60e51b815260206004820152601360248201527f546f6f206c6974746c652072656365697665640000000000000000000000000060448201526064016104b4565b5050919050565b60606104547f00000000000000000000000000000000000000000000000000000000000000008484612414565b600060608201358042111561062e5760405162461bcd60e51b815260206004820152601360248201527f5472616e73616374696f6e20746f6f206f6c640000000000000000000000000060448201526064016104b4565b6106d160808401356106466060860160408701613db5565b604080518082019091528061065e6020890189613db5565b61066e60408a0160208b01613db5565b6040517fffffffffffffffffffffffffffffffffffffffff000000000000000000000000606093841b811660208301529190921b1660348201526048016040516020818303038152906040528152602001336001600160a01b03168152506122d7565b91508260a001358210156107275760405162461bcd60e51b815260206004820152601360248201527f546f6f206c6974746c652072656365697665640000000000000000000000000060448201526064016104b4565b50919050565b6040517f70a082310000000000000000000000000000000000000000000000000000000081523060048201526000907f00000000000000000000000000000000000000000000000000000000000000006001600160a01b0316906370a082319060240160206040518083038186803b1580156107a857600080fd5b505afa1580156107bc573d6000803e3d6000fd5b505050506040513d601f19601f820116820180604052508101906107e09190614147565b9050821561083857828110156108385760405162461bcd60e51b815260206004820152601260248201527f496e73756666696369656e74205745544839000000000000000000000000000060448201526064016104b4565b80156108db576040517f2e1a7d4d000000000000000000000000000000000000000000000000000000008152600481018290527f00000000000000000000000000000000000000000000000000000000000000006001600160a01b031690632e1a7d4d90602401600060405180830381600087803b1580156108b957600080fd5b505af11580156108cd573d6000803e3d6000fd5b505050506108db82826125ff565b505050565b60008060e0830135804211156109385760405162461bcd60e51b815260206004820152601360248201527f5472616e73616374696f6e20746f6f206f6c640000000000000000000000000060448201526064016104b4565b60006109807f000000000000000000000000000000000000000000000000000000000000000061096b6020880188613db5565b61097b6040890160208a01613db5565b6126bc565b604080517f23b872dd0000000000000000000000000000000000000000000000000000000081523360048201526001600160a01b03831660248201819052918801356044820152919250906323b872dd90606401602060405180830381600087803b1580156109ee57600080fd5b505af1158015610a02573d6000803e3d6000fd5b505050506040513d601f19601f82011682018060405250810190610a269190613ed6565b506000806001600160a01b0383166389afcb44610a4960e08a0160c08b01613db5565b6040517fffffffff0000000000000000000000000000000000000000000000000000000060e084901b1681526001600160a01b0390911660048201526024016040805180830381600087803b158015610aa157600080fd5b505af1158015610ab5573d6000803e3d6000fd5b505050506040513d601f19601f82011682018060405250810190610ad99190614243565b90925090506000610b05610af060208a018a613db5565b610b0060408b0160208c01613db5565b61281c565b5090506001600160a01b038116610b1f60208a018a613db5565b6001600160a01b031614610b34578183610b37565b82825b90975095506060880135871015610bb65760405162461bcd60e51b815260206004820152602760248201527f506f636b657453776170526f757465723a20494e53554646494349454e545f4160448201527f5f414d4f554e540000000000000000000000000000000000000000000000000060648201526084016104b4565b8760800135861015610c305760405162461bcd60e51b815260206004820152602760248201527f506f636b657453776170526f757465723a20494e53554646494349454e545f4260448201527f5f414d4f554e540000000000000000000000000000000000000000000000000060648201526084016104b4565b5050505050915091565b600080600080610ce8856060013586608001358760a001358860c0013560405180604001604052808b6000016020810190610c759190613db5565b610c8560408e0160208f01613db5565b6040517fffffffffffffffffffffffffffffffffffffffff000000000000000000000000606093841b811660208301529190921b1660348201526048016040516020818303038152906040528152602001336001600160a01b031681525061292c565b92989197509550909350915050565b6000610d0582840184613fbd565b9050600080610d178360000151612e67565b91509150610d467f00000000000000000000000000000000000000000000000000000000000000008383612e88565b5060008060008911610d6d57836001600160a01b0316836001600160a01b03161088610d84565b826001600160a01b0316846001600160a01b031610895b9150915060007f00000000000000000000000000000000000000000000000000000000000000006001600160a01b03166346870d2b6040518163ffffffff1660e01b815260040160206040518083038186803b158015610de357600080fd5b505afa158015610df7573d6000803e3d6000fd5b505050506040513d601f19601f82011682018060405250810190610e1b9190614147565b90507f00000000000000000000000000000000000000000000000000000000000000006001600160a01b0316856001600160a01b031614158015610e9157507f00000000000000000000000000000000000000000000000000000000000000006001600160a01b0316846001600160a01b031614155b15611461576040517fe6a439050000000000000000000000000000000000000000000000000000000081526001600160a01b0380871660048301527f00000000000000000000000000000000000000000000000000000000000000008116602483015286916000917f0000000000000000000000000000000000000000000000000000000000000000169063e6a439059060440160206040518083038186803b158015610f3d57600080fd5b505afa158015610f51573d6000803e3d6000fd5b505050506040513d601f19601f82011682018060405250810190610f759190613dd1565b90506001600160a01b0381166110ba576040517fe6a439050000000000000000000000000000000000000000000000000000000081526001600160a01b0387811660048301527f0000000000000000000000000000000000000000000000000000000000000000811660248301527f0000000000000000000000000000000000000000000000000000000000000000169063e6a439059060440160206040518083038186803b15801561102757600080fd5b505afa15801561103b573d6000803e3d6000fd5b505050506040513d601f19601f8201168201806040525081019061105f9190613dd1565b86925090506001600160a01b0381166110ba5760405162461bcd60e51b815260206004820152600e60248201527f4e6f20504f434b4554207061697200000000000000000000000000000000000060448201526064016104b4565b6040517f70a08231000000000000000000000000000000000000000000000000000000008152336004820152600090633b9aca009085906001600160a01b038616906370a082319060240160206040518083038186803b15801561111d57600080fd5b505afa158015611131573d6000803e3d6000fd5b505050506040513d601f19601f820116820180604052508101906111559190614147565b61115f9190614624565b6111699190614604565b905061117783338484612eac565b60006111a3847f000000000000000000000000000000000000000000000000000000000000000061281c565b5060408051600280825260608201835292935060009290916020830190803683370190505090507f00000000000000000000000000000000000000000000000000000000000000008160008151811061120c57634e487b7160e01b600052603260045260246000fd5b60200260200101906001600160a01b031690816001600160a01b031681525050848160018151811061124e57634e487b7160e01b600052603260045260246000fd5b60200260200101906001600160a01b031690816001600160a01b031681525050600061129b7f00000000000000000000000000000000000000000000000000000000000000008584613061565b6001815181106112bb57634e487b7160e01b600052603260045260246000fd5b60200260200101519050600080846001600160a01b03167f00000000000000000000000000000000000000000000000000000000000000006001600160a01b0316146113095782600061130d565b6000835b6040517f022c0d9f0000000000000000000000000000000000000000000000000000000081526004810183905260248101829052306044820152608060648201526000608482015291935091506001600160a01b0388169063022c0d9f9060a401600060405180830381600087803b15801561138857600080fd5b505af115801561139c573d6000803e3d6000fd5b50506040517fbeceed39000000000000000000000000000000000000000000000000000000008152600481018990527f00000000000000000000000000000000000000000000000000000000000000006001600160a01b0316925063beceed399150602401602060405180830381600087803b15801561141b57600080fd5b505af115801561142f573d6000803e3d6000fd5b505050506040513d601f19601f820116820180604052508101906114539190613ed6565b505050505050505050611580565b6040517f70a08231000000000000000000000000000000000000000000000000000000008152336004820152600090633b9aca009083906001600160a01b037f000000000000000000000000000000000000000000000000000000000000000016906370a082319060240160206040518083038186803b1580156114e457600080fd5b505afa1580156114f8573d6000803e3d6000fd5b505050506040513d601f19601f8201168201806040525081019061151c9190614147565b6115269190614624565b6115309190614604565b905061157e7f0000000000000000000000000000000000000000000000000000000000000000337f00000000000000000000000000000000000000000000000000000000000000008461322c565b505b821580156115945750855161159490612294565b156115b35785516115a490612400565b86526115b182338861337e565b505b50505050505050505050565b60006104517f000000000000000000000000000000000000000000000000000000000000000085858561349d565b600080808060e0850135804211156116475760405162461bcd60e51b815260206004820152601360248201527f5472616e73616374696f6e20746f6f206f6c640000000000000000000000000060448201526064016104b4565b6000808061168c7f000000000000000000000000000000000000000000000000000000000000000061167c60208c018c613db5565b61097b60408d0160208e01613db5565b905061169789610c3a565b929a50909850935091506116b96116b160208b018b613db5565b33838b612eac565b6116d46116cc60408b0160208c01613db5565b33838a612eac565b6001600160a01b038116636a6278426116f360608c0160408d01613db5565b6040517fffffffff0000000000000000000000000000000000000000000000000000000060e084901b1681526001600160a01b039091166004820152602401602060405180830381600087803b15801561174c57600080fd5b505af1158015611760573d6000803e3d6000fd5b505050506040513d601f19601f820116820180604052508101906117849190614147565b6000965094506001600160a01b037f0000000000000000000000000000000000000000000000000000000000000000166117c160208b018b613db5565b6001600160a01b03161415801561181957506001600160a01b037f00000000000000000000000000000000000000000000000000000000000000001661180d60408b0160208c01613db5565b6001600160a01b031614155b15611dd357600083118061182d5750600082115b6118795760405162461bcd60e51b815260206004820152601d60248201527f43616e6e6f742063616c63756c61746520504f434b45542076616c756500000060448201526064016104b4565b60006001600160a01b037f00000000000000000000000000000000000000000000000000000000000000001663e6a439056118b760208d018d613db5565b60405160e083901b7fffffffff000000000000000000000000000000000000000000000000000000001681526001600160a01b0391821660048201527f0000000000000000000000000000000000000000000000000000000000000000909116602482015260440160206040518083038186803b15801561193757600080fd5b505afa15801561194b573d6000803e3d6000fd5b505050506040513d601f19601f8201168201806040525081019061196f9190613dd1565b905060006001600160a01b037f00000000000000000000000000000000000000000000000000000000000000001663e6a439056119b260408e0160208f01613db5565b60405160e083901b7fffffffff000000000000000000000000000000000000000000000000000000001681526001600160a01b0391821660048201527f0000000000000000000000000000000000000000000000000000000000000000909116602482015260440160206040518083038186803b158015611a3257600080fd5b505afa158015611a46573d6000803e3d6000fd5b505050506040513d601f19601f82011682018060405250810190611a6a9190613dd1565b90508415611c4957849750600060028b611a849190614604565b9050611a90818c614661565b9a506000611af17f00000000000000000000000000000000000000000000000000000000000000008e6000016020810190611acb9190613db5565b7f00000000000000000000000000000000000000000000000000000000000000006126bc565b9050611b1f7f000000000000000000000000000000000000000000000000000000000000000033838d612eac565b6000611b5d8e6000016020810190611b379190613db5565b7f000000000000000000000000000000000000000000000000000000000000000061281c565b509050600080826001600160a01b03167f00000000000000000000000000000000000000000000000000000000000000006001600160a01b031614611ba457846000611ba8565b6000855b6040517f022c0d9f00000000000000000000000000000000000000000000000000000000815260048101839052602481018290526001600160a01b038b8116604483015260806064830152600060848301529294509092509085169063022c0d9f9060a401600060405180830381600087803b158015611c2757600080fd5b505af1158015611c3b573d6000803e3d6000fd5b505050505050505050611dd0565b839750600060028a611c5b9190614604565b9050611c67818b614661565b99506000611ca27f00000000000000000000000000000000000000000000000000000000000000008e6020016020810190611acb9190613db5565b9050611cd07f000000000000000000000000000000000000000000000000000000000000000033838d612eac565b6000611ce88e6020016020810190611b379190613db5565b509050600080826001600160a01b03167f00000000000000000000000000000000000000000000000000000000000000006001600160a01b031614611d2f57846000611d33565b6000855b6040517f022c0d9f00000000000000000000000000000000000000000000000000000000815260048101839052602481018290526001600160a01b038b8116604483015260806064830152600060848301529294509092509085169063022c0d9f9060a401600060405180830381600087803b158015611db257600080fd5b505af1158015611dc6573d6000803e3d6000fd5b5050505050505050505b50505b505050509193509193565b60006104547f000000000000000000000000000000000000000000000000000000000000000084846126bc565b60608167ffffffffffffffff811115611e3457634e487b7160e01b600052604160045260246000fd5b604051908082528060200260200182016040528015611e6757816020015b6060815260200190600190039081611e525790505b50905060005b82811015611f865760008030868685818110611e9957634e487b7160e01b600052603260045260246000fd5b9050602002810190611eab91906144cb565b604051611eb9929190614356565b600060405180830381855af49150503d8060008114611ef4576040519150601f19603f3d011682016040523d82523d6000602084013e611ef9565b606091505b509150915081611f4557604481511015611f1257600080fd5b60048101905080806020019051810190611f2c9190613ef6565b60405162461bcd60e51b81526004016104b49190614445565b80848481518110611f6657634e487b7160e01b600052603260045260246000fd5b602002602001018190525050508080611f7e906146d9565b915050611e6d565b5092915050565b6000610451848484613661565b60606104547f00000000000000000000000000000000000000000000000000000000000000008484613061565b6040517f70a082310000000000000000000000000000000000000000000000000000000081523060048201526000906001600160a01b038516906370a082319060240160206040518083038186803b15801561202257600080fd5b505afa158015612036573d6000803e3d6000fd5b505050506040513d601f19601f8201168201806040525081019061205a9190614147565b905082156120b257828110156120b25760405162461bcd60e51b815260206004820152601260248201527f496e73756666696369656e7420746f6b656e000000000000000000000000000060448201526064016104b4565b80156120c3576120c384838361376f565b50505050565b60008084116121405760405162461bcd60e51b815260206004820152602c60248201527f506f636b6574537761704c6962726172793a20494e53554646494349454e545f60448201527f494e5055545f414d4f554e54000000000000000000000000000000000000000060648201526084016104b4565b6000831180156121505750600082115b6121c25760405162461bcd60e51b815260206004820152602960248201527f506f636b6574537761704c6962726172793a20494e53554646494349454e545f60448201527f4c4951554944495459000000000000000000000000000000000000000000000060648201526084016104b4565b6000856001600160a01b031663ddca3f436040518163ffffffff1660e01b815260040160206040518083038186803b1580156121fd57600080fd5b505afa158015612211573d6000803e3d6000fd5b505050506040513d601f19601f820116820180604052508101906122359190614147565b9050600061225161224a83633b9aca00614661565b87906138b1565b9050600061225f82866138b1565b9050600061227b8361227589633b9aca006138b1565b906138bd565b90506122878183614604565b9998505050505050505050565b600060146122a281806145ec565b6122ac91906145ec565b825110159050919050565b60606122d160006122c96014806145ec565b8491906138c9565b92915050565b60008060006122e98460000151612e67565b60408051600280825260608201835293955091935060009290602083019080368337019050509050828160008151811061233357634e487b7160e01b600052603260045260246000fd5b60200260200101906001600160a01b031690816001600160a01b031681525050818160018151811061237557634e487b7160e01b600052603260045260246000fd5b60200260200101906001600160a01b031690816001600160a01b0316815250506123c07f00000000000000000000000000000000000000000000000000000000000000008883613061565b6001815181106123e057634e487b7160e01b600052603260045260246000fd5b602002602001015193506123f686888688613a68565b5050509392505050565b60606122d160148084516122c99190614661565b60606002825110156124685760405162461bcd60e51b815260206004820152601f60248201527f506f636b6574537761704c6962726172793a20494e56414c49445f504154480060448201526064016104b4565b815167ffffffffffffffff81111561249057634e487b7160e01b600052604160045260246000fd5b6040519080825280602002602001820160405280156124b9578160200160208202803683370190505b5090508281600183516124cc9190614661565b815181106124ea57634e487b7160e01b600052603260045260246000fd5b6020026020010181815250506000600183516125069190614661565b90505b80156125f7576000806125758786612522600187614661565b8151811061254057634e487b7160e01b600052603260045260246000fd5b602002602001015187868151811061256857634e487b7160e01b600052603260045260246000fd5b6020026020010151613b60565b915091506125ac8785858151811061259d57634e487b7160e01b600052603260045260246000fd5b6020026020010151848461349d565b846125b8600186614661565b815181106125d657634e487b7160e01b600052603260045260246000fd5b602002602001018181525050505080806125ef906146a4565b915050612509565b509392505050565b604080516000808252602082019092526001600160a01b0384169083906040516126299190614366565b60006040518083038185875af1925050503d8060008114612666576040519150601f19603f3d011682016040523d82523d6000602084013e61266b565b606091505b50509050806108db5760405162461bcd60e51b815260206004820152600360248201527f535445000000000000000000000000000000000000000000000000000000000060448201526064016104b4565b6000816001600160a01b0316836001600160a01b031611156126dc579091905b6040517fffffffffffffffffffffffffffffffffffffffff000000000000000000000000606085811b8216602084015284901b1660348201528490604801604080517fffffffffffffffffffffffffffffffffffffffffffffffffffffffffffffffe08184030181529082905280516020918201206127de939290917fe28fa7bf5fb2d35a8f7e8c92c9a7ce8c68d700393825d6eb56728888754f488b91017fff00000000000000000000000000000000000000000000000000000000000000815260609390931b7fffffffffffffffffffffffffffffffffffffffff0000000000000000000000001660018401526015830191909152603582015260550190565b604080517fffffffffffffffffffffffffffffffffffffffffffffffffffffffffffffffe08184030181529190528051602090910120949350505050565b600080826001600160a01b0316846001600160a01b031614156128a75760405162461bcd60e51b815260206004820152602660248201527f506f636b6574537761704c6962726172793a204944454e544943414c5f41444460448201527f524553534553000000000000000000000000000000000000000000000000000060648201526084016104b4565b826001600160a01b0316846001600160a01b0316106128c75782846128ca565b83835b90925090506001600160a01b0382166129255760405162461bcd60e51b815260206004820152601f60248201527f506f636b6574537761704c6962726172793a205a45524f5f414444524553530060448201526064016104b4565b9250929050565b60008060008060007f000000000000000000000000000000000000000000000000000000000000000090506000806129678860000151612e67565b91509150600080612979858585613b60565b9150915081600014801561298b575080155b1561299b578d98508c9750612add565b60006129a88f8484613661565b90508d8111612a32578b811015612a275760405162461bcd60e51b815260206004820152602760248201527f506f636b657453776170526f757465723a20494e53554646494349454e545f4260448201527f5f414d4f554e540000000000000000000000000000000000000000000000000060648201526084016104b4565b8e9950975087612adb565b6000612a3f8f8486613661565b90508f811115612a5f57634e487b7160e01b600052600160045260246000fd5b8d811015612ad55760405162461bcd60e51b815260206004820152602760248201527f506f636b657453776170526f757465723a20494e53554646494349454e545f4160448201527f5f414d4f554e540000000000000000000000000000000000000000000000000060648201526084016104b4565b99508d98505b505b60009650600095507f00000000000000000000000000000000000000000000000000000000000000006001600160a01b0316846001600160a01b031614158015612b5957507f00000000000000000000000000000000000000000000000000000000000000006001600160a01b0316836001600160a01b031614155b15612e56576040805160028082526060820183526000926020830190803683370190505090507f000000000000000000000000000000000000000000000000000000000000000081600081518110612bc157634e487b7160e01b600052603260045260246000fd5b6001600160a01b0392831660209182029290920101526040517fe6a439050000000000000000000000000000000000000000000000000000000081527f000000000000000000000000000000000000000000000000000000000000000082166004820152868216602482015260009188169063e6a439059060440160206040518083038186803b158015612c5457600080fd5b505afa158015612c68573d6000803e3d6000fd5b505050506040513d601f19601f82011682018060405250810190612c8c9190613dd1565b6001600160a01b031614612d14578481600181518110612cbc57634e487b7160e01b600052603260045260246000fd5b6001600160a01b0390921660209283029190910190910152612ce986612ce360028d614604565b83612414565b600081518110612d0957634e487b7160e01b600052603260045260246000fd5b602002602001015197505b6040517fe6a439050000000000000000000000000000000000000000000000000000000081526001600160a01b037f00000000000000000000000000000000000000000000000000000000000000008116600483015285811660248301526000919088169063e6a439059060440160206040518083038186803b158015612d9a57600080fd5b505afa158015612dae573d6000803e3d6000fd5b505050506040513d601f19601f82011682018060405250810190612dd29190613dd1565b6001600160a01b031614612e54578381600181518110612e0257634e487b7160e01b600052603260045260246000fd5b6001600160a01b0390921660209283029190910190910152612e2986612ce360028c614604565b600081518110612e4957634e487b7160e01b600052603260045260246000fd5b602002602001015196505b505b505050505095509550955095915050565b600080612e748382613c53565b9150612e81836014613c53565b9050915091565b6000612e958484846126bc565b9050336001600160a01b0382161461045457600080fd5b60007f00000000000000000000000000000000000000000000000000000000000000006001600160a01b0316856001600160a01b0316148015612ef25750814791508110155b1561302d577f00000000000000000000000000000000000000000000000000000000000000006001600160a01b031663d0e30db0826040518263ffffffff1660e01b81526004016000604051808303818588803b158015612f5257600080fd5b505af1158015612f66573d6000803e3d6000fd5b50506040517fa9059cbb0000000000000000000000000000000000000000000000000000000081526001600160a01b038781166004830152602482018790527f000000000000000000000000000000000000000000000000000000000000000016935063a9059cbb92506044019050602060405180830381600087803b158015612fef57600080fd5b505af1158015613003573d6000803e3d6000fd5b505050506040513d601f19601f820116820180604052508101906130279190613ed6565b5061305a565b6001600160a01b03841630141561304e5761304985848461376f565b61305a565b61305a8585858561322c565b5050505050565b60606002825110156130b55760405162461bcd60e51b815260206004820152601f60248201527f506f636b6574537761704c6962726172793a20494e56414c49445f504154480060448201526064016104b4565b815167ffffffffffffffff8111156130dd57634e487b7160e01b600052604160045260246000fd5b604051908082528060200260200182016040528015613106578160200160208202803683370190505b509050828160008151811061312b57634e487b7160e01b600052603260045260246000fd5b60200260200101818152505060005b600183516131489190614661565b8110156125f7576000806131aa8786858151811061317657634e487b7160e01b600052603260045260246000fd5b60200260200101518786600161318c91906145ec565b8151811061256857634e487b7160e01b600052603260045260246000fd5b915091506131e1878585815181106131d257634e487b7160e01b600052603260045260246000fd5b602002602001015184846120c9565b846131ed8560016145ec565b8151811061320b57634e487b7160e01b600052603260045260246000fd5b60200260200101818152505050508080613224906146d9565b91505061313a565b604080516001600160a01b0385811660248301528481166044830152606480830185905283518084039091018152608490920183526020820180517bffffffffffffffffffffffffffffffffffffffffffffffffffffffff167f23b872dd0000000000000000000000000000000000000000000000000000000017905291516000928392908816916132be9190614366565b6000604051808303816000865af19150503d80600081146132fb576040519150601f19603f3d011682016040523d82523d6000602084013e613300565b606091505b509150915081801561332a57508051158061332a57508080602001905181019061332a9190613ed6565b6133765760405162461bcd60e51b815260206004820152600360248201527f535446000000000000000000000000000000000000000000000000000000000060448201526064016104b4565b505050505050565b60008060006133908460000151612e67565b6040805160028082526060820183529395509193506000929060208301908036833701905050905081816000815181106133da57634e487b7160e01b600052603260045260246000fd5b60200260200101906001600160a01b031690816001600160a01b031681525050828160018151811061341c57634e487b7160e01b600052603260045260246000fd5b60200260200101906001600160a01b031690816001600160a01b0316815250506134677f00000000000000000000000000000000000000000000000000000000000000008883612414565b60008151811061348757634e487b7160e01b600052603260045260246000fd5b602002602001015193506123f686858988613a68565b60008084116135145760405162461bcd60e51b815260206004820152602d60248201527f506f636b6574537761704c6962726172793a20494e53554646494349454e545f60448201527f4f55545055545f414d4f554e540000000000000000000000000000000000000060648201526084016104b4565b6000831180156135245750600082115b6135965760405162461bcd60e51b815260206004820152602960248201527f506f636b6574537761704c6962726172793a20494e53554646494349454e545f60448201527f4c4951554944495459000000000000000000000000000000000000000000000060648201526084016104b4565b6000856001600160a01b031663ddca3f436040518163ffffffff1660e01b815260040160206040518083038186803b1580156135d157600080fd5b505afa1580156135e5573d6000803e3d6000fd5b505050506040513d601f19601f820116820180604052508101906136099190614147565b90506000613625633b9aca0061361f87896138b1565b906138b1565b9050600061364461363a84633b9aca00614661565b61361f878a613d23565b905061365560016122758385614604565b98975050505050505050565b60008084116136d85760405162461bcd60e51b815260206004820152602660248201527f506f636b6574537761704c6962726172793a20494e53554646494349454e545f60448201527f414d4f554e54000000000000000000000000000000000000000000000000000060648201526084016104b4565b6000831180156136e85750600082115b61375a5760405162461bcd60e51b815260206004820152602960248201527f506f636b6574537761704c6962726172793a20494e53554646494349454e545f60448201527f4c4951554944495459000000000000000000000000000000000000000000000060648201526084016104b4565b8261376585846138b1565b6104519190614604565b604080516001600160a01b038481166024830152604480830185905283518084039091018152606490920183526020820180517bffffffffffffffffffffffffffffffffffffffffffffffffffffffff167fa9059cbb0000000000000000000000000000000000000000000000000000000017905291516000928392908716916137f99190614366565b6000604051808303816000865af19150503d8060008114613836576040519150601f19603f3d011682016040523d82523d6000602084013e61383b565b606091505b50915091508180156138655750805115806138655750808060200190518101906138659190613ed6565b61305a5760405162461bcd60e51b815260206004820152600260248201527f535400000000000000000000000000000000000000000000000000000000000060448201526064016104b4565b60006104548284614624565b600061045482846145ec565b6060816138d781601f6145ec565b10156139255760405162461bcd60e51b815260206004820152600e60248201527f736c6963655f6f766572666c6f7700000000000000000000000000000000000060448201526064016104b4565b8261393083826145ec565b101561397e5760405162461bcd60e51b815260206004820152600e60248201527f736c6963655f6f766572666c6f7700000000000000000000000000000000000060448201526064016104b4565b61398882846145ec565b845110156139d85760405162461bcd60e51b815260206004820152601160248201527f736c6963655f6f75744f66426f756e647300000000000000000000000000000060448201526064016104b4565b6060821580156139f75760405191506000825260208201604052613a5f565b6040519150601f8416801560200281840101858101878315602002848b0101015b81831015613a30578051835260209283019201613a18565b5050858452601f017fffffffffffffffffffffffffffffffffffffffffffffffffffffffffffffffe016604052505b50949350505050565b600080613a788360000151612e67565b915091506000613a888383611dde565b9050613a9683338389612eac565b6000613aa2848461281c565b509050600080826001600160a01b0316866001600160a01b031614613ac957876000613acd565b6000885b91509150836001600160a01b031663022c0d9f83838d8b604051602001613af49190614458565b6040516020818303038152906040526040518563ffffffff1660e01b8152600401613b229493929190614493565b600060405180830381600087803b158015613b3c57600080fd5b505af1158015613b50573d6000803e3d6000fd5b5050505050505050505050505050565b6000806000613b6f858561281c565b5090506000613b7f8787876126bc565b90506000819050600080826001600160a01b0316630902f1ac6040518163ffffffff1660e01b815260040160606040518083038186803b158015613bc257600080fd5b505afa158015613bd6573d6000803e3d6000fd5b505050506040513d601f19601f82011682018060405250810190613bfa9190614104565b506dffffffffffffffffffffffffffff1691506dffffffffffffffffffffffffffff169150846001600160a01b0316896001600160a01b031614613c3f578082613c42565b81815b909b909a5098505050505050505050565b600081613c618160146145ec565b1015613caf5760405162461bcd60e51b815260206004820152601260248201527f746f416464726573735f6f766572666c6f77000000000000000000000000000060448201526064016104b4565b613cba8260146145ec565b83511015613d0a5760405162461bcd60e51b815260206004820152601560248201527f746f416464726573735f6f75744f66426f756e6473000000000000000000000060448201526064016104b4565b5001602001516c01000000000000000000000000900490565b60006104548284614661565b600082601f830112613d3f578081fd5b8135613d52613d4d826145a6565b614557565b818152846020838601011115613d66578283fd5b816020850160208301379081016020019190915292915050565b60006101008284031215610727578081fd5b80516dffffffffffffffffffffffffffff81168114613db057600080fd5b919050565b600060208284031215613dc6578081fd5b81356104548161473e565b600060208284031215613de2578081fd5b81516104548161473e565b60008060408385031215613dff578081fd5b8235613e0a8161473e565b91506020830135613e1a8161473e565b809150509250929050565b600080600060608486031215613e39578081fd5b8335613e448161473e565b9250602084013591506040840135613e5b8161473e565b809150509250925092565b60008060208385031215613e78578182fd5b823567ffffffffffffffff80821115613e8f578384fd5b818501915085601f830112613ea2578384fd5b813581811115613eb0578485fd5b8660208260051b8501011115613ec4578485fd5b60209290920196919550909350505050565b600060208284031215613ee7578081fd5b81518015158114610454578182fd5b600060208284031215613f07578081fd5b815167ffffffffffffffff811115613f1d578182fd5b8201601f81018413613f2d578182fd5b8051613f3b613d4d826145a6565b818152856020838501011115613f4f578384fd5b613f60826020830160208601614678565b95945050505050565b60006101008284031215613f7b578081fd5b6104548383613d80565b600060208284031215613f96578081fd5b813567ffffffffffffffff811115613fac578182fd5b820160a08185031215610454578182fd5b600060208284031215613fce578081fd5b813567ffffffffffffffff80821115613fe5578283fd5b9083019060408286031215613ff8578283fd5b60405160408101818110838211171561401357614013614728565b604052823582811115614024578485fd5b61403087828601613d2f565b825250602083013592506140438361473e565b6020810192909252509392505050565b600060208284031215614064578081fd5b813567ffffffffffffffff8082111561407b578283fd5b9083019060a0828603121561408e578283fd5b61409661452e565b8235828111156140a4578485fd5b6140b087828601613d2f565b825250602083013591506140c38261473e565b81602082015260408301356040820152606083013560608201526080830135608082015280935050505092915050565b600060c08284031215610727578081fd5b600080600060608486031215614118578081fd5b61412184613d92565b925061412f60208501613d92565b9150604084015163ffffffff81168114613e5b578182fd5b600060208284031215614158578081fd5b5051919050565b60008060408385031215614171578182fd5b823591506020830135613e1a8161473e565b60008060408385031215614195578182fd5b8235915060208084013567ffffffffffffffff808211156141b4578384fd5b818601915086601f8301126141c7578384fd5b8135818111156141d9576141d9614728565b8060051b91506141ea848301614557565b8181528481019084860184860187018b1015614204578788fd5b8795505b83861015614232578035945061421d8561473e565b84835260019590950194918601918601614208565b508096505050505050509250929050565b60008060408385031215614255578182fd5b505080516020909101519092909150565b6000806000806060858703121561427b578182fd5b8435935060208501359250604085013567ffffffffffffffff808211156142a0578384fd5b818701915087601f8301126142b3578384fd5b8135818111156142c1578485fd5b8860208285010111156142d2578485fd5b95989497505060200194505050565b6000806000606084860312156142f5578081fd5b505081359360208301359350604090920135919050565b60008151808452614324816020860160208601614678565b601f017fffffffffffffffffffffffffffffffffffffffffffffffffffffffffffffffe0169290920160200192915050565b8183823760009101908152919050565b60008251614378818460208701614678565b9190910192915050565b6000602080830181845280855180835260408601915060408160051b8701019250838701855b828110156143f4577fffffffffffffffffffffffffffffffffffffffffffffffffffffffffffffffc08886030184526143e285835161430c565b945092850192908501906001016143a8565b5092979650505050505050565b6020808252825182820181905260009190848201906040850190845b818110156144395783518352928401929184019160010161441d565b50909695505050505050565b602081526000610454602083018461430c565b602081526000825160406020840152614474606084018261430c565b90506001600160a01b0360208501511660408401528091505092915050565b8481528360208201526001600160a01b03831660408201526080606082015260006144c1608083018461430c565b9695505050505050565b60008083357fffffffffffffffffffffffffffffffffffffffffffffffffffffffffffffffe18436030181126144ff578283fd5b83018035915067ffffffffffffffff821115614519578283fd5b60200191503681900382131561292557600080fd5b60405160a0810167ffffffffffffffff8111828210171561455157614551614728565b60405290565b604051601f82017fffffffffffffffffffffffffffffffffffffffffffffffffffffffffffffffe016810167ffffffffffffffff8111828210171561459e5761459e614728565b604052919050565b600067ffffffffffffffff8211156145c0576145c0614728565b50601f017fffffffffffffffffffffffffffffffffffffffffffffffffffffffffffffffe01660200190565b600082198211156145ff576145ff614712565b500190565b60008261461f57634e487b7160e01b81526012600452602481fd5b500490565b6000817fffffffffffffffffffffffffffffffffffffffffffffffffffffffffffffffff048311821515161561465c5761465c614712565b500290565b60008282101561467357614673614712565b500390565b60005b8381101561469357818101518382015260200161467b565b838111156120c35750506000910152565b6000816146b3576146b3614712565b507fffffffffffffffffffffffffffffffffffffffffffffffffffffffffffffffff0190565b60007fffffffffffffffffffffffffffffffffffffffffffffffffffffffffffffffff82141561470b5761470b614712565b5060010190565b634e487b7160e01b600052601160045260246000fd5b634e487b7160e01b600052604160045260246000fd5b6001600160a01b038116811461475357600080fd5b5056fea2646970667358221220e073cc06f6a39022c616bc3483b9ec14e0ffd237602b5323eb8041885733429f64736f6c63430008040033",
  "immutableReferences": {
    "2388": [
      {
        "length": 32,
        "start": 888
      },
      {
        "length": 32,
        "start": 1066
      },
      {
        "length": 32,
        "start": 1457
      },
      {
        "length": 32,
        "start": 2367
      },
      {
        "length": 32,
        "start": 3360
      },
      {
        "length": 32,
        "start": 3468
      },
      {
        "length": 32,
        "start": 3835
      },
      {
        "length": 32,
        "start": 4069
      },
      {
        "length": 32,
        "start": 4725
      },
      {
        "length": 32,
        "start": 5574
      },
      {
        "length": 32,
        "start": 5712
      },
      {
        "length": 32,
        "start": 6277
      },
      {
        "length": 32,
        "start": 6525
      },
      {
        "length": 32,
        "start": 6809
      },
      {
        "length": 32,
        "start": 7280
      },
      {
        "length": 32,
        "start": 7653
      },
      {
        "length": 32,
        "start": 8097
      },
      {
        "length": 32,
        "start": 9114
      },
      {
        "length": 32,
        "start": 10550
      },
      {
        "length": 32,
        "start": 13377
      }
    ],
    "2392": [
      {
        "length": 32,
        "start": 529
      },
      {
        "length": 32,
        "start": 1886
      },
      {
        "length": 32,
        "start": 2157
      },
      {
        "length": 32,
        "start": 11952
      },
      {
        "length": 32,
        "start": 12025
      },
      {
        "length": 32,
        "start": 12199
      }
    ],
    "2396": [
      {
        "length": 32,
        "start": 940
      },
      {
        "length": 32,
        "start": 3615
      },
      {
        "length": 32,
        "start": 3676
      },
      {
        "length": 32,
        "start": 3790
      },
      {
        "length": 32,
        "start": 4029
      },
      {
        "length": 32,
        "start": 4479
      },
      {
        "length": 32,
        "start": 4556
      },
      {
        "length": 32,
        "start": 4820
      },
      {
        "length": 32,
        "start": 5069
      },
      {
        "length": 32,
        "start": 5282
      },
      {
        "length": 32,
        "start": 5431
      },
      {
        "length": 32,
        "start": 5465
      },
      {
        "length": 32,
        "start": 6036
      },
      {
        "length": 32,
        "start": 6109
      },
      {
        "length": 32,
        "start": 6389
      },
      {
        "length": 32,
        "start": 6640
      },
      {
        "length": 32,
        "start": 6861
      },
      {
        "length": 32,
        "start": 6904
      },
      {
        "length": 32,
        "start": 6969
      },
      {
        "length": 32,
        "start": 7023
      },
      {
        "length": 32,
        "start": 7337
      },
      {
        "length": 32,
        "start": 7418
      },
      {
        "length": 32,
        "start": 10983
      },
      {
        "length": 32,
        "start": 11044
      },
      {
        "length": 32,
        "start": 11137
      },
      {
        "length": 32,
        "start": 11263
      },
      {
        "length": 32,
        "start": 11588
      }
    ]
  },
  "source": "// SPDX-License-Identifier: Unlicensed\npragma solidity =0.8.4;\npragma abicoder v2;\n\nimport \"./router/SwapRouter.sol\";\nimport \"./router/LiquidityRouter.sol\";\nimport \"./abstract/PeripheryImmutableState.sol\";\n\ncontract PocketSwapRouter is\nPeripheryImmutableState,\nPeripheryValidation,\nSwapRouter,\nLiquidityRouter\n{\n    constructor(address _factory, address _WETH9, address _pocketToken)\n    PeripheryImmutableState(_factory, _WETH9, _pocketToken) {}\n}",
  "sourcePath": "/Users/ilyk/projects/midgardtech/xpocket-PocketSwap/contracts/pocketswap/PocketSwapRouter.sol",
  "compiler": {
    "name": "solc",
    "version": "0.8.4+commit.c7e474f2.Emscripten.clang"
  },
  "schemaVersion": "3.4.0",
  "updatedAt": "2021-05-12T06:40:42.262Z",
  "devdoc": {
    "kind": "dev",
    "methods": {
      "exactOutput((bytes,address,uint256,uint256,uint256))": {
        "params": {
          "params": "The parameters necessary for the multi-hop swap, encoded as `OutputParams` in calldata"
        },
        "returns": {
          "amountIn": "The amount of the input token"
        }
      },
      "exactOutputSingle((address,address,uint24,address,uint256,uint256,uint256,uint160))": {
        "params": {
          "params": "The parameters necessary for the swap, encoded as `OutputSingleParams` in calldata"
        },
        "returns": {
          "amountIn": "The amount of the input token"
        }
      },
      "multicall(bytes[])": {
        "details": "The `msg.value` should not be trusted for any method callable from multicall.",
        "params": {
          "data": "The encoded function data for each of the calls to make to this contract"
        },
        "returns": {
          "results": "The results from each of the calls passed in via data"
        }
      },
      "swap((address,address,address,uint256,uint256,uint256))": {
        "params": {
          "params": "The parameters necessary for the swap, encoded as `SwapParams` in calldata"
        },
        "returns": {
          "amountOut": "The amount of the received token"
        }
      },
      "swapMulti((bytes,address,uint256,uint256,uint256))": {
        "params": {
          "params": "The parameters necessary for the multi-hop swap, encoded as `SwapMultiParams` in calldata"
        },
        "returns": {
          "amountOut": "The amount of the received token"
        }
      },
      "sweepToken(address,uint256,address)": {
        "details": "The amountMinimum parameter prevents malicious contracts from stealing the token from users",
        "params": {
          "amountMinimum": "The minimum amount of token required for a transfer",
          "recipient": "The destination address of the token",
          "token": "The contract address of the token which will be transferred to `recipient`"
        }
      },
      "unwrapWETH9(uint256,address)": {
        "details": "The amountMinimum parameter prevents malicious contracts from stealing WETH9 from users.",
        "params": {
          "amountMinimum": "The minimum amount of WETH9 to unwrap",
          "recipient": "The address receiving ETH"
        }
      }
    },
    "version": 1
  },
  "userdoc": {
    "kind": "user",
    "methods": {
      "exactOutput((bytes,address,uint256,uint256,uint256))": {
        "notice": "Swaps as little as possible of one token for `amountOut` of another along the specified path (reversed)"
      },
      "exactOutputSingle((address,address,uint24,address,uint256,uint256,uint256,uint160))": {
        "notice": "Swaps as little as possible of one token for `amountOut` of another token"
      },
      "multicall(bytes[])": {
        "notice": "Call multiple functions in the current contract and return the data from all of them if they all succeed"
      },
      "swap((address,address,address,uint256,uint256,uint256))": {
        "notice": "Swaps `amountIn` of one token for as much as possible of another token"
      },
      "swapMulti((bytes,address,uint256,uint256,uint256))": {
        "notice": "Swaps `amountIn` of one token for as much as possible of another along the specified path"
      },
      "sweepToken(address,uint256,address)": {
        "notice": "Sends the full amount of a token held by this contract to the given recipient"
      },
      "unwrapWETH9(uint256,address)": {
        "notice": "Unwraps the contract's WETH9 balance and sends it to recipient as ETH."
      }
    },
    "version": 1
  }
}