{
  "contractName": "PocketSwapPair",
  "abi": [
    {
      "inputs": [],
      "stateMutability": "nonpayable",
      "type": "constructor"
    },
    {
      "anonymous": false,
      "inputs": [
        {
          "indexed": true,
          "internalType": "address",
          "name": "owner",
          "type": "address"
        },
        {
          "indexed": true,
          "internalType": "address",
          "name": "spender",
          "type": "address"
        },
        {
          "indexed": false,
          "internalType": "uint256",
          "name": "value",
          "type": "uint256"
        }
      ],
      "name": "Approval",
      "type": "event"
    },
    {
      "anonymous": false,
      "inputs": [
        {
          "indexed": true,
          "internalType": "address",
          "name": "sender",
          "type": "address"
        },
        {
          "indexed": false,
          "internalType": "uint256",
          "name": "amount0",
          "type": "uint256"
        },
        {
          "indexed": false,
          "internalType": "uint256",
          "name": "amount1",
          "type": "uint256"
        },
        {
          "indexed": true,
          "internalType": "address",
          "name": "to",
          "type": "address"
        }
      ],
      "name": "Burn",
      "type": "event"
    },
    {
      "anonymous": false,
      "inputs": [
        {
          "indexed": true,
          "internalType": "address",
          "name": "sender",
          "type": "address"
        },
        {
          "indexed": false,
          "internalType": "uint256",
          "name": "amount0",
          "type": "uint256"
        },
        {
          "indexed": false,
          "internalType": "uint256",
          "name": "amount1",
          "type": "uint256"
        }
      ],
      "name": "Mint",
      "type": "event"
    },
    {
      "anonymous": false,
      "inputs": [
        {
          "indexed": true,
          "internalType": "address",
          "name": "sender",
          "type": "address"
        },
        {
          "indexed": false,
          "internalType": "uint256",
          "name": "amount0In",
          "type": "uint256"
        },
        {
          "indexed": false,
          "internalType": "uint256",
          "name": "amount1In",
          "type": "uint256"
        },
        {
          "indexed": false,
          "internalType": "uint256",
          "name": "amount0Out",
          "type": "uint256"
        },
        {
          "indexed": false,
          "internalType": "uint256",
          "name": "amount1Out",
          "type": "uint256"
        },
        {
          "indexed": true,
          "internalType": "address",
          "name": "to",
          "type": "address"
        }
      ],
      "name": "Swap",
      "type": "event"
    },
    {
      "anonymous": false,
      "inputs": [
        {
          "indexed": false,
          "internalType": "uint112",
          "name": "reserve0",
          "type": "uint112"
        },
        {
          "indexed": false,
          "internalType": "uint112",
          "name": "reserve1",
          "type": "uint112"
        }
      ],
      "name": "Sync",
      "type": "event"
    },
    {
      "anonymous": false,
      "inputs": [
        {
          "indexed": true,
          "internalType": "address",
          "name": "from",
          "type": "address"
        },
        {
          "indexed": true,
          "internalType": "address",
          "name": "to",
          "type": "address"
        },
        {
          "indexed": false,
          "internalType": "uint256",
          "name": "value",
          "type": "uint256"
        }
      ],
      "name": "Transfer",
      "type": "event"
    },
    {
      "inputs": [],
      "name": "DOMAIN_SEPARATOR",
      "outputs": [
        {
          "internalType": "bytes32",
          "name": "",
          "type": "bytes32"
        }
      ],
      "stateMutability": "view",
      "type": "function"
    },
    {
      "inputs": [],
      "name": "MINIMUM_LIQUIDITY",
      "outputs": [
        {
          "internalType": "uint256",
          "name": "",
          "type": "uint256"
        }
      ],
      "stateMutability": "view",
      "type": "function"
    },
    {
      "inputs": [],
      "name": "PERMIT_TYPEHASH",
      "outputs": [
        {
          "internalType": "bytes32",
          "name": "",
          "type": "bytes32"
        }
      ],
      "stateMutability": "view",
      "type": "function"
    },
    {
      "inputs": [
        {
          "internalType": "address",
          "name": "",
          "type": "address"
        },
        {
          "internalType": "address",
          "name": "",
          "type": "address"
        }
      ],
      "name": "allowance",
      "outputs": [
        {
          "internalType": "uint256",
          "name": "",
          "type": "uint256"
        }
      ],
      "stateMutability": "view",
      "type": "function"
    },
    {
      "inputs": [
        {
          "internalType": "address",
          "name": "spender",
          "type": "address"
        },
        {
          "internalType": "uint256",
          "name": "value",
          "type": "uint256"
        }
      ],
      "name": "approve",
      "outputs": [
        {
          "internalType": "bool",
          "name": "",
          "type": "bool"
        }
      ],
      "stateMutability": "nonpayable",
      "type": "function"
    },
    {
      "inputs": [
        {
          "internalType": "address",
          "name": "",
          "type": "address"
        }
      ],
      "name": "balanceOf",
      "outputs": [
        {
          "internalType": "uint256",
          "name": "",
          "type": "uint256"
        }
      ],
      "stateMutability": "view",
      "type": "function"
    },
    {
      "inputs": [],
      "name": "decimals",
      "outputs": [
        {
          "internalType": "uint8",
          "name": "",
          "type": "uint8"
        }
      ],
      "stateMutability": "view",
      "type": "function"
    },
    {
      "inputs": [],
      "name": "factory",
      "outputs": [
        {
          "internalType": "address",
          "name": "",
          "type": "address"
        }
      ],
      "stateMutability": "view",
      "type": "function"
    },
    {
      "inputs": [],
      "name": "name",
      "outputs": [
        {
          "internalType": "string",
          "name": "",
          "type": "string"
        }
      ],
      "stateMutability": "view",
      "type": "function"
    },
    {
      "inputs": [
        {
          "internalType": "address",
          "name": "",
          "type": "address"
        }
      ],
      "name": "nonces",
      "outputs": [
        {
          "internalType": "uint256",
          "name": "",
          "type": "uint256"
        }
      ],
      "stateMutability": "view",
      "type": "function"
    },
    {
      "inputs": [
        {
          "internalType": "address",
          "name": "owner",
          "type": "address"
        },
        {
          "internalType": "address",
          "name": "spender",
          "type": "address"
        },
        {
          "internalType": "uint256",
          "name": "value",
          "type": "uint256"
        },
        {
          "internalType": "uint256",
          "name": "deadline",
          "type": "uint256"
        },
        {
          "internalType": "uint8",
          "name": "v",
          "type": "uint8"
        },
        {
          "internalType": "bytes32",
          "name": "r",
          "type": "bytes32"
        },
        {
          "internalType": "bytes32",
          "name": "s",
          "type": "bytes32"
        }
      ],
      "name": "permit",
      "outputs": [],
      "stateMutability": "nonpayable",
      "type": "function"
    },
    {
      "inputs": [],
      "name": "price0CumulativeLast",
      "outputs": [
        {
          "internalType": "uint256",
          "name": "",
          "type": "uint256"
        }
      ],
      "stateMutability": "view",
      "type": "function"
    },
    {
      "inputs": [],
      "name": "price1CumulativeLast",
      "outputs": [
        {
          "internalType": "uint256",
          "name": "",
          "type": "uint256"
        }
      ],
      "stateMutability": "view",
      "type": "function"
    },
    {
      "inputs": [],
      "name": "symbol",
      "outputs": [
        {
          "internalType": "string",
          "name": "",
          "type": "string"
        }
      ],
      "stateMutability": "view",
      "type": "function"
    },
    {
      "inputs": [],
      "name": "token0",
      "outputs": [
        {
          "internalType": "address",
          "name": "",
          "type": "address"
        }
      ],
      "stateMutability": "view",
      "type": "function"
    },
    {
      "inputs": [],
      "name": "token1",
      "outputs": [
        {
          "internalType": "address",
          "name": "",
          "type": "address"
        }
      ],
      "stateMutability": "view",
      "type": "function"
    },
    {
      "inputs": [],
      "name": "totalSupply",
      "outputs": [
        {
          "internalType": "uint256",
          "name": "",
          "type": "uint256"
        }
      ],
      "stateMutability": "view",
      "type": "function"
    },
    {
      "inputs": [
        {
          "internalType": "address",
          "name": "to",
          "type": "address"
        },
        {
          "internalType": "uint256",
          "name": "value",
          "type": "uint256"
        }
      ],
      "name": "transfer",
      "outputs": [
        {
          "internalType": "bool",
          "name": "",
          "type": "bool"
        }
      ],
      "stateMutability": "nonpayable",
      "type": "function"
    },
    {
      "inputs": [
        {
          "internalType": "address",
          "name": "from",
          "type": "address"
        },
        {
          "internalType": "address",
          "name": "to",
          "type": "address"
        },
        {
          "internalType": "uint256",
          "name": "value",
          "type": "uint256"
        }
      ],
      "name": "transferFrom",
      "outputs": [
        {
          "internalType": "bool",
          "name": "",
          "type": "bool"
        }
      ],
      "stateMutability": "nonpayable",
      "type": "function"
    },
    {
      "inputs": [],
      "name": "getReserves",
      "outputs": [
        {
          "internalType": "uint112",
          "name": "_reserve0",
          "type": "uint112"
        },
        {
          "internalType": "uint112",
          "name": "_reserve1",
          "type": "uint112"
        },
        {
          "internalType": "uint32",
          "name": "_blockTimestampLast",
          "type": "uint32"
        }
      ],
      "stateMutability": "view",
      "type": "function"
    },
    {
      "inputs": [
        {
          "internalType": "address",
          "name": "_token0",
          "type": "address"
        },
        {
          "internalType": "address",
          "name": "_token1",
          "type": "address"
        }
      ],
      "name": "initialize",
      "outputs": [],
      "stateMutability": "nonpayable",
      "type": "function"
    },
    {
      "inputs": [
        {
          "internalType": "address",
          "name": "to",
          "type": "address"
        }
      ],
      "name": "mint",
      "outputs": [
        {
          "internalType": "uint256",
          "name": "liquidity",
          "type": "uint256"
        }
      ],
      "stateMutability": "nonpayable",
      "type": "function"
    },
    {
      "inputs": [
        {
          "internalType": "address",
          "name": "to",
          "type": "address"
        }
      ],
      "name": "burn",
      "outputs": [
        {
          "internalType": "uint256",
          "name": "amount0",
          "type": "uint256"
        },
        {
          "internalType": "uint256",
          "name": "amount1",
          "type": "uint256"
        }
      ],
      "stateMutability": "nonpayable",
      "type": "function"
    },
    {
      "inputs": [
        {
          "internalType": "uint256",
          "name": "amount0Out",
          "type": "uint256"
        },
        {
          "internalType": "uint256",
          "name": "amount1Out",
          "type": "uint256"
        },
        {
          "internalType": "address",
          "name": "to",
          "type": "address"
        },
        {
          "internalType": "bytes",
          "name": "data",
          "type": "bytes"
        }
      ],
      "name": "swap",
      "outputs": [],
      "stateMutability": "nonpayable",
      "type": "function"
    },
    {
      "inputs": [
        {
          "internalType": "address",
          "name": "to",
          "type": "address"
        }
      ],
      "name": "skim",
      "outputs": [],
      "stateMutability": "nonpayable",
      "type": "function"
    },
    {
      "inputs": [],
      "name": "sync",
      "outputs": [],
      "stateMutability": "nonpayable",
      "type": "function"
    }
  ],
  "bytecode": "0x60806040526001600b5534801561001557600080fd5b50604080518082018252600a8152690506f636b6574537761760b41b6020918201528151808301835260018152603160f81b9082015281517f8b73c3c69bb8fe3d512ecc4cf759cc79239f7b179b0ffacaa9a75d522b39400f818301527f139f1c71b7c3168b7aeac519a0d6ee819b7e7428c66952642d99299cb2a31352818401527fc89efdaa54c0f20c7adf612882df0950f5a951637e0307cdcb4c672f298b8bc660608201524660808201523060a0808301919091528351808303909101815260c09091019092528151910120600355600580546001600160a01b03191633179055613065806101086000396000f3fe608060405234801561001057600080fd5b50600436106101ae5760003560e01c80636a627842116100ee578063ba9a7a5611610097578063d21220a711610071578063d21220a714610487578063d505accf146104a7578063dd62ed3e146104ba578063fff6cae9146104e557600080fd5b8063ba9a7a561461044b578063bc25cf7714610454578063c45a01551461046757600080fd5b806389afcb44116100c857806389afcb44146103d457806395d89b41146103fc578063a9059cbb1461043857600080fd5b80636a6278421461038157806370a08231146103945780637ecebe00146103b457600080fd5b806323b872dd1161015b5780633644e515116101355780633644e51514610353578063485cc9551461035c5780635909c0d51461036f5780635a3d54931461037857600080fd5b806323b872dd146102ff57806330adf81f14610312578063313ce5671461033957600080fd5b8063095ea7b31161018c578063095ea7b3146102805780630dfe1681146102a357806318160ddd146102e857600080fd5b8063022c0d9f146101b357806306fdde03146101c85780630902f1ac1461021a575b600080fd5b6101c66101c1366004612b1d565b6104ed565b005b6102046040518060400160405280600a81526020017f506f636b6574537761700000000000000000000000000000000000000000000081525081565b6040516102119190612c52565b60405180910390f35b600a54604080516dffffffffffffffffffffffffffff80841682526e01000000000000000000000000000084041660208201527c010000000000000000000000000000000000000000000000000000000090920463ffffffff1690820152606001610211565b61029361028e366004612abc565b610f2d565b6040519015158152602001610211565b6006546102c39073ffffffffffffffffffffffffffffffffffffffff1681565b60405173ffffffffffffffffffffffffffffffffffffffff9091168152602001610211565b6102f160005481565b604051908152602001610211565b61029361030d366004612a10565b610f43565b6102f17f6e71edae12b1b97f4d1f60370fef10105fa2faae0126114a169c64845d6126c981565b610341601281565b60405160ff9091168152602001610211565b6102f160035481565b6101c661036a3660046129de565b61101c565b6102f160085481565b6102f160095481565b6102f161038f3660046129c4565b6110f0565b6102f16103a23660046129c4565b60016020526000908152604090205481565b6102f16103c23660046129c4565b60046020526000908152604090205481565b6103e76103e23660046129c4565b611499565b60408051928352602083019190915201610211565b6102046040518060400160405280600781526020017f50532d504149520000000000000000000000000000000000000000000000000081525081565b610293610446366004612abc565b611943565b6102f16103e881565b6101c66104623660046129c4565b611950565b6005546102c39073ffffffffffffffffffffffffffffffffffffffff1681565b6007546102c39073ffffffffffffffffffffffffffffffffffffffff1681565b6101c66104b5366004612a4b565b611b22565b6102f16104c83660046129de565b600260209081526000928352604080842090915290825290205481565b6101c6611e0d565b600b5460011461055e576040517f08c379a000000000000000000000000000000000000000000000000000000000815260206004820152601260248201527f506f636b6574537761703a204c4f434b4544000000000000000000000000000060448201526064015b60405180910390fd5b6000600b55841515806105715750600084115b6105fd576040517f08c379a000000000000000000000000000000000000000000000000000000000815260206004820152602660248201527f506f636b6574537761703a20494e53554646494349454e545f4f55545055545f60448201527f414d4f554e5400000000000000000000000000000000000000000000000000006064820152608401610555565b600080610659600a546dffffffffffffffffffffffffffff808216926e01000000000000000000000000000083049091169163ffffffff7c01000000000000000000000000000000000000000000000000000000009091041690565b5091509150816dffffffffffffffffffffffffffff168710801561068c5750806dffffffffffffffffffffffffffff1686105b610718576040517f08c379a000000000000000000000000000000000000000000000000000000000815260206004820152602260248201527f506f636b6574537761703a20494e53554646494349454e545f4c49515549444960448201527f54590000000000000000000000000000000000000000000000000000000000006064820152608401610555565b600654600754600091829173ffffffffffffffffffffffffffffffffffffffff91821691908116908916821480159061077d57508073ffffffffffffffffffffffffffffffffffffffff168973ffffffffffffffffffffffffffffffffffffffff1614155b6107e3576040517f08c379a000000000000000000000000000000000000000000000000000000000815260206004820152601660248201527f506f636b6574537761703a20494e56414c49445f544f000000000000000000006044820152606401610555565b8a156107f4576107f4828a8d611ff7565b891561080557610805818a8c611ff7565b6040517f70a0823100000000000000000000000000000000000000000000000000000000815230600482015273ffffffffffffffffffffffffffffffffffffffff8316906370a082319060240160206040518083038186803b15801561086a57600080fd5b505afa15801561087e573d6000803e3d6000fd5b505050506040513d601f19601f820116820180604052508101906108a29190612b05565b6040517f70a0823100000000000000000000000000000000000000000000000000000000815230600482015290945073ffffffffffffffffffffffffffffffffffffffff8216906370a082319060240160206040518083038186803b15801561090a57600080fd5b505afa15801561091e573d6000803e3d6000fd5b505050506040513d601f19601f820116820180604052508101906109429190612b05565b92505050600089856dffffffffffffffffffffffffffff166109649190612de6565b8311610971576000610995565b61098b8a6dffffffffffffffffffffffffffff8716612de6565b6109959084612de6565b905060006109b38a6dffffffffffffffffffffffffffff8716612de6565b83116109c05760006109e4565b6109da8a6dffffffffffffffffffffffffffff8716612de6565b6109e49084612de6565b905060008211806109f55750600081115b610a81576040517f08c379a000000000000000000000000000000000000000000000000000000000815260206004820152602560248201527f506f636b6574537761703a20494e53554646494349454e545f494e5055545f4160448201527f4d4f554e540000000000000000000000000000000000000000000000000000006064820152608401610555565b600554604080517fddca3f43000000000000000000000000000000000000000000000000000000008152905160009273ffffffffffffffffffffffffffffffffffffffff169163ddca3f43916004808301926020929190829003018186803b158015610aec57600080fd5b505afa158015610b00573d6000803e3d6000fd5b505050506040513d601f19601f82011682018060405250810190610b249190612b05565b90506000610b49610b358584612197565b610b4388633b9aca00612197565b906121aa565b90506000610b5a610b358585612197565b9050610b8b670de0b6b3a7640000610b856dffffffffffffffffffffffffffff8c8116908c16612197565b90612197565b610b958383612197565b1015610bfd576040517f08c379a000000000000000000000000000000000000000000000000000000000815260206004820152600d60248201527f506f636b6574537761703a204b000000000000000000000000000000000000006044820152606401610555565b505087159050610ead57600554604080517f46870d2b000000000000000000000000000000000000000000000000000000008152905160009273ffffffffffffffffffffffffffffffffffffffff16916346870d2b916004808301926020929190829003018186803b158015610c7257600080fd5b505afa158015610c86573d6000803e3d6000fd5b505050506040513d601f19601f82011682018060405250810190610caa9190612b05565b600654909150610ce99073ffffffffffffffffffffffffffffffffffffffff1633633b9aca00610cda858a612da9565b610ce49190612d51565b6121b6565b600754610d169073ffffffffffffffffffffffffffffffffffffffff1633633b9aca00610cda8589612da9565b6040517f7936cd900000000000000000000000000000000000000000000000000000000081523390637936cd9090610d58908f908f908e908e90600401612ca3565b600060405180830381600087803b158015610d7257600080fd5b505af1925050508015610d83575060015b610e6157610d8f612f6f565b806308c379a01415610e1e5750610da4612f87565b80610daf5750610e20565b80604051602001610dc09190612c0d565b604080517fffffffffffffffffffffffffffffffffffffffffffffffffffffffffffffffe0818403018152908290527f08c379a000000000000000000000000000000000000000000000000000000000825261055591600401612c52565b505b3d808015610e4a576040519150601f19603f3d011682016040523d82523d6000602084013e610e4f565b606091505b5080604051602001610dc09190612bc8565b600654610e869073ffffffffffffffffffffffffffffffffffffffff163360006121b6565b600754610eab9073ffffffffffffffffffffffffffffffffffffffff163360006121b6565b505b610eb98484888861234f565b60408051838152602081018390529081018c9052606081018b905273ffffffffffffffffffffffffffffffffffffffff8a169033907fd78ad95fa46c994b6551d0da85fc275fe613ce37657fb8d5e3d130840159d8229060800160405180910390a350506001600b55505050505050505050565b6000610f3a33848461262b565b50600192915050565b73ffffffffffffffffffffffffffffffffffffffff831660009081526002602090815260408083203384529091528120547fffffffffffffffffffffffffffffffffffffffffffffffffffffffffffffffff146110075773ffffffffffffffffffffffffffffffffffffffff84166000908152600260209081526040808320338452909152902054610fd590836121aa565b73ffffffffffffffffffffffffffffffffffffffff851660009081526002602090815260408083203384529091529020555b61101284848461269a565b5060019392505050565b60055473ffffffffffffffffffffffffffffffffffffffff16331461109d576040517f08c379a000000000000000000000000000000000000000000000000000000000815260206004820152601560248201527f506f636b6574537761703a20464f5242494444454e00000000000000000000006044820152606401610555565b6006805473ffffffffffffffffffffffffffffffffffffffff9384167fffffffffffffffffffffffff00000000000000000000000000000000000000009182161790915560078054929093169116179055565b6000600b5460011461115e576040517f08c379a000000000000000000000000000000000000000000000000000000000815260206004820152601260248201527f506f636b6574537761703a204c4f434b454400000000000000000000000000006044820152606401610555565b6000600b819055600a54600654604080517f70a0823100000000000000000000000000000000000000000000000000000000815230600482015290516dffffffffffffffffffffffffffff808516956e01000000000000000000000000000090950416939273ffffffffffffffffffffffffffffffffffffffff16916370a08231916024808301926020929190829003018186803b1580156111ff57600080fd5b505afa158015611213573d6000803e3d6000fd5b505050506040513d601f19601f820116820180604052508101906112379190612b05565b6007546040517f70a0823100000000000000000000000000000000000000000000000000000000815230600482015291925060009173ffffffffffffffffffffffffffffffffffffffff909116906370a082319060240160206040518083038186803b1580156112a657600080fd5b505afa1580156112ba573d6000803e3d6000fd5b505050506040513d601f19601f820116820180604052508101906112de9190612b05565b905060006112fc836dffffffffffffffffffffffffffff87166121aa565b9050600061131a836dffffffffffffffffffffffffffff87166121aa565b600054909150806113515761133d6103e8610b436113388686612197565b612767565b975061134c60006103e86127d7565b6113a6565b6113a36dffffffffffffffffffffffffffff881661136f8584612197565b6113799190612d51565b6dffffffffffffffffffffffffffff88166113948585612197565b61139e9190612d51565b612880565b97505b60008811611436576040517f08c379a000000000000000000000000000000000000000000000000000000000815260206004820152602960248201527f506f636b6574537761703a20494e53554646494349454e545f4c49515549444960448201527f54595f4d494e54454400000000000000000000000000000000000000000000006064820152608401610555565b61144089896127d7565b61144c8585898961234f565b604080518481526020810184905233917f4c209b5fc8ad50758f13e2e1088ba56a560dff690a1c6fef26394f4c03821c4f910160405180910390a250506001600b55509395945050505050565b600080600b54600114611508576040517f08c379a000000000000000000000000000000000000000000000000000000000815260206004820152601260248201527f506f636b6574537761703a204c4f434b454400000000000000000000000000006044820152606401610555565b6000600b819055600a54600654600754604080517f70a0823100000000000000000000000000000000000000000000000000000000815230600482015290516dffffffffffffffffffffffffffff808616966e010000000000000000000000000000909604169473ffffffffffffffffffffffffffffffffffffffff94851694909316929184916370a0823191602480820192602092909190829003018186803b1580156115b557600080fd5b505afa1580156115c9573d6000803e3d6000fd5b505050506040513d601f19601f820116820180604052508101906115ed9190612b05565b6040517f70a0823100000000000000000000000000000000000000000000000000000000815230600482015290915060009073ffffffffffffffffffffffffffffffffffffffff8416906370a082319060240160206040518083038186803b15801561165857600080fd5b505afa15801561166c573d6000803e3d6000fd5b505050506040513d601f19601f820116820180604052508101906116909190612b05565b30600090815260016020526040812054905491925090806116b18386612197565b6116bb9190612d51565b9950806116c88385612197565b6116d29190612d51565b985060008a1180156116e45750600089115b611770576040517f08c379a000000000000000000000000000000000000000000000000000000000815260206004820152602960248201527f506f636b6574537761703a20494e53554646494349454e545f4c49515549444960448201527f54595f4255524e454400000000000000000000000000000000000000000000006064820152608401610555565b61177a3083612896565b611785868c8c611ff7565b611790858c8b611ff7565b6040517f70a0823100000000000000000000000000000000000000000000000000000000815230600482015273ffffffffffffffffffffffffffffffffffffffff8716906370a082319060240160206040518083038186803b1580156117f557600080fd5b505afa158015611809573d6000803e3d6000fd5b505050506040513d601f19601f8201168201806040525081019061182d9190612b05565b6040517f70a0823100000000000000000000000000000000000000000000000000000000815230600482015290945073ffffffffffffffffffffffffffffffffffffffff8616906370a082319060240160206040518083038186803b15801561189557600080fd5b505afa1580156118a9573d6000803e3d6000fd5b505050506040513d601f19601f820116820180604052508101906118cd9190612b05565b92506118db84848a8a61234f565b604080518b8152602081018b905273ffffffffffffffffffffffffffffffffffffffff8d169133917fdccd412f0b1252819cb1fd330b93224ca42612892bb3f4f789976e6d81936496910160405180910390a350505050505050506001600b81905550915091565b6000610f3a33848461269a565b600b546001146119bc576040517f08c379a000000000000000000000000000000000000000000000000000000000815260206004820152601260248201527f506f636b6574537761703a204c4f434b454400000000000000000000000000006044820152606401610555565b6000600b55600654600754600a546040517f70a0823100000000000000000000000000000000000000000000000000000000815230600482015273ffffffffffffffffffffffffffffffffffffffff9384169390921691611a939184918691611a8e916dffffffffffffffffffffffffffff9091169084906370a08231906024015b60206040518083038186803b158015611a5657600080fd5b505afa158015611a6a573d6000803e3d6000fd5b505050506040513d601f19601f82011682018060405250810190610b439190612b05565b611ff7565b600a546040517f70a08231000000000000000000000000000000000000000000000000000000008152306004820152611b189183918691611a8e916e0100000000000000000000000000009091046dffffffffffffffffffffffffffff169073ffffffffffffffffffffffffffffffffffffffff8516906370a0823190602401611a3e565b50506001600b5550565b42841015611b8c576040517f08c379a000000000000000000000000000000000000000000000000000000000815260206004820152601360248201527f506f636b6574537761703a2045585049524544000000000000000000000000006044820152606401610555565b60035473ffffffffffffffffffffffffffffffffffffffff8816600090815260046020526040812080549192917f6e71edae12b1b97f4d1f60370fef10105fa2faae0126114a169c64845d6126c9918b918b918b919087611bec83612ec4565b9091555060408051602081019690965273ffffffffffffffffffffffffffffffffffffffff94851690860152929091166060840152608083015260a082015260c0810187905260e00160405160208183030381529060405280519060200120604051602001611c8d9291907f190100000000000000000000000000000000000000000000000000000000000081526002810192909252602282015260420190565b604080517fffffffffffffffffffffffffffffffffffffffffffffffffffffffffffffffe08184030181528282528051602091820120600080855291840180845281905260ff88169284019290925260608301869052608083018590529092509060019060a0016020604051602081039080840390855afa158015611d16573d6000803e3d6000fd5b50506040517fffffffffffffffffffffffffffffffffffffffffffffffffffffffffffffffe0015191505073ffffffffffffffffffffffffffffffffffffffff811615801590611d9157508873ffffffffffffffffffffffffffffffffffffffff168173ffffffffffffffffffffffffffffffffffffffff16145b611df7576040517f08c379a000000000000000000000000000000000000000000000000000000000815260206004820152601d60248201527f506f636b6574537761703a20494e56414c49445f5349474e41545552450000006044820152606401610555565b611e0289898961262b565b505050505050505050565b600b54600114611e79576040517f08c379a000000000000000000000000000000000000000000000000000000000815260206004820152601260248201527f506f636b6574537761703a204c4f434b454400000000000000000000000000006044820152606401610555565b6000600b556006546040517f70a08231000000000000000000000000000000000000000000000000000000008152306004820152611ff09173ffffffffffffffffffffffffffffffffffffffff16906370a082319060240160206040518083038186803b158015611ee957600080fd5b505afa158015611efd573d6000803e3d6000fd5b505050506040513d601f19601f82011682018060405250810190611f219190612b05565b6007546040517f70a0823100000000000000000000000000000000000000000000000000000000815230600482015273ffffffffffffffffffffffffffffffffffffffff909116906370a082319060240160206040518083038186803b158015611f8a57600080fd5b505afa158015611f9e573d6000803e3d6000fd5b505050506040513d601f19601f82011682018060405250810190611fc29190612b05565b600a546dffffffffffffffffffffffffffff808216916e01000000000000000000000000000090041661234f565b6001600b55565b604080518082018252601981527f7472616e7366657228616464726573732c75696e743235362900000000000000602091820152815173ffffffffffffffffffffffffffffffffffffffff85811660248301526044808301869052845180840390910181526064909201845291810180517bffffffffffffffffffffffffffffffffffffffffffffffffffffffff167fa9059cbb00000000000000000000000000000000000000000000000000000000179052915160009283928716916120be9190612bac565b6000604051808303816000865af19150503d80600081146120fb576040519150601f19603f3d011682016040523d82523d6000602084013e612100565b606091505b509150915081801561212a57508051158061212a57508080602001905181019061212a9190612ae5565b612190576040517f08c379a000000000000000000000000000000000000000000000000000000000815260206004820152601b60248201527f506f636b6574537761703a205452414e534645525f4641494c454400000000006044820152606401610555565b5050505050565b60006121a38284612da9565b9392505050565b60006121a38284612de6565b604080518082018252601881527f617070726f766528616464726573732c75696e74323536290000000000000000602091820152815173ffffffffffffffffffffffffffffffffffffffff85811660248301526044808301869052845180840390910181526064909201845291810180517bffffffffffffffffffffffffffffffffffffffffffffffffffffffff167f095ea7b3000000000000000000000000000000000000000000000000000000001790529151600092839287169161227d9190612bac565b6000604051808303816000865af19150503d80600081146122ba576040519150601f19603f3d011682016040523d82523d6000602084013e6122bf565b606091505b50915091508180156122e95750805115806122e95750808060200190518101906122e99190612ae5565b612190576040517f08c379a000000000000000000000000000000000000000000000000000000000815260206004820152601a60248201527f506f636b6574537761703a20415050524f56455f4641494c45440000000000006044820152606401610555565b6dffffffffffffffffffffffffffff841180159061237b57506dffffffffffffffffffffffffffff8311155b6123e1576040517f08c379a000000000000000000000000000000000000000000000000000000000815260206004820152601460248201527f506f636b6574537761703a204f564552464c4f570000000000000000000000006044820152606401610555565b60006123f264010000000042612efd565b600a5490915060009061242b907c0100000000000000000000000000000000000000000000000000000000900463ffffffff1683612dfd565b905060008163ffffffff1611801561245257506dffffffffffffffffffffffffffff841615155b801561246d57506dffffffffffffffffffffffffffff831615155b1561253b578063ffffffff166124aa8561248686612947565b7bffffffffffffffffffffffffffffffffffffffffffffffffffffffff1690612978565b7bffffffffffffffffffffffffffffffffffffffffffffffffffffffff166124d29190612da9565b600860008282546124e39190612cfe565b909155505063ffffffff81166124fc8461248687612947565b7bffffffffffffffffffffffffffffffffffffffffffffffffffffffff166125249190612da9565b600960008282546125359190612cfe565b90915550505b600a805463ffffffff84167c0100000000000000000000000000000000000000000000000000000000027bffffffffffffffffffffffffffffffffffffffffffffffffffffffff6dffffffffffffffffffffffffffff8981166e0100000000000000000000000000009081027fffffffff000000000000000000000000000000000000000000000000000000009095168c83161794909417918216831794859055604080519382169282169290921783529290930490911660208201527f1c411e9a96e071241c2f21f7726b17ae89e3cab4c78be50e062b03a9fffbbad1910160405180910390a1505050505050565b73ffffffffffffffffffffffffffffffffffffffff83811660008181526002602090815260408083209487168084529482529182902085905590518481527f8c5be1e5ebec7d5bd14f71427d1e84f3dd0314c0f7b2291e5b200ac8c7c3b92591015b60405180910390a3505050565b73ffffffffffffffffffffffffffffffffffffffff83166000908152600160205260409020546126ca90826121aa565b73ffffffffffffffffffffffffffffffffffffffff80851660009081526001602052604080822093909355908416815220546127069082612994565b73ffffffffffffffffffffffffffffffffffffffff80841660008181526001602052604090819020939093559151908516907fddf252ad1be2c89b69c2b068fc378daa952ba7f163c4a11628f55a4df523b3ef9061268d9085815260200190565b600060038211156127c85750806000612781600283612d51565b61278c906001612cfe565b90505b818110156127c2579050806002816127a78186612d51565b6127b19190612cfe565b6127bb9190612d51565b905061278f565b50919050565b81156127d2575060015b919050565b6000546127e49082612994565b600090815573ffffffffffffffffffffffffffffffffffffffff83168152600160205260409020546128169082612994565b73ffffffffffffffffffffffffffffffffffffffff83166000818152600160205260408082209390935591519091907fddf252ad1be2c89b69c2b068fc378daa952ba7f163c4a11628f55a4df523b3ef906128749085815260200190565b60405180910390a35050565b600081831061288f57816121a3565b5090919050565b73ffffffffffffffffffffffffffffffffffffffff82166000908152600160205260409020546128c690826121aa565b73ffffffffffffffffffffffffffffffffffffffff8316600090815260016020526040812091909155546128fa90826121aa565b600090815560405182815273ffffffffffffffffffffffffffffffffffffffff8416907fddf252ad1be2c89b69c2b068fc378daa952ba7f163c4a11628f55a4df523b3ef90602001612874565b60006129726e0100000000000000000000000000006dffffffffffffffffffffffffffff8416612d65565b92915050565b60006121a36dffffffffffffffffffffffffffff831684612d16565b60006121a38284612cfe565b803573ffffffffffffffffffffffffffffffffffffffff811681146127d257600080fd5b6000602082840312156129d5578081fd5b6121a3826129a0565b600080604083850312156129f0578081fd5b6129f9836129a0565b9150612a07602084016129a0565b90509250929050565b600080600060608486031215612a24578081fd5b612a2d846129a0565b9250612a3b602085016129a0565b9150604084013590509250925092565b600080600080600080600060e0888a031215612a65578283fd5b612a6e886129a0565b9650612a7c602089016129a0565b95506040880135945060608801359350608088013560ff81168114612a9f578384fd5b9699959850939692959460a0840135945060c09093013592915050565b60008060408385031215612ace578182fd5b612ad7836129a0565b946020939093013593505050565b600060208284031215612af6578081fd5b815180151581146121a3578182fd5b600060208284031215612b16578081fd5b5051919050565b600080600080600060808688031215612b34578081fd5b8535945060208601359350612b4b604087016129a0565b9250606086013567ffffffffffffffff80821115612b67578283fd5b818801915088601f830112612b7a578283fd5b813581811115612b88578384fd5b896020828501011115612b99578384fd5b9699959850939650602001949392505050565b60008251612bbe818460208701612e22565b9190910192915050565b7f4e4f4b2062213a20000000000000000000000000000000000000000000000000815260008251612c00816008850160208701612e22565b9190910160080192915050565b7f4e4f4b3a20000000000000000000000000000000000000000000000000000000815260008251612c45816005850160208701612e22565b9190910160050192915050565b6020815260008251806020840152612c71816040850160208701612e22565b601f017fffffffffffffffffffffffffffffffffffffffffffffffffffffffffffffffe0169190910160400192915050565b84815283602082015260606040820152816060820152818360808301376000818301608090810191909152601f9092017fffffffffffffffffffffffffffffffffffffffffffffffffffffffffffffffe01601019392505050565b60008219821115612d1157612d11612f11565b500190565b60007bffffffffffffffffffffffffffffffffffffffffffffffffffffffff80841680612d4557612d45612f40565b92169190910492915050565b600082612d6057612d60612f40565b500490565b60007bffffffffffffffffffffffffffffffffffffffffffffffffffffffff80831681851681830481118215151615612da057612da0612f11565b02949350505050565b6000817fffffffffffffffffffffffffffffffffffffffffffffffffffffffffffffffff0483118215151615612de157612de1612f11565b500290565b600082821015612df857612df8612f11565b500390565b600063ffffffff83811690831681811015612e1a57612e1a612f11565b039392505050565b60005b83811015612e3d578181015183820152602001612e25565b83811115612e4c576000848401525b50505050565b7fffffffffffffffffffffffffffffffffffffffffffffffffffffffffffffffe0601f830116810181811067ffffffffffffffff82111715612ebd577f4e487b7100000000000000000000000000000000000000000000000000000000600052604160045260246000fd5b6040525050565b60007fffffffffffffffffffffffffffffffffffffffffffffffffffffffffffffffff821415612ef657612ef6612f11565b5060010190565b600082612f0c57612f0c612f40565b500690565b7f4e487b7100000000000000000000000000000000000000000000000000000000600052601160045260246000fd5b7f4e487b7100000000000000000000000000000000000000000000000000000000600052601260045260246000fd5b600060033d1115612f8457600481823e5160e01c5b90565b600060443d1015612f955790565b6040517ffffffffffffffffffffffffffffffffffffffffffffffffffffffffffffffffc803d016004833e81513d67ffffffffffffffff8160248401118184111715612fe357505050505090565b8285019150815181811115612ffb5750505050505090565b843d87010160208285010111156130155750505050505090565b61302460208286010187612e52565b50909594505050505056fea264697066735822122059894b6233f05870022f1d7cd847aa96ba749cfe64915676b316e74a722cca6e64736f6c63430008040033",
  "immutableReferences": {},
  "source": "// SPDX-License-Identifier: Unlicensed\npragma solidity =0.8.4;\n\nimport '@openzeppelin/contracts/token/ERC20/IERC20.sol';\n\nimport './libraries/Math.sol';\nimport './libraries/UQ112x112.sol';\n\nimport './PocketSwapERC20.sol';\nimport './interfaces/IPocketSwapFactory.sol';\nimport \"./interfaces/IPocketSwapPair.sol\";\nimport \"./interfaces/callback/IPocketSwapCallback.sol\";\nimport \"./pair/StorageData.sol\";\nimport \"./libraries/PlainMath.sol\";\n\ncontract PocketSwapPair is\nPocketSwapERC20,\nStorageData\n{\n    using PlainMath  for uint;\n    using UQ112x112 for uint224;\n\n    bytes4 private constant SELECTOR = bytes4(keccak256(bytes('transfer(address,uint256)')));\n    bytes4 private constant ASELECTOR = bytes4(keccak256(bytes('approve(address,uint256)')));\n\n    uint112 private reserve0;           // uses single storage slot, accessible via getReserves\n    uint112 private reserve1;           // uses single storage slot, accessible via getReserves\n    uint32  private blockTimestampLast; // uses single storage slot, accessible via getReserves\n\n    uint private unlocked = 1;\n\n    modifier lock() {\n        require(unlocked == 1, 'PocketSwap: LOCKED');\n        unlocked = 0;\n        _;\n        unlocked = 1;\n    }\n\n    function getReserves() public override view returns (uint112 _reserve0, uint112 _reserve1, uint32 _blockTimestampLast) {\n        _reserve0 = reserve0;\n        _reserve1 = reserve1;\n        _blockTimestampLast = blockTimestampLast;\n    }\n\n    function _safeTransfer(address token, address to, uint value) private {\n        (bool success, bytes memory data) = token.call(abi.encodeWithSelector(SELECTOR, to, value));\n        require(success && (data.length == 0 || abi.decode(data, (bool))), 'PocketSwap: TRANSFER_FAILED');\n    }\n\n    function _safeApprove(address token, address to, uint value) private {\n        (bool success, bytes memory data) = token.call(abi.encodeWithSelector(ASELECTOR, to, value));\n        require(success && (data.length == 0 || abi.decode(data, (bool))), 'PocketSwap: APPROVE_FAILED');\n    }\n\n    constructor() {\n        factory = msg.sender;\n    }\n\n    // called once by the factory at time of deployment\n    function initialize(address _token0, address _token1) external override {\n        require(msg.sender == factory, 'PocketSwap: FORBIDDEN');\n        // sufficient check\n        token0 = _token0;\n        token1 = _token1;\n    }\n\n    // update reserves and, on the first call per block, price accumulators\n    function _update(uint balance0, uint balance1, uint112 _reserve0, uint112 _reserve1) private {\n        require(balance0 <= type(uint112).max && balance1 <= type(uint112).max, 'PocketSwap: OVERFLOW');\n        uint32 blockTimestamp = uint32(block.timestamp % 2 ** 32);\n        uint32 timeElapsed = blockTimestamp - blockTimestampLast;\n        // overflow is desired\n        if (timeElapsed > 0 && _reserve0 != 0 && _reserve1 != 0) {\n            // * never overflows, and + overflow is desired\n            price0CumulativeLast += uint(UQ112x112.encode(_reserve1).uqdiv(_reserve0)) * timeElapsed;\n            price1CumulativeLast += uint(UQ112x112.encode(_reserve0).uqdiv(_reserve1)) * timeElapsed;\n        }\n        reserve0 = uint112(balance0);\n        reserve1 = uint112(balance1);\n        blockTimestampLast = blockTimestamp;\n        emit Sync(reserve0, reserve1);\n    }\n\n    // this low-level function should be called from a contract which performs important safety checks\n    function mint(address to) external override lock returns (uint liquidity) {\n        (uint112 _reserve0, uint112 _reserve1,) = getReserves();\n        // gas savings\n        uint balance0 = IERC20(token0).balanceOf(address(this));\n        uint balance1 = IERC20(token1).balanceOf(address(this));\n        uint amount0 = balance0.sub(_reserve0);\n        uint amount1 = balance1.sub(_reserve1);\n        uint _totalSupply = totalSupply;\n\n        if (_totalSupply == 0) {\n            liquidity = Math.sqrt(amount0.mul(amount1)).sub(MINIMUM_LIQUIDITY);\n            _mint(address(0), MINIMUM_LIQUIDITY);\n            // permanently lock the first MINIMUM_LIQUIDITY tokens\n        } else {\n            liquidity = Math.min(amount0.mul(_totalSupply) / _reserve0, amount1.mul(_totalSupply) / _reserve1);\n        }\n        require(liquidity > 0, 'PocketSwap: INSUFFICIENT_LIQUIDITY_MINTED');\n        _mint(to, liquidity);\n\n        _update(balance0, balance1, _reserve0, _reserve1);\n\n        // reserve0 and reserve1 are up-to-date\n        emit Mint(msg.sender, amount0, amount1);\n    }\n\n    // this low-level function should be called from a contract which performs important safety checks\n    function burn(address to) external override lock returns (uint amount0, uint amount1) {\n        (uint112 _reserve0, uint112 _reserve1,) = getReserves();\n        // gas savings\n        address _token0 = token0;\n        // gas savings\n        address _token1 = token1;\n        // gas savings\n        uint balance0 = IERC20(_token0).balanceOf(address(this));\n        uint balance1 = IERC20(_token1).balanceOf(address(this));\n        uint liquidity = balanceOf[address(this)];\n        uint _totalSupply = totalSupply;\n\n        amount0 = liquidity.mul(balance0) / _totalSupply;\n        // using balances ensures pro-rata distribution\n        amount1 = liquidity.mul(balance1) / _totalSupply;\n        // using balances ensures pro-rata distribution\n        require(amount0 > 0 && amount1 > 0, 'PocketSwap: INSUFFICIENT_LIQUIDITY_BURNED');\n        _burn(address(this), liquidity);\n        _safeTransfer(_token0, to, amount0);\n        _safeTransfer(_token1, to, amount1);\n        balance0 = IERC20(_token0).balanceOf(address(this));\n        balance1 = IERC20(_token1).balanceOf(address(this));\n\n        _update(balance0, balance1, _reserve0, _reserve1);\n\n        // reserve0 and reserve1 are up-to-date\n        emit Burn(msg.sender, amount0, amount1, to);\n    }\n\n    // this low-level function should be called from a contract which performs important safety checks\n    function swap(uint amount0Out, uint amount1Out, address to, bytes calldata data) external override lock {\n        require(amount0Out > 0 || amount1Out > 0, 'PocketSwap: INSUFFICIENT_OUTPUT_AMOUNT');\n        (uint112 _reserve0, uint112 _reserve1,) = getReserves();\n        // gas savings\n        require(amount0Out < _reserve0 && amount1Out < _reserve1, 'PocketSwap: INSUFFICIENT_LIQUIDITY');\n\n        uint balance0;\n        uint balance1;\n        {// scope for _token{0,1}, avoids stack too deep errors\n            address _token0 = token0;\n            address _token1 = token1;\n            require(to != _token0 && to != _token1, 'PocketSwap: INVALID_TO');\n            // optimistically transfer tokens\n            if (amount0Out > 0) _safeTransfer(_token0, to, amount0Out);\n            // optimistically transfer tokens\n            if (amount1Out > 0) _safeTransfer(_token1, to, amount1Out);\n\n            balance0 = IERC20(_token0).balanceOf(address(this));\n            balance1 = IERC20(_token1).balanceOf(address(this));\n        }\n        uint amount0In = balance0 > _reserve0 - amount0Out ? balance0 - (_reserve0 - amount0Out) : 0;\n        uint amount1In = balance1 > _reserve1 - amount1Out ? balance1 - (_reserve1 - amount1Out) : 0;\n        require(amount0In > 0 || amount1In > 0, 'PocketSwap: INSUFFICIENT_INPUT_AMOUNT');\n        {// scope for reserve{0,1}Adjusted, avoids stack too deep errors\n            uint fee = IPocketSwapFactory(factory).fee();\n            uint balance0Adjusted = balance0.mul(1e9).sub(amount0In.mul(fee));\n            uint balance1Adjusted = balance1.mul(1e9).sub(amount1In.mul(fee));\n            require(balance0Adjusted.mul(balance1Adjusted) >= uint(_reserve0).mul(_reserve1).mul(1e9 ** 2), \"PocketSwap: K\");\n        }\n\n        if (data.length > 0) {\n            uint holderFee = IPocketSwapFactory(factory).holdersFee();\n            _safeApprove(token0, msg.sender, balance0 * holderFee / 1e9);\n            _safeApprove(token1, msg.sender, balance1 * holderFee / 1e9);\n            try IPocketSwapCallback(msg.sender).pocketSwapCallback(amount0Out, amount1Out, data) {\n            } catch Error(string memory reason) {\n                revert(string(abi.encodePacked(\"NOK: \", reason)));\n            } catch (bytes memory reason) {\n                revert(string(abi.encodePacked(\"NOK b!: \", string(reason))));\n            }\n            _safeApprove(token0, msg.sender, 0);\n            _safeApprove(token1, msg.sender, 0);\n        }\n        _update(balance0, balance1, _reserve0, _reserve1);\n        emit Swap(msg.sender, amount0In, amount1In, amount0Out, amount1Out, to);\n    }\n\n    // force balances to match reserves\n    function skim(address to) external override lock {\n        address _token0 = token0;\n        // gas savings\n        address _token1 = token1;\n        // gas savings\n        _safeTransfer(_token0, to, IERC20(_token0).balanceOf(address(this)).sub(reserve0));\n        _safeTransfer(_token1, to, IERC20(_token1).balanceOf(address(this)).sub(reserve1));\n    }\n\n    // force reserves to match balances\n    function sync() external override lock {\n        _update(IERC20(token0).balanceOf(address(this)), IERC20(token1).balanceOf(address(this)), reserve0, reserve1);\n    }\n}\n",
  "sourcePath": "/Users/ilyk/projects/midgardtech/xpocket-PocketSwap/contracts/pocketswap/PocketSwapPair.sol",
  "compiler": {
    "name": "solc",
    "version": "0.8.4+commit.c7e474f2.Emscripten.clang"
  },
  "schemaVersion": "3.4.0",
  "updatedAt": "2021-05-17T05:28:40.680Z",
  "devdoc": {
    "kind": "dev",
    "methods": {},
    "version": 1
  },
  "userdoc": {
    "kind": "user",
    "methods": {},
    "version": 1
  }
}