{
  "contractName": "Pocket",
  "abi": [
    {
      "inputs": [],
      "stateMutability": "nonpayable",
      "type": "constructor"
    },
    {
      "anonymous": false,
      "inputs": [
        {
          "indexed": true,
          "internalType": "address",
          "name": "owner",
          "type": "address"
        },
        {
          "indexed": true,
          "internalType": "address",
          "name": "spender",
          "type": "address"
        },
        {
          "indexed": false,
          "internalType": "uint256",
          "name": "value",
          "type": "uint256"
        }
      ],
      "name": "Approval",
      "type": "event"
    },
    {
      "anonymous": false,
      "inputs": [
        {
          "indexed": true,
          "internalType": "address",
          "name": "previousOwner",
          "type": "address"
        },
        {
          "indexed": true,
          "internalType": "address",
          "name": "newOwner",
          "type": "address"
        }
      ],
      "name": "OwnershipTransferred",
      "type": "event"
    },
    {
      "anonymous": false,
      "inputs": [
        {
          "indexed": true,
          "internalType": "address",
          "name": "from",
          "type": "address"
        },
        {
          "indexed": true,
          "internalType": "address",
          "name": "to",
          "type": "address"
        },
        {
          "indexed": false,
          "internalType": "uint256",
          "name": "value",
          "type": "uint256"
        }
      ],
      "name": "Transfer",
      "type": "event"
    },
    {
      "inputs": [
        {
          "internalType": "address",
          "name": "owner",
          "type": "address"
        },
        {
          "internalType": "address",
          "name": "spender",
          "type": "address"
        }
      ],
      "name": "allowance",
      "outputs": [
        {
          "internalType": "uint256",
          "name": "",
          "type": "uint256"
        }
      ],
      "stateMutability": "view",
      "type": "function"
    },
    {
      "inputs": [
        {
          "internalType": "address",
          "name": "spender",
          "type": "address"
        },
        {
          "internalType": "uint256",
          "name": "amount",
          "type": "uint256"
        }
      ],
      "name": "approve",
      "outputs": [
        {
          "internalType": "bool",
          "name": "",
          "type": "bool"
        }
      ],
      "stateMutability": "nonpayable",
      "type": "function"
    },
    {
      "inputs": [],
      "name": "decimals",
      "outputs": [
        {
          "internalType": "uint8",
          "name": "",
          "type": "uint8"
        }
      ],
      "stateMutability": "view",
      "type": "function"
    },
    {
      "inputs": [
        {
          "internalType": "address",
          "name": "spender",
          "type": "address"
        },
        {
          "internalType": "uint256",
          "name": "subtractedValue",
          "type": "uint256"
        }
      ],
      "name": "decreaseAllowance",
      "outputs": [
        {
          "internalType": "bool",
          "name": "",
          "type": "bool"
        }
      ],
      "stateMutability": "nonpayable",
      "type": "function"
    },
    {
      "inputs": [
        {
          "internalType": "address",
          "name": "spender",
          "type": "address"
        },
        {
          "internalType": "uint256",
          "name": "addedValue",
          "type": "uint256"
        }
      ],
      "name": "increaseAllowance",
      "outputs": [
        {
          "internalType": "bool",
          "name": "",
          "type": "bool"
        }
      ],
      "stateMutability": "nonpayable",
      "type": "function"
    },
    {
      "inputs": [
        {
          "internalType": "address",
          "name": "",
          "type": "address"
        }
      ],
      "name": "lastTotalDividends",
      "outputs": [
        {
          "internalType": "uint256",
          "name": "",
          "type": "uint256"
        }
      ],
      "stateMutability": "view",
      "type": "function"
    },
    {
      "inputs": [],
      "name": "name",
      "outputs": [
        {
          "internalType": "string",
          "name": "",
          "type": "string"
        }
      ],
      "stateMutability": "view",
      "type": "function"
    },
    {
      "inputs": [],
      "name": "owner",
      "outputs": [
        {
          "internalType": "address",
          "name": "",
          "type": "address"
        }
      ],
      "stateMutability": "view",
      "type": "function"
    },
    {
      "inputs": [],
      "name": "renounceOwnership",
      "outputs": [],
      "stateMutability": "nonpayable",
      "type": "function"
    },
    {
      "inputs": [
        {
          "internalType": "address",
          "name": "",
          "type": "address"
        }
      ],
      "name": "rewardsExcluded",
      "outputs": [
        {
          "internalType": "bool",
          "name": "",
          "type": "bool"
        }
      ],
      "stateMutability": "view",
      "type": "function"
    },
    {
      "inputs": [],
      "name": "rewardsIncludedSupply",
      "outputs": [
        {
          "internalType": "uint256",
          "name": "",
          "type": "uint256"
        }
      ],
      "stateMutability": "view",
      "type": "function"
    },
    {
      "inputs": [],
      "name": "symbol",
      "outputs": [
        {
          "internalType": "string",
          "name": "",
          "type": "string"
        }
      ],
      "stateMutability": "view",
      "type": "function"
    },
    {
      "inputs": [],
      "name": "totalSupply",
      "outputs": [
        {
          "internalType": "uint256",
          "name": "",
          "type": "uint256"
        }
      ],
      "stateMutability": "view",
      "type": "function"
    },
    {
      "inputs": [
        {
          "internalType": "address",
          "name": "recipient",
          "type": "address"
        },
        {
          "internalType": "uint256",
          "name": "amount",
          "type": "uint256"
        }
      ],
      "name": "transfer",
      "outputs": [
        {
          "internalType": "bool",
          "name": "",
          "type": "bool"
        }
      ],
      "stateMutability": "nonpayable",
      "type": "function"
    },
    {
      "inputs": [
        {
          "internalType": "address",
          "name": "sender",
          "type": "address"
        },
        {
          "internalType": "address",
          "name": "recipient",
          "type": "address"
        },
        {
          "internalType": "uint256",
          "name": "amount",
          "type": "uint256"
        }
      ],
      "name": "transferFrom",
      "outputs": [
        {
          "internalType": "bool",
          "name": "",
          "type": "bool"
        }
      ],
      "stateMutability": "nonpayable",
      "type": "function"
    },
    {
      "inputs": [
        {
          "internalType": "address",
          "name": "newOwner",
          "type": "address"
        }
      ],
      "name": "transferOwnership",
      "outputs": [],
      "stateMutability": "nonpayable",
      "type": "function"
    },
    {
      "inputs": [
        {
          "internalType": "address",
          "name": "account",
          "type": "address"
        }
      ],
      "name": "excludeFromRewards",
      "outputs": [],
      "stateMutability": "nonpayable",
      "type": "function"
    },
    {
      "inputs": [
        {
          "internalType": "address",
          "name": "account",
          "type": "address"
        }
      ],
      "name": "includeInRewards",
      "outputs": [],
      "stateMutability": "nonpayable",
      "type": "function"
    },
    {
      "inputs": [
        {
          "internalType": "uint256",
          "name": "amount",
          "type": "uint256"
        }
      ],
      "name": "addRewards",
      "outputs": [
        {
          "internalType": "bool",
          "name": "",
          "type": "bool"
        }
      ],
      "stateMutability": "nonpayable",
      "type": "function"
    },
    {
      "inputs": [
        {
          "internalType": "address",
          "name": "account",
          "type": "address"
        }
      ],
      "name": "balanceOf",
      "outputs": [
        {
          "internalType": "uint256",
          "name": "",
          "type": "uint256"
        }
      ],
      "stateMutability": "view",
      "type": "function"
    }
  ],
  "bytecode": "0x60806040523480156200001157600080fd5b50604080518082018252600781526616141bd8dad95d60ca1b6020808301918252835180850190945260068452651413d0d2d15560d21b9084015281519192916200005f91600391620001e7565b50805162000075906004906020840190620001e7565b50505060006200008a620000fb60201b60201c565b600580546001600160a01b0319166001600160a01b038316908117909155604051919250906000907f8be0079c531659141344cd1fd0a4f28419497f9722a3daafe3b4186f6b6457e0908290a350620000ef336a295be96e64066972000000620000ff565b600254600855620002ef565b3390565b6001600160a01b0382166200015a5760405162461bcd60e51b815260206004820152601f60248201527f45524332303a206d696e7420746f20746865207a65726f206164647265737300604482015260640160405180910390fd5b80600260008282546200016e91906200028d565b90915550506001600160a01b038216600090815260208190526040812080548392906200019d9084906200028d565b90915550506040518181526001600160a01b038316906000907fddf252ad1be2c89b69c2b068fc378daa952ba7f163c4a11628f55a4df523b3ef9060200160405180910390a35050565b828054620001f590620002b2565b90600052602060002090601f01602090048101928262000219576000855562000264565b82601f106200023457805160ff191683800117855562000264565b8280016001018555821562000264579182015b828111156200026457825182559160200191906001019062000247565b506200027292915062000276565b5090565b5b8082111562000272576000815560010162000277565b60008219821115620002ad57634e487b7160e01b81526011600452602481fd5b500190565b600181811c90821680620002c757607f821691505b60208210811415620002e957634e487b7160e01b600052602260045260246000fd5b50919050565b61163280620002ff6000396000f3fe608060405234801561001057600080fd5b506004361061016c5760003560e01c80638bf2581c116100cd578063b609995e11610081578063dd62ed3e11610066578063dd62ed3e146102e8578063e0b9103d1461032e578063f2fde38b1461033757600080fd5b8063b609995e146102c2578063beceed39146102d557600080fd5b806395d89b41116100b257806395d89b4114610294578063a457c2d71461029c578063a9059cbb146102af57600080fd5b80638bf2581c146102495780638da5cb5b1461026c57600080fd5b806323b872dd116101245780633950935111610109578063395093511461021b57806370a082311461022e578063715018a61461024157600080fd5b806323b872dd146101f9578063313ce5671461020c57600080fd5b8063111e037611610155578063111e0376146101b257806318160ddd146101c757806318a01684146101d957600080fd5b806306fdde0314610171578063095ea7b31461018f575b600080fd5b61017961034a565b6040516101869190611463565b60405180910390f35b6101a261019d366004611422565b6103dc565b6040519015158152602001610186565b6101c56101c0366004611394565b6103f2565b005b6002545b604051908152602001610186565b6101cb6101e7366004611394565b60076020526000908152604090205481565b6101a26102073660046113e7565b6105ee565b60405160128152602001610186565b6101a2610229366004611422565b6106db565b6101cb61023c366004611394565b61071f565b6101c5610760565b6101a2610257366004611394565b60066020526000908152604090205460ff1681565b60055460405173ffffffffffffffffffffffffffffffffffffffff9091168152602001610186565b610179610850565b6101a26102aa366004611422565b61085f565b6101a26102bd366004611422565b610939565b6101c56102d0366004611394565b610946565b6101a26102e336600461144b565b610b2e565b6101cb6102f63660046113b5565b73ffffffffffffffffffffffffffffffffffffffff918216600090815260016020908152604080832093909416825291909152205490565b6101cb60085481565b6101c5610345366004611394565b610b3a565b60606003805461035990611579565b80601f016020809104026020016040519081016040528092919081815260200182805461038590611579565b80156103d25780601f106103a7576101008083540402835291602001916103d2565b820191906000526020600020905b8154815290600101906020018083116103b557829003601f168201915b5050505050905090565b60006103e9338484610cec565b50600192915050565b73ffffffffffffffffffffffffffffffffffffffff8116600090815260066020526040902054819060ff16156104af576040517f08c379a000000000000000000000000000000000000000000000000000000000815260206004820152602560248201527f506f636b65743a20416c7265616479206578636c756465642066726f6d20726560448201527f776172647300000000000000000000000000000000000000000000000000000060648201526084015b60405180910390fd5b306000908152602081815260408083205473ffffffffffffffffffffffffffffffffffffffff86168452600790925282205582906104ec82610e9f565b90506104f9308383610f5d565b60055473ffffffffffffffffffffffffffffffffffffffff16331461057a576040517f08c379a000000000000000000000000000000000000000000000000000000000815260206004820181905260248201527f4f776e61626c653a2063616c6c6572206973206e6f7420746865206f776e657260448201526064016104a6565b73ffffffffffffffffffffffffffffffffffffffff8416600090815260066020908152604080832080547fffffffffffffffffffffffffffffffffffffffffffffffffffffffffffffff0016600117905590829052902054600860008282546105e39190611562565b909155505050505050565b60006105fb84848461121a565b73ffffffffffffffffffffffffffffffffffffffff84166000908152600160209081526040808320338452909152902054828110156106bc576040517f08c379a000000000000000000000000000000000000000000000000000000000815260206004820152602860248201527f45524332303a207472616e7366657220616d6f756e742065786365656473206160448201527f6c6c6f77616e636500000000000000000000000000000000000000000000000060648201526084016104a6565b6106d085336106cb8685611562565b610cec565b506001949350505050565b33600081815260016020908152604080832073ffffffffffffffffffffffffffffffffffffffff8716845290915281205490916103e99185906106cb9086906114d4565b600061072a82610e9f565b73ffffffffffffffffffffffffffffffffffffffff831660009081526020819052604090205461075a91906114d4565b92915050565b60055473ffffffffffffffffffffffffffffffffffffffff1633146107e1576040517f08c379a000000000000000000000000000000000000000000000000000000000815260206004820181905260248201527f4f776e61626c653a2063616c6c6572206973206e6f7420746865206f776e657260448201526064016104a6565b60055460405160009173ffffffffffffffffffffffffffffffffffffffff16907f8be0079c531659141344cd1fd0a4f28419497f9722a3daafe3b4186f6b6457e0908390a3600580547fffffffffffffffffffffffff0000000000000000000000000000000000000000169055565b60606004805461035990611579565b33600090815260016020908152604080832073ffffffffffffffffffffffffffffffffffffffff8616845290915281205482811015610920576040517f08c379a000000000000000000000000000000000000000000000000000000000815260206004820152602560248201527f45524332303a2064656372656173656420616c6c6f77616e63652062656c6f7760448201527f207a65726f00000000000000000000000000000000000000000000000000000060648201526084016104a6565b61092f33856106cb8685611562565b5060019392505050565b60006103e933848461121a565b73ffffffffffffffffffffffffffffffffffffffff8116600090815260066020526040902054819060ff166109fd576040517f08c379a000000000000000000000000000000000000000000000000000000000815260206004820152602160248201527f506f636b65743a204e6f74206578636c756465642066726f6d2072657761726460448201527f730000000000000000000000000000000000000000000000000000000000000060648201526084016104a6565b306000908152602081815260408083205473ffffffffffffffffffffffffffffffffffffffff8616845260079092528220558290610a3a82610e9f565b9050610a47308383610f5d565b60055473ffffffffffffffffffffffffffffffffffffffff163314610ac8576040517f08c379a000000000000000000000000000000000000000000000000000000000815260206004820181905260248201527f4f776e61626c653a2063616c6c6572206973206e6f7420746865206f776e657260448201526064016104a6565b73ffffffffffffffffffffffffffffffffffffffff8416600090815260066020908152604080832080547fffffffffffffffffffffffffffffffffffffffffffffffffffffffffffffff0016905590829052902054600860008282546105e391906114d4565b600061075a3083610939565b60055473ffffffffffffffffffffffffffffffffffffffff163314610bbb576040517f08c379a000000000000000000000000000000000000000000000000000000000815260206004820181905260248201527f4f776e61626c653a2063616c6c6572206973206e6f7420746865206f776e657260448201526064016104a6565b73ffffffffffffffffffffffffffffffffffffffff8116610c5e576040517f08c379a000000000000000000000000000000000000000000000000000000000815260206004820152602660248201527f4f776e61626c653a206e6577206f776e657220697320746865207a65726f206160448201527f646472657373000000000000000000000000000000000000000000000000000060648201526084016104a6565b60055460405173ffffffffffffffffffffffffffffffffffffffff8084169216907f8be0079c531659141344cd1fd0a4f28419497f9722a3daafe3b4186f6b6457e090600090a3600580547fffffffffffffffffffffffff00000000000000000000000000000000000000001673ffffffffffffffffffffffffffffffffffffffff92909216919091179055565b73ffffffffffffffffffffffffffffffffffffffff8316610d8e576040517f08c379a0000000000000000000000000000000000000000000000000000000008152602060048201526024808201527f45524332303a20617070726f76652066726f6d20746865207a65726f2061646460448201527f726573730000000000000000000000000000000000000000000000000000000060648201526084016104a6565b73ffffffffffffffffffffffffffffffffffffffff8216610e31576040517f08c379a000000000000000000000000000000000000000000000000000000000815260206004820152602260248201527f45524332303a20617070726f766520746f20746865207a65726f20616464726560448201527f737300000000000000000000000000000000000000000000000000000000000060648201526084016104a6565b73ffffffffffffffffffffffffffffffffffffffff83811660008181526001602090815260408083209487168084529482529182902085905590518481527f8c5be1e5ebec7d5bd14f71427d1e84f3dd0314c0f7b2291e5b200ac8c7c3b925910160405180910390a3505050565b600073ffffffffffffffffffffffffffffffffffffffff8216301480610eea575073ffffffffffffffffffffffffffffffffffffffff821660009081526006602052604090205460ff165b15610ef757506000919050565b73ffffffffffffffffffffffffffffffffffffffff82166000818152602081815260408083205430845281842054600854958552600790935292205491929091610f419083611562565b610f4b9084611525565b610f5591906114ec565b949350505050565b73ffffffffffffffffffffffffffffffffffffffff8316611000576040517f08c379a000000000000000000000000000000000000000000000000000000000815260206004820152602560248201527f45524332303a207472616e736665722066726f6d20746865207a65726f20616460448201527f647265737300000000000000000000000000000000000000000000000000000060648201526084016104a6565b73ffffffffffffffffffffffffffffffffffffffff82166110a3576040517f08c379a000000000000000000000000000000000000000000000000000000000815260206004820152602360248201527f45524332303a207472616e7366657220746f20746865207a65726f206164647260448201527f657373000000000000000000000000000000000000000000000000000000000060648201526084016104a6565b73ffffffffffffffffffffffffffffffffffffffff831660009081526020819052604090205481811015611159576040517f08c379a000000000000000000000000000000000000000000000000000000000815260206004820152602660248201527f45524332303a207472616e7366657220616d6f756e742065786365656473206260448201527f616c616e6365000000000000000000000000000000000000000000000000000060648201526084016104a6565b6111638282611562565b73ffffffffffffffffffffffffffffffffffffffff80861660009081526020819052604080822093909355908516815290812080548492906111a69084906114d4565b925050819055508273ffffffffffffffffffffffffffffffffffffffff168473ffffffffffffffffffffffffffffffffffffffff167fddf252ad1be2c89b69c2b068fc378daa952ba7f163c4a11628f55a4df523b3ef8460405161120c91815260200190565b60405180910390a350505050565b306000908152602081815260408083205473ffffffffffffffffffffffffffffffffffffffff871684526007909252822055839061125782610e9f565b9050611264308383610f5d565b61126f858585610f5d565b73ffffffffffffffffffffffffffffffffffffffff851660009081526006602052604090205460ff1680156112ca575073ffffffffffffffffffffffffffffffffffffffff841660009081526006602052604090205460ff16155b156112ec5782600860008282546112e191906114d4565b909155506113649050565b73ffffffffffffffffffffffffffffffffffffffff851660009081526006602052604090205460ff16158015611347575073ffffffffffffffffffffffffffffffffffffffff841660009081526006602052604090205460ff165b1561136457826008600082825461135e9190611562565b90915550505b5050505050565b803573ffffffffffffffffffffffffffffffffffffffff8116811461138f57600080fd5b919050565b6000602082840312156113a5578081fd5b6113ae8261136b565b9392505050565b600080604083850312156113c7578081fd5b6113d08361136b565b91506113de6020840161136b565b90509250929050565b6000806000606084860312156113fb578081fd5b6114048461136b565b92506114126020850161136b565b9150604084013590509250925092565b60008060408385031215611434578182fd5b61143d8361136b565b946020939093013593505050565b60006020828403121561145c578081fd5b5035919050565b6000602080835283518082850152825b8181101561148f57858101830151858201604001528201611473565b818111156114a05783604083870101525b50601f017fffffffffffffffffffffffffffffffffffffffffffffffffffffffffffffffe016929092016040019392505050565b600082198211156114e7576114e76115cd565b500190565b600082611520577f4e487b710000000000000000000000000000000000000000000000000000000081526012600452602481fd5b500490565b6000817fffffffffffffffffffffffffffffffffffffffffffffffffffffffffffffffff048311821515161561155d5761155d6115cd565b500290565b600082821015611574576115746115cd565b500390565b600181811c9082168061158d57607f821691505b602082108114156115c7577f4e487b7100000000000000000000000000000000000000000000000000000000600052602260045260246000fd5b50919050565b7f4e487b7100000000000000000000000000000000000000000000000000000000600052601160045260246000fdfea26469706673582212208c876d112661963b6662b6ef4a2d5deff0871aab046e390162d79ef468ec886d64736f6c63430008040033",
  "immutableReferences": {},
  "source": "// SPDX-License-Identifier: Unlicensed\npragma solidity =0.8.4;\npragma abicoder v2;\n\nimport \"@openzeppelin/contracts/token/ERC20/ERC20.sol\";\nimport \"@openzeppelin/contracts/access/Ownable.sol\";\n\nimport \"./pocketswap/interfaces/IPocket.sol\";\n\ncontract Pocket is IPocket, ERC20(\"XPocket\", \"POCKET\"), Ownable {\n    mapping(address => bool) public override rewardsExcluded;\n    mapping(address => uint256) public lastTotalDividends;\n    uint256 public rewardsIncludedSupply;\n\n    constructor() {\n        _mint(msg.sender, 50e6 ether);\n        rewardsIncludedSupply = totalSupply();\n    }\n\n    function _calcRewards(address account) internal view virtual returns (uint256) {\n        if (account == address(this) || rewardsExcluded[account]) {\n            return 0;\n        }\n\n        uint256 _balance = ERC20.balanceOf(account);\n        uint256 _dividends = ERC20.balanceOf(address(this));\n\n        return (_balance * (_dividends - lastTotalDividends[account])) / rewardsIncludedSupply;\n    }\n\n    modifier _distribute(address account) {\n        lastTotalDividends[account] = ERC20.balanceOf(address(this));\n        uint256 rewards = _calcRewards(account);\n        ERC20._transfer(address(this), account, rewards);\n        _;\n    }\n\n    modifier _notExcluded(address account) {\n        require(!rewardsExcluded[account], \"Pocket: Already excluded from rewards\");\n        _;\n    }\n\n    modifier _excluded(address account) {\n        require(rewardsExcluded[account], \"Pocket: Not excluded from rewards\");\n        _;\n    }\n\n    function excludeFromRewards(address account)\n    _notExcluded(account)\n    _distribute(account)\n    external onlyOwner {\n        rewardsExcluded[account] = true;\n        rewardsIncludedSupply -= ERC20.balanceOf(account);\n    }\n\n    function includeInRewards(address account)\n    _excluded(account)\n    _distribute(account)\n    external onlyOwner {\n        delete rewardsExcluded[account];\n        rewardsIncludedSupply += ERC20.balanceOf(account);\n    }\n\n    function addRewards(uint256 amount) override external returns (bool) {\n        return transfer(address(this), amount);\n    }\n\n    /**\n     * @dev See {ERC20-_transfer}.\n     */\n    function _transfer(address sender, address recipient, uint256 amount) _distribute(sender)\n    internal virtual override {\n        super._transfer(sender, recipient, amount);\n        if (rewardsExcluded[sender] && !rewardsExcluded[recipient]) {\n            rewardsIncludedSupply += amount;\n        } else if (!rewardsExcluded[sender] && rewardsExcluded[recipient]) {\n            rewardsIncludedSupply -= amount;\n        }\n    }\n\n    /**\n     * @dev See {IERC20-balanceOf}.\n     */\n    function balanceOf(address account) public view virtual override returns (uint256) {\n        return ERC20.balanceOf(account) + _calcRewards(account);\n    }\n}\n",
  "sourcePath": "/Users/ilyk/projects/midgardtech/xpocket-PocketSwap/contracts/Pocket.sol",
  "compiler": {
    "name": "solc",
    "version": "0.8.4+commit.c7e474f2.Emscripten.clang"
  },
  "schemaVersion": "3.3.3",
  "updatedAt": "2021-07-06T07:43:07.021Z",
  "devdoc": {
    "kind": "dev",
    "methods": {
      "allowance(address,address)": {
        "details": "See {IERC20-allowance}."
      },
      "approve(address,uint256)": {
        "details": "See {IERC20-approve}. Requirements: - `spender` cannot be the zero address."
      },
      "balanceOf(address)": {
        "details": "See {IERC20-balanceOf}."
      },
      "decimals()": {
        "details": "Returns the number of decimals used to get its user representation. For example, if `decimals` equals `2`, a balance of `505` tokens should be displayed to a user as `5,05` (`505 / 10 ** 2`). Tokens usually opt for a value of 18, imitating the relationship between Ether and Wei. This is the value {ERC20} uses, unless this function is overridden; NOTE: This information is only used for _display_ purposes: it in no way affects any of the arithmetic of the contract, including {IERC20-balanceOf} and {IERC20-transfer}."
      },
      "decreaseAllowance(address,uint256)": {
        "details": "Atomically decreases the allowance granted to `spender` by the caller. This is an alternative to {approve} that can be used as a mitigation for problems described in {IERC20-approve}. Emits an {Approval} event indicating the updated allowance. Requirements: - `spender` cannot be the zero address. - `spender` must have allowance for the caller of at least `subtractedValue`."
      },
      "increaseAllowance(address,uint256)": {
        "details": "Atomically increases the allowance granted to `spender` by the caller. This is an alternative to {approve} that can be used as a mitigation for problems described in {IERC20-approve}. Emits an {Approval} event indicating the updated allowance. Requirements: - `spender` cannot be the zero address."
      },
      "name()": {
        "details": "Returns the name of the token."
      },
      "owner()": {
        "details": "Returns the address of the current owner."
      },
      "renounceOwnership()": {
        "details": "Leaves the contract without owner. It will not be possible to call `onlyOwner` functions anymore. Can only be called by the current owner. NOTE: Renouncing ownership will leave the contract without an owner, thereby removing any functionality that is only available to the owner."
      },
      "symbol()": {
        "details": "Returns the symbol of the token, usually a shorter version of the name."
      },
      "totalSupply()": {
        "details": "See {IERC20-totalSupply}."
      },
      "transfer(address,uint256)": {
        "details": "See {IERC20-transfer}. Requirements: - `recipient` cannot be the zero address. - the caller must have a balance of at least `amount`."
      },
      "transferFrom(address,address,uint256)": {
        "details": "See {IERC20-transferFrom}. Emits an {Approval} event indicating the updated allowance. This is not required by the EIP. See the note at the beginning of {ERC20}. Requirements: - `sender` and `recipient` cannot be the zero address. - `sender` must have a balance of at least `amount`. - the caller must have allowance for ``sender``'s tokens of at least `amount`."
      },
      "transferOwnership(address)": {
        "details": "Transfers ownership of the contract to a new account (`newOwner`). Can only be called by the current owner."
      }
    },
    "version": 1
  },
  "userdoc": {
    "kind": "user",
    "methods": {},
    "version": 1
  }
}