{
  "contractName": "PocketSwap",
  "abi": [
    {
      "inputs": [],
      "stateMutability": "nonpayable",
      "type": "constructor"
    },
    {
      "inputs": [],
      "name": "factory",
      "outputs": [
        {
          "internalType": "contract IPocketSwapFactory",
          "name": "",
          "type": "address"
        }
      ],
      "stateMutability": "view",
      "type": "function"
    },
    {
      "inputs": [],
      "name": "initialized",
      "outputs": [
        {
          "internalType": "bool",
          "name": "",
          "type": "bool"
        }
      ],
      "stateMutability": "view",
      "type": "function"
    },
    {
      "inputs": [],
      "name": "pocketToken",
      "outputs": [
        {
          "internalType": "contract Pocket",
          "name": "",
          "type": "address"
        }
      ],
      "stateMutability": "view",
      "type": "function"
    },
    {
      "inputs": [],
      "name": "rewardsPerToken",
      "outputs": [
        {
          "internalType": "uint256",
          "name": "",
          "type": "uint256"
        }
      ],
      "stateMutability": "view",
      "type": "function"
    },
    {
      "inputs": [],
      "name": "router",
      "outputs": [
        {
          "internalType": "contract IPocketSwapRouter",
          "name": "",
          "type": "address"
        }
      ],
      "stateMutability": "view",
      "type": "function"
    },
    {
      "inputs": [
        {
          "internalType": "address",
          "name": "",
          "type": "address"
        }
      ],
      "name": "takenReward",
      "outputs": [
        {
          "internalType": "uint256",
          "name": "",
          "type": "uint256"
        }
      ],
      "stateMutability": "view",
      "type": "function"
    },
    {
      "inputs": [],
      "name": "tokenHoldersFee",
      "outputs": [
        {
          "internalType": "address",
          "name": "",
          "type": "address"
        }
      ],
      "stateMutability": "view",
      "type": "function"
    },
    {
      "inputs": [
        {
          "internalType": "address",
          "name": "_WETH9",
          "type": "address"
        },
        {
          "internalType": "string",
          "name": "name_",
          "type": "string"
        },
        {
          "internalType": "string",
          "name": "symbol_",
          "type": "string"
        },
        {
          "internalType": "uint256",
          "name": "supply_",
          "type": "uint256"
        }
      ],
      "name": "initialize",
      "outputs": [],
      "stateMutability": "nonpayable",
      "type": "function"
    },
    {
      "inputs": [
        {
          "components": [
            {
              "internalType": "address",
              "name": "tokenIn",
              "type": "address"
            },
            {
              "internalType": "address",
              "name": "tokenOut",
              "type": "address"
            },
            {
              "internalType": "address",
              "name": "recipient",
              "type": "address"
            },
            {
              "internalType": "uint256",
              "name": "deadline",
              "type": "uint256"
            },
            {
              "internalType": "uint256",
              "name": "amountIn",
              "type": "uint256"
            },
            {
              "internalType": "uint256",
              "name": "amountOutMinimum",
              "type": "uint256"
            }
          ],
          "internalType": "struct IPocketSwapRouter.SwapParams",
          "name": "params",
          "type": "tuple"
        }
      ],
      "name": "swap",
      "outputs": [],
      "stateMutability": "nonpayable",
      "type": "function"
    }
  ],
  "bytecode": "0x608060405234801561001057600080fd5b5033600360006101000a81548173ffffffffffffffffffffffffffffffffffffffff021916908373ffffffffffffffffffffffffffffffffffffffff16021790555061da72806100616000396000f3fe60806040523480156200001157600080fd5b5060043610620000a05760003560e01c80636bcb6e4c116200006f5780636bcb6e4c146200013d57806370641a36146200015f578063c45a01551462000181578063f7e46ea214620001a3578063f887ea4014620001c557620000a0565b8063158ef93e14620000a5578063253f0c5414620000c7578063441a12de14620000fd5780634d12d4b6146200011d575b600080fd5b620000af620001e7565b604051620000be919062000982565b60405180910390f35b620000e56004803603810190620000df91906200067a565b620001fa565b604051620000f4919062000a5e565b60405180910390f35b6200011b600480360381019062000115919062000744565b62000212565b005b6200013b6004803603810190620001359190620006a6565b620002c9565b005b62000147620004e1565b604051620001569190620009d9565b60405180910390f35b6200016962000507565b60405162000178919062000a5e565b60405180910390f35b6200018b6200050d565b6040516200019a91906200099f565b60405180910390f35b620001ad62000531565b604051620001bc919062000928565b60405180910390f35b620001cf62000557565b604051620001de9190620009bc565b60405180910390f35b600260149054906101000a900460ff1681565b60066020528060005260406000206000915090505481565b600160009054906101000a900473ffffffffffffffffffffffffffffffffffffffff1673ffffffffffffffffffffffffffffffffffffffff1663441a12de826040518263ffffffff1660e01b81526004016200026f919062000a41565b602060405180830381600087803b1580156200028a57600080fd5b505af11580156200029f573d6000803e3d6000fd5b505050506040513d601f19601f82011682018060405250810190620002c5919062000770565b5050565b600360009054906101000a900473ffffffffffffffffffffffffffffffffffffffff1673ffffffffffffffffffffffffffffffffffffffff163373ffffffffffffffffffffffffffffffffffffffff161415620004db57600033905083838360405162000336906200057d565b6200034493929190620009f6565b604051809103906000f08015801562000361573d6000803e3d6000fd5b50600260006101000a81548173ffffffffffffffffffffffffffffffffffffffff021916908373ffffffffffffffffffffffffffffffffffffffff16021790555080604051620003b1906200058b565b620003bd919062000928565b604051809103906000f080158015620003da573d6000803e3d6000fd5b506000806101000a81548173ffffffffffffffffffffffffffffffffffffffff021916908373ffffffffffffffffffffffffffffffffffffffff16021790555060008054906101000a900473ffffffffffffffffffffffffffffffffffffffff1685600260009054906101000a900473ffffffffffffffffffffffffffffffffffffffff166040516200046d9062000599565b6200047b9392919062000945565b604051809103906000f08015801562000498573d6000803e3d6000fd5b50600160006101000a81548173ffffffffffffffffffffffffffffffffffffffff021916908373ffffffffffffffffffffffffffffffffffffffff160217905550505b50505050565b600260009054906101000a900473ffffffffffffffffffffffffffffffffffffffff1681565b60055481565b60008054906101000a900473ffffffffffffffffffffffffffffffffffffffff1681565b600460009054906101000a900473ffffffffffffffffffffffffffffffffffffffff1681565b600160009054906101000a900473ffffffffffffffffffffffffffffffffffffffff1681565b611cdd8062000cda83390190565b6150e780620029b783390190565b615f9f8062007a9e83390190565b6000620005be620005b88462000aa4565b62000a7b565b905082815260208101848484011115620005d757600080fd5b620005e484828562000bea565b509392505050565b600081359050620005fd8162000ca5565b92915050565b600082601f8301126200061557600080fd5b813562000627848260208601620005a7565b91505092915050565b600060c082840312156200064357600080fd5b81905092915050565b6000813590506200065d8162000cbf565b92915050565b600081519050620006748162000cbf565b92915050565b6000602082840312156200068d57600080fd5b60006200069d84828501620005ec565b91505092915050565b60008060008060808587031215620006bd57600080fd5b6000620006cd87828801620005ec565b945050602085013567ffffffffffffffff811115620006eb57600080fd5b620006f98782880162000603565b935050604085013567ffffffffffffffff8111156200071757600080fd5b620007258782880162000603565b925050606062000738878288016200064c565b91505092959194509250565b600060c082840312156200075757600080fd5b6000620007678482850162000630565b91505092915050565b6000602082840312156200078357600080fd5b6000620007938482850162000663565b91505092915050565b620007a78162000b28565b82525050565b620007b88162000b28565b82525050565b620007c98162000b3c565b82525050565b620007da8162000b72565b82525050565b620007eb8162000b9a565b82525050565b620007fc8162000bc2565b82525050565b60006200080f8262000ada565b6200081b818562000ae5565b93506200082d81856020860162000bf9565b620008388162000c94565b840191505092915050565b60c0820162000856600083018362000af6565b6200086560008501826200079c565b5062000875602083018362000af6565b6200088460208501826200079c565b5062000894604083018362000af6565b620008a360408501826200079c565b50620008b3606083018362000b0f565b620008c2606085018262000906565b50620008d2608083018362000b0f565b620008e1608085018262000906565b50620008f160a083018362000b0f565b6200090060a085018262000906565b50505050565b620009118162000b68565b82525050565b620009228162000b68565b82525050565b60006020820190506200093f6000830184620007ad565b92915050565b60006060820190506200095c6000830186620007ad565b6200096b6020830185620007ad565b6200097a6040830184620007ad565b949350505050565b6000602082019050620009996000830184620007be565b92915050565b6000602082019050620009b66000830184620007cf565b92915050565b6000602082019050620009d36000830184620007e0565b92915050565b6000602082019050620009f06000830184620007f1565b92915050565b6000606082019050818103600083015262000a12818662000802565b9050818103602083015262000a28818562000802565b905062000a39604083018462000917565b949350505050565b600060c08201905062000a58600083018462000843565b92915050565b600060208201905062000a75600083018462000917565b92915050565b600062000a8762000a9a565b905062000a95828262000c2f565b919050565b6000604051905090565b600067ffffffffffffffff82111562000ac25762000ac162000c65565b5b62000acd8262000c94565b9050602081019050919050565b600081519050919050565b600082825260208201905092915050565b600062000b076020840184620005ec565b905092915050565b600062000b2060208401846200064c565b905092915050565b600062000b358262000b48565b9050919050565b60008115159050919050565b600073ffffffffffffffffffffffffffffffffffffffff82169050919050565b6000819050919050565b600062000b7f8262000b86565b9050919050565b600062000b938262000b48565b9050919050565b600062000ba78262000bae565b9050919050565b600062000bbb8262000b48565b9050919050565b600062000bcf8262000bd6565b9050919050565b600062000be38262000b48565b9050919050565b82818337600083830152505050565b60005b8381101562000c1957808201518184015260208101905062000bfc565b8381111562000c29576000848401525b50505050565b62000c3a8262000c94565b810181811067ffffffffffffffff8211171562000c5c5762000c5b62000c65565b5b80604052505050565b7f4e487b7100000000000000000000000000000000000000000000000000000000600052604160045260246000fd5b6000601f19601f8301169050919050565b62000cb08162000b28565b811462000cbc57600080fd5b50565b62000cca8162000b68565b811462000cd657600080fd5b5056fe60806040523480156200001157600080fd5b5060405162001cdd38038062001cdd83398181016040528101906200003791906200032b565b8282816003908051906020019062000051929190620001f2565b5080600490805190602001906200006a929190620001f2565b5050506200007f33826200008860201b60201c565b50505062000684565b600073ffffffffffffffffffffffffffffffffffffffff168273ffffffffffffffffffffffffffffffffffffffff161415620000fb576040517f08c379a0000000000000000000000000000000000000000000000000000000008152600401620000f290620003eb565b60405180910390fd5b6200010f60008383620001ed60201b60201c565b80600260008282546200012391906200049a565b92505081905550806000808473ffffffffffffffffffffffffffffffffffffffff1673ffffffffffffffffffffffffffffffffffffffff16815260200190815260200160002060008282546200017a91906200049a565b925050819055508173ffffffffffffffffffffffffffffffffffffffff16600073ffffffffffffffffffffffffffffffffffffffff167fddf252ad1be2c89b69c2b068fc378daa952ba7f163c4a11628f55a4df523b3ef83604051620001e191906200040d565b60405180910390a35050565b505050565b828054620002009062000537565b90600052602060002090601f01602090048101928262000224576000855562000270565b82601f106200023f57805160ff191683800117855562000270565b8280016001018555821562000270579182015b828111156200026f57825182559160200191906001019062000252565b5b5090506200027f919062000283565b5090565b5b808211156200029e57600081600090555060010162000284565b5090565b6000620002b9620002b38462000453565b6200042a565b905082815260208101848484011115620002d257600080fd5b620002df84828562000501565b509392505050565b600082601f830112620002f957600080fd5b81516200030b848260208601620002a2565b91505092915050565b60008151905062000325816200066a565b92915050565b6000806000606084860312156200034157600080fd5b600084015167ffffffffffffffff8111156200035c57600080fd5b6200036a86828701620002e7565b935050602084015167ffffffffffffffff8111156200038857600080fd5b6200039686828701620002e7565b9250506040620003a98682870162000314565b9150509250925092565b6000620003c2601f8362000489565b9150620003cf8262000641565b602082019050919050565b620003e581620004f7565b82525050565b600060208201905081810360008301526200040681620003b3565b9050919050565b6000602082019050620004246000830184620003da565b92915050565b60006200043662000449565b90506200044482826200056d565b919050565b6000604051905090565b600067ffffffffffffffff82111562000471576200047062000601565b5b6200047c8262000630565b9050602081019050919050565b600082825260208201905092915050565b6000620004a782620004f7565b9150620004b483620004f7565b9250827fffffffffffffffffffffffffffffffffffffffffffffffffffffffffffffffff03821115620004ec57620004eb620005a3565b5b828201905092915050565b6000819050919050565b60005b838110156200052157808201518184015260208101905062000504565b8381111562000531576000848401525b50505050565b600060028204905060018216806200055057607f821691505b60208210811415620005675762000566620005d2565b5b50919050565b620005788262000630565b810181811067ffffffffffffffff821117156200059a576200059962000601565b5b80604052505050565b7f4e487b7100000000000000000000000000000000000000000000000000000000600052601160045260246000fd5b7f4e487b7100000000000000000000000000000000000000000000000000000000600052602260045260246000fd5b7f4e487b7100000000000000000000000000000000000000000000000000000000600052604160045260246000fd5b6000601f19601f8301169050919050565b7f45524332303a206d696e7420746f20746865207a65726f206164647265737300600082015250565b6200067581620004f7565b81146200068157600080fd5b50565b61164980620006946000396000f3fe608060405234801561001057600080fd5b50600436106100b45760003560e01c806370a082311161007157806370a08231146101a357806395d89b41146101d3578063a457c2d7146101f1578063a9059cbb14610221578063beceed3914610251578063dd62ed3e14610281576100b4565b806306fdde03146100b9578063095ea7b3146100d757806318160ddd1461010757806323b872dd14610125578063313ce567146101555780633950935114610173575b600080fd5b6100c16102b1565b6040516100ce9190610ffb565b60405180910390f35b6100f160048036038101906100ec9190610e20565b610343565b6040516100fe9190610fe0565b60405180910390f35b61010f610361565b60405161011c91906110fd565b60405180910390f35b61013f600480360381019061013a9190610dd1565b61036b565b60405161014c9190610fe0565b60405180910390f35b61015d61046c565b60405161016a9190611118565b60405180910390f35b61018d60048036038101906101889190610e20565b610475565b60405161019a9190610fe0565b60405180910390f35b6101bd60048036038101906101b89190610d6c565b610521565b6040516101ca91906110fd565b60405180910390f35b6101db610546565b6040516101e89190610ffb565b60405180910390f35b61020b60048036038101906102069190610e20565b6105d8565b6040516102189190610fe0565b60405180910390f35b61023b60048036038101906102369190610e20565b6106cc565b6040516102489190610fe0565b60405180910390f35b61026b60048036038101906102669190610e5c565b6106ea565b6040516102789190610fe0565b60405180910390f35b61029b60048036038101906102969190610d95565b6106fd565b6040516102a891906110fd565b60405180910390f35b6060600380546102c0906112ec565b80601f01602080910402602001604051908101604052809291908181526020018280546102ec906112ec565b80156103395780601f1061030e57610100808354040283529160200191610339565b820191906000526020600020905b81548152906001019060200180831161031c57829003601f168201915b5050505050905090565b6000610357610350610784565b848461078c565b6001905092915050565b6000600254905090565b6000610378848484610957565b6000600160008673ffffffffffffffffffffffffffffffffffffffff1673ffffffffffffffffffffffffffffffffffffffff16815260200190815260200160002060006103c3610784565b73ffffffffffffffffffffffffffffffffffffffff1673ffffffffffffffffffffffffffffffffffffffff16815260200190815260200160002054905082811015610443576040517f08c379a000000000000000000000000000000000000000000000000000000000815260040161043a9061107d565b60405180910390fd5b6104608561044f610784565b858461045b9190611230565b61078c565b60019150509392505050565b60006012905090565b6000610517610482610784565b848460016000610490610784565b73ffffffffffffffffffffffffffffffffffffffff1673ffffffffffffffffffffffffffffffffffffffff16815260200190815260200160002060008873ffffffffffffffffffffffffffffffffffffffff1673ffffffffffffffffffffffffffffffffffffffff16815260200190815260200160002054610512919061114f565b61078c565b6001905092915050565b600061052c82610982565b61053583610a76565b61053f919061114f565b9050919050565b606060048054610555906112ec565b80601f0160208091040260200160405190810160405280929190818152602001828054610581906112ec565b80156105ce5780601f106105a3576101008083540402835291602001916105ce565b820191906000526020600020905b8154815290600101906020018083116105b157829003601f168201915b5050505050905090565b600080600160006105e7610784565b73ffffffffffffffffffffffffffffffffffffffff1673ffffffffffffffffffffffffffffffffffffffff16815260200190815260200160002060008573ffffffffffffffffffffffffffffffffffffffff1673ffffffffffffffffffffffffffffffffffffffff168152602001908152602001600020549050828110156106a4576040517f08c379a000000000000000000000000000000000000000000000000000000000815260040161069b906110dd565b60405180910390fd5b6106c16106af610784565b8585846106bc9190611230565b61078c565b600191505092915050565b60006106e06106d9610784565b8484610957565b6001905092915050565b60006106f630836106cc565b9050919050565b6000600160008473ffffffffffffffffffffffffffffffffffffffff1673ffffffffffffffffffffffffffffffffffffffff16815260200190815260200160002060008373ffffffffffffffffffffffffffffffffffffffff1673ffffffffffffffffffffffffffffffffffffffff16815260200190815260200160002054905092915050565b600033905090565b600073ffffffffffffffffffffffffffffffffffffffff168373ffffffffffffffffffffffffffffffffffffffff1614156107fc576040517f08c379a00000000000000000000000000000000000000000000000000000000081526004016107f3906110bd565b60405180910390fd5b600073ffffffffffffffffffffffffffffffffffffffff168273ffffffffffffffffffffffffffffffffffffffff16141561086c576040517f08c379a00000000000000000000000000000000000000000000000000000000081526004016108639061103d565b60405180910390fd5b80600160008573ffffffffffffffffffffffffffffffffffffffff1673ffffffffffffffffffffffffffffffffffffffff16815260200190815260200160002060008473ffffffffffffffffffffffffffffffffffffffff1673ffffffffffffffffffffffffffffffffffffffff168152602001908152602001600020819055508173ffffffffffffffffffffffffffffffffffffffff168373ffffffffffffffffffffffffffffffffffffffff167f8c5be1e5ebec7d5bd14f71427d1e84f3dd0314c0f7b2291e5b200ac8c7c3b9258360405161094a91906110fd565b60405180910390a3505050565b82600061096382610982565b9050610970308383610abe565b61097b858585610abe565b5050505050565b6000600560008373ffffffffffffffffffffffffffffffffffffffff1673ffffffffffffffffffffffffffffffffffffffff16815260200190815260200160002060009054906101000a900460ff16156109df5760009050610a71565b60006109ea83610a76565b905060006109f730610a76565b9050610a01610361565b600660008673ffffffffffffffffffffffffffffffffffffffff1673ffffffffffffffffffffffffffffffffffffffff1681526020019081526020016000205482610a4c9190611230565b83610a5791906111d6565b610a6191906111a5565b82610a6c9190611230565b925050505b919050565b60008060008373ffffffffffffffffffffffffffffffffffffffff1673ffffffffffffffffffffffffffffffffffffffff168152602001908152602001600020549050919050565b600073ffffffffffffffffffffffffffffffffffffffff168373ffffffffffffffffffffffffffffffffffffffff161415610b2e576040517f08c379a0000000000000000000000000000000000000000000000000000000008152600401610b259061109d565b60405180910390fd5b600073ffffffffffffffffffffffffffffffffffffffff168273ffffffffffffffffffffffffffffffffffffffff161415610b9e576040517f08c379a0000000000000000000000000000000000000000000000000000000008152600401610b959061101d565b60405180910390fd5b610ba9838383610d3d565b60008060008573ffffffffffffffffffffffffffffffffffffffff1673ffffffffffffffffffffffffffffffffffffffff16815260200190815260200160002054905081811015610c2f576040517f08c379a0000000000000000000000000000000000000000000000000000000008152600401610c269061105d565b60405180910390fd5b8181610c3b9190611230565b6000808673ffffffffffffffffffffffffffffffffffffffff1673ffffffffffffffffffffffffffffffffffffffff16815260200190815260200160002081905550816000808573ffffffffffffffffffffffffffffffffffffffff1673ffffffffffffffffffffffffffffffffffffffff1681526020019081526020016000206000828254610ccb919061114f565b925050819055508273ffffffffffffffffffffffffffffffffffffffff168473ffffffffffffffffffffffffffffffffffffffff167fddf252ad1be2c89b69c2b068fc378daa952ba7f163c4a11628f55a4df523b3ef84604051610d2f91906110fd565b60405180910390a350505050565b505050565b600081359050610d51816115e5565b92915050565b600081359050610d66816115fc565b92915050565b600060208284031215610d7e57600080fd5b6000610d8c84828501610d42565b91505092915050565b60008060408385031215610da857600080fd5b6000610db685828601610d42565b9250506020610dc785828601610d42565b9150509250929050565b600080600060608486031215610de657600080fd5b6000610df486828701610d42565b9350506020610e0586828701610d42565b9250506040610e1686828701610d57565b9150509250925092565b60008060408385031215610e3357600080fd5b6000610e4185828601610d42565b9250506020610e5285828601610d57565b9150509250929050565b600060208284031215610e6e57600080fd5b6000610e7c84828501610d57565b91505092915050565b610e8e81611276565b82525050565b6000610e9f82611133565b610ea9818561113e565b9350610eb98185602086016112b9565b610ec2816113ab565b840191505092915050565b6000610eda60238361113e565b9150610ee5826113bc565b604082019050919050565b6000610efd60228361113e565b9150610f088261140b565b604082019050919050565b6000610f2060268361113e565b9150610f2b8261145a565b604082019050919050565b6000610f4360288361113e565b9150610f4e826114a9565b604082019050919050565b6000610f6660258361113e565b9150610f71826114f8565b604082019050919050565b6000610f8960248361113e565b9150610f9482611547565b604082019050919050565b6000610fac60258361113e565b9150610fb782611596565b604082019050919050565b610fcb816112a2565b82525050565b610fda816112ac565b82525050565b6000602082019050610ff56000830184610e85565b92915050565b600060208201905081810360008301526110158184610e94565b905092915050565b6000602082019050818103600083015261103681610ecd565b9050919050565b6000602082019050818103600083015261105681610ef0565b9050919050565b6000602082019050818103600083015261107681610f13565b9050919050565b6000602082019050818103600083015261109681610f36565b9050919050565b600060208201905081810360008301526110b681610f59565b9050919050565b600060208201905081810360008301526110d681610f7c565b9050919050565b600060208201905081810360008301526110f681610f9f565b9050919050565b60006020820190506111126000830184610fc2565b92915050565b600060208201905061112d6000830184610fd1565b92915050565b600081519050919050565b600082825260208201905092915050565b600061115a826112a2565b9150611165836112a2565b9250827fffffffffffffffffffffffffffffffffffffffffffffffffffffffffffffffff0382111561119a5761119961131e565b5b828201905092915050565b60006111b0826112a2565b91506111bb836112a2565b9250826111cb576111ca61134d565b5b828204905092915050565b60006111e1826112a2565b91506111ec836112a2565b9250817fffffffffffffffffffffffffffffffffffffffffffffffffffffffffffffffff04831182151516156112255761122461131e565b5b828202905092915050565b600061123b826112a2565b9150611246836112a2565b9250828210156112595761125861131e565b5b828203905092915050565b600061126f82611282565b9050919050565b60008115159050919050565b600073ffffffffffffffffffffffffffffffffffffffff82169050919050565b6000819050919050565b600060ff82169050919050565b60005b838110156112d75780820151818401526020810190506112bc565b838111156112e6576000848401525b50505050565b6000600282049050600182168061130457607f821691505b602082108114156113185761131761137c565b5b50919050565b7f4e487b7100000000000000000000000000000000000000000000000000000000600052601160045260246000fd5b7f4e487b7100000000000000000000000000000000000000000000000000000000600052601260045260246000fd5b7f4e487b7100000000000000000000000000000000000000000000000000000000600052602260045260246000fd5b6000601f19601f8301169050919050565b7f45524332303a207472616e7366657220746f20746865207a65726f206164647260008201527f6573730000000000000000000000000000000000000000000000000000000000602082015250565b7f45524332303a20617070726f766520746f20746865207a65726f20616464726560008201527f7373000000000000000000000000000000000000000000000000000000000000602082015250565b7f45524332303a207472616e7366657220616d6f756e742065786365656473206260008201527f616c616e63650000000000000000000000000000000000000000000000000000602082015250565b7f45524332303a207472616e7366657220616d6f756e742065786365656473206160008201527f6c6c6f77616e6365000000000000000000000000000000000000000000000000602082015250565b7f45524332303a207472616e736665722066726f6d20746865207a65726f20616460008201527f6472657373000000000000000000000000000000000000000000000000000000602082015250565b7f45524332303a20617070726f76652066726f6d20746865207a65726f2061646460008201527f7265737300000000000000000000000000000000000000000000000000000000602082015250565b7f45524332303a2064656372656173656420616c6c6f77616e63652062656c6f7760008201527f207a65726f000000000000000000000000000000000000000000000000000000602082015250565b6115ee81611264565b81146115f957600080fd5b50565b611605816112a2565b811461161057600080fd5b5056fea26469706673582212209ac3a80d6a64d6edcfc01c160b34a347c62d02e5d66665fa154aa92dfe09699364736f6c634300080400336080604052622dc6c060015534801561001757600080fd5b50604051620050e7380380620050e7833981810160405281019061003b9190610096565b806000806101000a81548173ffffffffffffffffffffffffffffffffffffffff021916908373ffffffffffffffffffffffffffffffffffffffff16021790555050610108565b600081519050610090816100f1565b92915050565b6000602082840312156100a857600080fd5b60006100b684828501610081565b91505092915050565b60006100ca826100d1565b9050919050565b600073ffffffffffffffffffffffffffffffffffffffff82169050919050565b6100fa816100bf565b811461010557600080fd5b50565b614fcf80620001186000396000f3fe60806040523480156200001157600080fd5b5060043610620000945760003560e01c8063b19805af1162000063578063b19805af1462000133578063c9c653961462000153578063ddca3f431462000189578063e6a4390514620001ab5762000094565b80631e3dd18b1462000099578063574f2ba314620000cf57806369fe0e2d14620000f157806387cf3ef41462000111575b600080fd5b620000b76004803603810190620000b1919062000a61565b620001e1565b604051620000c6919062000bbd565b60405180910390f35b620000d962000221565b604051620000e8919062000cde565b60405180910390f35b6200010f600480360381019062000109919062000a61565b6200022e565b005b6200011b62000316565b6040516200012a919062000bbd565b60405180910390f35b6200015160048036038101906200014b9190620009f4565b6200033a565b005b6200017160048036038101906200016b919062000a20565b6200040e565b60405162000180919062000bbd565b60405180910390f35b6200019362000970565b604051620001a2919062000cde565b60405180910390f35b620001c96004803603810190620001c3919062000a20565b62000976565b604051620001d8919062000bbd565b60405180910390f35b60038181548110620001f257600080fd5b906000526020600020016000915054906101000a900473ffffffffffffffffffffffffffffffffffffffff1681565b6000600380549050905090565b60008054906101000a900473ffffffffffffffffffffffffffffffffffffffff1673ffffffffffffffffffffffffffffffffffffffff163373ffffffffffffffffffffffffffffffffffffffff1614620002bf576040517f08c379a0000000000000000000000000000000000000000000000000000000008152600401620002b69062000cbc565b60405180910390fd5b670de0b6b3a764000081106200030c576040517f08c379a0000000000000000000000000000000000000000000000000000000008152600401620003039062000c34565b60405180910390fd5b8060018190555050565b60008054906101000a900473ffffffffffffffffffffffffffffffffffffffff1681565b60008054906101000a900473ffffffffffffffffffffffffffffffffffffffff1673ffffffffffffffffffffffffffffffffffffffff163373ffffffffffffffffffffffffffffffffffffffff1614620003cb576040517f08c379a0000000000000000000000000000000000000000000000000000000008152600401620003c29062000cbc565b60405180910390fd5b806000806101000a81548173ffffffffffffffffffffffffffffffffffffffff021916908373ffffffffffffffffffffffffffffffffffffffff16021790555050565b60008173ffffffffffffffffffffffffffffffffffffffff168373ffffffffffffffffffffffffffffffffffffffff16141562000482576040517f08c379a0000000000000000000000000000000000000000000000000000000008152600401620004799062000c78565b60405180910390fd5b6000808373ffffffffffffffffffffffffffffffffffffffff168573ffffffffffffffffffffffffffffffffffffffff1610620004c1578385620004c4565b84845b91509150600073ffffffffffffffffffffffffffffffffffffffff168273ffffffffffffffffffffffffffffffffffffffff1614156200053b576040517f08c379a0000000000000000000000000000000000000000000000000000000008152600401620005329062000c56565b60405180910390fd5b600073ffffffffffffffffffffffffffffffffffffffff16600260008473ffffffffffffffffffffffffffffffffffffffff1673ffffffffffffffffffffffffffffffffffffffff16815260200190815260200160002060008373ffffffffffffffffffffffffffffffffffffffff1673ffffffffffffffffffffffffffffffffffffffff16815260200190815260200160002060009054906101000a900473ffffffffffffffffffffffffffffffffffffffff1673ffffffffffffffffffffffffffffffffffffffff161462000649576040517f08c379a0000000000000000000000000000000000000000000000000000000008152600401620006409062000c9a565b60405180910390fd5b6000604051806020016200065d90620009b8565b6020820181038252601f19601f820116604052509050600083836040516020016200068a92919062000b8d565b604051602081830303815290604052805190602001209050808251602084016000f594508473ffffffffffffffffffffffffffffffffffffffff1663485cc95585856040518363ffffffff1660e01b8152600401620006eb92919062000bda565b600060405180830381600087803b1580156200070657600080fd5b505af11580156200071b573d6000803e3d6000fd5b5050505084600260008673ffffffffffffffffffffffffffffffffffffffff1673ffffffffffffffffffffffffffffffffffffffff16815260200190815260200160002060008573ffffffffffffffffffffffffffffffffffffffff1673ffffffffffffffffffffffffffffffffffffffff16815260200190815260200160002060006101000a81548173ffffffffffffffffffffffffffffffffffffffff021916908373ffffffffffffffffffffffffffffffffffffffff16021790555084600260008573ffffffffffffffffffffffffffffffffffffffff1673ffffffffffffffffffffffffffffffffffffffff16815260200190815260200160002060008673ffffffffffffffffffffffffffffffffffffffff1673ffffffffffffffffffffffffffffffffffffffff16815260200190815260200160002060006101000a81548173ffffffffffffffffffffffffffffffffffffffff021916908373ffffffffffffffffffffffffffffffffffffffff1602179055506003859080600181540180825580915050600190039060005260206000200160009091909190916101000a81548173ffffffffffffffffffffffffffffffffffffffff021916908373ffffffffffffffffffffffffffffffffffffffff1602179055508273ffffffffffffffffffffffffffffffffffffffff168473ffffffffffffffffffffffffffffffffffffffff167f0d3648bd0f6ba80134a33ba9275ac585d9d315f0ad8355cddefde31afa28d0e9876003805490506040516200095e92919062000c07565b60405180910390a35050505092915050565b60015481565b60026020528160005260406000206020528060005260406000206000915091509054906101000a900473ffffffffffffffffffffffffffffffffffffffff1681565b6141198062000e8183390190565b600081359050620009d78162000e4c565b92915050565b600081359050620009ee8162000e66565b92915050565b60006020828403121562000a0757600080fd5b600062000a1784828501620009c6565b91505092915050565b6000806040838503121562000a3457600080fd5b600062000a4485828601620009c6565b925050602062000a5785828601620009c6565b9150509250929050565b60006020828403121562000a7457600080fd5b600062000a8484828501620009dd565b91505092915050565b62000a988162000d0c565b82525050565b62000ab362000aad8262000d0c565b62000d4a565b82525050565b600062000ac860128362000cfb565b915062000ad58262000d7f565b602082019050919050565b600062000aef60178362000cfb565b915062000afc8262000da8565b602082019050919050565b600062000b16601e8362000cfb565b915062000b238262000dd1565b602082019050919050565b600062000b3d60168362000cfb565b915062000b4a8262000dfa565b602082019050919050565b600062000b6460148362000cfb565b915062000b718262000e23565b602082019050919050565b62000b878162000d40565b82525050565b600062000b9b828562000a9e565b60148201915062000bad828462000a9e565b6014820191508190509392505050565b600060208201905062000bd4600083018462000a8d565b92915050565b600060408201905062000bf1600083018562000a8d565b62000c00602083018462000a8d565b9392505050565b600060408201905062000c1e600083018562000a8d565b62000c2d602083018462000b7c565b9392505050565b6000602082019050818103600083015262000c4f8162000ab9565b9050919050565b6000602082019050818103600083015262000c718162000ae0565b9050919050565b6000602082019050818103600083015262000c938162000b07565b9050919050565b6000602082019050818103600083015262000cb58162000b2e565b9050919050565b6000602082019050818103600083015262000cd78162000b55565b9050919050565b600060208201905062000cf5600083018462000b7c565b92915050565b600082825260208201905092915050565b600062000d198262000d20565b9050919050565b600073ffffffffffffffffffffffffffffffffffffffff82169050919050565b6000819050919050565b600062000d578262000d5e565b9050919050565b600062000d6b8262000d72565b9050919050565b60008160601b9050919050565b7f506f636b6574537761703a4249475f4645450000000000000000000000000000600082015250565b7f506f636b6574537761703a5a45524f5f41444452455353000000000000000000600082015250565b7f506f636b6574537761703a4944454e544943414c5f4144445245535345530000600082015250565b7f506f636b6574537761703a504149525f45584953545300000000000000000000600082015250565b7f506f636b6574537761703a464f5242494444454e000000000000000000000000600082015250565b62000e578162000d0c565b811462000e6357600080fd5b50565b62000e718162000d40565b811462000e7d57600080fd5b5056fe60806040526001600b553480156200001657600080fd5b5060004690507f8b73c3c69bb8fe3d512ecc4cf759cc79239f7b179b0ffacaa9a75d522b39400f6040518060400160405280600a81526020017f506f636b65745377617000000000000000000000000000000000000000000000815250805190602001206040518060400160405280600181526020017f3100000000000000000000000000000000000000000000000000000000000000815250805190602001208330604051602001620000cf95949392919062000166565b604051602081830303815290604052805190602001206003819055505033600560006101000a81548173ffffffffffffffffffffffffffffffffffffffff021916908373ffffffffffffffffffffffffffffffffffffffff1602179055506200020b565b6200013e81620001c3565b82525050565b6200014f81620001d7565b82525050565b620001608162000201565b82525050565b600060a0820190506200017d600083018862000144565b6200018c602083018762000144565b6200019b604083018662000144565b620001aa606083018562000155565b620001b9608083018462000133565b9695505050505050565b6000620001d082620001e1565b9050919050565b6000819050919050565b600073ffffffffffffffffffffffffffffffffffffffff82169050919050565b6000819050919050565b613efe806200021b6000396000f3fe608060405234801561001057600080fd5b506004361061018e5760003560e01c80636a627842116100de578063ba9a7a5611610097578063d21220a711610071578063d21220a7146104a2578063d505accf146104c0578063dd62ed3e146104dc578063fff6cae91461050c5761018e565b8063ba9a7a561461044a578063bc25cf7714610468578063c45a0155146104845761018e565b80636a6278421461033b57806370a082311461036b5780637ecebe001461039b57806389afcb44146103cb57806395d89b41146103fc578063a9059cbb1461041a5761018e565b806323b872dd1161014b5780633644e515116101255780633644e515146102c5578063485cc955146102e35780635909c0d5146102ff5780635a3d54931461031d5761018e565b806323b872dd1461025957806330adf81f14610289578063313ce567146102a75761018e565b8063022c0d9f1461019357806306fdde03146101af5780630902f1ac146101cd578063095ea7b3146101ed5780630dfe16811461021d57806318160ddd1461023b575b600080fd5b6101ad60048036038101906101a89190612d26565b610516565b005b6101b7610cee565b6040516101c491906132ae565b60405180910390f35b6101d5610d27565b6040516101e4939291906134b9565b60405180910390f35b61020760048036038101906102029190612c98565b610d84565b60405161021491906131d2565b60405180910390f35b610225610d9b565b604051610232919061318e565b60405180910390f35b610243610dc1565b60405161025091906134f0565b60405180910390f35b610273600480360381019061026e9190612bab565b610dc7565b60405161028091906131d2565b60405180910390f35b610291610f92565b60405161029e91906131ed565b60405180910390f35b6102af610fb9565b6040516102bc91906135b9565b60405180910390f35b6102cd610fbe565b6040516102da91906131ed565b60405180910390f35b6102fd60048036038101906102f89190612b6f565b610fc4565b005b6103076110da565b60405161031491906134f0565b60405180910390f35b6103256110e0565b60405161033291906134f0565b60405180910390f35b61035560048036038101906103509190612b46565b6110e6565b60405161036291906134f0565b60405180910390f35b61038560048036038101906103809190612b46565b611467565b60405161039291906134f0565b60405180910390f35b6103b560048036038101906103b09190612b46565b61147f565b6040516103c291906134f0565b60405180910390f35b6103e560048036038101906103e09190612b46565b611497565b6040516103f392919061350b565b60405180910390f35b6104046118f6565b60405161041191906132ae565b60405180910390f35b610434600480360381019061042f9190612c98565b61192f565b60405161044191906131d2565b60405180910390f35b610452611946565b60405161045f91906134f0565b60405180910390f35b610482600480360381019061047d9190612b46565b61194c565b005b61048c611b96565b604051610499919061318e565b60405180910390f35b6104aa611bbc565b6040516104b7919061318e565b60405180910390f35b6104da60048036038101906104d59190612bfa565b611be2565b005b6104f660048036038101906104f19190612b6f565b611e0a565b60405161050391906134f0565b60405180910390f35b610514611e2f565b005b6001600b541461055b576040517f08c379a000000000000000000000000000000000000000000000000000000000815260040161055290613370565b60405180910390fd5b6000600b8190555060008511806105725750600084115b6105b1576040517f08c379a00000000000000000000000000000000000000000000000000000000081526004016105a8906133f0565b60405180910390fd5b6000806105bc610d27565b5091509150816dffffffffffffffffffffffffffff16871080156105ef5750806dffffffffffffffffffffffffffff1686105b61062e576040517f08c379a000000000000000000000000000000000000000000000000000000000815260040161062590613350565b60405180910390fd5b6000806000600660009054906101000a900473ffffffffffffffffffffffffffffffffffffffff1690506000600760009054906101000a900473ffffffffffffffffffffffffffffffffffffffff1690508173ffffffffffffffffffffffffffffffffffffffff168973ffffffffffffffffffffffffffffffffffffffff16141580156106e757508073ffffffffffffffffffffffffffffffffffffffff168973ffffffffffffffffffffffffffffffffffffffff1614155b610726576040517f08c379a000000000000000000000000000000000000000000000000000000000815260040161071d90613450565b60405180910390fd5b60008b111561073b5761073a828a8d61201e565b5b60008a11156107505761074f818a8c61201e565b5b600088889050111561088c573373ffffffffffffffffffffffffffffffffffffffff16637936cd908c8c8b8b6040518563ffffffff1660e01b815260040161079b9493929190613534565b600060405180830381600087803b1580156107b557600080fd5b505af19250505080156107c6575060015b61088b576107d2613a31565b806308c379a0141561084e57506107e7613dbf565b806107f25750610850565b80604051602001610803919061316c565b6040516020818303038152906040526040517f08c379a000000000000000000000000000000000000000000000000000000000815260040161084591906132ae565b60405180910390fd5b505b6040517f08c379a000000000000000000000000000000000000000000000000000000000815260040161088290613330565b60405180910390fd5b5b8173ffffffffffffffffffffffffffffffffffffffff166370a08231306040518263ffffffff1660e01b81526004016108c5919061318e565b60206040518083038186803b1580156108dd57600080fd5b505afa1580156108f1573d6000803e3d6000fd5b505050506040513d601f19601f820116820180604052508101906109159190612cfd565b93508073ffffffffffffffffffffffffffffffffffffffff166370a08231306040518263ffffffff1660e01b8152600401610950919061318e565b60206040518083038186803b15801561096857600080fd5b505afa15801561097c573d6000803e3d6000fd5b505050506040513d601f19601f820116820180604052508101906109a09190612cfd565b92505050600089856dffffffffffffffffffffffffffff166109c29190613794565b83116109cf5760006109f7565b89856dffffffffffffffffffffffffffff166109eb9190613794565b836109f69190613794565b5b9050600089856dffffffffffffffffffffffffffff16610a179190613794565b8311610a24576000610a4c565b89856dffffffffffffffffffffffffffff16610a409190613794565b83610a4b9190613794565b5b90506000821180610a5d5750600081115b610a9c576040517f08c379a0000000000000000000000000000000000000000000000000000000008152600401610a93906132d0565b60405180910390fd5b6000600560009054906101000a900473ffffffffffffffffffffffffffffffffffffffff1673ffffffffffffffffffffffffffffffffffffffff1663ddca3f436040518163ffffffff1660e01b815260040160206040518083038186803b158015610b0657600080fd5b505afa158015610b1a573d6000803e3d6000fd5b505050506040513d601f19601f82011682018060405250810190610b3e9190612cfd565b90506000610b7d610b5883866121a890919063ffffffff16565b610b6f633b9aca00896121a890919063ffffffff16565b6121be90919063ffffffff16565b90506000610bbc610b9784866121a890919063ffffffff16565b610bae633b9aca00896121a890919063ffffffff16565b6121be90919063ffffffff16565b9050610c0b670de0b6b3a7640000610bfd8a6dffffffffffffffffffffffffffff168c6dffffffffffffffffffffffffffff166121a890919063ffffffff16565b6121a890919063ffffffff16565b610c1e82846121a890919063ffffffff16565b1015610c5f576040517f08c379a0000000000000000000000000000000000000000000000000000000008152600401610c56906133b0565b60405180910390fd5b505050610c6e848488886121d4565b8873ffffffffffffffffffffffffffffffffffffffff163373ffffffffffffffffffffffffffffffffffffffff167fd78ad95fa46c994b6551d0da85fc275fe613ce37657fb8d5e3d130840159d82284848f8f604051610cd19493929190613574565b60405180910390a35050505050506001600b819055505050505050565b6040518060400160405280600a81526020017f506f636b6574537761700000000000000000000000000000000000000000000081525081565b6000806000600a60009054906101000a90046dffffffffffffffffffffffffffff169250600a600e9054906101000a90046dffffffffffffffffffffffffffff169150600a601c9054906101000a900463ffffffff169050909192565b6000610d913384846124c8565b6001905092915050565b600660009054906101000a900473ffffffffffffffffffffffffffffffffffffffff1681565b60005481565b60007fffffffffffffffffffffffffffffffffffffffffffffffffffffffffffffffff600260008673ffffffffffffffffffffffffffffffffffffffff1673ffffffffffffffffffffffffffffffffffffffff16815260200190815260200160002060003373ffffffffffffffffffffffffffffffffffffffff1673ffffffffffffffffffffffffffffffffffffffff1681526020019081526020016000205414610f7c57610efb82600260008773ffffffffffffffffffffffffffffffffffffffff1673ffffffffffffffffffffffffffffffffffffffff16815260200190815260200160002060003373ffffffffffffffffffffffffffffffffffffffff1673ffffffffffffffffffffffffffffffffffffffff168152602001908152602001600020546121be90919063ffffffff16565b600260008673ffffffffffffffffffffffffffffffffffffffff1673ffffffffffffffffffffffffffffffffffffffff16815260200190815260200160002060003373ffffffffffffffffffffffffffffffffffffffff1673ffffffffffffffffffffffffffffffffffffffff168152602001908152602001600020819055505b610f878484846125b3565b600190509392505050565b7f6e71edae12b1b97f4d1f60370fef10105fa2faae0126114a169c64845d6126c960001b81565b601281565b60035481565b600560009054906101000a900473ffffffffffffffffffffffffffffffffffffffff1673ffffffffffffffffffffffffffffffffffffffff163373ffffffffffffffffffffffffffffffffffffffff1614611054576040517f08c379a000000000000000000000000000000000000000000000000000000000815260040161104b90613430565b60405180910390fd5b81600660006101000a81548173ffffffffffffffffffffffffffffffffffffffff021916908373ffffffffffffffffffffffffffffffffffffffff16021790555080600760006101000a81548173ffffffffffffffffffffffffffffffffffffffff021916908373ffffffffffffffffffffffffffffffffffffffff1602179055505050565b60085481565b60095481565b60006001600b541461112d576040517f08c379a000000000000000000000000000000000000000000000000000000000815260040161112490613370565b60405180910390fd5b6000600b81905550600080611140610d27565b50915091506000600660009054906101000a900473ffffffffffffffffffffffffffffffffffffffff1673ffffffffffffffffffffffffffffffffffffffff166370a08231306040518263ffffffff1660e01b81526004016111a2919061318e565b60206040518083038186803b1580156111ba57600080fd5b505afa1580156111ce573d6000803e3d6000fd5b505050506040513d601f19601f820116820180604052508101906111f29190612cfd565b90506000600760009054906101000a900473ffffffffffffffffffffffffffffffffffffffff1673ffffffffffffffffffffffffffffffffffffffff166370a08231306040518263ffffffff1660e01b8152600401611251919061318e565b60206040518083038186803b15801561126957600080fd5b505afa15801561127d573d6000803e3d6000fd5b505050506040513d601f19601f820116820180604052508101906112a19190612cfd565b905060006112c8856dffffffffffffffffffffffffffff16846121be90919063ffffffff16565b905060006112ef856dffffffffffffffffffffffffffff16846121be90919063ffffffff16565b905060008054905060008114156113435761132f6103e861132161131c85876121a890919063ffffffff16565b612747565b6121be90919063ffffffff16565b975061133e60006103e86127c1565b6113aa565b6113a7876dffffffffffffffffffffffffffff1661136a83866121a890919063ffffffff16565b61137491906136b3565b876dffffffffffffffffffffffffffff1661139884866121a890919063ffffffff16565b6113a291906136b3565b6128db565b97505b600088116113ed576040517f08c379a00000000000000000000000000000000000000000000000000000000081526004016113e490613310565b60405180910390fd5b6113f789896127c1565b611403858589896121d4565b3373ffffffffffffffffffffffffffffffffffffffff167f4c209b5fc8ad50758f13e2e1088ba56a560dff690a1c6fef26394f4c03821c4f848460405161144b92919061350b565b60405180910390a2505050505050506001600b81905550919050565b60016020528060005260406000206000915090505481565b60046020528060005260406000206000915090505481565b6000806001600b54146114df576040517f08c379a00000000000000000000000000000000000000000000000000000000081526004016114d690613370565b60405180910390fd5b6000600b819055506000806114f2610d27565b50915091506000600660009054906101000a900473ffffffffffffffffffffffffffffffffffffffff1690506000600760009054906101000a900473ffffffffffffffffffffffffffffffffffffffff16905060008273ffffffffffffffffffffffffffffffffffffffff166370a08231306040518263ffffffff1660e01b8152600401611580919061318e565b60206040518083038186803b15801561159857600080fd5b505afa1580156115ac573d6000803e3d6000fd5b505050506040513d601f19601f820116820180604052508101906115d09190612cfd565b905060008273ffffffffffffffffffffffffffffffffffffffff166370a08231306040518263ffffffff1660e01b815260040161160d919061318e565b60206040518083038186803b15801561162557600080fd5b505afa158015611639573d6000803e3d6000fd5b505050506040513d601f19601f8201168201806040525081019061165d9190612cfd565b90506000600160003073ffffffffffffffffffffffffffffffffffffffff1673ffffffffffffffffffffffffffffffffffffffff168152602001908152602001600020549050600080549050806116bd85846121a890919063ffffffff16565b6116c791906136b3565b9950806116dd84846121a890919063ffffffff16565b6116e791906136b3565b985060008a1180156116f95750600089115b611738576040517f08c379a000000000000000000000000000000000000000000000000000000000815260040161172f90613470565b60405180910390fd5b61174230836128f4565b61174d868c8c61201e565b611758858c8b61201e565b8573ffffffffffffffffffffffffffffffffffffffff166370a08231306040518263ffffffff1660e01b8152600401611791919061318e565b60206040518083038186803b1580156117a957600080fd5b505afa1580156117bd573d6000803e3d6000fd5b505050506040513d601f19601f820116820180604052508101906117e19190612cfd565b93508473ffffffffffffffffffffffffffffffffffffffff166370a08231306040518263ffffffff1660e01b815260040161181c919061318e565b60206040518083038186803b15801561183457600080fd5b505afa158015611848573d6000803e3d6000fd5b505050506040513d601f19601f8201168201806040525081019061186c9190612cfd565b925061187a84848a8a6121d4565b8a73ffffffffffffffffffffffffffffffffffffffff163373ffffffffffffffffffffffffffffffffffffffff167fdccd412f0b1252819cb1fd330b93224ca42612892bb3f4f789976e6d819364968c8c6040516118d992919061350b565b60405180910390a350505050505050506001600b81905550915091565b6040518060400160405280600781526020017f50532d504149520000000000000000000000000000000000000000000000000081525081565b600061193c3384846125b3565b6001905092915050565b6103e881565b6001600b5414611991576040517f08c379a000000000000000000000000000000000000000000000000000000000815260040161198890613370565b60405180910390fd5b6000600b819055506000600660009054906101000a900473ffffffffffffffffffffffffffffffffffffffff1690506000600760009054906101000a900473ffffffffffffffffffffffffffffffffffffffff169050611ab88284611ab3600a60009054906101000a90046dffffffffffffffffffffffffffff166dffffffffffffffffffffffffffff168673ffffffffffffffffffffffffffffffffffffffff166370a08231306040518263ffffffff1660e01b8152600401611a55919061318e565b60206040518083038186803b158015611a6d57600080fd5b505afa158015611a81573d6000803e3d6000fd5b505050506040513d601f19601f82011682018060405250810190611aa59190612cfd565b6121be90919063ffffffff16565b61201e565b611b898184611b84600a600e9054906101000a90046dffffffffffffffffffffffffffff166dffffffffffffffffffffffffffff168573ffffffffffffffffffffffffffffffffffffffff166370a08231306040518263ffffffff1660e01b8152600401611b26919061318e565b60206040518083038186803b158015611b3e57600080fd5b505afa158015611b52573d6000803e3d6000fd5b505050506040513d601f19601f82011682018060405250810190611b769190612cfd565b6121be90919063ffffffff16565b61201e565b50506001600b8190555050565b600560009054906101000a900473ffffffffffffffffffffffffffffffffffffffff1681565b600760009054906101000a900473ffffffffffffffffffffffffffffffffffffffff1681565b42841015611c25576040517f08c379a0000000000000000000000000000000000000000000000000000000008152600401611c1c906133d0565b60405180910390fd5b60006003547f6e71edae12b1b97f4d1f60370fef10105fa2faae0126114a169c64845d6126c960001b898989600460008e73ffffffffffffffffffffffffffffffffffffffff1673ffffffffffffffffffffffffffffffffffffffff1681526020019081526020016000206000815480929190611ca190613920565b919050558a604051602001611cbb96959493929190613208565b60405160208183030381529060405280519060200120604051602001611ce2929190613135565b604051602081830303815290604052805190602001209050600060018286868660405160008152602001604052604051611d1f9493929190613269565b6020604051602081039080840390855afa158015611d41573d6000803e3d6000fd5b505050602060405103519050600073ffffffffffffffffffffffffffffffffffffffff168173ffffffffffffffffffffffffffffffffffffffff1614158015611db557508873ffffffffffffffffffffffffffffffffffffffff168173ffffffffffffffffffffffffffffffffffffffff16145b611df4576040517f08c379a0000000000000000000000000000000000000000000000000000000008152600401611deb90613410565b60405180910390fd5b611dff8989896124c8565b505050505050505050565b6002602052816000526040600020602052806000526040600020600091509150505481565b6001600b5414611e74576040517f08c379a0000000000000000000000000000000000000000000000000000000008152600401611e6b90613370565b60405180910390fd5b6000600b81905550612014600660009054906101000a900473ffffffffffffffffffffffffffffffffffffffff1673ffffffffffffffffffffffffffffffffffffffff166370a08231306040518263ffffffff1660e01b8152600401611eda919061318e565b60206040518083038186803b158015611ef257600080fd5b505afa158015611f06573d6000803e3d6000fd5b505050506040513d601f19601f82011682018060405250810190611f2a9190612cfd565b600760009054906101000a900473ffffffffffffffffffffffffffffffffffffffff1673ffffffffffffffffffffffffffffffffffffffff166370a08231306040518263ffffffff1660e01b8152600401611f85919061318e565b60206040518083038186803b158015611f9d57600080fd5b505afa158015611fb1573d6000803e3d6000fd5b505050506040513d601f19601f82011682018060405250810190611fd59190612cfd565b600a60009054906101000a90046dffffffffffffffffffffffffffff16600a600e9054906101000a90046dffffffffffffffffffffffffffff166121d4565b6001600b81905550565b6000808473ffffffffffffffffffffffffffffffffffffffff166040518060400160405280601981526020017f7472616e7366657228616464726573732c75696e7432353629000000000000008152508051906020012085856040516024016120889291906131a9565b604051602081830303815290604052907bffffffffffffffffffffffffffffffffffffffffffffffffffffffff19166020820180517bffffffffffffffffffffffffffffffffffffffffffffffffffffffff83818316178352505050506040516120f2919061311e565b6000604051808303816000865af19150503d806000811461212f576040519150601f19603f3d011682016040523d82523d6000602084013e612134565b606091505b509150915081801561216257506000815114806121615750808060200190518101906121609190612cd4565b5b5b6121a1576040517f08c379a0000000000000000000000000000000000000000000000000000000008152600401612198906132f0565b60405180910390fd5b5050505050565b600081836121b6919061373a565b905092915050565b600081836121cc9190613794565b905092915050565b6dffffffffffffffffffffffffffff8016841115801561220457506dffffffffffffffffffffffffffff80168311155b612243576040517f08c379a000000000000000000000000000000000000000000000000000000000815260040161223a90613390565b60405180910390fd5b6000640100000000426122569190613973565b90506000600a601c9054906101000a900463ffffffff168261227891906137c8565b905060008163ffffffff161180156122a157506000846dffffffffffffffffffffffffffff1614155b80156122be57506000836dffffffffffffffffffffffffffff1614155b156123c4578063ffffffff16612303856122d786612a0e565b7bffffffffffffffffffffffffffffffffffffffffffffffffffffffff16612a4290919063ffffffff16565b7bffffffffffffffffffffffffffffffffffffffffffffffffffffffff1661232b919061373a565b6008600082825461233c919061362c565b925050819055508063ffffffff166123838461235787612a0e565b7bffffffffffffffffffffffffffffffffffffffffffffffffffffffff16612a4290919063ffffffff16565b7bffffffffffffffffffffffffffffffffffffffffffffffffffffffff166123ab919061373a565b600960008282546123bc919061362c565b925050819055505b85600a60006101000a8154816dffffffffffffffffffffffffffff02191690836dffffffffffffffffffffffffffff16021790555084600a600e6101000a8154816dffffffffffffffffffffffffffff02191690836dffffffffffffffffffffffffffff16021790555081600a601c6101000a81548163ffffffff021916908363ffffffff1602179055507f1c411e9a96e071241c2f21f7726b17ae89e3cab4c78be50e062b03a9fffbbad1600a60009054906101000a90046dffffffffffffffffffffffffffff16600a600e9054906101000a90046dffffffffffffffffffffffffffff166040516124b8929190613490565b60405180910390a1505050505050565b80600260008573ffffffffffffffffffffffffffffffffffffffff1673ffffffffffffffffffffffffffffffffffffffff16815260200190815260200160002060008473ffffffffffffffffffffffffffffffffffffffff1673ffffffffffffffffffffffffffffffffffffffff168152602001908152602001600020819055508173ffffffffffffffffffffffffffffffffffffffff168373ffffffffffffffffffffffffffffffffffffffff167f8c5be1e5ebec7d5bd14f71427d1e84f3dd0314c0f7b2291e5b200ac8c7c3b925836040516125a691906134f0565b60405180910390a3505050565b61260581600160008673ffffffffffffffffffffffffffffffffffffffff1673ffffffffffffffffffffffffffffffffffffffff168152602001908152602001600020546121be90919063ffffffff16565b600160008573ffffffffffffffffffffffffffffffffffffffff1673ffffffffffffffffffffffffffffffffffffffff1681526020019081526020016000208190555061269a81600160008573ffffffffffffffffffffffffffffffffffffffff1673ffffffffffffffffffffffffffffffffffffffff16815260200190815260200160002054612a6890919063ffffffff16565b600160008473ffffffffffffffffffffffffffffffffffffffff1673ffffffffffffffffffffffffffffffffffffffff168152602001908152602001600020819055508173ffffffffffffffffffffffffffffffffffffffff168373ffffffffffffffffffffffffffffffffffffffff167fddf252ad1be2c89b69c2b068fc378daa952ba7f163c4a11628f55a4df523b3ef8360405161273a91906134f0565b60405180910390a3505050565b600060038211156127ae578190506000600160028461276691906136b3565b612770919061362c565b90505b818110156127a857809150600281828561278d91906136b3565b612797919061362c565b6127a191906136b3565b9050612773565b506127bc565b600082146127bb57600190505b5b919050565b6127d681600054612a6890919063ffffffff16565b60008190555061282e81600160008573ffffffffffffffffffffffffffffffffffffffff1673ffffffffffffffffffffffffffffffffffffffff16815260200190815260200160002054612a6890919063ffffffff16565b600160008473ffffffffffffffffffffffffffffffffffffffff1673ffffffffffffffffffffffffffffffffffffffff168152602001908152602001600020819055508173ffffffffffffffffffffffffffffffffffffffff16600073ffffffffffffffffffffffffffffffffffffffff167fddf252ad1be2c89b69c2b068fc378daa952ba7f163c4a11628f55a4df523b3ef836040516128cf91906134f0565b60405180910390a35050565b60008183106128ea57816128ec565b825b905092915050565b61294681600160008573ffffffffffffffffffffffffffffffffffffffff1673ffffffffffffffffffffffffffffffffffffffff168152602001908152602001600020546121be90919063ffffffff16565b600160008473ffffffffffffffffffffffffffffffffffffffff1673ffffffffffffffffffffffffffffffffffffffff1681526020019081526020016000208190555061299e816000546121be90919063ffffffff16565b600081905550600073ffffffffffffffffffffffffffffffffffffffff168273ffffffffffffffffffffffffffffffffffffffff167fddf252ad1be2c89b69c2b068fc378daa952ba7f163c4a11628f55a4df523b3ef83604051612a0291906134f0565b60405180910390a35050565b60006e010000000000000000000000000000826dffffffffffffffffffffffffffff16612a3b91906136e4565b9050919050565b6000816dffffffffffffffffffffffffffff1683612a609190613682565b905092915050565b60008183612a76919061362c565b905092915050565b600081359050612a8d81613e55565b92915050565b600081519050612aa281613e6c565b92915050565b600081359050612ab781613e83565b92915050565b60008083601f840112612acf57600080fd5b8235905067ffffffffffffffff811115612ae857600080fd5b602083019150836001820283011115612b0057600080fd5b9250929050565b600081359050612b1681613e9a565b92915050565b600081519050612b2b81613e9a565b92915050565b600081359050612b4081613eb1565b92915050565b600060208284031215612b5857600080fd5b6000612b6684828501612a7e565b91505092915050565b60008060408385031215612b8257600080fd5b6000612b9085828601612a7e565b9250506020612ba185828601612a7e565b9150509250929050565b600080600060608486031215612bc057600080fd5b6000612bce86828701612a7e565b9350506020612bdf86828701612a7e565b9250506040612bf086828701612b07565b9150509250925092565b600080600080600080600060e0888a031215612c1557600080fd5b6000612c238a828b01612a7e565b9750506020612c348a828b01612a7e565b9650506040612c458a828b01612b07565b9550506060612c568a828b01612b07565b9450506080612c678a828b01612b31565b93505060a0612c788a828b01612aa8565b92505060c0612c898a828b01612aa8565b91505092959891949750929550565b60008060408385031215612cab57600080fd5b6000612cb985828601612a7e565b9250506020612cca85828601612b07565b9150509250929050565b600060208284031215612ce657600080fd5b6000612cf484828501612a93565b91505092915050565b600060208284031215612d0f57600080fd5b6000612d1d84828501612b1c565b91505092915050565b600080600080600060808688031215612d3e57600080fd5b6000612d4c88828901612b07565b9550506020612d5d88828901612b07565b9450506040612d6e88828901612a7e565b935050606086013567ffffffffffffffff811115612d8b57600080fd5b612d9788828901612abd565b92509250509295509295909350565b612daf816137fc565b82525050565b612dbe8161380e565b82525050565b612dcd8161381a565b82525050565b612de4612ddf8261381a565b613969565b82525050565b6000612df683856135f4565b9350612e038385846138ad565b612e0c83613a53565b840190509392505050565b6000612e22826135de565b612e2c8185613605565b9350612e3c8185602086016138bc565b80840191505092915050565b6000612e53826135e9565b612e5d8185613610565b9350612e6d8185602086016138bc565b612e7681613a53565b840191505092915050565b6000612e8c826135e9565b612e968185613621565b9350612ea68185602086016138bc565b80840191505092915050565b6000612ebf602583613610565b9150612eca82613a71565b604082019050919050565b6000612ee2600283613621565b9150612eed82613ac0565b600282019050919050565b6000612f05601b83613610565b9150612f1082613ae9565b602082019050919050565b6000612f28602983613610565b9150612f3382613b12565b604082019050919050565b6000612f4b600783613610565b9150612f5682613b61565b602082019050919050565b6000612f6e602283613610565b9150612f7982613b8a565b604082019050919050565b6000612f91601283613610565b9150612f9c82613bd9565b602082019050919050565b6000612fb4601483613610565b9150612fbf82613c02565b602082019050919050565b6000612fd7600d83613610565b9150612fe282613c2b565b602082019050919050565b6000612ffa601383613610565b915061300582613c54565b602082019050919050565b600061301d600583613621565b915061302882613c7d565b600582019050919050565b6000613040602683613610565b915061304b82613ca6565b604082019050919050565b6000613063601d83613610565b915061306e82613cf5565b602082019050919050565b6000613086601583613610565b915061309182613d1e565b602082019050919050565b60006130a9601683613610565b91506130b482613d47565b602082019050919050565b60006130cc602983613610565b91506130d782613d70565b604082019050919050565b6130eb81613824565b82525050565b6130fa81613886565b82525050565b61310981613890565b82525050565b613118816138a0565b82525050565b600061312a8284612e17565b915081905092915050565b600061314082612ed5565b915061314c8285612dd3565b60208201915061315c8284612dd3565b6020820191508190509392505050565b600061317782613010565b91506131838284612e81565b915081905092915050565b60006020820190506131a36000830184612da6565b92915050565b60006040820190506131be6000830185612da6565b6131cb60208301846130f1565b9392505050565b60006020820190506131e76000830184612db5565b92915050565b60006020820190506132026000830184612dc4565b92915050565b600060c08201905061321d6000830189612dc4565b61322a6020830188612da6565b6132376040830187612da6565b61324460608301866130f1565b61325160808301856130f1565b61325e60a08301846130f1565b979650505050505050565b600060808201905061327e6000830187612dc4565b61328b602083018661310f565b6132986040830185612dc4565b6132a56060830184612dc4565b95945050505050565b600060208201905081810360008301526132c88184612e48565b905092915050565b600060208201905081810360008301526132e981612eb2565b9050919050565b6000602082019050818103600083015261330981612ef8565b9050919050565b6000602082019050818103600083015261332981612f1b565b9050919050565b6000602082019050818103600083015261334981612f3e565b9050919050565b6000602082019050818103600083015261336981612f61565b9050919050565b6000602082019050818103600083015261338981612f84565b9050919050565b600060208201905081810360008301526133a981612fa7565b9050919050565b600060208201905081810360008301526133c981612fca565b9050919050565b600060208201905081810360008301526133e981612fed565b9050919050565b6000602082019050818103600083015261340981613033565b9050919050565b6000602082019050818103600083015261342981613056565b9050919050565b6000602082019050818103600083015261344981613079565b9050919050565b600060208201905081810360008301526134698161309c565b9050919050565b60006020820190508181036000830152613489816130bf565b9050919050565b60006040820190506134a560008301856130e2565b6134b260208301846130e2565b9392505050565b60006060820190506134ce60008301866130e2565b6134db60208301856130e2565b6134e86040830184613100565b949350505050565b600060208201905061350560008301846130f1565b92915050565b600060408201905061352060008301856130f1565b61352d60208301846130f1565b9392505050565b600060608201905061354960008301876130f1565b61355660208301866130f1565b8181036040830152613569818486612dea565b905095945050505050565b600060808201905061358960008301876130f1565b61359660208301866130f1565b6135a360408301856130f1565b6135b060608301846130f1565b95945050505050565b60006020820190506135ce600083018461310f565b92915050565b6000604051905090565b600081519050919050565b600081519050919050565b600082825260208201905092915050565b600081905092915050565b600082825260208201905092915050565b600081905092915050565b600061363782613886565b915061364283613886565b9250827fffffffffffffffffffffffffffffffffffffffffffffffffffffffffffffffff03821115613677576136766139a4565b5b828201905092915050565b600061368d8261385e565b91506136988361385e565b9250826136a8576136a76139d3565b5b828204905092915050565b60006136be82613886565b91506136c983613886565b9250826136d9576136d86139d3565b5b828204905092915050565b60006136ef8261385e565b91506136fa8361385e565b9250817bffffffffffffffffffffffffffffffffffffffffffffffffffffffff048311821515161561372f5761372e6139a4565b5b828202905092915050565b600061374582613886565b915061375083613886565b9250817fffffffffffffffffffffffffffffffffffffffffffffffffffffffffffffffff0483118215151615613789576137886139a4565b5b828202905092915050565b600061379f82613886565b91506137aa83613886565b9250828210156137bd576137bc6139a4565b5b828203905092915050565b60006137d382613890565b91506137de83613890565b9250828210156137f1576137f06139a4565b5b828203905092915050565b60006138078261383e565b9050919050565b60008115159050919050565b6000819050919050565b60006dffffffffffffffffffffffffffff82169050919050565b600073ffffffffffffffffffffffffffffffffffffffff82169050919050565b60007bffffffffffffffffffffffffffffffffffffffffffffffffffffffff82169050919050565b6000819050919050565b600063ffffffff82169050919050565b600060ff82169050919050565b82818337600083830152505050565b60005b838110156138da5780820151818401526020810190506138bf565b838111156138e9576000848401525b50505050565b6138f882613a53565b810181811067ffffffffffffffff8211171561391757613916613a02565b5b80604052505050565b600061392b82613886565b91507fffffffffffffffffffffffffffffffffffffffffffffffffffffffffffffffff82141561395e5761395d6139a4565b5b600182019050919050565b6000819050919050565b600061397e82613886565b915061398983613886565b925082613999576139986139d3565b5b828206905092915050565b7f4e487b7100000000000000000000000000000000000000000000000000000000600052601160045260246000fd5b7f4e487b7100000000000000000000000000000000000000000000000000000000600052601260045260246000fd5b7f4e487b7100000000000000000000000000000000000000000000000000000000600052604160045260246000fd5b600060033d1115613a505760046000803e613a4d600051613a64565b90505b90565b6000601f19601f8301169050919050565b60008160e01c9050919050565b7f506f636b6574537761703a20494e53554646494349454e545f494e5055545f4160008201527f4d4f554e54000000000000000000000000000000000000000000000000000000602082015250565b7f1901000000000000000000000000000000000000000000000000000000000000600082015250565b7f506f636b6574537761703a205452414e534645525f4641494c45440000000000600082015250565b7f506f636b6574537761703a20494e53554646494349454e545f4c49515549444960008201527f54595f4d494e5445440000000000000000000000000000000000000000000000602082015250565b7f554e4b4e574e2100000000000000000000000000000000000000000000000000600082015250565b7f506f636b6574537761703a20494e53554646494349454e545f4c49515549444960008201527f5459000000000000000000000000000000000000000000000000000000000000602082015250565b7f506f636b6574537761703a204c4f434b45440000000000000000000000000000600082015250565b7f506f636b6574537761703a204f564552464c4f57000000000000000000000000600082015250565b7f506f636b6574537761703a204b00000000000000000000000000000000000000600082015250565b7f506f636b6574537761703a204558504952454400000000000000000000000000600082015250565b7f4e4f4b3a20000000000000000000000000000000000000000000000000000000600082015250565b7f506f636b6574537761703a20494e53554646494349454e545f4f55545055545f60008201527f414d4f554e540000000000000000000000000000000000000000000000000000602082015250565b7f506f636b6574537761703a20494e56414c49445f5349474e4154555245000000600082015250565b7f506f636b6574537761703a20464f5242494444454e0000000000000000000000600082015250565b7f506f636b6574537761703a20494e56414c49445f544f00000000000000000000600082015250565b7f506f636b6574537761703a20494e53554646494349454e545f4c49515549444960008201527f54595f4255524e45440000000000000000000000000000000000000000000000602082015250565b600060443d1015613dcf57613e52565b613dd76135d4565b60043d036004823e80513d602482011167ffffffffffffffff82111715613dff575050613e52565b808201805167ffffffffffffffff811115613e1d5750505050613e52565b80602083010160043d038501811115613e3a575050505050613e52565b613e49826020018501866138ef565b82955050505050505b90565b613e5e816137fc565b8114613e6957600080fd5b50565b613e758161380e565b8114613e8057600080fd5b50565b613e8c8161381a565b8114613e9757600080fd5b50565b613ea381613886565b8114613eae57600080fd5b50565b613eba816138a0565b8114613ec557600080fd5b5056fea2646970667358221220aefdcdb8f3591d803bc7387ea9a659f04eb2cacb722a020d049d66ec084bb91a64736f6c63430008040033a26469706673582212203b26622e3e6c90f94d1b3f625a797dc0cd2064bd9d8378acbb29d3ceccd7516c64736f6c6343000804003360e06040527fffffffffffffffffffffffffffffffffffffffffffffffffffffffffffffffff6000553480156200003557600080fd5b5060405162005f9f38038062005f9f83398181016040528101906200005b919062000126565b8282828273ffffffffffffffffffffffffffffffffffffffff1660808173ffffffffffffffffffffffffffffffffffffffff1660601b815250508173ffffffffffffffffffffffffffffffffffffffff1660a08173ffffffffffffffffffffffffffffffffffffffff1660601b815250508073ffffffffffffffffffffffffffffffffffffffff1660c08173ffffffffffffffffffffffffffffffffffffffff1660601b81525050505050505050620001ca565b6000815190506200012081620001b0565b92915050565b6000806000606084860312156200013c57600080fd5b60006200014c868287016200010f565b93505060206200015f868287016200010f565b925050604062000172868287016200010f565b9150509250925092565b6000620001898262000190565b9050919050565b600073ffffffffffffffffffffffffffffffffffffffff82169050919050565b620001bb816200017c565b8114620001c757600080fd5b50565b60805160601c60a05160601c60c05160601c615c926200030d60003960008181610f9c015281816110050152818161110c015281816111ed015281816112e10152818161130c0152818161134d01528181611390015281816114b0015281816114db0152818161151c0152818161155f0152818161198401528181612b7601528181612bcd01528181612c9701528181612d600152612f0e01526000818161011f0152818161084b0152818161094c015281816109e70152818161309d01528181613100015261318101526000818161055d015281816106e901528181610a6201528181610d3301528181610e1f01528181610f4a015281816110bd0152818161119e015281816112ad0152818161147c0152818161170e01528181611960015281816119ad01528181611e490152818161268501526128b40152615c926000f3fe6080604052600436106101185760003560e01c80638d4d72e5116100a0578063cccef9e211610064578063cccef9e214610472578063d06ca61f1461049d578063db3e2198146104da578063df2ab5bb1461050a578063f28c049814610526576101ad565b80638d4d72e51461036a57806396ed28f91461039d578063ac9650d8146103da578063ad615dec1461040a578063c45a015514610447576101ad565b806349404b7c116100e757806349404b7c1461028c5780634aa4a4fc146102a85780636385a271146102d35780637936cd901461030457806385f8c2591461032d576101ad565b8063054d50d4146101b257806313b51924146101ef5780631f00ca741461021f578063441a12de1461025c576101ad565b366101ad577f000000000000000000000000000000000000000000000000000000000000000073ffffffffffffffffffffffffffffffffffffffff163373ffffffffffffffffffffffffffffffffffffffff16146101ab576040517f08c379a00000000000000000000000000000000000000000000000000000000081526004016101a290614f3d565b60405180910390fd5b005b600080fd5b3480156101be57600080fd5b506101d960048036038101906101d491906145c7565b610556565b6040516101e691906150bf565b60405180910390f35b610209600480360381019061020491906143ad565b61058d565b60405161021691906150bf565b60405180910390f35b34801561022b57600080fd5b50610246600480360381019061024191906144cb565b6106e2565b6040516102539190614d7e565b60405180910390f35b610276600480360381019061027191906143ee565b610717565b60405161028391906150bf565b60405180910390f35b6102a660048036038101906102a1919061448f565b610847565b005b3480156102b457600080fd5b506102bd6109e5565b6040516102ca9190614cb8565b60405180910390f35b6102ed60048036038101906102e89190614342565b610a09565b6040516102fb9291906150da565b60405180910390f35b34801561031057600080fd5b5061032b6004803603810190610326919061455b565b610d07565b005b34801561033957600080fd5b50610354600480360381019061034f91906145c7565b610e18565b60405161036191906150bf565b60405180910390f35b610384600480360381019061037f91906142ad565b610e4f565b6040516103949493929190615199565b60405180910390f35b3480156103a957600080fd5b506103c460048036038101906103bf9190614173565b611707565b6040516103d19190614da0565b60405180910390f35b6103f460048036038101906103ef91906141fe565b61173c565b6040516104019190614d5c565b60405180910390f35b34801561041657600080fd5b50610431600480360381019061042c91906145c7565b611948565b60405161043e91906150bf565b60405180910390f35b34801561045357600080fd5b5061045c61195e565b6040516104699190614cb8565b60405180910390f35b34801561047e57600080fd5b50610487611982565b6040516104949190614cb8565b60405180910390f35b3480156104a957600080fd5b506104c460048036038101906104bf91906144cb565b6119a6565b6040516104d19190614d7e565b60405180910390f35b6104f460048036038101906104ef9190614318565b6119db565b60405161050191906150bf565b60405180910390f35b610524600480360381019061051f91906141af565b6119e2565b005b610540600480360381019061053b91906142d7565b611ad7565b60405161054d91906150bf565b60405180910390f35b60006105847f0000000000000000000000000000000000000000000000000000000000000000858585611ade565b90509392505050565b600081604001518061059d611c77565b11156105de576040517f08c379a00000000000000000000000000000000000000000000000000000000081526004016105d590614fdd565b60405180910390fd5b6000915060003390505b6001156106945760006105fe8560000151611c7f565b9050610655856060015182610617578660200151610619565b305b60405180604001604052806106318a60000151611ca5565b81526020018673ffffffffffffffffffffffffffffffffffffffff16815250611cd0565b8560600181815250508015610681573091506106748560000151611ec8565b856000018190525061068e565b8460600151935050610694565b506105e8565b83608001518310156106db576040517f08c379a00000000000000000000000000000000000000000000000000000000081526004016106d29061505d565b60405180910390fd5b5050919050565b606061070f7f00000000000000000000000000000000000000000000000000000000000000008484611ef3565b905092915050565b6000816060013580610727611c77565b1115610768576040517f08c379a000000000000000000000000000000000000000000000000000000000815260040161075f90614fdd565b60405180910390fd5b6107f883608001358460400160208101906107839190614121565b60405180604001604052808760000160208101906107a19190614121565b8860200160208101906107b49190614121565b6040516020016107c5929190614c14565b60405160208183030381529060405281526020013373ffffffffffffffffffffffffffffffffffffffff16815250611cd0565b91508260a00135821015610841576040517f08c379a00000000000000000000000000000000000000000000000000000000081526004016108389061505d565b60405180910390fd5b50919050565b60007f000000000000000000000000000000000000000000000000000000000000000073ffffffffffffffffffffffffffffffffffffffff166370a08231306040518263ffffffff1660e01b81526004016108a29190614cb8565b60206040518083038186803b1580156108ba57600080fd5b505afa1580156108ce573d6000803e3d6000fd5b505050506040513d601f19601f820116820180604052508101906108f29190614466565b905060008311156109415782811015610940576040517f08c379a000000000000000000000000000000000000000000000000000000000815260040161093790614ddd565b60405180910390fd5b5b60008111156109e0577f000000000000000000000000000000000000000000000000000000000000000073ffffffffffffffffffffffffffffffffffffffff16632e1a7d4d826040518263ffffffff1660e01b81526004016109a391906150bf565b600060405180830381600087803b1580156109bd57600080fd5b505af11580156109d1573d6000803e3d6000fd5b505050506109df8282612173565b5b505050565b7f000000000000000000000000000000000000000000000000000000000000000081565b6000808260e0013580610a1a611c77565b1115610a5b576040517f08c379a0000000000000000000000000000000000000000000000000000000008152600401610a5290614fdd565b60405180910390fd5b6000610aac7f0000000000000000000000000000000000000000000000000000000000000000866000016020810190610a949190614121565b876020016020810190610aa79190614121565b612299565b90508073ffffffffffffffffffffffffffffffffffffffff166323b872dd338388604001356040518463ffffffff1660e01b8152600401610aef93929190614cfc565b602060405180830381600087803b158015610b0957600080fd5b505af1158015610b1d573d6000803e3d6000fd5b505050506040513d601f19601f82011682018060405250810190610b419190614243565b506000808273ffffffffffffffffffffffffffffffffffffffff166389afcb448860c0016020810190610b749190614121565b6040518263ffffffff1660e01b8152600401610b909190614cb8565b6040805180830381600087803b158015610ba957600080fd5b505af1158015610bbd573d6000803e3d6000fd5b505050506040513d601f19601f82011682018060405250810190610be1919061451f565b915091506000610c15886000016020810190610bfd9190614121565b896020016020810190610c109190614121565b61235c565b5090508073ffffffffffffffffffffffffffffffffffffffff16886000016020810190610c429190614121565b73ffffffffffffffffffffffffffffffffffffffff1614610c64578183610c67565b82825b80975081985050508760600135871015610cb6576040517f08c379a0000000000000000000000000000000000000000000000000000000008152600401610cad90614ebd565b60405180910390fd5b8760800135861015610cfd576040517f08c379a0000000000000000000000000000000000000000000000000000000008152600401610cf490614f5d565b60405180910390fd5b5050505050915091565b60008282810190610d18919061436c565b9050600080610d2a836000015161248a565b91509150610d597f000000000000000000000000000000000000000000000000000000000000000083836124be565b5060008060008911610d9a578373ffffffffffffffffffffffffffffffffffffffff168373ffffffffffffffffffffffffffffffffffffffff161088610dcb565b8273ffffffffffffffffffffffffffffffffffffffff168473ffffffffffffffffffffffffffffffffffffffff1610895b9150915081158015610de65750610de58560000151611c7f565b5b15610e0d57610df88560000151611ec8565b8560000181905250610e0b81338761250c565b505b505050505050505050565b6000610e467f0000000000000000000000000000000000000000000000000000000000000000858585612704565b90509392505050565b6000806000808460e0013580610e63611c77565b1115610ea4576040517f08c379a0000000000000000000000000000000000000000000000000000000008152600401610e9b90614fdd565b60405180910390fd5b600080610f33886060013589608001358a60a001358b60c0013560405180604001604052808e6000016020810190610edc9190614121565b8f6020016020810190610eef9190614121565b604051602001610f00929190614c14565b60405160208183030381529060405281526020013373ffffffffffffffffffffffffffffffffffffffff168152506128aa565b809450819550829950839a50505050506000610f947f00000000000000000000000000000000000000000000000000000000000000008a6000016020810190610f7c9190614121565b8b6020016020810190610f8f9190614121565b612299565b9050600095507f000000000000000000000000000000000000000000000000000000000000000073ffffffffffffffffffffffffffffffffffffffff16896000016020810190610fe49190614121565b73ffffffffffffffffffffffffffffffffffffffff161415801561106657507f000000000000000000000000000000000000000000000000000000000000000073ffffffffffffffffffffffffffffffffffffffff1689602001602081019061104d9190614121565b73ffffffffffffffffffffffffffffffffffffffff1614155b1561162157600083118061107a5750600082115b6110b9576040517f08c379a00000000000000000000000000000000000000000000000000000000081526004016110b090614dfd565b60405180910390fd5b60007f000000000000000000000000000000000000000000000000000000000000000073ffffffffffffffffffffffffffffffffffffffff1663e6a439058b600001602081019061110a9190614121565b7f00000000000000000000000000000000000000000000000000000000000000006040518363ffffffff1660e01b8152600401611148929190614cd3565b60206040518083038186803b15801561116057600080fd5b505afa158015611174573d6000803e3d6000fd5b505050506040513d601f19601f82011682018060405250810190611198919061414a565b905060007f000000000000000000000000000000000000000000000000000000000000000073ffffffffffffffffffffffffffffffffffffffff1663e6a439058c60200160208101906111eb9190614121565b7f00000000000000000000000000000000000000000000000000000000000000006040518363ffffffff1660e01b8152600401611229929190614cd3565b60206040518083038186803b15801561124157600080fd5b505afa158015611255573d6000803e3d6000fd5b505050506040513d601f19601f82011682018060405250810190611279919061414a565b9050600085111561145357849750600060028b611296919061540f565b9050808b6112a4919061549a565b9a5060006113057f00000000000000000000000000000000000000000000000000000000000000008e60000160208101906112df9190614121565b7f0000000000000000000000000000000000000000000000000000000000000000612299565b90506113337f000000000000000000000000000000000000000000000000000000000000000033838d613099565b60006113718e600001602081019061134b9190614121565b7f000000000000000000000000000000000000000000000000000000000000000061235c565b5090506000808273ffffffffffffffffffffffffffffffffffffffff167f000000000000000000000000000000000000000000000000000000000000000073ffffffffffffffffffffffffffffffffffffffff16146113d2578460006113d6565b6000855b915091508373ffffffffffffffffffffffffffffffffffffffff1663022c0d9f83838b6040518463ffffffff1660e01b81526004016114179392919061514f565b600060405180830381600087803b15801561143157600080fd5b505af1158015611445573d6000803e3d6000fd5b50505050505050505061161e565b839750600060028a611465919061540f565b9050808a611473919061549a565b995060006114d47f00000000000000000000000000000000000000000000000000000000000000008e60200160208101906114ae9190614121565b7f0000000000000000000000000000000000000000000000000000000000000000612299565b90506115027f000000000000000000000000000000000000000000000000000000000000000033838d613099565b60006115408e602001602081019061151a9190614121565b7f000000000000000000000000000000000000000000000000000000000000000061235c565b5090506000808273ffffffffffffffffffffffffffffffffffffffff167f000000000000000000000000000000000000000000000000000000000000000073ffffffffffffffffffffffffffffffffffffffff16146115a1578460006115a5565b6000855b915091508373ffffffffffffffffffffffffffffffffffffffff1663022c0d9f83838b6040518463ffffffff1660e01b81526004016115e69392919061514f565b600060405180830381600087803b15801561160057600080fd5b505af1158015611614573d6000803e3d6000fd5b5050505050505050505b50505b61163f8960000160208101906116379190614121565b33838b613099565b61165d8960200160208101906116559190614121565b33838a613099565b8073ffffffffffffffffffffffffffffffffffffffff16636a6278428a604001602081019061168c9190614121565b6040518263ffffffff1660e01b81526004016116a89190614cb8565b602060405180830381600087803b1580156116c257600080fd5b505af11580156116d6573d6000803e3d6000fd5b505050506040513d601f19601f820116820180604052508101906116fa9190614466565b9450505050509193509193565b60006117347f00000000000000000000000000000000000000000000000000000000000000008484612299565b905092915050565b60608282905067ffffffffffffffff811115611781577f4e487b7100000000000000000000000000000000000000000000000000000000600052604160045260246000fd5b6040519080825280602002602001820160405280156117b457816020015b606081526020019060019003908161179f5790505b50905060005b83839050811015611941576000803073ffffffffffffffffffffffffffffffffffffffff16868685818110611818577f4e487b7100000000000000000000000000000000000000000000000000000000600052603260045260246000fd5b905060200281019061182a91906151de565b604051611838929190614c40565b600060405180830381855af49150503d8060008114611873576040519150601f19603f3d011682016040523d82523d6000602084013e611878565b606091505b5091509150816118e75760448151101561189157600080fd5b600481019050808060200190518101906118ab919061426c565b6040517f08c379a00000000000000000000000000000000000000000000000000000000081526004016118de9190614dbb565b60405180910390fd5b80848481518110611921577f4e487b7100000000000000000000000000000000000000000000000000000000600052603260045260246000fd5b6020026020010181905250505080806119399061560b565b9150506117ba565b5092915050565b600061195584848461328b565b90509392505050565b7f000000000000000000000000000000000000000000000000000000000000000081565b7f000000000000000000000000000000000000000000000000000000000000000081565b60606119d37f00000000000000000000000000000000000000000000000000000000000000008484613345565b905092915050565b6000919050565b60008373ffffffffffffffffffffffffffffffffffffffff166370a08231306040518263ffffffff1660e01b8152600401611a1d9190614cb8565b60206040518083038186803b158015611a3557600080fd5b505afa158015611a49573d6000803e3d6000fd5b505050506040513d601f19601f82011682018060405250810190611a6d9190614466565b90506000831115611abc5782811015611abb576040517f08c379a0000000000000000000000000000000000000000000000000000000008152600401611ab290614e1d565b60405180910390fd5b5b6000811115611ad157611ad08483836135b5565b5b50505050565b6000919050565b6000808411611b22576040517f08c379a0000000000000000000000000000000000000000000000000000000008152600401611b1990614edd565b60405180910390fd5b600083118015611b325750600082115b611b71576040517f08c379a0000000000000000000000000000000000000000000000000000000008152600401611b6890614e9d565b60405180910390fd5b60008573ffffffffffffffffffffffffffffffffffffffff1663ddca3f436040518163ffffffff1660e01b815260040160206040518083038186803b158015611bb957600080fd5b505afa158015611bcd573d6000803e3d6000fd5b505050506040513d601f19601f82011682018060405250810190611bf19190614466565b90506000611c1782633b9aca00611c08919061549a565b8761370a90919063ffffffff16565b90506000611c2e858361370a90919063ffffffff16565b90506000611c5b83611c4d633b9aca008a61370a90919063ffffffff16565b61372090919063ffffffff16565b90508082611c69919061540f565b945050505050949350505050565b600042905090565b60006014806014611c9091906153b9565b611c9a91906153b9565b825110159050919050565b6060611cc96000601480611cb991906153b9565b846137369092919063ffffffff16565b9050919050565b6000806000611ce2846000015161248a565b915091506000600267ffffffffffffffff811115611d29577f4e487b7100000000000000000000000000000000000000000000000000000000600052604160045260246000fd5b604051908082528060200260200182016040528015611d575781602001602082028036833780820191505090505b5090508281600081518110611d95577f4e487b7100000000000000000000000000000000000000000000000000000000600052603260045260246000fd5b602002602001019073ffffffffffffffffffffffffffffffffffffffff16908173ffffffffffffffffffffffffffffffffffffffff16815250508181600181518110611e0a577f4e487b7100000000000000000000000000000000000000000000000000000000600052603260045260246000fd5b602002602001019073ffffffffffffffffffffffffffffffffffffffff16908173ffffffffffffffffffffffffffffffffffffffff1681525050611e6f7f00000000000000000000000000000000000000000000000000000000000000008883613345565b600181518110611ea8577f4e487b7100000000000000000000000000000000000000000000000000000000600052603260045260246000fd5b60200260200101519350611ebe868886886138a2565b5050509392505050565b6060611eec6014808451611edc919061549a565b846137369092919063ffffffff16565b9050919050565b6060600282511015611f3a576040517f08c379a0000000000000000000000000000000000000000000000000000000008152600401611f3190614f9d565b60405180910390fd5b815167ffffffffffffffff811115611f7b577f4e487b7100000000000000000000000000000000000000000000000000000000600052604160045260246000fd5b604051908082528060200260200182016040528015611fa95781602001602082028036833780820191505090505b509050828160018351611fbc919061549a565b81518110611ff3577f4e487b7100000000000000000000000000000000000000000000000000000000600052603260045260246000fd5b60200260200101818152505060006001835161200f919061549a565b90505b600081111561216b576000806120b58786600186612030919061549a565b81518110612067577f4e487b7100000000000000000000000000000000000000000000000000000000600052603260045260246000fd5b60200260200101518786815181106120a8577f4e487b7100000000000000000000000000000000000000000000000000000000600052603260045260246000fd5b60200260200101516139c1565b91509150612105878585815181106120f6577f4e487b7100000000000000000000000000000000000000000000000000000000600052603260045260246000fd5b60200260200101518484612704565b84600185612113919061549a565b8151811061214a577f4e487b7100000000000000000000000000000000000000000000000000000000600052603260045260246000fd5b60200260200101818152505050508080612163906155b0565b915050612012565b509392505050565b60008273ffffffffffffffffffffffffffffffffffffffff1682600067ffffffffffffffff8111156121ce577f4e487b7100000000000000000000000000000000000000000000000000000000600052604160045260246000fd5b6040519080825280601f01601f1916602001820160405280156122005781602001600182028036833780820191505090505b5060405161220e9190614c59565b60006040518083038185875af1925050503d806000811461224b576040519150601f19603f3d011682016040523d82523d6000602084013e612250565b606091505b5050905080612294576040517f08c379a000000000000000000000000000000000000000000000000000000000815260040161228b90614e5d565b60405180910390fd5b505050565b60008173ffffffffffffffffffffffffffffffffffffffff168373ffffffffffffffffffffffffffffffffffffffff1611156122da57818380935081945050505b8383836040516020016122ee929190614c14565b604051602081830303815290604052805190602001207f6052f97ae694c9b6af9ccaeee836a290900b9953c84efc9d02ff1e46cbd50e3860001b60405160200161233a93929190614c70565b6040516020818303038152906040528051906020012060001c90509392505050565b6000808273ffffffffffffffffffffffffffffffffffffffff168473ffffffffffffffffffffffffffffffffffffffff1614156123ce576040517f08c379a00000000000000000000000000000000000000000000000000000000081526004016123c590614e3d565b60405180910390fd5b8273ffffffffffffffffffffffffffffffffffffffff168473ffffffffffffffffffffffffffffffffffffffff161061240857828461240b565b83835b8092508193505050600073ffffffffffffffffffffffffffffffffffffffff168273ffffffffffffffffffffffffffffffffffffffff161415612483576040517f08c379a000000000000000000000000000000000000000000000000000000000815260040161247a90614efd565b60405180910390fd5b9250929050565b6000806124a1600084613ad390919063ffffffff16565b91506124b7601484613ad390919063ffffffff16565b9050915091565b60006124cb848484612299565b90508073ffffffffffffffffffffffffffffffffffffffff163373ffffffffffffffffffffffffffffffffffffffff161461250557600080fd5b9392505050565b600080600061251e846000015161248a565b915091506000600267ffffffffffffffff811115612565577f4e487b7100000000000000000000000000000000000000000000000000000000600052604160045260246000fd5b6040519080825280602002602001820160405280156125935781602001602082028036833780820191505090505b50905081816000815181106125d1577f4e487b7100000000000000000000000000000000000000000000000000000000600052603260045260246000fd5b602002602001019073ffffffffffffffffffffffffffffffffffffffff16908173ffffffffffffffffffffffffffffffffffffffff16815250508281600181518110612646577f4e487b7100000000000000000000000000000000000000000000000000000000600052603260045260246000fd5b602002602001019073ffffffffffffffffffffffffffffffffffffffff16908173ffffffffffffffffffffffffffffffffffffffff16815250506126ab7f00000000000000000000000000000000000000000000000000000000000000008883611ef3565b6000815181106126e4577f4e487b7100000000000000000000000000000000000000000000000000000000600052603260045260246000fd5b602002602001015193506126fa868589886138a2565b5050509392505050565b6000808411612748576040517f08c379a000000000000000000000000000000000000000000000000000000000815260040161273f9061503d565b60405180910390fd5b6000831180156127585750600082115b612797576040517f08c379a000000000000000000000000000000000000000000000000000000000815260040161278e90614e9d565b60405180910390fd5b60008573ffffffffffffffffffffffffffffffffffffffff1663ddca3f436040518163ffffffff1660e01b815260040160206040518083038186803b1580156127df57600080fd5b505afa1580156127f3573d6000803e3d6000fd5b505050506040513d601f19601f820116820180604052508101906128179190614466565b90506000612844633b9aca00612836888861370a90919063ffffffff16565b61370a90919063ffffffff16565b9050600061287c83633b9aca0061285b919061549a565b61286e8988613b9890919063ffffffff16565b61370a90919063ffffffff16565b905061289d6001828461288f919061540f565b61372090919063ffffffff16565b9350505050949350505050565b60008060008060007f000000000000000000000000000000000000000000000000000000000000000090506000806128e5886000015161248a565b91509150600073ffffffffffffffffffffffffffffffffffffffff168373ffffffffffffffffffffffffffffffffffffffff1663e6a4390584846040518363ffffffff1660e01b815260040161293c929190614cd3565b60206040518083038186803b15801561295457600080fd5b505afa158015612968573d6000803e3d6000fd5b505050506040513d601f19601f8201168201806040525081019061298c919061414a565b73ffffffffffffffffffffffffffffffffffffffff161415612a37578273ffffffffffffffffffffffffffffffffffffffff1663c9c6539683836040518363ffffffff1660e01b81526004016129e3929190614cd3565b602060405180830381600087803b1580156129fd57600080fd5b505af1158015612a11573d6000803e3d6000fd5b505050506040513d601f19601f82011682018060405250810190612a35919061414a565b505b600080612a458585856139c1565b91509150600082148015612a595750600081145b15612a6d578d8d809950819a505050612b6c565b6000612a7a8f848461328b565b90508d8111612ad5578b811015612ac6576040517f08c379a0000000000000000000000000000000000000000000000000000000008152600401612abd90614f5d565b60405180910390fd5b8e81809a50819b505050612b6a565b6000612ae28f848661328b565b90508f811115612b1b577f4e487b7100000000000000000000000000000000000000000000000000000000600052600160045260246000fd5b8d811015612b5e576040517f08c379a0000000000000000000000000000000000000000000000000000000008152600401612b5590614ebd565b60405180910390fd5b808f809b50819c505050505b505b60009650600095507f000000000000000000000000000000000000000000000000000000000000000073ffffffffffffffffffffffffffffffffffffffff168473ffffffffffffffffffffffffffffffffffffffff1614158015612c1c57507f000000000000000000000000000000000000000000000000000000000000000073ffffffffffffffffffffffffffffffffffffffff168373ffffffffffffffffffffffffffffffffffffffff1614155b15613088576000600267ffffffffffffffff811115612c64577f4e487b7100000000000000000000000000000000000000000000000000000000600052604160045260246000fd5b604051908082528060200260200182016040528015612c925781602001602082028036833780820191505090505b5090507f000000000000000000000000000000000000000000000000000000000000000081600081518110612cf0577f4e487b7100000000000000000000000000000000000000000000000000000000600052603260045260246000fd5b602002602001019073ffffffffffffffffffffffffffffffffffffffff16908173ffffffffffffffffffffffffffffffffffffffff1681525050600073ffffffffffffffffffffffffffffffffffffffff168673ffffffffffffffffffffffffffffffffffffffff1663e6a439057f0000000000000000000000000000000000000000000000000000000000000000886040518363ffffffff1660e01b8152600401612d9d929190614cd3565b60206040518083038186803b158015612db557600080fd5b505afa158015612dc9573d6000803e3d6000fd5b505050506040513d601f19601f82011682018060405250810190612ded919061414a565b73ffffffffffffffffffffffffffffffffffffffff1614612ed8578481600181518110612e43577f4e487b7100000000000000000000000000000000000000000000000000000000600052603260045260246000fd5b602002602001019073ffffffffffffffffffffffffffffffffffffffff16908173ffffffffffffffffffffffffffffffffffffffff1681525050612e948660028c612e8e919061540f565b83611ef3565b600081518110612ecd577f4e487b7100000000000000000000000000000000000000000000000000000000600052603260045260246000fd5b602002602001015197505b600073ffffffffffffffffffffffffffffffffffffffff168673ffffffffffffffffffffffffffffffffffffffff1663e6a439057f0000000000000000000000000000000000000000000000000000000000000000876040518363ffffffff1660e01b8152600401612f4b929190614cd3565b60206040518083038186803b158015612f6357600080fd5b505afa158015612f77573d6000803e3d6000fd5b505050506040513d601f19601f82011682018060405250810190612f9b919061414a565b73ffffffffffffffffffffffffffffffffffffffff1614613086578381600181518110612ff1577f4e487b7100000000000000000000000000000000000000000000000000000000600052603260045260246000fd5b602002602001019073ffffffffffffffffffffffffffffffffffffffff16908173ffffffffffffffffffffffffffffffffffffffff16815250506130428660028b61303c919061540f565b83611ef3565b60008151811061307b577f4e487b7100000000000000000000000000000000000000000000000000000000600052603260045260246000fd5b602002602001015196505b505b505050505095509550955095915050565b60007f000000000000000000000000000000000000000000000000000000000000000073ffffffffffffffffffffffffffffffffffffffff168573ffffffffffffffffffffffffffffffffffffffff161480156130f95750814791508110155b15613232577f000000000000000000000000000000000000000000000000000000000000000073ffffffffffffffffffffffffffffffffffffffff1663d0e30db0826040518263ffffffff1660e01b81526004016000604051808303818588803b15801561316657600080fd5b505af115801561317a573d6000803e3d6000fd5b50505050507f000000000000000000000000000000000000000000000000000000000000000073ffffffffffffffffffffffffffffffffffffffff1663a9059cbb84846040518363ffffffff1660e01b81526004016131da929190614d33565b602060405180830381600087803b1580156131f457600080fd5b505af1158015613208573d6000803e3d6000fd5b505050506040513d601f19601f8201168201806040525081019061322c9190614243565b50613284565b3073ffffffffffffffffffffffffffffffffffffffff168473ffffffffffffffffffffffffffffffffffffffff161415613276576132718584846135b5565b613283565b61328285858585613bae565b5b5b5050505050565b60008084116132cf576040517f08c379a00000000000000000000000000000000000000000000000000000000081526004016132c690614ffd565b60405180910390fd5b6000831180156132df5750600082115b61331e576040517f08c379a000000000000000000000000000000000000000000000000000000000815260040161331590614e9d565b60405180910390fd5b82613332838661370a90919063ffffffff16565b61333c919061540f565b90509392505050565b606060028251101561338c576040517f08c379a000000000000000000000000000000000000000000000000000000000815260040161338390614f9d565b60405180910390fd5b815167ffffffffffffffff8111156133cd577f4e487b7100000000000000000000000000000000000000000000000000000000600052604160045260246000fd5b6040519080825280602002602001820160405280156133fb5781602001602082028036833780820191505090505b5090508281600081518110613439577f4e487b7100000000000000000000000000000000000000000000000000000000600052603260045260246000fd5b60200260200101818152505060005b60018351613456919061549a565b8110156135ad576000806134f78786858151811061349d577f4e487b7100000000000000000000000000000000000000000000000000000000600052603260045260246000fd5b6020026020010151876001876134b391906153b9565b815181106134ea577f4e487b7100000000000000000000000000000000000000000000000000000000600052603260045260246000fd5b60200260200101516139c1565b9150915061354787858581518110613538577f4e487b7100000000000000000000000000000000000000000000000000000000600052603260045260246000fd5b60200260200101518484611ade565b8460018561355591906153b9565b8151811061358c577f4e487b7100000000000000000000000000000000000000000000000000000000600052603260045260246000fd5b602002602001018181525050505080806135a59061560b565b915050613448565b509392505050565b6000808473ffffffffffffffffffffffffffffffffffffffff1663a9059cbb60e01b85856040516024016135ea929190614d33565b604051602081830303815290604052907bffffffffffffffffffffffffffffffffffffffffffffffffffffffff19166020820180517bffffffffffffffffffffffffffffffffffffffffffffffffffffffff83818316178352505050506040516136549190614c59565b6000604051808303816000865af19150503d8060008114613691576040519150601f19603f3d011682016040523d82523d6000602084013e613696565b606091505b50915091508180156136c457506000815114806136c35750808060200190518101906136c29190614243565b5b5b613703576040517f08c379a00000000000000000000000000000000000000000000000000000000081526004016136fa90614f1d565b60405180910390fd5b5050505050565b600081836137189190615440565b905092915050565b6000818361372e91906153b9565b905092915050565b606081601f8361374691906153b9565b1015613787576040517f08c379a000000000000000000000000000000000000000000000000000000000815260040161377e90614e7d565b60405180910390fd5b82828461379491906153b9565b10156137d5576040517f08c379a00000000000000000000000000000000000000000000000000000000081526004016137cc90614e7d565b60405180910390fd5b81836137e191906153b9565b84511015613824576040517f08c379a000000000000000000000000000000000000000000000000000000000815260040161381b9061501d565b60405180910390fd5b60608215600081146138455760405191506000825260208201604052613896565b6040519150601f8416801560200281840101858101878315602002848b0101015b818310156138835780518352602083019250602081019050613866565b50868552601f19601f8301166040525050505b50809150509392505050565b6000806138b2836000015161248a565b9150915060006138c28383611707565b90506138d083338389613099565b60006138dc848461235c565b5090506000808273ffffffffffffffffffffffffffffffffffffffff168673ffffffffffffffffffffffffffffffffffffffff161461391d57876000613921565b6000885b915091508373ffffffffffffffffffffffffffffffffffffffff1663022c0d9f83838d8b604051602001613955919061509d565b6040516020818303038152906040526040518563ffffffff1660e01b81526004016139839493929190615103565b600060405180830381600087803b15801561399d57600080fd5b505af11580156139b1573d6000803e3d6000fd5b5050505050505050505050505050565b60008060006139d0858561235c565b5090506000806139e1888888612299565b73ffffffffffffffffffffffffffffffffffffffff16630902f1ac6040518163ffffffff1660e01b815260040160606040518083038186803b158015613a2657600080fd5b505afa158015613a3a573d6000803e3d6000fd5b505050506040513d601f19601f82011682018060405250810190613a5e9190614417565b506dffffffffffffffffffffffffffff1691506dffffffffffffffffffffffffffff1691508273ffffffffffffffffffffffffffffffffffffffff168773ffffffffffffffffffffffffffffffffffffffff1614613abd578082613ac0565b81815b8095508196505050505050935093915050565b600081601483613ae391906153b9565b1015613b24576040517f08c379a0000000000000000000000000000000000000000000000000000000008152600401613b1b9061507d565b60405180910390fd5b601482613b3191906153b9565b83511015613b74576040517f08c379a0000000000000000000000000000000000000000000000000000000008152600401613b6b90614f7d565b60405180910390fd5b60006c01000000000000000000000000836020860101510490508091505092915050565b60008183613ba6919061549a565b905092915050565b6000808573ffffffffffffffffffffffffffffffffffffffff166323b872dd60e01b868686604051602401613be593929190614cfc565b604051602081830303815290604052907bffffffffffffffffffffffffffffffffffffffffffffffffffffffff19166020820180517bffffffffffffffffffffffffffffffffffffffffffffffffffffffff8381831617835250505050604051613c4f9190614c59565b6000604051808303816000865af19150503d8060008114613c8c576040519150601f19603f3d011682016040523d82523d6000602084013e613c91565b606091505b5091509150818015613cbf5750600081511480613cbe575080806020019051810190613cbd9190614243565b5b5b613cfe576040517f08c379a0000000000000000000000000000000000000000000000000000000008152600401613cf590614fbd565b60405180910390fd5b505050505050565b6000613d19613d148461525a565b615235565b90508083825260208201905082856020860282011115613d3857600080fd5b60005b85811015613d685781613d4e8882613dee565b845260208401935060208301925050600181019050613d3b565b5050509392505050565b6000613d85613d8084615286565b615235565b905082815260208101848484011115613d9d57600080fd5b613da884828561556e565b509392505050565b6000613dc3613dbe846152b7565b615235565b905082815260208101848484011115613ddb57600080fd5b613de684828561557d565b509392505050565b600081359050613dfd81615be9565b92915050565b600081519050613e1281615be9565b92915050565b600082601f830112613e2957600080fd5b8135613e39848260208601613d06565b91505092915050565b60008083601f840112613e5457600080fd5b8235905067ffffffffffffffff811115613e6d57600080fd5b602083019150836020820283011115613e8557600080fd5b9250929050565b600081519050613e9b81615c00565b92915050565b60008083601f840112613eb357600080fd5b8235905067ffffffffffffffff811115613ecc57600080fd5b602083019150836001820283011115613ee457600080fd5b9250929050565b600082601f830112613efc57600080fd5b8135613f0c848260208601613d72565b91505092915050565b600082601f830112613f2657600080fd5b8151613f36848260208601613db0565b91505092915050565b60006101008284031215613f5257600080fd5b81905092915050565b600060a08284031215613f6d57600080fd5b81905092915050565b60006101008284031215613f8957600080fd5b81905092915050565b60006101008284031215613fa557600080fd5b81905092915050565b600060408284031215613fc057600080fd5b613fca6040615235565b9050600082013567ffffffffffffffff811115613fe657600080fd5b613ff284828501613eeb565b600083015250602061400684828501613dee565b60208301525092915050565b600060a0828403121561402457600080fd5b61402e60a0615235565b9050600082013567ffffffffffffffff81111561404a57600080fd5b61405684828501613eeb565b600083015250602061406a84828501613dee565b602083015250604061407e848285016140e2565b6040830152506060614092848285016140e2565b60608301525060806140a6848285016140e2565b60808301525092915050565b600060c082840312156140c457600080fd5b81905092915050565b6000815190506140dc81615c17565b92915050565b6000813590506140f181615c2e565b92915050565b60008151905061410681615c2e565b92915050565b60008151905061411b81615c45565b92915050565b60006020828403121561413357600080fd5b600061414184828501613dee565b91505092915050565b60006020828403121561415c57600080fd5b600061416a84828501613e03565b91505092915050565b6000806040838503121561418657600080fd5b600061419485828601613dee565b92505060206141a585828601613dee565b9150509250929050565b6000806000606084860312156141c457600080fd5b60006141d286828701613dee565b93505060206141e3868287016140e2565b92505060406141f486828701613dee565b9150509250925092565b6000806020838503121561421157600080fd5b600083013567ffffffffffffffff81111561422b57600080fd5b61423785828601613e42565b92509250509250929050565b60006020828403121561425557600080fd5b600061426384828501613e8c565b91505092915050565b60006020828403121561427e57600080fd5b600082015167ffffffffffffffff81111561429857600080fd5b6142a484828501613f15565b91505092915050565b600061010082840312156142c057600080fd5b60006142ce84828501613f3f565b91505092915050565b6000602082840312156142e957600080fd5b600082013567ffffffffffffffff81111561430357600080fd5b61430f84828501613f5b565b91505092915050565b6000610100828403121561432b57600080fd5b600061433984828501613f76565b91505092915050565b6000610100828403121561435557600080fd5b600061436384828501613f92565b91505092915050565b60006020828403121561437e57600080fd5b600082013567ffffffffffffffff81111561439857600080fd5b6143a484828501613fae565b91505092915050565b6000602082840312156143bf57600080fd5b600082013567ffffffffffffffff8111156143d957600080fd5b6143e584828501614012565b91505092915050565b600060c0828403121561440057600080fd5b600061440e848285016140b2565b91505092915050565b60008060006060848603121561442c57600080fd5b600061443a868287016140cd565b935050602061444b868287016140cd565b925050604061445c8682870161410c565b9150509250925092565b60006020828403121561447857600080fd5b6000614486848285016140f7565b91505092915050565b600080604083850312156144a257600080fd5b60006144b0858286016140e2565b92505060206144c185828601613dee565b9150509250929050565b600080604083850312156144de57600080fd5b60006144ec858286016140e2565b925050602083013567ffffffffffffffff81111561450957600080fd5b61451585828601613e18565b9150509250929050565b6000806040838503121561453257600080fd5b6000614540858286016140f7565b9250506020614551858286016140f7565b9150509250929050565b6000806000806060858703121561457157600080fd5b600061457f878288016140e2565b9450506020614590878288016140e2565b935050604085013567ffffffffffffffff8111156145ad57600080fd5b6145b987828801613ea1565b925092505092959194509250565b6000806000606084860312156145dc57600080fd5b60006145ea868287016140e2565b93505060206145fb868287016140e2565b925050604061460c868287016140e2565b9150509250925092565b60006146228383614786565b905092915050565b60006146368383614bf6565b60208301905092915050565b61464b816154ce565b82525050565b61465a816154ce565b82525050565b61467161466c826154ce565b615654565b82525050565b600061468282615308565b61468c818561534e565b93508360208202850161469e856152e8565b8060005b858110156146da57848403895281516146bb8582614616565b94506146c683615334565b925060208a019950506001810190506146a2565b50829750879550505050505092915050565b60006146f782615313565b614701818561535f565b935061470c836152f8565b8060005b8381101561473d578151614724888261462a565b975061472f83615341565b925050600181019050614710565b5085935050505092915050565b61475b614756826154ec565b615666565b82525050565b600061476d8385615392565b935061477a83858461556e565b82840190509392505050565b60006147918261531e565b61479b8185615370565b93506147ab81856020860161557d565b6147b48161570f565b840191505092915050565b60006147ca8261531e565b6147d48185615381565b93506147e481856020860161557d565b6147ed8161570f565b840191505092915050565b60006148038261531e565b61480d8185615392565b935061481d81856020860161557d565b80840191505092915050565b6148328161554a565b82525050565b600061484382615329565b61484d818561539d565b935061485d81856020860161557d565b6148668161570f565b840191505092915050565b600061487e60128361539d565b91506148898261572d565b602082019050919050565b60006148a1601d8361539d565b91506148ac82615756565b602082019050919050565b60006148c460128361539d565b91506148cf8261577f565b602082019050919050565b60006148e760268361539d565b91506148f2826157a8565b604082019050919050565b600061490a60038361539d565b9150614915826157f7565b602082019050919050565b600061492d600e8361539d565b915061493882615820565b602082019050919050565b600061495060298361539d565b915061495b82615849565b604082019050919050565b600061497360278361539d565b915061497e82615898565b604082019050919050565b6000614996602c8361539d565b91506149a1826158e7565b604082019050919050565b60006149b96001836153ae565b91506149c482615936565b600182019050919050565b60006149dc601f8361539d565b91506149e78261595f565b602082019050919050565b60006149ff60028361539d565b9150614a0a82615988565b602082019050919050565b6000614a2260098361539d565b9150614a2d826159b1565b602082019050919050565b6000614a4560278361539d565b9150614a50826159da565b604082019050919050565b6000614a6860158361539d565b9150614a7382615a29565b602082019050919050565b6000614a8b601f8361539d565b9150614a9682615a52565b602082019050919050565b6000614aae60038361539d565b9150614ab982615a7b565b602082019050919050565b6000614ad160138361539d565b9150614adc82615aa4565b602082019050919050565b6000614af4600083615381565b9150614aff82615acd565b600082019050919050565b6000614b1760268361539d565b9150614b2282615ad0565b604082019050919050565b6000614b3a60118361539d565b9150614b4582615b1f565b602082019050919050565b6000614b5d602d8361539d565b9150614b6882615b48565b604082019050919050565b6000614b8060138361539d565b9150614b8b82615b97565b602082019050919050565b6000614ba360128361539d565b9150614bae82615bc0565b602082019050919050565b60006040830160008301518482036000860152614bd68282614786565b9150506020830151614beb6020860182614642565b508091505092915050565b614bff81615530565b82525050565b614c0e81615530565b82525050565b6000614c208285614660565b601482019150614c308284614660565b6014820191508190509392505050565b6000614c4d828486614761565b91508190509392505050565b6000614c6582846147f8565b915081905092915050565b6000614c7b826149ac565b9150614c878286614660565b601482019150614c97828561474a565b602082019150614ca7828461474a565b602082019150819050949350505050565b6000602082019050614ccd6000830184614651565b92915050565b6000604082019050614ce86000830185614651565b614cf56020830184614651565b9392505050565b6000606082019050614d116000830186614651565b614d1e6020830185614651565b614d2b6040830184614c05565b949350505050565b6000604082019050614d486000830185614651565b614d556020830184614c05565b9392505050565b60006020820190508181036000830152614d768184614677565b905092915050565b60006020820190508181036000830152614d9881846146ec565b905092915050565b6000602082019050614db56000830184614829565b92915050565b60006020820190508181036000830152614dd58184614838565b905092915050565b60006020820190508181036000830152614df681614871565b9050919050565b60006020820190508181036000830152614e1681614894565b9050919050565b60006020820190508181036000830152614e36816148b7565b9050919050565b60006020820190508181036000830152614e56816148da565b9050919050565b60006020820190508181036000830152614e76816148fd565b9050919050565b60006020820190508181036000830152614e9681614920565b9050919050565b60006020820190508181036000830152614eb681614943565b9050919050565b60006020820190508181036000830152614ed681614966565b9050919050565b60006020820190508181036000830152614ef681614989565b9050919050565b60006020820190508181036000830152614f16816149cf565b9050919050565b60006020820190508181036000830152614f36816149f2565b9050919050565b60006020820190508181036000830152614f5681614a15565b9050919050565b60006020820190508181036000830152614f7681614a38565b9050919050565b60006020820190508181036000830152614f9681614a5b565b9050919050565b60006020820190508181036000830152614fb681614a7e565b9050919050565b60006020820190508181036000830152614fd681614aa1565b9050919050565b60006020820190508181036000830152614ff681614ac4565b9050919050565b6000602082019050818103600083015261501681614b0a565b9050919050565b6000602082019050818103600083015261503681614b2d565b9050919050565b6000602082019050818103600083015261505681614b50565b9050919050565b6000602082019050818103600083015261507681614b73565b9050919050565b6000602082019050818103600083015261509681614b96565b9050919050565b600060208201905081810360008301526150b78184614bb9565b905092915050565b60006020820190506150d46000830184614c05565b92915050565b60006040820190506150ef6000830185614c05565b6150fc6020830184614c05565b9392505050565b60006080820190506151186000830187614c05565b6151256020830186614c05565b6151326040830185614651565b818103606083015261514481846147bf565b905095945050505050565b60006080820190506151646000830186614c05565b6151716020830185614c05565b61517e6040830184614651565b818103606083015261518f81614ae7565b9050949350505050565b60006080820190506151ae6000830187614c05565b6151bb6020830186614c05565b6151c86040830185614c05565b6151d56060830184614c05565b95945050505050565b600080833560016020038436030381126151f757600080fd5b80840192508235915067ffffffffffffffff82111561521557600080fd5b60208301925060018202360383131561522d57600080fd5b509250929050565b600061523f615250565b905061524b82826155da565b919050565b6000604051905090565b600067ffffffffffffffff821115615275576152746156e0565b5b602082029050602081019050919050565b600067ffffffffffffffff8211156152a1576152a06156e0565b5b6152aa8261570f565b9050602081019050919050565b600067ffffffffffffffff8211156152d2576152d16156e0565b5b6152db8261570f565b9050602081019050919050565b6000819050602082019050919050565b6000819050602082019050919050565b600081519050919050565b600081519050919050565b600081519050919050565b600081519050919050565b6000602082019050919050565b6000602082019050919050565b600082825260208201905092915050565b600082825260208201905092915050565b600082825260208201905092915050565b600082825260208201905092915050565b600081905092915050565b600082825260208201905092915050565b600081905092915050565b60006153c482615530565b91506153cf83615530565b9250827fffffffffffffffffffffffffffffffffffffffffffffffffffffffffffffffff0382111561540457615403615682565b5b828201905092915050565b600061541a82615530565b915061542583615530565b925082615435576154346156b1565b5b828204905092915050565b600061544b82615530565b915061545683615530565b9250817fffffffffffffffffffffffffffffffffffffffffffffffffffffffffffffffff048311821515161561548f5761548e615682565b5b828202905092915050565b60006154a582615530565b91506154b083615530565b9250828210156154c3576154c2615682565b5b828203905092915050565b60006154d982615510565b9050919050565b60008115159050919050565b6000819050919050565b60006dffffffffffffffffffffffffffff82169050919050565b600073ffffffffffffffffffffffffffffffffffffffff82169050919050565b6000819050919050565b600063ffffffff82169050919050565b60006155558261555c565b9050919050565b600061556782615510565b9050919050565b82818337600083830152505050565b60005b8381101561559b578082015181840152602081019050615580565b838111156155aa576000848401525b50505050565b60006155bb82615530565b915060008214156155cf576155ce615682565b5b600182039050919050565b6155e38261570f565b810181811067ffffffffffffffff82111715615602576156016156e0565b5b80604052505050565b600061561682615530565b91507fffffffffffffffffffffffffffffffffffffffffffffffffffffffffffffffff82141561564957615648615682565b5b600182019050919050565b600061565f82615670565b9050919050565b6000819050919050565b600061567b82615720565b9050919050565b7f4e487b7100000000000000000000000000000000000000000000000000000000600052601160045260246000fd5b7f4e487b7100000000000000000000000000000000000000000000000000000000600052601260045260246000fd5b7f4e487b7100000000000000000000000000000000000000000000000000000000600052604160045260246000fd5b6000601f19601f8301169050919050565b60008160601b9050919050565b7f496e73756666696369656e742057455448390000000000000000000000000000600082015250565b7f43616e6e6f742063616c63756c61746520504f434b45542076616c7565000000600082015250565b7f496e73756666696369656e7420746f6b656e0000000000000000000000000000600082015250565b7f506f636b6574537761704c6962726172793a204944454e544943414c5f41444460008201527f5245535345530000000000000000000000000000000000000000000000000000602082015250565b7f5354450000000000000000000000000000000000000000000000000000000000600082015250565b7f736c6963655f6f766572666c6f77000000000000000000000000000000000000600082015250565b7f506f636b6574537761704c6962726172793a20494e53554646494349454e545f60008201527f4c49515549444954590000000000000000000000000000000000000000000000602082015250565b7f506f636b657453776170526f757465723a20494e53554646494349454e545f4160008201527f5f414d4f554e5400000000000000000000000000000000000000000000000000602082015250565b7f506f636b6574537761704c6962726172793a20494e53554646494349454e545f60008201527f494e5055545f414d4f554e540000000000000000000000000000000000000000602082015250565b7fff00000000000000000000000000000000000000000000000000000000000000600082015250565b7f506f636b6574537761704c6962726172793a205a45524f5f4144445245535300600082015250565b7f5354000000000000000000000000000000000000000000000000000000000000600082015250565b7f4e6f742057455448390000000000000000000000000000000000000000000000600082015250565b7f506f636b657453776170526f757465723a20494e53554646494349454e545f4260008201527f5f414d4f554e5400000000000000000000000000000000000000000000000000602082015250565b7f746f416464726573735f6f75744f66426f756e64730000000000000000000000600082015250565b7f506f636b6574537761704c6962726172793a20494e56414c49445f5041544800600082015250565b7f5354460000000000000000000000000000000000000000000000000000000000600082015250565b7f5472616e73616374696f6e20746f6f206f6c6400000000000000000000000000600082015250565b50565b7f506f636b6574537761704c6962726172793a20494e53554646494349454e545f60008201527f414d4f554e540000000000000000000000000000000000000000000000000000602082015250565b7f736c6963655f6f75744f66426f756e6473000000000000000000000000000000600082015250565b7f506f636b6574537761704c6962726172793a20494e53554646494349454e545f60008201527f4f55545055545f414d4f554e5400000000000000000000000000000000000000602082015250565b7f546f6f206c6974746c6520726563656976656400000000000000000000000000600082015250565b7f746f416464726573735f6f766572666c6f770000000000000000000000000000600082015250565b615bf2816154ce565b8114615bfd57600080fd5b50565b615c09816154e0565b8114615c1457600080fd5b50565b615c20816154f6565b8114615c2b57600080fd5b50565b615c3781615530565b8114615c4257600080fd5b50565b615c4e8161553a565b8114615c5957600080fd5b5056fea2646970667358221220ca29d1335ec46b34c494ff32803b5191f07a1c85263bf166b0bc4ab94c81723064736f6c63430008040033a26469706673582212207f7adfa6c803c2a480b4b155d94fde38f074c937e5d324358dc1ef339a96681364736f6c63430008040033",
  "immutableReferences": {},
  "source": "// SPDX-License-Identifier: Unlicensed\npragma solidity =0.8.4;\npragma abicoder v2;\n\nimport {PocketSwapFactory, IPocketSwapFactory} from \"./pocketswap/PocketSwapFactory.sol\";\nimport {PocketSwapRouter, IPocketSwapRouter} from \"./pocketswap/PocketSwapRouter.sol\";\nimport {Pocket} from \"./PocketToken.sol\";\n\ncontract PocketSwap {\n    IPocketSwapFactory public factory;\n    IPocketSwapRouter public router;\n    Pocket public pocketToken;\n\n    bool public initialized;\n    address _owner;\n\n    address public tokenHoldersFee;\n    uint public rewardsPerToken;\n    mapping(address => uint) public takenReward;\n\n    modifier onlyOwner() {\n        if (msg.sender == _owner) _;\n    }\n\n    constructor() {\n        _owner = msg.sender;\n    }\n\n    function initialize(\n        address _WETH9,\n        string memory name_,\n        string memory symbol_,\n        uint256 supply_\n    ) external onlyOwner {\n        address creator = msg.sender;\n        pocketToken = new Pocket(name_, symbol_, supply_);\n        factory = new PocketSwapFactory(creator);\n        router = new PocketSwapRouter(address(factory), _WETH9, address(pocketToken));\n    }\n\n    function swap(IPocketSwapRouter.SwapParams calldata params) external {\n        router.swap(params);\n    }\n}\n",
  "sourcePath": "/Users/ilyk/projects/midgardtech/xpocket-PocketSwap/contracts/PocketSwap.sol",
  "compiler": {
    "name": "solc",
    "version": "0.8.4+commit.c7e474f2.Emscripten.clang"
  },
  "schemaVersion": "3.4.0",
  "updatedAt": "2021-05-07T07:25:25.585Z",
  "devdoc": {
    "kind": "dev",
    "methods": {},
    "version": 1
  },
  "userdoc": {
    "kind": "user",
    "methods": {},
    "version": 1
  }
}