{
  "contractName": "PocketSwapFactory",
  "abi": [
    {
      "inputs": [
        {
          "internalType": "address",
          "name": "_feeToSetter",
          "type": "address"
        }
      ],
      "stateMutability": "nonpayable",
      "type": "constructor"
    },
    {
      "anonymous": false,
      "inputs": [
        {
          "indexed": true,
          "internalType": "address",
          "name": "token0",
          "type": "address"
        },
        {
          "indexed": true,
          "internalType": "address",
          "name": "token1",
          "type": "address"
        },
        {
          "indexed": false,
          "internalType": "address",
          "name": "pair",
          "type": "address"
        },
        {
          "indexed": false,
          "internalType": "uint256",
          "name": "",
          "type": "uint256"
        }
      ],
      "name": "PairCreated",
      "type": "event"
    },
    {
      "inputs": [
        {
          "internalType": "uint256",
          "name": "",
          "type": "uint256"
        }
      ],
      "name": "allPairs",
      "outputs": [
        {
          "internalType": "address",
          "name": "",
          "type": "address"
        }
      ],
      "stateMutability": "view",
      "type": "function"
    },
    {
      "inputs": [],
      "name": "fee",
      "outputs": [
        {
          "internalType": "uint256",
          "name": "",
          "type": "uint256"
        }
      ],
      "stateMutability": "view",
      "type": "function"
    },
    {
      "inputs": [],
      "name": "feeTo",
      "outputs": [
        {
          "internalType": "address",
          "name": "",
          "type": "address"
        }
      ],
      "stateMutability": "view",
      "type": "function"
    },
    {
      "inputs": [],
      "name": "feeToSetter",
      "outputs": [
        {
          "internalType": "address",
          "name": "",
          "type": "address"
        }
      ],
      "stateMutability": "view",
      "type": "function"
    },
    {
      "inputs": [
        {
          "internalType": "address",
          "name": "",
          "type": "address"
        },
        {
          "internalType": "address",
          "name": "",
          "type": "address"
        }
      ],
      "name": "getPair",
      "outputs": [
        {
          "internalType": "address",
          "name": "",
          "type": "address"
        }
      ],
      "stateMutability": "view",
      "type": "function"
    },
    {
      "inputs": [],
      "name": "allPairsLength",
      "outputs": [
        {
          "internalType": "uint256",
          "name": "",
          "type": "uint256"
        }
      ],
      "stateMutability": "view",
      "type": "function"
    },
    {
      "inputs": [
        {
          "internalType": "address",
          "name": "tokenA",
          "type": "address"
        },
        {
          "internalType": "address",
          "name": "tokenB",
          "type": "address"
        }
      ],
      "name": "createPair",
      "outputs": [
        {
          "internalType": "address",
          "name": "pair",
          "type": "address"
        }
      ],
      "stateMutability": "nonpayable",
      "type": "function"
    },
    {
      "inputs": [
        {
          "internalType": "uint256",
          "name": "_fee",
          "type": "uint256"
        }
      ],
      "name": "setFee",
      "outputs": [],
      "stateMutability": "nonpayable",
      "type": "function"
    },
    {
      "inputs": [
        {
          "internalType": "address",
          "name": "_feeTo",
          "type": "address"
        }
      ],
      "name": "setFeeTo",
      "outputs": [],
      "stateMutability": "nonpayable",
      "type": "function"
    },
    {
      "inputs": [
        {
          "internalType": "address",
          "name": "_feeToSetter",
          "type": "address"
        }
      ],
      "name": "setFeeToSetter",
      "outputs": [],
      "stateMutability": "nonpayable",
      "type": "function"
    }
  ],
  "bytecode": "0x6080604052622dc6c060025534801561001757600080fd5b50604051612c7f380380612c7f8339818101604052602081101561003a57600080fd5b5051600180546001600160a01b0319166001600160a01b03909216919091179055612c158061006a6000396000f3fe608060405234801561001057600080fd5b506004361061009e5760003560e01c8063a2e74af611610066578063a2e74af614610125578063c9c653961461014b578063ddca3f4314610179578063e6a4390514610181578063f46901ed146101af5761009e565b8063017e7e58146100a3578063094b7415146100c75780631e3dd18b146100cf578063574f2ba3146100ec57806369fe0e2d14610106575b600080fd5b6100ab6101d5565b604080516001600160a01b039092168252519081900360200190f35b6100ab6101e4565b6100ab600480360360208110156100e557600080fd5b50356101f3565b6100f461021d565b60408051918252519081900360200190f35b6101236004803603602081101561011c57600080fd5b5035610223565b005b6101236004803603602081101561013b57600080fd5b50356001600160a01b03166102cf565b6100ab6004803603604081101561016157600080fd5b506001600160a01b0381358116916020013516610347565b6100f4610672565b6100ab6004803603604081101561019757600080fd5b506001600160a01b0381358116916020013516610678565b610123600480360360208110156101c557600080fd5b50356001600160a01b031661069e565b6000546001600160a01b031681565b6001546001600160a01b031681565b6004818154811061020357600080fd5b6000918252602090912001546001600160a01b0316905081565b60045490565b6001546001600160a01b03163314610279576040805162461bcd60e51b81526020600482015260146024820152732837b1b5b2ba29bbb0b81d2327a92124a22222a760611b604482015290519081900360640190fd5b670de0b6b3a764000081106102ca576040805162461bcd60e51b8152602060048201526012602482015271506f636b6574537761703a4249475f46454560701b604482015290519081900360640190fd5b600255565b6001546001600160a01b03163314610325576040805162461bcd60e51b81526020600482015260146024820152732837b1b5b2ba29bbb0b81d2327a92124a22222a760611b604482015290519081900360640190fd5b600180546001600160a01b0319166001600160a01b0392909216919091179055565b6000816001600160a01b0316836001600160a01b031614156103b0576040805162461bcd60e51b815260206004820152601e60248201527f506f636b6574537761703a4944454e544943414c5f4144445245535345530000604482015290519081900360640190fd5b600080836001600160a01b0316856001600160a01b0316106103d35783856103d6565b84845b90925090506001600160a01b038216610436576040805162461bcd60e51b815260206004820152601760248201527f506f636b6574537761703a5a45524f5f41444452455353000000000000000000604482015290519081900360640190fd5b6001600160a01b038281166000908152600360209081526040808320858516845290915290205416156104a9576040805162461bcd60e51b8152602060048201526016602482015275506f636b6574537761703a504149525f45584953545360501b604482015290519081900360640190fd5b6000604051806020016104bb90610716565b6020820181038252601f19601f8201166040525090506000838360405160200180836001600160a01b031660601b8152601401826001600160a01b031660601b815260140192505050604051602081830303815290604052805190602001209050808251602084016000f59450846001600160a01b031663485cc95585856040518363ffffffff1660e01b815260040180836001600160a01b03168152602001826001600160a01b0316815260200192505050600060405180830381600087803b15801561058857600080fd5b505af115801561059c573d6000803e3d6000fd5b505050506001600160a01b0384811660008181526003602081815260408084208987168086529083528185208054978d166001600160a01b031998891681179091559383528185208686528352818520805488168517905560048054600181018255958190527f8a35acfbc15ff81a39ae7d344fd709f28e8600b4aa8c65c6b64bfe7fe36bd19b90950180549097168417909655925483519283529082015281517f0d3648bd0f6ba80134a33ba9275ac585d9d315f0ad8355cddefde31afa28d0e9929181900390910190a35050505092915050565b60025481565b60036020908152600092835260408084209091529082529020546001600160a01b031681565b6001546001600160a01b031633146106f4576040805162461bcd60e51b81526020600482015260146024820152732837b1b5b2ba29bbb0b81d2327a92124a22222a760611b604482015290519081900360640190fd5b600080546001600160a01b0319166001600160a01b0392909216919091179055565b6124bc806107248339019056fe60806040526001600c5534801561001557600080fd5b50604080518082018252600a8152690506f636b6574537761760b41b6020918201528151808301835260018152603160f81b9082015281517f8b73c3c69bb8fe3d512ecc4cf759cc79239f7b179b0ffacaa9a75d522b39400f818301527f139f1c71b7c3168b7aeac519a0d6ee819b7e7428c66952642d99299cb2a31352818401527fc89efdaa54c0f20c7adf612882df0950f5a951637e0307cdcb4c672f298b8bc660608201524660808201523060a0808301919091528351808303909101815260c09091019092528151910120600355600580546001600160a01b031916331790556123b4806101086000396000f3fe608060405234801561001057600080fd5b50600436106101a95760003560e01c80636a627842116100f9578063ba9a7a5611610097578063d21220a711610071578063d21220a714610534578063d505accf1461053c578063dd62ed3e1461058d578063fff6cae9146105bb576101a9565b8063ba9a7a56146104fe578063bc25cf7714610506578063c45a01551461052c576101a9565b80637ecebe00116100d35780637ecebe001461046557806389afcb441461048b57806395d89b41146104ca578063a9059cbb146104d2576101a9565b80636a6278421461041157806370a08231146104375780637464fc3d1461045d576101a9565b806323b872dd116101665780633644e515116101405780633644e515146103cb578063485cc955146103d35780635909c0d5146104015780635a3d549314610409576101a9565b806323b872dd1461036f57806330adf81f146103a5578063313ce567146103ad576101a9565b8063022c0d9f146101ae57806306fdde031461023c5780630902f1ac146102b9578063095ea7b3146102f15780630dfe16811461033157806318160ddd14610355575b600080fd5b61023a600480360360808110156101c457600080fd5b8135916020810135916001600160a01b0360408301351691908101906080810160608201356401000000008111156101fb57600080fd5b82018360208201111561020d57600080fd5b8035906020019184600183028401116401000000008311171561022f57600080fd5b5090925090506105c3565b005b610244610bc8565b6040805160208082528351818301528351919283929083019185019080838360005b8381101561027e578181015183820152602001610266565b50505050905090810190601f1680156102ab5780820380516001836020036101000a031916815260200191505b509250505060405180910390f35b6102c1610bee565b604080516001600160701b03948516815292909316602083015263ffffffff168183015290519081900360600190f35b61031d6004803603604081101561030757600080fd5b506001600160a01b038135169060200135610c18565b604080519115158252519081900360200190f35b610339610c2f565b604080516001600160a01b039092168252519081900360200190f35b61035d610c3e565b60408051918252519081900360200190f35b61031d6004803603606081101561038557600080fd5b506001600160a01b03813581169160208101359091169060400135610c44565b61035d610cd8565b6103b5610cfc565b6040805160ff9092168252519081900360200190f35b61035d610d01565b61023a600480360360408110156103e957600080fd5b506001600160a01b0381358116916020013516610d07565b61035d610d8c565b61035d610d92565b61035d6004803603602081101561042757600080fd5b50356001600160a01b0316610d98565b61035d6004803603602081101561044d57600080fd5b50356001600160a01b0316611075565b61035d611087565b61035d6004803603602081101561047b57600080fd5b50356001600160a01b031661108d565b6104b1600480360360208110156104a157600080fd5b50356001600160a01b031661109f565b6040805192835260208301919091528051918290030190f35b610244611434565b61031d600480360360408110156104e857600080fd5b506001600160a01b038135169060200135611457565b61035d611464565b61023a6004803603602081101561051c57600080fd5b50356001600160a01b031661146a565b6103396115dd565b6103396115ec565b61023a600480360360e081101561055257600080fd5b506001600160a01b03813581169160208101359091169060408101359060608101359060ff6080820135169060a08101359060c001356115fb565b61035d600480360360408110156105a357600080fd5b506001600160a01b03813581169160200135166117fe565b61023a61181b565b600c5460011461060f576040805162461bcd60e51b8152602060048201526012602482015271141bd8dad95d14ddd85c0e881313d0d2d15160721b604482015290519081900360640190fd5b6000600c55841515806106225750600084115b61065d5760405162461bcd60e51b81526004018080602001828103825260268152602001806123306026913960400191505060405180910390fd5b600080610668610bee565b5091509150816001600160701b03168710801561068d5750806001600160701b031686105b6106c85760405162461bcd60e51b815260040180806020018281038252602281526020018061230e6022913960400191505060405180910390fd5b60065460075460009182916001600160a01b039182169190811690891682148015906107065750806001600160a01b0316896001600160a01b031614155b610750576040805162461bcd60e51b8152602060048201526016602482015275506f636b6574537761703a20494e56414c49445f544f60501b604482015290519081900360640190fd5b8a1561076157610761828a8d61197e565b891561077257610772818a8c61197e565b604080516370a0823160e01b815230600482015290516001600160a01b038416916370a08231916024808301926020929190829003018186803b1580156107b857600080fd5b505afa1580156107cc573d6000803e3d6000fd5b505050506040513d60208110156107e257600080fd5b5051604080516370a0823160e01b815230600482015290519195506001600160a01b038316916370a0823191602480820192602092909190829003018186803b15801561082e57600080fd5b505afa158015610842573d6000803e3d6000fd5b505050506040513d602081101561085857600080fd5b5051925060009150506001600160701b0385168a9003831161087b57600061088a565b89856001600160701b03160383035b9050600089856001600160701b03160383116108a75760006108b6565b89856001600160701b03160383035b905060008211806108c75750600081115b6109025760405162461bcd60e51b81526004018080602001828103825260258152602001806122c06025913960400191505060405180910390fd5b6005546040805163ddca3f4360e01b815290516000926001600160a01b03169163ddca3f43916004808301926020929190829003018186803b15801561094757600080fd5b505afa15801561095b573d6000803e3d6000fd5b505050506040513d602081101561097157600080fd5b5051905060006109986109848584611b17565b61099288633b9aca00611b17565b90611b7a565b905060006109a96109848585611b17565b90506109d3670de0b6b3a76400006109cd6001600160701b038c8116908c16611b17565b90611b17565b6109dd8383611b17565b10156109e888611bca565b6109f187611bca565b60405160200180806e02837b1b5b2ba29bbb0b81d10259d1608d1b815250600f0183805190602001908083835b60208310610a3d5780518252601f199092019160209182019101610a1e565b51815160209384036101000a6000190180199092169116179052620101d160ed1b919093019081528451600390910192850191508083835b60208310610a945780518252601f199092019160209182019101610a75565b6001836020036101000a0380198251168184511680821785525050505050509050019250505060405160208183030381529060405290610b525760405162461bcd60e51b81526004018080602001828103825283818151815260200191508051906020019080838360005b83811015610b17578181015183820152602001610aff565b50505050905090810190601f168015610b445780820380516001836020036101000a031916815260200191505b509250505060405180910390fd5b50505050610b6284848888611ca4565b60408051838152602081018390528082018d9052606081018c905290516001600160a01b038b169133917fd78ad95fa46c994b6551d0da85fc275fe613ce37657fb8d5e3d130840159d8229181900360800190a350506001600c55505050505050505050565b6040518060400160405280600a8152602001690506f636b6574537761760b41b81525081565b600b546001600160701b0380821692600160701b830490911691600160e01b900463ffffffff1690565b6000610c25338484611e64565b5060015b92915050565b6006546001600160a01b031681565b60005481565b6001600160a01b038316600090815260026020908152604080832033845290915281205460001914610cc3576001600160a01b0384166000908152600260209081526040808320338452909152902054610c9e9083611b7a565b6001600160a01b03851660009081526002602090815260408083203384529091529020555b610cce848484611ec6565b5060019392505050565b7f6e71edae12b1b97f4d1f60370fef10105fa2faae0126114a169c64845d6126c981565b601281565b60035481565b6005546001600160a01b03163314610d5e576040805162461bcd60e51b81526020600482015260156024820152742837b1b5b2ba29bbb0b81d102327a92124a22222a760591b604482015290519081900360640190fd5b600680546001600160a01b039384166001600160a01b03199182161790915560078054929093169116179055565b60085481565b60095481565b6000600c54600114610de6576040805162461bcd60e51b8152602060048201526012602482015271141bd8dad95d14ddd85c0e881313d0d2d15160721b604482015290519081900360640190fd5b6000600c81905580610df6610bee565b50600654604080516370a0823160e01b815230600482015290519395509193506000926001600160a01b03909116916370a08231916024808301926020929190829003018186803b158015610e4a57600080fd5b505afa158015610e5e573d6000803e3d6000fd5b505050506040513d6020811015610e7457600080fd5b5051600754604080516370a0823160e01b815230600482015290519293506000926001600160a01b03909216916370a0823191602480820192602092909190829003018186803b158015610ec757600080fd5b505afa158015610edb573d6000803e3d6000fd5b505050506040513d6020811015610ef157600080fd5b505190506000610f0a836001600160701b038716611b7a565b90506000610f21836001600160701b038716611b7a565b90506000610f2f8787611f74565b60005490915080610f6657610f526103e8610992610f4d8787611b17565b6120b4565b9850610f6160006103e8612105565b610fa9565b610fa66001600160701b038916610f7d8684611b17565b81610f8457fe5b046001600160701b038916610f998685611b17565b81610fa057fe5b0461218f565b98505b60008911610fe85760405162461bcd60e51b81526004018080602001828103825260298152602001806122e56029913960400191505060405180910390fd5b610ff28a8a612105565b610ffe86868a8a611ca4565b811561102857600b54611024906001600160701b0380821691600160701b900416611b17565b600a555b6040805185815260208101859052815133927f4c209b5fc8ad50758f13e2e1088ba56a560dff690a1c6fef26394f4c03821c4f928290030190a250506001600c5550949695505050505050565b60016020526000908152604090205481565b600a5481565b60046020526000908152604090205481565b600080600c546001146110ee576040805162461bcd60e51b8152602060048201526012602482015271141bd8dad95d14ddd85c0e881313d0d2d15160721b604482015290519081900360640190fd5b6000600c819055806110fe610bee565b50600654600754604080516370a0823160e01b815230600482015290519496509294506001600160a01b039182169391169160009184916370a08231916024808301926020929190829003018186803b15801561115a57600080fd5b505afa15801561116e573d6000803e3d6000fd5b505050506040513d602081101561118457600080fd5b5051604080516370a0823160e01b815230600482015290519192506000916001600160a01b038516916370a08231916024808301926020929190829003018186803b1580156111d257600080fd5b505afa1580156111e6573d6000803e3d6000fd5b505050506040513d60208110156111fc57600080fd5b50513060009081526001602052604081205491925061121b8888611f74565b6000549091508061122c8487611b17565b8161123357fe5b049a50806112418486611b17565b8161124857fe5b04995060008b11801561125b575060008a115b6112965760405162461bcd60e51b81526004018080602001828103825260298152602001806123566029913960400191505060405180910390fd5b6112a030846121a7565b6112ab878d8d61197e565b6112b6868d8c61197e565b604080516370a0823160e01b815230600482015290516001600160a01b038916916370a08231916024808301926020929190829003018186803b1580156112fc57600080fd5b505afa158015611310573d6000803e3d6000fd5b505050506040513d602081101561132657600080fd5b5051604080516370a0823160e01b815230600482015290519196506001600160a01b038816916370a0823191602480820192602092909190829003018186803b15801561137257600080fd5b505afa158015611386573d6000803e3d6000fd5b505050506040513d602081101561139c57600080fd5b505193506113ac85858b8b611ca4565b81156113d657600b546113d2906001600160701b0380821691600160701b900416611b17565b600a555b604080518c8152602081018c905281516001600160a01b038f169233927fdccd412f0b1252819cb1fd330b93224ca42612892bb3f4f789976e6d81936496929081900390910190a35050505050505050506001600c81905550915091565b60405180604001604052806007815260200166282996a820a4a960c91b81525081565b6000610c25338484611ec6565b6103e881565b600c546001146114b6576040805162461bcd60e51b8152602060048201526012602482015271141bd8dad95d14ddd85c0e881313d0d2d15160721b604482015290519081900360640190fd5b6000600c55600654600754600b54604080516370a0823160e01b815230600482015290516001600160a01b03948516949093169261155f928592879261155a926001600160701b03169185916370a0823191602480820192602092909190829003018186803b15801561152857600080fd5b505afa15801561153c573d6000803e3d6000fd5b505050506040513d602081101561155257600080fd5b505190611b7a565b61197e565b6115d3818461155a600b600e9054906101000a90046001600160701b03166001600160701b0316856001600160a01b03166370a08231306040518263ffffffff1660e01b815260040180826001600160a01b0316815260200191505060206040518083038186803b15801561152857600080fd5b50506001600c5550565b6005546001600160a01b031681565b6007546001600160a01b031681565b42841015611646576040805162461bcd60e51b8152602060048201526013602482015272141bd8dad95d14ddd85c0e8811561412549151606a1b604482015290519081900360640190fd5b6003546001600160a01b0380891660008181526004602090815260408083208054600180820190925582517f6e71edae12b1b97f4d1f60370fef10105fa2faae0126114a169c64845d6126c98186015280840196909652958d166060860152608085018c905260a085019590955260c08085018b90528151808603909101815260e08501825280519083012061190160f01b6101008601526101028501969096526101228085019690965280518085039096018652610142840180825286519683019690962095839052610162840180825286905260ff89166101828501526101a284018890526101c28401879052519193926101e280820193601f1981019281900390910190855afa158015611761573d6000803e3d6000fd5b5050604051601f1901519150506001600160a01b038116158015906117975750886001600160a01b0316816001600160a01b0316145b6117e8576040805162461bcd60e51b815260206004820152601d60248201527f506f636b6574537761703a20494e56414c49445f5349474e4154555245000000604482015290519081900360640190fd5b6117f3898989611e64565b505050505050505050565b600260209081526000928352604080842090915290825290205481565b600c54600114611867576040805162461bcd60e51b8152602060048201526012602482015271141bd8dad95d14ddd85c0e881313d0d2d15160721b604482015290519081900360640190fd5b6000600c55600654604080516370a0823160e01b81523060048201529051611977926001600160a01b0316916370a08231916024808301926020929190829003018186803b1580156118b857600080fd5b505afa1580156118cc573d6000803e3d6000fd5b505050506040513d60208110156118e257600080fd5b5051600754604080516370a0823160e01b815230600482015290516001600160a01b03909216916370a0823191602480820192602092909190829003018186803b15801561192f57600080fd5b505afa158015611943573d6000803e3d6000fd5b505050506040513d602081101561195957600080fd5b5051600b546001600160701b0380821691600160701b900416611ca4565b6001600c55565b604080518082018252601981527f7472616e7366657228616464726573732c75696e74323536290000000000000060209182015281516001600160a01b0385811660248301526044808301869052845180840390910181526064909201845291810180516001600160e01b031663a9059cbb60e01b17815292518151600094859489169392918291908083835b60208310611a2a5780518252601f199092019160209182019101611a0b565b6001836020036101000a0380198251168184511680821785525050505050509050019150506000604051808303816000865af19150503d8060008114611a8c576040519150601f19603f3d011682016040523d82523d6000602084013e611a91565b606091505b5091509150818015611abf575080511580611abf5750808060200190516020811015611abc57600080fd5b50515b611b10576040805162461bcd60e51b815260206004820152601b60248201527f506f636b6574537761703a205452414e534645525f4641494c45440000000000604482015290519081900360640190fd5b5050505050565b6000811580611b3257505080820282828281611b2f57fe5b04145b610c29576040805162461bcd60e51b815260206004820152601460248201527364732d6d6174682d6d756c2d6f766572666c6f7760601b604482015290519081900360640190fd5b80820382811115610c29576040805162461bcd60e51b815260206004820152601560248201527464732d6d6174682d7375622d756e646572666c6f7760581b604482015290519081900360640190fd5b606081611bef57506040805180820190915260018152600360fc1b6020820152611c9f565b8160005b8115611c0757600101600a82049150611bf3565b60008167ffffffffffffffff81118015611c2057600080fd5b506040519080825280601f01601f191660200182016040528015611c4b576020820181803683370190505b50905060001982015b8515611c9957600a860660300160f81b82828060019003935081518110611c7757fe5b60200101906001600160f81b031916908160001a905350600a86049550611c54565b50925050505b919050565b6001600160701b038411801590611cc257506001600160701b038311155b611d0a576040805162461bcd60e51b8152602060048201526014602482015273506f636b6574537761703a204f564552464c4f5760601b604482015290519081900360640190fd5b600b5463ffffffff42811691600160e01b90048116820390811615801590611d3a57506001600160701b03841615155b8015611d4e57506001600160701b03831615155b15611db9578063ffffffff16611d7685611d6786612239565b6001600160e01b03169061224b565b600880546001600160e01b03929092169290920201905563ffffffff8116611da184611d6787612239565b600980546001600160e01b0392909216929092020190555b600b80546dffffffffffffffffffffffffffff19166001600160701b03888116919091176dffffffffffffffffffffffffffff60701b1916600160701b8883168102919091176001600160e01b0316600160e01b63ffffffff871602179283905560408051848416815291909304909116602082015281517f1c411e9a96e071241c2f21f7726b17ae89e3cab4c78be50e062b03a9fffbbad1929181900390910190a1505050505050565b6001600160a01b03808416600081815260026020908152604080832094871680845294825291829020859055815185815291517f8c5be1e5ebec7d5bd14f71427d1e84f3dd0314c0f7b2291e5b200ac8c7c3b9259281900390910190a3505050565b6001600160a01b038316600090815260016020526040902054611ee99082611b7a565b6001600160a01b038085166000908152600160205260408082209390935590841681522054611f189082612270565b6001600160a01b0380841660008181526001602090815260409182902094909455805185815290519193928716927fddf252ad1be2c89b69c2b068fc378daa952ba7f163c4a11628f55a4df523b3ef92918290030190a3505050565b600080600560009054906101000a90046001600160a01b03166001600160a01b031663017e7e586040518163ffffffff1660e01b815260040160206040518083038186803b158015611fc557600080fd5b505afa158015611fd9573d6000803e3d6000fd5b505050506040513d6020811015611fef57600080fd5b5051600a546001600160a01b0382161580159450919250906120a057801561209b57600061202c610f4d6001600160701b03888116908816611b17565b90506000612039836120b4565b90508082111561209857600061205b6120528484611b7a565b60005490611b17565b905060006120748361206e866005611b17565b90612270565b9050600081838161208157fe5b0490508015612094576120948782612105565b5050505b50505b6120ac565b80156120ac576000600a555b505092915050565b600060038211156120f7575080600160028204015b818110156120f1578091506002818285816120e057fe5b0401816120e957fe5b0490506120c9565b50611c9f565b8115611c9f57506001919050565b6000546121129082612270565b60009081556001600160a01b0383168152600160205260409020546121379082612270565b6001600160a01b03831660008181526001602090815260408083209490945583518581529351929391927fddf252ad1be2c89b69c2b068fc378daa952ba7f163c4a11628f55a4df523b3ef9281900390910190a35050565b600081831061219e57816121a0565b825b9392505050565b6001600160a01b0382166000908152600160205260409020546121ca9082611b7a565b6001600160a01b038316600090815260016020526040812091909155546121f19082611b7a565b60009081556040805183815290516001600160a01b038516917fddf252ad1be2c89b69c2b068fc378daa952ba7f163c4a11628f55a4df523b3ef919081900360200190a35050565b6001600160701b0316600160701b0290565b60006001600160701b0382166001600160e01b0384168161226857fe5b049392505050565b80820182811015610c29576040805162461bcd60e51b815260206004820152601460248201527364732d6d6174682d6164642d6f766572666c6f7760601b604482015290519081900360640190fdfe506f636b6574537761703a20494e53554646494349454e545f494e5055545f414d4f554e54506f636b6574537761703a20494e53554646494349454e545f4c49515549444954595f4d494e544544506f636b6574537761703a20494e53554646494349454e545f4c4951554944495459506f636b6574537761703a20494e53554646494349454e545f4f55545055545f414d4f554e54506f636b6574537761703a20494e53554646494349454e545f4c49515549444954595f4255524e4544a26469706673582212208ac69c0dbc23db1d4888ec659fc50274f64c8917bc5668ce65fd720b27eee17364736f6c63430007060033a2646970667358221220b167ccfe48983a3653fbb0e10f8e41bdaed36c365ab639638bf24ab306bf4f8964736f6c63430007060033",
  "immutableReferences": {},
  "source": "// SPDX-License-Identifier: Unlicensed\npragma solidity >=0.6.12;\n\n\nimport './PocketSwapPair.sol';\nimport './interfaces/IPocketSwapFactory.sol';\n\ncontract PocketSwapFactory is IPocketSwapFactory {\n    address public override feeTo;\n    address public override feeToSetter;\n    uint256 public override fee = 3e6; // 1e9 = 100%; 1e8 = 10%; 1e7 = 1%; 1e6 = 0.1% ....\n\n    mapping(address => mapping(address => address)) public override getPair;\n    address[] public override allPairs;\n\n    constructor(address _feeToSetter) {\n        feeToSetter = _feeToSetter;\n    }\n\n    function allPairsLength() external override view returns (uint) {\n        return allPairs.length;\n    }\n\n    function createPair(address tokenA, address tokenB) external override returns (address pair) {\n        require(tokenA != tokenB, 'PocketSwap:IDENTICAL_ADDRESSES');\n        (address token0, address token1) = tokenA < tokenB ? (tokenA, tokenB) : (tokenB, tokenA);\n        require(token0 != address(0), 'PocketSwap:ZERO_ADDRESS');\n        require(getPair[token0][token1] == address(0), 'PocketSwap:PAIR_EXISTS'); // single check is sufficient\n        bytes memory bytecode = type(PocketSwapPair).creationCode;\n        bytes32 salt = keccak256(abi.encodePacked(token0, token1));\n        assembly {\n            pair := create2(0, add(bytecode, 32), mload(bytecode), salt)\n        }\n\n        PocketSwapPair(pair).initialize(token0, token1);\n        getPair[token0][token1] = pair;\n        getPair[token1][token0] = pair; // populate mapping in the reverse direction\n        allPairs.push(pair);\n        emit PairCreated(token0, token1, pair, allPairs.length);\n    }\n\n    function setFee(uint256 _fee) external override {\n        require(msg.sender == feeToSetter, 'PocketSwap:FORBIDDEN');\n        require(_fee < 1e18, 'PocketSwap:BIG_FEE');\n        fee = _fee;\n    }\n\n    function setFeeTo(address _feeTo) external override {\n        require(msg.sender == feeToSetter, 'PocketSwap:FORBIDDEN');\n        feeTo = _feeTo;\n    }\n\n    function setFeeToSetter(address _feeToSetter) external override {\n        require(msg.sender == feeToSetter, 'PocketSwap:FORBIDDEN');\n        feeToSetter = _feeToSetter;\n    }\n}\n",
  "sourcePath": "/Users/ilyk/projects/midgardtech/xpocket-PocketSwap/contracts/pocketswap/PocketSwapFactory.sol",
  "compiler": {
    "name": "solc",
    "version": "0.7.6+commit.7338295f.Emscripten.clang"
  },
  "schemaVersion": "3.3.4",
  "updatedAt": "2021-04-27T08:51:56.010Z",
  "devdoc": {
    "kind": "dev",
    "methods": {},
    "version": 1
  },
  "userdoc": {
    "kind": "user",
    "methods": {},
    "version": 1
  }
}