{
  "contractName": "PocketSwapRouter",
  "abi": [
    {
      "inputs": [
        {
          "internalType": "address",
          "name": "_factory",
          "type": "address"
        },
        {
          "internalType": "address",
          "name": "_WETH9",
          "type": "address"
        }
      ],
      "stateMutability": "nonpayable",
      "type": "constructor"
    },
    {
      "inputs": [],
      "name": "WETH9",
      "outputs": [
        {
          "internalType": "address",
          "name": "",
          "type": "address"
        }
      ],
      "stateMutability": "view",
      "type": "function"
    },
    {
      "inputs": [
        {
          "components": [
            {
              "internalType": "address",
              "name": "token0",
              "type": "address"
            },
            {
              "internalType": "address",
              "name": "token1",
              "type": "address"
            },
            {
              "internalType": "address",
              "name": "recipient",
              "type": "address"
            },
            {
              "internalType": "uint256",
              "name": "amount0Desired",
              "type": "uint256"
            },
            {
              "internalType": "uint256",
              "name": "amount1Desired",
              "type": "uint256"
            },
            {
              "internalType": "uint256",
              "name": "amount0Min",
              "type": "uint256"
            },
            {
              "internalType": "uint256",
              "name": "amount1Min",
              "type": "uint256"
            },
            {
              "internalType": "uint256",
              "name": "deadline",
              "type": "uint256"
            }
          ],
          "internalType": "struct IPocketSwapLiquidityRouter.AddLiquidityParams",
          "name": "params",
          "type": "tuple"
        }
      ],
      "name": "addLiquidity",
      "outputs": [
        {
          "internalType": "uint256",
          "name": "amountA",
          "type": "uint256"
        },
        {
          "internalType": "uint256",
          "name": "amountB",
          "type": "uint256"
        },
        {
          "internalType": "uint256",
          "name": "liquidity",
          "type": "uint256"
        }
      ],
      "stateMutability": "payable",
      "type": "function"
    },
    {
      "inputs": [
        {
          "components": [
            {
              "internalType": "bytes",
              "name": "path",
              "type": "bytes"
            },
            {
              "internalType": "address",
              "name": "recipient",
              "type": "address"
            },
            {
              "internalType": "uint256",
              "name": "deadline",
              "type": "uint256"
            },
            {
              "internalType": "uint256",
              "name": "amountOut",
              "type": "uint256"
            },
            {
              "internalType": "uint256",
              "name": "amountInMaximum",
              "type": "uint256"
            }
          ],
          "internalType": "struct IPocketSwapRouter.OutputParams",
          "name": "params",
          "type": "tuple"
        }
      ],
      "name": "exactOutput",
      "outputs": [
        {
          "internalType": "uint256",
          "name": "amountIn",
          "type": "uint256"
        }
      ],
      "stateMutability": "payable",
      "type": "function"
    },
    {
      "inputs": [
        {
          "components": [
            {
              "internalType": "address",
              "name": "tokenIn",
              "type": "address"
            },
            {
              "internalType": "address",
              "name": "tokenOut",
              "type": "address"
            },
            {
              "internalType": "uint24",
              "name": "fee",
              "type": "uint24"
            },
            {
              "internalType": "address",
              "name": "recipient",
              "type": "address"
            },
            {
              "internalType": "uint256",
              "name": "deadline",
              "type": "uint256"
            },
            {
              "internalType": "uint256",
              "name": "amountOut",
              "type": "uint256"
            },
            {
              "internalType": "uint256",
              "name": "amountInMaximum",
              "type": "uint256"
            },
            {
              "internalType": "uint160",
              "name": "sqrtPriceLimitX96",
              "type": "uint160"
            }
          ],
          "internalType": "struct IPocketSwapRouter.OutputSingleParams",
          "name": "params",
          "type": "tuple"
        }
      ],
      "name": "exactOutputSingle",
      "outputs": [
        {
          "internalType": "uint256",
          "name": "amountIn",
          "type": "uint256"
        }
      ],
      "stateMutability": "payable",
      "type": "function"
    },
    {
      "inputs": [],
      "name": "factory",
      "outputs": [
        {
          "internalType": "address",
          "name": "",
          "type": "address"
        }
      ],
      "stateMutability": "view",
      "type": "function"
    },
    {
      "inputs": [
        {
          "internalType": "uint256",
          "name": "amountOut",
          "type": "uint256"
        },
        {
          "internalType": "uint256",
          "name": "reserveIn",
          "type": "uint256"
        },
        {
          "internalType": "uint256",
          "name": "reserveOut",
          "type": "uint256"
        }
      ],
      "name": "getAmountIn",
      "outputs": [
        {
          "internalType": "uint256",
          "name": "amountIn",
          "type": "uint256"
        }
      ],
      "stateMutability": "view",
      "type": "function"
    },
    {
      "inputs": [
        {
          "internalType": "uint256",
          "name": "amountIn",
          "type": "uint256"
        },
        {
          "internalType": "uint256",
          "name": "reserveIn",
          "type": "uint256"
        },
        {
          "internalType": "uint256",
          "name": "reserveOut",
          "type": "uint256"
        }
      ],
      "name": "getAmountOut",
      "outputs": [
        {
          "internalType": "uint256",
          "name": "amountOut",
          "type": "uint256"
        }
      ],
      "stateMutability": "view",
      "type": "function"
    },
    {
      "inputs": [
        {
          "internalType": "uint256",
          "name": "amountOut",
          "type": "uint256"
        },
        {
          "internalType": "address[]",
          "name": "path",
          "type": "address[]"
        }
      ],
      "name": "getAmountsIn",
      "outputs": [
        {
          "internalType": "uint256[]",
          "name": "amounts",
          "type": "uint256[]"
        }
      ],
      "stateMutability": "view",
      "type": "function"
    },
    {
      "inputs": [
        {
          "internalType": "uint256",
          "name": "amountIn",
          "type": "uint256"
        },
        {
          "internalType": "address[]",
          "name": "path",
          "type": "address[]"
        }
      ],
      "name": "getAmountsOut",
      "outputs": [
        {
          "internalType": "uint256[]",
          "name": "amounts",
          "type": "uint256[]"
        }
      ],
      "stateMutability": "view",
      "type": "function"
    },
    {
      "inputs": [
        {
          "internalType": "bytes[]",
          "name": "data",
          "type": "bytes[]"
        }
      ],
      "name": "multicall",
      "outputs": [
        {
          "internalType": "bytes[]",
          "name": "results",
          "type": "bytes[]"
        }
      ],
      "stateMutability": "payable",
      "type": "function"
    },
    {
      "inputs": [
        {
          "internalType": "address",
          "name": "tokenA",
          "type": "address"
        },
        {
          "internalType": "address",
          "name": "tokenB",
          "type": "address"
        }
      ],
      "name": "pairFor",
      "outputs": [
        {
          "internalType": "contract IPocketSwapPair",
          "name": "",
          "type": "address"
        }
      ],
      "stateMutability": "view",
      "type": "function"
    },
    {
      "inputs": [
        {
          "internalType": "uint256",
          "name": "amount0Delta",
          "type": "uint256"
        },
        {
          "internalType": "uint256",
          "name": "amount1Delta",
          "type": "uint256"
        },
        {
          "internalType": "bytes",
          "name": "_data",
          "type": "bytes"
        }
      ],
      "name": "pocketSwapCallback",
      "outputs": [],
      "stateMutability": "nonpayable",
      "type": "function"
    },
    {
      "inputs": [
        {
          "internalType": "uint256",
          "name": "amountA",
          "type": "uint256"
        },
        {
          "internalType": "uint256",
          "name": "reserveA",
          "type": "uint256"
        },
        {
          "internalType": "uint256",
          "name": "reserveB",
          "type": "uint256"
        }
      ],
      "name": "quote",
      "outputs": [
        {
          "internalType": "uint256",
          "name": "amountB",
          "type": "uint256"
        }
      ],
      "stateMutability": "pure",
      "type": "function"
    },
    {
      "inputs": [
        {
          "components": [
            {
              "internalType": "address",
              "name": "tokenA",
              "type": "address"
            },
            {
              "internalType": "address",
              "name": "tokenB",
              "type": "address"
            },
            {
              "internalType": "uint256",
              "name": "liquidity",
              "type": "uint256"
            },
            {
              "internalType": "uint256",
              "name": "amountAMin",
              "type": "uint256"
            },
            {
              "internalType": "uint256",
              "name": "amountBMin",
              "type": "uint256"
            },
            {
              "internalType": "address",
              "name": "recipient",
              "type": "address"
            },
            {
              "internalType": "uint256",
              "name": "deadline",
              "type": "uint256"
            }
          ],
          "internalType": "struct IPocketSwapLiquidityRouter.RemoveLiquidityParams",
          "name": "params",
          "type": "tuple"
        }
      ],
      "name": "removeLiquidity",
      "outputs": [
        {
          "internalType": "uint256",
          "name": "amountA",
          "type": "uint256"
        },
        {
          "internalType": "uint256",
          "name": "amountB",
          "type": "uint256"
        }
      ],
      "stateMutability": "payable",
      "type": "function"
    },
    {
      "inputs": [
        {
          "components": [
            {
              "internalType": "address",
              "name": "tokenIn",
              "type": "address"
            },
            {
              "internalType": "address",
              "name": "tokenOut",
              "type": "address"
            },
            {
              "internalType": "address",
              "name": "recipient",
              "type": "address"
            },
            {
              "internalType": "uint256",
              "name": "deadline",
              "type": "uint256"
            },
            {
              "internalType": "uint256",
              "name": "amountIn",
              "type": "uint256"
            },
            {
              "internalType": "uint256",
              "name": "amountOutMinimum",
              "type": "uint256"
            }
          ],
          "internalType": "struct IPocketSwapRouter.SwapParams",
          "name": "params",
          "type": "tuple"
        }
      ],
      "name": "swap",
      "outputs": [
        {
          "internalType": "uint256",
          "name": "amountOut",
          "type": "uint256"
        }
      ],
      "stateMutability": "payable",
      "type": "function"
    },
    {
      "inputs": [
        {
          "components": [
            {
              "internalType": "bytes",
              "name": "path",
              "type": "bytes"
            },
            {
              "internalType": "address",
              "name": "recipient",
              "type": "address"
            },
            {
              "internalType": "uint256",
              "name": "deadline",
              "type": "uint256"
            },
            {
              "internalType": "uint256",
              "name": "amountIn",
              "type": "uint256"
            },
            {
              "internalType": "uint256",
              "name": "amountOutMinimum",
              "type": "uint256"
            }
          ],
          "internalType": "struct IPocketSwapRouter.SwapMultiParams",
          "name": "params",
          "type": "tuple"
        }
      ],
      "name": "swapMulti",
      "outputs": [
        {
          "internalType": "uint256",
          "name": "amountOut",
          "type": "uint256"
        }
      ],
      "stateMutability": "payable",
      "type": "function"
    },
    {
      "inputs": [
        {
          "internalType": "address",
          "name": "token",
          "type": "address"
        },
        {
          "internalType": "uint256",
          "name": "amountMinimum",
          "type": "uint256"
        },
        {
          "internalType": "address",
          "name": "recipient",
          "type": "address"
        }
      ],
      "name": "sweepToken",
      "outputs": [],
      "stateMutability": "payable",
      "type": "function"
    },
    {
      "inputs": [
        {
          "internalType": "uint256",
          "name": "amountMinimum",
          "type": "uint256"
        },
        {
          "internalType": "address",
          "name": "recipient",
          "type": "address"
        }
      ],
      "name": "unwrapWETH9",
      "outputs": [],
      "stateMutability": "payable",
      "type": "function"
    },
    {
      "stateMutability": "payable",
      "type": "receive"
    }
  ],
  "bytecode": "0x60c06040526000196000553480156200001757600080fd5b5060405162003095380380620030958339810160408190526200003a9162000076565b6001600160601b0319606092831b8116608052911b1660a052620000ad565b80516001600160a01b03811681146200007157600080fd5b919050565b6000806040838503121562000089578182fd5b620000948362000059565b9150620000a46020840162000059565b90509250929050565b60805160601c60a05160601c612f696200012c6000398061011d5280610619528061070a5280610797528061147c52806114c5528061153952508061039352806104ea52806107e2528061091b5280610b305280610c3b5280610d4a5280610ebe5280610ee7528061118a52806116af52806119fa5250612f696000f3fe60806040526004361061010d5760003560e01c80638d4d72e511610095578063c45a015511610064578063c45a015514610323578063d06ca61f14610338578063db3e219814610358578063df2ab5bb1461036b578063f28c04981461037e5761017d565b80638d4d72e5146102a157806396ed28f9146102c3578063ac9650d8146102e3578063ad615dec146103035761017d565b806349404b7c116100dc57806349404b7c1461020b5780634aa4a4fc1461021e5780637936cd901461024057806384cec8551461026057806385f8c259146102815761017d565b8063054d50d41461018257806313b51924146101b85780631f00ca74146101cb578063441a12de146101f85761017d565b3661017d57336001600160a01b037f0000000000000000000000000000000000000000000000000000000000000000161461017b576040805162461bcd60e51b81526020600482015260096024820152684e6f7420574554483960b81b604482015290519081900360640190fd5b005b600080fd5b34801561018e57600080fd5b506101a261019d366004612aa6565b61038c565b6040516101af9190612d35565b60405180910390f35b6101a26101c636600461285a565b6103c4565b3480156101d757600080fd5b506101eb6101e6366004612951565b6104e3565b6040516101af9190612be6565b6101a2610206366004612904565b610519565b61017b61021936600461292d565b610615565b34801561022a57600080fd5b50610233610795565b6040516101af9190612b34565b34801561024c57600080fd5b5061017b61025b366004612a2c565b6107b9565b61027361026e3660046127ba565b6108ba565b6040516101af929190612d3e565b34801561028d57600080fd5b506101a261029c366004612aa6565b610b29565b6102b46102af366004612767565b610b57565b6040516101af93929190612d83565b3480156102cf57600080fd5b506102336102de3660046125ee565b610d43565b6102f66102f1366004612667565b610d70565b6040516101af9190612b86565b34801561030f57600080fd5b506101a261031e366004612aa6565b610eaf565b34801561032f57600080fd5b50610233610ebc565b34801561034457600080fd5b506101eb610353366004612951565b610ee0565b6101a2610366366004612767565b610f0d565b61017b610379366004612626565b610f13565b6101a2610366366004612783565b60006103ba7f0000000000000000000000000000000000000000000000000000000000000000858585610ff7565b90505b9392505050565b60008160400151806103d46110d0565b111561041d576040805162461bcd60e51b8152602060048201526013602482015272151c985b9cd858dd1a5bdb881d1bdbc81bdb19606a1b604482015290519081900360640190fd5b60009150335b600061043285600001516110d4565b905061047c85606001518261044b57866020015161044d565b305b60405180604001604052806104658a600001516110e0565b8152602001866001600160a01b03168152506110ef565b6060860152801561049c578451309250610495906111dc565b85526104a9565b84606001519350506104af565b50610423565b83608001518310156104dc5760405162461bcd60e51b81526004016104d390612ccb565b60405180910390fd5b5050919050565b60606105107f000000000000000000000000000000000000000000000000000000000000000084846111f7565b90505b92915050565b60008160600135806105296110d0565b1115610572576040805162461bcd60e51b8152602060048201526013602482015272151c985b9cd858dd1a5bdb881d1bdbc81bdb19606a1b604482015290519081900360640190fd5b6105e9608084013561058a60608601604087016125b6565b60408051808201909152806105a260208901896125b6565b6105b260408a0160208b016125b6565b6040516020016105c3929190612afd565b6040516020818303038152906040528152602001336001600160a01b03168152506110ef565b91508260a0013582101561060f5760405162461bcd60e51b81526004016104d390612ccb565b50919050565b60007f00000000000000000000000000000000000000000000000000000000000000006001600160a01b03166370a08231306040518263ffffffff1660e01b815260040180826001600160a01b0316815260200191505060206040518083038186803b15801561068457600080fd5b505afa158015610698573d6000803e3d6000fd5b505050506040513d60208110156106ae57600080fd5b5051905082156107025782811015610702576040805162461bcd60e51b8152602060048201526012602482015271496e73756666696369656e7420574554483960701b604482015290519081900360640190fd5b8015610790577f00000000000000000000000000000000000000000000000000000000000000006001600160a01b0316632e1a7d4d826040518263ffffffff1660e01b815260040180828152602001915050600060405180830381600087803b15801561076e57600080fd5b505af1158015610782573d6000803e3d6000fd5b505050506107908282611344565b505050565b7f000000000000000000000000000000000000000000000000000000000000000081565b60006107c7828401846127cb565b90506000806107d98360000151611433565b915091506108087f00000000000000000000000000000000000000000000000000000000000000008383611454565b506000806000891161082f57836001600160a01b0316836001600160a01b03161088610846565b826001600160a01b0316846001600160a01b031610895b915091508115610865576108608486602001513384611478565b6108af565b8451610870906110d4565b15610895578451610880906111dc565b855261088f8133600088611614565b506108af565b806000819055508293506108af8486602001513384611478565b505050505050505050565b6000808260c00135806108cb6110d0565b1115610914576040805162461bcd60e51b8152602060048201526013602482015272151c985b9cd858dd1a5bdb881d1bdbc81bdb19606a1b604482015290519081900360640190fd5b600061095c7f000000000000000000000000000000000000000000000000000000000000000061094760208801886125b6565b6109576040890160208a016125b6565b611702565b9050806001600160a01b03166323b872dd338388604001356040518463ffffffff1660e01b815260040161099293929190612b48565b602060405180830381600087803b1580156109ac57600080fd5b505af11580156109c0573d6000803e3d6000fd5b505050506040513d601f19601f820116820180604052508101906109e491906126d5565b506000806001600160a01b0383166389afcb44610a0760c08a0160a08b016125b6565b6040518263ffffffff1660e01b8152600401610a239190612b34565b6040805180830381600087803b158015610a3c57600080fd5b505af1158015610a50573d6000803e3d6000fd5b505050506040513d601f19601f82011682018060405250810190610a749190612a09565b90925090506000610aa0610a8b60208a018a6125b6565b610a9b60408b0160208c016125b6565b6117cb565b5090506001600160a01b038116610aba60208a018a6125b6565b6001600160a01b031614610acf578183610ad2565b82825b90975095506060880135871015610afb5760405162461bcd60e51b81526004016104d390612c3d565b8760800135861015610b1f5760405162461bcd60e51b81526004016104d390612c84565b5050505050915091565b60006103ba7f00000000000000000000000000000000000000000000000000000000000000008585856118a9565b60008060008360e0013580610b6a6110d0565b1115610bb3576040805162461bcd60e51b8152602060048201526013602482015272151c985b9cd858dd1a5bdb881d1bdbc81bdb19606a1b604482015290519081900360640190fd5b610c2f856060013586608001358760a001358860c0013560405180604001604052808b6000016020810190610be891906125b6565b610bf860408e0160208f016125b6565b604051602001610c09929190612afd565b6040516020818303038152906040528152602001336001600160a01b03168152506119f3565b90945092506000610c777f0000000000000000000000000000000000000000000000000000000000000000610c6760208901896125b6565b61095760408a0160208b016125b6565b9050610c91610c8960208801886125b6565b338388611c03565b610cac610ca460408801602089016125b6565b338387611c03565b6001600160a01b038116636a627842610ccb6060890160408a016125b6565b6040518263ffffffff1660e01b8152600401610ce79190612b34565b602060405180830381600087803b158015610d0157600080fd5b505af1158015610d15573d6000803e3d6000fd5b505050506040513d601f19601f82011682018060405250810190610d399190612915565b9496939550505050565b60006105107f00000000000000000000000000000000000000000000000000000000000000008484611702565b6060816001600160401b0381118015610d8857600080fd5b50604051908082528060200260200182016040528015610dbc57816020015b6060815260200190600190039081610da75790505b50905060005b82811015610ea85760008030868685818110610dda57fe5b9050602002810190610dec9190612d99565b604051610dfa929190612b24565b600060405180830381855af49150503d8060008114610e35576040519150601f19603f3d011682016040523d82523d6000602084013e610e3a565b606091505b509150915081610e8657604481511015610e5357600080fd5b60048101905080806020019051810190610e6d91906126f5565b60405162461bcd60e51b81526004016104d39190612c2a565b80848481518110610e9357fe5b60209081029190910101525050600101610dc2565b5092915050565b60006103ba848484611d5b565b7f000000000000000000000000000000000000000000000000000000000000000081565b60606105107f00000000000000000000000000000000000000000000000000000000000000008484611e01565b50600090565b6000836001600160a01b03166370a08231306040518263ffffffff1660e01b815260040180826001600160a01b0316815260200191505060206040518083038186803b158015610f6257600080fd5b505afa158015610f76573d6000803e3d6000fd5b505050506040513d6020811015610f8c57600080fd5b505190508215610fe05782811015610fe0576040805162461bcd60e51b815260206004820152601260248201527124b739bab33334b1b4b2b73a103a37b5b2b760711b604482015290519081900360640190fd5b8015610ff157610ff1848383611f38565b50505050565b60008084116110375760405162461bcd60e51b815260040180806020018281038252602c815260200180612eb5602c913960400191505060405180910390fd5b6000831180156110475750600082115b6110825760405162461bcd60e51b8152600401808060200182810382526029815260200180612e8c6029913960400191505060405180910390fd5b6000611090856103e561207f565b9050600061109e828561207f565b905060006110b8836110b2886103e861207f565b906120e2565b90508082816110c357fe5b0498975050505050505050565b4290565b8051603c11155b919050565b60606105138260006028612131565b60008060006111018460000151611433565b60408051600280825260608201835293955091935060009290602083019080368337019050509050828160008151811061113757fe5b60200260200101906001600160a01b031690816001600160a01b031681525050818160018151811061116557fe5b60200260200101906001600160a01b031690816001600160a01b0316815250506111b07f00000000000000000000000000000000000000000000000000000000000000008883611e01565b6001815181106111bc57fe5b602002602001015193506111d286888688612282565b5050509392505050565b6060610513601480845103846121319092919063ffffffff16565b6060600282511015611250576040805162461bcd60e51b815260206004820152601f60248201527f506f636b6574537761704c6962726172793a20494e56414c49445f5041544800604482015290519081900360640190fd5b81516001600160401b038111801561126757600080fd5b50604051908082528060200260200182016040528015611291578160200160208202803683370190505b50905082816001835103815181106112a557fe5b60209081029190910101528151600019015b801561133c576000806112f4878660018603815181106112d357fe5b60200260200101518786815181106112e757fe5b602002602001015161237a565b915091506113178785858151811061130857fe5b602002602001015184846118a9565b84600185038151811061132657fe5b60209081029190910101525050600019016112b7565b509392505050565b604080516000808252602082019092526001600160a01b0384169083906040518082805190602001908083835b602083106113905780518252601f199092019160209182019101611371565b6001836020036101000a03801982511681845116808217855250505050505090500191505060006040518083038185875af1925050503d80600081146113f2576040519150601f19603f3d011682016040523d82523d6000602084013e6113f7565b606091505b5050905080610790576040805162461bcd60e51b815260206004820152600360248201526253544560e81b604482015290519081900360640190fd5b6000806114408382612448565b915061144d836014612448565b9050915091565b6000611461848484611702565b9050336001600160a01b038216146103bd57600080fd5b60007f00000000000000000000000000000000000000000000000000000000000000006001600160a01b0316856001600160a01b03161480156114be5750814791508110155b156115e0577f00000000000000000000000000000000000000000000000000000000000000006001600160a01b031663d0e30db0826040518263ffffffff1660e01b81526004016000604051808303818588803b15801561151e57600080fd5b505af1158015611532573d6000803e3d6000fd5b50505050507f00000000000000000000000000000000000000000000000000000000000000006001600160a01b031663a9059cbb84846040518363ffffffff1660e01b815260040180836001600160a01b0316815260200182815260200192505050602060405180830381600087803b1580156115ae57600080fd5b505af11580156115c2573d6000803e3d6000fd5b505050506040513d60208110156115d857600080fd5b5061160d9050565b6001600160a01b038416301415611601576115fc858484611f38565b61160d565b61160d85858585611c03565b5050505050565b60008060006116268460000151611433565b60408051600280825260608201835293955091935060009290602083019080368337019050509050818160008151811061165c57fe5b60200260200101906001600160a01b031690816001600160a01b031681525050828160018151811061168a57fe5b60200260200101906001600160a01b031690816001600160a01b0316815250506116d57f000000000000000000000000000000000000000000000000000000000000000089836111f7565b6000815181106116e157fe5b602002602001015193506116f787858a88612282565b505050949350505050565b6000816001600160a01b0316836001600160a01b03161115611722579091905b50604080516bffffffffffffffffffffffff19606094851b811660208084019190915293851b81166034830152825160288184030181526048830184528051908501206001600160f81b031960688401529590941b9093166069840152607d8301939093527f2fffca6c9117b5bf85c64ab1635b195e7a3a2f36b4b8ffe652cdafbe112e301d609d808401919091528351808403909101815260bd909201909252805191012090565b600080826001600160a01b0316846001600160a01b0316141561181f5760405162461bcd60e51b8152600401808060200182810382526026815260200180612e666026913960400191505060405180910390fd5b826001600160a01b0316846001600160a01b03161061183f578284611842565b83835b90925090506001600160a01b0382166118a2576040805162461bcd60e51b815260206004820152601f60248201527f506f636b6574537761704c6962726172793a205a45524f5f4144445245535300604482015290519081900360640190fd5b9250929050565b60008084116118e95760405162461bcd60e51b815260040180806020018281038252602d815260200180612f07602d913960400191505060405180910390fd5b6000831180156118f95750600082115b6119345760405162461bcd60e51b8152600401808060200182810382526029815260200180612e8c6029913960400191505060405180910390fd5b6000856001600160a01b031663ddca3f436040518163ffffffff1660e01b815260040160206040518083038186803b15801561196f57600080fd5b505afa158015611983573d6000803e3d6000fd5b505050506040513d602081101561199957600080fd5b5051905060006119b7633b9aca006119b1878961207f565b9061207f565b905060006119d0633b9aca008490036119b1878a6124f8565b90506119e760018284816119e057fe5b04906120e2565b98975050505050505050565b60008060007f00000000000000000000000000000000000000000000000000000000000000009050600080611a2b8660000151611433565b60405163e6a4390560e01b815291935091506000906001600160a01b0385169063e6a4390590611a619086908690600401612b6c565b60206040518083038186803b158015611a7957600080fd5b505afa158015611a8d573d6000803e3d6000fd5b505050506040513d601f19601f82011682018060405250810190611ab191906125d2565b6001600160a01b03161415611b42576040516364e329cb60e11b81526001600160a01b0384169063c9c6539690611aee9085908590600401612b6c565b602060405180830381600087803b158015611b0857600080fd5b505af1158015611b1c573d6000803e3d6000fd5b505050506040513d601f19601f82011682018060405250810190611b4091906125d2565b505b600080611b5085858561237a565b91509150816000148015611b62575080155b15611b72578b96508a9550611bf4565b6000611b7f8d8484611d5b565b90508b8111611bb35789811015611ba85760405162461bcd60e51b81526004016104d390612c84565b8c9750955085611bf2565b6000611bc08d8486611d5b565b90508d811115611bcc57fe5b8b811015611bec5760405162461bcd60e51b81526004016104d390612c3d565b97508b96505b505b50505050509550959350505050565b604080516001600160a01b0385811660248301528481166044830152606480830185905283518084039091018152608490920183526020820180516001600160e01b03166323b872dd60e01b178152925182516000948594938a169392918291908083835b60208310611c875780518252601f199092019160209182019101611c68565b6001836020036101000a0380198251168184511680821785525050505050509050019150506000604051808303816000865af19150503d8060008114611ce9576040519150601f19603f3d011682016040523d82523d6000602084013e611cee565b606091505b5091509150818015611d1c575080511580611d1c5750808060200190516020811015611d1957600080fd5b50515b611d53576040805162461bcd60e51b815260206004820152600360248201526229aa2360e91b604482015290519081900360640190fd5b505050505050565b6000808411611d9b5760405162461bcd60e51b8152600401808060200182810382526026815260200180612ee16026913960400191505060405180910390fd5b600083118015611dab5750600082115b611de65760405162461bcd60e51b8152600401808060200182810382526029815260200180612e8c6029913960400191505060405180910390fd5b82611df1858461207f565b81611df857fe5b04949350505050565b6060600282511015611e5a576040805162461bcd60e51b815260206004820152601f60248201527f506f636b6574537761704c6962726172793a20494e56414c49445f5041544800604482015290519081900360640190fd5b81516001600160401b0381118015611e7157600080fd5b50604051908082528060200260200182016040528015611e9b578160200160208202803683370190505b5090508281600081518110611eac57fe5b60200260200101818152505060005b600183510381101561133c57600080611ef187868581518110611eda57fe5b60200260200101518786600101815181106112e757fe5b91509150611f1487858581518110611f0557fe5b60200260200101518484610ff7565b848460010181518110611f2357fe5b60209081029190910101525050600101611ebb565b604080516001600160a01b038481166024830152604480830185905283518084039091018152606490920183526020820180516001600160e01b031663a9059cbb60e01b1781529251825160009485949389169392918291908083835b60208310611fb45780518252601f199092019160209182019101611f95565b6001836020036101000a0380198251168184511680821785525050505050509050019150506000604051808303816000865af19150503d8060008114612016576040519150601f19603f3d011682016040523d82523d6000602084013e61201b565b606091505b5091509150818015612049575080511580612049575080806020019051602081101561204657600080fd5b50515b61160d576040805162461bcd60e51b815260206004820152600260248201526114d560f21b604482015290519081900360640190fd5b600081158061209a5750508082028282828161209757fe5b04145b610513576040805162461bcd60e51b815260206004820152601460248201527364732d6d6174682d6d756c2d6f766572666c6f7760601b604482015290519081900360640190fd5b80820182811015610513576040805162461bcd60e51b815260206004820152601460248201527364732d6d6174682d6164642d6f766572666c6f7760601b604482015290519081900360640190fd5b60608182601f01101561217c576040805162461bcd60e51b815260206004820152600e60248201526d736c6963655f6f766572666c6f7760901b604482015290519081900360640190fd5b8282840110156121c4576040805162461bcd60e51b815260206004820152600e60248201526d736c6963655f6f766572666c6f7760901b604482015290519081900360640190fd5b81830184511015612210576040805162461bcd60e51b8152602060048201526011602482015270736c6963655f6f75744f66426f756e647360781b604482015290519081900360640190fd5b60608215801561222f5760405191506000825260208201604052612279565b6040519150601f8416801560200281840101858101878315602002848b0101015b81831015612268578051835260209283019201612250565b5050858452601f01601f1916604052505b50949350505050565b6000806122928360000151611433565b9150915060006122a28383610d43565b90506122b083338389611c03565b60006122bc84846117cb565b509050600080826001600160a01b0316866001600160a01b0316146122e3578760006122e7565b6000885b91509150836001600160a01b031663022c0d9f83838d8b60405160200161230e9190612cf8565b6040516020818303038152906040526040518563ffffffff1660e01b815260040161233c9493929190612d4c565b600060405180830381600087803b15801561235657600080fd5b505af115801561236a573d6000803e3d6000fd5b5050505050505050505050505050565b600080600061238985856117cb565b50905060008061239a888888611702565b6001600160a01b0316630902f1ac6040518163ffffffff1660e01b815260040160606040518083038186803b1580156123d257600080fd5b505afa1580156123e6573d6000803e3d6000fd5b505050506040513d60608110156123fc57600080fd5b5080516020909101516dffffffffffffffffffffffffffff91821693501690506001600160a01b0387811690841614612436578082612439565b81815b90999098509650505050505050565b600081826014011015612497576040805162461bcd60e51b8152602060048201526012602482015271746f416464726573735f6f766572666c6f7760701b604482015290519081900360640190fd5b81601401835110156124e8576040805162461bcd60e51b8152602060048201526015602482015274746f416464726573735f6f75744f66426f756e647360581b604482015290519081900360640190fd5b500160200151600160601b900490565b80820382811115610513576040805162461bcd60e51b815260206004820152601560248201527464732d6d6174682d7375622d756e646572666c6f7760581b604482015290519081900360640190fd5b80356110db81612e4d565b600082601f830112612563578081fd5b813561257661257182612e00565b612ddd565b81815284602083860101111561258a578283fd5b816020850160208301379081016020019190915292915050565b6000610100828403121561060f578081fd5b6000602082840312156125c7578081fd5b81356103bd81612e4d565b6000602082840312156125e3578081fd5b81516103bd81612e4d565b60008060408385031215612600578081fd5b823561260b81612e4d565b9150602083013561261b81612e4d565b809150509250929050565b60008060006060848603121561263a578081fd5b833561264581612e4d565b925060208401359150604084013561265c81612e4d565b809150509250925092565b60008060208385031215612679578182fd5b82356001600160401b038082111561268f578384fd5b818501915085601f8301126126a2578384fd5b8135818111156126b0578485fd5b86602080830285010111156126c3578485fd5b60209290920196919550909350505050565b6000602082840312156126e6578081fd5b815180151581146103bd578182fd5b600060208284031215612706578081fd5b81516001600160401b0381111561271b578182fd5b8201601f8101841361272b578182fd5b805161273961257182612e00565b81815285602083850101111561274d578384fd5b61275e826020830160208601612e21565b95945050505050565b60006101008284031215612779578081fd5b61051083836125a4565b600060208284031215612794578081fd5b81356001600160401b038111156127a9578182fd5b820160a081850312156103bd578182fd5b600060e0828403121561060f578081fd5b6000602082840312156127dc578081fd5b81356001600160401b03808211156127f2578283fd5b9083019060408286031215612805578283fd5b60405160408101818110838211171561281a57fe5b60405282358281111561282b578485fd5b61283787828601612553565b8252506020830135925061284a83612e4d565b6020810192909252509392505050565b60006020828403121561286b578081fd5b81356001600160401b0380821115612881578283fd5b9083019060a08286031215612894578283fd5b60405160a0810181811083821117156128a957fe5b6040528235828111156128ba578485fd5b6128c687828601612553565b8252506128d560208401612548565b602082015260408301356040820152606083013560608201526080830135608082015280935050505092915050565b600060c0828403121561060f578081fd5b600060208284031215612926578081fd5b5051919050565b6000806040838503121561293f578182fd5b82359150602083013561261b81612e4d565b60008060408385031215612963578182fd5b823591506020808401356001600160401b0380821115612981578384fd5b818601915086601f830112612994578384fd5b8135818111156129a057fe5b83810291506129b0848301612ddd565b8181528481019084860184860187018b10156129ca578788fd5b8795505b838610156129f857803594506129e385612e4d565b848352600195909501949186019186016129ce565b508096505050505050509250929050565b60008060408385031215612a1b578182fd5b505080516020909101519092909150565b60008060008060608587031215612a41578182fd5b843593506020850135925060408501356001600160401b0380821115612a65578384fd5b818701915087601f830112612a78578384fd5b813581811115612a86578485fd5b886020828501011115612a97578485fd5b95989497505060200194505050565b600080600060608486031215612aba578081fd5b505081359360208301359350604090920135919050565b60008151808452612ae9816020860160208601612e21565b601f01601f19169290920160200192915050565b6bffffffffffffffffffffffff19606093841b811682529190921b16601482015260280190565b6000828483379101908152919050565b6001600160a01b0391909116815260200190565b6001600160a01b039384168152919092166020820152604081019190915260600190565b6001600160a01b0392831681529116602082015260400190565b6000602080830181845280855180835260408601915060408482028701019250838701855b82811015612bd957603f19888603018452612bc7858351612ad1565b94509285019290850190600101612bab565b5092979650505050505050565b6020808252825182820181905260009190848201906040850190845b81811015612c1e57835183529284019291840191600101612c02565b50909695505050505050565b6000602082526105106020830184612ad1565b60208082526027908201527f506f636b657453776170526f757465723a20494e53554646494349454e545f4160408201526617d05353d5539560ca1b606082015260800190565b60208082526027908201527f506f636b657453776170526f757465723a20494e53554646494349454e545f4260408201526617d05353d5539560ca1b606082015260800190565b602080825260139082015272151bdbc81b1a5d1d1b19481c9958d95a5d9959606a1b604082015260600190565b600060208252825160406020840152612d146060840182612ad1565b602094909401516001600160a01b0316604093909301929092525090919050565b90815260200190565b918252602082015260400190565b600085825284602083015260018060a01b038416604083015260806060830152612d796080830184612ad1565b9695505050505050565b9283526020830191909152604082015260600190565b6000808335601e19843603018112612daf578283fd5b8301803591506001600160401b03821115612dc8578283fd5b6020019150368190038213156118a257600080fd5b6040518181016001600160401b0381118282101715612df857fe5b604052919050565b60006001600160401b03821115612e1357fe5b50601f01601f191660200190565b60005b83811015612e3c578181015183820152602001612e24565b83811115610ff15750506000910152565b6001600160a01b0381168114612e6257600080fd5b5056fe506f636b6574537761704c6962726172793a204944454e544943414c5f414444524553534553506f636b6574537761704c6962726172793a20494e53554646494349454e545f4c4951554944495459506f636b6574537761704c6962726172793a20494e53554646494349454e545f494e5055545f414d4f554e54506f636b6574537761704c6962726172793a20494e53554646494349454e545f414d4f554e54506f636b6574537761704c6962726172793a20494e53554646494349454e545f4f55545055545f414d4f554e54a2646970667358221220f1e7b796cc1b2e8c0cfa0fa16078391e37ea1139341204e5d8accd02a4e4be9064736f6c63430007060033",
  "immutableReferences": {
    "2768": [
      {
        "length": 32,
        "start": 915
      },
      {
        "length": 32,
        "start": 1258
      },
      {
        "length": 32,
        "start": 2018
      },
      {
        "length": 32,
        "start": 2331
      },
      {
        "length": 32,
        "start": 2864
      },
      {
        "length": 32,
        "start": 3131
      },
      {
        "length": 32,
        "start": 3402
      },
      {
        "length": 32,
        "start": 3774
      },
      {
        "length": 32,
        "start": 3815
      },
      {
        "length": 32,
        "start": 4490
      },
      {
        "length": 32,
        "start": 5807
      },
      {
        "length": 32,
        "start": 6650
      }
    ],
    "2772": [
      {
        "length": 32,
        "start": 285
      },
      {
        "length": 32,
        "start": 1561
      },
      {
        "length": 32,
        "start": 1802
      },
      {
        "length": 32,
        "start": 1943
      },
      {
        "length": 32,
        "start": 5244
      },
      {
        "length": 32,
        "start": 5317
      },
      {
        "length": 32,
        "start": 5433
      }
    ]
  },
  "source": "// SPDX-License-Identifier: Unlicensed\npragma solidity >=0.6.12;\npragma abicoder v2;\n\nimport \"./SwapRouter.sol\";\nimport \"./LiquidityRouter.sol\";\nimport \"./abstract/PeripheryImmutableState.sol\";\n\ncontract PocketSwapRouter is\nPeripheryImmutableState,\nPeripheryValidation,\nSwapRouter,\nLiquidityRouter\n{\n    constructor(address _factory, address _WETH9)\n    PeripheryImmutableState(_factory, _WETH9) {}\n}",
  "sourcePath": "/Users/ilyk/projects/midgardtech/xpocket-PocketSwap/contracts/pocketswap/PocketSwapRouter.sol",
  "compiler": {
    "name": "solc",
    "version": "0.7.6+commit.7338295f.Emscripten.clang"
  },
  "schemaVersion": "3.3.4",
  "updatedAt": "2021-04-27T08:51:56.037Z",
  "devdoc": {
    "kind": "dev",
    "methods": {
      "exactOutput((bytes,address,uint256,uint256,uint256))": {
        "params": {
          "params": "The parameters necessary for the multi-hop swap, encoded as `OutputParams` in calldata"
        },
        "returns": {
          "amountIn": "The amount of the input token"
        }
      },
      "exactOutputSingle((address,address,uint24,address,uint256,uint256,uint256,uint160))": {
        "params": {
          "params": "The parameters necessary for the swap, encoded as `OutputSingleParams` in calldata"
        },
        "returns": {
          "amountIn": "The amount of the input token"
        }
      },
      "multicall(bytes[])": {
        "details": "The `msg.value` should not be trusted for any method callable from multicall.",
        "params": {
          "data": "The encoded function data for each of the calls to make to this contract"
        },
        "returns": {
          "results": "The results from each of the calls passed in via data"
        }
      },
      "swap((address,address,address,uint256,uint256,uint256))": {
        "params": {
          "params": "The parameters necessary for the swap, encoded as `SwapParams` in calldata"
        },
        "returns": {
          "amountOut": "The amount of the received token"
        }
      },
      "swapMulti((bytes,address,uint256,uint256,uint256))": {
        "params": {
          "params": "The parameters necessary for the multi-hop swap, encoded as `SwapMultiParams` in calldata"
        },
        "returns": {
          "amountOut": "The amount of the received token"
        }
      },
      "sweepToken(address,uint256,address)": {
        "details": "The amountMinimum parameter prevents malicious contracts from stealing the token from users",
        "params": {
          "amountMinimum": "The minimum amount of token required for a transfer",
          "recipient": "The destination address of the token",
          "token": "The contract address of the token which will be transferred to `recipient`"
        }
      },
      "unwrapWETH9(uint256,address)": {
        "details": "The amountMinimum parameter prevents malicious contracts from stealing WETH9 from users.",
        "params": {
          "amountMinimum": "The minimum amount of WETH9 to unwrap",
          "recipient": "The address receiving ETH"
        }
      }
    },
    "version": 1
  },
  "userdoc": {
    "kind": "user",
    "methods": {
      "exactOutput((bytes,address,uint256,uint256,uint256))": {
        "notice": "Swaps as little as possible of one token for `amountOut` of another along the specified path (reversed)"
      },
      "exactOutputSingle((address,address,uint24,address,uint256,uint256,uint256,uint160))": {
        "notice": "Swaps as little as possible of one token for `amountOut` of another token"
      },
      "multicall(bytes[])": {
        "notice": "Call multiple functions in the current contract and return the data from all of them if they all succeed"
      },
      "swap((address,address,address,uint256,uint256,uint256))": {
        "notice": "Swaps `amountIn` of one token for as much as possible of another token"
      },
      "swapMulti((bytes,address,uint256,uint256,uint256))": {
        "notice": "Swaps `amountIn` of one token for as much as possible of another along the specified path"
      },
      "sweepToken(address,uint256,address)": {
        "notice": "Sends the full amount of a token held by this contract to the given recipient"
      },
      "unwrapWETH9(uint256,address)": {
        "notice": "Unwraps the contract's WETH9 balance and sends it to recipient as ETH."
      }
    },
    "version": 1
  }
}