{
  "contractName": "PocketSwap",
  "abi": [
    {
      "inputs": [],
      "stateMutability": "nonpayable",
      "type": "constructor"
    },
    {
      "inputs": [],
      "name": "factory",
      "outputs": [
        {
          "internalType": "address",
          "name": "",
          "type": "address"
        }
      ],
      "stateMutability": "view",
      "type": "function"
    },
    {
      "inputs": [],
      "name": "initialized",
      "outputs": [
        {
          "internalType": "uint256",
          "name": "",
          "type": "uint256"
        }
      ],
      "stateMutability": "view",
      "type": "function"
    },
    {
      "inputs": [],
      "name": "pocketToken",
      "outputs": [
        {
          "internalType": "address",
          "name": "",
          "type": "address"
        }
      ],
      "stateMutability": "view",
      "type": "function"
    },
    {
      "inputs": [],
      "name": "router",
      "outputs": [
        {
          "internalType": "address",
          "name": "",
          "type": "address"
        }
      ],
      "stateMutability": "view",
      "type": "function"
    },
    {
      "inputs": [],
      "name": "owner",
      "outputs": [
        {
          "internalType": "address",
          "name": "",
          "type": "address"
        }
      ],
      "stateMutability": "nonpayable",
      "type": "function"
    },
    {
      "inputs": [
        {
          "components": [
            {
              "internalType": "address",
              "name": "router",
              "type": "address"
            },
            {
              "internalType": "address",
              "name": "factory",
              "type": "address"
            },
            {
              "internalType": "address",
              "name": "pocket",
              "type": "address"
            }
          ],
          "internalType": "struct PocketSwap.PocketSwapInitializeParams",
          "name": "params",
          "type": "tuple"
        }
      ],
      "name": "initialize",
      "outputs": [],
      "stateMutability": "nonpayable",
      "type": "function"
    },
    {
      "inputs": [
        {
          "components": [
            {
              "internalType": "address",
              "name": "tokenIn",
              "type": "address"
            },
            {
              "internalType": "address",
              "name": "tokenOut",
              "type": "address"
            },
            {
              "internalType": "address",
              "name": "recipient",
              "type": "address"
            },
            {
              "internalType": "uint256",
              "name": "deadline",
              "type": "uint256"
            },
            {
              "internalType": "uint256",
              "name": "amountIn",
              "type": "uint256"
            },
            {
              "internalType": "uint256",
              "name": "amountOutMinimum",
              "type": "uint256"
            }
          ],
          "internalType": "struct IPocketSwapRouter.SwapParams",
          "name": "params",
          "type": "tuple"
        }
      ],
      "name": "swap",
      "outputs": [],
      "stateMutability": "nonpayable",
      "type": "function"
    }
  ],
  "bytecode": "0x6080604052600260035534801561001557600080fd5b50600480546001600160a01b0319163317905561047a806100376000396000f3fe608060405234801561001057600080fd5b506004361061007d5760003560e01c80638da5cb5b1161005b5780638da5cb5b146100f8578063c45a015514610116578063d26b3e2614610136578063f887ea401461014957600080fd5b8063158ef93e14610082578063441a12de1461009e5780636bcb6e4c146100b3575b600080fd5b61008b60035481565b6040519081526020015b60405180910390f35b6100b16100ac3660046103aa565b610169565b005b6002546100d39073ffffffffffffffffffffffffffffffffffffffff1681565b60405173ffffffffffffffffffffffffffffffffffffffff9091168152602001610095565b60045473ffffffffffffffffffffffffffffffffffffffff166100d3565b6000546100d39073ffffffffffffffffffffffffffffffffffffffff1681565b6100b1610144366004610393565b610215565b6001546100d39073ffffffffffffffffffffffffffffffffffffffff1681565b6001546040517f441a12de00000000000000000000000000000000000000000000000000000000815273ffffffffffffffffffffffffffffffffffffffff9091169063441a12de906101bf9084906004016103d3565b602060405180830381600087803b1580156101d957600080fd5b505af11580156101ed573d6000803e3d6000fd5b505050506040513d601f19601f8201168201806040525081019061021191906103bb565b5050565b60045473ffffffffffffffffffffffffffffffffffffffff163314156103465760035460021461024457600080fd5b60016003556102596060820160408301610372565b600280547fffffffffffffffffffffffff00000000000000000000000000000000000000001673ffffffffffffffffffffffffffffffffffffffff929092169190911790556102ae6040820160208301610372565b600080547fffffffffffffffffffffffff00000000000000000000000000000000000000001673ffffffffffffffffffffffffffffffffffffffff929092169190911790556103006020820182610372565b600180547fffffffffffffffffffffffff00000000000000000000000000000000000000001673ffffffffffffffffffffffffffffffffffffffff929092169190911790555b50565b803573ffffffffffffffffffffffffffffffffffffffff8116811461036d57600080fd5b919050565b600060208284031215610383578081fd5b61038c82610349565b9392505050565b6000606082840312156103a4578081fd5b50919050565b600060c082840312156103a4578081fd5b6000602082840312156103cc578081fd5b5051919050565b60c0810173ffffffffffffffffffffffffffffffffffffffff806103f685610349565b1683528061040660208601610349565b1660208401528061041960408601610349565b16604084015250606083013560608301526080830135608083015260a083013560a08301529291505056fea2646970667358221220d088633a0099bf6aa33cd29cbb02ed655475b8c2698c37cf8e6114d197392e0a64736f6c63430008040033",
  "immutableReferences": {},
  "source": "// SPDX-License-Identifier: Unlicensed\npragma solidity =0.8.4;\npragma abicoder v2;\n\nimport {IPocketSwapFactory} from \"./pocketswap/interfaces/IPocketSwapFactory.sol\";\nimport {IPocketSwapRouter} from \"./pocketswap/interfaces/IPocketSwapRouter.sol\";\nimport {Pocket} from \"./Pocket.sol\";\n\ncontract PocketSwap {\n    struct PocketSwapInitializeParams {\n        address router;\n        address factory;\n        address pocket;\n    }\n\n    address public factory;\n    address public router;\n    address public pocketToken;\n\n    uint public initialized = 2;\n    address _owner;\n\n    modifier onlyOwner() {\n        if (msg.sender == _owner) _;\n    }\n\n    constructor() {\n        _owner = msg.sender;\n    }\n\n    function owner() external returns (address) {\n        return _owner;\n    }\n\n    function initialize(PocketSwapInitializeParams calldata params) external onlyOwner {\n        require(initialized == 2);\n        initialized = 1;\n\n        pocketToken = params.pocket;\n        factory = params.factory;\n        router = params.router;\n    }\n\n    function swap(IPocketSwapRouter.SwapParams calldata params) external {\n        IPocketSwapRouter(router).swap(params);\n    }\n}\n",
  "sourcePath": "/Users/ilyk/projects/midgardtech/xpocket-PocketSwap/contracts/PocketSwap.sol",
  "compiler": {
    "name": "solc",
    "version": "0.8.4+commit.c7e474f2.Emscripten.clang"
  },
  "schemaVersion": "3.4.0",
  "updatedAt": "2021-05-10T12:17:02.477Z",
  "devdoc": {
    "kind": "dev",
    "methods": {},
    "version": 1
  },
  "userdoc": {
    "kind": "user",
    "methods": {},
    "version": 1
  }
}