{
  "contractName": "Pocket",
  "abi": [
    {
      "inputs": [
        {
          "internalType": "string",
          "name": "name_",
          "type": "string"
        },
        {
          "internalType": "string",
          "name": "symbol_",
          "type": "string"
        },
        {
          "internalType": "uint256",
          "name": "supply_",
          "type": "uint256"
        }
      ],
      "stateMutability": "nonpayable",
      "type": "constructor"
    },
    {
      "anonymous": false,
      "inputs": [
        {
          "indexed": true,
          "internalType": "address",
          "name": "owner",
          "type": "address"
        },
        {
          "indexed": true,
          "internalType": "address",
          "name": "spender",
          "type": "address"
        },
        {
          "indexed": false,
          "internalType": "uint256",
          "name": "value",
          "type": "uint256"
        }
      ],
      "name": "Approval",
      "type": "event"
    },
    {
      "anonymous": false,
      "inputs": [
        {
          "indexed": true,
          "internalType": "address",
          "name": "from",
          "type": "address"
        },
        {
          "indexed": true,
          "internalType": "address",
          "name": "to",
          "type": "address"
        },
        {
          "indexed": false,
          "internalType": "uint256",
          "name": "value",
          "type": "uint256"
        }
      ],
      "name": "Transfer",
      "type": "event"
    },
    {
      "inputs": [
        {
          "internalType": "address",
          "name": "owner",
          "type": "address"
        },
        {
          "internalType": "address",
          "name": "spender",
          "type": "address"
        }
      ],
      "name": "allowance",
      "outputs": [
        {
          "internalType": "uint256",
          "name": "",
          "type": "uint256"
        }
      ],
      "stateMutability": "view",
      "type": "function"
    },
    {
      "inputs": [
        {
          "internalType": "address",
          "name": "spender",
          "type": "address"
        },
        {
          "internalType": "uint256",
          "name": "amount",
          "type": "uint256"
        }
      ],
      "name": "approve",
      "outputs": [
        {
          "internalType": "bool",
          "name": "",
          "type": "bool"
        }
      ],
      "stateMutability": "nonpayable",
      "type": "function"
    },
    {
      "inputs": [],
      "name": "decimals",
      "outputs": [
        {
          "internalType": "uint8",
          "name": "",
          "type": "uint8"
        }
      ],
      "stateMutability": "view",
      "type": "function"
    },
    {
      "inputs": [
        {
          "internalType": "address",
          "name": "spender",
          "type": "address"
        },
        {
          "internalType": "uint256",
          "name": "subtractedValue",
          "type": "uint256"
        }
      ],
      "name": "decreaseAllowance",
      "outputs": [
        {
          "internalType": "bool",
          "name": "",
          "type": "bool"
        }
      ],
      "stateMutability": "nonpayable",
      "type": "function"
    },
    {
      "inputs": [
        {
          "internalType": "address",
          "name": "spender",
          "type": "address"
        },
        {
          "internalType": "uint256",
          "name": "addedValue",
          "type": "uint256"
        }
      ],
      "name": "increaseAllowance",
      "outputs": [
        {
          "internalType": "bool",
          "name": "",
          "type": "bool"
        }
      ],
      "stateMutability": "nonpayable",
      "type": "function"
    },
    {
      "inputs": [],
      "name": "name",
      "outputs": [
        {
          "internalType": "string",
          "name": "",
          "type": "string"
        }
      ],
      "stateMutability": "view",
      "type": "function"
    },
    {
      "inputs": [],
      "name": "symbol",
      "outputs": [
        {
          "internalType": "string",
          "name": "",
          "type": "string"
        }
      ],
      "stateMutability": "view",
      "type": "function"
    },
    {
      "inputs": [],
      "name": "totalSupply",
      "outputs": [
        {
          "internalType": "uint256",
          "name": "",
          "type": "uint256"
        }
      ],
      "stateMutability": "view",
      "type": "function"
    },
    {
      "inputs": [
        {
          "internalType": "address",
          "name": "recipient",
          "type": "address"
        },
        {
          "internalType": "uint256",
          "name": "amount",
          "type": "uint256"
        }
      ],
      "name": "transfer",
      "outputs": [
        {
          "internalType": "bool",
          "name": "",
          "type": "bool"
        }
      ],
      "stateMutability": "nonpayable",
      "type": "function"
    },
    {
      "inputs": [
        {
          "internalType": "address",
          "name": "sender",
          "type": "address"
        },
        {
          "internalType": "address",
          "name": "recipient",
          "type": "address"
        },
        {
          "internalType": "uint256",
          "name": "amount",
          "type": "uint256"
        }
      ],
      "name": "transferFrom",
      "outputs": [
        {
          "internalType": "bool",
          "name": "",
          "type": "bool"
        }
      ],
      "stateMutability": "nonpayable",
      "type": "function"
    },
    {
      "inputs": [
        {
          "internalType": "uint256",
          "name": "amount",
          "type": "uint256"
        }
      ],
      "name": "addRewards",
      "outputs": [
        {
          "internalType": "bool",
          "name": "",
          "type": "bool"
        }
      ],
      "stateMutability": "nonpayable",
      "type": "function"
    },
    {
      "inputs": [
        {
          "internalType": "address",
          "name": "account",
          "type": "address"
        }
      ],
      "name": "balanceOf",
      "outputs": [
        {
          "internalType": "uint256",
          "name": "",
          "type": "uint256"
        }
      ],
      "stateMutability": "view",
      "type": "function"
    }
  ],
  "bytecode": "0x60806040523480156200001157600080fd5b5060405162001cdd38038062001cdd83398181016040528101906200003791906200032b565b8282816003908051906020019062000051929190620001f2565b5080600490805190602001906200006a929190620001f2565b5050506200007f33826200008860201b60201c565b50505062000684565b600073ffffffffffffffffffffffffffffffffffffffff168273ffffffffffffffffffffffffffffffffffffffff161415620000fb576040517f08c379a0000000000000000000000000000000000000000000000000000000008152600401620000f290620003eb565b60405180910390fd5b6200010f60008383620001ed60201b60201c565b80600260008282546200012391906200049a565b92505081905550806000808473ffffffffffffffffffffffffffffffffffffffff1673ffffffffffffffffffffffffffffffffffffffff16815260200190815260200160002060008282546200017a91906200049a565b925050819055508173ffffffffffffffffffffffffffffffffffffffff16600073ffffffffffffffffffffffffffffffffffffffff167fddf252ad1be2c89b69c2b068fc378daa952ba7f163c4a11628f55a4df523b3ef83604051620001e191906200040d565b60405180910390a35050565b505050565b828054620002009062000537565b90600052602060002090601f01602090048101928262000224576000855562000270565b82601f106200023f57805160ff191683800117855562000270565b8280016001018555821562000270579182015b828111156200026f57825182559160200191906001019062000252565b5b5090506200027f919062000283565b5090565b5b808211156200029e57600081600090555060010162000284565b5090565b6000620002b9620002b38462000453565b6200042a565b905082815260208101848484011115620002d257600080fd5b620002df84828562000501565b509392505050565b600082601f830112620002f957600080fd5b81516200030b848260208601620002a2565b91505092915050565b60008151905062000325816200066a565b92915050565b6000806000606084860312156200034157600080fd5b600084015167ffffffffffffffff8111156200035c57600080fd5b6200036a86828701620002e7565b935050602084015167ffffffffffffffff8111156200038857600080fd5b6200039686828701620002e7565b9250506040620003a98682870162000314565b9150509250925092565b6000620003c2601f8362000489565b9150620003cf8262000641565b602082019050919050565b620003e581620004f7565b82525050565b600060208201905081810360008301526200040681620003b3565b9050919050565b6000602082019050620004246000830184620003da565b92915050565b60006200043662000449565b90506200044482826200056d565b919050565b6000604051905090565b600067ffffffffffffffff82111562000471576200047062000601565b5b6200047c8262000630565b9050602081019050919050565b600082825260208201905092915050565b6000620004a782620004f7565b9150620004b483620004f7565b9250827fffffffffffffffffffffffffffffffffffffffffffffffffffffffffffffffff03821115620004ec57620004eb620005a3565b5b828201905092915050565b6000819050919050565b60005b838110156200052157808201518184015260208101905062000504565b8381111562000531576000848401525b50505050565b600060028204905060018216806200055057607f821691505b60208210811415620005675762000566620005d2565b5b50919050565b620005788262000630565b810181811067ffffffffffffffff821117156200059a576200059962000601565b5b80604052505050565b7f4e487b7100000000000000000000000000000000000000000000000000000000600052601160045260246000fd5b7f4e487b7100000000000000000000000000000000000000000000000000000000600052602260045260246000fd5b7f4e487b7100000000000000000000000000000000000000000000000000000000600052604160045260246000fd5b6000601f19601f8301169050919050565b7f45524332303a206d696e7420746f20746865207a65726f206164647265737300600082015250565b6200067581620004f7565b81146200068157600080fd5b50565b61164980620006946000396000f3fe608060405234801561001057600080fd5b50600436106100b45760003560e01c806370a082311161007157806370a08231146101a357806395d89b41146101d3578063a457c2d7146101f1578063a9059cbb14610221578063beceed3914610251578063dd62ed3e14610281576100b4565b806306fdde03146100b9578063095ea7b3146100d757806318160ddd1461010757806323b872dd14610125578063313ce567146101555780633950935114610173575b600080fd5b6100c16102b1565b6040516100ce9190610ffb565b60405180910390f35b6100f160048036038101906100ec9190610e20565b610343565b6040516100fe9190610fe0565b60405180910390f35b61010f610361565b60405161011c91906110fd565b60405180910390f35b61013f600480360381019061013a9190610dd1565b61036b565b60405161014c9190610fe0565b60405180910390f35b61015d61046c565b60405161016a9190611118565b60405180910390f35b61018d60048036038101906101889190610e20565b610475565b60405161019a9190610fe0565b60405180910390f35b6101bd60048036038101906101b89190610d6c565b610521565b6040516101ca91906110fd565b60405180910390f35b6101db610546565b6040516101e89190610ffb565b60405180910390f35b61020b60048036038101906102069190610e20565b6105d8565b6040516102189190610fe0565b60405180910390f35b61023b60048036038101906102369190610e20565b6106cc565b6040516102489190610fe0565b60405180910390f35b61026b60048036038101906102669190610e5c565b6106ea565b6040516102789190610fe0565b60405180910390f35b61029b60048036038101906102969190610d95565b6106fd565b6040516102a891906110fd565b60405180910390f35b6060600380546102c0906112ec565b80601f01602080910402602001604051908101604052809291908181526020018280546102ec906112ec565b80156103395780601f1061030e57610100808354040283529160200191610339565b820191906000526020600020905b81548152906001019060200180831161031c57829003601f168201915b5050505050905090565b6000610357610350610784565b848461078c565b6001905092915050565b6000600254905090565b6000610378848484610957565b6000600160008673ffffffffffffffffffffffffffffffffffffffff1673ffffffffffffffffffffffffffffffffffffffff16815260200190815260200160002060006103c3610784565b73ffffffffffffffffffffffffffffffffffffffff1673ffffffffffffffffffffffffffffffffffffffff16815260200190815260200160002054905082811015610443576040517f08c379a000000000000000000000000000000000000000000000000000000000815260040161043a9061107d565b60405180910390fd5b6104608561044f610784565b858461045b9190611230565b61078c565b60019150509392505050565b60006012905090565b6000610517610482610784565b848460016000610490610784565b73ffffffffffffffffffffffffffffffffffffffff1673ffffffffffffffffffffffffffffffffffffffff16815260200190815260200160002060008873ffffffffffffffffffffffffffffffffffffffff1673ffffffffffffffffffffffffffffffffffffffff16815260200190815260200160002054610512919061114f565b61078c565b6001905092915050565b600061052c82610982565b61053583610a76565b61053f919061114f565b9050919050565b606060048054610555906112ec565b80601f0160208091040260200160405190810160405280929190818152602001828054610581906112ec565b80156105ce5780601f106105a3576101008083540402835291602001916105ce565b820191906000526020600020905b8154815290600101906020018083116105b157829003601f168201915b5050505050905090565b600080600160006105e7610784565b73ffffffffffffffffffffffffffffffffffffffff1673ffffffffffffffffffffffffffffffffffffffff16815260200190815260200160002060008573ffffffffffffffffffffffffffffffffffffffff1673ffffffffffffffffffffffffffffffffffffffff168152602001908152602001600020549050828110156106a4576040517f08c379a000000000000000000000000000000000000000000000000000000000815260040161069b906110dd565b60405180910390fd5b6106c16106af610784565b8585846106bc9190611230565b61078c565b600191505092915050565b60006106e06106d9610784565b8484610957565b6001905092915050565b60006106f630836106cc565b9050919050565b6000600160008473ffffffffffffffffffffffffffffffffffffffff1673ffffffffffffffffffffffffffffffffffffffff16815260200190815260200160002060008373ffffffffffffffffffffffffffffffffffffffff1673ffffffffffffffffffffffffffffffffffffffff16815260200190815260200160002054905092915050565b600033905090565b600073ffffffffffffffffffffffffffffffffffffffff168373ffffffffffffffffffffffffffffffffffffffff1614156107fc576040517f08c379a00000000000000000000000000000000000000000000000000000000081526004016107f3906110bd565b60405180910390fd5b600073ffffffffffffffffffffffffffffffffffffffff168273ffffffffffffffffffffffffffffffffffffffff16141561086c576040517f08c379a00000000000000000000000000000000000000000000000000000000081526004016108639061103d565b60405180910390fd5b80600160008573ffffffffffffffffffffffffffffffffffffffff1673ffffffffffffffffffffffffffffffffffffffff16815260200190815260200160002060008473ffffffffffffffffffffffffffffffffffffffff1673ffffffffffffffffffffffffffffffffffffffff168152602001908152602001600020819055508173ffffffffffffffffffffffffffffffffffffffff168373ffffffffffffffffffffffffffffffffffffffff167f8c5be1e5ebec7d5bd14f71427d1e84f3dd0314c0f7b2291e5b200ac8c7c3b9258360405161094a91906110fd565b60405180910390a3505050565b82600061096382610982565b9050610970308383610abe565b61097b858585610abe565b5050505050565b6000600560008373ffffffffffffffffffffffffffffffffffffffff1673ffffffffffffffffffffffffffffffffffffffff16815260200190815260200160002060009054906101000a900460ff16156109df5760009050610a71565b60006109ea83610a76565b905060006109f730610a76565b9050610a01610361565b600660008673ffffffffffffffffffffffffffffffffffffffff1673ffffffffffffffffffffffffffffffffffffffff1681526020019081526020016000205482610a4c9190611230565b83610a5791906111d6565b610a6191906111a5565b82610a6c9190611230565b925050505b919050565b60008060008373ffffffffffffffffffffffffffffffffffffffff1673ffffffffffffffffffffffffffffffffffffffff168152602001908152602001600020549050919050565b600073ffffffffffffffffffffffffffffffffffffffff168373ffffffffffffffffffffffffffffffffffffffff161415610b2e576040517f08c379a0000000000000000000000000000000000000000000000000000000008152600401610b259061109d565b60405180910390fd5b600073ffffffffffffffffffffffffffffffffffffffff168273ffffffffffffffffffffffffffffffffffffffff161415610b9e576040517f08c379a0000000000000000000000000000000000000000000000000000000008152600401610b959061101d565b60405180910390fd5b610ba9838383610d3d565b60008060008573ffffffffffffffffffffffffffffffffffffffff1673ffffffffffffffffffffffffffffffffffffffff16815260200190815260200160002054905081811015610c2f576040517f08c379a0000000000000000000000000000000000000000000000000000000008152600401610c269061105d565b60405180910390fd5b8181610c3b9190611230565b6000808673ffffffffffffffffffffffffffffffffffffffff1673ffffffffffffffffffffffffffffffffffffffff16815260200190815260200160002081905550816000808573ffffffffffffffffffffffffffffffffffffffff1673ffffffffffffffffffffffffffffffffffffffff1681526020019081526020016000206000828254610ccb919061114f565b925050819055508273ffffffffffffffffffffffffffffffffffffffff168473ffffffffffffffffffffffffffffffffffffffff167fddf252ad1be2c89b69c2b068fc378daa952ba7f163c4a11628f55a4df523b3ef84604051610d2f91906110fd565b60405180910390a350505050565b505050565b600081359050610d51816115e5565b92915050565b600081359050610d66816115fc565b92915050565b600060208284031215610d7e57600080fd5b6000610d8c84828501610d42565b91505092915050565b60008060408385031215610da857600080fd5b6000610db685828601610d42565b9250506020610dc785828601610d42565b9150509250929050565b600080600060608486031215610de657600080fd5b6000610df486828701610d42565b9350506020610e0586828701610d42565b9250506040610e1686828701610d57565b9150509250925092565b60008060408385031215610e3357600080fd5b6000610e4185828601610d42565b9250506020610e5285828601610d57565b9150509250929050565b600060208284031215610e6e57600080fd5b6000610e7c84828501610d57565b91505092915050565b610e8e81611276565b82525050565b6000610e9f82611133565b610ea9818561113e565b9350610eb98185602086016112b9565b610ec2816113ab565b840191505092915050565b6000610eda60238361113e565b9150610ee5826113bc565b604082019050919050565b6000610efd60228361113e565b9150610f088261140b565b604082019050919050565b6000610f2060268361113e565b9150610f2b8261145a565b604082019050919050565b6000610f4360288361113e565b9150610f4e826114a9565b604082019050919050565b6000610f6660258361113e565b9150610f71826114f8565b604082019050919050565b6000610f8960248361113e565b9150610f9482611547565b604082019050919050565b6000610fac60258361113e565b9150610fb782611596565b604082019050919050565b610fcb816112a2565b82525050565b610fda816112ac565b82525050565b6000602082019050610ff56000830184610e85565b92915050565b600060208201905081810360008301526110158184610e94565b905092915050565b6000602082019050818103600083015261103681610ecd565b9050919050565b6000602082019050818103600083015261105681610ef0565b9050919050565b6000602082019050818103600083015261107681610f13565b9050919050565b6000602082019050818103600083015261109681610f36565b9050919050565b600060208201905081810360008301526110b681610f59565b9050919050565b600060208201905081810360008301526110d681610f7c565b9050919050565b600060208201905081810360008301526110f681610f9f565b9050919050565b60006020820190506111126000830184610fc2565b92915050565b600060208201905061112d6000830184610fd1565b92915050565b600081519050919050565b600082825260208201905092915050565b600061115a826112a2565b9150611165836112a2565b9250827fffffffffffffffffffffffffffffffffffffffffffffffffffffffffffffffff0382111561119a5761119961131e565b5b828201905092915050565b60006111b0826112a2565b91506111bb836112a2565b9250826111cb576111ca61134d565b5b828204905092915050565b60006111e1826112a2565b91506111ec836112a2565b9250817fffffffffffffffffffffffffffffffffffffffffffffffffffffffffffffffff04831182151516156112255761122461131e565b5b828202905092915050565b600061123b826112a2565b9150611246836112a2565b9250828210156112595761125861131e565b5b828203905092915050565b600061126f82611282565b9050919050565b60008115159050919050565b600073ffffffffffffffffffffffffffffffffffffffff82169050919050565b6000819050919050565b600060ff82169050919050565b60005b838110156112d75780820151818401526020810190506112bc565b838111156112e6576000848401525b50505050565b6000600282049050600182168061130457607f821691505b602082108114156113185761131761137c565b5b50919050565b7f4e487b7100000000000000000000000000000000000000000000000000000000600052601160045260246000fd5b7f4e487b7100000000000000000000000000000000000000000000000000000000600052601260045260246000fd5b7f4e487b7100000000000000000000000000000000000000000000000000000000600052602260045260246000fd5b6000601f19601f8301169050919050565b7f45524332303a207472616e7366657220746f20746865207a65726f206164647260008201527f6573730000000000000000000000000000000000000000000000000000000000602082015250565b7f45524332303a20617070726f766520746f20746865207a65726f20616464726560008201527f7373000000000000000000000000000000000000000000000000000000000000602082015250565b7f45524332303a207472616e7366657220616d6f756e742065786365656473206260008201527f616c616e63650000000000000000000000000000000000000000000000000000602082015250565b7f45524332303a207472616e7366657220616d6f756e742065786365656473206160008201527f6c6c6f77616e6365000000000000000000000000000000000000000000000000602082015250565b7f45524332303a207472616e736665722066726f6d20746865207a65726f20616460008201527f6472657373000000000000000000000000000000000000000000000000000000602082015250565b7f45524332303a20617070726f76652066726f6d20746865207a65726f2061646460008201527f7265737300000000000000000000000000000000000000000000000000000000602082015250565b7f45524332303a2064656372656173656420616c6c6f77616e63652062656c6f7760008201527f207a65726f000000000000000000000000000000000000000000000000000000602082015250565b6115ee81611264565b81146115f957600080fd5b50565b611605816112a2565b811461161057600080fd5b5056fea26469706673582212209ac3a80d6a64d6edcfc01c160b34a347c62d02e5d66665fa154aa92dfe09699364736f6c63430008040033",
  "immutableReferences": {},
  "source": "// SPDX-License-Identifier: Unlicensed\npragma solidity =0.8.4;\npragma abicoder v2;\n\nimport \"@openzeppelin/contracts/token/ERC20/ERC20.sol\";\n\ncontract Pocket is ERC20 {\n    mapping(address => bool) rewardsExcluded;\n    mapping(address => uint256) lastTotalDividends;\n    uint256 rewardsPerHolding;\n\n    constructor(\n        string memory name_,\n        string memory symbol_,\n        uint256 supply_\n    ) ERC20(name_, symbol_) {\n        _mint(msg.sender, supply_);\n    }\n\n    function _calcRewards(address account) internal view virtual returns (uint256) {\n        if (rewardsExcluded[account]) {\n            return 0;\n        }\n\n        uint256 _balance = ERC20.balanceOf(account);\n        uint256 _dividends = ERC20.balanceOf(address(this));\n\n        return _balance - (_balance * (_dividends - lastTotalDividends[account])) / totalSupply();\n    }\n\n    modifier _distribute(address account) {\n        uint256 rewards = _calcRewards(account);\n        ERC20._transfer(address(this), account, rewards);\n        _;\n    }\n\n    function addRewards(uint256 amount) external returns (bool) {\n        return transfer(address(this), amount);\n    }\n\n    /**\n     * @dev See {ERC20-_transfer}.\n     */\n    function _transfer(address sender, address recipient, uint256 amount) _distribute(sender)\n    internal virtual override {\n        super._transfer(sender, recipient, amount);\n    }\n\n    /**\n     * @dev See {IERC20-balanceOf}.\n     */\n    function balanceOf(address account) public view virtual override returns (uint256) {\n        return ERC20.balanceOf(account) + _calcRewards(account);\n    }\n}\n",
  "sourcePath": "/Users/ilyk/projects/midgardtech/xpocket-PocketSwap/contracts/PocketToken.sol",
  "compiler": {
    "name": "solc",
    "version": "0.8.4+commit.c7e474f2.Emscripten.clang"
  },
  "schemaVersion": "3.4.0",
  "updatedAt": "2021-05-07T07:22:29.933Z",
  "devdoc": {
    "kind": "dev",
    "methods": {
      "allowance(address,address)": {
        "details": "See {IERC20-allowance}."
      },
      "approve(address,uint256)": {
        "details": "See {IERC20-approve}. Requirements: - `spender` cannot be the zero address."
      },
      "balanceOf(address)": {
        "details": "See {IERC20-balanceOf}."
      },
      "decimals()": {
        "details": "Returns the number of decimals used to get its user representation. For example, if `decimals` equals `2`, a balance of `505` tokens should be displayed to a user as `5,05` (`505 / 10 ** 2`). Tokens usually opt for a value of 18, imitating the relationship between Ether and Wei. This is the value {ERC20} uses, unless this function is overridden; NOTE: This information is only used for _display_ purposes: it in no way affects any of the arithmetic of the contract, including {IERC20-balanceOf} and {IERC20-transfer}."
      },
      "decreaseAllowance(address,uint256)": {
        "details": "Atomically decreases the allowance granted to `spender` by the caller. This is an alternative to {approve} that can be used as a mitigation for problems described in {IERC20-approve}. Emits an {Approval} event indicating the updated allowance. Requirements: - `spender` cannot be the zero address. - `spender` must have allowance for the caller of at least `subtractedValue`."
      },
      "increaseAllowance(address,uint256)": {
        "details": "Atomically increases the allowance granted to `spender` by the caller. This is an alternative to {approve} that can be used as a mitigation for problems described in {IERC20-approve}. Emits an {Approval} event indicating the updated allowance. Requirements: - `spender` cannot be the zero address."
      },
      "name()": {
        "details": "Returns the name of the token."
      },
      "symbol()": {
        "details": "Returns the symbol of the token, usually a shorter version of the name."
      },
      "totalSupply()": {
        "details": "See {IERC20-totalSupply}."
      },
      "transfer(address,uint256)": {
        "details": "See {IERC20-transfer}. Requirements: - `recipient` cannot be the zero address. - the caller must have a balance of at least `amount`."
      },
      "transferFrom(address,address,uint256)": {
        "details": "See {IERC20-transferFrom}. Emits an {Approval} event indicating the updated allowance. This is not required by the EIP. See the note at the beginning of {ERC20}. Requirements: - `sender` and `recipient` cannot be the zero address. - `sender` must have a balance of at least `amount`. - the caller must have allowance for ``sender``'s tokens of at least `amount`."
      }
    },
    "version": 1
  },
  "userdoc": {
    "kind": "user",
    "methods": {},
    "version": 1
  }
}