{
  "contractName": "PocketSwapRouter",
  "abi": [
    {
      "inputs": [
        {
          "internalType": "address",
          "name": "_factory",
          "type": "address"
        },
        {
          "internalType": "address",
          "name": "_WETH9",
          "type": "address"
        },
        {
          "internalType": "address",
          "name": "_pocketToken",
          "type": "address"
        }
      ],
      "stateMutability": "nonpayable",
      "type": "constructor"
    },
    {
      "inputs": [],
      "name": "WETH9",
      "outputs": [
        {
          "internalType": "address",
          "name": "",
          "type": "address"
        }
      ],
      "stateMutability": "view",
      "type": "function"
    },
    {
      "inputs": [
        {
          "components": [
            {
              "internalType": "address",
              "name": "token0",
              "type": "address"
            },
            {
              "internalType": "address",
              "name": "token1",
              "type": "address"
            },
            {
              "internalType": "address",
              "name": "recipient",
              "type": "address"
            },
            {
              "internalType": "uint256",
              "name": "amount0Desired",
              "type": "uint256"
            },
            {
              "internalType": "uint256",
              "name": "amount1Desired",
              "type": "uint256"
            },
            {
              "internalType": "uint256",
              "name": "amount0Min",
              "type": "uint256"
            },
            {
              "internalType": "uint256",
              "name": "amount1Min",
              "type": "uint256"
            },
            {
              "internalType": "uint256",
              "name": "deadline",
              "type": "uint256"
            }
          ],
          "internalType": "struct IPocketSwapLiquidityRouter.AddLiquidityParams",
          "name": "params",
          "type": "tuple"
        }
      ],
      "name": "addLiquidity",
      "outputs": [
        {
          "internalType": "uint256",
          "name": "amountA",
          "type": "uint256"
        },
        {
          "internalType": "uint256",
          "name": "amountB",
          "type": "uint256"
        },
        {
          "internalType": "uint256",
          "name": "amountPocket",
          "type": "uint256"
        },
        {
          "internalType": "uint256",
          "name": "liquidity",
          "type": "uint256"
        }
      ],
      "stateMutability": "payable",
      "type": "function"
    },
    {
      "inputs": [
        {
          "components": [
            {
              "internalType": "bytes",
              "name": "path",
              "type": "bytes"
            },
            {
              "internalType": "address",
              "name": "recipient",
              "type": "address"
            },
            {
              "internalType": "uint256",
              "name": "deadline",
              "type": "uint256"
            },
            {
              "internalType": "uint256",
              "name": "amountOut",
              "type": "uint256"
            },
            {
              "internalType": "uint256",
              "name": "amountInMaximum",
              "type": "uint256"
            }
          ],
          "internalType": "struct IPocketSwapRouter.OutputParams",
          "name": "params",
          "type": "tuple"
        }
      ],
      "name": "exactOutput",
      "outputs": [
        {
          "internalType": "uint256",
          "name": "amountIn",
          "type": "uint256"
        }
      ],
      "stateMutability": "payable",
      "type": "function"
    },
    {
      "inputs": [
        {
          "components": [
            {
              "internalType": "address",
              "name": "tokenIn",
              "type": "address"
            },
            {
              "internalType": "address",
              "name": "tokenOut",
              "type": "address"
            },
            {
              "internalType": "uint24",
              "name": "fee",
              "type": "uint24"
            },
            {
              "internalType": "address",
              "name": "recipient",
              "type": "address"
            },
            {
              "internalType": "uint256",
              "name": "deadline",
              "type": "uint256"
            },
            {
              "internalType": "uint256",
              "name": "amountOut",
              "type": "uint256"
            },
            {
              "internalType": "uint256",
              "name": "amountInMaximum",
              "type": "uint256"
            },
            {
              "internalType": "uint160",
              "name": "sqrtPriceLimitX96",
              "type": "uint160"
            }
          ],
          "internalType": "struct IPocketSwapRouter.OutputSingleParams",
          "name": "params",
          "type": "tuple"
        }
      ],
      "name": "exactOutputSingle",
      "outputs": [
        {
          "internalType": "uint256",
          "name": "amountIn",
          "type": "uint256"
        }
      ],
      "stateMutability": "payable",
      "type": "function"
    },
    {
      "inputs": [],
      "name": "factory",
      "outputs": [
        {
          "internalType": "address",
          "name": "",
          "type": "address"
        }
      ],
      "stateMutability": "view",
      "type": "function"
    },
    {
      "inputs": [
        {
          "internalType": "uint256",
          "name": "amountOut",
          "type": "uint256"
        },
        {
          "internalType": "uint256",
          "name": "reserveIn",
          "type": "uint256"
        },
        {
          "internalType": "uint256",
          "name": "reserveOut",
          "type": "uint256"
        }
      ],
      "name": "getAmountIn",
      "outputs": [
        {
          "internalType": "uint256",
          "name": "amountIn",
          "type": "uint256"
        }
      ],
      "stateMutability": "view",
      "type": "function"
    },
    {
      "inputs": [
        {
          "internalType": "uint256",
          "name": "amountIn",
          "type": "uint256"
        },
        {
          "internalType": "uint256",
          "name": "reserveIn",
          "type": "uint256"
        },
        {
          "internalType": "uint256",
          "name": "reserveOut",
          "type": "uint256"
        }
      ],
      "name": "getAmountOut",
      "outputs": [
        {
          "internalType": "uint256",
          "name": "amountOut",
          "type": "uint256"
        }
      ],
      "stateMutability": "view",
      "type": "function"
    },
    {
      "inputs": [
        {
          "internalType": "uint256",
          "name": "amountOut",
          "type": "uint256"
        },
        {
          "internalType": "address[]",
          "name": "path",
          "type": "address[]"
        }
      ],
      "name": "getAmountsIn",
      "outputs": [
        {
          "internalType": "uint256[]",
          "name": "amounts",
          "type": "uint256[]"
        }
      ],
      "stateMutability": "view",
      "type": "function"
    },
    {
      "inputs": [
        {
          "internalType": "uint256",
          "name": "amountIn",
          "type": "uint256"
        },
        {
          "internalType": "address[]",
          "name": "path",
          "type": "address[]"
        }
      ],
      "name": "getAmountsOut",
      "outputs": [
        {
          "internalType": "uint256[]",
          "name": "amounts",
          "type": "uint256[]"
        }
      ],
      "stateMutability": "view",
      "type": "function"
    },
    {
      "inputs": [
        {
          "internalType": "bytes[]",
          "name": "data",
          "type": "bytes[]"
        }
      ],
      "name": "multicall",
      "outputs": [
        {
          "internalType": "bytes[]",
          "name": "results",
          "type": "bytes[]"
        }
      ],
      "stateMutability": "payable",
      "type": "function"
    },
    {
      "inputs": [
        {
          "internalType": "address",
          "name": "tokenA",
          "type": "address"
        },
        {
          "internalType": "address",
          "name": "tokenB",
          "type": "address"
        }
      ],
      "name": "pairFor",
      "outputs": [
        {
          "internalType": "contract IPocketSwapPair",
          "name": "",
          "type": "address"
        }
      ],
      "stateMutability": "view",
      "type": "function"
    },
    {
      "inputs": [],
      "name": "pocket",
      "outputs": [
        {
          "internalType": "address",
          "name": "",
          "type": "address"
        }
      ],
      "stateMutability": "view",
      "type": "function"
    },
    {
      "inputs": [
        {
          "internalType": "uint256",
          "name": "amount0Delta",
          "type": "uint256"
        },
        {
          "internalType": "uint256",
          "name": "amount1Delta",
          "type": "uint256"
        },
        {
          "internalType": "bytes",
          "name": "_data",
          "type": "bytes"
        }
      ],
      "name": "pocketSwapCallback",
      "outputs": [],
      "stateMutability": "nonpayable",
      "type": "function"
    },
    {
      "inputs": [
        {
          "internalType": "uint256",
          "name": "amountA",
          "type": "uint256"
        },
        {
          "internalType": "uint256",
          "name": "reserveA",
          "type": "uint256"
        },
        {
          "internalType": "uint256",
          "name": "reserveB",
          "type": "uint256"
        }
      ],
      "name": "quote",
      "outputs": [
        {
          "internalType": "uint256",
          "name": "amountB",
          "type": "uint256"
        }
      ],
      "stateMutability": "pure",
      "type": "function"
    },
    {
      "inputs": [
        {
          "components": [
            {
              "internalType": "address",
              "name": "tokenA",
              "type": "address"
            },
            {
              "internalType": "address",
              "name": "tokenB",
              "type": "address"
            },
            {
              "internalType": "uint256",
              "name": "liquidity",
              "type": "uint256"
            },
            {
              "internalType": "uint256",
              "name": "amountAMin",
              "type": "uint256"
            },
            {
              "internalType": "uint256",
              "name": "amountBMin",
              "type": "uint256"
            },
            {
              "internalType": "address",
              "name": "rewards",
              "type": "address"
            },
            {
              "internalType": "address",
              "name": "recipient",
              "type": "address"
            },
            {
              "internalType": "uint256",
              "name": "deadline",
              "type": "uint256"
            }
          ],
          "internalType": "struct IPocketSwapLiquidityRouter.RemoveLiquidityParams",
          "name": "params",
          "type": "tuple"
        }
      ],
      "name": "removeLiquidity",
      "outputs": [
        {
          "internalType": "uint256",
          "name": "amountA",
          "type": "uint256"
        },
        {
          "internalType": "uint256",
          "name": "amountB",
          "type": "uint256"
        }
      ],
      "stateMutability": "payable",
      "type": "function"
    },
    {
      "inputs": [
        {
          "components": [
            {
              "internalType": "address",
              "name": "tokenIn",
              "type": "address"
            },
            {
              "internalType": "address",
              "name": "tokenOut",
              "type": "address"
            },
            {
              "internalType": "address",
              "name": "recipient",
              "type": "address"
            },
            {
              "internalType": "uint256",
              "name": "deadline",
              "type": "uint256"
            },
            {
              "internalType": "uint256",
              "name": "amountIn",
              "type": "uint256"
            },
            {
              "internalType": "uint256",
              "name": "amountOutMinimum",
              "type": "uint256"
            }
          ],
          "internalType": "struct IPocketSwapRouter.SwapParams",
          "name": "params",
          "type": "tuple"
        }
      ],
      "name": "swap",
      "outputs": [
        {
          "internalType": "uint256",
          "name": "amountOut",
          "type": "uint256"
        }
      ],
      "stateMutability": "payable",
      "type": "function"
    },
    {
      "inputs": [
        {
          "components": [
            {
              "internalType": "bytes",
              "name": "path",
              "type": "bytes"
            },
            {
              "internalType": "address",
              "name": "recipient",
              "type": "address"
            },
            {
              "internalType": "uint256",
              "name": "deadline",
              "type": "uint256"
            },
            {
              "internalType": "uint256",
              "name": "amountIn",
              "type": "uint256"
            },
            {
              "internalType": "uint256",
              "name": "amountOutMinimum",
              "type": "uint256"
            }
          ],
          "internalType": "struct IPocketSwapRouter.SwapMultiParams",
          "name": "params",
          "type": "tuple"
        }
      ],
      "name": "swapMulti",
      "outputs": [
        {
          "internalType": "uint256",
          "name": "amountOut",
          "type": "uint256"
        }
      ],
      "stateMutability": "payable",
      "type": "function"
    },
    {
      "inputs": [
        {
          "internalType": "address",
          "name": "token",
          "type": "address"
        },
        {
          "internalType": "uint256",
          "name": "amountMinimum",
          "type": "uint256"
        },
        {
          "internalType": "address",
          "name": "recipient",
          "type": "address"
        }
      ],
      "name": "sweepToken",
      "outputs": [],
      "stateMutability": "payable",
      "type": "function"
    },
    {
      "inputs": [
        {
          "internalType": "uint256",
          "name": "amountMinimum",
          "type": "uint256"
        },
        {
          "internalType": "address",
          "name": "recipient",
          "type": "address"
        }
      ],
      "name": "unwrapWETH9",
      "outputs": [],
      "stateMutability": "payable",
      "type": "function"
    },
    {
      "stateMutability": "payable",
      "type": "receive"
    }
  ],
  "bytecode": "0x60e06040526000196000553480156200001757600080fd5b5060405162004978380380620049788339810160408190526200003a916200007f565b6001600160601b0319606093841b811660805291831b821660a05290911b1660c052620000c8565b80516001600160a01b03811681146200007a57600080fd5b919050565b60008060006060848603121562000094578283fd5b6200009f8462000062565b9250620000af6020850162000062565b9150620000bf6040850162000062565b90509250925092565b60805160601c60a05160601c60c05160601c61472762000251600039600081816103f701528181610da801528181610de501528181610e5701528181610f46015281816111080152818161113e0152818161125a015281816112ef015281816113110152818161150a015281816115530152818161166b01528181611766015281816118430152818161186e015281816118af015281816118e501528181611a1f01528181611a70015281816130bd015281816130fa01528181613157015281816131d5015261331a0152600081816101580152818161027c015281816107a4015281816108b3015281816127d00152818161281901526128c70152600081816103c301528181610475015281816105f70152818161098501528181610ca901528181610d1501528181610e8401528181610f6e0152818161137e015281816114be015281816115fb015281816116f30152818161180f015281816119e601528181611c4001528181611dfc015281816121f501528181612b960152612dc001526147276000f3fe6080604052600436106101485760003560e01c80638d4d72e5116100c0578063cccef9e211610074578063db3e219811610059578063db3e219814610439578063df2ab5bb1461044d578063f28c04981461046057600080fd5b8063cccef9e2146103e5578063d06ca61f1461041957600080fd5b8063ac9650d8116100a5578063ac9650d814610371578063ad615dec14610391578063c45a0155146103b157600080fd5b80638d4d72e51461031e57806396ed28f91461035157600080fd5b806349404b7c116101175780636385a271116100fc5780636385a271146102b65780637936cd90146102de57806385f8c259146102fe57600080fd5b806349404b7c146102575780634aa4a4fc1461026a57600080fd5b8063054d50d4146101d157806313b51924146102045780631f00ca7414610217578063441a12de1461024457600080fd5b366101cc57336001600160a01b037f000000000000000000000000000000000000000000000000000000000000000016146101ca5760405162461bcd60e51b815260206004820152600960248201527f4e6f74205745544839000000000000000000000000000000000000000000000060448201526064015b60405180910390fd5b005b600080fd5b3480156101dd57600080fd5b506101f16101ec36600461427c565b61046e565b6040519081526020015b60405180910390f35b6101f1610212366004613fee565b6104a6565b34801561022357600080fd5b5061023761023236600461411e565b6105f0565b6040516101fb919061439c565b6101f161025236600461408e565b61061d565b6101ca6102653660046140fa565b610773565b34801561027657600080fd5b5061029e7f000000000000000000000000000000000000000000000000000000000000000081565b6040516001600160a01b0390911681526020016101fb565b6102c96102c4366004613f04565b610926565b604080519283526020830191909152016101fb565b3480156102ea57600080fd5b506101ca6102f9366004614201565b610c80565b34801561030a57600080fd5b506101f161031936600461427c565b611377565b61033161032c366004613f04565b6113a5565b6040805194855260208501939093529183015260608201526080016101fb565b34801561035d57600080fd5b5061029e61036c366004613d88565b611c39565b61038461037f366004613e01565b611c66565b6040516101fb919061431d565b34801561039d57600080fd5b506101f16103ac36600461427c565b611de8565b3480156103bd57600080fd5b5061029e7f000000000000000000000000000000000000000000000000000000000000000081565b3480156103f157600080fd5b5061029e7f000000000000000000000000000000000000000000000000000000000000000081565b34801561042557600080fd5b5061023761043436600461411e565b611df5565b6101f1610447366004613f04565b50600090565b6101ca61045b366004613dc0565b611e22565b6101f1610447366004613f20565b600061049c7f0000000000000000000000000000000000000000000000000000000000000000858585611f24565b90505b9392505050565b60008160400151806104b54290565b11156105035760405162461bcd60e51b815260206004820152601360248201527f5472616e73616374696f6e20746f6f206f6c640000000000000000000000000060448201526064016101c1565b60009150335b600061051885600001516120ef565b9050610562856060015182610531578660200151610533565b305b604051806040016040528061054b8a60000151612112565b8152602001866001600160a01b0316815250612132565b6060860152801561058257845130925061057b9061225b565b855261058f565b8460600151935050610595565b50610509565b83608001518310156105e95760405162461bcd60e51b815260206004820152601360248201527f546f6f206c6974746c652072656365697665640000000000000000000000000060448201526064016101c1565b5050919050565b606061049f7f0000000000000000000000000000000000000000000000000000000000000000848461226f565b60006060820135804211156106745760405162461bcd60e51b815260206004820152601360248201527f5472616e73616374696f6e20746f6f206f6c640000000000000000000000000060448201526064016101c1565b610717608084013561068c6060860160408701613d50565b60408051808201909152806106a46020890189613d50565b6106b460408a0160208b01613d50565b6040517fffffffffffffffffffffffffffffffffffffffff000000000000000000000000606093841b811660208301529190921b1660348201526048016040516020818303038152906040528152602001336001600160a01b0316815250612132565b91508260a0013582101561076d5760405162461bcd60e51b815260206004820152601360248201527f546f6f206c6974746c652072656365697665640000000000000000000000000060448201526064016101c1565b50919050565b6040517f70a082310000000000000000000000000000000000000000000000000000000081523060048201526000907f00000000000000000000000000000000000000000000000000000000000000006001600160a01b0316906370a082319060240160206040518083038186803b1580156107ee57600080fd5b505afa158015610802573d6000803e3d6000fd5b505050506040513d601f19601f8201168201806040525081019061082691906140e2565b9050821561087e578281101561087e5760405162461bcd60e51b815260206004820152601260248201527f496e73756666696369656e74205745544839000000000000000000000000000060448201526064016101c1565b8015610921576040517f2e1a7d4d000000000000000000000000000000000000000000000000000000008152600481018290527f00000000000000000000000000000000000000000000000000000000000000006001600160a01b031690632e1a7d4d90602401600060405180830381600087803b1580156108ff57600080fd5b505af1158015610913573d6000803e3d6000fd5b50505050610921828261245a565b505050565b60008060e08301358042111561097e5760405162461bcd60e51b815260206004820152601360248201527f5472616e73616374696f6e20746f6f206f6c640000000000000000000000000060448201526064016101c1565b60006109c67f00000000000000000000000000000000000000000000000000000000000000006109b16020880188613d50565b6109c16040890160208a01613d50565b612517565b604080517f23b872dd0000000000000000000000000000000000000000000000000000000081523360048201526001600160a01b03831660248201819052918801356044820152919250906323b872dd90606401602060405180830381600087803b158015610a3457600080fd5b505af1158015610a48573d6000803e3d6000fd5b505050506040513d601f19601f82011682018060405250810190610a6c9190613e71565b506000806001600160a01b0383166389afcb44610a8f60e08a0160c08b01613d50565b6040517fffffffff0000000000000000000000000000000000000000000000000000000060e084901b1681526001600160a01b0390911660048201526024016040805180830381600087803b158015610ae757600080fd5b505af1158015610afb573d6000803e3d6000fd5b505050506040513d601f19601f82011682018060405250810190610b1f91906141de565b90925090506000610b4b610b3660208a018a613d50565b610b4660408b0160208c01613d50565b612677565b5090506001600160a01b038116610b6560208a018a613d50565b6001600160a01b031614610b7a578183610b7d565b82825b90975095506060880135871015610bfc5760405162461bcd60e51b815260206004820152602760248201527f506f636b657453776170526f757465723a20494e53554646494349454e545f4160448201527f5f414d4f554e540000000000000000000000000000000000000000000000000060648201526084016101c1565b8760800135861015610c765760405162461bcd60e51b815260206004820152602760248201527f506f636b657453776170526f757465723a20494e53554646494349454e545f4260448201527f5f414d4f554e540000000000000000000000000000000000000000000000000060648201526084016101c1565b5050505050915091565b6000610c8e82840184613f58565b9050600080610ca08360000151612787565b91509150610ccf7f000000000000000000000000000000000000000000000000000000000000000083836127a8565b5060008060008911610cf657836001600160a01b0316836001600160a01b03161088610d0d565b826001600160a01b0316846001600160a01b031610895b9150915060007f00000000000000000000000000000000000000000000000000000000000000006001600160a01b03166346870d2b6040518163ffffffff1660e01b815260040160206040518083038186803b158015610d6c57600080fd5b505afa158015610d80573d6000803e3d6000fd5b505050506040513d601f19601f82011682018060405250810190610da491906140e2565b90507f00000000000000000000000000000000000000000000000000000000000000006001600160a01b0316856001600160a01b031614158015610e1a57507f00000000000000000000000000000000000000000000000000000000000000006001600160a01b0316846001600160a01b031614155b15611219576040517fe6a439050000000000000000000000000000000000000000000000000000000081526001600160a01b0380871660048301527f00000000000000000000000000000000000000000000000000000000000000008116602483015286916000917f0000000000000000000000000000000000000000000000000000000000000000169063e6a439059060440160206040518083038186803b158015610ec657600080fd5b505afa158015610eda573d6000803e3d6000fd5b505050506040513d601f19601f82011682018060405250810190610efe9190613d6c565b90506001600160a01b038116611043576040517fe6a439050000000000000000000000000000000000000000000000000000000081526001600160a01b0387811660048301527f0000000000000000000000000000000000000000000000000000000000000000811660248301527f0000000000000000000000000000000000000000000000000000000000000000169063e6a439059060440160206040518083038186803b158015610fb057600080fd5b505afa158015610fc4573d6000803e3d6000fd5b505050506040513d601f19601f82011682018060405250810190610fe89190613d6c565b86925090506001600160a01b0381166110435760405162461bcd60e51b815260206004820152600e60248201527f4e6f20504f434b4554207061697200000000000000000000000000000000000060448201526064016101c1565b6040517f70a08231000000000000000000000000000000000000000000000000000000008152336004820152600090633b9aca009085906001600160a01b038616906370a082319060240160206040518083038186803b1580156110a657600080fd5b505afa1580156110ba573d6000803e3d6000fd5b505050506040513d601f19601f820116820180604052508101906110de91906140e2565b6110e891906145bf565b6110f2919061459f565b9050611100833384846127cc565b600061112c847f0000000000000000000000000000000000000000000000000000000000000000612677565b509050600080826001600160a01b03167f00000000000000000000000000000000000000000000000000000000000000006001600160a01b03161461117357836000611177565b6000845b6040517f022c0d9f00000000000000000000000000000000000000000000000000000000815260048101839052602481018290526001600160a01b03898116604483015260806064830152600060848301529294509092509086169063022c0d9f9060a401600060405180830381600087803b1580156111f657600080fd5b505af115801561120a573d6000803e3d6000fd5b50505050505050505050611338565b6040517f70a08231000000000000000000000000000000000000000000000000000000008152336004820152600090633b9aca009083906001600160a01b037f000000000000000000000000000000000000000000000000000000000000000016906370a082319060240160206040518083038186803b15801561129c57600080fd5b505afa1580156112b0573d6000803e3d6000fd5b505050506040513d601f19601f820116820180604052508101906112d491906140e2565b6112de91906145bf565b6112e8919061459f565b90506113367f0000000000000000000000000000000000000000000000000000000000000000337f000000000000000000000000000000000000000000000000000000000000000084612981565b505b8215801561134c5750855161134c906120ef565b1561136b57855161135c9061225b565b8652611369823388612ad3565b505b50505050505050505050565b600061049c7f0000000000000000000000000000000000000000000000000000000000000000858585612bf2565b600080808060e0850135804211156113ff5760405162461bcd60e51b815260206004820152601360248201527f5472616e73616374696f6e20746f6f206f6c640000000000000000000000000060448201526064016101c1565b6000806114ad886060013589608001358a60a001358b60c0013560405180604001604052808e60000160208101906114379190613d50565b8f602001602081019061144a9190613d50565b6040517fffffffffffffffffffffffffffffffffffffffff000000000000000000000000606093841b811660208301529190921b1660348201526048016040516020818303038152906040528152602001336001600160a01b0316815250612db6565b9299509097509250905060006114fa7f00000000000000000000000000000000000000000000000000000000000000006114ea60208c018c613d50565b6109c160408d0160208e01613d50565b6000965090506001600160a01b037f00000000000000000000000000000000000000000000000000000000000000001661153760208b018b613d50565b6001600160a01b03161415801561158f57506001600160a01b037f00000000000000000000000000000000000000000000000000000000000000001661158360408b0160208c01613d50565b6001600160a01b031614155b15611b495760008311806115a35750600082115b6115ef5760405162461bcd60e51b815260206004820152601d60248201527f43616e6e6f742063616c63756c61746520504f434b45542076616c756500000060448201526064016101c1565b60006001600160a01b037f00000000000000000000000000000000000000000000000000000000000000001663e6a4390561162d60208d018d613d50565b60405160e083901b7fffffffff000000000000000000000000000000000000000000000000000000001681526001600160a01b0391821660048201527f0000000000000000000000000000000000000000000000000000000000000000909116602482015260440160206040518083038186803b1580156116ad57600080fd5b505afa1580156116c1573d6000803e3d6000fd5b505050506040513d601f19601f820116820180604052508101906116e59190613d6c565b905060006001600160a01b037f00000000000000000000000000000000000000000000000000000000000000001663e6a4390561172860408e0160208f01613d50565b60405160e083901b7fffffffff000000000000000000000000000000000000000000000000000000001681526001600160a01b0391821660048201527f0000000000000000000000000000000000000000000000000000000000000000909116602482015260440160206040518083038186803b1580156117a857600080fd5b505afa1580156117bc573d6000803e3d6000fd5b505050506040513d601f19601f820116820180604052508101906117e09190613d6c565b905084156119bf57849750600060028b6117fa919061459f565b9050611806818c6145fc565b9a5060006118677f00000000000000000000000000000000000000000000000000000000000000008e60000160208101906118419190613d50565b7f0000000000000000000000000000000000000000000000000000000000000000612517565b90506118957f000000000000000000000000000000000000000000000000000000000000000033838d6127cc565b60006118d38e60000160208101906118ad9190613d50565b7f0000000000000000000000000000000000000000000000000000000000000000612677565b509050600080826001600160a01b03167f00000000000000000000000000000000000000000000000000000000000000006001600160a01b03161461191a5784600061191e565b6000855b6040517f022c0d9f00000000000000000000000000000000000000000000000000000000815260048101839052602481018290526001600160a01b038b8116604483015260806064830152600060848301529294509092509085169063022c0d9f9060a401600060405180830381600087803b15801561199d57600080fd5b505af11580156119b1573d6000803e3d6000fd5b505050505050505050611b46565b839750600060028a6119d1919061459f565b90506119dd818b6145fc565b99506000611a187f00000000000000000000000000000000000000000000000000000000000000008e60200160208101906118419190613d50565b9050611a467f000000000000000000000000000000000000000000000000000000000000000033838d6127cc565b6000611a5e8e60200160208101906118ad9190613d50565b509050600080826001600160a01b03167f00000000000000000000000000000000000000000000000000000000000000006001600160a01b031614611aa557846000611aa9565b6000855b6040517f022c0d9f00000000000000000000000000000000000000000000000000000000815260048101839052602481018290526001600160a01b038b8116604483015260806064830152600060848301529294509092509085169063022c0d9f9060a401600060405180830381600087803b158015611b2857600080fd5b505af1158015611b3c573d6000803e3d6000fd5b5050505050505050505b50505b611b61611b5960208b018b613d50565b33838b6127cc565b611b7c611b7460408b0160208c01613d50565b33838a6127cc565b6001600160a01b038116636a627842611b9b60608c0160408d01613d50565b6040517fffffffff0000000000000000000000000000000000000000000000000000000060e084901b1681526001600160a01b039091166004820152602401602060405180830381600087803b158015611bf457600080fd5b505af1158015611c08573d6000803e3d6000fd5b505050506040513d601f19601f82011682018060405250810190611c2c91906140e2565b9450505050509193509193565b600061049f7f00000000000000000000000000000000000000000000000000000000000000008484612517565b60608167ffffffffffffffff811115611c8f57634e487b7160e01b600052604160045260246000fd5b604051908082528060200260200182016040528015611cc257816020015b6060815260200190600190039081611cad5790505b50905060005b82811015611de15760008030868685818110611cf457634e487b7160e01b600052603260045260246000fd5b9050602002810190611d069190614466565b604051611d149291906142f1565b600060405180830381855af49150503d8060008114611d4f576040519150601f19603f3d011682016040523d82523d6000602084013e611d54565b606091505b509150915081611da057604481511015611d6d57600080fd5b60048101905080806020019051810190611d879190613e91565b60405162461bcd60e51b81526004016101c191906143e0565b80848481518110611dc157634e487b7160e01b600052603260045260246000fd5b602002602001018190525050508080611dd990614674565b915050611cc8565b5092915050565b600061049c84848461343d565b606061049f7f0000000000000000000000000000000000000000000000000000000000000000848461354b565b6040517f70a082310000000000000000000000000000000000000000000000000000000081523060048201526000906001600160a01b038516906370a082319060240160206040518083038186803b158015611e7d57600080fd5b505afa158015611e91573d6000803e3d6000fd5b505050506040513d601f19601f82011682018060405250810190611eb591906140e2565b90508215611f0d5782811015611f0d5760405162461bcd60e51b815260206004820152601260248201527f496e73756666696369656e7420746f6b656e000000000000000000000000000060448201526064016101c1565b8015611f1e57611f1e848383613716565b50505050565b6000808411611f9b5760405162461bcd60e51b815260206004820152602c60248201527f506f636b6574537761704c6962726172793a20494e53554646494349454e545f60448201527f494e5055545f414d4f554e54000000000000000000000000000000000000000060648201526084016101c1565b600083118015611fab5750600082115b61201d5760405162461bcd60e51b815260206004820152602960248201527f506f636b6574537761704c6962726172793a20494e53554646494349454e545f60448201527f4c4951554944495459000000000000000000000000000000000000000000000060648201526084016101c1565b6000856001600160a01b031663ddca3f436040518163ffffffff1660e01b815260040160206040518083038186803b15801561205857600080fd5b505afa15801561206c573d6000803e3d6000fd5b505050506040513d601f19601f8201168201806040525081019061209091906140e2565b905060006120ac6120a583633b9aca006145fc565b8790613858565b905060006120ba8286613858565b905060006120d6836120d089633b9aca00613858565b90613864565b90506120e2818361459f565b9998505050505050505050565b600060146120fd8180614587565b6121079190614587565b825110159050919050565b606061212c6000612124601480614587565b849190613870565b92915050565b60008060006121448460000151612787565b60408051600280825260608201835293955091935060009290602083019080368337019050509050828160008151811061218e57634e487b7160e01b600052603260045260246000fd5b60200260200101906001600160a01b031690816001600160a01b03168152505081816001815181106121d057634e487b7160e01b600052603260045260246000fd5b60200260200101906001600160a01b031690816001600160a01b03168152505061221b7f0000000000000000000000000000000000000000000000000000000000000000888361354b565b60018151811061223b57634e487b7160e01b600052603260045260246000fd5b6020026020010151935061225186888688613a0f565b5050509392505050565b606061212c601480845161212491906145fc565b60606002825110156122c35760405162461bcd60e51b815260206004820152601f60248201527f506f636b6574537761704c6962726172793a20494e56414c49445f504154480060448201526064016101c1565b815167ffffffffffffffff8111156122eb57634e487b7160e01b600052604160045260246000fd5b604051908082528060200260200182016040528015612314578160200160208202803683370190505b50905082816001835161232791906145fc565b8151811061234557634e487b7160e01b600052603260045260246000fd5b60200260200101818152505060006001835161236191906145fc565b90505b8015612452576000806123d0878661237d6001876145fc565b8151811061239b57634e487b7160e01b600052603260045260246000fd5b60200260200101518786815181106123c357634e487b7160e01b600052603260045260246000fd5b6020026020010151613b07565b91509150612407878585815181106123f857634e487b7160e01b600052603260045260246000fd5b60200260200101518484612bf2565b846124136001866145fc565b8151811061243157634e487b7160e01b600052603260045260246000fd5b6020026020010181815250505050808061244a9061463f565b915050612364565b509392505050565b604080516000808252602082019092526001600160a01b0384169083906040516124849190614301565b60006040518083038185875af1925050503d80600081146124c1576040519150601f19603f3d011682016040523d82523d6000602084013e6124c6565b606091505b50509050806109215760405162461bcd60e51b815260206004820152600360248201527f535445000000000000000000000000000000000000000000000000000000000060448201526064016101c1565b6000816001600160a01b0316836001600160a01b03161115612537579091905b6040517fffffffffffffffffffffffffffffffffffffffff000000000000000000000000606085811b8216602084015284901b1660348201528490604801604080517fffffffffffffffffffffffffffffffffffffffffffffffffffffffffffffffe0818403018152908290528051602091820120612639939290917fac9f3ee7fdba6668fc5706c3e12533c6d503fae7e21926c6dd7bcab887882d2991017fff00000000000000000000000000000000000000000000000000000000000000815260609390931b7fffffffffffffffffffffffffffffffffffffffff0000000000000000000000001660018401526015830191909152603582015260550190565b604080517fffffffffffffffffffffffffffffffffffffffffffffffffffffffffffffffe08184030181529190528051602090910120949350505050565b600080826001600160a01b0316846001600160a01b031614156127025760405162461bcd60e51b815260206004820152602660248201527f506f636b6574537761704c6962726172793a204944454e544943414c5f41444460448201527f524553534553000000000000000000000000000000000000000000000000000060648201526084016101c1565b826001600160a01b0316846001600160a01b031610612722578284612725565b83835b90925090506001600160a01b0382166127805760405162461bcd60e51b815260206004820152601f60248201527f506f636b6574537761704c6962726172793a205a45524f5f414444524553530060448201526064016101c1565b9250929050565b6000806127948382613bee565b91506127a1836014613bee565b9050915091565b60006127b5848484612517565b9050336001600160a01b0382161461049f57600080fd5b60007f00000000000000000000000000000000000000000000000000000000000000006001600160a01b0316856001600160a01b03161480156128125750814791508110155b1561294d577f00000000000000000000000000000000000000000000000000000000000000006001600160a01b031663d0e30db0826040518263ffffffff1660e01b81526004016000604051808303818588803b15801561287257600080fd5b505af1158015612886573d6000803e3d6000fd5b50506040517fa9059cbb0000000000000000000000000000000000000000000000000000000081526001600160a01b038781166004830152602482018790527f000000000000000000000000000000000000000000000000000000000000000016935063a9059cbb92506044019050602060405180830381600087803b15801561290f57600080fd5b505af1158015612923573d6000803e3d6000fd5b505050506040513d601f19601f820116820180604052508101906129479190613e71565b5061297a565b6001600160a01b03841630141561296e57612969858484613716565b61297a565b61297a85858585612981565b5050505050565b604080516001600160a01b0385811660248301528481166044830152606480830185905283518084039091018152608490920183526020820180517bffffffffffffffffffffffffffffffffffffffffffffffffffffffff167f23b872dd000000000000000000000000000000000000000000000000000000001790529151600092839290881691612a139190614301565b6000604051808303816000865af19150503d8060008114612a50576040519150601f19603f3d011682016040523d82523d6000602084013e612a55565b606091505b5091509150818015612a7f575080511580612a7f575080806020019051810190612a7f9190613e71565b612acb5760405162461bcd60e51b815260206004820152600360248201527f535446000000000000000000000000000000000000000000000000000000000060448201526064016101c1565b505050505050565b6000806000612ae58460000151612787565b604080516002808252606082018352939550919350600092906020830190803683370190505090508181600081518110612b2f57634e487b7160e01b600052603260045260246000fd5b60200260200101906001600160a01b031690816001600160a01b0316815250508281600181518110612b7157634e487b7160e01b600052603260045260246000fd5b60200260200101906001600160a01b031690816001600160a01b031681525050612bbc7f0000000000000000000000000000000000000000000000000000000000000000888361226f565b600081518110612bdc57634e487b7160e01b600052603260045260246000fd5b6020026020010151935061225186858988613a0f565b6000808411612c695760405162461bcd60e51b815260206004820152602d60248201527f506f636b6574537761704c6962726172793a20494e53554646494349454e545f60448201527f4f55545055545f414d4f554e540000000000000000000000000000000000000060648201526084016101c1565b600083118015612c795750600082115b612ceb5760405162461bcd60e51b815260206004820152602960248201527f506f636b6574537761704c6962726172793a20494e53554646494349454e545f60448201527f4c4951554944495459000000000000000000000000000000000000000000000060648201526084016101c1565b6000856001600160a01b031663ddca3f436040518163ffffffff1660e01b815260040160206040518083038186803b158015612d2657600080fd5b505afa158015612d3a573d6000803e3d6000fd5b505050506040513d601f19601f82011682018060405250810190612d5e91906140e2565b90506000612d7a633b9aca00612d748789613858565b90613858565b90506000612d99612d8f84633b9aca006145fc565b612d74878a613cbe565b9050612daa60016120d0838561459f565b98975050505050505050565b60008060008060007f00000000000000000000000000000000000000000000000000000000000000009050600080612df18860000151612787565b6040517fe6a439050000000000000000000000000000000000000000000000000000000081526001600160a01b038084166004830152808316602483015292945090925060009185169063e6a439059060440160206040518083038186803b158015612e5c57600080fd5b505afa158015612e70573d6000803e3d6000fd5b505050506040513d601f19601f82011682018060405250810190612e949190613d6c565b6001600160a01b03161415612f41576040517fc9c653960000000000000000000000000000000000000000000000000000000081526001600160a01b038381166004830152828116602483015284169063c9c6539690604401602060405180830381600087803b158015612f0757600080fd5b505af1158015612f1b573d6000803e3d6000fd5b505050506040513d601f19601f82011682018060405250810190612f3f9190613d6c565b505b600080612f4f858585613b07565b91509150816000148015612f61575080155b15612f71578d98508c97506130b3565b6000612f7e8f848461343d565b90508d8111613008578b811015612ffd5760405162461bcd60e51b815260206004820152602760248201527f506f636b657453776170526f757465723a20494e53554646494349454e545f4260448201527f5f414d4f554e540000000000000000000000000000000000000000000000000060648201526084016101c1565b8e99509750876130b1565b60006130158f848661343d565b90508f81111561303557634e487b7160e01b600052600160045260246000fd5b8d8110156130ab5760405162461bcd60e51b815260206004820152602760248201527f506f636b657453776170526f757465723a20494e53554646494349454e545f4160448201527f5f414d4f554e540000000000000000000000000000000000000000000000000060648201526084016101c1565b99508d98505b505b60009650600095507f00000000000000000000000000000000000000000000000000000000000000006001600160a01b0316846001600160a01b03161415801561312f57507f00000000000000000000000000000000000000000000000000000000000000006001600160a01b0316836001600160a01b031614155b1561342c576040805160028082526060820183526000926020830190803683370190505090507f00000000000000000000000000000000000000000000000000000000000000008160008151811061319757634e487b7160e01b600052603260045260246000fd5b6001600160a01b0392831660209182029290920101526040517fe6a439050000000000000000000000000000000000000000000000000000000081527f000000000000000000000000000000000000000000000000000000000000000082166004820152868216602482015260009188169063e6a439059060440160206040518083038186803b15801561322a57600080fd5b505afa15801561323e573d6000803e3d6000fd5b505050506040513d601f19601f820116820180604052508101906132629190613d6c565b6001600160a01b0316146132ea57848160018151811061329257634e487b7160e01b600052603260045260246000fd5b6001600160a01b03909216602092830291909101909101526132bf866132b960028d61459f565b8361226f565b6000815181106132df57634e487b7160e01b600052603260045260246000fd5b602002602001015197505b6040517fe6a439050000000000000000000000000000000000000000000000000000000081526001600160a01b037f00000000000000000000000000000000000000000000000000000000000000008116600483015285811660248301526000919088169063e6a439059060440160206040518083038186803b15801561337057600080fd5b505afa158015613384573d6000803e3d6000fd5b505050506040513d601f19601f820116820180604052508101906133a89190613d6c565b6001600160a01b03161461342a5783816001815181106133d857634e487b7160e01b600052603260045260246000fd5b6001600160a01b03909216602092830291909101909101526133ff866132b960028c61459f565b60008151811061341f57634e487b7160e01b600052603260045260246000fd5b602002602001015196505b505b505050505095509550955095915050565b60008084116134b45760405162461bcd60e51b815260206004820152602660248201527f506f636b6574537761704c6962726172793a20494e53554646494349454e545f60448201527f414d4f554e54000000000000000000000000000000000000000000000000000060648201526084016101c1565b6000831180156134c45750600082115b6135365760405162461bcd60e51b815260206004820152602960248201527f506f636b6574537761704c6962726172793a20494e53554646494349454e545f60448201527f4c4951554944495459000000000000000000000000000000000000000000000060648201526084016101c1565b826135418584613858565b61049c919061459f565b606060028251101561359f5760405162461bcd60e51b815260206004820152601f60248201527f506f636b6574537761704c6962726172793a20494e56414c49445f504154480060448201526064016101c1565b815167ffffffffffffffff8111156135c757634e487b7160e01b600052604160045260246000fd5b6040519080825280602002602001820160405280156135f0578160200160208202803683370190505b509050828160008151811061361557634e487b7160e01b600052603260045260246000fd5b60200260200101818152505060005b6001835161363291906145fc565b811015612452576000806136948786858151811061366057634e487b7160e01b600052603260045260246000fd5b6020026020010151878660016136769190614587565b815181106123c357634e487b7160e01b600052603260045260246000fd5b915091506136cb878585815181106136bc57634e487b7160e01b600052603260045260246000fd5b60200260200101518484611f24565b846136d7856001614587565b815181106136f557634e487b7160e01b600052603260045260246000fd5b6020026020010181815250505050808061370e90614674565b915050613624565b604080516001600160a01b038481166024830152604480830185905283518084039091018152606490920183526020820180517bffffffffffffffffffffffffffffffffffffffffffffffffffffffff167fa9059cbb0000000000000000000000000000000000000000000000000000000017905291516000928392908716916137a09190614301565b6000604051808303816000865af19150503d80600081146137dd576040519150601f19603f3d011682016040523d82523d6000602084013e6137e2565b606091505b509150915081801561380c57508051158061380c57508080602001905181019061380c9190613e71565b61297a5760405162461bcd60e51b815260206004820152600260248201527f535400000000000000000000000000000000000000000000000000000000000060448201526064016101c1565b600061049f82846145bf565b600061049f8284614587565b60608161387e81601f614587565b10156138cc5760405162461bcd60e51b815260206004820152600e60248201527f736c6963655f6f766572666c6f7700000000000000000000000000000000000060448201526064016101c1565b826138d78382614587565b10156139255760405162461bcd60e51b815260206004820152600e60248201527f736c6963655f6f766572666c6f7700000000000000000000000000000000000060448201526064016101c1565b61392f8284614587565b8451101561397f5760405162461bcd60e51b815260206004820152601160248201527f736c6963655f6f75744f66426f756e647300000000000000000000000000000060448201526064016101c1565b60608215801561399e5760405191506000825260208201604052613a06565b6040519150601f8416801560200281840101858101878315602002848b0101015b818310156139d75780518352602092830192016139bf565b5050858452601f017fffffffffffffffffffffffffffffffffffffffffffffffffffffffffffffffe016604052505b50949350505050565b600080613a1f8360000151612787565b915091506000613a2f8383611c39565b9050613a3d833383896127cc565b6000613a498484612677565b509050600080826001600160a01b0316866001600160a01b031614613a7057876000613a74565b6000885b91509150836001600160a01b031663022c0d9f83838d8b604051602001613a9b91906143f3565b6040516020818303038152906040526040518563ffffffff1660e01b8152600401613ac9949392919061442e565b600060405180830381600087803b158015613ae357600080fd5b505af1158015613af7573d6000803e3d6000fd5b5050505050505050505050505050565b6000806000613b168585612677565b509050600080613b27888888612517565b6001600160a01b0316630902f1ac6040518163ffffffff1660e01b815260040160606040518083038186803b158015613b5f57600080fd5b505afa158015613b73573d6000803e3d6000fd5b505050506040513d601f19601f82011682018060405250810190613b97919061409f565b506dffffffffffffffffffffffffffff1691506dffffffffffffffffffffffffffff169150826001600160a01b0316876001600160a01b031614613bdc578082613bdf565b81815b90999098509650505050505050565b600081613bfc816014614587565b1015613c4a5760405162461bcd60e51b815260206004820152601260248201527f746f416464726573735f6f766572666c6f77000000000000000000000000000060448201526064016101c1565b613c55826014614587565b83511015613ca55760405162461bcd60e51b815260206004820152601560248201527f746f416464726573735f6f75744f66426f756e6473000000000000000000000060448201526064016101c1565b5001602001516c01000000000000000000000000900490565b600061049f82846145fc565b600082601f830112613cda578081fd5b8135613ced613ce882614541565b6144f2565b818152846020838601011115613d01578283fd5b816020850160208301379081016020019190915292915050565b6000610100828403121561076d578081fd5b80516dffffffffffffffffffffffffffff81168114613d4b57600080fd5b919050565b600060208284031215613d61578081fd5b813561049f816146d9565b600060208284031215613d7d578081fd5b815161049f816146d9565b60008060408385031215613d9a578081fd5b8235613da5816146d9565b91506020830135613db5816146d9565b809150509250929050565b600080600060608486031215613dd4578081fd5b8335613ddf816146d9565b9250602084013591506040840135613df6816146d9565b809150509250925092565b60008060208385031215613e13578182fd5b823567ffffffffffffffff80821115613e2a578384fd5b818501915085601f830112613e3d578384fd5b813581811115613e4b578485fd5b8660208260051b8501011115613e5f578485fd5b60209290920196919550909350505050565b600060208284031215613e82578081fd5b8151801515811461049f578182fd5b600060208284031215613ea2578081fd5b815167ffffffffffffffff811115613eb8578182fd5b8201601f81018413613ec8578182fd5b8051613ed6613ce882614541565b818152856020838501011115613eea578384fd5b613efb826020830160208601614613565b95945050505050565b60006101008284031215613f16578081fd5b61049f8383613d1b565b600060208284031215613f31578081fd5b813567ffffffffffffffff811115613f47578182fd5b820160a0818503121561049f578182fd5b600060208284031215613f69578081fd5b813567ffffffffffffffff80821115613f80578283fd5b9083019060408286031215613f93578283fd5b604051604081018181108382111715613fae57613fae6146c3565b604052823582811115613fbf578485fd5b613fcb87828601613cca565b82525060208301359250613fde836146d9565b6020810192909252509392505050565b600060208284031215613fff578081fd5b813567ffffffffffffffff80821115614016578283fd5b9083019060a08286031215614029578283fd5b6140316144c9565b82358281111561403f578485fd5b61404b87828601613cca565b8252506020830135915061405e826146d9565b81602082015260408301356040820152606083013560608201526080830135608082015280935050505092915050565b600060c0828403121561076d578081fd5b6000806000606084860312156140b3578081fd5b6140bc84613d2d565b92506140ca60208501613d2d565b9150604084015163ffffffff81168114613df6578182fd5b6000602082840312156140f3578081fd5b5051919050565b6000806040838503121561410c578182fd5b823591506020830135613db5816146d9565b60008060408385031215614130578182fd5b8235915060208084013567ffffffffffffffff8082111561414f578384fd5b818601915086601f830112614162578384fd5b813581811115614174576141746146c3565b8060051b91506141858483016144f2565b8181528481019084860184860187018b101561419f578788fd5b8795505b838610156141cd57803594506141b8856146d9565b848352600195909501949186019186016141a3565b508096505050505050509250929050565b600080604083850312156141f0578182fd5b505080516020909101519092909150565b60008060008060608587031215614216578182fd5b8435935060208501359250604085013567ffffffffffffffff8082111561423b578384fd5b818701915087601f83011261424e578384fd5b81358181111561425c578485fd5b88602082850101111561426d578485fd5b95989497505060200194505050565b600080600060608486031215614290578081fd5b505081359360208301359350604090920135919050565b600081518084526142bf816020860160208601614613565b601f017fffffffffffffffffffffffffffffffffffffffffffffffffffffffffffffffe0169290920160200192915050565b8183823760009101908152919050565b60008251614313818460208701614613565b9190910192915050565b6000602080830181845280855180835260408601915060408160051b8701019250838701855b8281101561438f577fffffffffffffffffffffffffffffffffffffffffffffffffffffffffffffffc088860301845261437d8583516142a7565b94509285019290850190600101614343565b5092979650505050505050565b6020808252825182820181905260009190848201906040850190845b818110156143d4578351835292840192918401916001016143b8565b50909695505050505050565b60208152600061049f60208301846142a7565b60208152600082516040602084015261440f60608401826142a7565b90506001600160a01b0360208501511660408401528091505092915050565b8481528360208201526001600160a01b038316604082015260806060820152600061445c60808301846142a7565b9695505050505050565b60008083357fffffffffffffffffffffffffffffffffffffffffffffffffffffffffffffffe184360301811261449a578283fd5b83018035915067ffffffffffffffff8211156144b4578283fd5b60200191503681900382131561278057600080fd5b60405160a0810167ffffffffffffffff811182821017156144ec576144ec6146c3565b60405290565b604051601f82017fffffffffffffffffffffffffffffffffffffffffffffffffffffffffffffffe016810167ffffffffffffffff81118282101715614539576145396146c3565b604052919050565b600067ffffffffffffffff82111561455b5761455b6146c3565b50601f017fffffffffffffffffffffffffffffffffffffffffffffffffffffffffffffffe01660200190565b6000821982111561459a5761459a6146ad565b500190565b6000826145ba57634e487b7160e01b81526012600452602481fd5b500490565b6000817fffffffffffffffffffffffffffffffffffffffffffffffffffffffffffffffff04831182151516156145f7576145f76146ad565b500290565b60008282101561460e5761460e6146ad565b500390565b60005b8381101561462e578181015183820152602001614616565b83811115611f1e5750506000910152565b60008161464e5761464e6146ad565b507fffffffffffffffffffffffffffffffffffffffffffffffffffffffffffffffff0190565b60007fffffffffffffffffffffffffffffffffffffffffffffffffffffffffffffffff8214156146a6576146a66146ad565b5060010190565b634e487b7160e01b600052601160045260246000fd5b634e487b7160e01b600052604160045260246000fd5b6001600160a01b03811681146146ee57600080fd5b5056fea2646970667358221220fd2b8a10db5d3c4fb8986156f5dc6bb5213964ca89b4c063ed8b7ca3db9f770664736f6c63430008040033",
  "immutableReferences": {
    "3188": [
      {
        "length": 32,
        "start": 963
      },
      {
        "length": 32,
        "start": 1141
      },
      {
        "length": 32,
        "start": 1527
      },
      {
        "length": 32,
        "start": 2437
      },
      {
        "length": 32,
        "start": 3241
      },
      {
        "length": 32,
        "start": 3349
      },
      {
        "length": 32,
        "start": 3716
      },
      {
        "length": 32,
        "start": 3950
      },
      {
        "length": 32,
        "start": 4990
      },
      {
        "length": 32,
        "start": 5310
      },
      {
        "length": 32,
        "start": 5627
      },
      {
        "length": 32,
        "start": 5875
      },
      {
        "length": 32,
        "start": 6159
      },
      {
        "length": 32,
        "start": 6630
      },
      {
        "length": 32,
        "start": 7232
      },
      {
        "length": 32,
        "start": 7676
      },
      {
        "length": 32,
        "start": 8693
      },
      {
        "length": 32,
        "start": 11158
      },
      {
        "length": 32,
        "start": 11712
      }
    ],
    "3192": [
      {
        "length": 32,
        "start": 344
      },
      {
        "length": 32,
        "start": 636
      },
      {
        "length": 32,
        "start": 1956
      },
      {
        "length": 32,
        "start": 2227
      },
      {
        "length": 32,
        "start": 10192
      },
      {
        "length": 32,
        "start": 10265
      },
      {
        "length": 32,
        "start": 10439
      }
    ],
    "3196": [
      {
        "length": 32,
        "start": 1015
      },
      {
        "length": 32,
        "start": 3496
      },
      {
        "length": 32,
        "start": 3557
      },
      {
        "length": 32,
        "start": 3671
      },
      {
        "length": 32,
        "start": 3910
      },
      {
        "length": 32,
        "start": 4360
      },
      {
        "length": 32,
        "start": 4414
      },
      {
        "length": 32,
        "start": 4698
      },
      {
        "length": 32,
        "start": 4847
      },
      {
        "length": 32,
        "start": 4881
      },
      {
        "length": 32,
        "start": 5386
      },
      {
        "length": 32,
        "start": 5459
      },
      {
        "length": 32,
        "start": 5739
      },
      {
        "length": 32,
        "start": 5990
      },
      {
        "length": 32,
        "start": 6211
      },
      {
        "length": 32,
        "start": 6254
      },
      {
        "length": 32,
        "start": 6319
      },
      {
        "length": 32,
        "start": 6373
      },
      {
        "length": 32,
        "start": 6687
      },
      {
        "length": 32,
        "start": 6768
      },
      {
        "length": 32,
        "start": 12477
      },
      {
        "length": 32,
        "start": 12538
      },
      {
        "length": 32,
        "start": 12631
      },
      {
        "length": 32,
        "start": 12757
      },
      {
        "length": 32,
        "start": 13082
      }
    ]
  },
  "source": "// SPDX-License-Identifier: Unlicensed\npragma solidity =0.8.4;\npragma abicoder v2;\n\nimport \"./SwapRouter.sol\";\nimport \"./LiquidityRouter.sol\";\nimport \"./abstract/PeripheryImmutableState.sol\";\n\ncontract PocketSwapRouter is\nPeripheryImmutableState,\nPeripheryValidation,\nSwapRouter,\nLiquidityRouter\n{\n    constructor(address _factory, address _WETH9, address _pocketToken)\n    PeripheryImmutableState(_factory, _WETH9, _pocketToken) {}\n}",
  "sourcePath": "/Users/ilyk/projects/midgardtech/xpocket-PocketSwap/contracts/pocketswap/PocketSwapRouter.sol",
  "compiler": {
    "name": "solc",
    "version": "0.8.4+commit.c7e474f2.Emscripten.clang"
  },
  "schemaVersion": "3.4.0",
  "updatedAt": "2021-05-10T12:17:02.514Z",
  "devdoc": {
    "kind": "dev",
    "methods": {
      "exactOutput((bytes,address,uint256,uint256,uint256))": {
        "params": {
          "params": "The parameters necessary for the multi-hop swap, encoded as `OutputParams` in calldata"
        },
        "returns": {
          "amountIn": "The amount of the input token"
        }
      },
      "exactOutputSingle((address,address,uint24,address,uint256,uint256,uint256,uint160))": {
        "params": {
          "params": "The parameters necessary for the swap, encoded as `OutputSingleParams` in calldata"
        },
        "returns": {
          "amountIn": "The amount of the input token"
        }
      },
      "multicall(bytes[])": {
        "details": "The `msg.value` should not be trusted for any method callable from multicall.",
        "params": {
          "data": "The encoded function data for each of the calls to make to this contract"
        },
        "returns": {
          "results": "The results from each of the calls passed in via data"
        }
      },
      "swap((address,address,address,uint256,uint256,uint256))": {
        "params": {
          "params": "The parameters necessary for the swap, encoded as `SwapParams` in calldata"
        },
        "returns": {
          "amountOut": "The amount of the received token"
        }
      },
      "swapMulti((bytes,address,uint256,uint256,uint256))": {
        "params": {
          "params": "The parameters necessary for the multi-hop swap, encoded as `SwapMultiParams` in calldata"
        },
        "returns": {
          "amountOut": "The amount of the received token"
        }
      },
      "sweepToken(address,uint256,address)": {
        "details": "The amountMinimum parameter prevents malicious contracts from stealing the token from users",
        "params": {
          "amountMinimum": "The minimum amount of token required for a transfer",
          "recipient": "The destination address of the token",
          "token": "The contract address of the token which will be transferred to `recipient`"
        }
      },
      "unwrapWETH9(uint256,address)": {
        "details": "The amountMinimum parameter prevents malicious contracts from stealing WETH9 from users.",
        "params": {
          "amountMinimum": "The minimum amount of WETH9 to unwrap",
          "recipient": "The address receiving ETH"
        }
      }
    },
    "version": 1
  },
  "userdoc": {
    "kind": "user",
    "methods": {
      "exactOutput((bytes,address,uint256,uint256,uint256))": {
        "notice": "Swaps as little as possible of one token for `amountOut` of another along the specified path (reversed)"
      },
      "exactOutputSingle((address,address,uint24,address,uint256,uint256,uint256,uint160))": {
        "notice": "Swaps as little as possible of one token for `amountOut` of another token"
      },
      "multicall(bytes[])": {
        "notice": "Call multiple functions in the current contract and return the data from all of them if they all succeed"
      },
      "swap((address,address,address,uint256,uint256,uint256))": {
        "notice": "Swaps `amountIn` of one token for as much as possible of another token"
      },
      "swapMulti((bytes,address,uint256,uint256,uint256))": {
        "notice": "Swaps `amountIn` of one token for as much as possible of another along the specified path"
      },
      "sweepToken(address,uint256,address)": {
        "notice": "Sends the full amount of a token held by this contract to the given recipient"
      },
      "unwrapWETH9(uint256,address)": {
        "notice": "Unwraps the contract's WETH9 balance and sends it to recipient as ETH."
      }
    },
    "version": 1
  }
}