{
  "contractName": "PocketSwapFactory",
  "abi": [
    {
      "inputs": [
        {
          "internalType": "address",
          "name": "_feeSetter",
          "type": "address"
        }
      ],
      "stateMutability": "nonpayable",
      "type": "constructor"
    },
    {
      "anonymous": false,
      "inputs": [
        {
          "indexed": true,
          "internalType": "address",
          "name": "token0",
          "type": "address"
        },
        {
          "indexed": true,
          "internalType": "address",
          "name": "token1",
          "type": "address"
        },
        {
          "indexed": false,
          "internalType": "address",
          "name": "pair",
          "type": "address"
        },
        {
          "indexed": false,
          "internalType": "uint256",
          "name": "",
          "type": "uint256"
        }
      ],
      "name": "PairCreated",
      "type": "event"
    },
    {
      "inputs": [
        {
          "internalType": "uint256",
          "name": "",
          "type": "uint256"
        }
      ],
      "name": "allPairs",
      "outputs": [
        {
          "internalType": "address",
          "name": "",
          "type": "address"
        }
      ],
      "stateMutability": "view",
      "type": "function"
    },
    {
      "inputs": [],
      "name": "fee",
      "outputs": [
        {
          "internalType": "uint256",
          "name": "",
          "type": "uint256"
        }
      ],
      "stateMutability": "view",
      "type": "function"
    },
    {
      "inputs": [],
      "name": "feeSetter",
      "outputs": [
        {
          "internalType": "address",
          "name": "",
          "type": "address"
        }
      ],
      "stateMutability": "view",
      "type": "function"
    },
    {
      "inputs": [
        {
          "internalType": "address",
          "name": "",
          "type": "address"
        },
        {
          "internalType": "address",
          "name": "",
          "type": "address"
        }
      ],
      "name": "getPair",
      "outputs": [
        {
          "internalType": "address",
          "name": "",
          "type": "address"
        }
      ],
      "stateMutability": "view",
      "type": "function"
    },
    {
      "inputs": [],
      "name": "allPairsLength",
      "outputs": [
        {
          "internalType": "uint256",
          "name": "",
          "type": "uint256"
        }
      ],
      "stateMutability": "view",
      "type": "function"
    },
    {
      "inputs": [
        {
          "internalType": "address",
          "name": "tokenA",
          "type": "address"
        },
        {
          "internalType": "address",
          "name": "tokenB",
          "type": "address"
        }
      ],
      "name": "createPair",
      "outputs": [
        {
          "internalType": "address",
          "name": "pair",
          "type": "address"
        }
      ],
      "stateMutability": "nonpayable",
      "type": "function"
    },
    {
      "inputs": [
        {
          "internalType": "uint256",
          "name": "_fee",
          "type": "uint256"
        }
      ],
      "name": "setFee",
      "outputs": [],
      "stateMutability": "nonpayable",
      "type": "function"
    },
    {
      "inputs": [
        {
          "internalType": "address",
          "name": "_feeSetter",
          "type": "address"
        }
      ],
      "name": "setFeeSetter",
      "outputs": [],
      "stateMutability": "nonpayable",
      "type": "function"
    }
  ],
  "bytecode": "0x6080604052622dc6c060015534801561001757600080fd5b50604051620050e7380380620050e7833981810160405281019061003b9190610096565b806000806101000a81548173ffffffffffffffffffffffffffffffffffffffff021916908373ffffffffffffffffffffffffffffffffffffffff16021790555050610108565b600081519050610090816100f1565b92915050565b6000602082840312156100a857600080fd5b60006100b684828501610081565b91505092915050565b60006100ca826100d1565b9050919050565b600073ffffffffffffffffffffffffffffffffffffffff82169050919050565b6100fa816100bf565b811461010557600080fd5b50565b614fcf80620001186000396000f3fe60806040523480156200001157600080fd5b5060043610620000945760003560e01c8063b19805af1162000063578063b19805af1462000133578063c9c653961462000153578063ddca3f431462000189578063e6a4390514620001ab5762000094565b80631e3dd18b1462000099578063574f2ba314620000cf57806369fe0e2d14620000f157806387cf3ef41462000111575b600080fd5b620000b76004803603810190620000b1919062000a61565b620001e1565b604051620000c6919062000bbd565b60405180910390f35b620000d962000221565b604051620000e8919062000cde565b60405180910390f35b6200010f600480360381019062000109919062000a61565b6200022e565b005b6200011b62000316565b6040516200012a919062000bbd565b60405180910390f35b6200015160048036038101906200014b9190620009f4565b6200033a565b005b6200017160048036038101906200016b919062000a20565b6200040e565b60405162000180919062000bbd565b60405180910390f35b6200019362000970565b604051620001a2919062000cde565b60405180910390f35b620001c96004803603810190620001c3919062000a20565b62000976565b604051620001d8919062000bbd565b60405180910390f35b60038181548110620001f257600080fd5b906000526020600020016000915054906101000a900473ffffffffffffffffffffffffffffffffffffffff1681565b6000600380549050905090565b60008054906101000a900473ffffffffffffffffffffffffffffffffffffffff1673ffffffffffffffffffffffffffffffffffffffff163373ffffffffffffffffffffffffffffffffffffffff1614620002bf576040517f08c379a0000000000000000000000000000000000000000000000000000000008152600401620002b69062000cbc565b60405180910390fd5b670de0b6b3a764000081106200030c576040517f08c379a0000000000000000000000000000000000000000000000000000000008152600401620003039062000c34565b60405180910390fd5b8060018190555050565b60008054906101000a900473ffffffffffffffffffffffffffffffffffffffff1681565b60008054906101000a900473ffffffffffffffffffffffffffffffffffffffff1673ffffffffffffffffffffffffffffffffffffffff163373ffffffffffffffffffffffffffffffffffffffff1614620003cb576040517f08c379a0000000000000000000000000000000000000000000000000000000008152600401620003c29062000cbc565b60405180910390fd5b806000806101000a81548173ffffffffffffffffffffffffffffffffffffffff021916908373ffffffffffffffffffffffffffffffffffffffff16021790555050565b60008173ffffffffffffffffffffffffffffffffffffffff168373ffffffffffffffffffffffffffffffffffffffff16141562000482576040517f08c379a0000000000000000000000000000000000000000000000000000000008152600401620004799062000c78565b60405180910390fd5b6000808373ffffffffffffffffffffffffffffffffffffffff168573ffffffffffffffffffffffffffffffffffffffff1610620004c1578385620004c4565b84845b91509150600073ffffffffffffffffffffffffffffffffffffffff168273ffffffffffffffffffffffffffffffffffffffff1614156200053b576040517f08c379a0000000000000000000000000000000000000000000000000000000008152600401620005329062000c56565b60405180910390fd5b600073ffffffffffffffffffffffffffffffffffffffff16600260008473ffffffffffffffffffffffffffffffffffffffff1673ffffffffffffffffffffffffffffffffffffffff16815260200190815260200160002060008373ffffffffffffffffffffffffffffffffffffffff1673ffffffffffffffffffffffffffffffffffffffff16815260200190815260200160002060009054906101000a900473ffffffffffffffffffffffffffffffffffffffff1673ffffffffffffffffffffffffffffffffffffffff161462000649576040517f08c379a0000000000000000000000000000000000000000000000000000000008152600401620006409062000c9a565b60405180910390fd5b6000604051806020016200065d90620009b8565b6020820181038252601f19601f820116604052509050600083836040516020016200068a92919062000b8d565b604051602081830303815290604052805190602001209050808251602084016000f594508473ffffffffffffffffffffffffffffffffffffffff1663485cc95585856040518363ffffffff1660e01b8152600401620006eb92919062000bda565b600060405180830381600087803b1580156200070657600080fd5b505af11580156200071b573d6000803e3d6000fd5b5050505084600260008673ffffffffffffffffffffffffffffffffffffffff1673ffffffffffffffffffffffffffffffffffffffff16815260200190815260200160002060008573ffffffffffffffffffffffffffffffffffffffff1673ffffffffffffffffffffffffffffffffffffffff16815260200190815260200160002060006101000a81548173ffffffffffffffffffffffffffffffffffffffff021916908373ffffffffffffffffffffffffffffffffffffffff16021790555084600260008573ffffffffffffffffffffffffffffffffffffffff1673ffffffffffffffffffffffffffffffffffffffff16815260200190815260200160002060008673ffffffffffffffffffffffffffffffffffffffff1673ffffffffffffffffffffffffffffffffffffffff16815260200190815260200160002060006101000a81548173ffffffffffffffffffffffffffffffffffffffff021916908373ffffffffffffffffffffffffffffffffffffffff1602179055506003859080600181540180825580915050600190039060005260206000200160009091909190916101000a81548173ffffffffffffffffffffffffffffffffffffffff021916908373ffffffffffffffffffffffffffffffffffffffff1602179055508273ffffffffffffffffffffffffffffffffffffffff168473ffffffffffffffffffffffffffffffffffffffff167f0d3648bd0f6ba80134a33ba9275ac585d9d315f0ad8355cddefde31afa28d0e9876003805490506040516200095e92919062000c07565b60405180910390a35050505092915050565b60015481565b60026020528160005260406000206020528060005260406000206000915091509054906101000a900473ffffffffffffffffffffffffffffffffffffffff1681565b6141198062000e8183390190565b600081359050620009d78162000e4c565b92915050565b600081359050620009ee8162000e66565b92915050565b60006020828403121562000a0757600080fd5b600062000a1784828501620009c6565b91505092915050565b6000806040838503121562000a3457600080fd5b600062000a4485828601620009c6565b925050602062000a5785828601620009c6565b9150509250929050565b60006020828403121562000a7457600080fd5b600062000a8484828501620009dd565b91505092915050565b62000a988162000d0c565b82525050565b62000ab362000aad8262000d0c565b62000d4a565b82525050565b600062000ac860128362000cfb565b915062000ad58262000d7f565b602082019050919050565b600062000aef60178362000cfb565b915062000afc8262000da8565b602082019050919050565b600062000b16601e8362000cfb565b915062000b238262000dd1565b602082019050919050565b600062000b3d60168362000cfb565b915062000b4a8262000dfa565b602082019050919050565b600062000b6460148362000cfb565b915062000b718262000e23565b602082019050919050565b62000b878162000d40565b82525050565b600062000b9b828562000a9e565b60148201915062000bad828462000a9e565b6014820191508190509392505050565b600060208201905062000bd4600083018462000a8d565b92915050565b600060408201905062000bf1600083018562000a8d565b62000c00602083018462000a8d565b9392505050565b600060408201905062000c1e600083018562000a8d565b62000c2d602083018462000b7c565b9392505050565b6000602082019050818103600083015262000c4f8162000ab9565b9050919050565b6000602082019050818103600083015262000c718162000ae0565b9050919050565b6000602082019050818103600083015262000c938162000b07565b9050919050565b6000602082019050818103600083015262000cb58162000b2e565b9050919050565b6000602082019050818103600083015262000cd78162000b55565b9050919050565b600060208201905062000cf5600083018462000b7c565b92915050565b600082825260208201905092915050565b600062000d198262000d20565b9050919050565b600073ffffffffffffffffffffffffffffffffffffffff82169050919050565b6000819050919050565b600062000d578262000d5e565b9050919050565b600062000d6b8262000d72565b9050919050565b60008160601b9050919050565b7f506f636b6574537761703a4249475f4645450000000000000000000000000000600082015250565b7f506f636b6574537761703a5a45524f5f41444452455353000000000000000000600082015250565b7f506f636b6574537761703a4944454e544943414c5f4144445245535345530000600082015250565b7f506f636b6574537761703a504149525f45584953545300000000000000000000600082015250565b7f506f636b6574537761703a464f5242494444454e000000000000000000000000600082015250565b62000e578162000d0c565b811462000e6357600080fd5b50565b62000e718162000d40565b811462000e7d57600080fd5b5056fe60806040526001600b553480156200001657600080fd5b5060004690507f8b73c3c69bb8fe3d512ecc4cf759cc79239f7b179b0ffacaa9a75d522b39400f6040518060400160405280600a81526020017f506f636b65745377617000000000000000000000000000000000000000000000815250805190602001206040518060400160405280600181526020017f3100000000000000000000000000000000000000000000000000000000000000815250805190602001208330604051602001620000cf95949392919062000166565b604051602081830303815290604052805190602001206003819055505033600560006101000a81548173ffffffffffffffffffffffffffffffffffffffff021916908373ffffffffffffffffffffffffffffffffffffffff1602179055506200020b565b6200013e81620001c3565b82525050565b6200014f81620001d7565b82525050565b620001608162000201565b82525050565b600060a0820190506200017d600083018862000144565b6200018c602083018762000144565b6200019b604083018662000144565b620001aa606083018562000155565b620001b9608083018462000133565b9695505050505050565b6000620001d082620001e1565b9050919050565b6000819050919050565b600073ffffffffffffffffffffffffffffffffffffffff82169050919050565b6000819050919050565b613efe806200021b6000396000f3fe608060405234801561001057600080fd5b506004361061018e5760003560e01c80636a627842116100de578063ba9a7a5611610097578063d21220a711610071578063d21220a7146104a2578063d505accf146104c0578063dd62ed3e146104dc578063fff6cae91461050c5761018e565b8063ba9a7a561461044a578063bc25cf7714610468578063c45a0155146104845761018e565b80636a6278421461033b57806370a082311461036b5780637ecebe001461039b57806389afcb44146103cb57806395d89b41146103fc578063a9059cbb1461041a5761018e565b806323b872dd1161014b5780633644e515116101255780633644e515146102c5578063485cc955146102e35780635909c0d5146102ff5780635a3d54931461031d5761018e565b806323b872dd1461025957806330adf81f14610289578063313ce567146102a75761018e565b8063022c0d9f1461019357806306fdde03146101af5780630902f1ac146101cd578063095ea7b3146101ed5780630dfe16811461021d57806318160ddd1461023b575b600080fd5b6101ad60048036038101906101a89190612d26565b610516565b005b6101b7610cee565b6040516101c491906132ae565b60405180910390f35b6101d5610d27565b6040516101e4939291906134b9565b60405180910390f35b61020760048036038101906102029190612c98565b610d84565b60405161021491906131d2565b60405180910390f35b610225610d9b565b604051610232919061318e565b60405180910390f35b610243610dc1565b60405161025091906134f0565b60405180910390f35b610273600480360381019061026e9190612bab565b610dc7565b60405161028091906131d2565b60405180910390f35b610291610f92565b60405161029e91906131ed565b60405180910390f35b6102af610fb9565b6040516102bc91906135b9565b60405180910390f35b6102cd610fbe565b6040516102da91906131ed565b60405180910390f35b6102fd60048036038101906102f89190612b6f565b610fc4565b005b6103076110da565b60405161031491906134f0565b60405180910390f35b6103256110e0565b60405161033291906134f0565b60405180910390f35b61035560048036038101906103509190612b46565b6110e6565b60405161036291906134f0565b60405180910390f35b61038560048036038101906103809190612b46565b611467565b60405161039291906134f0565b60405180910390f35b6103b560048036038101906103b09190612b46565b61147f565b6040516103c291906134f0565b60405180910390f35b6103e560048036038101906103e09190612b46565b611497565b6040516103f392919061350b565b60405180910390f35b6104046118f6565b60405161041191906132ae565b60405180910390f35b610434600480360381019061042f9190612c98565b61192f565b60405161044191906131d2565b60405180910390f35b610452611946565b60405161045f91906134f0565b60405180910390f35b610482600480360381019061047d9190612b46565b61194c565b005b61048c611b96565b604051610499919061318e565b60405180910390f35b6104aa611bbc565b6040516104b7919061318e565b60405180910390f35b6104da60048036038101906104d59190612bfa565b611be2565b005b6104f660048036038101906104f19190612b6f565b611e0a565b60405161050391906134f0565b60405180910390f35b610514611e2f565b005b6001600b541461055b576040517f08c379a000000000000000000000000000000000000000000000000000000000815260040161055290613370565b60405180910390fd5b6000600b8190555060008511806105725750600084115b6105b1576040517f08c379a00000000000000000000000000000000000000000000000000000000081526004016105a8906133f0565b60405180910390fd5b6000806105bc610d27565b5091509150816dffffffffffffffffffffffffffff16871080156105ef5750806dffffffffffffffffffffffffffff1686105b61062e576040517f08c379a000000000000000000000000000000000000000000000000000000000815260040161062590613350565b60405180910390fd5b6000806000600660009054906101000a900473ffffffffffffffffffffffffffffffffffffffff1690506000600760009054906101000a900473ffffffffffffffffffffffffffffffffffffffff1690508173ffffffffffffffffffffffffffffffffffffffff168973ffffffffffffffffffffffffffffffffffffffff16141580156106e757508073ffffffffffffffffffffffffffffffffffffffff168973ffffffffffffffffffffffffffffffffffffffff1614155b610726576040517f08c379a000000000000000000000000000000000000000000000000000000000815260040161071d90613450565b60405180910390fd5b60008b111561073b5761073a828a8d61201e565b5b60008a11156107505761074f818a8c61201e565b5b600088889050111561088c573373ffffffffffffffffffffffffffffffffffffffff16637936cd908c8c8b8b6040518563ffffffff1660e01b815260040161079b9493929190613534565b600060405180830381600087803b1580156107b557600080fd5b505af19250505080156107c6575060015b61088b576107d2613a31565b806308c379a0141561084e57506107e7613dbf565b806107f25750610850565b80604051602001610803919061316c565b6040516020818303038152906040526040517f08c379a000000000000000000000000000000000000000000000000000000000815260040161084591906132ae565b60405180910390fd5b505b6040517f08c379a000000000000000000000000000000000000000000000000000000000815260040161088290613330565b60405180910390fd5b5b8173ffffffffffffffffffffffffffffffffffffffff166370a08231306040518263ffffffff1660e01b81526004016108c5919061318e565b60206040518083038186803b1580156108dd57600080fd5b505afa1580156108f1573d6000803e3d6000fd5b505050506040513d601f19601f820116820180604052508101906109159190612cfd565b93508073ffffffffffffffffffffffffffffffffffffffff166370a08231306040518263ffffffff1660e01b8152600401610950919061318e565b60206040518083038186803b15801561096857600080fd5b505afa15801561097c573d6000803e3d6000fd5b505050506040513d601f19601f820116820180604052508101906109a09190612cfd565b92505050600089856dffffffffffffffffffffffffffff166109c29190613794565b83116109cf5760006109f7565b89856dffffffffffffffffffffffffffff166109eb9190613794565b836109f69190613794565b5b9050600089856dffffffffffffffffffffffffffff16610a179190613794565b8311610a24576000610a4c565b89856dffffffffffffffffffffffffffff16610a409190613794565b83610a4b9190613794565b5b90506000821180610a5d5750600081115b610a9c576040517f08c379a0000000000000000000000000000000000000000000000000000000008152600401610a93906132d0565b60405180910390fd5b6000600560009054906101000a900473ffffffffffffffffffffffffffffffffffffffff1673ffffffffffffffffffffffffffffffffffffffff1663ddca3f436040518163ffffffff1660e01b815260040160206040518083038186803b158015610b0657600080fd5b505afa158015610b1a573d6000803e3d6000fd5b505050506040513d601f19601f82011682018060405250810190610b3e9190612cfd565b90506000610b7d610b5883866121a890919063ffffffff16565b610b6f633b9aca00896121a890919063ffffffff16565b6121be90919063ffffffff16565b90506000610bbc610b9784866121a890919063ffffffff16565b610bae633b9aca00896121a890919063ffffffff16565b6121be90919063ffffffff16565b9050610c0b670de0b6b3a7640000610bfd8a6dffffffffffffffffffffffffffff168c6dffffffffffffffffffffffffffff166121a890919063ffffffff16565b6121a890919063ffffffff16565b610c1e82846121a890919063ffffffff16565b1015610c5f576040517f08c379a0000000000000000000000000000000000000000000000000000000008152600401610c56906133b0565b60405180910390fd5b505050610c6e848488886121d4565b8873ffffffffffffffffffffffffffffffffffffffff163373ffffffffffffffffffffffffffffffffffffffff167fd78ad95fa46c994b6551d0da85fc275fe613ce37657fb8d5e3d130840159d82284848f8f604051610cd19493929190613574565b60405180910390a35050505050506001600b819055505050505050565b6040518060400160405280600a81526020017f506f636b6574537761700000000000000000000000000000000000000000000081525081565b6000806000600a60009054906101000a90046dffffffffffffffffffffffffffff169250600a600e9054906101000a90046dffffffffffffffffffffffffffff169150600a601c9054906101000a900463ffffffff169050909192565b6000610d913384846124c8565b6001905092915050565b600660009054906101000a900473ffffffffffffffffffffffffffffffffffffffff1681565b60005481565b60007fffffffffffffffffffffffffffffffffffffffffffffffffffffffffffffffff600260008673ffffffffffffffffffffffffffffffffffffffff1673ffffffffffffffffffffffffffffffffffffffff16815260200190815260200160002060003373ffffffffffffffffffffffffffffffffffffffff1673ffffffffffffffffffffffffffffffffffffffff1681526020019081526020016000205414610f7c57610efb82600260008773ffffffffffffffffffffffffffffffffffffffff1673ffffffffffffffffffffffffffffffffffffffff16815260200190815260200160002060003373ffffffffffffffffffffffffffffffffffffffff1673ffffffffffffffffffffffffffffffffffffffff168152602001908152602001600020546121be90919063ffffffff16565b600260008673ffffffffffffffffffffffffffffffffffffffff1673ffffffffffffffffffffffffffffffffffffffff16815260200190815260200160002060003373ffffffffffffffffffffffffffffffffffffffff1673ffffffffffffffffffffffffffffffffffffffff168152602001908152602001600020819055505b610f878484846125b3565b600190509392505050565b7f6e71edae12b1b97f4d1f60370fef10105fa2faae0126114a169c64845d6126c960001b81565b601281565b60035481565b600560009054906101000a900473ffffffffffffffffffffffffffffffffffffffff1673ffffffffffffffffffffffffffffffffffffffff163373ffffffffffffffffffffffffffffffffffffffff1614611054576040517f08c379a000000000000000000000000000000000000000000000000000000000815260040161104b90613430565b60405180910390fd5b81600660006101000a81548173ffffffffffffffffffffffffffffffffffffffff021916908373ffffffffffffffffffffffffffffffffffffffff16021790555080600760006101000a81548173ffffffffffffffffffffffffffffffffffffffff021916908373ffffffffffffffffffffffffffffffffffffffff1602179055505050565b60085481565b60095481565b60006001600b541461112d576040517f08c379a000000000000000000000000000000000000000000000000000000000815260040161112490613370565b60405180910390fd5b6000600b81905550600080611140610d27565b50915091506000600660009054906101000a900473ffffffffffffffffffffffffffffffffffffffff1673ffffffffffffffffffffffffffffffffffffffff166370a08231306040518263ffffffff1660e01b81526004016111a2919061318e565b60206040518083038186803b1580156111ba57600080fd5b505afa1580156111ce573d6000803e3d6000fd5b505050506040513d601f19601f820116820180604052508101906111f29190612cfd565b90506000600760009054906101000a900473ffffffffffffffffffffffffffffffffffffffff1673ffffffffffffffffffffffffffffffffffffffff166370a08231306040518263ffffffff1660e01b8152600401611251919061318e565b60206040518083038186803b15801561126957600080fd5b505afa15801561127d573d6000803e3d6000fd5b505050506040513d601f19601f820116820180604052508101906112a19190612cfd565b905060006112c8856dffffffffffffffffffffffffffff16846121be90919063ffffffff16565b905060006112ef856dffffffffffffffffffffffffffff16846121be90919063ffffffff16565b905060008054905060008114156113435761132f6103e861132161131c85876121a890919063ffffffff16565b612747565b6121be90919063ffffffff16565b975061133e60006103e86127c1565b6113aa565b6113a7876dffffffffffffffffffffffffffff1661136a83866121a890919063ffffffff16565b61137491906136b3565b876dffffffffffffffffffffffffffff1661139884866121a890919063ffffffff16565b6113a291906136b3565b6128db565b97505b600088116113ed576040517f08c379a00000000000000000000000000000000000000000000000000000000081526004016113e490613310565b60405180910390fd5b6113f789896127c1565b611403858589896121d4565b3373ffffffffffffffffffffffffffffffffffffffff167f4c209b5fc8ad50758f13e2e1088ba56a560dff690a1c6fef26394f4c03821c4f848460405161144b92919061350b565b60405180910390a2505050505050506001600b81905550919050565b60016020528060005260406000206000915090505481565b60046020528060005260406000206000915090505481565b6000806001600b54146114df576040517f08c379a00000000000000000000000000000000000000000000000000000000081526004016114d690613370565b60405180910390fd5b6000600b819055506000806114f2610d27565b50915091506000600660009054906101000a900473ffffffffffffffffffffffffffffffffffffffff1690506000600760009054906101000a900473ffffffffffffffffffffffffffffffffffffffff16905060008273ffffffffffffffffffffffffffffffffffffffff166370a08231306040518263ffffffff1660e01b8152600401611580919061318e565b60206040518083038186803b15801561159857600080fd5b505afa1580156115ac573d6000803e3d6000fd5b505050506040513d601f19601f820116820180604052508101906115d09190612cfd565b905060008273ffffffffffffffffffffffffffffffffffffffff166370a08231306040518263ffffffff1660e01b815260040161160d919061318e565b60206040518083038186803b15801561162557600080fd5b505afa158015611639573d6000803e3d6000fd5b505050506040513d601f19601f8201168201806040525081019061165d9190612cfd565b90506000600160003073ffffffffffffffffffffffffffffffffffffffff1673ffffffffffffffffffffffffffffffffffffffff168152602001908152602001600020549050600080549050806116bd85846121a890919063ffffffff16565b6116c791906136b3565b9950806116dd84846121a890919063ffffffff16565b6116e791906136b3565b985060008a1180156116f95750600089115b611738576040517f08c379a000000000000000000000000000000000000000000000000000000000815260040161172f90613470565b60405180910390fd5b61174230836128f4565b61174d868c8c61201e565b611758858c8b61201e565b8573ffffffffffffffffffffffffffffffffffffffff166370a08231306040518263ffffffff1660e01b8152600401611791919061318e565b60206040518083038186803b1580156117a957600080fd5b505afa1580156117bd573d6000803e3d6000fd5b505050506040513d601f19601f820116820180604052508101906117e19190612cfd565b93508473ffffffffffffffffffffffffffffffffffffffff166370a08231306040518263ffffffff1660e01b815260040161181c919061318e565b60206040518083038186803b15801561183457600080fd5b505afa158015611848573d6000803e3d6000fd5b505050506040513d601f19601f8201168201806040525081019061186c9190612cfd565b925061187a84848a8a6121d4565b8a73ffffffffffffffffffffffffffffffffffffffff163373ffffffffffffffffffffffffffffffffffffffff167fdccd412f0b1252819cb1fd330b93224ca42612892bb3f4f789976e6d819364968c8c6040516118d992919061350b565b60405180910390a350505050505050506001600b81905550915091565b6040518060400160405280600781526020017f50532d504149520000000000000000000000000000000000000000000000000081525081565b600061193c3384846125b3565b6001905092915050565b6103e881565b6001600b5414611991576040517f08c379a000000000000000000000000000000000000000000000000000000000815260040161198890613370565b60405180910390fd5b6000600b819055506000600660009054906101000a900473ffffffffffffffffffffffffffffffffffffffff1690506000600760009054906101000a900473ffffffffffffffffffffffffffffffffffffffff169050611ab88284611ab3600a60009054906101000a90046dffffffffffffffffffffffffffff166dffffffffffffffffffffffffffff168673ffffffffffffffffffffffffffffffffffffffff166370a08231306040518263ffffffff1660e01b8152600401611a55919061318e565b60206040518083038186803b158015611a6d57600080fd5b505afa158015611a81573d6000803e3d6000fd5b505050506040513d601f19601f82011682018060405250810190611aa59190612cfd565b6121be90919063ffffffff16565b61201e565b611b898184611b84600a600e9054906101000a90046dffffffffffffffffffffffffffff166dffffffffffffffffffffffffffff168573ffffffffffffffffffffffffffffffffffffffff166370a08231306040518263ffffffff1660e01b8152600401611b26919061318e565b60206040518083038186803b158015611b3e57600080fd5b505afa158015611b52573d6000803e3d6000fd5b505050506040513d601f19601f82011682018060405250810190611b769190612cfd565b6121be90919063ffffffff16565b61201e565b50506001600b8190555050565b600560009054906101000a900473ffffffffffffffffffffffffffffffffffffffff1681565b600760009054906101000a900473ffffffffffffffffffffffffffffffffffffffff1681565b42841015611c25576040517f08c379a0000000000000000000000000000000000000000000000000000000008152600401611c1c906133d0565b60405180910390fd5b60006003547f6e71edae12b1b97f4d1f60370fef10105fa2faae0126114a169c64845d6126c960001b898989600460008e73ffffffffffffffffffffffffffffffffffffffff1673ffffffffffffffffffffffffffffffffffffffff1681526020019081526020016000206000815480929190611ca190613920565b919050558a604051602001611cbb96959493929190613208565b60405160208183030381529060405280519060200120604051602001611ce2929190613135565b604051602081830303815290604052805190602001209050600060018286868660405160008152602001604052604051611d1f9493929190613269565b6020604051602081039080840390855afa158015611d41573d6000803e3d6000fd5b505050602060405103519050600073ffffffffffffffffffffffffffffffffffffffff168173ffffffffffffffffffffffffffffffffffffffff1614158015611db557508873ffffffffffffffffffffffffffffffffffffffff168173ffffffffffffffffffffffffffffffffffffffff16145b611df4576040517f08c379a0000000000000000000000000000000000000000000000000000000008152600401611deb90613410565b60405180910390fd5b611dff8989896124c8565b505050505050505050565b6002602052816000526040600020602052806000526040600020600091509150505481565b6001600b5414611e74576040517f08c379a0000000000000000000000000000000000000000000000000000000008152600401611e6b90613370565b60405180910390fd5b6000600b81905550612014600660009054906101000a900473ffffffffffffffffffffffffffffffffffffffff1673ffffffffffffffffffffffffffffffffffffffff166370a08231306040518263ffffffff1660e01b8152600401611eda919061318e565b60206040518083038186803b158015611ef257600080fd5b505afa158015611f06573d6000803e3d6000fd5b505050506040513d601f19601f82011682018060405250810190611f2a9190612cfd565b600760009054906101000a900473ffffffffffffffffffffffffffffffffffffffff1673ffffffffffffffffffffffffffffffffffffffff166370a08231306040518263ffffffff1660e01b8152600401611f85919061318e565b60206040518083038186803b158015611f9d57600080fd5b505afa158015611fb1573d6000803e3d6000fd5b505050506040513d601f19601f82011682018060405250810190611fd59190612cfd565b600a60009054906101000a90046dffffffffffffffffffffffffffff16600a600e9054906101000a90046dffffffffffffffffffffffffffff166121d4565b6001600b81905550565b6000808473ffffffffffffffffffffffffffffffffffffffff166040518060400160405280601981526020017f7472616e7366657228616464726573732c75696e7432353629000000000000008152508051906020012085856040516024016120889291906131a9565b604051602081830303815290604052907bffffffffffffffffffffffffffffffffffffffffffffffffffffffff19166020820180517bffffffffffffffffffffffffffffffffffffffffffffffffffffffff83818316178352505050506040516120f2919061311e565b6000604051808303816000865af19150503d806000811461212f576040519150601f19603f3d011682016040523d82523d6000602084013e612134565b606091505b509150915081801561216257506000815114806121615750808060200190518101906121609190612cd4565b5b5b6121a1576040517f08c379a0000000000000000000000000000000000000000000000000000000008152600401612198906132f0565b60405180910390fd5b5050505050565b600081836121b6919061373a565b905092915050565b600081836121cc9190613794565b905092915050565b6dffffffffffffffffffffffffffff8016841115801561220457506dffffffffffffffffffffffffffff80168311155b612243576040517f08c379a000000000000000000000000000000000000000000000000000000000815260040161223a90613390565b60405180910390fd5b6000640100000000426122569190613973565b90506000600a601c9054906101000a900463ffffffff168261227891906137c8565b905060008163ffffffff161180156122a157506000846dffffffffffffffffffffffffffff1614155b80156122be57506000836dffffffffffffffffffffffffffff1614155b156123c4578063ffffffff16612303856122d786612a0e565b7bffffffffffffffffffffffffffffffffffffffffffffffffffffffff16612a4290919063ffffffff16565b7bffffffffffffffffffffffffffffffffffffffffffffffffffffffff1661232b919061373a565b6008600082825461233c919061362c565b925050819055508063ffffffff166123838461235787612a0e565b7bffffffffffffffffffffffffffffffffffffffffffffffffffffffff16612a4290919063ffffffff16565b7bffffffffffffffffffffffffffffffffffffffffffffffffffffffff166123ab919061373a565b600960008282546123bc919061362c565b925050819055505b85600a60006101000a8154816dffffffffffffffffffffffffffff02191690836dffffffffffffffffffffffffffff16021790555084600a600e6101000a8154816dffffffffffffffffffffffffffff02191690836dffffffffffffffffffffffffffff16021790555081600a601c6101000a81548163ffffffff021916908363ffffffff1602179055507f1c411e9a96e071241c2f21f7726b17ae89e3cab4c78be50e062b03a9fffbbad1600a60009054906101000a90046dffffffffffffffffffffffffffff16600a600e9054906101000a90046dffffffffffffffffffffffffffff166040516124b8929190613490565b60405180910390a1505050505050565b80600260008573ffffffffffffffffffffffffffffffffffffffff1673ffffffffffffffffffffffffffffffffffffffff16815260200190815260200160002060008473ffffffffffffffffffffffffffffffffffffffff1673ffffffffffffffffffffffffffffffffffffffff168152602001908152602001600020819055508173ffffffffffffffffffffffffffffffffffffffff168373ffffffffffffffffffffffffffffffffffffffff167f8c5be1e5ebec7d5bd14f71427d1e84f3dd0314c0f7b2291e5b200ac8c7c3b925836040516125a691906134f0565b60405180910390a3505050565b61260581600160008673ffffffffffffffffffffffffffffffffffffffff1673ffffffffffffffffffffffffffffffffffffffff168152602001908152602001600020546121be90919063ffffffff16565b600160008573ffffffffffffffffffffffffffffffffffffffff1673ffffffffffffffffffffffffffffffffffffffff1681526020019081526020016000208190555061269a81600160008573ffffffffffffffffffffffffffffffffffffffff1673ffffffffffffffffffffffffffffffffffffffff16815260200190815260200160002054612a6890919063ffffffff16565b600160008473ffffffffffffffffffffffffffffffffffffffff1673ffffffffffffffffffffffffffffffffffffffff168152602001908152602001600020819055508173ffffffffffffffffffffffffffffffffffffffff168373ffffffffffffffffffffffffffffffffffffffff167fddf252ad1be2c89b69c2b068fc378daa952ba7f163c4a11628f55a4df523b3ef8360405161273a91906134f0565b60405180910390a3505050565b600060038211156127ae578190506000600160028461276691906136b3565b612770919061362c565b90505b818110156127a857809150600281828561278d91906136b3565b612797919061362c565b6127a191906136b3565b9050612773565b506127bc565b600082146127bb57600190505b5b919050565b6127d681600054612a6890919063ffffffff16565b60008190555061282e81600160008573ffffffffffffffffffffffffffffffffffffffff1673ffffffffffffffffffffffffffffffffffffffff16815260200190815260200160002054612a6890919063ffffffff16565b600160008473ffffffffffffffffffffffffffffffffffffffff1673ffffffffffffffffffffffffffffffffffffffff168152602001908152602001600020819055508173ffffffffffffffffffffffffffffffffffffffff16600073ffffffffffffffffffffffffffffffffffffffff167fddf252ad1be2c89b69c2b068fc378daa952ba7f163c4a11628f55a4df523b3ef836040516128cf91906134f0565b60405180910390a35050565b60008183106128ea57816128ec565b825b905092915050565b61294681600160008573ffffffffffffffffffffffffffffffffffffffff1673ffffffffffffffffffffffffffffffffffffffff168152602001908152602001600020546121be90919063ffffffff16565b600160008473ffffffffffffffffffffffffffffffffffffffff1673ffffffffffffffffffffffffffffffffffffffff1681526020019081526020016000208190555061299e816000546121be90919063ffffffff16565b600081905550600073ffffffffffffffffffffffffffffffffffffffff168273ffffffffffffffffffffffffffffffffffffffff167fddf252ad1be2c89b69c2b068fc378daa952ba7f163c4a11628f55a4df523b3ef83604051612a0291906134f0565b60405180910390a35050565b60006e010000000000000000000000000000826dffffffffffffffffffffffffffff16612a3b91906136e4565b9050919050565b6000816dffffffffffffffffffffffffffff1683612a609190613682565b905092915050565b60008183612a76919061362c565b905092915050565b600081359050612a8d81613e55565b92915050565b600081519050612aa281613e6c565b92915050565b600081359050612ab781613e83565b92915050565b60008083601f840112612acf57600080fd5b8235905067ffffffffffffffff811115612ae857600080fd5b602083019150836001820283011115612b0057600080fd5b9250929050565b600081359050612b1681613e9a565b92915050565b600081519050612b2b81613e9a565b92915050565b600081359050612b4081613eb1565b92915050565b600060208284031215612b5857600080fd5b6000612b6684828501612a7e565b91505092915050565b60008060408385031215612b8257600080fd5b6000612b9085828601612a7e565b9250506020612ba185828601612a7e565b9150509250929050565b600080600060608486031215612bc057600080fd5b6000612bce86828701612a7e565b9350506020612bdf86828701612a7e565b9250506040612bf086828701612b07565b9150509250925092565b600080600080600080600060e0888a031215612c1557600080fd5b6000612c238a828b01612a7e565b9750506020612c348a828b01612a7e565b9650506040612c458a828b01612b07565b9550506060612c568a828b01612b07565b9450506080612c678a828b01612b31565b93505060a0612c788a828b01612aa8565b92505060c0612c898a828b01612aa8565b91505092959891949750929550565b60008060408385031215612cab57600080fd5b6000612cb985828601612a7e565b9250506020612cca85828601612b07565b9150509250929050565b600060208284031215612ce657600080fd5b6000612cf484828501612a93565b91505092915050565b600060208284031215612d0f57600080fd5b6000612d1d84828501612b1c565b91505092915050565b600080600080600060808688031215612d3e57600080fd5b6000612d4c88828901612b07565b9550506020612d5d88828901612b07565b9450506040612d6e88828901612a7e565b935050606086013567ffffffffffffffff811115612d8b57600080fd5b612d9788828901612abd565b92509250509295509295909350565b612daf816137fc565b82525050565b612dbe8161380e565b82525050565b612dcd8161381a565b82525050565b612de4612ddf8261381a565b613969565b82525050565b6000612df683856135f4565b9350612e038385846138ad565b612e0c83613a53565b840190509392505050565b6000612e22826135de565b612e2c8185613605565b9350612e3c8185602086016138bc565b80840191505092915050565b6000612e53826135e9565b612e5d8185613610565b9350612e6d8185602086016138bc565b612e7681613a53565b840191505092915050565b6000612e8c826135e9565b612e968185613621565b9350612ea68185602086016138bc565b80840191505092915050565b6000612ebf602583613610565b9150612eca82613a71565b604082019050919050565b6000612ee2600283613621565b9150612eed82613ac0565b600282019050919050565b6000612f05601b83613610565b9150612f1082613ae9565b602082019050919050565b6000612f28602983613610565b9150612f3382613b12565b604082019050919050565b6000612f4b600783613610565b9150612f5682613b61565b602082019050919050565b6000612f6e602283613610565b9150612f7982613b8a565b604082019050919050565b6000612f91601283613610565b9150612f9c82613bd9565b602082019050919050565b6000612fb4601483613610565b9150612fbf82613c02565b602082019050919050565b6000612fd7600d83613610565b9150612fe282613c2b565b602082019050919050565b6000612ffa601383613610565b915061300582613c54565b602082019050919050565b600061301d600583613621565b915061302882613c7d565b600582019050919050565b6000613040602683613610565b915061304b82613ca6565b604082019050919050565b6000613063601d83613610565b915061306e82613cf5565b602082019050919050565b6000613086601583613610565b915061309182613d1e565b602082019050919050565b60006130a9601683613610565b91506130b482613d47565b602082019050919050565b60006130cc602983613610565b91506130d782613d70565b604082019050919050565b6130eb81613824565b82525050565b6130fa81613886565b82525050565b61310981613890565b82525050565b613118816138a0565b82525050565b600061312a8284612e17565b915081905092915050565b600061314082612ed5565b915061314c8285612dd3565b60208201915061315c8284612dd3565b6020820191508190509392505050565b600061317782613010565b91506131838284612e81565b915081905092915050565b60006020820190506131a36000830184612da6565b92915050565b60006040820190506131be6000830185612da6565b6131cb60208301846130f1565b9392505050565b60006020820190506131e76000830184612db5565b92915050565b60006020820190506132026000830184612dc4565b92915050565b600060c08201905061321d6000830189612dc4565b61322a6020830188612da6565b6132376040830187612da6565b61324460608301866130f1565b61325160808301856130f1565b61325e60a08301846130f1565b979650505050505050565b600060808201905061327e6000830187612dc4565b61328b602083018661310f565b6132986040830185612dc4565b6132a56060830184612dc4565b95945050505050565b600060208201905081810360008301526132c88184612e48565b905092915050565b600060208201905081810360008301526132e981612eb2565b9050919050565b6000602082019050818103600083015261330981612ef8565b9050919050565b6000602082019050818103600083015261332981612f1b565b9050919050565b6000602082019050818103600083015261334981612f3e565b9050919050565b6000602082019050818103600083015261336981612f61565b9050919050565b6000602082019050818103600083015261338981612f84565b9050919050565b600060208201905081810360008301526133a981612fa7565b9050919050565b600060208201905081810360008301526133c981612fca565b9050919050565b600060208201905081810360008301526133e981612fed565b9050919050565b6000602082019050818103600083015261340981613033565b9050919050565b6000602082019050818103600083015261342981613056565b9050919050565b6000602082019050818103600083015261344981613079565b9050919050565b600060208201905081810360008301526134698161309c565b9050919050565b60006020820190508181036000830152613489816130bf565b9050919050565b60006040820190506134a560008301856130e2565b6134b260208301846130e2565b9392505050565b60006060820190506134ce60008301866130e2565b6134db60208301856130e2565b6134e86040830184613100565b949350505050565b600060208201905061350560008301846130f1565b92915050565b600060408201905061352060008301856130f1565b61352d60208301846130f1565b9392505050565b600060608201905061354960008301876130f1565b61355660208301866130f1565b8181036040830152613569818486612dea565b905095945050505050565b600060808201905061358960008301876130f1565b61359660208301866130f1565b6135a360408301856130f1565b6135b060608301846130f1565b95945050505050565b60006020820190506135ce600083018461310f565b92915050565b6000604051905090565b600081519050919050565b600081519050919050565b600082825260208201905092915050565b600081905092915050565b600082825260208201905092915050565b600081905092915050565b600061363782613886565b915061364283613886565b9250827fffffffffffffffffffffffffffffffffffffffffffffffffffffffffffffffff03821115613677576136766139a4565b5b828201905092915050565b600061368d8261385e565b91506136988361385e565b9250826136a8576136a76139d3565b5b828204905092915050565b60006136be82613886565b91506136c983613886565b9250826136d9576136d86139d3565b5b828204905092915050565b60006136ef8261385e565b91506136fa8361385e565b9250817bffffffffffffffffffffffffffffffffffffffffffffffffffffffff048311821515161561372f5761372e6139a4565b5b828202905092915050565b600061374582613886565b915061375083613886565b9250817fffffffffffffffffffffffffffffffffffffffffffffffffffffffffffffffff0483118215151615613789576137886139a4565b5b828202905092915050565b600061379f82613886565b91506137aa83613886565b9250828210156137bd576137bc6139a4565b5b828203905092915050565b60006137d382613890565b91506137de83613890565b9250828210156137f1576137f06139a4565b5b828203905092915050565b60006138078261383e565b9050919050565b60008115159050919050565b6000819050919050565b60006dffffffffffffffffffffffffffff82169050919050565b600073ffffffffffffffffffffffffffffffffffffffff82169050919050565b60007bffffffffffffffffffffffffffffffffffffffffffffffffffffffff82169050919050565b6000819050919050565b600063ffffffff82169050919050565b600060ff82169050919050565b82818337600083830152505050565b60005b838110156138da5780820151818401526020810190506138bf565b838111156138e9576000848401525b50505050565b6138f882613a53565b810181811067ffffffffffffffff8211171561391757613916613a02565b5b80604052505050565b600061392b82613886565b91507fffffffffffffffffffffffffffffffffffffffffffffffffffffffffffffffff82141561395e5761395d6139a4565b5b600182019050919050565b6000819050919050565b600061397e82613886565b915061398983613886565b925082613999576139986139d3565b5b828206905092915050565b7f4e487b7100000000000000000000000000000000000000000000000000000000600052601160045260246000fd5b7f4e487b7100000000000000000000000000000000000000000000000000000000600052601260045260246000fd5b7f4e487b7100000000000000000000000000000000000000000000000000000000600052604160045260246000fd5b600060033d1115613a505760046000803e613a4d600051613a64565b90505b90565b6000601f19601f8301169050919050565b60008160e01c9050919050565b7f506f636b6574537761703a20494e53554646494349454e545f494e5055545f4160008201527f4d4f554e54000000000000000000000000000000000000000000000000000000602082015250565b7f1901000000000000000000000000000000000000000000000000000000000000600082015250565b7f506f636b6574537761703a205452414e534645525f4641494c45440000000000600082015250565b7f506f636b6574537761703a20494e53554646494349454e545f4c49515549444960008201527f54595f4d494e5445440000000000000000000000000000000000000000000000602082015250565b7f554e4b4e574e2100000000000000000000000000000000000000000000000000600082015250565b7f506f636b6574537761703a20494e53554646494349454e545f4c49515549444960008201527f5459000000000000000000000000000000000000000000000000000000000000602082015250565b7f506f636b6574537761703a204c4f434b45440000000000000000000000000000600082015250565b7f506f636b6574537761703a204f564552464c4f57000000000000000000000000600082015250565b7f506f636b6574537761703a204b00000000000000000000000000000000000000600082015250565b7f506f636b6574537761703a204558504952454400000000000000000000000000600082015250565b7f4e4f4b3a20000000000000000000000000000000000000000000000000000000600082015250565b7f506f636b6574537761703a20494e53554646494349454e545f4f55545055545f60008201527f414d4f554e540000000000000000000000000000000000000000000000000000602082015250565b7f506f636b6574537761703a20494e56414c49445f5349474e4154555245000000600082015250565b7f506f636b6574537761703a20464f5242494444454e0000000000000000000000600082015250565b7f506f636b6574537761703a20494e56414c49445f544f00000000000000000000600082015250565b7f506f636b6574537761703a20494e53554646494349454e545f4c49515549444960008201527f54595f4255524e45440000000000000000000000000000000000000000000000602082015250565b600060443d1015613dcf57613e52565b613dd76135d4565b60043d036004823e80513d602482011167ffffffffffffffff82111715613dff575050613e52565b808201805167ffffffffffffffff811115613e1d5750505050613e52565b80602083010160043d038501811115613e3a575050505050613e52565b613e49826020018501866138ef565b82955050505050505b90565b613e5e816137fc565b8114613e6957600080fd5b50565b613e758161380e565b8114613e8057600080fd5b50565b613e8c8161381a565b8114613e9757600080fd5b50565b613ea381613886565b8114613eae57600080fd5b50565b613eba816138a0565b8114613ec557600080fd5b5056fea2646970667358221220aefdcdb8f3591d803bc7387ea9a659f04eb2cacb722a020d049d66ec084bb91a64736f6c63430008040033a26469706673582212203b26622e3e6c90f94d1b3f625a797dc0cd2064bd9d8378acbb29d3ceccd7516c64736f6c63430008040033",
  "immutableReferences": {},
  "source": "// SPDX-License-Identifier: Unlicensed\npragma solidity =0.8.4;\n\n\nimport './PocketSwapPair.sol';\nimport './interfaces/IPocketSwapFactory.sol';\n\ncontract PocketSwapFactory is IPocketSwapFactory {\n    address public override feeSetter;\n    uint256 public override fee = 3e6; // 1e9 = 100%; 1e8 = 10%; 1e7 = 1%; 1e6 = 0.1% ....\n\n    mapping(address => mapping(address => address)) public override getPair;\n    address[] public override allPairs;\n\n    constructor(address _feeSetter) {\n        feeSetter = _feeSetter;\n    }\n\n    function allPairsLength() external override view returns (uint) {\n        return allPairs.length;\n    }\n\n    function createPair(address tokenA, address tokenB) external override returns (address pair) {\n        require(tokenA != tokenB, 'PocketSwap:IDENTICAL_ADDRESSES');\n        (address token0, address token1) = tokenA < tokenB ? (tokenA, tokenB) : (tokenB, tokenA);\n        require(token0 != address(0), 'PocketSwap:ZERO_ADDRESS');\n        require(getPair[token0][token1] == address(0), 'PocketSwap:PAIR_EXISTS'); // single check is sufficient\n        bytes memory bytecode = type(PocketSwapPair).creationCode;\n        bytes32 salt = keccak256(abi.encodePacked(token0, token1));\n        assembly {\n            pair := create2(0, add(bytecode, 32), mload(bytecode), salt)\n        }\n\n        PocketSwapPair(pair).initialize(token0, token1);\n        getPair[token0][token1] = pair;\n        getPair[token1][token0] = pair; // populate mapping in the reverse direction\n        allPairs.push(pair);\n        emit PairCreated(token0, token1, pair, allPairs.length);\n    }\n\n    function setFee(uint256 _fee) external override {\n        require(msg.sender == feeSetter, 'PocketSwap:FORBIDDEN');\n        require(_fee < 1e18, 'PocketSwap:BIG_FEE');\n        fee = _fee;\n    }\n\n    function setFeeSetter(address _feeSetter) external override {\n        require(msg.sender == feeSetter, 'PocketSwap:FORBIDDEN');\n        feeSetter = _feeSetter;\n    }\n}\n",
  "sourcePath": "/Users/ilyk/projects/midgardtech/xpocket-PocketSwap/contracts/pocketswap/PocketSwapFactory.sol",
  "compiler": {
    "name": "solc",
    "version": "0.8.4+commit.c7e474f2.Emscripten.clang"
  },
  "schemaVersion": "3.4.0",
  "updatedAt": "2021-05-07T07:22:29.987Z",
  "devdoc": {
    "kind": "dev",
    "methods": {},
    "version": 1
  },
  "userdoc": {
    "kind": "user",
    "methods": {},
    "version": 1
  }
}