{
  "contractName": "PocketSwap",
  "abi": [
    {
      "inputs": [],
      "stateMutability": "nonpayable",
      "type": "constructor"
    },
    {
      "inputs": [],
      "name": "factory",
      "outputs": [
        {
          "internalType": "contract IPocketSwapFactory",
          "name": "",
          "type": "address"
        }
      ],
      "stateMutability": "view",
      "type": "function"
    },
    {
      "inputs": [],
      "name": "initialized",
      "outputs": [
        {
          "internalType": "bool",
          "name": "",
          "type": "bool"
        }
      ],
      "stateMutability": "view",
      "type": "function"
    },
    {
      "inputs": [],
      "name": "pocketToken",
      "outputs": [
        {
          "internalType": "contract Pocket",
          "name": "",
          "type": "address"
        }
      ],
      "stateMutability": "view",
      "type": "function"
    },
    {
      "inputs": [],
      "name": "rewardsPerToken",
      "outputs": [
        {
          "internalType": "uint256",
          "name": "",
          "type": "uint256"
        }
      ],
      "stateMutability": "view",
      "type": "function"
    },
    {
      "inputs": [],
      "name": "router",
      "outputs": [
        {
          "internalType": "contract IPocketSwapRouter",
          "name": "",
          "type": "address"
        }
      ],
      "stateMutability": "view",
      "type": "function"
    },
    {
      "inputs": [
        {
          "internalType": "address",
          "name": "",
          "type": "address"
        }
      ],
      "name": "takenReward",
      "outputs": [
        {
          "internalType": "uint256",
          "name": "",
          "type": "uint256"
        }
      ],
      "stateMutability": "view",
      "type": "function"
    },
    {
      "inputs": [],
      "name": "tokenHoldersFee",
      "outputs": [
        {
          "internalType": "address",
          "name": "",
          "type": "address"
        }
      ],
      "stateMutability": "view",
      "type": "function"
    },
    {
      "inputs": [
        {
          "internalType": "address",
          "name": "_WETH9",
          "type": "address"
        },
        {
          "internalType": "string",
          "name": "name_",
          "type": "string"
        },
        {
          "internalType": "string",
          "name": "symbol_",
          "type": "string"
        },
        {
          "internalType": "uint256",
          "name": "supply_",
          "type": "uint256"
        }
      ],
      "name": "initialize",
      "outputs": [],
      "stateMutability": "nonpayable",
      "type": "function"
    },
    {
      "inputs": [
        {
          "components": [
            {
              "internalType": "address",
              "name": "tokenIn",
              "type": "address"
            },
            {
              "internalType": "address",
              "name": "tokenOut",
              "type": "address"
            },
            {
              "internalType": "address",
              "name": "recipient",
              "type": "address"
            },
            {
              "internalType": "uint256",
              "name": "deadline",
              "type": "uint256"
            },
            {
              "internalType": "uint256",
              "name": "amountIn",
              "type": "uint256"
            },
            {
              "internalType": "uint256",
              "name": "amountOutMinimum",
              "type": "uint256"
            }
          ],
          "internalType": "struct IPocketSwapRouter.SwapParams",
          "name": "params",
          "type": "tuple"
        }
      ],
      "name": "swap",
      "outputs": [],
      "stateMutability": "nonpayable",
      "type": "function"
    }
  ],
  "bytecode": "0x608060405234801561001057600080fd5b5033600360006101000a81548173ffffffffffffffffffffffffffffffffffffffff021916908373ffffffffffffffffffffffffffffffffffffffff16021790555061ec4980620000626000396000f3fe60806040523480156200001157600080fd5b5060043610620000a05760003560e01c80636bcb6e4c116200006f5780636bcb6e4c146200013d57806370641a36146200015f578063c45a01551462000181578063f7e46ea214620001a3578063f887ea4014620001c557620000a0565b8063158ef93e14620000a5578063253f0c5414620000c7578063441a12de14620000fd5780634d12d4b6146200011d575b600080fd5b620000af620001e7565b604051620000be919062000982565b60405180910390f35b620000e56004803603810190620000df91906200067a565b620001fa565b604051620000f4919062000a5e565b60405180910390f35b6200011b600480360381019062000115919062000744565b62000212565b005b6200013b6004803603810190620001359190620006a6565b620002c9565b005b62000147620004e1565b604051620001569190620009d9565b60405180910390f35b6200016962000507565b60405162000178919062000a5e565b60405180910390f35b6200018b6200050d565b6040516200019a91906200099f565b60405180910390f35b620001ad62000531565b604051620001bc919062000928565b60405180910390f35b620001cf62000557565b604051620001de9190620009bc565b60405180910390f35b600260149054906101000a900460ff1681565b60066020528060005260406000206000915090505481565b600160009054906101000a900473ffffffffffffffffffffffffffffffffffffffff1673ffffffffffffffffffffffffffffffffffffffff1663441a12de826040518263ffffffff1660e01b81526004016200026f919062000a41565b602060405180830381600087803b1580156200028a57600080fd5b505af11580156200029f573d6000803e3d6000fd5b505050506040513d601f19601f82011682018060405250810190620002c5919062000770565b5050565b600360009054906101000a900473ffffffffffffffffffffffffffffffffffffffff1673ffffffffffffffffffffffffffffffffffffffff163373ffffffffffffffffffffffffffffffffffffffff161415620004db57600033905083838360405162000336906200057d565b6200034493929190620009f6565b604051809103906000f08015801562000361573d6000803e3d6000fd5b50600260006101000a81548173ffffffffffffffffffffffffffffffffffffffff021916908373ffffffffffffffffffffffffffffffffffffffff16021790555080604051620003b1906200058b565b620003bd919062000928565b604051809103906000f080158015620003da573d6000803e3d6000fd5b506000806101000a81548173ffffffffffffffffffffffffffffffffffffffff021916908373ffffffffffffffffffffffffffffffffffffffff16021790555060008054906101000a900473ffffffffffffffffffffffffffffffffffffffff1685600260009054906101000a900473ffffffffffffffffffffffffffffffffffffffff166040516200046d9062000599565b6200047b9392919062000945565b604051809103906000f08015801562000498573d6000803e3d6000fd5b50600160006101000a81548173ffffffffffffffffffffffffffffffffffffffff021916908373ffffffffffffffffffffffffffffffffffffffff160217905550505b50505050565b600260009054906101000a900473ffffffffffffffffffffffffffffffffffffffff1681565b60055481565b60008054906101000a900473ffffffffffffffffffffffffffffffffffffffff1681565b600460009054906101000a900473ffffffffffffffffffffffffffffffffffffffff1681565b600160009054906101000a900473ffffffffffffffffffffffffffffffffffffffff1681565b61258e8062000cda83390190565b6152dc806200326883390190565b6166d0806200854483390190565b6000620005be620005b88462000aa4565b62000a7b565b905082815260208101848484011115620005d757600080fd5b620005e484828562000bea565b509392505050565b600081359050620005fd8162000ca5565b92915050565b600082601f8301126200061557600080fd5b813562000627848260208601620005a7565b91505092915050565b600060c082840312156200064357600080fd5b81905092915050565b6000813590506200065d8162000cbf565b92915050565b600081519050620006748162000cbf565b92915050565b6000602082840312156200068d57600080fd5b60006200069d84828501620005ec565b91505092915050565b60008060008060808587031215620006bd57600080fd5b6000620006cd87828801620005ec565b945050602085013567ffffffffffffffff811115620006eb57600080fd5b620006f98782880162000603565b935050604085013567ffffffffffffffff8111156200071757600080fd5b620007258782880162000603565b925050606062000738878288016200064c565b91505092959194509250565b600060c082840312156200075757600080fd5b6000620007678482850162000630565b91505092915050565b6000602082840312156200078357600080fd5b6000620007938482850162000663565b91505092915050565b620007a78162000b28565b82525050565b620007b88162000b28565b82525050565b620007c98162000b3c565b82525050565b620007da8162000b72565b82525050565b620007eb8162000b9a565b82525050565b620007fc8162000bc2565b82525050565b60006200080f8262000ada565b6200081b818562000ae5565b93506200082d81856020860162000bf9565b620008388162000c94565b840191505092915050565b60c0820162000856600083018362000af6565b6200086560008501826200079c565b5062000875602083018362000af6565b6200088460208501826200079c565b5062000894604083018362000af6565b620008a360408501826200079c565b50620008b3606083018362000b0f565b620008c2606085018262000906565b50620008d2608083018362000b0f565b620008e1608085018262000906565b50620008f160a083018362000b0f565b6200090060a085018262000906565b50505050565b620009118162000b68565b82525050565b620009228162000b68565b82525050565b60006020820190506200093f6000830184620007ad565b92915050565b60006060820190506200095c6000830186620007ad565b6200096b6020830185620007ad565b6200097a6040830184620007ad565b949350505050565b6000602082019050620009996000830184620007be565b92915050565b6000602082019050620009b66000830184620007cf565b92915050565b6000602082019050620009d36000830184620007e0565b92915050565b6000602082019050620009f06000830184620007f1565b92915050565b6000606082019050818103600083015262000a12818662000802565b9050818103602083015262000a28818562000802565b905062000a39604083018462000917565b949350505050565b600060c08201905062000a58600083018462000843565b92915050565b600060208201905062000a75600083018462000917565b92915050565b600062000a8762000a9a565b905062000a95828262000c2f565b919050565b6000604051905090565b600067ffffffffffffffff82111562000ac25762000ac162000c65565b5b62000acd8262000c94565b9050602081019050919050565b600081519050919050565b600082825260208201905092915050565b600062000b076020840184620005ec565b905092915050565b600062000b2060208401846200064c565b905092915050565b600062000b358262000b48565b9050919050565b60008115159050919050565b600073ffffffffffffffffffffffffffffffffffffffff82169050919050565b6000819050919050565b600062000b7f8262000b86565b9050919050565b600062000b938262000b48565b9050919050565b600062000ba78262000bae565b9050919050565b600062000bbb8262000b48565b9050919050565b600062000bcf8262000bd6565b9050919050565b600062000be38262000b48565b9050919050565b82818337600083830152505050565b60005b8381101562000c1957808201518184015260208101905062000bfc565b8381111562000c29576000848401525b50505050565b62000c3a8262000c94565b810181811067ffffffffffffffff8211171562000c5c5762000c5b62000c65565b5b80604052505050565b7f4e487b7100000000000000000000000000000000000000000000000000000000600052604160045260246000fd5b6000601f19601f8301169050919050565b62000cb08162000b28565b811462000cbc57600080fd5b50565b62000cca8162000b68565b811462000cd657600080fd5b5056fe60806040523480156200001157600080fd5b506040516200258e3803806200258e8339818101604052810190620000379190620003e4565b8282816003908051906020019062000051929190620002ab565b5080600490805190602001906200006a929190620002ab565b50505060006200007f6200013960201b60201c565b905080600560006101000a81548173ffffffffffffffffffffffffffffffffffffffff021916908373ffffffffffffffffffffffffffffffffffffffff1602179055508073ffffffffffffffffffffffffffffffffffffffff16600073ffffffffffffffffffffffffffffffffffffffff167f8be0079c531659141344cd1fd0a4f28419497f9722a3daafe3b4186f6b6457e060405160405180910390a3506200013033826200014160201b60201c565b5050506200073d565b600033905090565b600073ffffffffffffffffffffffffffffffffffffffff168273ffffffffffffffffffffffffffffffffffffffff161415620001b4576040517f08c379a0000000000000000000000000000000000000000000000000000000008152600401620001ab90620004a4565b60405180910390fd5b620001c860008383620002a660201b60201c565b8060026000828254620001dc919062000553565b92505081905550806000808473ffffffffffffffffffffffffffffffffffffffff1673ffffffffffffffffffffffffffffffffffffffff168152602001908152602001600020600082825462000233919062000553565b925050819055508173ffffffffffffffffffffffffffffffffffffffff16600073ffffffffffffffffffffffffffffffffffffffff167fddf252ad1be2c89b69c2b068fc378daa952ba7f163c4a11628f55a4df523b3ef836040516200029a9190620004c6565b60405180910390a35050565b505050565b828054620002b990620005f0565b90600052602060002090601f016020900481019282620002dd576000855562000329565b82601f10620002f857805160ff191683800117855562000329565b8280016001018555821562000329579182015b82811115620003285782518255916020019190600101906200030b565b5b5090506200033891906200033c565b5090565b5b80821115620003575760008160009055506001016200033d565b5090565b6000620003726200036c846200050c565b620004e3565b9050828152602081018484840111156200038b57600080fd5b62000398848285620005ba565b509392505050565b600082601f830112620003b257600080fd5b8151620003c48482602086016200035b565b91505092915050565b600081519050620003de8162000723565b92915050565b600080600060608486031215620003fa57600080fd5b600084015167ffffffffffffffff8111156200041557600080fd5b6200042386828701620003a0565b935050602084015167ffffffffffffffff8111156200044157600080fd5b6200044f86828701620003a0565b92505060406200046286828701620003cd565b9150509250925092565b60006200047b601f8362000542565b91506200048882620006fa565b602082019050919050565b6200049e81620005b0565b82525050565b60006020820190508181036000830152620004bf816200046c565b9050919050565b6000602082019050620004dd600083018462000493565b92915050565b6000620004ef62000502565b9050620004fd828262000626565b919050565b6000604051905090565b600067ffffffffffffffff8211156200052a5762000529620006ba565b5b6200053582620006e9565b9050602081019050919050565b600082825260208201905092915050565b60006200056082620005b0565b91506200056d83620005b0565b9250827fffffffffffffffffffffffffffffffffffffffffffffffffffffffffffffffff03821115620005a557620005a46200065c565b5b828201905092915050565b6000819050919050565b60005b83811015620005da578082015181840152602081019050620005bd565b83811115620005ea576000848401525b50505050565b600060028204905060018216806200060957607f821691505b6020821081141562000620576200061f6200068b565b5b50919050565b6200063182620006e9565b810181811067ffffffffffffffff82111715620006535762000652620006ba565b5b80604052505050565b7f4e487b7100000000000000000000000000000000000000000000000000000000600052601160045260246000fd5b7f4e487b7100000000000000000000000000000000000000000000000000000000600052602260045260246000fd5b7f4e487b7100000000000000000000000000000000000000000000000000000000600052604160045260246000fd5b6000601f19601f8301169050919050565b7f45524332303a206d696e7420746f20746865207a65726f206164647265737300600082015250565b6200072e81620005b0565b81146200073a57600080fd5b50565b611e41806200074d6000396000f3fe608060405234801561001057600080fd5b506004361061010b5760003560e01c8063715018a6116100a2578063a9059cbb11610071578063a9059cbb146102bc578063b609995e146102ec578063beceed3914610308578063dd62ed3e14610338578063f2fde38b146103685761010b565b8063715018a6146102465780638da5cb5b1461025057806395d89b411461026e578063a457c2d71461028c5761010b565b806323b872dd116100de57806323b872dd14610198578063313ce567146101c857806339509351146101e657806370a08231146102165761010b565b806306fdde0314610110578063095ea7b31461012e578063111e03761461015e57806318160ddd1461017a575b600080fd5b610118610384565b604051610125919061173b565b60405180910390f35b610148600480360381019061014391906114f0565b610416565b6040516101559190611720565b60405180910390f35b6101786004803603810190610173919061143c565b610434565b005b610182610572565b60405161018f919061187d565b60405180910390f35b6101b260048036038101906101ad91906114a1565b61057c565b6040516101bf9190611720565b60405180910390f35b6101d061067d565b6040516101dd9190611898565b60405180910390f35b61020060048036038101906101fb91906114f0565b610686565b60405161020d9190611720565b60405180910390f35b610230600480360381019061022b919061143c565b610732565b60405161023d919061187d565b60405180910390f35b61024e610757565b005b610258610894565b6040516102659190611705565b60405180910390f35b6102766108be565b604051610283919061173b565b60405180910390f35b6102a660048036038101906102a191906114f0565b610950565b6040516102b39190611720565b60405180910390f35b6102d660048036038101906102d191906114f0565b610a44565b6040516102e39190611720565b60405180910390f35b6103066004803603810190610301919061143c565b610a62565b005b610322600480360381019061031d919061152c565b610b97565b60405161032f9190611720565b60405180910390f35b610352600480360381019061034d9190611465565b610baa565b60405161035f919061187d565b60405180910390f35b610382600480360381019061037d919061143c565b610c31565b005b60606003805461039390611a6c565b80601f01602080910402602001604051908101604052809291908181526020018280546103bf90611a6c565b801561040c5780601f106103e15761010080835404028352916020019161040c565b820191906000526020600020905b8154815290600101906020018083116103ef57829003601f168201915b5050505050905090565b600061042a610423610ddd565b8484610de5565b6001905092915050565b8061043e30610fb0565b600760008373ffffffffffffffffffffffffffffffffffffffff1673ffffffffffffffffffffffffffffffffffffffff16815260200190815260200160002081905550600061048c82610ff8565b9050610499308383611117565b6104a1610ddd565b73ffffffffffffffffffffffffffffffffffffffff166104bf610894565b73ffffffffffffffffffffffffffffffffffffffff1614610515576040517f08c379a000000000000000000000000000000000000000000000000000000000815260040161050c906117fd565b60405180910390fd5b6001600660008573ffffffffffffffffffffffffffffffffffffffff1673ffffffffffffffffffffffffffffffffffffffff16815260200190815260200160002060006101000a81548160ff021916908315150217905550505050565b6000600254905090565b6000610589848484611396565b6000600160008673ffffffffffffffffffffffffffffffffffffffff1673ffffffffffffffffffffffffffffffffffffffff16815260200190815260200160002060006105d4610ddd565b73ffffffffffffffffffffffffffffffffffffffff1673ffffffffffffffffffffffffffffffffffffffff16815260200190815260200160002054905082811015610654576040517f08c379a000000000000000000000000000000000000000000000000000000000815260040161064b906117dd565b60405180910390fd5b61067185610660610ddd565b858461066c91906119b0565b610de5565b60019150509392505050565b60006012905090565b6000610728610693610ddd565b8484600160006106a1610ddd565b73ffffffffffffffffffffffffffffffffffffffff1673ffffffffffffffffffffffffffffffffffffffff16815260200190815260200160002060008873ffffffffffffffffffffffffffffffffffffffff1673ffffffffffffffffffffffffffffffffffffffff1681526020019081526020016000205461072391906118cf565b610de5565b6001905092915050565b600061073d82610ff8565b61074683610fb0565b61075091906118cf565b9050919050565b61075f610ddd565b73ffffffffffffffffffffffffffffffffffffffff1661077d610894565b73ffffffffffffffffffffffffffffffffffffffff16146107d3576040517f08c379a00000000000000000000000000000000000000000000000000000000081526004016107ca906117fd565b60405180910390fd5b600073ffffffffffffffffffffffffffffffffffffffff16600560009054906101000a900473ffffffffffffffffffffffffffffffffffffffff1673ffffffffffffffffffffffffffffffffffffffff167f8be0079c531659141344cd1fd0a4f28419497f9722a3daafe3b4186f6b6457e060405160405180910390a36000600560006101000a81548173ffffffffffffffffffffffffffffffffffffffff021916908373ffffffffffffffffffffffffffffffffffffffff160217905550565b6000600560009054906101000a900473ffffffffffffffffffffffffffffffffffffffff16905090565b6060600480546108cd90611a6c565b80601f01602080910402602001604051908101604052809291908181526020018280546108f990611a6c565b80156109465780601f1061091b57610100808354040283529160200191610946565b820191906000526020600020905b81548152906001019060200180831161092957829003601f168201915b5050505050905090565b6000806001600061095f610ddd565b73ffffffffffffffffffffffffffffffffffffffff1673ffffffffffffffffffffffffffffffffffffffff16815260200190815260200160002060008573ffffffffffffffffffffffffffffffffffffffff1673ffffffffffffffffffffffffffffffffffffffff16815260200190815260200160002054905082811015610a1c576040517f08c379a0000000000000000000000000000000000000000000000000000000008152600401610a139061185d565b60405180910390fd5b610a39610a27610ddd565b858584610a3491906119b0565b610de5565b600191505092915050565b6000610a58610a51610ddd565b8484611396565b6001905092915050565b80610a6c30610fb0565b600760008373ffffffffffffffffffffffffffffffffffffffff1673ffffffffffffffffffffffffffffffffffffffff168152602001908152602001600020819055506000610aba82610ff8565b9050610ac7308383611117565b610acf610ddd565b73ffffffffffffffffffffffffffffffffffffffff16610aed610894565b73ffffffffffffffffffffffffffffffffffffffff1614610b43576040517f08c379a0000000000000000000000000000000000000000000000000000000008152600401610b3a906117fd565b60405180910390fd5b600660008473ffffffffffffffffffffffffffffffffffffffff1673ffffffffffffffffffffffffffffffffffffffff16815260200190815260200160002060006101000a81549060ff0219169055505050565b6000610ba33083610a44565b9050919050565b6000600160008473ffffffffffffffffffffffffffffffffffffffff1673ffffffffffffffffffffffffffffffffffffffff16815260200190815260200160002060008373ffffffffffffffffffffffffffffffffffffffff1673ffffffffffffffffffffffffffffffffffffffff16815260200190815260200160002054905092915050565b610c39610ddd565b73ffffffffffffffffffffffffffffffffffffffff16610c57610894565b73ffffffffffffffffffffffffffffffffffffffff1614610cad576040517f08c379a0000000000000000000000000000000000000000000000000000000008152600401610ca4906117fd565b60405180910390fd5b600073ffffffffffffffffffffffffffffffffffffffff168173ffffffffffffffffffffffffffffffffffffffff161415610d1d576040517f08c379a0000000000000000000000000000000000000000000000000000000008152600401610d149061177d565b60405180910390fd5b8073ffffffffffffffffffffffffffffffffffffffff16600560009054906101000a900473ffffffffffffffffffffffffffffffffffffffff1673ffffffffffffffffffffffffffffffffffffffff167f8be0079c531659141344cd1fd0a4f28419497f9722a3daafe3b4186f6b6457e060405160405180910390a380600560006101000a81548173ffffffffffffffffffffffffffffffffffffffff021916908373ffffffffffffffffffffffffffffffffffffffff16021790555050565b600033905090565b600073ffffffffffffffffffffffffffffffffffffffff168373ffffffffffffffffffffffffffffffffffffffff161415610e55576040517f08c379a0000000000000000000000000000000000000000000000000000000008152600401610e4c9061183d565b60405180910390fd5b600073ffffffffffffffffffffffffffffffffffffffff168273ffffffffffffffffffffffffffffffffffffffff161415610ec5576040517f08c379a0000000000000000000000000000000000000000000000000000000008152600401610ebc9061179d565b60405180910390fd5b80600160008573ffffffffffffffffffffffffffffffffffffffff1673ffffffffffffffffffffffffffffffffffffffff16815260200190815260200160002060008473ffffffffffffffffffffffffffffffffffffffff1673ffffffffffffffffffffffffffffffffffffffff168152602001908152602001600020819055508173ffffffffffffffffffffffffffffffffffffffff168373ffffffffffffffffffffffffffffffffffffffff167f8c5be1e5ebec7d5bd14f71427d1e84f3dd0314c0f7b2291e5b200ac8c7c3b92583604051610fa3919061187d565b60405180910390a3505050565b60008060008373ffffffffffffffffffffffffffffffffffffffff1673ffffffffffffffffffffffffffffffffffffffff168152602001908152602001600020549050919050565b60003073ffffffffffffffffffffffffffffffffffffffff168273ffffffffffffffffffffffffffffffffffffffff16148061107d5750600660008373ffffffffffffffffffffffffffffffffffffffff1673ffffffffffffffffffffffffffffffffffffffff16815260200190815260200160002060009054906101000a900460ff165b1561108b5760009050611112565b600061109683610fb0565b905060006110a330610fb0565b90506110ad610572565b600760008673ffffffffffffffffffffffffffffffffffffffff1673ffffffffffffffffffffffffffffffffffffffff16815260200190815260200160002054826110f891906119b0565b836111039190611956565b61110d9190611925565b925050505b919050565b600073ffffffffffffffffffffffffffffffffffffffff168373ffffffffffffffffffffffffffffffffffffffff161415611187576040517f08c379a000000000000000000000000000000000000000000000000000000000815260040161117e9061181d565b60405180910390fd5b600073ffffffffffffffffffffffffffffffffffffffff168273ffffffffffffffffffffffffffffffffffffffff1614156111f7576040517f08c379a00000000000000000000000000000000000000000000000000000000081526004016111ee9061175d565b60405180910390fd5b61120283838361140d565b60008060008573ffffffffffffffffffffffffffffffffffffffff1673ffffffffffffffffffffffffffffffffffffffff16815260200190815260200160002054905081811015611288576040517f08c379a000000000000000000000000000000000000000000000000000000000815260040161127f906117bd565b60405180910390fd5b818161129491906119b0565b6000808673ffffffffffffffffffffffffffffffffffffffff1673ffffffffffffffffffffffffffffffffffffffff16815260200190815260200160002081905550816000808573ffffffffffffffffffffffffffffffffffffffff1673ffffffffffffffffffffffffffffffffffffffff168152602001908152602001600020600082825461132491906118cf565b925050819055508273ffffffffffffffffffffffffffffffffffffffff168473ffffffffffffffffffffffffffffffffffffffff167fddf252ad1be2c89b69c2b068fc378daa952ba7f163c4a11628f55a4df523b3ef84604051611388919061187d565b60405180910390a350505050565b826113a030610fb0565b600760008373ffffffffffffffffffffffffffffffffffffffff1673ffffffffffffffffffffffffffffffffffffffff1681526020019081526020016000208190555060006113ee82610ff8565b90506113fb308383611117565b611406858585611117565b5050505050565b505050565b60008135905061142181611ddd565b92915050565b60008135905061143681611df4565b92915050565b60006020828403121561144e57600080fd5b600061145c84828501611412565b91505092915050565b6000806040838503121561147857600080fd5b600061148685828601611412565b925050602061149785828601611412565b9150509250929050565b6000806000606084860312156114b657600080fd5b60006114c486828701611412565b93505060206114d586828701611412565b92505060406114e686828701611427565b9150509250925092565b6000806040838503121561150357600080fd5b600061151185828601611412565b925050602061152285828601611427565b9150509250929050565b60006020828403121561153e57600080fd5b600061154c84828501611427565b91505092915050565b61155e816119e4565b82525050565b61156d816119f6565b82525050565b600061157e826118b3565b61158881856118be565b9350611598818560208601611a39565b6115a181611b2b565b840191505092915050565b60006115b96023836118be565b91506115c482611b3c565b604082019050919050565b60006115dc6026836118be565b91506115e782611b8b565b604082019050919050565b60006115ff6022836118be565b915061160a82611bda565b604082019050919050565b60006116226026836118be565b915061162d82611c29565b604082019050919050565b60006116456028836118be565b915061165082611c78565b604082019050919050565b60006116686020836118be565b915061167382611cc7565b602082019050919050565b600061168b6025836118be565b915061169682611cf0565b604082019050919050565b60006116ae6024836118be565b91506116b982611d3f565b604082019050919050565b60006116d16025836118be565b91506116dc82611d8e565b604082019050919050565b6116f081611a22565b82525050565b6116ff81611a2c565b82525050565b600060208201905061171a6000830184611555565b92915050565b60006020820190506117356000830184611564565b92915050565b600060208201905081810360008301526117558184611573565b905092915050565b60006020820190508181036000830152611776816115ac565b9050919050565b60006020820190508181036000830152611796816115cf565b9050919050565b600060208201905081810360008301526117b6816115f2565b9050919050565b600060208201905081810360008301526117d681611615565b9050919050565b600060208201905081810360008301526117f681611638565b9050919050565b600060208201905081810360008301526118168161165b565b9050919050565b600060208201905081810360008301526118368161167e565b9050919050565b60006020820190508181036000830152611856816116a1565b9050919050565b60006020820190508181036000830152611876816116c4565b9050919050565b600060208201905061189260008301846116e7565b92915050565b60006020820190506118ad60008301846116f6565b92915050565b600081519050919050565b600082825260208201905092915050565b60006118da82611a22565b91506118e583611a22565b9250827fffffffffffffffffffffffffffffffffffffffffffffffffffffffffffffffff0382111561191a57611919611a9e565b5b828201905092915050565b600061193082611a22565b915061193b83611a22565b92508261194b5761194a611acd565b5b828204905092915050565b600061196182611a22565b915061196c83611a22565b9250817fffffffffffffffffffffffffffffffffffffffffffffffffffffffffffffffff04831182151516156119a5576119a4611a9e565b5b828202905092915050565b60006119bb82611a22565b91506119c683611a22565b9250828210156119d9576119d8611a9e565b5b828203905092915050565b60006119ef82611a02565b9050919050565b60008115159050919050565b600073ffffffffffffffffffffffffffffffffffffffff82169050919050565b6000819050919050565b600060ff82169050919050565b60005b83811015611a57578082015181840152602081019050611a3c565b83811115611a66576000848401525b50505050565b60006002820490506001821680611a8457607f821691505b60208210811415611a9857611a97611afc565b5b50919050565b7f4e487b7100000000000000000000000000000000000000000000000000000000600052601160045260246000fd5b7f4e487b7100000000000000000000000000000000000000000000000000000000600052601260045260246000fd5b7f4e487b7100000000000000000000000000000000000000000000000000000000600052602260045260246000fd5b6000601f19601f8301169050919050565b7f45524332303a207472616e7366657220746f20746865207a65726f206164647260008201527f6573730000000000000000000000000000000000000000000000000000000000602082015250565b7f4f776e61626c653a206e6577206f776e657220697320746865207a65726f206160008201527f6464726573730000000000000000000000000000000000000000000000000000602082015250565b7f45524332303a20617070726f766520746f20746865207a65726f20616464726560008201527f7373000000000000000000000000000000000000000000000000000000000000602082015250565b7f45524332303a207472616e7366657220616d6f756e742065786365656473206260008201527f616c616e63650000000000000000000000000000000000000000000000000000602082015250565b7f45524332303a207472616e7366657220616d6f756e742065786365656473206160008201527f6c6c6f77616e6365000000000000000000000000000000000000000000000000602082015250565b7f4f776e61626c653a2063616c6c6572206973206e6f7420746865206f776e6572600082015250565b7f45524332303a207472616e736665722066726f6d20746865207a65726f20616460008201527f6472657373000000000000000000000000000000000000000000000000000000602082015250565b7f45524332303a20617070726f76652066726f6d20746865207a65726f2061646460008201527f7265737300000000000000000000000000000000000000000000000000000000602082015250565b7f45524332303a2064656372656173656420616c6c6f77616e63652062656c6f7760008201527f207a65726f000000000000000000000000000000000000000000000000000000602082015250565b611de6816119e4565b8114611df157600080fd5b50565b611dfd81611a22565b8114611e0857600080fd5b5056fea2646970667358221220cdbc90a51ef08b68c6e069725b9aa59c8565a0900dfe264b49353fec78bfa5f264736f6c634300080400336080604052622dc6c060015534801561001757600080fd5b50604051620052dc380380620052dc833981810160405281019061003b9190610096565b806000806101000a81548173ffffffffffffffffffffffffffffffffffffffff021916908373ffffffffffffffffffffffffffffffffffffffff16021790555050610108565b600081519050610090816100f1565b92915050565b6000602082840312156100a857600080fd5b60006100b684828501610081565b91505092915050565b60006100ca826100d1565b9050919050565b600073ffffffffffffffffffffffffffffffffffffffff82169050919050565b6100fa816100bf565b811461010557600080fd5b50565b6151c480620001186000396000f3fe60806040523480156200001157600080fd5b5060043610620000a05760003560e01c806387cf3ef4116200006f57806387cf3ef4146200013f578063b19805af1462000161578063c9c653961462000181578063ddca3f4314620001b7578063e6a4390514620001d957620000a0565b80631e3dd18b14620000a557806346870d2b14620000db578063574f2ba314620000fd57806369fe0e2d146200011f575b600080fd5b620000c36004803603810190620000bd919062000ab5565b6200020f565b604051620000d2919062000c11565b60405180910390f35b620000e56200024f565b604051620000f4919062000d32565b60405180910390f35b6200010762000275565b60405162000116919062000d32565b60405180910390f35b6200013d600480360381019062000137919062000ab5565b62000282565b005b620001496200036a565b60405162000158919062000c11565b60405180910390f35b6200017f600480360381019062000179919062000a48565b6200038e565b005b6200019f600480360381019062000199919062000a74565b62000462565b604051620001ae919062000c11565b60405180910390f35b620001c1620009c4565b604051620001d0919062000d32565b60405180910390f35b620001f76004803603810190620001f1919062000a74565b620009ca565b60405162000206919062000c11565b60405180910390f35b600381815481106200022057600080fd5b906000526020600020016000915054906101000a900473ffffffffffffffffffffffffffffffffffffffff1681565b6000601e600560015462000264919062000d98565b62000270919062000d60565b905090565b6000600380549050905090565b60008054906101000a900473ffffffffffffffffffffffffffffffffffffffff1673ffffffffffffffffffffffffffffffffffffffff163373ffffffffffffffffffffffffffffffffffffffff161462000313576040517f08c379a00000000000000000000000000000000000000000000000000000000081526004016200030a9062000d10565b60405180910390fd5b670de0b6b3a7640000811062000360576040517f08c379a0000000000000000000000000000000000000000000000000000000008152600401620003579062000c88565b60405180910390fd5b8060018190555050565b60008054906101000a900473ffffffffffffffffffffffffffffffffffffffff1681565b60008054906101000a900473ffffffffffffffffffffffffffffffffffffffff1673ffffffffffffffffffffffffffffffffffffffff163373ffffffffffffffffffffffffffffffffffffffff16146200041f576040517f08c379a0000000000000000000000000000000000000000000000000000000008152600401620004169062000d10565b60405180910390fd5b806000806101000a81548173ffffffffffffffffffffffffffffffffffffffff021916908373ffffffffffffffffffffffffffffffffffffffff16021790555050565b60008173ffffffffffffffffffffffffffffffffffffffff168373ffffffffffffffffffffffffffffffffffffffff161415620004d6576040517f08c379a0000000000000000000000000000000000000000000000000000000008152600401620004cd9062000ccc565b60405180910390fd5b6000808373ffffffffffffffffffffffffffffffffffffffff168573ffffffffffffffffffffffffffffffffffffffff16106200051557838562000518565b84845b91509150600073ffffffffffffffffffffffffffffffffffffffff168273ffffffffffffffffffffffffffffffffffffffff1614156200058f576040517f08c379a0000000000000000000000000000000000000000000000000000000008152600401620005869062000caa565b60405180910390fd5b600073ffffffffffffffffffffffffffffffffffffffff16600260008473ffffffffffffffffffffffffffffffffffffffff1673ffffffffffffffffffffffffffffffffffffffff16815260200190815260200160002060008373ffffffffffffffffffffffffffffffffffffffff1673ffffffffffffffffffffffffffffffffffffffff16815260200190815260200160002060009054906101000a900473ffffffffffffffffffffffffffffffffffffffff1673ffffffffffffffffffffffffffffffffffffffff16146200069d576040517f08c379a0000000000000000000000000000000000000000000000000000000008152600401620006949062000cee565b60405180910390fd5b600060405180602001620006b19062000a0c565b6020820181038252601f19601f82011660405250905060008383604051602001620006de92919062000be1565b604051602081830303815290604052805190602001209050808251602084016000f594508473ffffffffffffffffffffffffffffffffffffffff1663485cc95585856040518363ffffffff1660e01b81526004016200073f92919062000c2e565b600060405180830381600087803b1580156200075a57600080fd5b505af11580156200076f573d6000803e3d6000fd5b5050505084600260008673ffffffffffffffffffffffffffffffffffffffff1673ffffffffffffffffffffffffffffffffffffffff16815260200190815260200160002060008573ffffffffffffffffffffffffffffffffffffffff1673ffffffffffffffffffffffffffffffffffffffff16815260200190815260200160002060006101000a81548173ffffffffffffffffffffffffffffffffffffffff021916908373ffffffffffffffffffffffffffffffffffffffff16021790555084600260008573ffffffffffffffffffffffffffffffffffffffff1673ffffffffffffffffffffffffffffffffffffffff16815260200190815260200160002060008673ffffffffffffffffffffffffffffffffffffffff1673ffffffffffffffffffffffffffffffffffffffff16815260200190815260200160002060006101000a81548173ffffffffffffffffffffffffffffffffffffffff021916908373ffffffffffffffffffffffffffffffffffffffff1602179055506003859080600181540180825580915050600190039060005260206000200160009091909190916101000a81548173ffffffffffffffffffffffffffffffffffffffff021916908373ffffffffffffffffffffffffffffffffffffffff1602179055508273ffffffffffffffffffffffffffffffffffffffff168473ffffffffffffffffffffffffffffffffffffffff167f0d3648bd0f6ba80134a33ba9275ac585d9d315f0ad8355cddefde31afa28d0e987600380549050604051620009b292919062000c5b565b60405180910390a35050505092915050565b60015481565b60026020528160005260406000206020528060005260406000206000915091509054906101000a900473ffffffffffffffffffffffffffffffffffffffff1681565b6141c38062000fcc83390190565b60008135905062000a2b8162000f97565b92915050565b60008135905062000a428162000fb1565b92915050565b60006020828403121562000a5b57600080fd5b600062000a6b8482850162000a1a565b91505092915050565b6000806040838503121562000a8857600080fd5b600062000a988582860162000a1a565b925050602062000aab8582860162000a1a565b9150509250929050565b60006020828403121562000ac857600080fd5b600062000ad88482850162000a31565b91505092915050565b62000aec8162000df9565b82525050565b62000b0762000b018262000df9565b62000e37565b82525050565b600062000b1c60128362000d4f565b915062000b298262000eca565b602082019050919050565b600062000b4360178362000d4f565b915062000b508262000ef3565b602082019050919050565b600062000b6a601e8362000d4f565b915062000b778262000f1c565b602082019050919050565b600062000b9160168362000d4f565b915062000b9e8262000f45565b602082019050919050565b600062000bb860148362000d4f565b915062000bc58262000f6e565b602082019050919050565b62000bdb8162000e2d565b82525050565b600062000bef828562000af2565b60148201915062000c01828462000af2565b6014820191508190509392505050565b600060208201905062000c28600083018462000ae1565b92915050565b600060408201905062000c45600083018562000ae1565b62000c54602083018462000ae1565b9392505050565b600060408201905062000c72600083018562000ae1565b62000c81602083018462000bd0565b9392505050565b6000602082019050818103600083015262000ca38162000b0d565b9050919050565b6000602082019050818103600083015262000cc58162000b34565b9050919050565b6000602082019050818103600083015262000ce78162000b5b565b9050919050565b6000602082019050818103600083015262000d098162000b82565b9050919050565b6000602082019050818103600083015262000d2b8162000ba9565b9050919050565b600060208201905062000d49600083018462000bd0565b92915050565b600082825260208201905092915050565b600062000d6d8262000e2d565b915062000d7a8362000e2d565b92508262000d8d5762000d8c62000e8e565b5b828204905092915050565b600062000da58262000e2d565b915062000db28362000e2d565b9250817fffffffffffffffffffffffffffffffffffffffffffffffffffffffffffffffff048311821515161562000dee5762000ded62000e5f565b5b828202905092915050565b600062000e068262000e0d565b9050919050565b600073ffffffffffffffffffffffffffffffffffffffff82169050919050565b6000819050919050565b600062000e448262000e4b565b9050919050565b600062000e588262000ebd565b9050919050565b7f4e487b7100000000000000000000000000000000000000000000000000000000600052601160045260246000fd5b7f4e487b7100000000000000000000000000000000000000000000000000000000600052601260045260246000fd5b60008160601b9050919050565b7f506f636b6574537761703a4249475f4645450000000000000000000000000000600082015250565b7f506f636b6574537761703a5a45524f5f41444452455353000000000000000000600082015250565b7f506f636b6574537761703a4944454e544943414c5f4144445245535345530000600082015250565b7f506f636b6574537761703a504149525f45584953545300000000000000000000600082015250565b7f506f636b6574537761703a464f5242494444454e000000000000000000000000600082015250565b62000fa28162000df9565b811462000fae57600080fd5b50565b62000fbc8162000e2d565b811462000fc857600080fd5b5056fe60806040526001600b553480156200001657600080fd5b5060004690507f8b73c3c69bb8fe3d512ecc4cf759cc79239f7b179b0ffacaa9a75d522b39400f6040518060400160405280600a81526020017f506f636b65745377617000000000000000000000000000000000000000000000815250805190602001206040518060400160405280600181526020017f3100000000000000000000000000000000000000000000000000000000000000815250805190602001208330604051602001620000cf95949392919062000166565b604051602081830303815290604052805190602001206003819055505033600560006101000a81548173ffffffffffffffffffffffffffffffffffffffff021916908373ffffffffffffffffffffffffffffffffffffffff1602179055506200020b565b6200013e81620001c3565b82525050565b6200014f81620001d7565b82525050565b620001608162000201565b82525050565b600060a0820190506200017d600083018862000144565b6200018c602083018762000144565b6200019b604083018662000144565b620001aa606083018562000155565b620001b9608083018462000133565b9695505050505050565b6000620001d082620001e1565b9050919050565b6000819050919050565b600073ffffffffffffffffffffffffffffffffffffffff82169050919050565b6000819050919050565b613fa8806200021b6000396000f3fe608060405234801561001057600080fd5b506004361061018e5760003560e01c80636a627842116100de578063ba9a7a5611610097578063d21220a711610071578063d21220a7146104a2578063d505accf146104c0578063dd62ed3e146104dc578063fff6cae91461050c5761018e565b8063ba9a7a561461044a578063bc25cf7714610468578063c45a0155146104845761018e565b80636a6278421461033b57806370a082311461036b5780637ecebe001461039b57806389afcb44146103cb57806395d89b41146103fc578063a9059cbb1461041a5761018e565b806323b872dd1161014b5780633644e515116101255780633644e515146102c5578063485cc955146102e35780635909c0d5146102ff5780635a3d54931461031d5761018e565b806323b872dd1461025957806330adf81f14610289578063313ce567146102a75761018e565b8063022c0d9f1461019357806306fdde03146101af5780630902f1ac146101cd578063095ea7b3146101ed5780630dfe16811461021d57806318160ddd1461023b575b600080fd5b6101ad60048036038101906101a89190612dd0565b610516565b005b6101b7610d98565b6040516101c49190613358565b60405180910390f35b6101d5610dd1565b6040516101e493929190613563565b60405180910390f35b61020760048036038101906102029190612d42565b610e2e565b604051610214919061327c565b60405180910390f35b610225610e45565b6040516102329190613238565b60405180910390f35b610243610e6b565b604051610250919061359a565b60405180910390f35b610273600480360381019061026e9190612c55565b610e71565b604051610280919061327c565b60405180910390f35b61029161103c565b60405161029e9190613297565b60405180910390f35b6102af611063565b6040516102bc9190613663565b60405180910390f35b6102cd611068565b6040516102da9190613297565b60405180910390f35b6102fd60048036038101906102f89190612c19565b61106e565b005b610307611184565b604051610314919061359a565b60405180910390f35b61032561118a565b604051610332919061359a565b60405180910390f35b61035560048036038101906103509190612bf0565b611190565b604051610362919061359a565b60405180910390f35b61038560048036038101906103809190612bf0565b611511565b604051610392919061359a565b60405180910390f35b6103b560048036038101906103b09190612bf0565b611529565b6040516103c2919061359a565b60405180910390f35b6103e560048036038101906103e09190612bf0565b611541565b6040516103f39291906135b5565b60405180910390f35b6104046119a0565b6040516104119190613358565b60405180910390f35b610434600480360381019061042f9190612d42565b6119d9565b604051610441919061327c565b60405180910390f35b6104526119f0565b60405161045f919061359a565b60405180910390f35b610482600480360381019061047d9190612bf0565b6119f6565b005b61048c611c40565b6040516104999190613238565b60405180910390f35b6104aa611c66565b6040516104b79190613238565b60405180910390f35b6104da60048036038101906104d59190612ca4565b611c8c565b005b6104f660048036038101906104f19190612c19565b611eb4565b604051610503919061359a565b60405180910390f35b610514611ed9565b005b6001600b541461055b576040517f08c379a00000000000000000000000000000000000000000000000000000000081526004016105529061341a565b60405180910390fd5b6000600b8190555060008511806105725750600084115b6105b1576040517f08c379a00000000000000000000000000000000000000000000000000000000081526004016105a89061349a565b60405180910390fd5b6000806105bc610dd1565b5091509150816dffffffffffffffffffffffffffff16871080156105ef5750806dffffffffffffffffffffffffffff1686105b61062e576040517f08c379a0000000000000000000000000000000000000000000000000000000008152600401610625906133fa565b60405180910390fd5b6000806000600660009054906101000a900473ffffffffffffffffffffffffffffffffffffffff1690506000600760009054906101000a900473ffffffffffffffffffffffffffffffffffffffff1690508173ffffffffffffffffffffffffffffffffffffffff168973ffffffffffffffffffffffffffffffffffffffff16141580156106e757508073ffffffffffffffffffffffffffffffffffffffff168973ffffffffffffffffffffffffffffffffffffffff1614155b610726576040517f08c379a000000000000000000000000000000000000000000000000000000000815260040161071d906134fa565b60405180910390fd5b60008b111561073b5761073a828a8d6120c8565b5b60008a11156107505761074f818a8c6120c8565b5b600088889050111561088c573373ffffffffffffffffffffffffffffffffffffffff16637936cd908c8c8b8b6040518563ffffffff1660e01b815260040161079b94939291906135de565b600060405180830381600087803b1580156107b557600080fd5b505af19250505080156107c6575060015b61088b576107d2613adb565b806308c379a0141561084e57506107e7613e69565b806107f25750610850565b806040516020016108039190613216565b6040516020818303038152906040526040517f08c379a00000000000000000000000000000000000000000000000000000000081526004016108459190613358565b60405180910390fd5b505b6040517f08c379a0000000000000000000000000000000000000000000000000000000008152600401610882906133da565b60405180910390fd5b5b8173ffffffffffffffffffffffffffffffffffffffff166370a08231306040518263ffffffff1660e01b81526004016108c59190613238565b60206040518083038186803b1580156108dd57600080fd5b505afa1580156108f1573d6000803e3d6000fd5b505050506040513d601f19601f820116820180604052508101906109159190612da7565b93508073ffffffffffffffffffffffffffffffffffffffff166370a08231306040518263ffffffff1660e01b81526004016109509190613238565b60206040518083038186803b15801561096857600080fd5b505afa15801561097c573d6000803e3d6000fd5b505050506040513d601f19601f820116820180604052508101906109a09190612da7565b92505050600089856dffffffffffffffffffffffffffff166109c2919061383e565b83116109cf5760006109f7565b89856dffffffffffffffffffffffffffff166109eb919061383e565b836109f6919061383e565b5b9050600089856dffffffffffffffffffffffffffff16610a17919061383e565b8311610a24576000610a4c565b89856dffffffffffffffffffffffffffff16610a40919061383e565b83610a4b919061383e565b5b90506000821180610a5d5750600081115b610a9c576040517f08c379a0000000000000000000000000000000000000000000000000000000008152600401610a939061337a565b60405180910390fd5b6000600560009054906101000a900473ffffffffffffffffffffffffffffffffffffffff1673ffffffffffffffffffffffffffffffffffffffff166346870d2b6040518163ffffffff1660e01b815260040160206040518083038186803b158015610b0657600080fd5b505afa158015610b1a573d6000803e3d6000fd5b505050506040513d601f19601f82011682018060405250810190610b3e9190612da7565b600560009054906101000a900473ffffffffffffffffffffffffffffffffffffffff1673ffffffffffffffffffffffffffffffffffffffff1663ddca3f436040518163ffffffff1660e01b815260040160206040518083038186803b158015610ba657600080fd5b505afa158015610bba573d6000803e3d6000fd5b505050506040513d601f19601f82011682018060405250810190610bde9190612da7565b610be8919061383e565b90506000610c27610c02838661225290919063ffffffff16565b610c19633b9aca008961225290919063ffffffff16565b61226890919063ffffffff16565b90506000610c66610c41848661225290919063ffffffff16565b610c58633b9aca008961225290919063ffffffff16565b61226890919063ffffffff16565b9050610cb5670de0b6b3a7640000610ca78a6dffffffffffffffffffffffffffff168c6dffffffffffffffffffffffffffff1661225290919063ffffffff16565b61225290919063ffffffff16565b610cc8828461225290919063ffffffff16565b1015610d09576040517f08c379a0000000000000000000000000000000000000000000000000000000008152600401610d009061345a565b60405180910390fd5b505050610d188484888861227e565b8873ffffffffffffffffffffffffffffffffffffffff163373ffffffffffffffffffffffffffffffffffffffff167fd78ad95fa46c994b6551d0da85fc275fe613ce37657fb8d5e3d130840159d82284848f8f604051610d7b949392919061361e565b60405180910390a35050505050506001600b819055505050505050565b6040518060400160405280600a81526020017f506f636b6574537761700000000000000000000000000000000000000000000081525081565b6000806000600a60009054906101000a90046dffffffffffffffffffffffffffff169250600a600e9054906101000a90046dffffffffffffffffffffffffffff169150600a601c9054906101000a900463ffffffff169050909192565b6000610e3b338484612572565b6001905092915050565b600660009054906101000a900473ffffffffffffffffffffffffffffffffffffffff1681565b60005481565b60007fffffffffffffffffffffffffffffffffffffffffffffffffffffffffffffffff600260008673ffffffffffffffffffffffffffffffffffffffff1673ffffffffffffffffffffffffffffffffffffffff16815260200190815260200160002060003373ffffffffffffffffffffffffffffffffffffffff1673ffffffffffffffffffffffffffffffffffffffff168152602001908152602001600020541461102657610fa582600260008773ffffffffffffffffffffffffffffffffffffffff1673ffffffffffffffffffffffffffffffffffffffff16815260200190815260200160002060003373ffffffffffffffffffffffffffffffffffffffff1673ffffffffffffffffffffffffffffffffffffffff1681526020019081526020016000205461226890919063ffffffff16565b600260008673ffffffffffffffffffffffffffffffffffffffff1673ffffffffffffffffffffffffffffffffffffffff16815260200190815260200160002060003373ffffffffffffffffffffffffffffffffffffffff1673ffffffffffffffffffffffffffffffffffffffff168152602001908152602001600020819055505b61103184848461265d565b600190509392505050565b7f6e71edae12b1b97f4d1f60370fef10105fa2faae0126114a169c64845d6126c960001b81565b601281565b60035481565b600560009054906101000a900473ffffffffffffffffffffffffffffffffffffffff1673ffffffffffffffffffffffffffffffffffffffff163373ffffffffffffffffffffffffffffffffffffffff16146110fe576040517f08c379a00000000000000000000000000000000000000000000000000000000081526004016110f5906134da565b60405180910390fd5b81600660006101000a81548173ffffffffffffffffffffffffffffffffffffffff021916908373ffffffffffffffffffffffffffffffffffffffff16021790555080600760006101000a81548173ffffffffffffffffffffffffffffffffffffffff021916908373ffffffffffffffffffffffffffffffffffffffff1602179055505050565b60085481565b60095481565b60006001600b54146111d7576040517f08c379a00000000000000000000000000000000000000000000000000000000081526004016111ce9061341a565b60405180910390fd5b6000600b819055506000806111ea610dd1565b50915091506000600660009054906101000a900473ffffffffffffffffffffffffffffffffffffffff1673ffffffffffffffffffffffffffffffffffffffff166370a08231306040518263ffffffff1660e01b815260040161124c9190613238565b60206040518083038186803b15801561126457600080fd5b505afa158015611278573d6000803e3d6000fd5b505050506040513d601f19601f8201168201806040525081019061129c9190612da7565b90506000600760009054906101000a900473ffffffffffffffffffffffffffffffffffffffff1673ffffffffffffffffffffffffffffffffffffffff166370a08231306040518263ffffffff1660e01b81526004016112fb9190613238565b60206040518083038186803b15801561131357600080fd5b505afa158015611327573d6000803e3d6000fd5b505050506040513d601f19601f8201168201806040525081019061134b9190612da7565b90506000611372856dffffffffffffffffffffffffffff168461226890919063ffffffff16565b90506000611399856dffffffffffffffffffffffffffff168461226890919063ffffffff16565b905060008054905060008114156113ed576113d96103e86113cb6113c6858761225290919063ffffffff16565b6127f1565b61226890919063ffffffff16565b97506113e860006103e861286b565b611454565b611451876dffffffffffffffffffffffffffff16611414838661225290919063ffffffff16565b61141e919061375d565b876dffffffffffffffffffffffffffff16611442848661225290919063ffffffff16565b61144c919061375d565b612985565b97505b60008811611497576040517f08c379a000000000000000000000000000000000000000000000000000000000815260040161148e906133ba565b60405180910390fd5b6114a1898961286b565b6114ad8585898961227e565b3373ffffffffffffffffffffffffffffffffffffffff167f4c209b5fc8ad50758f13e2e1088ba56a560dff690a1c6fef26394f4c03821c4f84846040516114f59291906135b5565b60405180910390a2505050505050506001600b81905550919050565b60016020528060005260406000206000915090505481565b60046020528060005260406000206000915090505481565b6000806001600b5414611589576040517f08c379a00000000000000000000000000000000000000000000000000000000081526004016115809061341a565b60405180910390fd5b6000600b8190555060008061159c610dd1565b50915091506000600660009054906101000a900473ffffffffffffffffffffffffffffffffffffffff1690506000600760009054906101000a900473ffffffffffffffffffffffffffffffffffffffff16905060008273ffffffffffffffffffffffffffffffffffffffff166370a08231306040518263ffffffff1660e01b815260040161162a9190613238565b60206040518083038186803b15801561164257600080fd5b505afa158015611656573d6000803e3d6000fd5b505050506040513d601f19601f8201168201806040525081019061167a9190612da7565b905060008273ffffffffffffffffffffffffffffffffffffffff166370a08231306040518263ffffffff1660e01b81526004016116b79190613238565b60206040518083038186803b1580156116cf57600080fd5b505afa1580156116e3573d6000803e3d6000fd5b505050506040513d601f19601f820116820180604052508101906117079190612da7565b90506000600160003073ffffffffffffffffffffffffffffffffffffffff1673ffffffffffffffffffffffffffffffffffffffff16815260200190815260200160002054905060008054905080611767858461225290919063ffffffff16565b611771919061375d565b995080611787848461225290919063ffffffff16565b611791919061375d565b985060008a1180156117a35750600089115b6117e2576040517f08c379a00000000000000000000000000000000000000000000000000000000081526004016117d99061351a565b60405180910390fd5b6117ec308361299e565b6117f7868c8c6120c8565b611802858c8b6120c8565b8573ffffffffffffffffffffffffffffffffffffffff166370a08231306040518263ffffffff1660e01b815260040161183b9190613238565b60206040518083038186803b15801561185357600080fd5b505afa158015611867573d6000803e3d6000fd5b505050506040513d601f19601f8201168201806040525081019061188b9190612da7565b93508473ffffffffffffffffffffffffffffffffffffffff166370a08231306040518263ffffffff1660e01b81526004016118c69190613238565b60206040518083038186803b1580156118de57600080fd5b505afa1580156118f2573d6000803e3d6000fd5b505050506040513d601f19601f820116820180604052508101906119169190612da7565b925061192484848a8a61227e565b8a73ffffffffffffffffffffffffffffffffffffffff163373ffffffffffffffffffffffffffffffffffffffff167fdccd412f0b1252819cb1fd330b93224ca42612892bb3f4f789976e6d819364968c8c6040516119839291906135b5565b60405180910390a350505050505050506001600b81905550915091565b6040518060400160405280600781526020017f50532d504149520000000000000000000000000000000000000000000000000081525081565b60006119e633848461265d565b6001905092915050565b6103e881565b6001600b5414611a3b576040517f08c379a0000000000000000000000000000000000000000000000000000000008152600401611a329061341a565b60405180910390fd5b6000600b819055506000600660009054906101000a900473ffffffffffffffffffffffffffffffffffffffff1690506000600760009054906101000a900473ffffffffffffffffffffffffffffffffffffffff169050611b628284611b5d600a60009054906101000a90046dffffffffffffffffffffffffffff166dffffffffffffffffffffffffffff168673ffffffffffffffffffffffffffffffffffffffff166370a08231306040518263ffffffff1660e01b8152600401611aff9190613238565b60206040518083038186803b158015611b1757600080fd5b505afa158015611b2b573d6000803e3d6000fd5b505050506040513d601f19601f82011682018060405250810190611b4f9190612da7565b61226890919063ffffffff16565b6120c8565b611c338184611c2e600a600e9054906101000a90046dffffffffffffffffffffffffffff166dffffffffffffffffffffffffffff168573ffffffffffffffffffffffffffffffffffffffff166370a08231306040518263ffffffff1660e01b8152600401611bd09190613238565b60206040518083038186803b158015611be857600080fd5b505afa158015611bfc573d6000803e3d6000fd5b505050506040513d601f19601f82011682018060405250810190611c209190612da7565b61226890919063ffffffff16565b6120c8565b50506001600b8190555050565b600560009054906101000a900473ffffffffffffffffffffffffffffffffffffffff1681565b600760009054906101000a900473ffffffffffffffffffffffffffffffffffffffff1681565b42841015611ccf576040517f08c379a0000000000000000000000000000000000000000000000000000000008152600401611cc69061347a565b60405180910390fd5b60006003547f6e71edae12b1b97f4d1f60370fef10105fa2faae0126114a169c64845d6126c960001b898989600460008e73ffffffffffffffffffffffffffffffffffffffff1673ffffffffffffffffffffffffffffffffffffffff1681526020019081526020016000206000815480929190611d4b906139ca565b919050558a604051602001611d65969594939291906132b2565b60405160208183030381529060405280519060200120604051602001611d8c9291906131df565b604051602081830303815290604052805190602001209050600060018286868660405160008152602001604052604051611dc99493929190613313565b6020604051602081039080840390855afa158015611deb573d6000803e3d6000fd5b505050602060405103519050600073ffffffffffffffffffffffffffffffffffffffff168173ffffffffffffffffffffffffffffffffffffffff1614158015611e5f57508873ffffffffffffffffffffffffffffffffffffffff168173ffffffffffffffffffffffffffffffffffffffff16145b611e9e576040517f08c379a0000000000000000000000000000000000000000000000000000000008152600401611e95906134ba565b60405180910390fd5b611ea9898989612572565b505050505050505050565b6002602052816000526040600020602052806000526040600020600091509150505481565b6001600b5414611f1e576040517f08c379a0000000000000000000000000000000000000000000000000000000008152600401611f159061341a565b60405180910390fd5b6000600b819055506120be600660009054906101000a900473ffffffffffffffffffffffffffffffffffffffff1673ffffffffffffffffffffffffffffffffffffffff166370a08231306040518263ffffffff1660e01b8152600401611f849190613238565b60206040518083038186803b158015611f9c57600080fd5b505afa158015611fb0573d6000803e3d6000fd5b505050506040513d601f19601f82011682018060405250810190611fd49190612da7565b600760009054906101000a900473ffffffffffffffffffffffffffffffffffffffff1673ffffffffffffffffffffffffffffffffffffffff166370a08231306040518263ffffffff1660e01b815260040161202f9190613238565b60206040518083038186803b15801561204757600080fd5b505afa15801561205b573d6000803e3d6000fd5b505050506040513d601f19601f8201168201806040525081019061207f9190612da7565b600a60009054906101000a90046dffffffffffffffffffffffffffff16600a600e9054906101000a90046dffffffffffffffffffffffffffff1661227e565b6001600b81905550565b6000808473ffffffffffffffffffffffffffffffffffffffff166040518060400160405280601981526020017f7472616e7366657228616464726573732c75696e743235362900000000000000815250805190602001208585604051602401612132929190613253565b604051602081830303815290604052907bffffffffffffffffffffffffffffffffffffffffffffffffffffffff19166020820180517bffffffffffffffffffffffffffffffffffffffffffffffffffffffff838183161783525050505060405161219c91906131c8565b6000604051808303816000865af19150503d80600081146121d9576040519150601f19603f3d011682016040523d82523d6000602084013e6121de565b606091505b509150915081801561220c575060008151148061220b57508080602001905181019061220a9190612d7e565b5b5b61224b576040517f08c379a00000000000000000000000000000000000000000000000000000000081526004016122429061339a565b60405180910390fd5b5050505050565b6000818361226091906137e4565b905092915050565b60008183612276919061383e565b905092915050565b6dffffffffffffffffffffffffffff801684111580156122ae57506dffffffffffffffffffffffffffff80168311155b6122ed576040517f08c379a00000000000000000000000000000000000000000000000000000000081526004016122e49061343a565b60405180910390fd5b6000640100000000426123009190613a1d565b90506000600a601c9054906101000a900463ffffffff16826123229190613872565b905060008163ffffffff1611801561234b57506000846dffffffffffffffffffffffffffff1614155b801561236857506000836dffffffffffffffffffffffffffff1614155b1561246e578063ffffffff166123ad8561238186612ab8565b7bffffffffffffffffffffffffffffffffffffffffffffffffffffffff16612aec90919063ffffffff16565b7bffffffffffffffffffffffffffffffffffffffffffffffffffffffff166123d591906137e4565b600860008282546123e691906136d6565b925050819055508063ffffffff1661242d8461240187612ab8565b7bffffffffffffffffffffffffffffffffffffffffffffffffffffffff16612aec90919063ffffffff16565b7bffffffffffffffffffffffffffffffffffffffffffffffffffffffff1661245591906137e4565b6009600082825461246691906136d6565b925050819055505b85600a60006101000a8154816dffffffffffffffffffffffffffff02191690836dffffffffffffffffffffffffffff16021790555084600a600e6101000a8154816dffffffffffffffffffffffffffff02191690836dffffffffffffffffffffffffffff16021790555081600a601c6101000a81548163ffffffff021916908363ffffffff1602179055507f1c411e9a96e071241c2f21f7726b17ae89e3cab4c78be50e062b03a9fffbbad1600a60009054906101000a90046dffffffffffffffffffffffffffff16600a600e9054906101000a90046dffffffffffffffffffffffffffff1660405161256292919061353a565b60405180910390a1505050505050565b80600260008573ffffffffffffffffffffffffffffffffffffffff1673ffffffffffffffffffffffffffffffffffffffff16815260200190815260200160002060008473ffffffffffffffffffffffffffffffffffffffff1673ffffffffffffffffffffffffffffffffffffffff168152602001908152602001600020819055508173ffffffffffffffffffffffffffffffffffffffff168373ffffffffffffffffffffffffffffffffffffffff167f8c5be1e5ebec7d5bd14f71427d1e84f3dd0314c0f7b2291e5b200ac8c7c3b92583604051612650919061359a565b60405180910390a3505050565b6126af81600160008673ffffffffffffffffffffffffffffffffffffffff1673ffffffffffffffffffffffffffffffffffffffff1681526020019081526020016000205461226890919063ffffffff16565b600160008573ffffffffffffffffffffffffffffffffffffffff1673ffffffffffffffffffffffffffffffffffffffff1681526020019081526020016000208190555061274481600160008573ffffffffffffffffffffffffffffffffffffffff1673ffffffffffffffffffffffffffffffffffffffff16815260200190815260200160002054612b1290919063ffffffff16565b600160008473ffffffffffffffffffffffffffffffffffffffff1673ffffffffffffffffffffffffffffffffffffffff168152602001908152602001600020819055508173ffffffffffffffffffffffffffffffffffffffff168373ffffffffffffffffffffffffffffffffffffffff167fddf252ad1be2c89b69c2b068fc378daa952ba7f163c4a11628f55a4df523b3ef836040516127e4919061359a565b60405180910390a3505050565b600060038211156128585781905060006001600284612810919061375d565b61281a91906136d6565b90505b81811015612852578091506002818285612837919061375d565b61284191906136d6565b61284b919061375d565b905061281d565b50612866565b6000821461286557600190505b5b919050565b61288081600054612b1290919063ffffffff16565b6000819055506128d881600160008573ffffffffffffffffffffffffffffffffffffffff1673ffffffffffffffffffffffffffffffffffffffff16815260200190815260200160002054612b1290919063ffffffff16565b600160008473ffffffffffffffffffffffffffffffffffffffff1673ffffffffffffffffffffffffffffffffffffffff168152602001908152602001600020819055508173ffffffffffffffffffffffffffffffffffffffff16600073ffffffffffffffffffffffffffffffffffffffff167fddf252ad1be2c89b69c2b068fc378daa952ba7f163c4a11628f55a4df523b3ef83604051612979919061359a565b60405180910390a35050565b60008183106129945781612996565b825b905092915050565b6129f081600160008573ffffffffffffffffffffffffffffffffffffffff1673ffffffffffffffffffffffffffffffffffffffff1681526020019081526020016000205461226890919063ffffffff16565b600160008473ffffffffffffffffffffffffffffffffffffffff1673ffffffffffffffffffffffffffffffffffffffff16815260200190815260200160002081905550612a488160005461226890919063ffffffff16565b600081905550600073ffffffffffffffffffffffffffffffffffffffff168273ffffffffffffffffffffffffffffffffffffffff167fddf252ad1be2c89b69c2b068fc378daa952ba7f163c4a11628f55a4df523b3ef83604051612aac919061359a565b60405180910390a35050565b60006e010000000000000000000000000000826dffffffffffffffffffffffffffff16612ae5919061378e565b9050919050565b6000816dffffffffffffffffffffffffffff1683612b0a919061372c565b905092915050565b60008183612b2091906136d6565b905092915050565b600081359050612b3781613eff565b92915050565b600081519050612b4c81613f16565b92915050565b600081359050612b6181613f2d565b92915050565b60008083601f840112612b7957600080fd5b8235905067ffffffffffffffff811115612b9257600080fd5b602083019150836001820283011115612baa57600080fd5b9250929050565b600081359050612bc081613f44565b92915050565b600081519050612bd581613f44565b92915050565b600081359050612bea81613f5b565b92915050565b600060208284031215612c0257600080fd5b6000612c1084828501612b28565b91505092915050565b60008060408385031215612c2c57600080fd5b6000612c3a85828601612b28565b9250506020612c4b85828601612b28565b9150509250929050565b600080600060608486031215612c6a57600080fd5b6000612c7886828701612b28565b9350506020612c8986828701612b28565b9250506040612c9a86828701612bb1565b9150509250925092565b600080600080600080600060e0888a031215612cbf57600080fd5b6000612ccd8a828b01612b28565b9750506020612cde8a828b01612b28565b9650506040612cef8a828b01612bb1565b9550506060612d008a828b01612bb1565b9450506080612d118a828b01612bdb565b93505060a0612d228a828b01612b52565b92505060c0612d338a828b01612b52565b91505092959891949750929550565b60008060408385031215612d5557600080fd5b6000612d6385828601612b28565b9250506020612d7485828601612bb1565b9150509250929050565b600060208284031215612d9057600080fd5b6000612d9e84828501612b3d565b91505092915050565b600060208284031215612db957600080fd5b6000612dc784828501612bc6565b91505092915050565b600080600080600060808688031215612de857600080fd5b6000612df688828901612bb1565b9550506020612e0788828901612bb1565b9450506040612e1888828901612b28565b935050606086013567ffffffffffffffff811115612e3557600080fd5b612e4188828901612b67565b92509250509295509295909350565b612e59816138a6565b82525050565b612e68816138b8565b82525050565b612e77816138c4565b82525050565b612e8e612e89826138c4565b613a13565b82525050565b6000612ea0838561369e565b9350612ead838584613957565b612eb683613afd565b840190509392505050565b6000612ecc82613688565b612ed681856136af565b9350612ee6818560208601613966565b80840191505092915050565b6000612efd82613693565b612f0781856136ba565b9350612f17818560208601613966565b612f2081613afd565b840191505092915050565b6000612f3682613693565b612f4081856136cb565b9350612f50818560208601613966565b80840191505092915050565b6000612f696025836136ba565b9150612f7482613b1b565b604082019050919050565b6000612f8c6002836136cb565b9150612f9782613b6a565b600282019050919050565b6000612faf601b836136ba565b9150612fba82613b93565b602082019050919050565b6000612fd26029836136ba565b9150612fdd82613bbc565b604082019050919050565b6000612ff56007836136ba565b915061300082613c0b565b602082019050919050565b60006130186022836136ba565b915061302382613c34565b604082019050919050565b600061303b6012836136ba565b915061304682613c83565b602082019050919050565b600061305e6014836136ba565b915061306982613cac565b602082019050919050565b6000613081600d836136ba565b915061308c82613cd5565b602082019050919050565b60006130a46013836136ba565b91506130af82613cfe565b602082019050919050565b60006130c76005836136cb565b91506130d282613d27565b600582019050919050565b60006130ea6026836136ba565b91506130f582613d50565b604082019050919050565b600061310d601d836136ba565b915061311882613d9f565b602082019050919050565b60006131306015836136ba565b915061313b82613dc8565b602082019050919050565b60006131536016836136ba565b915061315e82613df1565b602082019050919050565b60006131766029836136ba565b915061318182613e1a565b604082019050919050565b613195816138ce565b82525050565b6131a481613930565b82525050565b6131b38161393a565b82525050565b6131c28161394a565b82525050565b60006131d48284612ec1565b915081905092915050565b60006131ea82612f7f565b91506131f68285612e7d565b6020820191506132068284612e7d565b6020820191508190509392505050565b6000613221826130ba565b915061322d8284612f2b565b915081905092915050565b600060208201905061324d6000830184612e50565b92915050565b60006040820190506132686000830185612e50565b613275602083018461319b565b9392505050565b60006020820190506132916000830184612e5f565b92915050565b60006020820190506132ac6000830184612e6e565b92915050565b600060c0820190506132c76000830189612e6e565b6132d46020830188612e50565b6132e16040830187612e50565b6132ee606083018661319b565b6132fb608083018561319b565b61330860a083018461319b565b979650505050505050565b60006080820190506133286000830187612e6e565b61333560208301866131b9565b6133426040830185612e6e565b61334f6060830184612e6e565b95945050505050565b600060208201905081810360008301526133728184612ef2565b905092915050565b6000602082019050818103600083015261339381612f5c565b9050919050565b600060208201905081810360008301526133b381612fa2565b9050919050565b600060208201905081810360008301526133d381612fc5565b9050919050565b600060208201905081810360008301526133f381612fe8565b9050919050565b600060208201905081810360008301526134138161300b565b9050919050565b600060208201905081810360008301526134338161302e565b9050919050565b6000602082019050818103600083015261345381613051565b9050919050565b6000602082019050818103600083015261347381613074565b9050919050565b6000602082019050818103600083015261349381613097565b9050919050565b600060208201905081810360008301526134b3816130dd565b9050919050565b600060208201905081810360008301526134d381613100565b9050919050565b600060208201905081810360008301526134f381613123565b9050919050565b6000602082019050818103600083015261351381613146565b9050919050565b6000602082019050818103600083015261353381613169565b9050919050565b600060408201905061354f600083018561318c565b61355c602083018461318c565b9392505050565b6000606082019050613578600083018661318c565b613585602083018561318c565b61359260408301846131aa565b949350505050565b60006020820190506135af600083018461319b565b92915050565b60006040820190506135ca600083018561319b565b6135d7602083018461319b565b9392505050565b60006060820190506135f3600083018761319b565b613600602083018661319b565b8181036040830152613613818486612e94565b905095945050505050565b6000608082019050613633600083018761319b565b613640602083018661319b565b61364d604083018561319b565b61365a606083018461319b565b95945050505050565b600060208201905061367860008301846131b9565b92915050565b6000604051905090565b600081519050919050565b600081519050919050565b600082825260208201905092915050565b600081905092915050565b600082825260208201905092915050565b600081905092915050565b60006136e182613930565b91506136ec83613930565b9250827fffffffffffffffffffffffffffffffffffffffffffffffffffffffffffffffff0382111561372157613720613a4e565b5b828201905092915050565b600061373782613908565b915061374283613908565b92508261375257613751613a7d565b5b828204905092915050565b600061376882613930565b915061377383613930565b92508261378357613782613a7d565b5b828204905092915050565b600061379982613908565b91506137a483613908565b9250817bffffffffffffffffffffffffffffffffffffffffffffffffffffffff04831182151516156137d9576137d8613a4e565b5b828202905092915050565b60006137ef82613930565b91506137fa83613930565b9250817fffffffffffffffffffffffffffffffffffffffffffffffffffffffffffffffff048311821515161561383357613832613a4e565b5b828202905092915050565b600061384982613930565b915061385483613930565b92508282101561386757613866613a4e565b5b828203905092915050565b600061387d8261393a565b91506138888361393a565b92508282101561389b5761389a613a4e565b5b828203905092915050565b60006138b1826138e8565b9050919050565b60008115159050919050565b6000819050919050565b60006dffffffffffffffffffffffffffff82169050919050565b600073ffffffffffffffffffffffffffffffffffffffff82169050919050565b60007bffffffffffffffffffffffffffffffffffffffffffffffffffffffff82169050919050565b6000819050919050565b600063ffffffff82169050919050565b600060ff82169050919050565b82818337600083830152505050565b60005b83811015613984578082015181840152602081019050613969565b83811115613993576000848401525b50505050565b6139a282613afd565b810181811067ffffffffffffffff821117156139c1576139c0613aac565b5b80604052505050565b60006139d582613930565b91507fffffffffffffffffffffffffffffffffffffffffffffffffffffffffffffffff821415613a0857613a07613a4e565b5b600182019050919050565b6000819050919050565b6000613a2882613930565b9150613a3383613930565b925082613a4357613a42613a7d565b5b828206905092915050565b7f4e487b7100000000000000000000000000000000000000000000000000000000600052601160045260246000fd5b7f4e487b7100000000000000000000000000000000000000000000000000000000600052601260045260246000fd5b7f4e487b7100000000000000000000000000000000000000000000000000000000600052604160045260246000fd5b600060033d1115613afa5760046000803e613af7600051613b0e565b90505b90565b6000601f19601f8301169050919050565b60008160e01c9050919050565b7f506f636b6574537761703a20494e53554646494349454e545f494e5055545f4160008201527f4d4f554e54000000000000000000000000000000000000000000000000000000602082015250565b7f1901000000000000000000000000000000000000000000000000000000000000600082015250565b7f506f636b6574537761703a205452414e534645525f4641494c45440000000000600082015250565b7f506f636b6574537761703a20494e53554646494349454e545f4c49515549444960008201527f54595f4d494e5445440000000000000000000000000000000000000000000000602082015250565b7f554e4b4e574e2100000000000000000000000000000000000000000000000000600082015250565b7f506f636b6574537761703a20494e53554646494349454e545f4c49515549444960008201527f5459000000000000000000000000000000000000000000000000000000000000602082015250565b7f506f636b6574537761703a204c4f434b45440000000000000000000000000000600082015250565b7f506f636b6574537761703a204f564552464c4f57000000000000000000000000600082015250565b7f506f636b6574537761703a204b00000000000000000000000000000000000000600082015250565b7f506f636b6574537761703a204558504952454400000000000000000000000000600082015250565b7f4e4f4b3a20000000000000000000000000000000000000000000000000000000600082015250565b7f506f636b6574537761703a20494e53554646494349454e545f4f55545055545f60008201527f414d4f554e540000000000000000000000000000000000000000000000000000602082015250565b7f506f636b6574537761703a20494e56414c49445f5349474e4154555245000000600082015250565b7f506f636b6574537761703a20464f5242494444454e0000000000000000000000600082015250565b7f506f636b6574537761703a20494e56414c49445f544f00000000000000000000600082015250565b7f506f636b6574537761703a20494e53554646494349454e545f4c49515549444960008201527f54595f4255524e45440000000000000000000000000000000000000000000000602082015250565b600060443d1015613e7957613efc565b613e8161367e565b60043d036004823e80513d602482011167ffffffffffffffff82111715613ea9575050613efc565b808201805167ffffffffffffffff811115613ec75750505050613efc565b80602083010160043d038501811115613ee4575050505050613efc565b613ef382602001850186613999565b82955050505050505b90565b613f08816138a6565b8114613f1357600080fd5b50565b613f1f816138b8565b8114613f2a57600080fd5b50565b613f36816138c4565b8114613f4157600080fd5b50565b613f4d81613930565b8114613f5857600080fd5b50565b613f648161394a565b8114613f6f57600080fd5b5056fea26469706673582212200a1cdf920cb2a0c479bb1a31dccca08d1da4778a014b46b9afc2160c0396cdc264736f6c63430008040033a2646970667358221220fe62506933f8e7ac3572ed7472bc5b26cfe4c4b1ed3b2876c8c687ecaa6154b364736f6c6343000804003360e06040527fffffffffffffffffffffffffffffffffffffffffffffffffffffffffffffffff6000553480156200003557600080fd5b50604051620066d0380380620066d083398181016040528101906200005b919062000126565b8282828273ffffffffffffffffffffffffffffffffffffffff1660808173ffffffffffffffffffffffffffffffffffffffff1660601b815250508173ffffffffffffffffffffffffffffffffffffffff1660a08173ffffffffffffffffffffffffffffffffffffffff1660601b815250508073ffffffffffffffffffffffffffffffffffffffff1660c08173ffffffffffffffffffffffffffffffffffffffff1660601b81525050505050505050620001ca565b6000815190506200012081620001b0565b92915050565b6000806000606084860312156200013c57600080fd5b60006200014c868287016200010f565b93505060206200015f868287016200010f565b925050604062000172868287016200010f565b9150509250925092565b6000620001898262000190565b9050919050565b600073ffffffffffffffffffffffffffffffffffffffff82169050919050565b620001bb816200017c565b8114620001c757600080fd5b50565b60805160601c60a05160601c60c05160601c61636f6200036160003960008181610e7301528181610eca01528181610f6401528181611066015281816112230152818161126601528181611334015281816113f6015281816114180152818161160d015281816116760152818161177d0152818161185e015281816119520152818161197d015281816119be01528181611a0101528181611b2101528181611b4c01528181611b8d01528181611bd001528181611ff50152818161353101528181613588015281816136520152818161371b01526138c901526000818161011f0152818161084b0152818161094c015281816109e701528181612b8101528181612be40152612c6501526000818161055d015281816106e901528181610a6201528181610d3301528181610dd301528181610f270152818161102901528181611490015281816115bb0152818161172e0152818161180f0152818161191e01528181611aed01528181611d7f01528181611fd10152818161201e015281816124ba01528181613040015261326f015261636f6000f3fe6080604052600436106101185760003560e01c80638d4d72e5116100a0578063cccef9e211610064578063cccef9e214610472578063d06ca61f1461049d578063db3e2198146104da578063df2ab5bb1461050a578063f28c049814610526576101ad565b80638d4d72e51461036a57806396ed28f91461039d578063ac9650d8146103da578063ad615dec1461040a578063c45a015514610447576101ad565b806349404b7c116100e757806349404b7c1461028c5780634aa4a4fc146102a85780636385a271146102d35780637936cd901461030457806385f8c2591461032d576101ad565b8063054d50d4146101b257806313b51924146101ef5780631f00ca741461021f578063441a12de1461025c576101ad565b366101ad577f000000000000000000000000000000000000000000000000000000000000000073ffffffffffffffffffffffffffffffffffffffff163373ffffffffffffffffffffffffffffffffffffffff16146101ab576040517f08c379a00000000000000000000000000000000000000000000000000000000081526004016101a2906155f1565b60405180910390fd5b005b600080fd5b3480156101be57600080fd5b506101d960048036038101906101d49190614c38565b610556565b6040516101e69190615773565b60405180910390f35b61020960048036038101906102049190614a1e565b61058d565b6040516102169190615773565b60405180910390f35b34801561022b57600080fd5b5061024660048036038101906102419190614b3c565b6106e2565b6040516102539190615412565b60405180910390f35b61027660048036038101906102719190614a5f565b610717565b6040516102839190615773565b60405180910390f35b6102a660048036038101906102a19190614b00565b610847565b005b3480156102b457600080fd5b506102bd6109e5565b6040516102ca919061534c565b60405180910390f35b6102ed60048036038101906102e891906149b3565b610a09565b6040516102fb92919061578e565b60405180910390f35b34801561031057600080fd5b5061032b60048036038101906103269190614bcc565b610d07565b005b34801561033957600080fd5b50610354600480360381019061034f9190614c38565b611489565b6040516103619190615773565b60405180910390f35b610384600480360381019061037f919061491e565b6114c0565b604051610394949392919061584d565b60405180910390f35b3480156103a957600080fd5b506103c460048036038101906103bf91906147e4565b611d78565b6040516103d19190615434565b60405180910390f35b6103f460048036038101906103ef919061486f565b611dad565b60405161040191906153f0565b60405180910390f35b34801561041657600080fd5b50610431600480360381019061042c9190614c38565b611fb9565b60405161043e9190615773565b60405180910390f35b34801561045357600080fd5b5061045c611fcf565b604051610469919061534c565b60405180910390f35b34801561047e57600080fd5b50610487611ff3565b604051610494919061534c565b60405180910390f35b3480156104a957600080fd5b506104c460048036038101906104bf9190614b3c565b612017565b6040516104d19190615412565b60405180910390f35b6104f460048036038101906104ef9190614989565b61204c565b6040516105019190615773565b60405180910390f35b610524600480360381019061051f9190614820565b612053565b005b610540600480360381019061053b9190614948565b612148565b60405161054d9190615773565b60405180910390f35b60006105847f000000000000000000000000000000000000000000000000000000000000000085858561214f565b90509392505050565b600081604001518061059d6122e8565b11156105de576040517f08c379a00000000000000000000000000000000000000000000000000000000081526004016105d590615691565b60405180910390fd5b6000915060003390505b6001156106945760006105fe85600001516122f0565b9050610655856060015182610617578660200151610619565b305b60405180604001604052806106318a60000151612316565b81526020018673ffffffffffffffffffffffffffffffffffffffff16815250612341565b8560600181815250508015610681573091506106748560000151612539565b856000018190525061068e565b8460600151935050610694565b506105e8565b83608001518310156106db576040517f08c379a00000000000000000000000000000000000000000000000000000000081526004016106d290615711565b60405180910390fd5b5050919050565b606061070f7f00000000000000000000000000000000000000000000000000000000000000008484612564565b905092915050565b60008160600135806107276122e8565b1115610768576040517f08c379a000000000000000000000000000000000000000000000000000000000815260040161075f90615691565b60405180910390fd5b6107f883608001358460400160208101906107839190614792565b60405180604001604052808760000160208101906107a19190614792565b8860200160208101906107b49190614792565b6040516020016107c59291906152a8565b60405160208183030381529060405281526020013373ffffffffffffffffffffffffffffffffffffffff16815250612341565b91508260a00135821015610841576040517f08c379a000000000000000000000000000000000000000000000000000000000815260040161083890615711565b60405180910390fd5b50919050565b60007f000000000000000000000000000000000000000000000000000000000000000073ffffffffffffffffffffffffffffffffffffffff166370a08231306040518263ffffffff1660e01b81526004016108a2919061534c565b60206040518083038186803b1580156108ba57600080fd5b505afa1580156108ce573d6000803e3d6000fd5b505050506040513d601f19601f820116820180604052508101906108f29190614ad7565b905060008311156109415782811015610940576040517f08c379a000000000000000000000000000000000000000000000000000000000815260040161093790615471565b60405180910390fd5b5b60008111156109e0577f000000000000000000000000000000000000000000000000000000000000000073ffffffffffffffffffffffffffffffffffffffff16632e1a7d4d826040518263ffffffff1660e01b81526004016109a39190615773565b600060405180830381600087803b1580156109bd57600080fd5b505af11580156109d1573d6000803e3d6000fd5b505050506109df82826127e4565b5b505050565b7f000000000000000000000000000000000000000000000000000000000000000081565b6000808260e0013580610a1a6122e8565b1115610a5b576040517f08c379a0000000000000000000000000000000000000000000000000000000008152600401610a5290615691565b60405180910390fd5b6000610aac7f0000000000000000000000000000000000000000000000000000000000000000866000016020810190610a949190614792565b876020016020810190610aa79190614792565b61290a565b90508073ffffffffffffffffffffffffffffffffffffffff166323b872dd338388604001356040518463ffffffff1660e01b8152600401610aef93929190615390565b602060405180830381600087803b158015610b0957600080fd5b505af1158015610b1d573d6000803e3d6000fd5b505050506040513d601f19601f82011682018060405250810190610b4191906148b4565b506000808273ffffffffffffffffffffffffffffffffffffffff166389afcb448860c0016020810190610b749190614792565b6040518263ffffffff1660e01b8152600401610b90919061534c565b6040805180830381600087803b158015610ba957600080fd5b505af1158015610bbd573d6000803e3d6000fd5b505050506040513d601f19601f82011682018060405250810190610be19190614b90565b915091506000610c15886000016020810190610bfd9190614792565b896020016020810190610c109190614792565b6129cd565b5090508073ffffffffffffffffffffffffffffffffffffffff16886000016020810190610c429190614792565b73ffffffffffffffffffffffffffffffffffffffff1614610c64578183610c67565b82825b80975081985050508760600135871015610cb6576040517f08c379a0000000000000000000000000000000000000000000000000000000008152600401610cad90615551565b60405180910390fd5b8760800135861015610cfd576040517f08c379a0000000000000000000000000000000000000000000000000000000008152600401610cf490615611565b60405180910390fd5b5050505050915091565b60008282810190610d1891906149dd565b9050600080610d2a8360000151612afb565b91509150610d597f00000000000000000000000000000000000000000000000000000000000000008383612b2f565b5060008060008911610d9a578373ffffffffffffffffffffffffffffffffffffffff168373ffffffffffffffffffffffffffffffffffffffff161088610dcb565b8273ffffffffffffffffffffffffffffffffffffffff168473ffffffffffffffffffffffffffffffffffffffff1610895b9150915060007f000000000000000000000000000000000000000000000000000000000000000073ffffffffffffffffffffffffffffffffffffffff166346870d2b6040518163ffffffff1660e01b815260040160206040518083038186803b158015610e3757600080fd5b505afa158015610e4b573d6000803e3d6000fd5b505050506040513d601f19601f82011682018060405250810190610e6f9190614ad7565b90507f000000000000000000000000000000000000000000000000000000000000000073ffffffffffffffffffffffffffffffffffffffff168573ffffffffffffffffffffffffffffffffffffffff1614158015610f1957507f000000000000000000000000000000000000000000000000000000000000000073ffffffffffffffffffffffffffffffffffffffff168473ffffffffffffffffffffffffffffffffffffffff1614155b1561132a57600085905060007f000000000000000000000000000000000000000000000000000000000000000073ffffffffffffffffffffffffffffffffffffffff1663e6a43905887f00000000000000000000000000000000000000000000000000000000000000006040518363ffffffff1660e01b8152600401610fa0929190615367565b60206040518083038186803b158015610fb857600080fd5b505afa158015610fcc573d6000803e3d6000fd5b505050506040513d601f19601f82011682018060405250810190610ff091906147bb565b9050600073ffffffffffffffffffffffffffffffffffffffff168173ffffffffffffffffffffffffffffffffffffffff161415611168577f000000000000000000000000000000000000000000000000000000000000000073ffffffffffffffffffffffffffffffffffffffff1663e6a43905877f00000000000000000000000000000000000000000000000000000000000000006040518363ffffffff1660e01b81526004016110a2929190615367565b60206040518083038186803b1580156110ba57600080fd5b505afa1580156110ce573d6000803e3d6000fd5b505050506040513d601f19601f820116820180604052508101906110f291906147bb565b9050859150600073ffffffffffffffffffffffffffffffffffffffff168173ffffffffffffffffffffffffffffffffffffffff161415611167576040517f08c379a000000000000000000000000000000000000000000000000000000000815260040161115e906155d1565b60405180910390fd5b5b6000633b9aca00848473ffffffffffffffffffffffffffffffffffffffff166370a08231336040518263ffffffff1660e01b81526004016111a9919061534c565b60206040518083038186803b1580156111c157600080fd5b505afa1580156111d5573d6000803e3d6000fd5b505050506040513d601f19601f820116820180604052508101906111f99190614ad7565b6112039190615af4565b61120d9190615ac3565b905061121b83338484612b7d565b6000611247847f00000000000000000000000000000000000000000000000000000000000000006129cd565b5090506000808273ffffffffffffffffffffffffffffffffffffffff167f000000000000000000000000000000000000000000000000000000000000000073ffffffffffffffffffffffffffffffffffffffff16146112a8578360006112ac565b6000845b915091508473ffffffffffffffffffffffffffffffffffffffff1663022c0d9f8383896040518463ffffffff1660e01b81526004016112ed93929190615803565b600060405180830381600087803b15801561130757600080fd5b505af115801561131b573d6000803e3d6000fd5b5050505050505050505061143f565b6000633b9aca00827f000000000000000000000000000000000000000000000000000000000000000073ffffffffffffffffffffffffffffffffffffffff166370a08231336040518263ffffffff1660e01b815260040161138b919061534c565b60206040518083038186803b1580156113a357600080fd5b505afa1580156113b7573d6000803e3d6000fd5b505050506040513d601f19601f820116820180604052508101906113db9190614ad7565b6113e59190615af4565b6113ef9190615ac3565b905061143d7f0000000000000000000000000000000000000000000000000000000000000000337f000000000000000000000000000000000000000000000000000000000000000084612d6f565b505b82158015611456575061145586600001516122f0565b5b1561147d576114688660000151612539565b866000018190525061147b823388612ec7565b505b50505050505050505050565b60006114b77f00000000000000000000000000000000000000000000000000000000000000008585856130bf565b90509392505050565b6000806000808460e00135806114d46122e8565b1115611515576040517f08c379a000000000000000000000000000000000000000000000000000000000815260040161150c90615691565b60405180910390fd5b6000806115a4886060013589608001358a60a001358b60c0013560405180604001604052808e600001602081019061154d9190614792565b8f60200160208101906115609190614792565b6040516020016115719291906152a8565b60405160208183030381529060405281526020013373ffffffffffffffffffffffffffffffffffffffff16815250613265565b809450819550829950839a505050505060006116057f00000000000000000000000000000000000000000000000000000000000000008a60000160208101906115ed9190614792565b8b60200160208101906116009190614792565b61290a565b9050600095507f000000000000000000000000000000000000000000000000000000000000000073ffffffffffffffffffffffffffffffffffffffff168960000160208101906116559190614792565b73ffffffffffffffffffffffffffffffffffffffff16141580156116d757507f000000000000000000000000000000000000000000000000000000000000000073ffffffffffffffffffffffffffffffffffffffff168960200160208101906116be9190614792565b73ffffffffffffffffffffffffffffffffffffffff1614155b15611c925760008311806116eb5750600082115b61172a576040517f08c379a000000000000000000000000000000000000000000000000000000000815260040161172190615491565b60405180910390fd5b60007f000000000000000000000000000000000000000000000000000000000000000073ffffffffffffffffffffffffffffffffffffffff1663e6a439058b600001602081019061177b9190614792565b7f00000000000000000000000000000000000000000000000000000000000000006040518363ffffffff1660e01b81526004016117b9929190615367565b60206040518083038186803b1580156117d157600080fd5b505afa1580156117e5573d6000803e3d6000fd5b505050506040513d601f19601f8201168201806040525081019061180991906147bb565b905060007f000000000000000000000000000000000000000000000000000000000000000073ffffffffffffffffffffffffffffffffffffffff1663e6a439058c602001602081019061185c9190614792565b7f00000000000000000000000000000000000000000000000000000000000000006040518363ffffffff1660e01b815260040161189a929190615367565b60206040518083038186803b1580156118b257600080fd5b505afa1580156118c6573d6000803e3d6000fd5b505050506040513d601f19601f820116820180604052508101906118ea91906147bb565b90506000851115611ac457849750600060028b6119079190615ac3565b9050808b6119159190615b4e565b9a5060006119767f00000000000000000000000000000000000000000000000000000000000000008e60000160208101906119509190614792565b7f000000000000000000000000000000000000000000000000000000000000000061290a565b90506119a47f000000000000000000000000000000000000000000000000000000000000000033838d612b7d565b60006119e28e60000160208101906119bc9190614792565b7f00000000000000000000000000000000000000000000000000000000000000006129cd565b5090506000808273ffffffffffffffffffffffffffffffffffffffff167f000000000000000000000000000000000000000000000000000000000000000073ffffffffffffffffffffffffffffffffffffffff1614611a4357846000611a47565b6000855b915091508373ffffffffffffffffffffffffffffffffffffffff1663022c0d9f83838b6040518463ffffffff1660e01b8152600401611a8893929190615803565b600060405180830381600087803b158015611aa257600080fd5b505af1158015611ab6573d6000803e3d6000fd5b505050505050505050611c8f565b839750600060028a611ad69190615ac3565b9050808a611ae49190615b4e565b99506000611b457f00000000000000000000000000000000000000000000000000000000000000008e6020016020810190611b1f9190614792565b7f000000000000000000000000000000000000000000000000000000000000000061290a565b9050611b737f000000000000000000000000000000000000000000000000000000000000000033838d612b7d565b6000611bb18e6020016020810190611b8b9190614792565b7f00000000000000000000000000000000000000000000000000000000000000006129cd565b5090506000808273ffffffffffffffffffffffffffffffffffffffff167f000000000000000000000000000000000000000000000000000000000000000073ffffffffffffffffffffffffffffffffffffffff1614611c1257846000611c16565b6000855b915091508373ffffffffffffffffffffffffffffffffffffffff1663022c0d9f83838b6040518463ffffffff1660e01b8152600401611c5793929190615803565b600060405180830381600087803b158015611c7157600080fd5b505af1158015611c85573d6000803e3d6000fd5b5050505050505050505b50505b611cb0896000016020810190611ca89190614792565b33838b612b7d565b611cce896020016020810190611cc69190614792565b33838a612b7d565b8073ffffffffffffffffffffffffffffffffffffffff16636a6278428a6040016020810190611cfd9190614792565b6040518263ffffffff1660e01b8152600401611d19919061534c565b602060405180830381600087803b158015611d3357600080fd5b505af1158015611d47573d6000803e3d6000fd5b505050506040513d601f19601f82011682018060405250810190611d6b9190614ad7565b9450505050509193509193565b6000611da57f0000000000000000000000000000000000000000000000000000000000000000848461290a565b905092915050565b60608282905067ffffffffffffffff811115611df2577f4e487b7100000000000000000000000000000000000000000000000000000000600052604160045260246000fd5b604051908082528060200260200182016040528015611e2557816020015b6060815260200190600190039081611e105790505b50905060005b83839050811015611fb2576000803073ffffffffffffffffffffffffffffffffffffffff16868685818110611e89577f4e487b7100000000000000000000000000000000000000000000000000000000600052603260045260246000fd5b9050602002810190611e9b9190615892565b604051611ea99291906152d4565b600060405180830381855af49150503d8060008114611ee4576040519150601f19603f3d011682016040523d82523d6000602084013e611ee9565b606091505b509150915081611f5857604481511015611f0257600080fd5b60048101905080806020019051810190611f1c91906148dd565b6040517f08c379a0000000000000000000000000000000000000000000000000000000008152600401611f4f919061544f565b60405180910390fd5b80848481518110611f92577f4e487b7100000000000000000000000000000000000000000000000000000000600052603260045260246000fd5b602002602001018190525050508080611faa90615cbf565b915050611e2b565b5092915050565b6000611fc6848484613a54565b90509392505050565b7f000000000000000000000000000000000000000000000000000000000000000081565b7f000000000000000000000000000000000000000000000000000000000000000081565b60606120447f00000000000000000000000000000000000000000000000000000000000000008484613b0e565b905092915050565b6000919050565b60008373ffffffffffffffffffffffffffffffffffffffff166370a08231306040518263ffffffff1660e01b815260040161208e919061534c565b60206040518083038186803b1580156120a657600080fd5b505afa1580156120ba573d6000803e3d6000fd5b505050506040513d601f19601f820116820180604052508101906120de9190614ad7565b9050600083111561212d578281101561212c576040517f08c379a0000000000000000000000000000000000000000000000000000000008152600401612123906154b1565b60405180910390fd5b5b600081111561214257612141848383613d7e565b5b50505050565b6000919050565b6000808411612193576040517f08c379a000000000000000000000000000000000000000000000000000000000815260040161218a90615571565b60405180910390fd5b6000831180156121a35750600082115b6121e2576040517f08c379a00000000000000000000000000000000000000000000000000000000081526004016121d990615531565b60405180910390fd5b60008573ffffffffffffffffffffffffffffffffffffffff1663ddca3f436040518163ffffffff1660e01b815260040160206040518083038186803b15801561222a57600080fd5b505afa15801561223e573d6000803e3d6000fd5b505050506040513d601f19601f820116820180604052508101906122629190614ad7565b9050600061228882633b9aca006122799190615b4e565b87613ed390919063ffffffff16565b9050600061229f8583613ed390919063ffffffff16565b905060006122cc836122be633b9aca008a613ed390919063ffffffff16565b613ee990919063ffffffff16565b905080826122da9190615ac3565b945050505050949350505050565b600042905090565b600060148060146123019190615a6d565b61230b9190615a6d565b825110159050919050565b606061233a600060148061232a9190615a6d565b84613eff9092919063ffffffff16565b9050919050565b60008060006123538460000151612afb565b915091506000600267ffffffffffffffff81111561239a577f4e487b7100000000000000000000000000000000000000000000000000000000600052604160045260246000fd5b6040519080825280602002602001820160405280156123c85781602001602082028036833780820191505090505b5090508281600081518110612406577f4e487b7100000000000000000000000000000000000000000000000000000000600052603260045260246000fd5b602002602001019073ffffffffffffffffffffffffffffffffffffffff16908173ffffffffffffffffffffffffffffffffffffffff1681525050818160018151811061247b577f4e487b7100000000000000000000000000000000000000000000000000000000600052603260045260246000fd5b602002602001019073ffffffffffffffffffffffffffffffffffffffff16908173ffffffffffffffffffffffffffffffffffffffff16815250506124e07f00000000000000000000000000000000000000000000000000000000000000008883613b0e565b600181518110612519577f4e487b7100000000000000000000000000000000000000000000000000000000600052603260045260246000fd5b6020026020010151935061252f8688868861406b565b5050509392505050565b606061255d601480845161254d9190615b4e565b84613eff9092919063ffffffff16565b9050919050565b60606002825110156125ab576040517f08c379a00000000000000000000000000000000000000000000000000000000081526004016125a290615651565b60405180910390fd5b815167ffffffffffffffff8111156125ec577f4e487b7100000000000000000000000000000000000000000000000000000000600052604160045260246000fd5b60405190808252806020026020018201604052801561261a5781602001602082028036833780820191505090505b50905082816001835161262d9190615b4e565b81518110612664577f4e487b7100000000000000000000000000000000000000000000000000000000600052603260045260246000fd5b6020026020010181815250506000600183516126809190615b4e565b90505b60008111156127dc5760008061272687866001866126a19190615b4e565b815181106126d8577f4e487b7100000000000000000000000000000000000000000000000000000000600052603260045260246000fd5b6020026020010151878681518110612719577f4e487b7100000000000000000000000000000000000000000000000000000000600052603260045260246000fd5b602002602001015161418a565b9150915061277687858581518110612767577f4e487b7100000000000000000000000000000000000000000000000000000000600052603260045260246000fd5b602002602001015184846130bf565b846001856127849190615b4e565b815181106127bb577f4e487b7100000000000000000000000000000000000000000000000000000000600052603260045260246000fd5b602002602001018181525050505080806127d490615c64565b915050612683565b509392505050565b60008273ffffffffffffffffffffffffffffffffffffffff1682600067ffffffffffffffff81111561283f577f4e487b7100000000000000000000000000000000000000000000000000000000600052604160045260246000fd5b6040519080825280601f01601f1916602001820160405280156128715781602001600182028036833780820191505090505b5060405161287f91906152ed565b60006040518083038185875af1925050503d80600081146128bc576040519150601f19603f3d011682016040523d82523d6000602084013e6128c1565b606091505b5050905080612905576040517f08c379a00000000000000000000000000000000000000000000000000000000081526004016128fc906154f1565b60405180910390fd5b505050565b60008173ffffffffffffffffffffffffffffffffffffffff168373ffffffffffffffffffffffffffffffffffffffff16111561294b57818380935081945050505b83838360405160200161295f9291906152a8565b604051602081830303815290604052805190602001207f6052f97ae694c9b6af9ccaeee836a290900b9953c84efc9d02ff1e46cbd50e3860001b6040516020016129ab93929190615304565b6040516020818303038152906040528051906020012060001c90509392505050565b6000808273ffffffffffffffffffffffffffffffffffffffff168473ffffffffffffffffffffffffffffffffffffffff161415612a3f576040517f08c379a0000000000000000000000000000000000000000000000000000000008152600401612a36906154d1565b60405180910390fd5b8273ffffffffffffffffffffffffffffffffffffffff168473ffffffffffffffffffffffffffffffffffffffff1610612a79578284612a7c565b83835b8092508193505050600073ffffffffffffffffffffffffffffffffffffffff168273ffffffffffffffffffffffffffffffffffffffff161415612af4576040517f08c379a0000000000000000000000000000000000000000000000000000000008152600401612aeb90615591565b60405180910390fd5b9250929050565b600080612b1260008461429c90919063ffffffff16565b9150612b2860148461429c90919063ffffffff16565b9050915091565b6000612b3c84848461290a565b90508073ffffffffffffffffffffffffffffffffffffffff163373ffffffffffffffffffffffffffffffffffffffff1614612b7657600080fd5b9392505050565b60007f000000000000000000000000000000000000000000000000000000000000000073ffffffffffffffffffffffffffffffffffffffff168573ffffffffffffffffffffffffffffffffffffffff16148015612bdd5750814791508110155b15612d16577f000000000000000000000000000000000000000000000000000000000000000073ffffffffffffffffffffffffffffffffffffffff1663d0e30db0826040518263ffffffff1660e01b81526004016000604051808303818588803b158015612c4a57600080fd5b505af1158015612c5e573d6000803e3d6000fd5b50505050507f000000000000000000000000000000000000000000000000000000000000000073ffffffffffffffffffffffffffffffffffffffff1663a9059cbb84846040518363ffffffff1660e01b8152600401612cbe9291906153c7565b602060405180830381600087803b158015612cd857600080fd5b505af1158015612cec573d6000803e3d6000fd5b505050506040513d601f19601f82011682018060405250810190612d1091906148b4565b50612d68565b3073ffffffffffffffffffffffffffffffffffffffff168473ffffffffffffffffffffffffffffffffffffffff161415612d5a57612d55858484613d7e565b612d67565b612d6685858585612d6f565b5b5b5050505050565b6000808573ffffffffffffffffffffffffffffffffffffffff166323b872dd60e01b868686604051602401612da693929190615390565b604051602081830303815290604052907bffffffffffffffffffffffffffffffffffffffffffffffffffffffff19166020820180517bffffffffffffffffffffffffffffffffffffffffffffffffffffffff8381831617835250505050604051612e1091906152ed565b6000604051808303816000865af19150503d8060008114612e4d576040519150601f19603f3d011682016040523d82523d6000602084013e612e52565b606091505b5091509150818015612e805750600081511480612e7f575080806020019051810190612e7e91906148b4565b5b5b612ebf576040517f08c379a0000000000000000000000000000000000000000000000000000000008152600401612eb690615671565b60405180910390fd5b505050505050565b6000806000612ed98460000151612afb565b915091506000600267ffffffffffffffff811115612f20577f4e487b7100000000000000000000000000000000000000000000000000000000600052604160045260246000fd5b604051908082528060200260200182016040528015612f4e5781602001602082028036833780820191505090505b5090508181600081518110612f8c577f4e487b7100000000000000000000000000000000000000000000000000000000600052603260045260246000fd5b602002602001019073ffffffffffffffffffffffffffffffffffffffff16908173ffffffffffffffffffffffffffffffffffffffff16815250508281600181518110613001577f4e487b7100000000000000000000000000000000000000000000000000000000600052603260045260246000fd5b602002602001019073ffffffffffffffffffffffffffffffffffffffff16908173ffffffffffffffffffffffffffffffffffffffff16815250506130667f00000000000000000000000000000000000000000000000000000000000000008883612564565b60008151811061309f577f4e487b7100000000000000000000000000000000000000000000000000000000600052603260045260246000fd5b602002602001015193506130b58685898861406b565b5050509392505050565b6000808411613103576040517f08c379a00000000000000000000000000000000000000000000000000000000081526004016130fa906156f1565b60405180910390fd5b6000831180156131135750600082115b613152576040517f08c379a000000000000000000000000000000000000000000000000000000000815260040161314990615531565b60405180910390fd5b60008573ffffffffffffffffffffffffffffffffffffffff1663ddca3f436040518163ffffffff1660e01b815260040160206040518083038186803b15801561319a57600080fd5b505afa1580156131ae573d6000803e3d6000fd5b505050506040513d601f19601f820116820180604052508101906131d29190614ad7565b905060006131ff633b9aca006131f18888613ed390919063ffffffff16565b613ed390919063ffffffff16565b9050600061323783633b9aca006132169190615b4e565b613229898861436190919063ffffffff16565b613ed390919063ffffffff16565b90506132586001828461324a9190615ac3565b613ee990919063ffffffff16565b9350505050949350505050565b60008060008060007f000000000000000000000000000000000000000000000000000000000000000090506000806132a08860000151612afb565b91509150600073ffffffffffffffffffffffffffffffffffffffff168373ffffffffffffffffffffffffffffffffffffffff1663e6a4390584846040518363ffffffff1660e01b81526004016132f7929190615367565b60206040518083038186803b15801561330f57600080fd5b505afa158015613323573d6000803e3d6000fd5b505050506040513d601f19601f8201168201806040525081019061334791906147bb565b73ffffffffffffffffffffffffffffffffffffffff1614156133f2578273ffffffffffffffffffffffffffffffffffffffff1663c9c6539683836040518363ffffffff1660e01b815260040161339e929190615367565b602060405180830381600087803b1580156133b857600080fd5b505af11580156133cc573d6000803e3d6000fd5b505050506040513d601f19601f820116820180604052508101906133f091906147bb565b505b60008061340085858561418a565b915091506000821480156134145750600081145b15613428578d8d809950819a505050613527565b60006134358f8484613a54565b90508d8111613490578b811015613481576040517f08c379a000000000000000000000000000000000000000000000000000000000815260040161347890615611565b60405180910390fd5b8e81809a50819b505050613525565b600061349d8f8486613a54565b90508f8111156134d6577f4e487b7100000000000000000000000000000000000000000000000000000000600052600160045260246000fd5b8d811015613519576040517f08c379a000000000000000000000000000000000000000000000000000000000815260040161351090615551565b60405180910390fd5b808f809b50819c505050505b505b60009650600095507f000000000000000000000000000000000000000000000000000000000000000073ffffffffffffffffffffffffffffffffffffffff168473ffffffffffffffffffffffffffffffffffffffff16141580156135d757507f000000000000000000000000000000000000000000000000000000000000000073ffffffffffffffffffffffffffffffffffffffff168373ffffffffffffffffffffffffffffffffffffffff1614155b15613a43576000600267ffffffffffffffff81111561361f577f4e487b7100000000000000000000000000000000000000000000000000000000600052604160045260246000fd5b60405190808252806020026020018201604052801561364d5781602001602082028036833780820191505090505b5090507f0000000000000000000000000000000000000000000000000000000000000000816000815181106136ab577f4e487b7100000000000000000000000000000000000000000000000000000000600052603260045260246000fd5b602002602001019073ffffffffffffffffffffffffffffffffffffffff16908173ffffffffffffffffffffffffffffffffffffffff1681525050600073ffffffffffffffffffffffffffffffffffffffff168673ffffffffffffffffffffffffffffffffffffffff1663e6a439057f0000000000000000000000000000000000000000000000000000000000000000886040518363ffffffff1660e01b8152600401613758929190615367565b60206040518083038186803b15801561377057600080fd5b505afa158015613784573d6000803e3d6000fd5b505050506040513d601f19601f820116820180604052508101906137a891906147bb565b73ffffffffffffffffffffffffffffffffffffffff16146138935784816001815181106137fe577f4e487b7100000000000000000000000000000000000000000000000000000000600052603260045260246000fd5b602002602001019073ffffffffffffffffffffffffffffffffffffffff16908173ffffffffffffffffffffffffffffffffffffffff168152505061384f8660028c6138499190615ac3565b83612564565b600081518110613888577f4e487b7100000000000000000000000000000000000000000000000000000000600052603260045260246000fd5b602002602001015197505b600073ffffffffffffffffffffffffffffffffffffffff168673ffffffffffffffffffffffffffffffffffffffff1663e6a439057f0000000000000000000000000000000000000000000000000000000000000000876040518363ffffffff1660e01b8152600401613906929190615367565b60206040518083038186803b15801561391e57600080fd5b505afa158015613932573d6000803e3d6000fd5b505050506040513d601f19601f8201168201806040525081019061395691906147bb565b73ffffffffffffffffffffffffffffffffffffffff1614613a415783816001815181106139ac577f4e487b7100000000000000000000000000000000000000000000000000000000600052603260045260246000fd5b602002602001019073ffffffffffffffffffffffffffffffffffffffff16908173ffffffffffffffffffffffffffffffffffffffff16815250506139fd8660028b6139f79190615ac3565b83612564565b600081518110613a36577f4e487b7100000000000000000000000000000000000000000000000000000000600052603260045260246000fd5b602002602001015196505b505b505050505095509550955095915050565b6000808411613a98576040517f08c379a0000000000000000000000000000000000000000000000000000000008152600401613a8f906156b1565b60405180910390fd5b600083118015613aa85750600082115b613ae7576040517f08c379a0000000000000000000000000000000000000000000000000000000008152600401613ade90615531565b60405180910390fd5b82613afb8386613ed390919063ffffffff16565b613b059190615ac3565b90509392505050565b6060600282511015613b55576040517f08c379a0000000000000000000000000000000000000000000000000000000008152600401613b4c90615651565b60405180910390fd5b815167ffffffffffffffff811115613b96577f4e487b7100000000000000000000000000000000000000000000000000000000600052604160045260246000fd5b604051908082528060200260200182016040528015613bc45781602001602082028036833780820191505090505b5090508281600081518110613c02577f4e487b7100000000000000000000000000000000000000000000000000000000600052603260045260246000fd5b60200260200101818152505060005b60018351613c1f9190615b4e565b811015613d7657600080613cc087868581518110613c66577f4e487b7100000000000000000000000000000000000000000000000000000000600052603260045260246000fd5b602002602001015187600187613c7c9190615a6d565b81518110613cb3577f4e487b7100000000000000000000000000000000000000000000000000000000600052603260045260246000fd5b602002602001015161418a565b91509150613d1087858581518110613d01577f4e487b7100000000000000000000000000000000000000000000000000000000600052603260045260246000fd5b6020026020010151848461214f565b84600185613d1e9190615a6d565b81518110613d55577f4e487b7100000000000000000000000000000000000000000000000000000000600052603260045260246000fd5b60200260200101818152505050508080613d6e90615cbf565b915050613c11565b509392505050565b6000808473ffffffffffffffffffffffffffffffffffffffff1663a9059cbb60e01b8585604051602401613db39291906153c7565b604051602081830303815290604052907bffffffffffffffffffffffffffffffffffffffffffffffffffffffff19166020820180517bffffffffffffffffffffffffffffffffffffffffffffffffffffffff8381831617835250505050604051613e1d91906152ed565b6000604051808303816000865af19150503d8060008114613e5a576040519150601f19603f3d011682016040523d82523d6000602084013e613e5f565b606091505b5091509150818015613e8d5750600081511480613e8c575080806020019051810190613e8b91906148b4565b5b5b613ecc576040517f08c379a0000000000000000000000000000000000000000000000000000000008152600401613ec3906155b1565b60405180910390fd5b5050505050565b60008183613ee19190615af4565b905092915050565b60008183613ef79190615a6d565b905092915050565b606081601f83613f0f9190615a6d565b1015613f50576040517f08c379a0000000000000000000000000000000000000000000000000000000008152600401613f4790615511565b60405180910390fd5b828284613f5d9190615a6d565b1015613f9e576040517f08c379a0000000000000000000000000000000000000000000000000000000008152600401613f9590615511565b60405180910390fd5b8183613faa9190615a6d565b84511015613fed576040517f08c379a0000000000000000000000000000000000000000000000000000000008152600401613fe4906156d1565b60405180910390fd5b606082156000811461400e576040519150600082526020820160405261405f565b6040519150601f8416801560200281840101858101878315602002848b0101015b8183101561404c578051835260208301925060208101905061402f565b50868552601f19601f8301166040525050505b50809150509392505050565b60008061407b8360000151612afb565b91509150600061408b8383611d78565b905061409983338389612b7d565b60006140a584846129cd565b5090506000808273ffffffffffffffffffffffffffffffffffffffff168673ffffffffffffffffffffffffffffffffffffffff16146140e6578760006140ea565b6000885b915091508373ffffffffffffffffffffffffffffffffffffffff1663022c0d9f83838d8b60405160200161411e9190615751565b6040516020818303038152906040526040518563ffffffff1660e01b815260040161414c94939291906157b7565b600060405180830381600087803b15801561416657600080fd5b505af115801561417a573d6000803e3d6000fd5b5050505050505050505050505050565b600080600061419985856129cd565b5090506000806141aa88888861290a565b73ffffffffffffffffffffffffffffffffffffffff16630902f1ac6040518163ffffffff1660e01b815260040160606040518083038186803b1580156141ef57600080fd5b505afa158015614203573d6000803e3d6000fd5b505050506040513d601f19601f820116820180604052508101906142279190614a88565b506dffffffffffffffffffffffffffff1691506dffffffffffffffffffffffffffff1691508273ffffffffffffffffffffffffffffffffffffffff168773ffffffffffffffffffffffffffffffffffffffff1614614286578082614289565b81815b8095508196505050505050935093915050565b6000816014836142ac9190615a6d565b10156142ed576040517f08c379a00000000000000000000000000000000000000000000000000000000081526004016142e490615731565b60405180910390fd5b6014826142fa9190615a6d565b8351101561433d576040517f08c379a000000000000000000000000000000000000000000000000000000000815260040161433490615631565b60405180910390fd5b60006c01000000000000000000000000836020860101510490508091505092915050565b6000818361436f9190615b4e565b905092915050565b600061438a6143858461590e565b6158e9565b905080838252602082019050828560208602820111156143a957600080fd5b60005b858110156143d957816143bf888261445f565b8452602084019350602083019250506001810190506143ac565b5050509392505050565b60006143f66143f18461593a565b6158e9565b90508281526020810184848401111561440e57600080fd5b614419848285615c22565b509392505050565b600061443461442f8461596b565b6158e9565b90508281526020810184848401111561444c57600080fd5b614457848285615c31565b509392505050565b60008135905061446e816162c6565b92915050565b600081519050614483816162c6565b92915050565b600082601f83011261449a57600080fd5b81356144aa848260208601614377565b91505092915050565b60008083601f8401126144c557600080fd5b8235905067ffffffffffffffff8111156144de57600080fd5b6020830191508360208202830111156144f657600080fd5b9250929050565b60008151905061450c816162dd565b92915050565b60008083601f84011261452457600080fd5b8235905067ffffffffffffffff81111561453d57600080fd5b60208301915083600182028301111561455557600080fd5b9250929050565b600082601f83011261456d57600080fd5b813561457d8482602086016143e3565b91505092915050565b600082601f83011261459757600080fd5b81516145a7848260208601614421565b91505092915050565b600061010082840312156145c357600080fd5b81905092915050565b600060a082840312156145de57600080fd5b81905092915050565b600061010082840312156145fa57600080fd5b81905092915050565b6000610100828403121561461657600080fd5b81905092915050565b60006040828403121561463157600080fd5b61463b60406158e9565b9050600082013567ffffffffffffffff81111561465757600080fd5b6146638482850161455c565b60008301525060206146778482850161445f565b60208301525092915050565b600060a0828403121561469557600080fd5b61469f60a06158e9565b9050600082013567ffffffffffffffff8111156146bb57600080fd5b6146c78482850161455c565b60008301525060206146db8482850161445f565b60208301525060406146ef84828501614753565b604083015250606061470384828501614753565b606083015250608061471784828501614753565b60808301525092915050565b600060c0828403121561473557600080fd5b81905092915050565b60008151905061474d816162f4565b92915050565b6000813590506147628161630b565b92915050565b6000815190506147778161630b565b92915050565b60008151905061478c81616322565b92915050565b6000602082840312156147a457600080fd5b60006147b28482850161445f565b91505092915050565b6000602082840312156147cd57600080fd5b60006147db84828501614474565b91505092915050565b600080604083850312156147f757600080fd5b60006148058582860161445f565b92505060206148168582860161445f565b9150509250929050565b60008060006060848603121561483557600080fd5b60006148438682870161445f565b935050602061485486828701614753565b92505060406148658682870161445f565b9150509250925092565b6000806020838503121561488257600080fd5b600083013567ffffffffffffffff81111561489c57600080fd5b6148a8858286016144b3565b92509250509250929050565b6000602082840312156148c657600080fd5b60006148d4848285016144fd565b91505092915050565b6000602082840312156148ef57600080fd5b600082015167ffffffffffffffff81111561490957600080fd5b61491584828501614586565b91505092915050565b6000610100828403121561493157600080fd5b600061493f848285016145b0565b91505092915050565b60006020828403121561495a57600080fd5b600082013567ffffffffffffffff81111561497457600080fd5b614980848285016145cc565b91505092915050565b6000610100828403121561499c57600080fd5b60006149aa848285016145e7565b91505092915050565b600061010082840312156149c657600080fd5b60006149d484828501614603565b91505092915050565b6000602082840312156149ef57600080fd5b600082013567ffffffffffffffff811115614a0957600080fd5b614a158482850161461f565b91505092915050565b600060208284031215614a3057600080fd5b600082013567ffffffffffffffff811115614a4a57600080fd5b614a5684828501614683565b91505092915050565b600060c08284031215614a7157600080fd5b6000614a7f84828501614723565b91505092915050565b600080600060608486031215614a9d57600080fd5b6000614aab8682870161473e565b9350506020614abc8682870161473e565b9250506040614acd8682870161477d565b9150509250925092565b600060208284031215614ae957600080fd5b6000614af784828501614768565b91505092915050565b60008060408385031215614b1357600080fd5b6000614b2185828601614753565b9250506020614b328582860161445f565b9150509250929050565b60008060408385031215614b4f57600080fd5b6000614b5d85828601614753565b925050602083013567ffffffffffffffff811115614b7a57600080fd5b614b8685828601614489565b9150509250929050565b60008060408385031215614ba357600080fd5b6000614bb185828601614768565b9250506020614bc285828601614768565b9150509250929050565b60008060008060608587031215614be257600080fd5b6000614bf087828801614753565b9450506020614c0187828801614753565b935050604085013567ffffffffffffffff811115614c1e57600080fd5b614c2a87828801614512565b925092505092959194509250565b600080600060608486031215614c4d57600080fd5b6000614c5b86828701614753565b9350506020614c6c86828701614753565b9250506040614c7d86828701614753565b9150509250925092565b6000614c938383614df7565b905092915050565b6000614ca7838361528a565b60208301905092915050565b614cbc81615b82565b82525050565b614ccb81615b82565b82525050565b614ce2614cdd82615b82565b615d08565b82525050565b6000614cf3826159bc565b614cfd8185615a02565b935083602082028501614d0f8561599c565b8060005b85811015614d4b5784840389528151614d2c8582614c87565b9450614d37836159e8565b925060208a01995050600181019050614d13565b50829750879550505050505092915050565b6000614d68826159c7565b614d728185615a13565b9350614d7d836159ac565b8060005b83811015614dae578151614d958882614c9b565b9750614da0836159f5565b925050600181019050614d81565b5085935050505092915050565b614dcc614dc782615ba0565b615d1a565b82525050565b6000614dde8385615a46565b9350614deb838584615c22565b82840190509392505050565b6000614e02826159d2565b614e0c8185615a24565b9350614e1c818560208601615c31565b614e2581615dc3565b840191505092915050565b6000614e3b826159d2565b614e458185615a35565b9350614e55818560208601615c31565b614e5e81615dc3565b840191505092915050565b6000614e74826159d2565b614e7e8185615a46565b9350614e8e818560208601615c31565b80840191505092915050565b614ea381615bfe565b82525050565b6000614eb4826159dd565b614ebe8185615a51565b9350614ece818560208601615c31565b614ed781615dc3565b840191505092915050565b6000614eef601283615a51565b9150614efa82615de1565b602082019050919050565b6000614f12601d83615a51565b9150614f1d82615e0a565b602082019050919050565b6000614f35601283615a51565b9150614f4082615e33565b602082019050919050565b6000614f58602683615a51565b9150614f6382615e5c565b604082019050919050565b6000614f7b600383615a51565b9150614f8682615eab565b602082019050919050565b6000614f9e600e83615a51565b9150614fa982615ed4565b602082019050919050565b6000614fc1602983615a51565b9150614fcc82615efd565b604082019050919050565b6000614fe4602783615a51565b9150614fef82615f4c565b604082019050919050565b6000615007602c83615a51565b915061501282615f9b565b604082019050919050565b600061502a600183615a62565b915061503582615fea565b600182019050919050565b600061504d601f83615a51565b915061505882616013565b602082019050919050565b6000615070600283615a51565b915061507b8261603c565b602082019050919050565b6000615093600e83615a51565b915061509e82616065565b602082019050919050565b60006150b6600983615a51565b91506150c18261608e565b602082019050919050565b60006150d9602783615a51565b91506150e4826160b7565b604082019050919050565b60006150fc601583615a51565b915061510782616106565b602082019050919050565b600061511f601f83615a51565b915061512a8261612f565b602082019050919050565b6000615142600383615a51565b915061514d82616158565b602082019050919050565b6000615165601383615a51565b915061517082616181565b602082019050919050565b6000615188600083615a35565b9150615193826161aa565b600082019050919050565b60006151ab602683615a51565b91506151b6826161ad565b604082019050919050565b60006151ce601183615a51565b91506151d9826161fc565b602082019050919050565b60006151f1602d83615a51565b91506151fc82616225565b604082019050919050565b6000615214601383615a51565b915061521f82616274565b602082019050919050565b6000615237601283615a51565b91506152428261629d565b602082019050919050565b6000604083016000830151848203600086015261526a8282614df7565b915050602083015161527f6020860182614cb3565b508091505092915050565b61529381615be4565b82525050565b6152a281615be4565b82525050565b60006152b48285614cd1565b6014820191506152c48284614cd1565b6014820191508190509392505050565b60006152e1828486614dd2565b91508190509392505050565b60006152f98284614e69565b915081905092915050565b600061530f8261501d565b915061531b8286614cd1565b60148201915061532b8285614dbb565b60208201915061533b8284614dbb565b602082019150819050949350505050565b60006020820190506153616000830184614cc2565b92915050565b600060408201905061537c6000830185614cc2565b6153896020830184614cc2565b9392505050565b60006060820190506153a56000830186614cc2565b6153b26020830185614cc2565b6153bf6040830184615299565b949350505050565b60006040820190506153dc6000830185614cc2565b6153e96020830184615299565b9392505050565b6000602082019050818103600083015261540a8184614ce8565b905092915050565b6000602082019050818103600083015261542c8184614d5d565b905092915050565b60006020820190506154496000830184614e9a565b92915050565b600060208201905081810360008301526154698184614ea9565b905092915050565b6000602082019050818103600083015261548a81614ee2565b9050919050565b600060208201905081810360008301526154aa81614f05565b9050919050565b600060208201905081810360008301526154ca81614f28565b9050919050565b600060208201905081810360008301526154ea81614f4b565b9050919050565b6000602082019050818103600083015261550a81614f6e565b9050919050565b6000602082019050818103600083015261552a81614f91565b9050919050565b6000602082019050818103600083015261554a81614fb4565b9050919050565b6000602082019050818103600083015261556a81614fd7565b9050919050565b6000602082019050818103600083015261558a81614ffa565b9050919050565b600060208201905081810360008301526155aa81615040565b9050919050565b600060208201905081810360008301526155ca81615063565b9050919050565b600060208201905081810360008301526155ea81615086565b9050919050565b6000602082019050818103600083015261560a816150a9565b9050919050565b6000602082019050818103600083015261562a816150cc565b9050919050565b6000602082019050818103600083015261564a816150ef565b9050919050565b6000602082019050818103600083015261566a81615112565b9050919050565b6000602082019050818103600083015261568a81615135565b9050919050565b600060208201905081810360008301526156aa81615158565b9050919050565b600060208201905081810360008301526156ca8161519e565b9050919050565b600060208201905081810360008301526156ea816151c1565b9050919050565b6000602082019050818103600083015261570a816151e4565b9050919050565b6000602082019050818103600083015261572a81615207565b9050919050565b6000602082019050818103600083015261574a8161522a565b9050919050565b6000602082019050818103600083015261576b818461524d565b905092915050565b60006020820190506157886000830184615299565b92915050565b60006040820190506157a36000830185615299565b6157b06020830184615299565b9392505050565b60006080820190506157cc6000830187615299565b6157d96020830186615299565b6157e66040830185614cc2565b81810360608301526157f88184614e30565b905095945050505050565b60006080820190506158186000830186615299565b6158256020830185615299565b6158326040830184614cc2565b81810360608301526158438161517b565b9050949350505050565b60006080820190506158626000830187615299565b61586f6020830186615299565b61587c6040830185615299565b6158896060830184615299565b95945050505050565b600080833560016020038436030381126158ab57600080fd5b80840192508235915067ffffffffffffffff8211156158c957600080fd5b6020830192506001820236038313156158e157600080fd5b509250929050565b60006158f3615904565b90506158ff8282615c8e565b919050565b6000604051905090565b600067ffffffffffffffff82111561592957615928615d94565b5b602082029050602081019050919050565b600067ffffffffffffffff82111561595557615954615d94565b5b61595e82615dc3565b9050602081019050919050565b600067ffffffffffffffff82111561598657615985615d94565b5b61598f82615dc3565b9050602081019050919050565b6000819050602082019050919050565b6000819050602082019050919050565b600081519050919050565b600081519050919050565b600081519050919050565b600081519050919050565b6000602082019050919050565b6000602082019050919050565b600082825260208201905092915050565b600082825260208201905092915050565b600082825260208201905092915050565b600082825260208201905092915050565b600081905092915050565b600082825260208201905092915050565b600081905092915050565b6000615a7882615be4565b9150615a8383615be4565b9250827fffffffffffffffffffffffffffffffffffffffffffffffffffffffffffffffff03821115615ab857615ab7615d36565b5b828201905092915050565b6000615ace82615be4565b9150615ad983615be4565b925082615ae957615ae8615d65565b5b828204905092915050565b6000615aff82615be4565b9150615b0a83615be4565b9250817fffffffffffffffffffffffffffffffffffffffffffffffffffffffffffffffff0483118215151615615b4357615b42615d36565b5b828202905092915050565b6000615b5982615be4565b9150615b6483615be4565b925082821015615b7757615b76615d36565b5b828203905092915050565b6000615b8d82615bc4565b9050919050565b60008115159050919050565b6000819050919050565b60006dffffffffffffffffffffffffffff82169050919050565b600073ffffffffffffffffffffffffffffffffffffffff82169050919050565b6000819050919050565b600063ffffffff82169050919050565b6000615c0982615c10565b9050919050565b6000615c1b82615bc4565b9050919050565b82818337600083830152505050565b60005b83811015615c4f578082015181840152602081019050615c34565b83811115615c5e576000848401525b50505050565b6000615c6f82615be4565b91506000821415615c8357615c82615d36565b5b600182039050919050565b615c9782615dc3565b810181811067ffffffffffffffff82111715615cb657615cb5615d94565b5b80604052505050565b6000615cca82615be4565b91507fffffffffffffffffffffffffffffffffffffffffffffffffffffffffffffffff821415615cfd57615cfc615d36565b5b600182019050919050565b6000615d1382615d24565b9050919050565b6000819050919050565b6000615d2f82615dd4565b9050919050565b7f4e487b7100000000000000000000000000000000000000000000000000000000600052601160045260246000fd5b7f4e487b7100000000000000000000000000000000000000000000000000000000600052601260045260246000fd5b7f4e487b7100000000000000000000000000000000000000000000000000000000600052604160045260246000fd5b6000601f19601f8301169050919050565b60008160601b9050919050565b7f496e73756666696369656e742057455448390000000000000000000000000000600082015250565b7f43616e6e6f742063616c63756c61746520504f434b45542076616c7565000000600082015250565b7f496e73756666696369656e7420746f6b656e0000000000000000000000000000600082015250565b7f506f636b6574537761704c6962726172793a204944454e544943414c5f41444460008201527f5245535345530000000000000000000000000000000000000000000000000000602082015250565b7f5354450000000000000000000000000000000000000000000000000000000000600082015250565b7f736c6963655f6f766572666c6f77000000000000000000000000000000000000600082015250565b7f506f636b6574537761704c6962726172793a20494e53554646494349454e545f60008201527f4c49515549444954590000000000000000000000000000000000000000000000602082015250565b7f506f636b657453776170526f757465723a20494e53554646494349454e545f4160008201527f5f414d4f554e5400000000000000000000000000000000000000000000000000602082015250565b7f506f636b6574537761704c6962726172793a20494e53554646494349454e545f60008201527f494e5055545f414d4f554e540000000000000000000000000000000000000000602082015250565b7fff00000000000000000000000000000000000000000000000000000000000000600082015250565b7f506f636b6574537761704c6962726172793a205a45524f5f4144445245535300600082015250565b7f5354000000000000000000000000000000000000000000000000000000000000600082015250565b7f4e6f20504f434b45542070616972000000000000000000000000000000000000600082015250565b7f4e6f742057455448390000000000000000000000000000000000000000000000600082015250565b7f506f636b657453776170526f757465723a20494e53554646494349454e545f4260008201527f5f414d4f554e5400000000000000000000000000000000000000000000000000602082015250565b7f746f416464726573735f6f75744f66426f756e64730000000000000000000000600082015250565b7f506f636b6574537761704c6962726172793a20494e56414c49445f5041544800600082015250565b7f5354460000000000000000000000000000000000000000000000000000000000600082015250565b7f5472616e73616374696f6e20746f6f206f6c6400000000000000000000000000600082015250565b50565b7f506f636b6574537761704c6962726172793a20494e53554646494349454e545f60008201527f414d4f554e540000000000000000000000000000000000000000000000000000602082015250565b7f736c6963655f6f75744f66426f756e6473000000000000000000000000000000600082015250565b7f506f636b6574537761704c6962726172793a20494e53554646494349454e545f60008201527f4f55545055545f414d4f554e5400000000000000000000000000000000000000602082015250565b7f546f6f206c6974746c6520726563656976656400000000000000000000000000600082015250565b7f746f416464726573735f6f766572666c6f770000000000000000000000000000600082015250565b6162cf81615b82565b81146162da57600080fd5b50565b6162e681615b94565b81146162f157600080fd5b50565b6162fd81615baa565b811461630857600080fd5b50565b61631481615be4565b811461631f57600080fd5b50565b61632b81615bee565b811461633657600080fd5b5056fea2646970667358221220e26d548d16469f00717b7a8792896588f7dfefec1cfa1237f589349274b5a6ee64736f6c63430008040033a264697066735822122068a43cd6b8aad9d3de3b309775a9b13741cdafcb0abf692821bb9fdc1a8e1a4c64736f6c63430008040033",
  "immutableReferences": {},
  "source": "// SPDX-License-Identifier: Unlicensed\npragma solidity =0.8.4;\npragma abicoder v2;\n\nimport {PocketSwapFactory, IPocketSwapFactory} from \"./pocketswap/PocketSwapFactory.sol\";\nimport {PocketSwapRouter, IPocketSwapRouter} from \"./pocketswap/PocketSwapRouter.sol\";\nimport {Pocket} from \"./Pocket.sol\";\n\ncontract PocketSwap {\n    IPocketSwapFactory public factory;\n    IPocketSwapRouter public router;\n    Pocket public pocketToken;\n\n    bool public initialized;\n    address _owner;\n\n    address public tokenHoldersFee;\n    uint public rewardsPerToken;\n    mapping(address => uint) public takenReward;\n\n    modifier onlyOwner() {\n        if (msg.sender == _owner) _;\n    }\n\n    constructor() {\n        _owner = msg.sender;\n    }\n\n    function initialize(\n        address _WETH9,\n        string memory name_,\n        string memory symbol_,\n        uint256 supply_\n    ) external onlyOwner {\n        address creator = msg.sender;\n        pocketToken = new Pocket(name_, symbol_, supply_);\n        factory = new PocketSwapFactory(creator);\n        router = new PocketSwapRouter(address(factory), _WETH9, address(pocketToken));\n    }\n\n    function swap(IPocketSwapRouter.SwapParams calldata params) external {\n        router.swap(params);\n    }\n}\n",
  "sourcePath": "/Users/ilyk/projects/midgardtech/xpocket-PocketSwap/contracts/PocketSwap.sol",
  "compiler": {
    "name": "solc",
    "version": "0.8.4+commit.c7e474f2.Emscripten.clang"
  },
  "schemaVersion": "3.4.0",
  "updatedAt": "2021-05-10T08:24:25.267Z",
  "devdoc": {
    "kind": "dev",
    "methods": {},
    "version": 1
  },
  "userdoc": {
    "kind": "user",
    "methods": {},
    "version": 1
  }
}