{
  "contractName": "Pocket",
  "abi": [
    {
      "inputs": [
        {
          "internalType": "string",
          "name": "name_",
          "type": "string"
        },
        {
          "internalType": "string",
          "name": "symbol_",
          "type": "string"
        },
        {
          "internalType": "uint256",
          "name": "supply_",
          "type": "uint256"
        }
      ],
      "stateMutability": "nonpayable",
      "type": "constructor"
    },
    {
      "anonymous": false,
      "inputs": [
        {
          "indexed": true,
          "internalType": "address",
          "name": "owner",
          "type": "address"
        },
        {
          "indexed": true,
          "internalType": "address",
          "name": "spender",
          "type": "address"
        },
        {
          "indexed": false,
          "internalType": "uint256",
          "name": "value",
          "type": "uint256"
        }
      ],
      "name": "Approval",
      "type": "event"
    },
    {
      "anonymous": false,
      "inputs": [
        {
          "indexed": true,
          "internalType": "address",
          "name": "previousOwner",
          "type": "address"
        },
        {
          "indexed": true,
          "internalType": "address",
          "name": "newOwner",
          "type": "address"
        }
      ],
      "name": "OwnershipTransferred",
      "type": "event"
    },
    {
      "anonymous": false,
      "inputs": [
        {
          "indexed": true,
          "internalType": "address",
          "name": "from",
          "type": "address"
        },
        {
          "indexed": true,
          "internalType": "address",
          "name": "to",
          "type": "address"
        },
        {
          "indexed": false,
          "internalType": "uint256",
          "name": "value",
          "type": "uint256"
        }
      ],
      "name": "Transfer",
      "type": "event"
    },
    {
      "inputs": [
        {
          "internalType": "address",
          "name": "owner",
          "type": "address"
        },
        {
          "internalType": "address",
          "name": "spender",
          "type": "address"
        }
      ],
      "name": "allowance",
      "outputs": [
        {
          "internalType": "uint256",
          "name": "",
          "type": "uint256"
        }
      ],
      "stateMutability": "view",
      "type": "function"
    },
    {
      "inputs": [
        {
          "internalType": "address",
          "name": "spender",
          "type": "address"
        },
        {
          "internalType": "uint256",
          "name": "amount",
          "type": "uint256"
        }
      ],
      "name": "approve",
      "outputs": [
        {
          "internalType": "bool",
          "name": "",
          "type": "bool"
        }
      ],
      "stateMutability": "nonpayable",
      "type": "function"
    },
    {
      "inputs": [],
      "name": "decimals",
      "outputs": [
        {
          "internalType": "uint8",
          "name": "",
          "type": "uint8"
        }
      ],
      "stateMutability": "view",
      "type": "function"
    },
    {
      "inputs": [
        {
          "internalType": "address",
          "name": "spender",
          "type": "address"
        },
        {
          "internalType": "uint256",
          "name": "subtractedValue",
          "type": "uint256"
        }
      ],
      "name": "decreaseAllowance",
      "outputs": [
        {
          "internalType": "bool",
          "name": "",
          "type": "bool"
        }
      ],
      "stateMutability": "nonpayable",
      "type": "function"
    },
    {
      "inputs": [
        {
          "internalType": "address",
          "name": "spender",
          "type": "address"
        },
        {
          "internalType": "uint256",
          "name": "addedValue",
          "type": "uint256"
        }
      ],
      "name": "increaseAllowance",
      "outputs": [
        {
          "internalType": "bool",
          "name": "",
          "type": "bool"
        }
      ],
      "stateMutability": "nonpayable",
      "type": "function"
    },
    {
      "inputs": [],
      "name": "name",
      "outputs": [
        {
          "internalType": "string",
          "name": "",
          "type": "string"
        }
      ],
      "stateMutability": "view",
      "type": "function"
    },
    {
      "inputs": [],
      "name": "owner",
      "outputs": [
        {
          "internalType": "address",
          "name": "",
          "type": "address"
        }
      ],
      "stateMutability": "view",
      "type": "function"
    },
    {
      "inputs": [],
      "name": "renounceOwnership",
      "outputs": [],
      "stateMutability": "nonpayable",
      "type": "function"
    },
    {
      "inputs": [],
      "name": "symbol",
      "outputs": [
        {
          "internalType": "string",
          "name": "",
          "type": "string"
        }
      ],
      "stateMutability": "view",
      "type": "function"
    },
    {
      "inputs": [],
      "name": "totalSupply",
      "outputs": [
        {
          "internalType": "uint256",
          "name": "",
          "type": "uint256"
        }
      ],
      "stateMutability": "view",
      "type": "function"
    },
    {
      "inputs": [
        {
          "internalType": "address",
          "name": "recipient",
          "type": "address"
        },
        {
          "internalType": "uint256",
          "name": "amount",
          "type": "uint256"
        }
      ],
      "name": "transfer",
      "outputs": [
        {
          "internalType": "bool",
          "name": "",
          "type": "bool"
        }
      ],
      "stateMutability": "nonpayable",
      "type": "function"
    },
    {
      "inputs": [
        {
          "internalType": "address",
          "name": "sender",
          "type": "address"
        },
        {
          "internalType": "address",
          "name": "recipient",
          "type": "address"
        },
        {
          "internalType": "uint256",
          "name": "amount",
          "type": "uint256"
        }
      ],
      "name": "transferFrom",
      "outputs": [
        {
          "internalType": "bool",
          "name": "",
          "type": "bool"
        }
      ],
      "stateMutability": "nonpayable",
      "type": "function"
    },
    {
      "inputs": [
        {
          "internalType": "address",
          "name": "newOwner",
          "type": "address"
        }
      ],
      "name": "transferOwnership",
      "outputs": [],
      "stateMutability": "nonpayable",
      "type": "function"
    },
    {
      "inputs": [
        {
          "internalType": "address",
          "name": "account",
          "type": "address"
        }
      ],
      "name": "excludeFromRewards",
      "outputs": [],
      "stateMutability": "nonpayable",
      "type": "function"
    },
    {
      "inputs": [
        {
          "internalType": "address",
          "name": "account",
          "type": "address"
        }
      ],
      "name": "includeInRewards",
      "outputs": [],
      "stateMutability": "nonpayable",
      "type": "function"
    },
    {
      "inputs": [
        {
          "internalType": "uint256",
          "name": "amount",
          "type": "uint256"
        }
      ],
      "name": "addRewards",
      "outputs": [
        {
          "internalType": "bool",
          "name": "",
          "type": "bool"
        }
      ],
      "stateMutability": "nonpayable",
      "type": "function"
    },
    {
      "inputs": [
        {
          "internalType": "address",
          "name": "account",
          "type": "address"
        }
      ],
      "name": "balanceOf",
      "outputs": [
        {
          "internalType": "uint256",
          "name": "",
          "type": "uint256"
        }
      ],
      "stateMutability": "view",
      "type": "function"
    }
  ],
  "bytecode": "0x60806040523480156200001157600080fd5b506040516200258e3803806200258e8339818101604052810190620000379190620003e4565b8282816003908051906020019062000051929190620002ab565b5080600490805190602001906200006a929190620002ab565b50505060006200007f6200013960201b60201c565b905080600560006101000a81548173ffffffffffffffffffffffffffffffffffffffff021916908373ffffffffffffffffffffffffffffffffffffffff1602179055508073ffffffffffffffffffffffffffffffffffffffff16600073ffffffffffffffffffffffffffffffffffffffff167f8be0079c531659141344cd1fd0a4f28419497f9722a3daafe3b4186f6b6457e060405160405180910390a3506200013033826200014160201b60201c565b5050506200073d565b600033905090565b600073ffffffffffffffffffffffffffffffffffffffff168273ffffffffffffffffffffffffffffffffffffffff161415620001b4576040517f08c379a0000000000000000000000000000000000000000000000000000000008152600401620001ab90620004a4565b60405180910390fd5b620001c860008383620002a660201b60201c565b8060026000828254620001dc919062000553565b92505081905550806000808473ffffffffffffffffffffffffffffffffffffffff1673ffffffffffffffffffffffffffffffffffffffff168152602001908152602001600020600082825462000233919062000553565b925050819055508173ffffffffffffffffffffffffffffffffffffffff16600073ffffffffffffffffffffffffffffffffffffffff167fddf252ad1be2c89b69c2b068fc378daa952ba7f163c4a11628f55a4df523b3ef836040516200029a9190620004c6565b60405180910390a35050565b505050565b828054620002b990620005f0565b90600052602060002090601f016020900481019282620002dd576000855562000329565b82601f10620002f857805160ff191683800117855562000329565b8280016001018555821562000329579182015b82811115620003285782518255916020019190600101906200030b565b5b5090506200033891906200033c565b5090565b5b80821115620003575760008160009055506001016200033d565b5090565b6000620003726200036c846200050c565b620004e3565b9050828152602081018484840111156200038b57600080fd5b62000398848285620005ba565b509392505050565b600082601f830112620003b257600080fd5b8151620003c48482602086016200035b565b91505092915050565b600081519050620003de8162000723565b92915050565b600080600060608486031215620003fa57600080fd5b600084015167ffffffffffffffff8111156200041557600080fd5b6200042386828701620003a0565b935050602084015167ffffffffffffffff8111156200044157600080fd5b6200044f86828701620003a0565b92505060406200046286828701620003cd565b9150509250925092565b60006200047b601f8362000542565b91506200048882620006fa565b602082019050919050565b6200049e81620005b0565b82525050565b60006020820190508181036000830152620004bf816200046c565b9050919050565b6000602082019050620004dd600083018462000493565b92915050565b6000620004ef62000502565b9050620004fd828262000626565b919050565b6000604051905090565b600067ffffffffffffffff8211156200052a5762000529620006ba565b5b6200053582620006e9565b9050602081019050919050565b600082825260208201905092915050565b60006200056082620005b0565b91506200056d83620005b0565b9250827fffffffffffffffffffffffffffffffffffffffffffffffffffffffffffffffff03821115620005a557620005a46200065c565b5b828201905092915050565b6000819050919050565b60005b83811015620005da578082015181840152602081019050620005bd565b83811115620005ea576000848401525b50505050565b600060028204905060018216806200060957607f821691505b6020821081141562000620576200061f6200068b565b5b50919050565b6200063182620006e9565b810181811067ffffffffffffffff82111715620006535762000652620006ba565b5b80604052505050565b7f4e487b7100000000000000000000000000000000000000000000000000000000600052601160045260246000fd5b7f4e487b7100000000000000000000000000000000000000000000000000000000600052602260045260246000fd5b7f4e487b7100000000000000000000000000000000000000000000000000000000600052604160045260246000fd5b6000601f19601f8301169050919050565b7f45524332303a206d696e7420746f20746865207a65726f206164647265737300600082015250565b6200072e81620005b0565b81146200073a57600080fd5b50565b611e41806200074d6000396000f3fe608060405234801561001057600080fd5b506004361061010b5760003560e01c8063715018a6116100a2578063a9059cbb11610071578063a9059cbb146102bc578063b609995e146102ec578063beceed3914610308578063dd62ed3e14610338578063f2fde38b146103685761010b565b8063715018a6146102465780638da5cb5b1461025057806395d89b411461026e578063a457c2d71461028c5761010b565b806323b872dd116100de57806323b872dd14610198578063313ce567146101c857806339509351146101e657806370a08231146102165761010b565b806306fdde0314610110578063095ea7b31461012e578063111e03761461015e57806318160ddd1461017a575b600080fd5b610118610384565b604051610125919061173b565b60405180910390f35b610148600480360381019061014391906114f0565b610416565b6040516101559190611720565b60405180910390f35b6101786004803603810190610173919061143c565b610434565b005b610182610572565b60405161018f919061187d565b60405180910390f35b6101b260048036038101906101ad91906114a1565b61057c565b6040516101bf9190611720565b60405180910390f35b6101d061067d565b6040516101dd9190611898565b60405180910390f35b61020060048036038101906101fb91906114f0565b610686565b60405161020d9190611720565b60405180910390f35b610230600480360381019061022b919061143c565b610732565b60405161023d919061187d565b60405180910390f35b61024e610757565b005b610258610894565b6040516102659190611705565b60405180910390f35b6102766108be565b604051610283919061173b565b60405180910390f35b6102a660048036038101906102a191906114f0565b610950565b6040516102b39190611720565b60405180910390f35b6102d660048036038101906102d191906114f0565b610a44565b6040516102e39190611720565b60405180910390f35b6103066004803603810190610301919061143c565b610a62565b005b610322600480360381019061031d919061152c565b610b97565b60405161032f9190611720565b60405180910390f35b610352600480360381019061034d9190611465565b610baa565b60405161035f919061187d565b60405180910390f35b610382600480360381019061037d919061143c565b610c31565b005b60606003805461039390611a6c565b80601f01602080910402602001604051908101604052809291908181526020018280546103bf90611a6c565b801561040c5780601f106103e15761010080835404028352916020019161040c565b820191906000526020600020905b8154815290600101906020018083116103ef57829003601f168201915b5050505050905090565b600061042a610423610ddd565b8484610de5565b6001905092915050565b8061043e30610fb0565b600760008373ffffffffffffffffffffffffffffffffffffffff1673ffffffffffffffffffffffffffffffffffffffff16815260200190815260200160002081905550600061048c82610ff8565b9050610499308383611117565b6104a1610ddd565b73ffffffffffffffffffffffffffffffffffffffff166104bf610894565b73ffffffffffffffffffffffffffffffffffffffff1614610515576040517f08c379a000000000000000000000000000000000000000000000000000000000815260040161050c906117fd565b60405180910390fd5b6001600660008573ffffffffffffffffffffffffffffffffffffffff1673ffffffffffffffffffffffffffffffffffffffff16815260200190815260200160002060006101000a81548160ff021916908315150217905550505050565b6000600254905090565b6000610589848484611396565b6000600160008673ffffffffffffffffffffffffffffffffffffffff1673ffffffffffffffffffffffffffffffffffffffff16815260200190815260200160002060006105d4610ddd565b73ffffffffffffffffffffffffffffffffffffffff1673ffffffffffffffffffffffffffffffffffffffff16815260200190815260200160002054905082811015610654576040517f08c379a000000000000000000000000000000000000000000000000000000000815260040161064b906117dd565b60405180910390fd5b61067185610660610ddd565b858461066c91906119b0565b610de5565b60019150509392505050565b60006012905090565b6000610728610693610ddd565b8484600160006106a1610ddd565b73ffffffffffffffffffffffffffffffffffffffff1673ffffffffffffffffffffffffffffffffffffffff16815260200190815260200160002060008873ffffffffffffffffffffffffffffffffffffffff1673ffffffffffffffffffffffffffffffffffffffff1681526020019081526020016000205461072391906118cf565b610de5565b6001905092915050565b600061073d82610ff8565b61074683610fb0565b61075091906118cf565b9050919050565b61075f610ddd565b73ffffffffffffffffffffffffffffffffffffffff1661077d610894565b73ffffffffffffffffffffffffffffffffffffffff16146107d3576040517f08c379a00000000000000000000000000000000000000000000000000000000081526004016107ca906117fd565b60405180910390fd5b600073ffffffffffffffffffffffffffffffffffffffff16600560009054906101000a900473ffffffffffffffffffffffffffffffffffffffff1673ffffffffffffffffffffffffffffffffffffffff167f8be0079c531659141344cd1fd0a4f28419497f9722a3daafe3b4186f6b6457e060405160405180910390a36000600560006101000a81548173ffffffffffffffffffffffffffffffffffffffff021916908373ffffffffffffffffffffffffffffffffffffffff160217905550565b6000600560009054906101000a900473ffffffffffffffffffffffffffffffffffffffff16905090565b6060600480546108cd90611a6c565b80601f01602080910402602001604051908101604052809291908181526020018280546108f990611a6c565b80156109465780601f1061091b57610100808354040283529160200191610946565b820191906000526020600020905b81548152906001019060200180831161092957829003601f168201915b5050505050905090565b6000806001600061095f610ddd565b73ffffffffffffffffffffffffffffffffffffffff1673ffffffffffffffffffffffffffffffffffffffff16815260200190815260200160002060008573ffffffffffffffffffffffffffffffffffffffff1673ffffffffffffffffffffffffffffffffffffffff16815260200190815260200160002054905082811015610a1c576040517f08c379a0000000000000000000000000000000000000000000000000000000008152600401610a139061185d565b60405180910390fd5b610a39610a27610ddd565b858584610a3491906119b0565b610de5565b600191505092915050565b6000610a58610a51610ddd565b8484611396565b6001905092915050565b80610a6c30610fb0565b600760008373ffffffffffffffffffffffffffffffffffffffff1673ffffffffffffffffffffffffffffffffffffffff168152602001908152602001600020819055506000610aba82610ff8565b9050610ac7308383611117565b610acf610ddd565b73ffffffffffffffffffffffffffffffffffffffff16610aed610894565b73ffffffffffffffffffffffffffffffffffffffff1614610b43576040517f08c379a0000000000000000000000000000000000000000000000000000000008152600401610b3a906117fd565b60405180910390fd5b600660008473ffffffffffffffffffffffffffffffffffffffff1673ffffffffffffffffffffffffffffffffffffffff16815260200190815260200160002060006101000a81549060ff0219169055505050565b6000610ba33083610a44565b9050919050565b6000600160008473ffffffffffffffffffffffffffffffffffffffff1673ffffffffffffffffffffffffffffffffffffffff16815260200190815260200160002060008373ffffffffffffffffffffffffffffffffffffffff1673ffffffffffffffffffffffffffffffffffffffff16815260200190815260200160002054905092915050565b610c39610ddd565b73ffffffffffffffffffffffffffffffffffffffff16610c57610894565b73ffffffffffffffffffffffffffffffffffffffff1614610cad576040517f08c379a0000000000000000000000000000000000000000000000000000000008152600401610ca4906117fd565b60405180910390fd5b600073ffffffffffffffffffffffffffffffffffffffff168173ffffffffffffffffffffffffffffffffffffffff161415610d1d576040517f08c379a0000000000000000000000000000000000000000000000000000000008152600401610d149061177d565b60405180910390fd5b8073ffffffffffffffffffffffffffffffffffffffff16600560009054906101000a900473ffffffffffffffffffffffffffffffffffffffff1673ffffffffffffffffffffffffffffffffffffffff167f8be0079c531659141344cd1fd0a4f28419497f9722a3daafe3b4186f6b6457e060405160405180910390a380600560006101000a81548173ffffffffffffffffffffffffffffffffffffffff021916908373ffffffffffffffffffffffffffffffffffffffff16021790555050565b600033905090565b600073ffffffffffffffffffffffffffffffffffffffff168373ffffffffffffffffffffffffffffffffffffffff161415610e55576040517f08c379a0000000000000000000000000000000000000000000000000000000008152600401610e4c9061183d565b60405180910390fd5b600073ffffffffffffffffffffffffffffffffffffffff168273ffffffffffffffffffffffffffffffffffffffff161415610ec5576040517f08c379a0000000000000000000000000000000000000000000000000000000008152600401610ebc9061179d565b60405180910390fd5b80600160008573ffffffffffffffffffffffffffffffffffffffff1673ffffffffffffffffffffffffffffffffffffffff16815260200190815260200160002060008473ffffffffffffffffffffffffffffffffffffffff1673ffffffffffffffffffffffffffffffffffffffff168152602001908152602001600020819055508173ffffffffffffffffffffffffffffffffffffffff168373ffffffffffffffffffffffffffffffffffffffff167f8c5be1e5ebec7d5bd14f71427d1e84f3dd0314c0f7b2291e5b200ac8c7c3b92583604051610fa3919061187d565b60405180910390a3505050565b60008060008373ffffffffffffffffffffffffffffffffffffffff1673ffffffffffffffffffffffffffffffffffffffff168152602001908152602001600020549050919050565b60003073ffffffffffffffffffffffffffffffffffffffff168273ffffffffffffffffffffffffffffffffffffffff16148061107d5750600660008373ffffffffffffffffffffffffffffffffffffffff1673ffffffffffffffffffffffffffffffffffffffff16815260200190815260200160002060009054906101000a900460ff165b1561108b5760009050611112565b600061109683610fb0565b905060006110a330610fb0565b90506110ad610572565b600760008673ffffffffffffffffffffffffffffffffffffffff1673ffffffffffffffffffffffffffffffffffffffff16815260200190815260200160002054826110f891906119b0565b836111039190611956565b61110d9190611925565b925050505b919050565b600073ffffffffffffffffffffffffffffffffffffffff168373ffffffffffffffffffffffffffffffffffffffff161415611187576040517f08c379a000000000000000000000000000000000000000000000000000000000815260040161117e9061181d565b60405180910390fd5b600073ffffffffffffffffffffffffffffffffffffffff168273ffffffffffffffffffffffffffffffffffffffff1614156111f7576040517f08c379a00000000000000000000000000000000000000000000000000000000081526004016111ee9061175d565b60405180910390fd5b61120283838361140d565b60008060008573ffffffffffffffffffffffffffffffffffffffff1673ffffffffffffffffffffffffffffffffffffffff16815260200190815260200160002054905081811015611288576040517f08c379a000000000000000000000000000000000000000000000000000000000815260040161127f906117bd565b60405180910390fd5b818161129491906119b0565b6000808673ffffffffffffffffffffffffffffffffffffffff1673ffffffffffffffffffffffffffffffffffffffff16815260200190815260200160002081905550816000808573ffffffffffffffffffffffffffffffffffffffff1673ffffffffffffffffffffffffffffffffffffffff168152602001908152602001600020600082825461132491906118cf565b925050819055508273ffffffffffffffffffffffffffffffffffffffff168473ffffffffffffffffffffffffffffffffffffffff167fddf252ad1be2c89b69c2b068fc378daa952ba7f163c4a11628f55a4df523b3ef84604051611388919061187d565b60405180910390a350505050565b826113a030610fb0565b600760008373ffffffffffffffffffffffffffffffffffffffff1673ffffffffffffffffffffffffffffffffffffffff1681526020019081526020016000208190555060006113ee82610ff8565b90506113fb308383611117565b611406858585611117565b5050505050565b505050565b60008135905061142181611ddd565b92915050565b60008135905061143681611df4565b92915050565b60006020828403121561144e57600080fd5b600061145c84828501611412565b91505092915050565b6000806040838503121561147857600080fd5b600061148685828601611412565b925050602061149785828601611412565b9150509250929050565b6000806000606084860312156114b657600080fd5b60006114c486828701611412565b93505060206114d586828701611412565b92505060406114e686828701611427565b9150509250925092565b6000806040838503121561150357600080fd5b600061151185828601611412565b925050602061152285828601611427565b9150509250929050565b60006020828403121561153e57600080fd5b600061154c84828501611427565b91505092915050565b61155e816119e4565b82525050565b61156d816119f6565b82525050565b600061157e826118b3565b61158881856118be565b9350611598818560208601611a39565b6115a181611b2b565b840191505092915050565b60006115b96023836118be565b91506115c482611b3c565b604082019050919050565b60006115dc6026836118be565b91506115e782611b8b565b604082019050919050565b60006115ff6022836118be565b915061160a82611bda565b604082019050919050565b60006116226026836118be565b915061162d82611c29565b604082019050919050565b60006116456028836118be565b915061165082611c78565b604082019050919050565b60006116686020836118be565b915061167382611cc7565b602082019050919050565b600061168b6025836118be565b915061169682611cf0565b604082019050919050565b60006116ae6024836118be565b91506116b982611d3f565b604082019050919050565b60006116d16025836118be565b91506116dc82611d8e565b604082019050919050565b6116f081611a22565b82525050565b6116ff81611a2c565b82525050565b600060208201905061171a6000830184611555565b92915050565b60006020820190506117356000830184611564565b92915050565b600060208201905081810360008301526117558184611573565b905092915050565b60006020820190508181036000830152611776816115ac565b9050919050565b60006020820190508181036000830152611796816115cf565b9050919050565b600060208201905081810360008301526117b6816115f2565b9050919050565b600060208201905081810360008301526117d681611615565b9050919050565b600060208201905081810360008301526117f681611638565b9050919050565b600060208201905081810360008301526118168161165b565b9050919050565b600060208201905081810360008301526118368161167e565b9050919050565b60006020820190508181036000830152611856816116a1565b9050919050565b60006020820190508181036000830152611876816116c4565b9050919050565b600060208201905061189260008301846116e7565b92915050565b60006020820190506118ad60008301846116f6565b92915050565b600081519050919050565b600082825260208201905092915050565b60006118da82611a22565b91506118e583611a22565b9250827fffffffffffffffffffffffffffffffffffffffffffffffffffffffffffffffff0382111561191a57611919611a9e565b5b828201905092915050565b600061193082611a22565b915061193b83611a22565b92508261194b5761194a611acd565b5b828204905092915050565b600061196182611a22565b915061196c83611a22565b9250817fffffffffffffffffffffffffffffffffffffffffffffffffffffffffffffffff04831182151516156119a5576119a4611a9e565b5b828202905092915050565b60006119bb82611a22565b91506119c683611a22565b9250828210156119d9576119d8611a9e565b5b828203905092915050565b60006119ef82611a02565b9050919050565b60008115159050919050565b600073ffffffffffffffffffffffffffffffffffffffff82169050919050565b6000819050919050565b600060ff82169050919050565b60005b83811015611a57578082015181840152602081019050611a3c565b83811115611a66576000848401525b50505050565b60006002820490506001821680611a8457607f821691505b60208210811415611a9857611a97611afc565b5b50919050565b7f4e487b7100000000000000000000000000000000000000000000000000000000600052601160045260246000fd5b7f4e487b7100000000000000000000000000000000000000000000000000000000600052601260045260246000fd5b7f4e487b7100000000000000000000000000000000000000000000000000000000600052602260045260246000fd5b6000601f19601f8301169050919050565b7f45524332303a207472616e7366657220746f20746865207a65726f206164647260008201527f6573730000000000000000000000000000000000000000000000000000000000602082015250565b7f4f776e61626c653a206e6577206f776e657220697320746865207a65726f206160008201527f6464726573730000000000000000000000000000000000000000000000000000602082015250565b7f45524332303a20617070726f766520746f20746865207a65726f20616464726560008201527f7373000000000000000000000000000000000000000000000000000000000000602082015250565b7f45524332303a207472616e7366657220616d6f756e742065786365656473206260008201527f616c616e63650000000000000000000000000000000000000000000000000000602082015250565b7f45524332303a207472616e7366657220616d6f756e742065786365656473206160008201527f6c6c6f77616e6365000000000000000000000000000000000000000000000000602082015250565b7f4f776e61626c653a2063616c6c6572206973206e6f7420746865206f776e6572600082015250565b7f45524332303a207472616e736665722066726f6d20746865207a65726f20616460008201527f6472657373000000000000000000000000000000000000000000000000000000602082015250565b7f45524332303a20617070726f76652066726f6d20746865207a65726f2061646460008201527f7265737300000000000000000000000000000000000000000000000000000000602082015250565b7f45524332303a2064656372656173656420616c6c6f77616e63652062656c6f7760008201527f207a65726f000000000000000000000000000000000000000000000000000000602082015250565b611de6816119e4565b8114611df157600080fd5b50565b611dfd81611a22565b8114611e0857600080fd5b5056fea2646970667358221220cdbc90a51ef08b68c6e069725b9aa59c8565a0900dfe264b49353fec78bfa5f264736f6c63430008040033",
  "immutableReferences": {},
  "source": "// SPDX-License-Identifier: Unlicensed\npragma solidity =0.8.4;\npragma abicoder v2;\n\nimport \"@openzeppelin/contracts/token/ERC20/ERC20.sol\";\nimport \"@openzeppelin/contracts/access/Ownable.sol\";\n\ncontract Pocket is ERC20, Ownable {\n    mapping(address => bool) rewardsExcluded;\n    mapping(address => uint256) lastTotalDividends;\n    uint256 rewardsPerHolding;\n\n    constructor(\n        string memory name_,\n        string memory symbol_,\n        uint256 supply_\n    ) ERC20(name_, symbol_) {\n        _mint(msg.sender, supply_);\n    }\n\n    function _calcRewards(address account) internal view virtual returns (uint256) {\n        if (account == address(this) || rewardsExcluded[account]) {\n            return 0;\n        }\n\n        uint256 _balance = ERC20.balanceOf(account);\n        uint256 _dividends = ERC20.balanceOf(address(this));\n\n        return (_balance * (_dividends - lastTotalDividends[account])) / totalSupply();\n    }\n\n    modifier _distribute(address account) {\n        lastTotalDividends[account] = ERC20.balanceOf(address(this));\n        uint256 rewards = _calcRewards(account);\n        ERC20._transfer(address(this), account, rewards);\n        _;\n    }\n\n    function excludeFromRewards(address account) _distribute(account) external onlyOwner {\n        rewardsExcluded[account] = true;\n    }\n\n    function includeInRewards(address account) _distribute(account) external onlyOwner {\n        delete rewardsExcluded[account];\n    }\n\n    function addRewards(uint256 amount) external returns (bool) {\n        return transfer(address(this), amount);\n    }\n\n    /**\n     * @dev See {ERC20-_transfer}.\n     */\n    function _transfer(address sender, address recipient, uint256 amount) _distribute(sender)\n    internal virtual override {\n        super._transfer(sender, recipient, amount);\n    }\n\n    /**\n     * @dev See {IERC20-balanceOf}.\n     */\n    function balanceOf(address account) public view virtual override returns (uint256) {\n        return ERC20.balanceOf(account) + _calcRewards(account);\n    }\n}\n",
  "sourcePath": "/Users/ilyk/projects/midgardtech/xpocket-PocketSwap/contracts/Pocket.sol",
  "compiler": {
    "name": "solc",
    "version": "0.8.4+commit.c7e474f2.Emscripten.clang"
  },
  "schemaVersion": "3.4.0",
  "updatedAt": "2021-05-10T08:24:25.250Z",
  "devdoc": {
    "kind": "dev",
    "methods": {
      "allowance(address,address)": {
        "details": "See {IERC20-allowance}."
      },
      "approve(address,uint256)": {
        "details": "See {IERC20-approve}. Requirements: - `spender` cannot be the zero address."
      },
      "balanceOf(address)": {
        "details": "See {IERC20-balanceOf}."
      },
      "decimals()": {
        "details": "Returns the number of decimals used to get its user representation. For example, if `decimals` equals `2`, a balance of `505` tokens should be displayed to a user as `5,05` (`505 / 10 ** 2`). Tokens usually opt for a value of 18, imitating the relationship between Ether and Wei. This is the value {ERC20} uses, unless this function is overridden; NOTE: This information is only used for _display_ purposes: it in no way affects any of the arithmetic of the contract, including {IERC20-balanceOf} and {IERC20-transfer}."
      },
      "decreaseAllowance(address,uint256)": {
        "details": "Atomically decreases the allowance granted to `spender` by the caller. This is an alternative to {approve} that can be used as a mitigation for problems described in {IERC20-approve}. Emits an {Approval} event indicating the updated allowance. Requirements: - `spender` cannot be the zero address. - `spender` must have allowance for the caller of at least `subtractedValue`."
      },
      "increaseAllowance(address,uint256)": {
        "details": "Atomically increases the allowance granted to `spender` by the caller. This is an alternative to {approve} that can be used as a mitigation for problems described in {IERC20-approve}. Emits an {Approval} event indicating the updated allowance. Requirements: - `spender` cannot be the zero address."
      },
      "name()": {
        "details": "Returns the name of the token."
      },
      "owner()": {
        "details": "Returns the address of the current owner."
      },
      "renounceOwnership()": {
        "details": "Leaves the contract without owner. It will not be possible to call `onlyOwner` functions anymore. Can only be called by the current owner. NOTE: Renouncing ownership will leave the contract without an owner, thereby removing any functionality that is only available to the owner."
      },
      "symbol()": {
        "details": "Returns the symbol of the token, usually a shorter version of the name."
      },
      "totalSupply()": {
        "details": "See {IERC20-totalSupply}."
      },
      "transfer(address,uint256)": {
        "details": "See {IERC20-transfer}. Requirements: - `recipient` cannot be the zero address. - the caller must have a balance of at least `amount`."
      },
      "transferFrom(address,address,uint256)": {
        "details": "See {IERC20-transferFrom}. Emits an {Approval} event indicating the updated allowance. This is not required by the EIP. See the note at the beginning of {ERC20}. Requirements: - `sender` and `recipient` cannot be the zero address. - `sender` must have a balance of at least `amount`. - the caller must have allowance for ``sender``'s tokens of at least `amount`."
      },
      "transferOwnership(address)": {
        "details": "Transfers ownership of the contract to a new account (`newOwner`). Can only be called by the current owner."
      }
    },
    "version": 1
  },
  "userdoc": {
    "kind": "user",
    "methods": {},
    "version": 1
  }
}