{
  "contractName": "PocketSwapRouter",
  "abi": [
    {
      "inputs": [
        {
          "internalType": "address",
          "name": "_factory",
          "type": "address"
        },
        {
          "internalType": "address",
          "name": "_WETH9",
          "type": "address"
        },
        {
          "internalType": "address",
          "name": "_pocketToken",
          "type": "address"
        }
      ],
      "stateMutability": "nonpayable",
      "type": "constructor"
    },
    {
      "inputs": [],
      "name": "WETH9",
      "outputs": [
        {
          "internalType": "address",
          "name": "",
          "type": "address"
        }
      ],
      "stateMutability": "view",
      "type": "function",
      "constant": true
    },
    {
      "inputs": [
        {
          "components": [
            {
              "internalType": "address",
              "name": "token0",
              "type": "address"
            },
            {
              "internalType": "address",
              "name": "token1",
              "type": "address"
            },
            {
              "internalType": "address",
              "name": "recipient",
              "type": "address"
            },
            {
              "internalType": "uint256",
              "name": "amount0Desired",
              "type": "uint256"
            },
            {
              "internalType": "uint256",
              "name": "amount1Desired",
              "type": "uint256"
            },
            {
              "internalType": "uint256",
              "name": "amount0Min",
              "type": "uint256"
            },
            {
              "internalType": "uint256",
              "name": "amount1Min",
              "type": "uint256"
            },
            {
              "internalType": "uint256",
              "name": "deadline",
              "type": "uint256"
            }
          ],
          "internalType": "struct IPocketSwapLiquidityRouter.AddLiquidityParams",
          "name": "params",
          "type": "tuple"
        }
      ],
      "name": "addLiquidity",
      "outputs": [
        {
          "internalType": "uint256",
          "name": "amountA",
          "type": "uint256"
        },
        {
          "internalType": "uint256",
          "name": "amountB",
          "type": "uint256"
        },
        {
          "internalType": "uint256",
          "name": "amountPocket",
          "type": "uint256"
        },
        {
          "internalType": "uint256",
          "name": "liquidity",
          "type": "uint256"
        }
      ],
      "stateMutability": "payable",
      "type": "function",
      "payable": true
    },
    {
      "inputs": [
        {
          "components": [
            {
              "internalType": "address",
              "name": "token0",
              "type": "address"
            },
            {
              "internalType": "address",
              "name": "token1",
              "type": "address"
            },
            {
              "internalType": "address",
              "name": "recipient",
              "type": "address"
            },
            {
              "internalType": "uint256",
              "name": "amount0Desired",
              "type": "uint256"
            },
            {
              "internalType": "uint256",
              "name": "amount1Desired",
              "type": "uint256"
            },
            {
              "internalType": "uint256",
              "name": "amount0Min",
              "type": "uint256"
            },
            {
              "internalType": "uint256",
              "name": "amount1Min",
              "type": "uint256"
            },
            {
              "internalType": "uint256",
              "name": "deadline",
              "type": "uint256"
            }
          ],
          "internalType": "struct IPocketSwapLiquidityRouter.AddLiquidityParams",
          "name": "params",
          "type": "tuple"
        }
      ],
      "name": "calcLiquidity",
      "outputs": [
        {
          "internalType": "uint256",
          "name": "amountA",
          "type": "uint256"
        },
        {
          "internalType": "uint256",
          "name": "amountB",
          "type": "uint256"
        }
      ],
      "stateMutability": "view",
      "type": "function",
      "constant": true
    },
    {
      "inputs": [],
      "name": "factory",
      "outputs": [
        {
          "internalType": "address",
          "name": "",
          "type": "address"
        }
      ],
      "stateMutability": "view",
      "type": "function",
      "constant": true
    },
    {
      "inputs": [
        {
          "internalType": "uint256",
          "name": "amountOut",
          "type": "uint256"
        },
        {
          "internalType": "uint256",
          "name": "reserveIn",
          "type": "uint256"
        },
        {
          "internalType": "uint256",
          "name": "reserveOut",
          "type": "uint256"
        }
      ],
      "name": "getAmountIn",
      "outputs": [
        {
          "internalType": "uint256",
          "name": "amountIn",
          "type": "uint256"
        }
      ],
      "stateMutability": "view",
      "type": "function",
      "constant": true
    },
    {
      "inputs": [
        {
          "internalType": "uint256",
          "name": "amountIn",
          "type": "uint256"
        },
        {
          "internalType": "uint256",
          "name": "reserveIn",
          "type": "uint256"
        },
        {
          "internalType": "uint256",
          "name": "reserveOut",
          "type": "uint256"
        }
      ],
      "name": "getAmountOut",
      "outputs": [
        {
          "internalType": "uint256",
          "name": "amountOut",
          "type": "uint256"
        }
      ],
      "stateMutability": "view",
      "type": "function",
      "constant": true
    },
    {
      "inputs": [
        {
          "internalType": "uint256",
          "name": "amountOut",
          "type": "uint256"
        },
        {
          "internalType": "address[]",
          "name": "path",
          "type": "address[]"
        }
      ],
      "name": "getAmountsIn",
      "outputs": [
        {
          "internalType": "uint256[]",
          "name": "amounts",
          "type": "uint256[]"
        }
      ],
      "stateMutability": "view",
      "type": "function",
      "constant": true
    },
    {
      "inputs": [
        {
          "internalType": "uint256",
          "name": "amountIn",
          "type": "uint256"
        },
        {
          "internalType": "address[]",
          "name": "path",
          "type": "address[]"
        }
      ],
      "name": "getAmountsOut",
      "outputs": [
        {
          "internalType": "uint256[]",
          "name": "amounts",
          "type": "uint256[]"
        }
      ],
      "stateMutability": "view",
      "type": "function",
      "constant": true
    },
    {
      "inputs": [
        {
          "internalType": "bytes[]",
          "name": "data",
          "type": "bytes[]"
        }
      ],
      "name": "multicall",
      "outputs": [
        {
          "internalType": "bytes[]",
          "name": "results",
          "type": "bytes[]"
        }
      ],
      "stateMutability": "payable",
      "type": "function",
      "payable": true
    },
    {
      "inputs": [
        {
          "internalType": "address",
          "name": "tokenA",
          "type": "address"
        },
        {
          "internalType": "address",
          "name": "tokenB",
          "type": "address"
        }
      ],
      "name": "pairFor",
      "outputs": [
        {
          "internalType": "contract IPocketSwapPair",
          "name": "",
          "type": "address"
        }
      ],
      "stateMutability": "view",
      "type": "function",
      "constant": true
    },
    {
      "inputs": [],
      "name": "pocket",
      "outputs": [
        {
          "internalType": "address",
          "name": "",
          "type": "address"
        }
      ],
      "stateMutability": "view",
      "type": "function",
      "constant": true
    },
    {
      "inputs": [
        {
          "internalType": "uint256",
          "name": "amountA",
          "type": "uint256"
        },
        {
          "internalType": "uint256",
          "name": "reserveA",
          "type": "uint256"
        },
        {
          "internalType": "uint256",
          "name": "reserveB",
          "type": "uint256"
        }
      ],
      "name": "quote",
      "outputs": [
        {
          "internalType": "uint256",
          "name": "amountB",
          "type": "uint256"
        }
      ],
      "stateMutability": "pure",
      "type": "function",
      "constant": true
    },
    {
      "inputs": [
        {
          "components": [
            {
              "internalType": "address",
              "name": "tokenA",
              "type": "address"
            },
            {
              "internalType": "address",
              "name": "tokenB",
              "type": "address"
            },
            {
              "internalType": "uint256",
              "name": "liquidity",
              "type": "uint256"
            },
            {
              "internalType": "uint256",
              "name": "amountAMin",
              "type": "uint256"
            },
            {
              "internalType": "uint256",
              "name": "amountBMin",
              "type": "uint256"
            },
            {
              "internalType": "address",
              "name": "rewards",
              "type": "address"
            },
            {
              "internalType": "address",
              "name": "recipient",
              "type": "address"
            },
            {
              "internalType": "uint256",
              "name": "deadline",
              "type": "uint256"
            }
          ],
          "internalType": "struct IPocketSwapLiquidityRouter.RemoveLiquidityParams",
          "name": "params",
          "type": "tuple"
        }
      ],
      "name": "removeLiquidity",
      "outputs": [
        {
          "internalType": "uint256",
          "name": "amountA",
          "type": "uint256"
        },
        {
          "internalType": "uint256",
          "name": "amountB",
          "type": "uint256"
        }
      ],
      "stateMutability": "payable",
      "type": "function",
      "payable": true
    },
    {
      "inputs": [
        {
          "components": [
            {
              "internalType": "address",
              "name": "tokenIn",
              "type": "address"
            },
            {
              "internalType": "address",
              "name": "tokenOut",
              "type": "address"
            },
            {
              "internalType": "address",
              "name": "recipient",
              "type": "address"
            },
            {
              "internalType": "uint256",
              "name": "deadline",
              "type": "uint256"
            },
            {
              "internalType": "uint256",
              "name": "amountIn",
              "type": "uint256"
            },
            {
              "internalType": "uint256",
              "name": "amountOutMinimum",
              "type": "uint256"
            }
          ],
          "internalType": "struct IPocketSwapRouter.SwapParams",
          "name": "params",
          "type": "tuple"
        }
      ],
      "name": "swap",
      "outputs": [
        {
          "internalType": "uint256",
          "name": "amountOut",
          "type": "uint256"
        }
      ],
      "stateMutability": "payable",
      "type": "function",
      "payable": true
    },
    {
      "inputs": [
        {
          "components": [
            {
              "internalType": "bytes",
              "name": "path",
              "type": "bytes"
            },
            {
              "internalType": "address",
              "name": "recipient",
              "type": "address"
            },
            {
              "internalType": "uint256",
              "name": "deadline",
              "type": "uint256"
            },
            {
              "internalType": "uint256",
              "name": "amountIn",
              "type": "uint256"
            },
            {
              "internalType": "uint256",
              "name": "amountOutMinimum",
              "type": "uint256"
            }
          ],
          "internalType": "struct IPocketSwapRouter.SwapMultiParams",
          "name": "params",
          "type": "tuple"
        }
      ],
      "name": "swapMulti",
      "outputs": [
        {
          "internalType": "uint256",
          "name": "amountOut",
          "type": "uint256"
        }
      ],
      "stateMutability": "payable",
      "type": "function",
      "payable": true
    },
    {
      "inputs": [
        {
          "internalType": "address",
          "name": "token",
          "type": "address"
        },
        {
          "internalType": "uint256",
          "name": "amountMinimum",
          "type": "uint256"
        },
        {
          "internalType": "address",
          "name": "recipient",
          "type": "address"
        }
      ],
      "name": "sweepToken",
      "outputs": [],
      "stateMutability": "payable",
      "type": "function",
      "payable": true
    },
    {
      "inputs": [
        {
          "internalType": "uint256",
          "name": "amountMinimum",
          "type": "uint256"
        },
        {
          "internalType": "address",
          "name": "recipient",
          "type": "address"
        }
      ],
      "name": "unwrapWETH9",
      "outputs": [],
      "stateMutability": "payable",
      "type": "function",
      "payable": true
    }
  ],
  "bytecode": "0x60e06040526000196000556001805460ff191690553480156200002157600080fd5b50604051620039ac380380620039ac833981016040819052620000449162000089565b6001600160601b0319606093841b811660805291831b821660a05290911b1660c052620000d2565b80516001600160a01b03811681146200008457600080fd5b919050565b6000806000606084860312156200009e578283fd5b620000a9846200006c565b9250620000b9602085016200006c565b9150620000c9604085016200006c565b90509250925092565b60805160601c60a05160601c60c05160601c6138316200017b60003960006103480152600081816101c0015281816106f701528181610813015281816122de015281816123410152612409015260008181610314015281816103a4015281816105360152818161096f01528181610de101528181610e6901528181610fc801528181611184015281816115cb01528181611c5a01528181611de50152611f4a01526138316000f3fe60806040526004361061010e5760003560e01c806385f8c259116100a5578063ad615dec11610074578063cccef9e211610059578063cccef9e214610336578063d06ca61f1461036a578063df2ab5bb1461038a57600080fd5b8063ad615dec146102e2578063c45a01551461030257600080fd5b806385f8c2591461024f5780638d4d72e51461026f57806396ed28f9146102a2578063ac9650d8146102c257600080fd5b806349404b7c116100e157806349404b7c146101995780634aa4a4fc146101ae5780636385a2711461020757806368bc7e081461022f57600080fd5b8063054d50d41461011357806313b51924146101465780631f00ca7414610159578063441a12de14610186575b600080fd5b34801561011f57600080fd5b5061013361012e36600461335f565b61039d565b6040519081526020015b60405180910390f35b610133610154366004613133565b6103d3565b34801561016557600080fd5b5061017961017436600461327c565b61052f565b60405161013d919061347f565b610133610194366004613204565b610563565b6101ac6101a7366004613258565b6106c6565b005b3480156101ba57600080fd5b506101e27f000000000000000000000000000000000000000000000000000000000000000081565b60405173ffffffffffffffffffffffffffffffffffffffff909116815260200161013d565b61021a610215366004613117565b610893565b6040805192835260208301919091520161013d565b34801561023b57600080fd5b5061021a61024a366004613117565b610d18565b34801561025b57600080fd5b5061013361026a36600461335f565b610dda565b61028261027d366004613117565b610e08565b60408051948552602085019390935291830152606082015260800161013d565b3480156102ae57600080fd5b506101e26102bd366004612f7e565b610fc1565b6102d56102d0366004612ff7565b610fee565b60405161013d9190613400565b3480156102ee57600080fd5b506101336102fd36600461335f565b611170565b34801561030e57600080fd5b506101e27f000000000000000000000000000000000000000000000000000000000000000081565b34801561034257600080fd5b506101e27f000000000000000000000000000000000000000000000000000000000000000081565b34801561037657600080fd5b5061017961038536600461327c565b61117d565b6101ac610398366004612fb6565b6111aa565b60006103cb7f00000000000000000000000000000000000000000000000000000000000000008585856112b9565b949350505050565b60008160400151806103e24290565b11156104355760405162461bcd60e51b815260206004820152601360248201527f5472616e73616374696f6e20746f6f206f6c640000000000000000000000000060448201526064015b60405180910390fd5b60009150335b600061044a8560000151611491565b90506104a1856060015182610463578660200151610465565b305b604051806040016040528061047d8a600001516114b4565b81526020018673ffffffffffffffffffffffffffffffffffffffff168152506114d4565b606086015280156104c15784513092506104ba90611631565b85526104ce565b84606001519350506104d4565b5061043b565b83608001518310156105285760405162461bcd60e51b815260206004820152601360248201527f546f6f206c6974746c6520726563656976656400000000000000000000000000604482015260640161042c565b5050919050565b606061055c7f00000000000000000000000000000000000000000000000000000000000000008484611645565b9392505050565b60006060820135804211156105ba5760405162461bcd60e51b815260206004820152601360248201527f5472616e73616374696f6e20746f6f206f6c6400000000000000000000000000604482015260640161042c565b61066a60808401356105d26060860160408701612f46565b60408051808201909152806105ea6020890189612f46565b6105fa60408a0160208b01612f46565b6040517fffffffffffffffffffffffffffffffffffffffff000000000000000000000000606093841b811660208301529190921b16603482015260480160405160208183030381529060405281526020013373ffffffffffffffffffffffffffffffffffffffff168152506114d4565b91508260a001358210156106c05760405162461bcd60e51b815260206004820152601360248201527f546f6f206c6974746c6520726563656976656400000000000000000000000000604482015260640161042c565b50919050565b6040517f70a082310000000000000000000000000000000000000000000000000000000081523060048201526000907f000000000000000000000000000000000000000000000000000000000000000073ffffffffffffffffffffffffffffffffffffffff16906370a082319060240160206040518083038186803b15801561074e57600080fd5b505afa158015610762573d6000803e3d6000fd5b505050506040513d601f19601f820116820180604052508101906107869190613087565b905082156107de57828110156107de5760405162461bcd60e51b815260206004820152601260248201527f496e73756666696369656e742057455448390000000000000000000000000000604482015260640161042c565b801561088e576040517f2e1a7d4d000000000000000000000000000000000000000000000000000000008152600481018290527f000000000000000000000000000000000000000000000000000000000000000073ffffffffffffffffffffffffffffffffffffffff1690632e1a7d4d90602401600060405180830381600087803b15801561086c57600080fd5b505af1158015610880573d6000803e3d6000fd5b5050505061088e8282611830565b505050565b60008060e0830135804211156108eb5760405162461bcd60e51b815260206004820152601360248201527f5472616e73616374696f6e20746f6f206f6c6400000000000000000000000000604482015260640161042c565b60015460ff161561093e5760405162461bcd60e51b815260206004820152600660248201527f4c4f434b45440000000000000000000000000000000000000000000000000000604482015260640161042c565b600180547fffffffffffffffffffffffffffffffffffffffffffffffffffffffffffffff00168117905560006109b07f000000000000000000000000000000000000000000000000000000000000000061099b6020880188612f46565b6109ab6040890160208a01612f46565b6118fa565b604080517f23b872dd00000000000000000000000000000000000000000000000000000000815233600482015273ffffffffffffffffffffffffffffffffffffffff831660248201819052918801356044820152919250906323b872dd90606401602060405180830381600087803b158015610a2b57600080fd5b505af1158015610a3f573d6000803e3d6000fd5b505050506040513d601f19601f82011682018060405250810190610a639190613067565b506040517f89afcb44000000000000000000000000000000000000000000000000000000008152306004820152600090819073ffffffffffffffffffffffffffffffffffffffff8416906389afcb44906024016040805180830381600087803b158015610acf57600080fd5b505af1158015610ae3573d6000803e3d6000fd5b505050506040513d601f19601f82011682018060405250810190610b07919061333c565b90925090506000610b33610b1e60208a018a612f46565b610b2e60408b0160208c01612f46565b611ab9565b50905073ffffffffffffffffffffffffffffffffffffffff8116610b5a60208a018a612f46565b73ffffffffffffffffffffffffffffffffffffffff1614610b7c578183610b7f565b82825b90975095506060880135871015610bfe5760405162461bcd60e51b815260206004820152602760248201527f506f636b657453776170526f757465723a20494e53554646494349454e545f4160448201527f5f414d4f554e5400000000000000000000000000000000000000000000000000606482015260840161042c565b8760800135861015610c785760405162461bcd60e51b815260206004820152602760248201527f506f636b657453776170526f757465723a20494e53554646494349454e545f4260448201527f5f414d4f554e5400000000000000000000000000000000000000000000000000606482015260840161042c565b610cae610c8b60c08a0160a08b01612f46565b610c9860208b018b612f46565b89610ca960e08d0160c08e01612f46565b611c0a565b610ce2610cc160c08a0160a08b01612f46565b610cd160408b0160208c01612f46565b88610ca960e08d0160c08e01612f46565b5050600180547fffffffffffffffffffffffffffffffffffffffffffffffffffffffffffffff0016905550929491935090915050565b600080610dd0836060013584608001358560a001358660c001356040518060400160405280896000016020810190610d509190612f46565b610d6060408c0160208d01612f46565b6040517fffffffffffffffffffffffffffffffffffffffff000000000000000000000000606093841b811660208301529190921b16603482015260480160405160208183030381529060405281526020013373ffffffffffffffffffffffffffffffffffffffff16815250611f43565b9094909350915050565b60006103cb7f0000000000000000000000000000000000000000000000000000000000000000858585612109565b600080808060e085013580421115610e625760405162461bcd60e51b815260206004820152601360248201527f5472616e73616374696f6e20746f6f206f6c6400000000000000000000000000604482015260640161042c565b6000610ea57f0000000000000000000000000000000000000000000000000000000000000000610e9560208a018a612f46565b6109ab60408b0160208c01612f46565b9050610eb087610d18565b9096509450610ecd610ec56020890189612f46565b3383896122da565b610ee8610ee06040890160208a01612f46565b3383886122da565b73ffffffffffffffffffffffffffffffffffffffff8116636a627842610f1460608a0160408b01612f46565b6040517fffffffff0000000000000000000000000000000000000000000000000000000060e084901b16815273ffffffffffffffffffffffffffffffffffffffff9091166004820152602401602060405180830381600087803b158015610f7a57600080fd5b505af1158015610f8e573d6000803e3d6000fd5b505050506040513d601f19601f82011682018060405250810190610fb29190613087565b92506000935050509193509193565b600061055c7f000000000000000000000000000000000000000000000000000000000000000084846118fa565b60608167ffffffffffffffff81111561101757634e487b7160e01b600052604160045260246000fd5b60405190808252806020026020018201604052801561104a57816020015b60608152602001906001900390816110355790505b50905060005b82811015611169576000803086868581811061107c57634e487b7160e01b600052603260045260246000fd5b905060200281019061108e9190613563565b60405161109c9291906133d4565b600060405180830381855af49150503d80600081146110d7576040519150601f19603f3d011682016040523d82523d6000602084013e6110dc565b606091505b509150915081611128576044815110156110f557600080fd5b6004810190508080602001905181019061110f919061309f565b60405162461bcd60e51b815260040161042c91906134c3565b8084848151811061114957634e487b7160e01b600052603260045260246000fd5b60200260200101819052505050808061116190613771565b915050611050565b5092915050565b60006103cb8484846124d0565b606061055c7f000000000000000000000000000000000000000000000000000000000000000084846125de565b6040517f70a0823100000000000000000000000000000000000000000000000000000000815230600482015260009073ffffffffffffffffffffffffffffffffffffffff8516906370a082319060240160206040518083038186803b15801561121257600080fd5b505afa158015611226573d6000803e3d6000fd5b505050506040513d601f19601f8201168201806040525081019061124a9190613087565b905082156112a257828110156112a25760405162461bcd60e51b815260206004820152601260248201527f496e73756666696369656e7420746f6b656e0000000000000000000000000000604482015260640161042c565b80156112b3576112b38483836127a9565b50505050565b60008084116113305760405162461bcd60e51b815260206004820152602c60248201527f506f636b6574537761704c6962726172793a20494e53554646494349454e545f60448201527f494e5055545f414d4f554e540000000000000000000000000000000000000000606482015260840161042c565b6000831180156113405750600082115b6113b25760405162461bcd60e51b815260206004820152602960248201527f506f636b6574537761704c6962726172793a20494e53554646494349454e545f60448201527f4c49515549444954590000000000000000000000000000000000000000000000606482015260840161042c565b60008573ffffffffffffffffffffffffffffffffffffffff1663ddca3f436040518163ffffffff1660e01b815260040160206040518083038186803b1580156113fa57600080fd5b505afa15801561140e573d6000803e3d6000fd5b505050506040513d601f19601f820116820180604052508101906114329190613087565b9050600061144e61144783633b9aca006136f9565b87906128f8565b9050600061145c82866128f8565b905060006114788361147289633b9aca006128f8565b90612904565b9050611484818361369c565b9998505050505050505050565b6000601461149f8180613684565b6114a99190613684565b825110159050919050565b60606114ce60006114c6601480613684565b849190612910565b92915050565b60008060006114e68460000151612aaf565b60408051600280825260608201835293955091935060009290602083019080368337019050509050828160008151811061153057634e487b7160e01b600052603260045260246000fd5b602002602001019073ffffffffffffffffffffffffffffffffffffffff16908173ffffffffffffffffffffffffffffffffffffffff1681525050818160018151811061158c57634e487b7160e01b600052603260045260246000fd5b602002602001019073ffffffffffffffffffffffffffffffffffffffff16908173ffffffffffffffffffffffffffffffffffffffff16815250506115f17f000000000000000000000000000000000000000000000000000000000000000088836125de565b60018151811061161157634e487b7160e01b600052603260045260246000fd5b6020026020010151935061162786888688612ad0565b5050509392505050565b60606114ce60148084516114c691906136f9565b60606002825110156116995760405162461bcd60e51b815260206004820152601f60248201527f506f636b6574537761704c6962726172793a20494e56414c49445f5041544800604482015260640161042c565b815167ffffffffffffffff8111156116c157634e487b7160e01b600052604160045260246000fd5b6040519080825280602002602001820160405280156116ea578160200160208202803683370190505b5090508281600183516116fd91906136f9565b8151811061171b57634e487b7160e01b600052603260045260246000fd5b60200260200101818152505060006001835161173791906136f9565b90505b8015611828576000806117a687866117536001876136f9565b8151811061177157634e487b7160e01b600052603260045260246000fd5b602002602001015187868151811061179957634e487b7160e01b600052603260045260246000fd5b6020026020010151612bb1565b915091506117dd878585815181106117ce57634e487b7160e01b600052603260045260246000fd5b60200260200101518484612109565b846117e96001866136f9565b8151811061180757634e487b7160e01b600052603260045260246000fd5b602002602001018181525050505080806118209061373c565b91505061173a565b509392505050565b6040805160008082526020820190925273ffffffffffffffffffffffffffffffffffffffff841690839060405161186791906133e4565b60006040518083038185875af1925050503d80600081146118a4576040519150601f19603f3d011682016040523d82523d6000602084013e6118a9565b606091505b505090508061088e5760405162461bcd60e51b815260206004820152600360248201527f5354450000000000000000000000000000000000000000000000000000000000604482015260640161042c565b60008060008373ffffffffffffffffffffffffffffffffffffffff168573ffffffffffffffffffffffffffffffffffffffff161061193957838561193c565b84845b6040517fffffffffffffffffffffffffffffffffffffffff000000000000000000000000606084811b8216602084015283901b16603482015291935091508690604801604051602081830303815290604052805190602001208773ffffffffffffffffffffffffffffffffffffffff166357b84f8c6040518163ffffffff1660e01b815260040160206040518083038186803b1580156119db57600080fd5b505afa1580156119ef573d6000803e3d6000fd5b505050506040513d601f19601f82011682018060405250810190611a139190613087565b6040517fff00000000000000000000000000000000000000000000000000000000000000602082015260609390931b7fffffffffffffffffffffffffffffffffffffffff00000000000000000000000016602184015260358301919091526055820152607501604080517fffffffffffffffffffffffffffffffffffffffffffffffffffffffffffffffe081840301815291905280516020909101209695505050505050565b6000808273ffffffffffffffffffffffffffffffffffffffff168473ffffffffffffffffffffffffffffffffffffffff161415611b5e5760405162461bcd60e51b815260206004820152602660248201527f506f636b6574537761704c6962726172793a204944454e544943414c5f41444460448201527f5245535345530000000000000000000000000000000000000000000000000000606482015260840161042c565b8273ffffffffffffffffffffffffffffffffffffffff168473ffffffffffffffffffffffffffffffffffffffff1610611b98578284611b9b565b83835b909250905073ffffffffffffffffffffffffffffffffffffffff8216611c035760405162461bcd60e51b815260206004820152601f60248201527f506f636b6574537761704c6962726172793a205a45524f5f4144445245535300604482015260640161042c565b9250929050565b6040517fe6a4390500000000000000000000000000000000000000000000000000000000815273ffffffffffffffffffffffffffffffffffffffff858116600483015284811660248301526000917f00000000000000000000000000000000000000000000000000000000000000009091169063e6a439059060440160206040518083038186803b158015611c9e57600080fd5b505afa158015611cb2573d6000803e3d6000fd5b505050506040513d601f19601f82011682018060405250810190611cd69190612f62565b905073ffffffffffffffffffffffffffffffffffffffff8116611d0557611cff843084866122da565b506112b3565b6040805160028082526060820183526000926020830190803683370190505090508481600081518110611d4857634e487b7160e01b600052603260045260246000fd5b602002602001019073ffffffffffffffffffffffffffffffffffffffff16908173ffffffffffffffffffffffffffffffffffffffff16815250508581600181518110611da457634e487b7160e01b600052603260045260246000fd5b602002602001019073ffffffffffffffffffffffffffffffffffffffff16908173ffffffffffffffffffffffffffffffffffffffff16815250506000611e0b7f000000000000000000000000000000000000000000000000000000000000000086846125de565b600181518110611e2b57634e487b7160e01b600052603260045260246000fd5b60200260200101519050611e41863085886122da565b6000611e4d8888611ab9565b5090506000808273ffffffffffffffffffffffffffffffffffffffff168973ffffffffffffffffffffffffffffffffffffffff1614611e8e57836000611e92565b6000845b6040517f022c0d9f000000000000000000000000000000000000000000000000000000008152600481018390526024810182905273ffffffffffffffffffffffffffffffffffffffff8a8116604483015260806064830152600060848301529294509092509087169063022c0d9f9060a4015b600060405180830381600087803b158015611f1f57600080fd5b505af1158015611f33573d6000803e3d6000fd5b5050505050505050505050505050565b60008060007f00000000000000000000000000000000000000000000000000000000000000009050600080611f7b8660000151612aaf565b91509150600080611f8d858585612bb1565b91509150816000148015611f9f575080155b15611fb4578b8b9650965050505050506120ff565b6000611fc18d84846124d0565b90508b811161205057898110156120405760405162461bcd60e51b815260206004820152602760248201527f506f636b657453776170526f757465723a20494e53554646494349454e545f4260448201527f5f414d4f554e5400000000000000000000000000000000000000000000000000606482015260840161042c565b8c975095506120ff945050505050565b600061205d8d84866124d0565b90508d81111561207d57634e487b7160e01b600052600160045260246000fd5b8b8110156120f35760405162461bcd60e51b815260206004820152602760248201527f506f636b657453776170526f757465723a20494e53554646494349454e545f4160448201527f5f414d4f554e5400000000000000000000000000000000000000000000000000606482015260840161042c565b97508b96505050505050505b9550959350505050565b60008084116121805760405162461bcd60e51b815260206004820152602d60248201527f506f636b6574537761704c6962726172793a20494e53554646494349454e545f60448201527f4f55545055545f414d4f554e5400000000000000000000000000000000000000606482015260840161042c565b6000831180156121905750600082115b6122025760405162461bcd60e51b815260206004820152602960248201527f506f636b6574537761704c6962726172793a20494e53554646494349454e545f60448201527f4c49515549444954590000000000000000000000000000000000000000000000606482015260840161042c565b60008573ffffffffffffffffffffffffffffffffffffffff1663ddca3f436040518163ffffffff1660e01b815260040160206040518083038186803b15801561224a57600080fd5b505afa15801561225e573d6000803e3d6000fd5b505050506040513d601f19601f820116820180604052508101906122829190613087565b9050600061229e633b9aca0061229887896128f8565b906128f8565b905060006122bd6122b384633b9aca006136f9565b612298878a612ccb565b90506122ce6001611472838561369c565b98975050505050505050565b60007f000000000000000000000000000000000000000000000000000000000000000073ffffffffffffffffffffffffffffffffffffffff168573ffffffffffffffffffffffffffffffffffffffff1614801561233a5750814791508110155b1561248f577f000000000000000000000000000000000000000000000000000000000000000073ffffffffffffffffffffffffffffffffffffffff1663d0e30db0826040518263ffffffff1660e01b81526004016000604051808303818588803b1580156123a757600080fd5b505af11580156123bb573d6000803e3d6000fd5b50506040517fa9059cbb00000000000000000000000000000000000000000000000000000000815273ffffffffffffffffffffffffffffffffffffffff8781166004830152602482018790527f000000000000000000000000000000000000000000000000000000000000000016935063a9059cbb92506044019050602060405180830381600087803b15801561245157600080fd5b505af1158015612465573d6000803e3d6000fd5b505050506040513d601f19601f820116820180604052508101906124899190613067565b506124c9565b73ffffffffffffffffffffffffffffffffffffffff84163014156124bd576124b88584846127a9565b6124c9565b6124c985858585612cd7565b5050505050565b60008084116125475760405162461bcd60e51b815260206004820152602660248201527f506f636b6574537761704c6962726172793a20494e53554646494349454e545f60448201527f414d4f554e540000000000000000000000000000000000000000000000000000606482015260840161042c565b6000831180156125575750600082115b6125c95760405162461bcd60e51b815260206004820152602960248201527f506f636b6574537761704c6962726172793a20494e53554646494349454e545f60448201527f4c49515549444954590000000000000000000000000000000000000000000000606482015260840161042c565b826125d485846128f8565b6103cb919061369c565b60606002825110156126325760405162461bcd60e51b815260206004820152601f60248201527f506f636b6574537761704c6962726172793a20494e56414c49445f5041544800604482015260640161042c565b815167ffffffffffffffff81111561265a57634e487b7160e01b600052604160045260246000fd5b604051908082528060200260200182016040528015612683578160200160208202803683370190505b50905082816000815181106126a857634e487b7160e01b600052603260045260246000fd5b60200260200101818152505060005b600183516126c591906136f9565b81101561182857600080612727878685815181106126f357634e487b7160e01b600052603260045260246000fd5b6020026020010151878660016127099190613684565b8151811061179957634e487b7160e01b600052603260045260246000fd5b9150915061275e8785858151811061274f57634e487b7160e01b600052603260045260246000fd5b602002602001015184846112b9565b8461276a856001613684565b8151811061278857634e487b7160e01b600052603260045260246000fd5b602002602001018181525050505080806127a190613771565b9150506126b7565b6040805173ffffffffffffffffffffffffffffffffffffffff8481166024830152604480830185905283518084039091018152606490920183526020820180517bffffffffffffffffffffffffffffffffffffffffffffffffffffffff167fa9059cbb00000000000000000000000000000000000000000000000000000000179052915160009283929087169161284091906133e4565b6000604051808303816000865af19150503d806000811461287d576040519150601f19603f3d011682016040523d82523d6000602084013e612882565b606091505b50915091508180156128ac5750805115806128ac5750808060200190518101906128ac9190613067565b6124c95760405162461bcd60e51b815260206004820152600260248201527f5354000000000000000000000000000000000000000000000000000000000000604482015260640161042c565b600061055c82846136bc565b600061055c8284613684565b60608161291e81601f613684565b101561296c5760405162461bcd60e51b815260206004820152600e60248201527f736c6963655f6f766572666c6f77000000000000000000000000000000000000604482015260640161042c565b826129778382613684565b10156129c55760405162461bcd60e51b815260206004820152600e60248201527f736c6963655f6f766572666c6f77000000000000000000000000000000000000604482015260640161042c565b6129cf8284613684565b84511015612a1f5760405162461bcd60e51b815260206004820152601160248201527f736c6963655f6f75744f66426f756e6473000000000000000000000000000000604482015260640161042c565b606082158015612a3e5760405191506000825260208201604052612aa6565b6040519150601f8416801560200281840101858101878315602002848b0101015b81831015612a77578051835260209283019201612a5f565b5050858452601f017fffffffffffffffffffffffffffffffffffffffffffffffffffffffffffffffe016604052505b50949350505050565b600080612abc8382612e36565b9150612ac9836014612e36565b9050915091565b600080612ae08360000151612aaf565b915091506000612af08383610fc1565b9050612afe833383896122da565b6000612b0a8484611ab9565b5090506000808273ffffffffffffffffffffffffffffffffffffffff168673ffffffffffffffffffffffffffffffffffffffff1614612b4b57876000612b4f565b6000885b915091508373ffffffffffffffffffffffffffffffffffffffff1663022c0d9f83838d8b604051602001612b8391906134d6565b6040516020818303038152906040526040518563ffffffff1660e01b8152600401611f05949392919061351e565b6000806000612bc08585611ab9565b5090506000612bd08787876118fa565b905060008190506000808273ffffffffffffffffffffffffffffffffffffffff16630902f1ac6040518163ffffffff1660e01b815260040160606040518083038186803b158015612c2057600080fd5b505afa158015612c34573d6000803e3d6000fd5b505050506040513d601f19601f82011682018060405250810190612c589190613215565b506dffffffffffffffffffffffffffff1691506dffffffffffffffffffffffffffff1691508473ffffffffffffffffffffffffffffffffffffffff168973ffffffffffffffffffffffffffffffffffffffff1614612cb7578082612cba565b81815b909b909a5098505050505050505050565b600061055c82846136f9565b6040805173ffffffffffffffffffffffffffffffffffffffff85811660248301528481166044830152606480830185905283518084039091018152608490920183526020820180517bffffffffffffffffffffffffffffffffffffffffffffffffffffffff167f23b872dd000000000000000000000000000000000000000000000000000000001790529151600092839290881691612d7691906133e4565b6000604051808303816000865af19150503d8060008114612db3576040519150601f19603f3d011682016040523d82523d6000602084013e612db8565b606091505b5091509150818015612de2575080511580612de2575080806020019051810190612de29190613067565b612e2e5760405162461bcd60e51b815260206004820152600360248201527f5354460000000000000000000000000000000000000000000000000000000000604482015260640161042c565b505050505050565b600081612e44816014613684565b1015612e925760405162461bcd60e51b815260206004820152601260248201527f746f416464726573735f6f766572666c6f770000000000000000000000000000604482015260640161042c565b612e9d826014613684565b83511015612eed5760405162461bcd60e51b815260206004820152601560248201527f746f416464726573735f6f75744f66426f756e64730000000000000000000000604482015260640161042c565b5001602001516c01000000000000000000000000900490565b8035612f11816137d6565b919050565b600061010082840312156106c0578081fd5b80516dffffffffffffffffffffffffffff81168114612f1157600080fd5b600060208284031215612f57578081fd5b813561055c816137d6565b600060208284031215612f73578081fd5b815161055c816137d6565b60008060408385031215612f90578081fd5b8235612f9b816137d6565b91506020830135612fab816137d6565b809150509250929050565b600080600060608486031215612fca578081fd5b8335612fd5816137d6565b9250602084013591506040840135612fec816137d6565b809150509250925092565b60008060208385031215613009578182fd5b823567ffffffffffffffff80821115613020578384fd5b818501915085601f830112613033578384fd5b813581811115613041578485fd5b8660208260051b8501011115613055578485fd5b60209290920196919550909350505050565b600060208284031215613078578081fd5b8151801515811461055c578182fd5b600060208284031215613098578081fd5b5051919050565b6000602082840312156130b0578081fd5b815167ffffffffffffffff8111156130c6578182fd5b8201601f810184136130d6578182fd5b80516130e96130e48261363e565b6135ef565b8181528560208385010111156130fd578384fd5b61310e826020830160208601613710565b95945050505050565b60006101008284031215613129578081fd5b61055c8383612f16565b60006020808385031215613145578182fd5b823567ffffffffffffffff8082111561315c578384fd5b9084019060a0828703121561316f578384fd5b6131776135c6565b823582811115613185578586fd5b83019150601f82018713613197578485fd5b81356131a56130e48261363e565b81815288868386010111156131b8578687fd5b8186850187830137908101850186905281526131d5838501612f06565b848201526040830135604082015260608301356060820152608083013560808201528094505050505092915050565b600060c082840312156106c0578081fd5b600080600060608486031215613229578081fd5b61323284612f28565b925061324060208501612f28565b9150604084015163ffffffff81168114612fec578182fd5b6000806040838503121561326a578182fd5b823591506020830135612fab816137d6565b6000806040838503121561328e578182fd5b8235915060208084013567ffffffffffffffff808211156132ad578384fd5b818601915086601f8301126132c0578384fd5b8135818111156132d2576132d26137c0565b8060051b91506132e38483016135ef565b8181528481019084860184860187018b10156132fd578788fd5b8795505b8386101561332b5780359450613316856137d6565b84835260019590950194918601918601613301565b508096505050505050509250929050565b6000806040838503121561334e578182fd5b505080516020909101519092909150565b600080600060608486031215613373578081fd5b505081359360208301359350604090920135919050565b600081518084526133a2816020860160208601613710565b601f017fffffffffffffffffffffffffffffffffffffffffffffffffffffffffffffffe0169290920160200192915050565b8183823760009101908152919050565b600082516133f6818460208701613710565b9190910192915050565b6000602080830181845280855180835260408601915060408160051b8701019250838701855b82811015613472577fffffffffffffffffffffffffffffffffffffffffffffffffffffffffffffffc088860301845261346085835161338a565b94509285019290850190600101613426565b5092979650505050505050565b6020808252825182820181905260009190848201906040850190845b818110156134b75783518352928401929184019160010161349b565b50909695505050505050565b60208152600061055c602083018461338a565b6020815260008251604060208401526134f2606084018261338a565b905073ffffffffffffffffffffffffffffffffffffffff60208501511660408401528091505092915050565b84815283602082015273ffffffffffffffffffffffffffffffffffffffff83166040820152608060608201526000613559608083018461338a565b9695505050505050565b60008083357fffffffffffffffffffffffffffffffffffffffffffffffffffffffffffffffe1843603018112613597578283fd5b83018035915067ffffffffffffffff8211156135b1578283fd5b602001915036819003821315611c0357600080fd5b60405160a0810167ffffffffffffffff811182821017156135e9576135e96137c0565b60405290565b604051601f82017fffffffffffffffffffffffffffffffffffffffffffffffffffffffffffffffe016810167ffffffffffffffff81118282101715613636576136366137c0565b604052919050565b600067ffffffffffffffff821115613658576136586137c0565b50601f017fffffffffffffffffffffffffffffffffffffffffffffffffffffffffffffffe01660200190565b60008219821115613697576136976137aa565b500190565b6000826136b757634e487b7160e01b81526012600452602481fd5b500490565b6000817fffffffffffffffffffffffffffffffffffffffffffffffffffffffffffffffff04831182151516156136f4576136f46137aa565b500290565b60008282101561370b5761370b6137aa565b500390565b60005b8381101561372b578181015183820152602001613713565b838111156112b35750506000910152565b60008161374b5761374b6137aa565b507fffffffffffffffffffffffffffffffffffffffffffffffffffffffffffffffff0190565b60007fffffffffffffffffffffffffffffffffffffffffffffffffffffffffffffffff8214156137a3576137a36137aa565b5060010190565b634e487b7160e01b600052601160045260246000fd5b634e487b7160e01b600052604160045260246000fd5b73ffffffffffffffffffffffffffffffffffffffff811681146137f857600080fd5b5056fea2646970667358221220092fd4707dd48c348b77b93d0abfff1d8a3e437e8c21ac5ffe679201c4d0bbf064736f6c63430008040033",
  "immutableReferences": {
    "3551": [
      {
        "length": 32,
        "start": 788
      },
      {
        "length": 32,
        "start": 932
      },
      {
        "length": 32,
        "start": 1334
      },
      {
        "length": 32,
        "start": 2415
      },
      {
        "length": 32,
        "start": 3553
      },
      {
        "length": 32,
        "start": 3689
      },
      {
        "length": 32,
        "start": 4040
      },
      {
        "length": 32,
        "start": 4484
      },
      {
        "length": 32,
        "start": 5579
      },
      {
        "length": 32,
        "start": 7258
      },
      {
        "length": 32,
        "start": 7653
      },
      {
        "length": 32,
        "start": 8010
      }
    ],
    "3555": [
      {
        "length": 32,
        "start": 448
      },
      {
        "length": 32,
        "start": 1783
      },
      {
        "length": 32,
        "start": 2067
      },
      {
        "length": 32,
        "start": 8926
      },
      {
        "length": 32,
        "start": 9025
      },
      {
        "length": 32,
        "start": 9225
      }
    ],
    "3559": [
      {
        "length": 32,
        "start": 840
      }
    ]
  },
  "source": "// SPDX-License-Identifier: Unlicensed\npragma solidity =0.8.4;\npragma abicoder v2;\n\nimport \"./router/SwapRouter.sol\";\nimport \"./router/LiquidityRouter.sol\";\nimport \"./abstract/PeripheryImmutableState.sol\";\n\ncontract PocketSwapRouter is\nPeripheryImmutableState,\nPeripheryValidation,\nSwapRouter,\nLiquidityRouter\n{\n    constructor(address _factory, address _WETH9, address _pocketToken)\n    PeripheryImmutableState(_factory, _WETH9, _pocketToken) {}\n}",
  "sourcePath": "/Users/ilyk/projects/midgardtech/xpocket-PocketSwap/PocketSwap/contracts/pocketswap/PocketSwapRouter.sol",
  "compiler": {
    "name": "solc",
    "version": "0.8.4+commit.c7e474f2.Emscripten.clang"
  },
  "schemaVersion": "3.4.3",
  "updatedAt": "2022-05-31T08:09:13.770Z",
  "networkType": "ethereum",
  "devdoc": {
    "kind": "dev",
    "methods": {
      "multicall(bytes[])": {
        "details": "The `msg.value` should not be trusted for any method callable from multicall.",
        "params": {
          "data": "The encoded function data for each of the calls to make to this contract"
        },
        "returns": {
          "results": "The results from each of the calls passed in via data"
        }
      },
      "swap((address,address,address,uint256,uint256,uint256))": {
        "params": {
          "params": "The parameters necessary for the swap, encoded as `SwapParams` in calldata"
        },
        "returns": {
          "amountOut": "The amount of the received token"
        }
      },
      "swapMulti((bytes,address,uint256,uint256,uint256))": {
        "params": {
          "params": "The parameters necessary for the multi-hop swap, encoded as `SwapMultiParams` in calldata"
        },
        "returns": {
          "amountOut": "The amount of the received token"
        }
      },
      "sweepToken(address,uint256,address)": {
        "details": "The amountMinimum parameter prevents malicious contracts from stealing the token from users",
        "params": {
          "amountMinimum": "The minimum amount of token required for a transfer",
          "recipient": "The destination address of the token",
          "token": "The contract address of the token which will be transferred to `recipient`"
        }
      },
      "unwrapWETH9(uint256,address)": {
        "details": "The amountMinimum parameter prevents malicious contracts from stealing WETH9 from users.",
        "params": {
          "amountMinimum": "The minimum amount of WETH9 to unwrap",
          "recipient": "The address receiving ETH"
        }
      }
    },
    "version": 1
  },
  "userdoc": {
    "kind": "user",
    "methods": {
      "multicall(bytes[])": {
        "notice": "Call multiple functions in the current contract and return the data from all of them if they all succeed"
      },
      "swap((address,address,address,uint256,uint256,uint256))": {
        "notice": "Swaps `amountIn` of one token for as much as possible of another token"
      },
      "swapMulti((bytes,address,uint256,uint256,uint256))": {
        "notice": "Swaps `amountIn` of one token for as much as possible of another along the specified path"
      },
      "sweepToken(address,uint256,address)": {
        "notice": "Sends the full amount of a token held by this contract to the given recipient"
      },
      "unwrapWETH9(uint256,address)": {
        "notice": "Unwraps the contract's WETH9 balance and sends it to recipient as ETH."
      }
    },
    "version": 1
  }
}